{
  "contractName": "CryptoBrawlers",
  "abi": [
    {
      "constant": true,
      "inputs": [
        {
          "name": "_interfaceID",
          "type": "bytes4"
        }
      ],
      "name": "supportsInterface",
      "outputs": [
        {
          "name": "",
          "type": "bool"
        }
      ],
      "payable": false,
      "stateMutability": "view",
      "type": "function"
    },
    {
      "constant": true,
      "inputs": [
        {
          "name": "",
          "type": "address"
        }
      ],
      "name": "fighterCountForOwner",
      "outputs": [
        {
          "name": "",
          "type": "uint256"
        }
      ],
      "payable": false,
      "stateMutability": "view",
      "type": "function"
    },
    {
      "constant": true,
      "inputs": [
        {
          "name": "_tokenId",
          "type": "uint256"
        },
        {
          "name": "_preferredTransport",
          "type": "string"
        }
      ],
      "name": "tokenMetadata",
      "outputs": [
        {
          "name": "infoUrl",
          "type": "string"
        }
      ],
      "payable": false,
      "stateMutability": "view",
      "type": "function"
    },
    {
      "constant": true,
      "inputs": [],
      "name": "name",
      "outputs": [
        {
          "name": "",
          "type": "string"
        }
      ],
      "payable": false,
      "stateMutability": "view",
      "type": "function"
    },
    {
      "constant": false,
      "inputs": [
        {
          "name": "_to",
          "type": "address"
        },
        {
          "name": "_tokenId",
          "type": "uint256"
        }
      ],
      "name": "approve",
      "outputs": [],
      "payable": false,
      "stateMutability": "nonpayable",
      "type": "function"
    },
    {
      "constant": true,
      "inputs": [],
      "name": "totalSupply",
      "outputs": [
        {
          "name": "",
          "type": "uint256"
        }
      ],
      "payable": false,
      "stateMutability": "view",
      "type": "function"
    },
    {
      "constant": false,
      "inputs": [
        {
          "name": "_recipient",
          "type": "address"
        }
      ],
      "name": "withdrawBalanceToAddress",
      "outputs": [],
      "payable": false,
      "stateMutability": "nonpayable",
      "type": "function"
    },
    {
      "constant": false,
      "inputs": [
        {
          "name": "_from",
          "type": "address"
        },
        {
          "name": "_to",
          "type": "address"
        },
        {
          "name": "_tokenId",
          "type": "uint256"
        }
      ],
      "name": "transferFrom",
      "outputs": [],
      "payable": false,
      "stateMutability": "nonpayable",
      "type": "function"
    },
    {
      "constant": true,
      "inputs": [
        {
          "name": "_fighterId",
          "type": "uint256"
        }
      ],
      "name": "getPriceForFighter",
      "outputs": [
        {
          "name": "",
          "type": "uint256"
        }
      ],
      "payable": false,
      "stateMutability": "view",
      "type": "function"
    },
    {
      "constant": false,
      "inputs": [
        {
          "name": "queryId",
          "type": "bytes32"
        },
        {
          "name": "result",
          "type": "string"
        }
      ],
      "name": "__callback",
      "outputs": [],
      "payable": false,
      "stateMutability": "nonpayable",
      "type": "function"
    },
    {
      "constant": false,
      "inputs": [
        {
          "name": "_recipient",
          "type": "address"
        },
        {
          "name": "_maxHealth",
          "type": "uint256"
        },
        {
          "name": "_speed",
          "type": "uint256"
        },
        {
          "name": "_strength",
          "type": "uint256"
        },
        {
          "name": "_typeId",
          "type": "uint256"
        }
      ],
      "name": "customOwnerCreation",
      "outputs": [],
      "payable": false,
      "stateMutability": "nonpayable",
      "type": "function"
    },
    {
      "constant": false,
      "inputs": [
        {
          "name": "myid",
          "type": "bytes32"
        },
        {
          "name": "result",
          "type": "string"
        },
        {
          "name": "proof",
          "type": "bytes"
        }
      ],
      "name": "__callback",
      "outputs": [],
      "payable": false,
      "stateMutability": "nonpayable",
      "type": "function"
    },
    {
      "constant": false,
      "inputs": [
        {
          "name": "_fighterId",
          "type": "uint256"
        },
        {
          "name": "_attribute",
          "type": "string"
        },
        {
          "name": "_seed",
          "type": "uint256"
        }
      ],
      "name": "trainFighter",
      "outputs": [
        {
          "name": "",
          "type": "uint256"
        }
      ],
      "payable": true,
      "stateMutability": "payable",
      "type": "function"
    },
    {
      "constant": false,
      "inputs": [
        {
          "name": "newProbability",
          "type": "uint256"
        }
      ],
      "name": "setFighterCreationChance",
      "outputs": [],
      "payable": false,
      "stateMutability": "nonpayable",
      "type": "function"
    },
    {
      "constant": true,
      "inputs": [
        {
          "name": "",
          "type": "uint256"
        }
      ],
      "name": "fighterIdToApproved",
      "outputs": [
        {
          "name": "",
          "type": "address"
        }
      ],
      "payable": false,
      "stateMutability": "view",
      "type": "function"
    },
    {
      "constant": false,
      "inputs": [
        {
          "name": "newFactor",
          "type": "uint256"
        }
      ],
      "name": "setTrainingFactor",
      "outputs": [],
      "payable": false,
      "stateMutability": "nonpayable",
      "type": "function"
    },
    {
      "constant": true,
      "inputs": [
        {
          "name": "",
          "type": "uint256"
        }
      ],
      "name": "fighterIdToOwner",
      "outputs": [
        {
          "name": "",
          "type": "address"
        }
      ],
      "payable": false,
      "stateMutability": "view",
      "type": "function"
    },
    {
      "constant": true,
      "inputs": [],
      "name": "oraclizeGasLimit",
      "outputs": [
        {
          "name": "",
          "type": "uint256"
        }
      ],
      "payable": false,
      "stateMutability": "view",
      "type": "function"
    },
    {
      "constant": false,
      "inputs": [
        {
          "name": "_fighterId",
          "type": "uint256"
        }
      ],
      "name": "removeFighterFromSale",
      "outputs": [],
      "payable": false,
      "stateMutability": "nonpayable",
      "type": "function"
    },
    {
      "constant": false,
      "inputs": [],
      "name": "withdrawBalance",
      "outputs": [],
      "payable": false,
      "stateMutability": "nonpayable",
      "type": "function"
    },
    {
      "constant": true,
      "inputs": [
        {
          "name": "_tokenId",
          "type": "uint256"
        }
      ],
      "name": "ownerOf",
      "outputs": [
        {
          "name": "owner",
          "type": "address"
        }
      ],
      "payable": false,
      "stateMutability": "view",
      "type": "function"
    },
    {
      "constant": false,
      "inputs": [
        {
          "name": "_fighterId",
          "type": "uint256"
        }
      ],
      "name": "removeFighterFromArena",
      "outputs": [],
      "payable": false,
      "stateMutability": "nonpayable",
      "type": "function"
    },
    {
      "constant": false,
      "inputs": [
        {
          "name": "newEndpoint",
          "type": "string"
        }
      ],
      "name": "setNewCombatEndpoint",
      "outputs": [],
      "payable": false,
      "stateMutability": "nonpayable",
      "type": "function"
    },
    {
      "constant": true,
      "inputs": [],
      "name": "combatEndpoint",
      "outputs": [
        {
          "name": "",
          "type": "string"
        }
      ],
      "payable": false,
      "stateMutability": "view",
      "type": "function"
    },
    {
      "constant": true,
      "inputs": [],
      "name": "startingFighterPrice",
      "outputs": [
        {
          "name": "",
          "type": "uint256"
        }
      ],
      "payable": false,
      "stateMutability": "view",
      "type": "function"
    },
    {
      "constant": true,
      "inputs": [],
      "name": "trainingCost",
      "outputs": [
        {
          "name": "",
          "type": "uint256"
        }
      ],
      "payable": false,
      "stateMutability": "view",
      "type": "function"
    },
    {
      "constant": true,
      "inputs": [
        {
          "name": "_owner",
          "type": "address"
        }
      ],
      "name": "balanceOf",
      "outputs": [
        {
          "name": "count",
          "type": "uint256"
        }
      ],
      "payable": false,
      "stateMutability": "view",
      "type": "function"
    },
    {
      "constant": false,
      "inputs": [
        {
          "name": "_recipient",
          "type": "address"
        },
        {
          "name": "_seed",
          "type": "uint256"
        }
      ],
      "name": "ownerCreation",
      "outputs": [],
      "payable": false,
      "stateMutability": "nonpayable",
      "type": "function"
    },
    {
      "constant": true,
      "inputs": [
        {
          "name": "",
          "type": "address"
        },
        {
          "name": "",
          "type": "uint256"
        }
      ],
      "name": "ownedFighters",
      "outputs": [
        {
          "name": "",
          "type": "uint256"
        }
      ],
      "payable": false,
      "stateMutability": "view",
      "type": "function"
    },
    {
      "constant": true,
      "inputs": [
        {
          "name": "_owner",
          "type": "address"
        }
      ],
      "name": "tokensOfOwner",
      "outputs": [
        {
          "name": "ownerTokens",
          "type": "uint256[]"
        }
      ],
      "payable": false,
      "stateMutability": "view",
      "type": "function"
    },
    {
      "constant": true,
      "inputs": [],
      "name": "owner",
      "outputs": [
        {
          "name": "",
          "type": "address"
        }
      ],
      "payable": false,
      "stateMutability": "view",
      "type": "function"
    },
    {
      "constant": false,
      "inputs": [
        {
          "name": "x",
          "type": "bytes32"
        }
      ],
      "name": "bytes32ToString",
      "outputs": [
        {
          "name": "",
          "type": "string"
        }
      ],
      "payable": false,
      "stateMutability": "nonpayable",
      "type": "function"
    },
    {
      "constant": false,
      "inputs": [
        {
          "name": "_newCut",
          "type": "uint256"
        }
      ],
      "name": "setNewMarketplaceCut",
      "outputs": [],
      "payable": false,
      "stateMutability": "nonpayable",
      "type": "function"
    },
    {
      "constant": true,
      "inputs": [],
      "name": "symbol",
      "outputs": [
        {
          "name": "",
          "type": "string"
        }
      ],
      "payable": false,
      "stateMutability": "view",
      "type": "function"
    },
    {
      "constant": true,
      "inputs": [
        {
          "name": "",
          "type": "uint256"
        }
      ],
      "name": "fighterIdToBrawl",
      "outputs": [
        {
          "name": "",
          "type": "uint256"
        }
      ],
      "payable": false,
      "stateMutability": "view",
      "type": "function"
    },
    {
      "constant": false,
      "inputs": [
        {
          "name": "newCost",
          "type": "uint256"
        }
      ],
      "name": "setNewTrainingCost",
      "outputs": [],
      "payable": false,
      "stateMutability": "nonpayable",
      "type": "function"
    },
    {
      "constant": true,
      "inputs": [
        {
          "name": "",
          "type": "uint256"
        }
      ],
      "name": "fighterIdToSale",
      "outputs": [
        {
          "name": "fighterId",
          "type": "uint256"
        },
        {
          "name": "price",
          "type": "uint256"
        }
      ],
      "payable": false,
      "stateMutability": "view",
      "type": "function"
    },
    {
      "constant": false,
      "inputs": [
        {
          "name": "_to",
          "type": "address"
        },
        {
          "name": "_tokenId",
          "type": "uint256"
        }
      ],
      "name": "transfer",
      "outputs": [],
      "payable": false,
      "stateMutability": "nonpayable",
      "type": "function"
    },
    {
      "constant": true,
      "inputs": [],
      "name": "marketplaceCut",
      "outputs": [
        {
          "name": "",
          "type": "uint256"
        }
      ],
      "payable": false,
      "stateMutability": "view",
      "type": "function"
    },
    {
      "constant": true,
      "inputs": [],
      "name": "trainingFactor",
      "outputs": [
        {
          "name": "",
          "type": "uint256"
        }
      ],
      "payable": false,
      "stateMutability": "view",
      "type": "function"
    },
    {
      "constant": false,
      "inputs": [
        {
          "name": "_fighterId",
          "type": "uint256"
        },
        {
          "name": "_price",
          "type": "uint256"
        }
      ],
      "name": "makeFighterAvailableForSale",
      "outputs": [],
      "payable": false,
      "stateMutability": "nonpayable",
      "type": "function"
    },
    {
      "constant": true,
      "inputs": [],
      "name": "erc721Metadata",
      "outputs": [
        {
          "name": "",
          "type": "address"
        }
      ],
      "payable": false,
      "stateMutability": "view",
      "type": "function"
    },
    {
      "constant": false,
      "inputs": [
        {
          "name": "_owner",
          "type": "address"
        }
      ],
      "name": "getFightersForAddress",
      "outputs": [
        {
          "name": "",
          "type": "uint256[]"
        }
      ],
      "payable": false,
      "stateMutability": "nonpayable",
      "type": "function"
    },
    {
      "constant": false,
      "inputs": [],
      "name": "killConract",
      "outputs": [],
      "payable": false,
      "stateMutability": "nonpayable",
      "type": "function"
    },
    {
      "constant": false,
      "inputs": [
        {
          "name": "newGas",
          "type": "uint256"
        }
      ],
      "name": "setNewOraclizeGasLimit",
      "outputs": [],
      "payable": false,
      "stateMutability": "nonpayable",
      "type": "function"
    },
    {
      "constant": false,
      "inputs": [
        {
          "name": "_attackerId",
          "type": "uint256"
        },
        {
          "name": "_defenderId",
          "type": "uint256"
        }
      ],
      "name": "fight",
      "outputs": [],
      "payable": true,
      "stateMutability": "payable",
      "type": "function"
    },
    {
      "constant": false,
      "inputs": [
        {
          "name": "_fighterId",
          "type": "uint256"
        }
      ],
      "name": "buyFighter",
      "outputs": [],
      "payable": true,
      "stateMutability": "payable",
      "type": "function"
    },
    {
      "constant": false,
      "inputs": [
        {
          "name": "newCost",
          "type": "uint256"
        }
      ],
      "name": "setNewArenaCost",
      "outputs": [],
      "payable": false,
      "stateMutability": "nonpayable",
      "type": "function"
    },
    {
      "constant": true,
      "inputs": [
        {
          "name": "",
          "type": "uint256"
        }
      ],
      "name": "fighterTypes",
      "outputs": [
        {
          "name": "",
          "type": "string"
        }
      ],
      "payable": false,
      "stateMutability": "view",
      "type": "function"
    },
    {
      "constant": false,
      "inputs": [
        {
          "name": "_contractAddress",
          "type": "address"
        }
      ],
      "name": "setMetadataAddress",
      "outputs": [],
      "payable": false,
      "stateMutability": "nonpayable",
      "type": "function"
    },
    {
      "constant": false,
      "inputs": [
        {
          "name": "_fighterId",
          "type": "uint256"
        }
      ],
      "name": "makeFighterAvailableForBrawl",
      "outputs": [],
      "payable": false,
      "stateMutability": "nonpayable",
      "type": "function"
    },
    {
      "constant": true,
      "inputs": [],
      "name": "arenaCost",
      "outputs": [
        {
          "name": "",
          "type": "uint256"
        }
      ],
      "payable": false,
      "stateMutability": "view",
      "type": "function"
    },
    {
      "constant": false,
      "inputs": [
        {
          "name": "_fighterId",
          "type": "uint256"
        }
      ],
      "name": "healFighter",
      "outputs": [],
      "payable": true,
      "stateMutability": "payable",
      "type": "function"
    },
    {
      "constant": false,
      "inputs": [
        {
          "name": "newOwner",
          "type": "address"
        }
      ],
      "name": "transferOwnership",
      "outputs": [],
      "payable": false,
      "stateMutability": "nonpayable",
      "type": "function"
    },
    {
      "constant": true,
      "inputs": [],
      "name": "chanceOfFighterCreation",
      "outputs": [
        {
          "name": "",
          "type": "uint256"
        }
      ],
      "payable": false,
      "stateMutability": "view",
      "type": "function"
    },
    {
      "constant": false,
      "inputs": [
        {
          "name": "_seed",
          "type": "uint256"
        }
      ],
      "name": "searchForFighter",
      "outputs": [
        {
          "name": "fighterFound",
          "type": "bool"
        }
      ],
      "payable": false,
      "stateMutability": "nonpayable",
      "type": "function"
    },
    {
      "inputs": [],
      "payable": false,
      "stateMutability": "nonpayable",
      "type": "constructor"
    },
    {
      "anonymous": false,
      "inputs": [
        {
          "indexed": false,
          "name": "buyer",
          "type": "address"
        },
        {
          "indexed": false,
          "name": "price",
          "type": "uint256"
        },
        {
          "indexed": false,
          "name": "fighterId",
          "type": "uint256"
        },
        {
          "indexed": false,
          "name": "seller",
          "type": "address"
        }
      ],
      "name": "PurchaseSuccess",
      "type": "event"
    },
    {
      "anonymous": false,
      "inputs": [
        {
          "indexed": false,
          "name": "winner",
          "type": "address"
        },
        {
          "indexed": false,
          "name": "winnerId",
          "type": "uint256"
        },
        {
          "indexed": false,
          "name": "loser",
          "type": "address"
        },
        {
          "indexed": false,
          "name": "loserId",
          "type": "uint256"
        },
        {
          "indexed": false,
          "name": "fighterInArena",
          "type": "uint256"
        },
        {
          "indexed": false,
          "name": "split1",
          "type": "string"
        },
        {
          "indexed": false,
          "name": "split2",
          "type": "string"
        }
      ],
      "name": "FightComplete",
      "type": "event"
    },
    {
      "anonymous": false,
      "inputs": [
        {
          "indexed": false,
          "name": "owner",
          "type": "address"
        },
        {
          "indexed": false,
          "name": "fighterId",
          "type": "uint256"
        }
      ],
      "name": "MarketplaceRemoval",
      "type": "event"
    },
    {
      "anonymous": false,
      "inputs": [
        {
          "indexed": false,
          "name": "owner",
          "type": "address"
        },
        {
          "indexed": false,
          "name": "fighterId",
          "type": "uint256"
        }
      ],
      "name": "ArenaRemoval",
      "type": "event"
    },
    {
      "anonymous": false,
      "inputs": [
        {
          "indexed": false,
          "name": "owner",
          "type": "address"
        },
        {
          "indexed": false,
          "name": "fighterId",
          "type": "uint256"
        },
        {
          "indexed": false,
          "name": "price",
          "type": "uint256"
        }
      ],
      "name": "MarketplaceAdd",
      "type": "event"
    },
    {
      "anonymous": false,
      "inputs": [
        {
          "indexed": false,
          "name": "owner",
          "type": "address"
        },
        {
          "indexed": false,
          "name": "fighterId",
          "type": "uint256"
        }
      ],
      "name": "ArenaAdd",
      "type": "event"
    },
    {
      "anonymous": false,
      "inputs": [
        {
          "indexed": false,
          "name": "_string",
          "type": "string"
        }
      ],
      "name": "Test",
      "type": "event"
    },
    {
      "anonymous": false,
      "inputs": [
        {
          "indexed": false,
          "name": "from",
          "type": "address"
        },
        {
          "indexed": false,
          "name": "to",
          "type": "address"
        },
        {
          "indexed": false,
          "name": "tokenId",
          "type": "uint256"
        }
      ],
      "name": "Transfer",
      "type": "event"
    },
    {
      "anonymous": false,
      "inputs": [
        {
          "indexed": false,
          "name": "owner",
          "type": "address"
        },
        {
          "indexed": false,
          "name": "approved",
          "type": "address"
        },
        {
          "indexed": false,
          "name": "tokenId",
          "type": "uint256"
        }
      ],
      "name": "Approval",
      "type": "event"
    },
    {
      "anonymous": false,
      "inputs": [
        {
          "indexed": false,
          "name": "_keccak1",
          "type": "bytes32"
        },
        {
          "indexed": false,
          "name": "_keccak2",
          "type": "bytes32"
        }
      ],
      "name": "Test",
      "type": "event"
    },
    {
      "anonymous": false,
      "inputs": [
        {
          "indexed": false,
          "name": "owner",
          "type": "address"
        },
        {
          "indexed": false,
          "name": "fighterId",
          "type": "uint256"
        },
        {
          "indexed": false,
          "name": "maxHealth",
          "type": "uint256"
        },
        {
          "indexed": false,
          "name": "speed",
          "type": "uint256"
        },
        {
          "indexed": false,
          "name": "strength",
          "type": "uint256"
        },
        {
          "indexed": false,
          "name": "fighterType",
          "type": "string"
        }
      ],
      "name": "Creation",
      "type": "event"
    },
    {
      "anonymous": false,
      "inputs": [
        {
          "indexed": false,
          "name": "owner",
          "type": "address"
        },
        {
          "indexed": false,
          "name": "fighterId",
          "type": "uint256"
        },
        {
          "indexed": false,
          "name": "attribute",
          "type": "string"
        },
        {
          "indexed": false,
          "name": "increaseValue",
          "type": "uint256"
        }
      ],
      "name": "AttributeIncrease",
      "type": "event"
    },
    {
      "anonymous": false,
      "inputs": [
        {
          "indexed": false,
          "name": "owner",
          "type": "address"
        },
        {
          "indexed": false,
          "name": "fighterId",
          "type": "uint256"
        },
        {
          "indexed": false,
          "name": "maxHealth",
          "type": "uint256"
        }
      ],
      "name": "Healed",
      "type": "event"
    },
    {
      "anonymous": false,
      "inputs": [
        {
          "indexed": false,
          "name": "fighterWasFound",
          "type": "bool"
        },
        {
          "indexed": false,
          "name": "owner",
          "type": "address"
        },
        {
          "indexed": false,
          "name": "fighterId",
          "type": "uint256"
        }
      ],
      "name": "FighterFound",
      "type": "event"
    },
    {
      "constant": false,
      "inputs": [
        {
          "name": "newType",
          "type": "string"
        },
        {
          "name": "weakness",
          "type": "string"
        }
      ],
      "name": "addNewFighterType",
      "outputs": [],
      "payable": false,
      "stateMutability": "nonpayable",
      "type": "function"
    },
    {
      "constant": false,
      "inputs": [
        {
          "name": "startingFighters",
          "type": "uint256"
        }
      ],
      "name": "setupStartingFighters",
      "outputs": [],
      "payable": false,
      "stateMutability": "nonpayable",
      "type": "function"
    },
    {
      "constant": false,
      "inputs": [
        {
          "name": "_fighterId",
          "type": "uint256"
        }
      ],
      "name": "getInfoForFighter",
      "outputs": [
        {
          "name": "maxHealth",
          "type": "uint256"
        },
        {
          "name": "health",
          "type": "uint256"
        },
        {
          "name": "speed",
          "type": "uint256"
        },
        {
          "name": "strength",
          "type": "uint256"
        },
        {
          "name": "isForSale",
          "type": "bool"
        },
        {
          "name": "isInArena",
          "type": "bool"
        },
        {
          "name": "fighterType",
          "type": "string"
        }
      ],
      "payable": false,
      "stateMutability": "nonpayable",
      "type": "function"
    },
    {
      "constant": false,
      "inputs": [
        {
          "name": "newGasPrice",
          "type": "uint256"
        }
      ],
      "name": "setNewOraclizeGasPrice",
      "outputs": [],
      "payable": false,
      "stateMutability": "nonpayable",
      "type": "function"
    }
  ],
  "bytecode": "0x6060604052600360015560036002556611c37937e08000600355662386f26fc100006004556005600d55608060405190810160405280604381526020017f68747470733a2f2f72696e6b656279627261776c6261636b656e642e6865726f81526020017f6b756170702e636f6d2f6170692f6172656e612f63616c63756c61746557696e81526020017f6e65720000000000000000000000000000000000000000000000000000000000815250600e908051620000c1929160200190620009fa565b50620b71b0600f556611c37937e080006017553415620000e057600080fd5b60008054600160a060020a03191633600160a060020a03161790556200017b604080519081016040908152600882527f4d6f6220426f737300000000000000000000000000000000000000000000000060208301528051908101604052600881527f4d6f6220426f7373000000000000000000000000000000000000000000000000602082015264010000000062002df26200031f82021704565b620001fb604080519081016040908152600e82527f4c6f63616c204d4d41205374617200000000000000000000000000000000000060208301528051908101604052600881527f48656e63686d616e000000000000000000000000000000000000000000000000602082015264010000000062002df26200031f82021704565b6200027b604080519081016040908152600782527f526f61646d616e0000000000000000000000000000000000000000000000000060208301528051908101604052600e81527f4c6f63616c204d4d412053746172000000000000000000000000000000000000602082015264010000000062002df26200031f82021704565b620002fb604080519081016040908152600882527f48656e63686d616e00000000000000000000000000000000000000000000000060208301528051908101604052600781527f526f61646d616e00000000000000000000000000000000000000000000000000602082015264010000000062002df26200031f82021704565b6200031964012a05f20064010000000062002c63620003d382021704565b62000b33565b600a80546001810162000333838262000a7f565b600092835260209092200183805162000351929160200190620009fa565b505080600b836040518082805190602001908083835b60208310620003885780518252601f19909201916020918201910162000367565b6001836020036101000a0380198251168184511680821785525050505050509050019150509081526020016040518091039020908051620003ce929160200190620009fa565b505050565b601054600160a060020a031615806200040e57506010546200040c90600160a060020a03166401000000006200355b620005dd82021704565b155b1562000430576200042e60006401000000006200355f620005e182021704565b505b601054600160a060020a03166338cc48316000604051602001526040518163ffffffff167c0100000000000000000000000000000000000000000000000000000000028152600401602060405180830381600087803b15156200049257600080fd5b6102c65a03f11515620004a457600080fd5b5050506040518051601154600160a060020a0390811691161490506200056257601054600160a060020a03166338cc48316000604051602001526040518163ffffffff167c0100000000000000000000000000000000000000000000000000000000028152600401602060405180830381600087803b15156200052657600080fd5b6102c65a03f115156200053857600080fd5b505050604051805160118054600160a060020a031916600160a060020a0392909216919091179055505b601154600160a060020a031663ca6ad1e4826040517c010000000000000000000000000000000000000000000000000000000063ffffffff84160281526004810191909152602401600060405180830381600087803b1515620005c457600080fd5b6102c65a03f11515620005d657600080fd5b5050505b50565b3b90565b6000620005fb640100000000620040366200060182021704565b92915050565b60008062000631731d3b2638a7cc9f2cb3d298a3da7a90b67e5506ed6401000000006200355b620005dd82021704565b1115620006b35760108054600160a060020a031916731d3b2638a7cc9f2cb3d298a3da7a90b67e5506ed179055620006aa60408051908101604052600b81527f6574685f6d61696e6e6574000000000000000000000000000000000000000000602082015264010000000062004474620009e182021704565b506001620009de565b6000620006e273c03a2615d5efaf5f49f60b7bb6583eaec212fdf16401000000006200355b620005dd82021704565b11156200075b5760108054600160a060020a03191673c03a2615d5efaf5f49f60b7bb6583eaec212fdf1179055620006aa60408051908101604052600c81527f6574685f726f707374656e330000000000000000000000000000000000000000602082015264010000000062004474620009e182021704565b60006200078a73b7a07bcf2ba2f2703b24c0691b5278999c59ac7e6401000000006200355b620005dd82021704565b1115620008035760108054600160a060020a03191673b7a07bcf2ba2f2703b24c0691b5278999c59ac7e179055620006aa60408051908101604052600981527f6574685f6b6f76616e0000000000000000000000000000000000000000000000602082015264010000000062004474620009e182021704565b60006200083273146500cfd35b22e4a392fe0adc06de1a1368ed486401000000006200355b620005dd82021704565b1115620008ab5760108054600160a060020a03191673146500cfd35b22e4a392fe0adc06de1a1368ed48179055620006aa60408051908101604052600b81527f6574685f72696e6b656279000000000000000000000000000000000000000000602082015264010000000062004474620009e182021704565b6000620008da736f485c8bf6fc43ea212e93bbf8ce046c7f1cb4756401000000006200355b620005dd82021704565b111562000910575060108054600160a060020a031916736f485c8bf6fc43ea212e93bbf8ce046c7f1cb4751790556001620009de565b60006200093f7320e12a1f859b3feae5fb2a0a32c18f5a65555bbf6401000000006200355b620005dd82021704565b111562000975575060108054600160a060020a0319167320e12a1f859b3feae5fb2a0a32c18f5a65555bbf1790556001620009de565b6000620009a47351efaf4c8b3c9afbd5ab9f4bbc82784ab6ef8faa6401000000006200355b620005dd82021704565b1115620009da575060108054600160a060020a0319167351efaf4c8b3c9afbd5ab9f4bbc82784ab6ef8faa1790556001620009de565b5060005b90565b6012818051620009f6929160200190620009fa565b5050565b828054600181600116156101000203166002900490600052602060002090601f016020900481019282601f1062000a3d57805160ff191683800117855562000a6d565b8280016001018555821562000a6d579182015b8281111562000a6d57825182559160200191906001019062000a50565b5062000a7b92915062000aa6565b5090565b815481835581811511620003ce57600083815260209020620003ce91810190830162000ac3565b620009de91905b8082111562000a7b576000815560010162000aad565b620009de91905b8082111562000a7b57600062000ae1828262000aeb565b5060010162000aca565b50805460018160011615610100020316600290046000825580601f1062000b135750620005da565b601f016020900490600052602060002090810190620005da919062000aa6565b6147598062000b436000396000f3006060604052600436106102b05763ffffffff60e060020a60003504166301ffc9a781146102b5578063027f48f7146103015780630560ff441461033257806306fdde03146103cb578063095ea7b3146103de57806318160ddd146104025780631ba210111461041557806323b872dd14610434578063241860aa1461045c57806327dc297e146104725780632b1a8d46146104c857806338bbfa50146104f35780633f40d2881461058b57806340e4e048146105a557806344e59ee9146105bb578063495ac3a8146105ed5780634b193933146106035780634c67899b1461061957806350b9c428146106d757806354c3bfa1146106ea5780635fd8c710146107005780636352211e14610713578063641e3aae14610729578063656aa88a1461073f5780636bbd3c971461075d5780636f4eb7e814610770578063701a19fd1461078357806370a08231146107965780638053e5d8146107b55780638357b8dd146107d75780638462151c146107f95780638d4c4b691461086b5780638da5cb5b146108815780639201de5514610894578063920b4a2d146108aa57806395d89b41146108c0578063a2df64df146108d3578063a5557ce0146108e9578063a707c73c146108ff578063a9059cbb1461092d578063ad2dccfe1461094f578063b2912d6214610962578063b64ce34a1461098c578063b6e570641461099f578063bc4006f5146109b8578063c20548ac146109cb578063c48f66f2146109ea578063c7cffa0f146109fd578063c977cf6614610a13578063ca39e5ef14610a29578063cbb5bbbf14610a37578063d004cad414610a42578063d9861dab14610a58578063e17b25af14610a6e578063e88f4f1f14610a8d578063ea9b50c514610aa3578063efbeef8014610ab6578063f2fde38b14610ac1578063f36014d214610ae0578063f6a6771614610af3575b600080fd5b34156102c057600080fd5b6102ed7fffffffff0000000000000000000000000000000000000000000000000000000060043516610b09565b604051901515815260200160405180910390f35b341561030c57600080fd5b610320600160a060020a0360043516610d90565b60405190815260200160405180910390f35b341561033d57600080fd5b610354600480359060248035908101910135610da2565b60405160208082528190810183818151815260200191508051906020019080838360005b83811015610390578082015183820152602001610378565b50505050905090810190601f1680156103bd5780820380516001836020036101000a031916815260200191505b509250505060405180910390f35b34156103d657600080fd5b610354610e7f565b34156103e957600080fd5b610400600160a060020a0360043516602435610eb6565b005b341561040d57600080fd5b610320610f29565b341561042057600080fd5b610400600160a060020a0360043516610f30565b341561043f57600080fd5b610400600160a060020a0360043581169060243516604435610f8b565b341561046757600080fd5b610320600435610ffb565b341561047d57600080fd5b610400600480359060446024803590810190830135806020601f8201819004810201604051908101604052818152929190602084018383808284375094965061101095505050505050565b34156104d357600080fd5b610400600160a060020a036004351660243560443560643560843561129c565b34156104fe57600080fd5b610400600480359060446024803590810190830135806020601f8201819004810201604051908101604052818152929190602084018383808284378201915050505050509190803590602001908201803590602001908080601f016020809104026020016040519081016040528181529291906020840183838082843750949650610ff695505050505050565b61032060048035906024803590810191013560443561137e565b34156105b057600080fd5b61040060043561140f565b34156105c657600080fd5b6105d160043561142f565b604051600160a060020a03909116815260200160405180910390f35b34156105f857600080fd5b61040060043561144a565b341561060e57600080fd5b6105d160043561146a565b341561062457600080fd5b61062f600435611485565b604051878152602081018790526040810186905260608101859052831515608082015282151560a082015260e060c0820181815290820183818151815260200191508051906020019080838360005b8381101561069657808201518382015260200161067e565b50505050905090810190601f1680156106c35780820380516001836020036101000a031916815260200191505b509850505050505050505060405180910390f35b34156106e257600080fd5b6103206115d5565b34156106f557600080fd5b6104006004356115db565b341561070b57600080fd5b610400611654565b341561071e57600080fd5b6105d16004356116aa565b341561073457600080fd5b6104006004356116ce565b341561074a57600080fd5b6104006004803560248101910135611747565b341561076857600080fd5b61035461176e565b341561077b57600080fd5b61032061180c565b341561078e57600080fd5b610320611812565b34156107a157600080fd5b610320600160a060020a0360043516611818565b34156107c057600080fd5b610400600160a060020a0360043516602435611833565b34156107e257600080fd5b610320600160a060020a0360043516602435611894565b341561080457600080fd5b610818600160a060020a03600435166118c2565b60405160208082528190810183818151815260200191508051906020019060200280838360005b8381101561085757808201518382015260200161083f565b505050509050019250505060405180910390f35b341561087657600080fd5b6104006004356119a3565b341561088c57600080fd5b6105d16119c7565b341561089f57600080fd5b6103546004356119d6565b34156108b557600080fd5b610400600435611b14565b34156108cb57600080fd5b610354611b34565b34156108de57600080fd5b610320600435611b6b565b34156108f457600080fd5b610400600435611b7d565b341561090a57600080fd5b610915600435611b9d565b60405191825260208201526040908101905180910390f35b341561093857600080fd5b610400600160a060020a0360043516602435611bb6565b341561095a57600080fd5b610320611c10565b341561096d57600080fd5b6104006024600480358281019290820135918135918201910135611c16565b341561099757600080fd5b610320611ca1565b34156109aa57600080fd5b610400600435602435611ca7565b34156109c357600080fd5b6105d1611d6b565b34156109d657600080fd5b610818600160a060020a0360043516611d7a565b34156109f557600080fd5b610400611dfd565b3415610a0857600080fd5b610400600435611e26565b3415610a1e57600080fd5b610400600435611e46565b610400600435602435611ea7565b6104006004356120db565b3415610a4d57600080fd5b610400600435612108565b3415610a6357600080fd5b610354600435612128565b3415610a7957600080fd5b610400600160a060020a03600435166121b0565b3415610a9857600080fd5b6104006004356121d2565b3415610aae57600080fd5b610320612268565b61040060043561226e565b3415610acc57600080fd5b610400600160a060020a0360043516612297565b3415610aeb57600080fd5b6103206122e1565b3415610afe57600080fd5b6102ed6004356122e7565b60006040517f737570706f727473496e7465726661636528627974657334290000000000000081526019016040518091039020600160e060020a03191682600160e060020a0319161480610d8857506040517f746f6b656e4d657461646174612875696e743235362c737472696e67290000008152601d0160405180910390206040517f746f6b656e734f664f776e657228616464726573732900000000000000000000815260160160405180910390206040517f7472616e7366657246726f6d28616464726573732c616464726573732c75696e81527f7432353629000000000000000000000000000000000000000000000000000000602082015260250160405180910390206040517f7472616e7366657228616464726573732c75696e743235362900000000000000815260190160405180910390206040517f617070726f766528616464726573732c75696e74323536290000000000000000815260180160405180910390206040517f6f776e65724f662875696e743235362900000000000000000000000000000000815260100160405180910390206040517f62616c616e63654f662861646472657373290000000000000000000000000000815260120160405180910390206040517f746f74616c537570706c792829000000000000000000000000000000000000008152600d0160405180910390206040517f73796d626f6c2829000000000000000000000000000000000000000000000000815260080160405180910390206040517f6e616d652829000000000000000000000000000000000000000000000000000081526006016040518091039020181818181818181818600160e060020a03191682600160e060020a031916145b90505b919050565b60066020526000908152604090205481565b610daa614487565b610db2614499565b600c54600090600160a060020a03161515610dcc57600080fd5b600c54600160a060020a031663cb4799f2878787600060405160a0015260405160e060020a63ffffffff861602815260048101848152604060248301908152604483018490529091606401848480828437820191505094505050505060a060405180830381600087803b1515610e4157600080fd5b6102c65a03f11515610e5257600080fd5b50505060405180608001805160209091016040529092509050610e75828261240d565b9695505050505050565b60408051908101604052600e81527f43727970746f427261776c657273000000000000000000000000000000000000602082015281565b610ec03382612462565b1515610ecb57600080fd5b610ed58183612482565b7f8c5be1e5ebec7d5bd14f71427d1e84f3dd0314c0f7b2291e5b200ac8c7c3b925338383604051600160a060020a039384168152919092166020820152604080820192909252606001905180910390a15050565b6005545b90565b60005433600160a060020a03908116911614610f4b57600080fd5b80600160a060020a03166108fc30600160a060020a0316319081150290604051600060405180830381858888f193505050501515610f8857600080fd5b50565b600160a060020a0382161515610fa057600080fd5b30600160a060020a031682600160a060020a031614151515610fc157600080fd5b610fcb33826124b0565b1515610fd657600080fd5b610fe08382612462565b1515610feb57600080fd5b610ff68383836124d0565b505050565b60009081526015602052604090206001015490565b6110186144c2565b6110206144c2565b6110286144c2565b60008060006110356125e3565b600160a060020a031633600160a060020a031614151561105457600080fd5b61105d87612783565b955061109b60408051908101604052600181527f20000000000000000000000000000000000000000000000000000000000000006020820152612783565b94506110ad868663ffffffff6127ab16565b93506110c06110bb856127c5565b612813565b92506110ce6110bb876127c5565b91506110d983612820565b156110ee576110e783612833565b50816110f9565b50806110f981612833565b6000828152600760205260408082205485835291205461112691600160a060020a039081169116846124d0565b600083815260076020526040808220548483529120547fbf241719f215f9bd3d49f9d66670de20aa8cd30e77cf54892cbe1fa58d18f9fd91600160a060020a039081169186911685856111788a6127c5565b6111818d6127c5565b604051600160a060020a0380891682526020820188905286166040820152606081018590526080810184905260e060a082018181529060c0830190830185818151815260200191508051906020019080838360005b838110156111ee5780820151838201526020016111d6565b50505050905090810190601f16801561121b5780820380516001836020036101000a031916815260200191505b50838103825284818151815260200191508051906020019080838360005b83811015611251578082015183820152602001611239565b50505050905090810190601f16801561127e5780820380516001836020036101000a031916815260200191505b50995050505050505050505060405180910390a15050505050505050565b60005433600160a060020a039081169116146112b757600080fd5b61137684848488600a868154811015156112cd57fe5b90600052602060002090018054600181600116156101000203166002900480601f01602080910402602001604051908101604052809291908181526020018280546001816001161561010002031660029004801561136c5780601f106113415761010080835404028352916020019161136c565b820191906000526020600020905b81548152906001019060200180831161134f57829003601f168201915b5050505050612844565b505050505050565b6000806003548034101515611405576113973388612462565b15156113a257600080fd5b6002546113ae856129de565b8115156113b757fe5b0491508115156113c657600191505b6114018787878080601f016020809104026020016040519081016040528181529291906020840183838082843750899450612a1f9350505050565b8192505b5050949350505050565b60005433600160a060020a0390811691161461142a57600080fd5b600155565b600860205260009081526040902054600160a060020a031681565b60005433600160a060020a0390811691161461146557600080fd5b600255565b600760205260009081526040902054600160a060020a031681565b600080600080600080611496614487565b61149e6144d9565b600580548a9081106114ac57fe5b906000526020600020906005020160a0604051908101604052908160008201548152602001600182015481526020016002820154815260200160038201548152602001600482018054600181600116156101000203166002900480601f0160208091040260200160405190810160405280929190818152602001828054600181600116156101000203166002900480156115875780601f1061155c57610100808354040283529160200191611587565b820191906000526020600020905b81548152906001019060200180831161156a57829003601f168201915b505050505081525050905080600001518160200151826040015183606001516115af8d612c04565b6115b88e612820565b8660800151959f949e50929c50909a509850965090945092505050565b600f5481565b6115e53382612462565b15156115f057600080fd5b6115f981612c04565b151561160457600080fd5b61160d81612c1a565b7f3e808687755674bf6703cb65acce9b7da494797511c241a38e74134813273be23382604051600160a060020a03909216825260208201526040908101905180910390a150565b60005433600160a060020a0390811691161461166f57600080fd5b600054600160a060020a039081169030163180156108fc0290604051600060405180830381858888f1935050505015156116a857600080fd5b565b600081815260076020526040902054600160a060020a0316801515610d8b57600080fd5b6116d83382612462565b15156116e357600080fd5b6116ec81612820565b15156116f757600080fd5b61170081612833565b7fb3fefaad4d5eb17c447489e1529238e4f44c82b4f99284ca82969e1bfbb8e8c53382604051600160a060020a03909216825260208201526040908101905180910390a150565b60005433600160a060020a0390811691161461176257600080fd5b610ff6600e838361450e565b600e8054600181600116156101000203166002900480601f0160208091040260200160405190810160405280929190818152602001828054600181600116156101000203166002900480156118045780601f106117d957610100808354040283529160200191611804565b820191906000526020600020905b8154815290600101906020018083116117e757829003601f168201915b505050505081565b60175481565b60035481565b600160a060020a031660009081526006602052604090205490565b600080548190819033600160a060020a0390811691161461185357600080fd5b61185c846129de565b9250611867836129de565b915061187b846001600a8054905003612c31565b9050611376600a848488600a868154811015156112cd57fe5b6009602052816000526040600020818154811015156118af57fe5b6000918252602090912001549150829050565b6118ca614487565b60008060006118d7614487565b60006118e287611818565b94508415156119125760006040518059106118fa5750595b90808252806020026020018201604052509550611999565b6000935061191e610f29565b92508460405180591061192e5750595b90808252806020026020018201604052509150600190505b82811161199557600081815260076020526040902054600160a060020a038881169116141561198d578082858151811061197c57fe5b602090810290910101526001909301925b600101611946565b8195505b5050505050919050565b60005433600160a060020a039081169116146119be57600080fd5b610f8881612c63565b600054600160a060020a031681565b6119de614487565b6119e6614487565b60008060006119f3614487565b6020604051805910611a025750595b818152601f19601f83011681016020016040529050945060009350600092505b6020831015611a95576008830260020a870291507fff00000000000000000000000000000000000000000000000000000000000000821615611a8a5781858581518110611a6b57fe5b906020010190600160f860020a031916908160001a9053506001909301925b600190920191611a22565b83604051805910611aa35750595b818152601f19601f830116810160200160405290509050600092505b83831015610e7557848381518110611ad357fe5b016020015160f860020a900460f860020a02818481518110611af157fe5b906020010190600160f860020a031916908160001a905350600190920191611abf565b60005433600160a060020a03908116911614611b2f57600080fd5b600d55565b60408051908101604052600481527f4252574c00000000000000000000000000000000000000000000000000000000602082015281565b60166020526000908152604090205481565b60005433600160a060020a03908116911614611b9857600080fd5b600355565b6015602052600090815260409020805460019091015482565b600160a060020a0382161515611bcb57600080fd5b30600160a060020a031682600160a060020a031614151515611bec57600080fd5b611bf63382612462565b1515611c0157600080fd5b611c0c3383836124d0565b5050565b600d5481565b60005433600160a060020a03908116911614611c3157600080fd5b611c9b84848080601f016020809104026020016040519081016040528181529291906020840183838082843782019150505050505083838080601f016020809104026020016040519081016040528181529291906020840183838082843750612df2945050505050565b50505050565b60025481565b611cb13383612462565b1515611cbc57600080fd5b611cc582612820565b15611ccf57600080fd5b60008111611cdc57600080fd5b60408051908101604090815283825260208083018490526000858152601590915220815181556020820151600190910155507f9eaf5a44f033adc048686ca80e281b74f25fb52e998dd7f8e6812721383ae88a3383836040518084600160a060020a0316600160a060020a03168152602001838152602001828152602001935050505060405180910390a15050565b600c54600160a060020a031681565b611d82614487565b6009600083600160a060020a0316600160a060020a03168152602001908152602001600020805480602002602001604051908101604052809291908181526020018280548015611df157602002820191906000526020600020905b815481526020019060010190808311611ddd575b50505050509050919050565b60005433600160a060020a03908116911614611e1857600080fd5b600054600160a060020a0316ff5b60005433600160a060020a03908116911614611e4157600080fd5b600f55565b600080548190819033600160a060020a03908116911614611e6657600080fd5b600192505b838311611c9b57600a54611e80908490612c31565b9150611e9a600a60058033600a878154811015156112cd57fe5b6001909301929050611e6b565b611eaf614487565b611eb7614487565b600454348190106120d457611ecb84612820565b1515611ed657600080fd5b611ee03386612462565b1515611eeb57600080fd5b611ef53385612462565b15611eff57600080fd5b611f8160408051908101604052600a81527f2f61747461636b65722f000000000000000000000000000000000000000000006020820152611f3f87612e99565b60408051908101604052600a81527f2f646566656e6465722f000000000000000000000000000000000000000000006020820152611f7c88612e99565b612f8d565b92506120916040805190810160405280600581526020017f6a736f6e28000000000000000000000000000000000000000000000000000000815250600e8054600181600116156101000203166002900480601f0160208091040260200160405190810160405280929190818152602001828054600181600116156101000203166002900480156120525780601f1061202757610100808354040283529160200191612052565b820191906000526020600020905b81548152906001019060200180831161203557829003601f168201915b50505050508560408051908101604052600f81527f292e6f7574636f6d65537472696e6700000000000000000000000000000000006020820152612f8d565b915061137660408051908101604052600381527f55524c00000000000000000000000000000000000000000000000000000000006020820152600f548490612fb9565b5050505050565b6120e5813461333f565b600081815260076020526040902054610f8890600160a060020a031633836124d0565b60005433600160a060020a0390811691161461212357600080fd5b600455565b600a80548290811061213657fe5b90600052602060002090016000915090508054600181600116156101000203166002900480601f0160208091040260200160405190810160405280929190818152602001828054600181600116156101000203166002900480156118045780601f106117d957610100808354040283529160200191611804565b600c8054600160a060020a031916600160a060020a0392909216919091179055565b6121dc3382612462565b15156121e757600080fd5b6121f081612c04565b156121fa57600080fd5b61220381612820565b1561220d57600080fd5b600081815260166020526040908190208290557ffd493e9e8a025ff7f65e924f394f7f1c3804e6114587e73b05e393385823ae5f903390839051600160a060020a03909216825260208201526040908101905180910390a150565b60045481565b60035434819010611c0c576122833383612462565b151561228e57600080fd5b611c0c8261344c565b60005433600160a060020a039081169116146122b257600080fd5b600160a060020a03811615610f885760008054600160a060020a038316600160a060020a031990911617905550565b60015481565b6000806000806000806122f987613456565b94506001548581151561230857fe5b0615156123ad57612318876129de565b9350612323846129de565b9250612337876001600a8054905003612c31565b9150612350600a858533600a878154811015156112cd57fe5b90507f9bd510de0dcc8d26bfd35e5e1bad5c406154844b85cde0690dfa7881e481de76600133836040519215158352600160a060020a0390911660208301526040808301919091526060909101905180910390a160019550611999565b7f9bd510de0dcc8d26bfd35e5e1bad5c406154844b85cde0690dfa7881e481de7660003360006040519215158352600160a060020a0390911660208301526040808301919091526060909101905180910390a15060009695505050505050565b612415614487565b61241d614487565b6000808460405180591061242e5750595b818152601f19601f8301168101602001604052905092505060208201905084612458828287613482565b5090949350505050565b600090815260076020526040902054600160a060020a0391821691161490565b6000918252600860205260409091208054600160a060020a031916600160a060020a03909216919091179055565b600090815260086020526040902054600160a060020a0391821691161490565b600160a060020a038216600081815260066020908152604080832080546001908101909155858452600783528184208054600160a060020a0319168617905593835260099091529020805490918101612529838261458c565b506000918252602090912001819055600160a060020a0383161561258e5760008181526008602052604090208054600160a060020a031916905561256d83826134c7565b600160a060020a038316600090815260066020526040902080546000190190555b7fddf252ad1be2c89b69c2b068fc378daa952ba7f163c4a11628f55a4df523b3ef838383604051600160a060020a039384168152919092166020820152604080820192909252606001905180910390a1505050565b601054600090600160a060020a03161580612610575060105461260e90600160a060020a031661355b565b155b156126215761261f600061355f565b505b601054600160a060020a03166338cc48316000604051602001526040518163ffffffff1660e060020a028152600401602060405180830381600087803b151561266957600080fd5b6102c65a03f1151561267a57600080fd5b5050506040518051601154600160a060020a03908116911614905061271c57601054600160a060020a03166338cc48316000604051602001526040518163ffffffff1660e060020a028152600401602060405180830381600087803b15156126e157600080fd5b6102c65a03f115156126f257600080fd5b505050604051805160118054600160a060020a031916600160a060020a0392909216919091179055505b601154600160a060020a031663c281d19e6000604051602001526040518163ffffffff1660e060020a028152600401602060405180830381600087803b151561276457600080fd5b6102c65a03f1151561277557600080fd5b505050604051805191505090565b61278b6144c2565b602082016040805190810160405280845181526020019190915292915050565b6127b36144c2565b6127be838383613569565b5092915050565b6127cd614487565b6127d5614487565b600083516040518059106127e65750595b818152601f19601f8301168101602001604052905091506020820190506127be8185602001518651613482565b6000610d888260006135d8565b6000908152601660205260408120541190565b600090815260166020526040812055565b600061284e6144d9565b600060a06040519081016040528089815260200189815260200188815260200187815260200185815250915060016005805480600101828161289091906145b0565b60009283526020909220859160050201815181556020820151816001015560408201518160020155606082015181600301556080820151816004019080516128dc9291602001906145dc565b50505003905063ffffffff811681146128f457600080fd5b7faf9d5de903d3c24be3b2973b79ee3eefd1b8aada3d46baf60ee9f0d086b75fb985828a8a8a896040518087600160a060020a0316600160a060020a0316815260200186815260200185815260200184815260200183815260200180602001828103825283818151815260200191508051906020019080838360005b83811015612988578082015183820152602001612970565b50505050905090810190601f1680156129b55780820380516001836020036101000a031916815260200191505b5097505050505050505060405180910390a16129d3600086836124d0565b979650505050505050565b600080600a600143034084604051918252602082015260409081019051908190039020811515612a0a57fe5b06905060008111612a19575060015b92915050565b6040517f6d61784865616c746800000000000000000000000000000000000000000000008152600901604051908190039020826040518082805190602001908083835b60208310612a815780518252601f199092019160209182019101612a62565b6001836020036101000a03801982511681845116179092525050509190910192506040915050519081900390201415612ac457612abf838233613746565b610ff6565b6040517f737472656e6774680000000000000000000000000000000000000000000000008152600801604051908190039020826040518082805190602001908083835b60208310612b265780518252601f199092019160209182019101612b07565b6001836020036101000a03801982511681845116179092525050509190910192506040915050519081900390201415612b6457612abf8382336138fe565b6040517f73706565640000000000000000000000000000000000000000000000000000008152600501604051908190039020826040518082805190602001908083835b60208310612bc65780518252601f199092019160209182019101612ba7565b6001836020036101000a03801982511681845116179092525050509190910192506040915050519081900390201415610ff657610ff6838233613a9c565b6000908152601560205260408120600101541190565b600090815260156020526040812081815560010155565b600081600143034084604051918252602082015260409081019051908190039020811515612c5b57fe5b069392505050565b601054600160a060020a03161580612c8d5750601054612c8b90600160a060020a031661355b565b155b15612c9e57612c9c600061355f565b505b601054600160a060020a03166338cc48316000604051602001526040518163ffffffff1660e060020a028152600401602060405180830381600087803b1515612ce657600080fd5b6102c65a03f11515612cf757600080fd5b5050506040518051601154600160a060020a039081169116149050612d9957601054600160a060020a03166338cc48316000604051602001526040518163ffffffff1660e060020a028152600401602060405180830381600087803b1515612d5e57600080fd5b6102c65a03f11515612d6f57600080fd5b505050604051805160118054600160a060020a031916600160a060020a0392909216919091179055505b601154600160a060020a031663ca6ad1e48260405160e060020a63ffffffff84160281526004810191909152602401600060405180830381600087803b1515612de157600080fd5b6102c65a03f11515611c9b57600080fd5b600a805460018101612e04838261464a565b6000928352602090922001838051612e209291602001906145dc565b505080600b836040518082805190602001908083835b60208310612e555780518252601f199092019160209182019101612e36565b6001836020036101000a0380198251168184511680821785525050505050509050019150509081526020016040518091039020908051610ff69291602001906145dc565b612ea1614487565b600080612eac614487565b6000851515612ef05760408051908101604052600181527f300000000000000000000000000000000000000000000000000000000000000060208201529450612f84565b8593505b8315612f0b57600190920191600a84049350612ef4565b82604051805910612f195750595b818152601f19601f8301168101602001604052905091505060001982015b8515612f805760001981019060f860020a6030600a8906010290839081518110612f5d57fe5b906020010190600160f860020a031916908160001a905350600a86049550612f37565b8194505b50505050919050565b612f95614487565b612fb085858585602060405190810160405260008152613c3a565b95945050505050565b6010546000908190600160a060020a03161580612fe85750601054612fe690600160a060020a031661355b565b155b15612ff957612ff7600061355f565b505b601054600160a060020a03166338cc48316000604051602001526040518163ffffffff1660e060020a028152600401602060405180830381600087803b151561304157600080fd5b6102c65a03f1151561305257600080fd5b5050506040518051601154600160a060020a0390811691161490506130f457601054600160a060020a03166338cc48316000604051602001526040518163ffffffff1660e060020a028152600401602060405180830381600087803b15156130b957600080fd5b6102c65a03f115156130ca57600080fd5b505050604051805160118054600160a060020a031916600160a060020a0392909216919091179055505b601154600160a060020a0316632ef3accc86856000604051602001526040518363ffffffff1660e060020a0281526004018080602001838152602001828103825284818151815260200191508051906020019080838360005b8381101561316557808201518382015260200161314d565b50505050905090810190601f1680156131925780820380516001836020036101000a031916815260200191505b509350505050602060405180830381600087803b15156131b157600080fd5b6102c65a03f115156131c257600080fd5b5050506040518051915050670de0b6b3a76400003a8402018111156131ea5760009150613337565b601154600160a060020a031663c51be90f82600088888883604051602001526040518663ffffffff1660e060020a028152600401808581526020018060200180602001848152602001838103835286818151815260200191508051906020019080838360005b83811015613268578082015183820152602001613250565b50505050905090810190601f1680156132955780820380516001836020036101000a031916815260200191505b50838103825285818151815260200191508051906020019080838360005b838110156132cb5780820151838201526020016132b3565b50505050905090810190601f1680156132f85780820380516001836020036101000a031916815260200191505b5096505050505050506020604051808303818588803b151561331957600080fd5b6125ee5a03f1151561332a57600080fd5b5050505060405180519250505b509392505050565b600080600061334e3386612462565b1561335857600080fd5b61336185612c04565b151561336c57600080fd5b60008581526015602052604090206001015484101561338a57600080fd5b600085815260076020526040902054600160a060020a031692506133ad85612c1a565b6133b684613eaa565b915050808303600160a060020a03831681156108fc0282604051600060405180830381858888f1935050505015156133ed57600080fd5b7f4750c394c3222df02b322dd8f4ee23c0025975134406b18d35ab7c9c1bb41ac233858786604051600160a060020a03948516815260208101939093526040808401929092529092166060820152608001905180910390a15050505050565b610f888133613eb6565b6000806064600143034084604051918252602082015260409081019051908190039020811515612a0a57fe5b60005b602082106134a85782518452602084019350602083019250602082039150613485565b6001826020036101000a03905080198351168185511617909352505050565b60005b600160a060020a038316600090815260096020526040902054811015610ff657600160a060020a038316600090815260096020526040902080548391908390811061351157fe5b906000526020600020900154141561355357600160a060020a038316600090815260096020526040902080548290811061354757fe5b60009182526020822001555b6001016134ca565b3b90565b6000610d88614036565b6135716144c2565b6000613589855186602001518651876020015161435a565b905084602001516020808501919091528501518103835284518560200151018114156135b857600085526135cf565b835183510185818151039052508351810160208601525b50909392505050565b60006135e2614487565b5082600080805b8351811015613729577f300000000000000000000000000000000000000000000000000000000000000084828151811061361f57fe5b016020015160f860020a900460f860020a02600160f860020a0319161015801561369057507f390000000000000000000000000000000000000000000000000000000000000084828151811061367157fe5b016020015160f860020a900460f860020a02600160f860020a03191611155b156136e65781156136af578515156136a757613729565b600019909501945b600a8302925060308482815181106136c357fe5b016020015160f860020a900460f860020a0260f860020a90040383019250613721565b8381815181106136f257fe5b016020015160f860020a900460f860020a02600160f860020a031916602e60f860020a02141561372157600191505b6001016135e9565b600086111561373b5785600a0a830292505b509095945050505050565b61374e6144d9565b600580548590811061375c57fe5b906000526020600020906005020160a0604051908101604052908160008201548152602001600182015481526020016002820154815260200160038201548152602001600482018054600181600116156101000203166002900480601f0160208091040260200160405190810160405280929190818152602001828054600181600116156101000203166002900480156138375780601f1061380c57610100808354040283529160200191613837565b820191906000526020600020905b81548152906001019060200180831161381a57829003601f168201915b505050505081525050905080600001518160200151141561385f578281602001818151019052505b8281818151019052506138728185614417565b7fca04611e80f005feb5aafd7553030c696e4de100604c325926807c6cbda6a7c3828585604051600160a060020a03909316835260208301919091526060820152608060408083018290526009918301919091527f6d61784865616c7468000000000000000000000000000000000000000000000060a083015260c0909101905180910390a150505050565b6139066144d9565b600580548590811061391457fe5b906000526020600020906005020160a0604051908101604052908160008201548152602001600182015481526020016002820154815260200160038201548152602001600482018054600181600116156101000203166002900480601f0160208091040260200160405190810160405280929190818152602001828054600181600116156101000203166002900480156139ef5780601f106139c4576101008083540402835291602001916139ef565b820191906000526020600020905b8154815290600101906020018083116139d257829003601f168201915b5050505050815250509050828160600181815101905250613a108185614417565b7fca04611e80f005feb5aafd7553030c696e4de100604c325926807c6cbda6a7c3828585604051600160a060020a03909316835260208301919091526060820152608060408083018290526008918301919091527f737472656e67746800000000000000000000000000000000000000000000000060a083015260c0909101905180910390a150505050565b613aa46144d9565b6005805485908110613ab257fe5b906000526020600020906005020160a0604051908101604052908160008201548152602001600182015481526020016002820154815260200160038201548152602001600482018054600181600116156101000203166002900480601f016020809104026020016040519081016040528092919081815260200182805460018160011615610100020316600290048015613b8d5780601f10613b6257610100808354040283529160200191613b8d565b820191906000526020600020905b815481529060010190602001808311613b7057829003601f168201915b5050505050815250509050828160400181815101905250613bae8185614417565b7fca04611e80f005feb5aafd7553030c696e4de100604c325926807c6cbda6a7c3828585604051600160a060020a03909316835260208301919091526060820152608060408083018290526005918301919091527f737065656400000000000000000000000000000000000000000000000000000060a083015260c0909101905180910390a150505050565b613c42614487565b613c4a614487565b613c52614487565b613c5a614487565b613c62614487565b613c6a614487565b613c72614487565b613c7a614487565b6000808e98508d97508c96508b95508a94508451865188518a518c5101010101604051805910613ca75750595b818152601f19601f83011681016020016040529050935083925060009150600090505b8851811015613d2357888181518110613cdf57fe5b016020015160f860020a900460f860020a02838380600101945081518110613d0357fe5b906020010190600160f860020a031916908160001a905350600101613cca565b5060005b8751811015613d8057878181518110613d3c57fe5b016020015160f860020a900460f860020a02838380600101945081518110613d6057fe5b906020010190600160f860020a031916908160001a905350600101613d27565b5060005b8651811015613ddd57868181518110613d9957fe5b016020015160f860020a900460f860020a02838380600101945081518110613dbd57fe5b906020010190600160f860020a031916908160001a905350600101613d84565b5060005b8551811015613e3a57858181518110613df657fe5b016020015160f860020a900460f860020a02838380600101945081518110613e1a57fe5b906020010190600160f860020a031916908160001a905350600101613de1565b5060005b8451811015613e9757848181518110613e5357fe5b016020015160f860020a900460f860020a02838380600101945081518110613e7757fe5b906020010190600160f860020a031916908160001a905350600101613e3e565b50909d9c50505050505050505050505050565b600d5460649091040290565b613ebe6144d9565b6005805484908110613ecc57fe5b906000526020600020906005020160a0604051908101604052908160008201548152602001600182015481526020016002820154815260200160038201548152602001600482018054600181600116156101000203166002900480601f016020809104026020016040519081016040528092919081815260200182805460018160011615610100020316600290048015613fa75780601f10613f7c57610100808354040283529160200191613fa7565b820191906000526020600020905b815481529060010190602001808311613f8a57829003601f168201915b50505050508152505090508060000151816020015110613fc657600080fd5b80516020820152613fd78184614417565b7f99ac7da70b5c6f1d34e05f1b47107fb3b9a1c1542028d0ad8e86c959568629ed828483516040518084600160a060020a0316600160a060020a03168152602001838152602001828152602001935050505060405180910390a1505050565b600080614056731d3b2638a7cc9f2cb3d298a3da7a90b67e5506ed61355b565b11156140c65760108054600160a060020a031916731d3b2638a7cc9f2cb3d298a3da7a90b67e5506ed1790556140be60408051908101604052600b81527f6574685f6d61696e6e65740000000000000000000000000000000000000000006020820152614474565b506001610f2d565b60006140e573c03a2615d5efaf5f49f60b7bb6583eaec212fdf161355b565b111561414d5760108054600160a060020a03191673c03a2615d5efaf5f49f60b7bb6583eaec212fdf11790556140be60408051908101604052600c81527f6574685f726f707374656e3300000000000000000000000000000000000000006020820152614474565b600061416c73b7a07bcf2ba2f2703b24c0691b5278999c59ac7e61355b565b11156141d45760108054600160a060020a03191673b7a07bcf2ba2f2703b24c0691b5278999c59ac7e1790556140be60408051908101604052600981527f6574685f6b6f76616e00000000000000000000000000000000000000000000006020820152614474565b60006141f373146500cfd35b22e4a392fe0adc06de1a1368ed4861355b565b111561425b5760108054600160a060020a03191673146500cfd35b22e4a392fe0adc06de1a1368ed481790556140be60408051908101604052600b81527f6574685f72696e6b6562790000000000000000000000000000000000000000006020820152614474565b600061427a736f485c8bf6fc43ea212e93bbf8ce046c7f1cb47561355b565b11156142ae575060108054600160a060020a031916736f485c8bf6fc43ea212e93bbf8ce046c7f1cb4751790556001610f2d565b60006142cd7320e12a1f859b3feae5fb2a0a32c18f5a65555bbf61355b565b1115614301575060108054600160a060020a0319167320e12a1f859b3feae5fb2a0a32c18f5a65555bbf1790556001610f2d565b60006143207351efaf4c8b3c9afbd5ab9f4bbc82784ab6ef8faa61355b565b1115614354575060108054600160a060020a0319167351efaf4c8b3c9afbd5ab9f4bbc82784ab6ef8faa1790556001610f2d565b50600090565b600083818080808080808c8b116144015760208b116143ca57600019600860208d90030260020a01199550858a511694508a8d8d010393508588511692505b8285146143c2578388106143b1578c8c019850614407565b600190970196858851169250614399565b879850614407565b8a8a209150600096505b8a8d0387116144015750898720818114156143f157879850614407565b60019788019796909601956143d4565b8c8c0198505b5050505050505050949350505050565b8160058281548110151561442757fe5b9060005260206000209060050201600082015181556020820151816001015560408201518160020155606082015181600301556080820151816004019080516120d49291602001906145dc565b6012818051611c0c9291602001906145dc565b60206040519081016040526000815290565b60806040519081016040526004815b600081526000199190910190602001816144a85790505090565b604080519081016040526000808252602082015290565b60a06040519081016040528060008152602001600081526020016000815260200160008152602001614509614487565b905290565b828054600181600116156101000203166002900490600052602060002090601f016020900481019282601f1061454f5782800160ff1982351617855561457c565b8280016001018555821561457c579182015b8281111561457c578235825591602001919060010190614561565b5061458892915061466e565b5090565b815481835581811511610ff657600083815260209020610ff691810190830161466e565b815481835581811511610ff657600502816005028360005260206000209182019101610ff69190614688565b828054600181600116156101000203166002900490600052602060002090601f016020900481019282601f1061461d57805160ff191683800117855561457c565b8280016001018555821561457c579182015b8281111561457c57825182559160200191906001019061462f565b815481835581811511610ff657600083815260209020610ff69181019083016146c6565b610f2d91905b808211156145885760008155600101614674565b610f2d91905b808211156145885760008082556001820181905560028201819055600382018190556146bd60048301826146e9565b5060050161468e565b610f2d91905b808211156145885760006146e082826146e9565b506001016146cc565b50805460018160011615610100020316600290046000825580601f1061470f5750610f88565b601f016020900490600052602060002090810190610f88919061466e5600a165627a7a7230582006e542bc6c7a140763cd14bade9b1b9ab65c7424b608dee911d04e379c7ac7530029",
  "source": "pragma solidity ^0.4.18;\n\nimport \"./marketplace/Marketplace.sol\";\n\ncontract CryptoBrawlers is Marketplace {\n  uint public startingFighterPrice = 5000000000000000;\n\n  function CryptoBrawlers() {\n    _addFighterType('Mob Boss', 'Mob Boss');\n    _addFighterType('Local MMA Star', 'Henchman');\n    _addFighterType('Roadman', 'Local MMA Star');\n    _addFighterType('Henchman', 'Roadman');\n\n    oraclize_setCustomGasPrice(5000000000 wei);\n  }\n\n  function addNewFighterType(string newType, string weakness) external onlyOwner {\n    _addFighterType(newType, weakness);\n  }\n\n  function setupStartingFighters(uint startingFighters) external onlyOwner {\n    uint count;\n    for(count = 1; count <= startingFighters; count++) {\n      uint _typeId = RandomNumber.randomNumberToMax(count, fighterTypes.length);\n      uint createdFighterId = _createFighter(10, 5, 5, msg.sender, fighterTypes[_typeId]);\n\n      // fighter 0 must always be owned by the creator as it causes problems when trying to be purchased\n      // and transferred etc\n      /* if (createdFighterId > 0) {\n        fighterIdToSale[createdFighterId] = Sale({\n          fighterId: createdFighterId,\n          price: startingFighterPrice\n        });\n      } */\n    }\n  }\n\n  function getInfoForFighter(uint _fighterId)\n    external returns (uint maxHealth, uint health, uint speed, uint strength, bool isForSale, bool isInArena, string fighterType)\n  {\n    Fighter memory _fighter = fighters[_fighterId];\n    return (\n      _fighter.maxHealth,\n      _fighter.health,\n      _fighter.speed,\n      _fighter.strength,\n      _fighterIsForSale(_fighterId),\n      _fighterIsForBrawl(_fighterId),\n      _fighter.fighterType\n    );\n  }\n\n  function setNewOraclizeGasPrice(uint newGasPrice) external onlyOwner {\n    oraclize_setCustomGasPrice(newGasPrice * 1 wei);\n  }\n}\n",
  "sourcePath": "/Users/kendalla/projects/cryptoclash/contracts/CryptoBrawlers.sol",
  "compiler": {
    "name": "solc",
    "version": "0.4.19+commit.c4cbbb05.Emscripten.clang"
  },
  "schemaVersion": "1.0.1",
  "updatedAt": "2018-04-17T15:15:17.934Z"
}