{
  "contractName": "CryptoBrawlers",
  "abi": [
    {
      "constant": true,
      "inputs": [
        {
          "name": "_interfaceID",
          "type": "bytes4"
        }
      ],
      "name": "supportsInterface",
      "outputs": [
        {
          "name": "",
          "type": "bool"
        }
      ],
      "payable": false,
      "stateMutability": "view",
      "type": "function"
    },
    {
      "constant": true,
      "inputs": [
        {
          "name": "",
          "type": "address"
        }
      ],
      "name": "fighterCountForOwner",
      "outputs": [
        {
          "name": "",
          "type": "uint256"
        }
      ],
      "payable": false,
      "stateMutability": "view",
      "type": "function"
    },
    {
      "constant": true,
      "inputs": [
        {
          "name": "_tokenId",
          "type": "uint256"
        },
        {
          "name": "_preferredTransport",
          "type": "string"
        }
      ],
      "name": "tokenMetadata",
      "outputs": [
        {
          "name": "infoUrl",
          "type": "string"
        }
      ],
      "payable": false,
      "stateMutability": "view",
      "type": "function"
    },
    {
      "constant": true,
      "inputs": [],
      "name": "name",
      "outputs": [
        {
          "name": "",
          "type": "string"
        }
      ],
      "payable": false,
      "stateMutability": "view",
      "type": "function"
    },
    {
      "constant": false,
      "inputs": [
        {
          "name": "_to",
          "type": "address"
        },
        {
          "name": "_tokenId",
          "type": "uint256"
        }
      ],
      "name": "approve",
      "outputs": [],
      "payable": false,
      "stateMutability": "nonpayable",
      "type": "function"
    },
    {
      "constant": true,
      "inputs": [],
      "name": "totalSupply",
      "outputs": [
        {
          "name": "",
          "type": "uint256"
        }
      ],
      "payable": false,
      "stateMutability": "view",
      "type": "function"
    },
    {
      "constant": false,
      "inputs": [
        {
          "name": "_recipient",
          "type": "address"
        }
      ],
      "name": "withdrawBalanceToAddress",
      "outputs": [],
      "payable": false,
      "stateMutability": "nonpayable",
      "type": "function"
    },
    {
      "constant": false,
      "inputs": [
        {
          "name": "_from",
          "type": "address"
        },
        {
          "name": "_to",
          "type": "address"
        },
        {
          "name": "_tokenId",
          "type": "uint256"
        }
      ],
      "name": "transferFrom",
      "outputs": [],
      "payable": false,
      "stateMutability": "nonpayable",
      "type": "function"
    },
    {
      "constant": true,
      "inputs": [
        {
          "name": "_fighterId",
          "type": "uint256"
        }
      ],
      "name": "getPriceForFighter",
      "outputs": [
        {
          "name": "",
          "type": "uint256"
        }
      ],
      "payable": false,
      "stateMutability": "view",
      "type": "function"
    },
    {
      "constant": false,
      "inputs": [
        {
          "name": "queryId",
          "type": "bytes32"
        },
        {
          "name": "result",
          "type": "string"
        }
      ],
      "name": "__callback",
      "outputs": [],
      "payable": false,
      "stateMutability": "nonpayable",
      "type": "function"
    },
    {
      "constant": false,
      "inputs": [
        {
          "name": "_recipient",
          "type": "address"
        },
        {
          "name": "_maxHealth",
          "type": "uint256"
        },
        {
          "name": "_speed",
          "type": "uint256"
        },
        {
          "name": "_strength",
          "type": "uint256"
        },
        {
          "name": "_typeId",
          "type": "uint256"
        }
      ],
      "name": "customOwnerCreation",
      "outputs": [],
      "payable": false,
      "stateMutability": "nonpayable",
      "type": "function"
    },
    {
      "constant": false,
      "inputs": [
        {
          "name": "myid",
          "type": "bytes32"
        },
        {
          "name": "result",
          "type": "string"
        },
        {
          "name": "proof",
          "type": "bytes"
        }
      ],
      "name": "__callback",
      "outputs": [],
      "payable": false,
      "stateMutability": "nonpayable",
      "type": "function"
    },
    {
      "constant": false,
      "inputs": [
        {
          "name": "_fighterId",
          "type": "uint256"
        },
        {
          "name": "_attribute",
          "type": "string"
        },
        {
          "name": "_seed",
          "type": "uint256"
        }
      ],
      "name": "trainFighter",
      "outputs": [
        {
          "name": "",
          "type": "uint256"
        }
      ],
      "payable": true,
      "stateMutability": "payable",
      "type": "function"
    },
    {
      "constant": false,
      "inputs": [
        {
          "name": "newProbability",
          "type": "uint256"
        }
      ],
      "name": "setFighterCreationChance",
      "outputs": [],
      "payable": false,
      "stateMutability": "nonpayable",
      "type": "function"
    },
    {
      "constant": true,
      "inputs": [
        {
          "name": "",
          "type": "uint256"
        }
      ],
      "name": "fighterIdToApproved",
      "outputs": [
        {
          "name": "",
          "type": "address"
        }
      ],
      "payable": false,
      "stateMutability": "view",
      "type": "function"
    },
    {
      "constant": false,
      "inputs": [
        {
          "name": "newFactor",
          "type": "uint256"
        }
      ],
      "name": "setTrainingFactor",
      "outputs": [],
      "payable": false,
      "stateMutability": "nonpayable",
      "type": "function"
    },
    {
      "constant": true,
      "inputs": [
        {
          "name": "",
          "type": "uint256"
        }
      ],
      "name": "fighterIdToOwner",
      "outputs": [
        {
          "name": "",
          "type": "address"
        }
      ],
      "payable": false,
      "stateMutability": "view",
      "type": "function"
    },
    {
      "constant": false,
      "inputs": [
        {
          "name": "_fighterId",
          "type": "uint256"
        }
      ],
      "name": "removeFighterFromSale",
      "outputs": [],
      "payable": false,
      "stateMutability": "nonpayable",
      "type": "function"
    },
    {
      "constant": false,
      "inputs": [],
      "name": "withdrawBalance",
      "outputs": [],
      "payable": false,
      "stateMutability": "nonpayable",
      "type": "function"
    },
    {
      "constant": true,
      "inputs": [
        {
          "name": "_tokenId",
          "type": "uint256"
        }
      ],
      "name": "ownerOf",
      "outputs": [
        {
          "name": "owner",
          "type": "address"
        }
      ],
      "payable": false,
      "stateMutability": "view",
      "type": "function"
    },
    {
      "constant": false,
      "inputs": [
        {
          "name": "_fighterId",
          "type": "uint256"
        }
      ],
      "name": "removeFighterFromArena",
      "outputs": [],
      "payable": false,
      "stateMutability": "nonpayable",
      "type": "function"
    },
    {
      "constant": false,
      "inputs": [
        {
          "name": "newEndpoint",
          "type": "string"
        }
      ],
      "name": "setNewCombatEndpoint",
      "outputs": [],
      "payable": false,
      "stateMutability": "nonpayable",
      "type": "function"
    },
    {
      "constant": true,
      "inputs": [],
      "name": "combatEndpoint",
      "outputs": [
        {
          "name": "",
          "type": "string"
        }
      ],
      "payable": false,
      "stateMutability": "view",
      "type": "function"
    },
    {
      "constant": true,
      "inputs": [],
      "name": "startingFighterPrice",
      "outputs": [
        {
          "name": "",
          "type": "uint256"
        }
      ],
      "payable": false,
      "stateMutability": "view",
      "type": "function"
    },
    {
      "constant": true,
      "inputs": [],
      "name": "trainingCost",
      "outputs": [
        {
          "name": "",
          "type": "uint256"
        }
      ],
      "payable": false,
      "stateMutability": "view",
      "type": "function"
    },
    {
      "constant": true,
      "inputs": [
        {
          "name": "_owner",
          "type": "address"
        }
      ],
      "name": "balanceOf",
      "outputs": [
        {
          "name": "count",
          "type": "uint256"
        }
      ],
      "payable": false,
      "stateMutability": "view",
      "type": "function"
    },
    {
      "constant": false,
      "inputs": [
        {
          "name": "_recipient",
          "type": "address"
        },
        {
          "name": "_seed",
          "type": "uint256"
        }
      ],
      "name": "ownerCreation",
      "outputs": [],
      "payable": false,
      "stateMutability": "nonpayable",
      "type": "function"
    },
    {
      "constant": true,
      "inputs": [
        {
          "name": "",
          "type": "address"
        },
        {
          "name": "",
          "type": "uint256"
        }
      ],
      "name": "ownedFighters",
      "outputs": [
        {
          "name": "",
          "type": "uint256"
        }
      ],
      "payable": false,
      "stateMutability": "view",
      "type": "function"
    },
    {
      "constant": true,
      "inputs": [
        {
          "name": "_owner",
          "type": "address"
        }
      ],
      "name": "tokensOfOwner",
      "outputs": [
        {
          "name": "ownerTokens",
          "type": "uint256[]"
        }
      ],
      "payable": false,
      "stateMutability": "view",
      "type": "function"
    },
    {
      "constant": true,
      "inputs": [],
      "name": "owner",
      "outputs": [
        {
          "name": "",
          "type": "address"
        }
      ],
      "payable": false,
      "stateMutability": "view",
      "type": "function"
    },
    {
      "constant": false,
      "inputs": [
        {
          "name": "_newCut",
          "type": "uint256"
        }
      ],
      "name": "setNewMarketplaceCut",
      "outputs": [],
      "payable": false,
      "stateMutability": "nonpayable",
      "type": "function"
    },
    {
      "constant": true,
      "inputs": [],
      "name": "symbol",
      "outputs": [
        {
          "name": "",
          "type": "string"
        }
      ],
      "payable": false,
      "stateMutability": "view",
      "type": "function"
    },
    {
      "constant": true,
      "inputs": [
        {
          "name": "",
          "type": "uint256"
        }
      ],
      "name": "fighterIdToBrawl",
      "outputs": [
        {
          "name": "",
          "type": "uint256"
        }
      ],
      "payable": false,
      "stateMutability": "view",
      "type": "function"
    },
    {
      "constant": false,
      "inputs": [
        {
          "name": "newCost",
          "type": "uint256"
        }
      ],
      "name": "setNewTrainingCost",
      "outputs": [],
      "payable": false,
      "stateMutability": "nonpayable",
      "type": "function"
    },
    {
      "constant": true,
      "inputs": [
        {
          "name": "",
          "type": "uint256"
        }
      ],
      "name": "fighterIdToSale",
      "outputs": [
        {
          "name": "fighterId",
          "type": "uint256"
        },
        {
          "name": "price",
          "type": "uint256"
        }
      ],
      "payable": false,
      "stateMutability": "view",
      "type": "function"
    },
    {
      "constant": false,
      "inputs": [
        {
          "name": "_to",
          "type": "address"
        },
        {
          "name": "_tokenId",
          "type": "uint256"
        }
      ],
      "name": "transfer",
      "outputs": [],
      "payable": false,
      "stateMutability": "nonpayable",
      "type": "function"
    },
    {
      "constant": true,
      "inputs": [],
      "name": "marketplaceCut",
      "outputs": [
        {
          "name": "",
          "type": "uint256"
        }
      ],
      "payable": false,
      "stateMutability": "view",
      "type": "function"
    },
    {
      "constant": true,
      "inputs": [],
      "name": "trainingFactor",
      "outputs": [
        {
          "name": "",
          "type": "uint256"
        }
      ],
      "payable": false,
      "stateMutability": "view",
      "type": "function"
    },
    {
      "constant": false,
      "inputs": [
        {
          "name": "_fighterId",
          "type": "uint256"
        },
        {
          "name": "_price",
          "type": "uint256"
        }
      ],
      "name": "makeFighterAvailableForSale",
      "outputs": [],
      "payable": false,
      "stateMutability": "nonpayable",
      "type": "function"
    },
    {
      "constant": true,
      "inputs": [],
      "name": "erc721Metadata",
      "outputs": [
        {
          "name": "",
          "type": "address"
        }
      ],
      "payable": false,
      "stateMutability": "view",
      "type": "function"
    },
    {
      "constant": false,
      "inputs": [
        {
          "name": "_owner",
          "type": "address"
        }
      ],
      "name": "getFightersForAddress",
      "outputs": [
        {
          "name": "",
          "type": "uint256[]"
        }
      ],
      "payable": false,
      "stateMutability": "nonpayable",
      "type": "function"
    },
    {
      "constant": false,
      "inputs": [],
      "name": "killConract",
      "outputs": [],
      "payable": false,
      "stateMutability": "nonpayable",
      "type": "function"
    },
    {
      "constant": false,
      "inputs": [
        {
          "name": "_attackerId",
          "type": "uint256"
        },
        {
          "name": "_defenderId",
          "type": "uint256"
        }
      ],
      "name": "fight",
      "outputs": [],
      "payable": true,
      "stateMutability": "payable",
      "type": "function"
    },
    {
      "constant": false,
      "inputs": [
        {
          "name": "_fighterId",
          "type": "uint256"
        }
      ],
      "name": "buyFighter",
      "outputs": [],
      "payable": true,
      "stateMutability": "payable",
      "type": "function"
    },
    {
      "constant": true,
      "inputs": [
        {
          "name": "",
          "type": "uint256"
        }
      ],
      "name": "fighterTypes",
      "outputs": [
        {
          "name": "",
          "type": "string"
        }
      ],
      "payable": false,
      "stateMutability": "view",
      "type": "function"
    },
    {
      "constant": false,
      "inputs": [
        {
          "name": "_contractAddress",
          "type": "address"
        }
      ],
      "name": "setMetadataAddress",
      "outputs": [],
      "payable": false,
      "stateMutability": "nonpayable",
      "type": "function"
    },
    {
      "constant": false,
      "inputs": [
        {
          "name": "_fighterId",
          "type": "uint256"
        }
      ],
      "name": "makeFighterAvailableForBrawl",
      "outputs": [],
      "payable": false,
      "stateMutability": "nonpayable",
      "type": "function"
    },
    {
      "constant": false,
      "inputs": [
        {
          "name": "_fighterId",
          "type": "uint256"
        }
      ],
      "name": "healFighter",
      "outputs": [],
      "payable": true,
      "stateMutability": "payable",
      "type": "function"
    },
    {
      "constant": false,
      "inputs": [
        {
          "name": "newOwner",
          "type": "address"
        }
      ],
      "name": "transferOwnership",
      "outputs": [],
      "payable": false,
      "stateMutability": "nonpayable",
      "type": "function"
    },
    {
      "constant": true,
      "inputs": [],
      "name": "chanceOfFighterCreation",
      "outputs": [
        {
          "name": "",
          "type": "uint256"
        }
      ],
      "payable": false,
      "stateMutability": "view",
      "type": "function"
    },
    {
      "constant": false,
      "inputs": [
        {
          "name": "_seed",
          "type": "uint256"
        }
      ],
      "name": "searchForFighter",
      "outputs": [
        {
          "name": "fighterFound",
          "type": "bool"
        }
      ],
      "payable": false,
      "stateMutability": "nonpayable",
      "type": "function"
    },
    {
      "inputs": [],
      "payable": false,
      "stateMutability": "nonpayable",
      "type": "constructor"
    },
    {
      "anonymous": false,
      "inputs": [
        {
          "indexed": false,
          "name": "buyer",
          "type": "address"
        },
        {
          "indexed": false,
          "name": "price",
          "type": "uint256"
        },
        {
          "indexed": false,
          "name": "fighterId",
          "type": "uint256"
        },
        {
          "indexed": false,
          "name": "seller",
          "type": "address"
        }
      ],
      "name": "PurchaseSuccess",
      "type": "event"
    },
    {
      "anonymous": false,
      "inputs": [
        {
          "indexed": false,
          "name": "winner",
          "type": "address"
        },
        {
          "indexed": false,
          "name": "winnerId",
          "type": "uint256"
        },
        {
          "indexed": false,
          "name": "winnersHealth",
          "type": "uint256"
        },
        {
          "indexed": false,
          "name": "loser",
          "type": "address"
        },
        {
          "indexed": false,
          "name": "loserId",
          "type": "uint256"
        },
        {
          "indexed": false,
          "name": "fighterInArena",
          "type": "uint256"
        }
      ],
      "name": "FightComplete",
      "type": "event"
    },
    {
      "anonymous": false,
      "inputs": [
        {
          "indexed": false,
          "name": "owner",
          "type": "address"
        },
        {
          "indexed": false,
          "name": "fighterId",
          "type": "uint256"
        }
      ],
      "name": "MarketplaceRemoval",
      "type": "event"
    },
    {
      "anonymous": false,
      "inputs": [
        {
          "indexed": false,
          "name": "owner",
          "type": "address"
        },
        {
          "indexed": false,
          "name": "fighterId",
          "type": "uint256"
        }
      ],
      "name": "ArenaRemoval",
      "type": "event"
    },
    {
      "anonymous": false,
      "inputs": [
        {
          "indexed": false,
          "name": "owner",
          "type": "address"
        },
        {
          "indexed": false,
          "name": "fighterId",
          "type": "uint256"
        },
        {
          "indexed": false,
          "name": "price",
          "type": "uint256"
        }
      ],
      "name": "MarketplaceAdd",
      "type": "event"
    },
    {
      "anonymous": false,
      "inputs": [
        {
          "indexed": false,
          "name": "owner",
          "type": "address"
        },
        {
          "indexed": false,
          "name": "fighterId",
          "type": "uint256"
        }
      ],
      "name": "ArenaAdd",
      "type": "event"
    },
    {
      "anonymous": false,
      "inputs": [
        {
          "indexed": false,
          "name": "_string",
          "type": "string"
        }
      ],
      "name": "Test",
      "type": "event"
    },
    {
      "anonymous": false,
      "inputs": [
        {
          "indexed": false,
          "name": "from",
          "type": "address"
        },
        {
          "indexed": false,
          "name": "to",
          "type": "address"
        },
        {
          "indexed": false,
          "name": "tokenId",
          "type": "uint256"
        }
      ],
      "name": "Transfer",
      "type": "event"
    },
    {
      "anonymous": false,
      "inputs": [
        {
          "indexed": false,
          "name": "owner",
          "type": "address"
        },
        {
          "indexed": false,
          "name": "approved",
          "type": "address"
        },
        {
          "indexed": false,
          "name": "tokenId",
          "type": "uint256"
        }
      ],
      "name": "Approval",
      "type": "event"
    },
    {
      "anonymous": false,
      "inputs": [
        {
          "indexed": false,
          "name": "owner",
          "type": "address"
        },
        {
          "indexed": false,
          "name": "fighterId",
          "type": "uint256"
        },
        {
          "indexed": false,
          "name": "maxHealth",
          "type": "uint256"
        },
        {
          "indexed": false,
          "name": "speed",
          "type": "uint256"
        },
        {
          "indexed": false,
          "name": "strength",
          "type": "uint256"
        },
        {
          "indexed": false,
          "name": "fighterType",
          "type": "string"
        }
      ],
      "name": "Creation",
      "type": "event"
    },
    {
      "anonymous": false,
      "inputs": [
        {
          "indexed": false,
          "name": "owner",
          "type": "address"
        },
        {
          "indexed": false,
          "name": "fighterId",
          "type": "uint256"
        },
        {
          "indexed": false,
          "name": "attribute",
          "type": "string"
        },
        {
          "indexed": false,
          "name": "increaseValue",
          "type": "uint256"
        }
      ],
      "name": "AttributeIncrease",
      "type": "event"
    },
    {
      "anonymous": false,
      "inputs": [
        {
          "indexed": false,
          "name": "owner",
          "type": "address"
        },
        {
          "indexed": false,
          "name": "fighterId",
          "type": "uint256"
        },
        {
          "indexed": false,
          "name": "maxHealth",
          "type": "uint256"
        }
      ],
      "name": "Healed",
      "type": "event"
    },
    {
      "anonymous": false,
      "inputs": [
        {
          "indexed": false,
          "name": "fighterWasFound",
          "type": "bool"
        },
        {
          "indexed": false,
          "name": "owner",
          "type": "address"
        },
        {
          "indexed": false,
          "name": "fighterId",
          "type": "uint256"
        }
      ],
      "name": "FighterFound",
      "type": "event"
    },
    {
      "constant": false,
      "inputs": [
        {
          "name": "newType",
          "type": "string"
        },
        {
          "name": "weakness",
          "type": "string"
        }
      ],
      "name": "addNewFighterType",
      "outputs": [],
      "payable": false,
      "stateMutability": "nonpayable",
      "type": "function"
    },
    {
      "constant": false,
      "inputs": [
        {
          "name": "startingFighters",
          "type": "uint256"
        }
      ],
      "name": "setupStartingFighters",
      "outputs": [],
      "payable": false,
      "stateMutability": "nonpayable",
      "type": "function"
    },
    {
      "constant": false,
      "inputs": [
        {
          "name": "_fighterId",
          "type": "uint256"
        }
      ],
      "name": "getInfoForFighter",
      "outputs": [
        {
          "name": "maxHealth",
          "type": "uint256"
        },
        {
          "name": "health",
          "type": "uint256"
        },
        {
          "name": "speed",
          "type": "uint256"
        },
        {
          "name": "strength",
          "type": "uint256"
        },
        {
          "name": "isForSale",
          "type": "bool"
        },
        {
          "name": "isInArena",
          "type": "bool"
        }
      ],
      "payable": false,
      "stateMutability": "nonpayable",
      "type": "function"
    }
  ],
  "bytecode": "0x6060604052600360015560036002556611c37937e080006003556005600c55608060405190810160405280604381526020017f68747470733a2f2f72696e6b656279627261776c6261636b656e642e6865726f81526020017f6b756170702e636f6d2f6170692f6172656e612f63616c63756c61746557696e81526020017f6e65720000000000000000000000000000000000000000000000000000000000815250600d908051620000b6929160200190620003a3565b506611c37937e080006015553415620000ce57600080fd5b60008054600160a060020a03191633600160a060020a031617905562000169604080519081016040908152600882527f4d6f6220426f737300000000000000000000000000000000000000000000000060208301528051908101604052600881527f4d6f6220426f7373000000000000000000000000000000000000000000000000602082015264010000000062002a3a620002ef82021704565b620001e9604080519081016040908152600e82527f4c6f63616c204d4d41205374617200000000000000000000000000000000000060208301528051908101604052600881527f48656e63686d616e000000000000000000000000000000000000000000000000602082015264010000000062002a3a620002ef82021704565b62000269604080519081016040908152600782527f526f61646d616e0000000000000000000000000000000000000000000000000060208301528051908101604052600e81527f4c6f63616c204d4d412053746172000000000000000000000000000000000000602082015264010000000062002a3a620002ef82021704565b620002e9604080519081016040908152600882527f48656e63686d616e00000000000000000000000000000000000000000000000060208301528051908101604052600781527f526f61646d616e00000000000000000000000000000000000000000000000000602082015264010000000062002a3a620002ef82021704565b620004e2565b600980546001810162000303838262000428565b600092835260209092200183805162000321929160200190620003a3565b505080600a836040518082805190602001908083835b60208310620003585780518252601f19909201916020918201910162000337565b6001836020036101000a03801982511681845116808217855250505050505090500191505090815260200160405180910390209080516200039e929160200190620003a3565b505050565b828054600181600116156101000203166002900490600052602060002090601f016020900481019282601f10620003e657805160ff191683800117855562000416565b8280016001018555821562000416579182015b8281111562000416578251825591602001919060010190620003f9565b50620004249291506200044f565b5090565b8154818355818115116200039e576000838152602090206200039e9181019083016200046f565b6200046c91905b8082111562000424576000815560010162000456565b90565b6200046c91905b80821115620004245760006200048d828262000497565b5060010162000476565b50805460018160011615610100020316600290046000825580601f10620004bf5750620004df565b601f016020900490600052602060002090810190620004df91906200044f565b50565b6142f780620004f26000396000f30060606040526004361061026e5763ffffffff60e060020a60003504166301ffc9a78114610273578063027f48f7146102bf5780630560ff44146102f057806306fdde0314610389578063095ea7b31461039c57806318160ddd146103c05780631ba21011146103d357806323b872dd146103f2578063241860aa1461041a57806327dc297e146104305780632b1a8d461461048657806338bbfa50146104b15780633f40d2881461054957806340e4e0481461056357806344e59ee914610579578063495ac3a8146105ab5780634b193933146105c15780634c67899b146105d757806354c3bfa1146106285780635fd8c7101461063e5780636352211e14610651578063641e3aae14610667578063656aa88a1461067d5780636bbd3c971461069b5780636f4eb7e8146106ae578063701a19fd146106c157806370a08231146106d45780638053e5d8146106f35780638357b8dd146107155780638462151c146107375780638da5cb5b146107a9578063920b4a2d146107bc57806395d89b41146107d2578063a2df64df146107e5578063a5557ce0146107fb578063a707c73c14610811578063a9059cbb1461083f578063ad2dccfe14610861578063b2912d6214610874578063b64ce34a1461089e578063b6e57064146108b1578063bc4006f5146108ca578063c20548ac146108dd578063c48f66f2146108fc578063c977cf661461090f578063ca39e5ef14610925578063cbb5bbbf14610933578063d9861dab1461093e578063e17b25af14610954578063e88f4f1f14610973578063efbeef8014610989578063f2fde38b14610994578063f36014d2146109b3578063f6a67716146109c6575b600080fd5b341561027e57600080fd5b6102ab7fffffffff00000000000000000000000000000000000000000000000000000000600435166109dc565b604051901515815260200160405180910390f35b34156102ca57600080fd5b6102de600160a060020a0360043516610c63565b60405190815260200160405180910390f35b34156102fb57600080fd5b610312600480359060248035908101910135610c75565b60405160208082528190810183818151815260200191508051906020019080838360005b8381101561034e578082015183820152602001610336565b50505050905090810190601f16801561037b5780820380516001836020036101000a031916815260200191505b509250505060405180910390f35b341561039457600080fd5b610312610d52565b34156103a757600080fd5b6103be600160a060020a0360043516602435610d89565b005b34156103cb57600080fd5b6102de610dfc565b34156103de57600080fd5b6103be600160a060020a0360043516610e03565b34156103fd57600080fd5b6103be600160a060020a0360043581169060243516604435610e5e565b341561042557600080fd5b6102de600435610ece565b341561043b57600080fd5b6103be600480359060446024803590810190830135806020601f82018190048102016040519081016040528181529291906020840183838082843750949650610ee395505050505050565b341561049157600080fd5b6103be600160a060020a03600435166024356044356064356084356111b9565b34156104bc57600080fd5b6103be600480359060446024803590810190830135806020601f8201819004810201604051908101604052818152929190602084018383808284378201915050505050509190803590602001908201803590602001908080601f016020809104026020016040519081016040528181529291906020840183838082843750949650610ec995505050505050565b6102de60048035906024803590810191013560443561129b565b341561056e57600080fd5b6103be600435611320565b341561058457600080fd5b61058f600435611340565b604051600160a060020a03909116815260200160405180910390f35b34156105b657600080fd5b6103be60043561135b565b34156105cc57600080fd5b61058f60043561137b565b34156105e257600080fd5b6105ed600435611396565b604051958652602086019490945260408086019390935260608501919091521515608084015290151560a083015260c0909101905180910390f35b341561063357600080fd5b6103be6004356114d6565b341561064957600080fd5b6103be61154f565b341561065c57600080fd5b61058f6004356115a5565b341561067257600080fd5b6103be6004356115c9565b341561068857600080fd5b6103be6004803560248101910135611642565b34156106a657600080fd5b610312611669565b34156106b957600080fd5b6102de611707565b34156106cc57600080fd5b6102de61170d565b34156106df57600080fd5b6102de600160a060020a0360043516611713565b34156106fe57600080fd5b6103be600160a060020a036004351660243561172e565b341561072057600080fd5b6102de600160a060020a036004351660243561178f565b341561074257600080fd5b610756600160a060020a03600435166117bd565b60405160208082528190810183818151815260200191508051906020019060200280838360005b8381101561079557808201518382015260200161077d565b505050509050019250505060405180910390f35b34156107b457600080fd5b61058f61189e565b34156107c757600080fd5b6103be6004356118ad565b34156107dd57600080fd5b6103126118cd565b34156107f057600080fd5b6102de600435611904565b341561080657600080fd5b6103be600435611916565b341561081c57600080fd5b610827600435611936565b60405191825260208201526040908101905180910390f35b341561084a57600080fd5b6103be600160a060020a036004351660243561194f565b341561086c57600080fd5b6102de6119a9565b341561087f57600080fd5b6103be60246004803582810192908201359181359182019101356119af565b34156108a957600080fd5b6102de611a3a565b34156108bc57600080fd5b6103be600435602435611a40565b34156108d557600080fd5b61058f611b04565b34156108e857600080fd5b610756600160a060020a0360043516611b13565b341561090757600080fd5b6103be611b96565b341561091a57600080fd5b6103be600435611bbf565b6103be600435602435611c20565b6103be600435611e45565b341561094957600080fd5b610312600435611e72565b341561095f57600080fd5b6103be600160a060020a0360043516611efa565b341561097e57600080fd5b6103be600435611f1c565b6103be600435611fb2565b341561099f57600080fd5b6103be600160a060020a0360043516611fdb565b34156109be57600080fd5b6102de612025565b34156109d157600080fd5b6102ab60043561202b565b60006040517f737570706f727473496e7465726661636528627974657334290000000000000081526019016040518091039020600160e060020a03191682600160e060020a0319161480610c5b57506040517f746f6b656e4d657461646174612875696e743235362c737472696e67290000008152601d0160405180910390206040517f746f6b656e734f664f776e657228616464726573732900000000000000000000815260160160405180910390206040517f7472616e7366657246726f6d28616464726573732c616464726573732c75696e81527f7432353629000000000000000000000000000000000000000000000000000000602082015260250160405180910390206040517f7472616e7366657228616464726573732c75696e743235362900000000000000815260190160405180910390206040517f617070726f766528616464726573732c75696e74323536290000000000000000815260180160405180910390206040517f6f776e65724f662875696e743235362900000000000000000000000000000000815260100160405180910390206040517f62616c616e63654f662861646472657373290000000000000000000000000000815260120160405180910390206040517f746f74616c537570706c792829000000000000000000000000000000000000008152600d0160405180910390206040517f73796d626f6c2829000000000000000000000000000000000000000000000000815260080160405180910390206040517f6e616d652829000000000000000000000000000000000000000000000000000081526006016040518091039020181818181818181818600160e060020a03191682600160e060020a031916145b90505b919050565b60056020526000908152604090205481565b610c7d61403c565b610c8561404e565b600b54600090600160a060020a03161515610c9f57600080fd5b600b54600160a060020a031663cb4799f2878787600060405160a0015260405160e060020a63ffffffff861602815260048101848152604060248301908152604483018490529091606401848480828437820191505094505050505060a060405180830381600087803b1515610d1457600080fd5b6102c65a03f11515610d2557600080fd5b50505060405180608001805160209091016040529092509050610d488282612151565b9695505050505050565b60408051908101604052600e81527f43727970746f427261776c657273000000000000000000000000000000000000602082015281565b610d9333826121a6565b1515610d9e57600080fd5b610da881836121c6565b7f8c5be1e5ebec7d5bd14f71427d1e84f3dd0314c0f7b2291e5b200ac8c7c3b925338383604051600160a060020a039384168152919092166020820152604080820192909252606001905180910390a15050565b6004545b90565b60005433600160a060020a03908116911614610e1e57600080fd5b80600160a060020a03166108fc30600160a060020a0316319081150290604051600060405180830381858888f193505050501515610e5b57600080fd5b50565b600160a060020a0382161515610e7357600080fd5b30600160a060020a031682600160a060020a031614151515610e9457600080fd5b610e9e33826121f4565b1515610ea957600080fd5b610eb383826121a6565b1515610ebe57600080fd5b610ec9838383612214565b505050565b60009081526013602052604090206001015490565b610eeb61403c565b600080600080610ef9612327565b600160a060020a031633600160a060020a03161415610f1757600080fd5b610f548660408051908101604052600181527f2d0000000000000000000000000000000000000000000000000000000000000060208201526124c7565b80548060200260200160405190810160405281815291906000602084015b8282101561102f57838290600052602060002090018054600181600116156101000203166002900480601f01602080910402602001604051908101604052809291908181526020018280546001816001161561010002031660029004801561101b5780601f10610ff05761010080835404028352916020019161101b565b820191906000526020600020905b815481529060010190602001808311610ffe57829003601f168201915b505050505081526020019060010190610f72565b5050505094506110548560008151811061104557fe5b906020019060200201516125ea565b93506110668560018151811061104557fe5b92506110788560028151811061104557fe5b9150611083846125f7565b15611098576110918461260a565b50826110a3565b50816110a38161260a565b816004858154811015156110b357fe5b90600052602060002090600502016001018190555060006004848154811015156110d957fe5b6000918252602080832060016005909302019190910192909255848152600690915260408082205486835291205461111e91600160a060020a03908116911685612214565b6000848152600660205260408082205485835291819020547ffb708df51bbc469c707fb22038e85ab80099cf6182a9f133533b0cee7a098d1692600160a060020a03908116928892879216908890879051600160a060020a0396871681526020810195909552604080860194909452919094166060840152608083019390935260a082019290925260c001905180910390a150505050505050565b60005433600160a060020a039081169116146111d457600080fd5b611293848484886009868154811015156111ea57fe5b90600052602060002090018054600181600116156101000203166002900480601f0160208091040260200160405190810160405280929190818152602001828054600181600116156101000203166002900480156112895780601f1061125e57610100808354040283529160200191611289565b820191906000526020600020905b81548152906001019060200180831161126c57829003601f168201915b505050505061261b565b505050505050565b6000806003548034101515611316576112b433886121a6565b15156112bf57600080fd5b6002546112cb856127b5565b8115156112d457fe5b0491506113128787878080601f0160208091040260200160405190810160405281815292919060208401838380828437508994506127f69350505050565b8192505b5050949350505050565b60005433600160a060020a0390811691161461133b57600080fd5b600155565b600760205260009081526040902054600160a060020a031681565b60005433600160a060020a0390811691161461137657600080fd5b600255565b600660205260009081526040902054600160a060020a031681565b6000806000806000806113a7614077565b60048054899081106113b557fe5b906000526020600020906005020160a0604051908101604052908160008201548152602001600182015481526020016002820154815260200160038201548152602001600482018054600181600116156101000203166002900480601f0160208091040260200160405190810160405280929190818152602001828054600181600116156101000203166002900480156114905780601f1061146557610100808354040283529160200191611490565b820191906000526020600020905b81548152906001019060200180831161147357829003601f168201915b505050505081525050905080600001518160200151826040015183606001516114b88c6129db565b6114c18d6125f7565b949d939c50919a509850965090945092505050565b6114e033826121a6565b15156114eb57600080fd5b6114f4816129db565b15156114ff57600080fd5b611508816129f1565b7f3e808687755674bf6703cb65acce9b7da494797511c241a38e74134813273be23382604051600160a060020a03909216825260208201526040908101905180910390a150565b60005433600160a060020a0390811691161461156a57600080fd5b600054600160a060020a039081169030163180156108fc0290604051600060405180830381858888f1935050505015156115a357600080fd5b565b600081815260066020526040902054600160a060020a0316801515610c5e57600080fd5b6115d333826121a6565b15156115de57600080fd5b6115e7816125f7565b15156115f257600080fd5b6115fb8161260a565b7fb3fefaad4d5eb17c447489e1529238e4f44c82b4f99284ca82969e1bfbb8e8c53382604051600160a060020a03909216825260208201526040908101905180910390a150565b60005433600160a060020a0390811691161461165d57600080fd5b610ec9600d83836140ac565b600d8054600181600116156101000203166002900480601f0160208091040260200160405190810160405280929190818152602001828054600181600116156101000203166002900480156116ff5780601f106116d4576101008083540402835291602001916116ff565b820191906000526020600020905b8154815290600101906020018083116116e257829003601f168201915b505050505081565b60155481565b60035481565b600160a060020a031660009081526005602052604090205490565b600080548190819033600160a060020a0390811691161461174e57600080fd5b611757846127b5565b9250611762836127b5565b915061177684600160098054905003612a08565b9050611293600a8484886009868154811015156111ea57fe5b6008602052816000526040600020818154811015156117aa57fe5b6000918252602090912001549150829050565b6117c561403c565b60008060006117d261403c565b60006117dd87611713565b945084151561180d5760006040518059106117f55750595b90808252806020026020018201604052509550611894565b60009350611819610dfc565b9250846040518059106118295750595b90808252806020026020018201604052509150600190505b82811161189057600081815260066020526040902054600160a060020a0388811691161415611888578082858151811061187757fe5b602090810290910101526001909301925b600101611841565b8195505b5050505050919050565b600054600160a060020a031681565b60005433600160a060020a039081169116146118c857600080fd5b600c55565b60408051908101604052600481527f4252574c00000000000000000000000000000000000000000000000000000000602082015281565b60146020526000908152604090205481565b60005433600160a060020a0390811691161461193157600080fd5b600355565b6013602052600090815260409020805460019091015482565b600160a060020a038216151561196457600080fd5b30600160a060020a031682600160a060020a03161415151561198557600080fd5b61198f33826121a6565b151561199a57600080fd5b6119a5338383612214565b5050565b600c5481565b60005433600160a060020a039081169116146119ca57600080fd5b611a3484848080601f016020809104026020016040519081016040528181529291906020840183838082843782019150505050505083838080601f016020809104026020016040519081016040528181529291906020840183838082843750612a3a945050505050565b50505050565b60025481565b611a4a33836121a6565b1515611a5557600080fd5b611a5e826125f7565b15611a6857600080fd5b60008111611a7557600080fd5b60408051908101604090815283825260208083018490526000858152601390915220815181556020820151600190910155507f9eaf5a44f033adc048686ca80e281b74f25fb52e998dd7f8e6812721383ae88a3383836040518084600160a060020a0316600160a060020a03168152602001838152602001828152602001935050505060405180910390a15050565b600b54600160a060020a031681565b611b1b61403c565b6008600083600160a060020a0316600160a060020a03168152602001908152602001600020805480602002602001604051908101604052809291908181526020018280548015611b8a57602002820191906000526020600020905b815481526020019060010190808311611b76575b50505050509050919050565b60005433600160a060020a03908116911614611bb157600080fd5b600054600160a060020a0316ff5b600080548190819033600160a060020a03908116911614611bdf57600080fd5b600192505b838311611a3457600954611bf9908490612a08565b9150611c13600a600580336009878154811015156111ea57fe5b6001909301929050611be4565b611c2861403c565b611c3061403c565b611c39836125f7565b1515611c4457600080fd5b611c4e33856121a6565b1515611c5957600080fd5b611c6333846121a6565b15611c6d57600080fd5b611cef60408051908101604052600a81527f2f61747461636b65722f000000000000000000000000000000000000000000006020820152611cad86612ae1565b60408051908101604052600a81527f2f646566656e6465722f000000000000000000000000000000000000000000006020820152611cea87612ae1565b612bd5565b9150611dff6040805190810160405280600581526020017f6a736f6e28000000000000000000000000000000000000000000000000000000815250600d8054600181600116156101000203166002900480601f016020809104026020016040519081016040528092919081815260200182805460018160011615610100020316600290048015611dc05780601f10611d9557610100808354040283529160200191611dc0565b820191906000526020600020905b815481529060010190602001808311611da357829003601f168201915b50505050508460408051908101604052600f81527f292e6f7574636f6d65537472696e6700000000000000000000000000000000006020820152612bd5565b9050611e3e60408051908101604052600381527f55524c0000000000000000000000000000000000000000000000000000000000602082015282612c01565b5050505050565b611e4f8134612f79565b600081815260066020526040902054610e5b90600160a060020a03163383612214565b6009805482908110611e8057fe5b90600052602060002090016000915090508054600181600116156101000203166002900480601f0160208091040260200160405190810160405280929190818152602001828054600181600116156101000203166002900480156116ff5780601f106116d4576101008083540402835291602001916116ff565b600b8054600160a060020a031916600160a060020a0392909216919091179055565b611f2633826121a6565b1515611f3157600080fd5b611f3a816129db565b15611f4457600080fd5b611f4d816125f7565b15611f5757600080fd5b600081815260146020526040908190208290557ffd493e9e8a025ff7f65e924f394f7f1c3804e6114587e73b05e393385823ae5f903390839051600160a060020a03909216825260208201526040908101905180910390a150565b600354348190106119a557611fc733836121a6565b1515611fd257600080fd5b6119a582613086565b60005433600160a060020a03908116911614611ff657600080fd5b600160a060020a03811615610e5b5760008054600160a060020a038316600160a060020a031990911617905550565b60015481565b60008060008060008061203d87613090565b94506001548581151561204c57fe5b0615156120f15761205c876127b5565b9350612067846127b5565b925061207b87600160098054905003612a08565b9150612094600a8585336009878154811015156111ea57fe5b90507f9bd510de0dcc8d26bfd35e5e1bad5c406154844b85cde0690dfa7881e481de76600133836040519215158352600160a060020a0390911660208301526040808301919091526060909101905180910390a160019550611894565b7f9bd510de0dcc8d26bfd35e5e1bad5c406154844b85cde0690dfa7881e481de7660003360006040519215158352600160a060020a0390911660208301526040808301919091526060909101905180910390a15060009695505050505050565b61215961403c565b61216161403c565b600080846040518059106121725750595b818152601f19601f830116810160200160405290509250506020820190508461219c8282876130bc565b5090949350505050565b600090815260066020526040902054600160a060020a0391821691161490565b6000918252600760205260409091208054600160a060020a031916600160a060020a03909216919091179055565b600090815260076020526040902054600160a060020a0391821691161490565b600160a060020a038216600081815260056020908152604080832080546001908101909155858452600683528184208054600160a060020a031916861790559383526008909152902080549091810161226d838261412a565b506000918252602090912001819055600160a060020a038316156122d25760008181526007602052604090208054600160a060020a03191690556122b18382613101565b600160a060020a038316600090815260056020526040902080546000190190555b7fddf252ad1be2c89b69c2b068fc378daa952ba7f163c4a11628f55a4df523b3ef838383604051600160a060020a039384168152919092166020820152604080820192909252606001905180910390a1505050565b600e54600090600160a060020a031615806123545750600e5461235290600160a060020a0316613195565b155b15612365576123636000613199565b505b600e54600160a060020a03166338cc48316000604051602001526040518163ffffffff1660e060020a028152600401602060405180830381600087803b15156123ad57600080fd5b6102c65a03f115156123be57600080fd5b5050506040518051600f54600160a060020a03908116911614905061246057600e54600160a060020a03166338cc48316000604051602001526040518163ffffffff1660e060020a028152600401602060405180830381600087803b151561242557600080fd5b6102c65a03f1151561243657600080fd5b5050506040518051600f8054600160a060020a031916600160a060020a0392909216919091179055505b600f54600160a060020a031663c281d19e6000604051602001526040518163ffffffff1660e060020a028152600401602060405180830381600087803b15156124a857600080fd5b6102c65a03f115156124b957600080fd5b505050604051805191505090565b60006124d161403c565b6000806124dc61403c565b6124e461403c565b600080899650600095505b60018751038610156125dd576125068a8a886131a3565b945084600019141561251757865194505b8585036040518059106125275750595b818152601f19601f830116810160200160405290509350839250600091508590505b848110156125a15786818151811061255d57fe5b016020015160f860020a900460f860020a0283838060010194508151811061258157fe5b906020010190600160f860020a031916908160001a905350600101612549565b8460010195508780548060010182816125ba919061414e565b60009283526020909220018480516125d6929160200190614172565b50506124ef565b5050505050505092915050565b6000610c5b82600061324a565b6000908152601460205260408120541190565b600090815260146020526040812055565b6000612625614077565b600060a06040519081016040528089815260200189815260200188815260200187815260200185815250915060016004805480600101828161266791906141e0565b60009283526020909220859160050201815181556020820151816001015560408201518160020155606082015181600301556080820151816004019080516126b3929160200190614172565b50505003905063ffffffff811681146126cb57600080fd5b7faf9d5de903d3c24be3b2973b79ee3eefd1b8aada3d46baf60ee9f0d086b75fb985828a8a8a896040518087600160a060020a0316600160a060020a0316815260200186815260200185815260200184815260200183815260200180602001828103825283818151815260200191508051906020019080838360005b8381101561275f578082015183820152602001612747565b50505050905090810190601f16801561278c5780820380516001836020036101000a031916815260200191505b5097505050505050505060405180910390a16127aa60008683612214565b979650505050505050565b600080600a6001430340846040519182526020820152604090810190519081900390208115156127e157fe5b069050600081116127f0575060015b92915050565b6040517f6d61784865616c746800000000000000000000000000000000000000000000008152600901604051908190039020826040518082805190602001908083835b602083106128585780518252601f199092019160209182019101612839565b6001836020036101000a0380198251168184511617909252505050919091019250604091505051908190039020141561289b576128968382336133b8565b610ec9565b6040517f737472656e6774680000000000000000000000000000000000000000000000008152600801604051908190039020826040518082805190602001908083835b602083106128fd5780518252601f1990920191602091820191016128de565b6001836020036101000a0380198251168184511617909252505050919091019250604091505051908190039020141561293b57612896838233613570565b6040517f73706565640000000000000000000000000000000000000000000000000000008152600501604051908190039020826040518082805190602001908083835b6020831061299d5780518252601f19909201916020918201910161297e565b6001836020036101000a03801982511681845116179092525050509190910192506040915050519081900390201415610ec957610ec983823361370e565b6000908152601360205260408120600101541190565b600090815260136020526040812081815560010155565b600081600143034084604051918252602082015260409081019051908190039020811515612a3257fe5b069392505050565b6009805460018101612a4c838261414e565b6000928352602090922001838051612a68929160200190614172565b505080600a836040518082805190602001908083835b60208310612a9d5780518252601f199092019160209182019101612a7e565b6001836020036101000a0380198251168184511680821785525050505050509050019150509081526020016040518091039020908051610ec9929160200190614172565b612ae961403c565b600080612af461403c565b6000851515612b385760408051908101604052600181527f300000000000000000000000000000000000000000000000000000000000000060208201529450612bcc565b8593505b8315612b5357600190920191600a84049350612b3c565b82604051805910612b615750595b818152601f19601f8301168101602001604052905091505060001982015b8515612bc85760001981019060f860020a6030600a8906010290839081518110612ba557fe5b906020010190600160f860020a031916908160001a905350600a86049550612b7f565b8194505b50505050919050565b612bdd61403c565b612bf8858585856020604051908101604052600081526138ac565b95945050505050565b600e546000908190600160a060020a03161580612c305750600e54612c2e90600160a060020a0316613195565b155b15612c4157612c3f6000613199565b505b600e54600160a060020a03166338cc48316000604051602001526040518163ffffffff1660e060020a028152600401602060405180830381600087803b1515612c8957600080fd5b6102c65a03f11515612c9a57600080fd5b5050506040518051600f54600160a060020a039081169116149050612d3c57600e54600160a060020a03166338cc48316000604051602001526040518163ffffffff1660e060020a028152600401602060405180830381600087803b1515612d0157600080fd5b6102c65a03f11515612d1257600080fd5b5050506040518051600f8054600160a060020a031916600160a060020a0392909216919091179055505b600f54600160a060020a031663524f3889856000604051602001526040518263ffffffff1660e060020a0281526004018080602001828103825283818151815260200191508051906020019080838360005b83811015612da6578082015183820152602001612d8e565b50505050905090810190601f168015612dd35780820380516001836020036101000a031916815260200191505b5092505050602060405180830381600087803b1515612df157600080fd5b6102c65a03f11515612e0257600080fd5b5050506040518051915050670de0b6b3a764000062030d403a0201811115612e2d5760009150612f72565b600f54600160a060020a031663adf59f99826000878782604051602001526040518563ffffffff1660e060020a028152600401808481526020018060200180602001838103835285818151815260200191508051906020019080838360005b83811015612ea4578082015183820152602001612e8c565b50505050905090810190601f168015612ed15780820380516001836020036101000a031916815260200191505b50838103825284818151815260200191508051906020019080838360005b83811015612f07578082015183820152602001612eef565b50505050905090810190601f168015612f345780820380516001836020036101000a031916815260200191505b50955050505050506020604051808303818588803b1515612f5457600080fd5b6125ee5a03f11515612f6557600080fd5b5050505060405180519250505b5092915050565b6000806000612f8833866121a6565b15612f9257600080fd5b612f9b856129db565b1515612fa657600080fd5b600085815260136020526040902060010154841015612fc457600080fd5b600085815260066020526040902054600160a060020a03169250612fe7856129f1565b612ff084613b1c565b915050808303600160a060020a03831681156108fc0282604051600060405180830381858888f19350505050151561302757600080fd5b7f4750c394c3222df02b322dd8f4ee23c0025975134406b18d35ab7c9c1bb41ac233858786604051600160a060020a03948516815260208101939093526040808401929092529092166060820152608001905180910390a15050505050565b610e5b8133613b28565b60008060646001430340846040519182526020820152604090810190519081900390208115156127e157fe5b60005b602082106130e257825184526020840193506020830192506020820391506130bf565b6001826020036101000a03905080198351168185511617909352505050565b60005b600160a060020a038316600090815260086020526040902054811015610ec957600160a060020a038316600090815260086020526040902080548391908390811061314b57fe5b906000526020600020900154141561318d57600160a060020a038316600090815260086020526040902080548290811061318157fe5b60009182526020822001555b600101613104565b3b90565b6000610c5b613ca8565b60006131ad61403c565b6131b561403c565b5084905083600081516001146131c757fe5b50835b825181101561323a57816000815181106131e057fe5b016020015160f860020a900460f860020a02600160f860020a03191683828151811061320857fe5b016020015160f860020a900460f860020a02600160f860020a031916141561323257809350613240565b6001016131ca565b60001993505b5050509392505050565b600061325461403c565b5082600080805b835181101561339b577f300000000000000000000000000000000000000000000000000000000000000084828151811061329157fe5b016020015160f860020a900460f860020a02600160f860020a0319161015801561330257507f39000000000000000000000000000000000000000000000000000000000000008482815181106132e357fe5b016020015160f860020a900460f860020a02600160f860020a03191611155b15613358578115613321578515156133195761339b565b600019909501945b600a83029250603084828151811061333557fe5b016020015160f860020a900460f860020a0260f860020a90040383019250613393565b83818151811061336457fe5b016020015160f860020a900460f860020a02600160f860020a031916602e60f860020a02141561339357600191505b60010161325b565b60008611156133ad5785600a0a830292505b509095945050505050565b6133c0614077565b60048054859081106133ce57fe5b906000526020600020906005020160a0604051908101604052908160008201548152602001600182015481526020016002820154815260200160038201548152602001600482018054600181600116156101000203166002900480601f0160208091040260200160405190810160405280929190818152602001828054600181600116156101000203166002900480156134a95780601f1061347e576101008083540402835291602001916134a9565b820191906000526020600020905b81548152906001019060200180831161348c57829003601f168201915b50505050508152505090508060000151816020015114156134d1578281602001818151019052505b8281818151019052506134e48185613fcc565b7fca04611e80f005feb5aafd7553030c696e4de100604c325926807c6cbda6a7c3828585604051600160a060020a03909316835260208301919091526060820152608060408083018290526009918301919091527f6d61784865616c7468000000000000000000000000000000000000000000000060a083015260c0909101905180910390a150505050565b613578614077565b600480548590811061358657fe5b906000526020600020906005020160a0604051908101604052908160008201548152602001600182015481526020016002820154815260200160038201548152602001600482018054600181600116156101000203166002900480601f0160208091040260200160405190810160405280929190818152602001828054600181600116156101000203166002900480156136615780601f1061363657610100808354040283529160200191613661565b820191906000526020600020905b81548152906001019060200180831161364457829003601f168201915b50505050508152505090508281606001818151019052506136828185613fcc565b7fca04611e80f005feb5aafd7553030c696e4de100604c325926807c6cbda6a7c3828585604051600160a060020a03909316835260208301919091526060820152608060408083018290526008918301919091527f737472656e67746800000000000000000000000000000000000000000000000060a083015260c0909101905180910390a150505050565b613716614077565b600480548590811061372457fe5b906000526020600020906005020160a0604051908101604052908160008201548152602001600182015481526020016002820154815260200160038201548152602001600482018054600181600116156101000203166002900480601f0160208091040260200160405190810160405280929190818152602001828054600181600116156101000203166002900480156137ff5780601f106137d4576101008083540402835291602001916137ff565b820191906000526020600020905b8154815290600101906020018083116137e257829003601f168201915b50505050508152505090508281604001818151019052506138208185613fcc565b7fca04611e80f005feb5aafd7553030c696e4de100604c325926807c6cbda6a7c3828585604051600160a060020a03909316835260208301919091526060820152608060408083018290526005918301919091527f737065656400000000000000000000000000000000000000000000000000000060a083015260c0909101905180910390a150505050565b6138b461403c565b6138bc61403c565b6138c461403c565b6138cc61403c565b6138d461403c565b6138dc61403c565b6138e461403c565b6138ec61403c565b6000808e98508d97508c96508b95508a94508451865188518a518c51010101016040518059106139195750595b818152601f19601f83011681016020016040529050935083925060009150600090505b88518110156139955788818151811061395157fe5b016020015160f860020a900460f860020a0283838060010194508151811061397557fe5b906020010190600160f860020a031916908160001a90535060010161393c565b5060005b87518110156139f2578781815181106139ae57fe5b016020015160f860020a900460f860020a028383806001019450815181106139d257fe5b906020010190600160f860020a031916908160001a905350600101613999565b5060005b8651811015613a4f57868181518110613a0b57fe5b016020015160f860020a900460f860020a02838380600101945081518110613a2f57fe5b906020010190600160f860020a031916908160001a9053506001016139f6565b5060005b8551811015613aac57858181518110613a6857fe5b016020015160f860020a900460f860020a02838380600101945081518110613a8c57fe5b906020010190600160f860020a031916908160001a905350600101613a53565b5060005b8451811015613b0957848181518110613ac557fe5b016020015160f860020a900460f860020a02838380600101945081518110613ae957fe5b906020010190600160f860020a031916908160001a905350600101613ab0565b50909d9c50505050505050505050505050565b600c5460649091040290565b613b30614077565b6004805484908110613b3e57fe5b906000526020600020906005020160a0604051908101604052908160008201548152602001600182015481526020016002820154815260200160038201548152602001600482018054600181600116156101000203166002900480601f016020809104026020016040519081016040528092919081815260200182805460018160011615610100020316600290048015613c195780601f10613bee57610100808354040283529160200191613c19565b820191906000526020600020905b815481529060010190602001808311613bfc57829003601f168201915b50505050508152505090508060000151816020015110613c3857600080fd5b80516020820152613c498184613fcc565b7f99ac7da70b5c6f1d34e05f1b47107fb3b9a1c1542028d0ad8e86c959568629ed828483516040518084600160a060020a0316600160a060020a03168152602001838152602001828152602001935050505060405180910390a1505050565b600080613cc8731d3b2638a7cc9f2cb3d298a3da7a90b67e5506ed613195565b1115613d3857600e8054600160a060020a031916731d3b2638a7cc9f2cb3d298a3da7a90b67e5506ed179055613d3060408051908101604052600b81527f6574685f6d61696e6e65740000000000000000000000000000000000000000006020820152614029565b506001610e00565b6000613d5773c03a2615d5efaf5f49f60b7bb6583eaec212fdf1613195565b1115613dbf57600e8054600160a060020a03191673c03a2615d5efaf5f49f60b7bb6583eaec212fdf1179055613d3060408051908101604052600c81527f6574685f726f707374656e3300000000000000000000000000000000000000006020820152614029565b6000613dde73b7a07bcf2ba2f2703b24c0691b5278999c59ac7e613195565b1115613e4657600e8054600160a060020a03191673b7a07bcf2ba2f2703b24c0691b5278999c59ac7e179055613d3060408051908101604052600981527f6574685f6b6f76616e00000000000000000000000000000000000000000000006020820152614029565b6000613e6573146500cfd35b22e4a392fe0adc06de1a1368ed48613195565b1115613ecd57600e8054600160a060020a03191673146500cfd35b22e4a392fe0adc06de1a1368ed48179055613d3060408051908101604052600b81527f6574685f72696e6b6562790000000000000000000000000000000000000000006020820152614029565b6000613eec736f485c8bf6fc43ea212e93bbf8ce046c7f1cb475613195565b1115613f205750600e8054600160a060020a031916736f485c8bf6fc43ea212e93bbf8ce046c7f1cb4751790556001610e00565b6000613f3f7320e12a1f859b3feae5fb2a0a32c18f5a65555bbf613195565b1115613f735750600e8054600160a060020a0319167320e12a1f859b3feae5fb2a0a32c18f5a65555bbf1790556001610e00565b6000613f927351efaf4c8b3c9afbd5ab9f4bbc82784ab6ef8faa613195565b1115613fc65750600e8054600160a060020a0319167351efaf4c8b3c9afbd5ab9f4bbc82784ab6ef8faa1790556001610e00565b50600090565b81600482815481101515613fdc57fe5b906000526020600020906005020160008201518155602082015181600101556040820151816002015560608201518160030155608082015181600401908051611e3e929160200190614172565b60108180516119a5929160200190614172565b60206040519081016040526000815290565b60806040519081016040526004815b6000815260001991909101906020018161405d5790505090565b60a060405190810160405280600081526020016000815260200160008152602001600081526020016140a761403c565b905290565b828054600181600116156101000203166002900490600052602060002090601f016020900481019282601f106140ed5782800160ff1982351617855561411a565b8280016001018555821561411a579182015b8281111561411a5782358255916020019190600101906140ff565b5061412692915061420c565b5090565b815481835581811511610ec957600083815260209020610ec991810190830161420c565b815481835581811511610ec957600083815260209020610ec9918101908301614226565b828054600181600116156101000203166002900490600052602060002090601f016020900481019282601f106141b357805160ff191683800117855561411a565b8280016001018555821561411a579182015b8281111561411a5782518255916020019190600101906141c5565b815481835581811511610ec957600502816005028360005260206000209182019101610ec99190614249565b610e0091905b808211156141265760008155600101614212565b610e0091905b808211156141265760006142408282614287565b5060010161422c565b610e0091905b8082111561412657600080825560018201819055600282018190556003820181905561427e6004830182614287565b5060050161424f565b50805460018160011615610100020316600290046000825580601f106142ad5750610e5b565b601f016020900490600052602060002090810190610e5b919061420c5600a165627a7a723058202891174aa4c900cee815dc371261f77b2c97e78e47c01f03c09fd456fd02174f0029",
  "source": "pragma solidity ^0.4.18;\n\nimport \"./marketplace/Marketplace.sol\";\n\ncontract CryptoBrawlers is Marketplace {\n  uint public startingFighterPrice = 5000000000000000;\n\n  function CryptoBrawlers() {\n    _addFighterType('Mob Boss', 'Mob Boss');\n    _addFighterType('Local MMA Star', 'Henchman');\n    _addFighterType('Roadman', 'Local MMA Star');\n    _addFighterType('Henchman', 'Roadman');\n  }\n\n  function addNewFighterType(string newType, string weakness) external onlyOwner {\n    _addFighterType(newType, weakness);\n  }\n\n  function setupStartingFighters(uint startingFighters) external onlyOwner {\n    uint count;\n    for(count = 1; count <= startingFighters; count++) {\n      uint _typeId = RandomNumber.randomNumberToMax(count, fighterTypes.length);\n      uint createdFighterId = _createFighter(10, 5, 5, msg.sender, fighterTypes[_typeId]);\n\n      // fighter 0 must always be owned by the creator as it causes problems when trying to be purchased\n      // and transferred etc\n      /* if (createdFighterId > 0) {\n        fighterIdToSale[createdFighterId] = Sale({\n          fighterId: createdFighterId,\n          price: startingFighterPrice\n        });\n      } */\n    }\n  }\n\n  function getInfoForFighter(uint _fighterId)\n    external returns (uint maxHealth, uint health, uint speed, uint strength, bool isForSale, bool isInArena)\n  {\n    Fighter memory _fighter = fighters[_fighterId];\n    return (\n      _fighter.maxHealth,\n      _fighter.health, _fighter.speed,\n      _fighter.strength,\n      _fighterIsForSale(_fighterId),\n      _fighterIsForBrawl(_fighterId)\n    );\n  }\n}\n",
  "sourcePath": "/Users/Aaron/Projects/cryptoclash/contracts/CryptoBrawlers.sol",
  "compiler": {
    "name": "solc",
    "version": "0.4.19+commit.c4cbbb05.Emscripten.clang"
  },
  "schemaVersion": "1.0.1",
  "updatedAt": "2018-02-24T11:20:06.597Z"
}