{
  "contractName": "CryptoBrawlers",
  "abi": [
    {
      "constant": true,
      "inputs": [
        {
          "name": "_interfaceID",
          "type": "bytes4"
        }
      ],
      "name": "supportsInterface",
      "outputs": [
        {
          "name": "",
          "type": "bool"
        }
      ],
      "payable": false,
      "stateMutability": "view",
      "type": "function"
    },
    {
      "constant": true,
      "inputs": [
        {
          "name": "",
          "type": "address"
        }
      ],
      "name": "fighterCountForOwner",
      "outputs": [
        {
          "name": "",
          "type": "uint256"
        }
      ],
      "payable": false,
      "stateMutability": "view",
      "type": "function"
    },
    {
      "constant": true,
      "inputs": [
        {
          "name": "_tokenId",
          "type": "uint256"
        },
        {
          "name": "_preferredTransport",
          "type": "string"
        }
      ],
      "name": "tokenMetadata",
      "outputs": [
        {
          "name": "infoUrl",
          "type": "string"
        }
      ],
      "payable": false,
      "stateMutability": "view",
      "type": "function"
    },
    {
      "constant": true,
      "inputs": [],
      "name": "name",
      "outputs": [
        {
          "name": "",
          "type": "string"
        }
      ],
      "payable": false,
      "stateMutability": "view",
      "type": "function"
    },
    {
      "constant": false,
      "inputs": [
        {
          "name": "_to",
          "type": "address"
        },
        {
          "name": "_tokenId",
          "type": "uint256"
        }
      ],
      "name": "approve",
      "outputs": [],
      "payable": false,
      "stateMutability": "nonpayable",
      "type": "function"
    },
    {
      "constant": true,
      "inputs": [],
      "name": "totalSupply",
      "outputs": [
        {
          "name": "",
          "type": "uint256"
        }
      ],
      "payable": false,
      "stateMutability": "view",
      "type": "function"
    },
    {
      "constant": false,
      "inputs": [
        {
          "name": "_recipient",
          "type": "address"
        }
      ],
      "name": "withdrawBalanceToAddress",
      "outputs": [],
      "payable": false,
      "stateMutability": "nonpayable",
      "type": "function"
    },
    {
      "constant": false,
      "inputs": [
        {
          "name": "_from",
          "type": "address"
        },
        {
          "name": "_to",
          "type": "address"
        },
        {
          "name": "_tokenId",
          "type": "uint256"
        }
      ],
      "name": "transferFrom",
      "outputs": [],
      "payable": false,
      "stateMutability": "nonpayable",
      "type": "function"
    },
    {
      "constant": true,
      "inputs": [
        {
          "name": "_fighterId",
          "type": "uint256"
        }
      ],
      "name": "getPriceForFighter",
      "outputs": [
        {
          "name": "",
          "type": "uint256"
        }
      ],
      "payable": false,
      "stateMutability": "view",
      "type": "function"
    },
    {
      "constant": false,
      "inputs": [
        {
          "name": "queryId",
          "type": "bytes32"
        },
        {
          "name": "result",
          "type": "string"
        }
      ],
      "name": "__callback",
      "outputs": [],
      "payable": false,
      "stateMutability": "nonpayable",
      "type": "function"
    },
    {
      "constant": false,
      "inputs": [
        {
          "name": "_recipient",
          "type": "address"
        },
        {
          "name": "_maxHealth",
          "type": "uint256"
        },
        {
          "name": "_speed",
          "type": "uint256"
        },
        {
          "name": "_strength",
          "type": "uint256"
        },
        {
          "name": "_typeId",
          "type": "uint256"
        }
      ],
      "name": "customOwnerCreation",
      "outputs": [],
      "payable": false,
      "stateMutability": "nonpayable",
      "type": "function"
    },
    {
      "constant": false,
      "inputs": [
        {
          "name": "myid",
          "type": "bytes32"
        },
        {
          "name": "result",
          "type": "string"
        },
        {
          "name": "proof",
          "type": "bytes"
        }
      ],
      "name": "__callback",
      "outputs": [],
      "payable": false,
      "stateMutability": "nonpayable",
      "type": "function"
    },
    {
      "constant": false,
      "inputs": [
        {
          "name": "_fighterId",
          "type": "uint256"
        },
        {
          "name": "_attribute",
          "type": "string"
        },
        {
          "name": "_seed",
          "type": "uint256"
        }
      ],
      "name": "trainFighter",
      "outputs": [
        {
          "name": "",
          "type": "uint256"
        }
      ],
      "payable": true,
      "stateMutability": "payable",
      "type": "function"
    },
    {
      "constant": false,
      "inputs": [
        {
          "name": "newProbability",
          "type": "uint256"
        }
      ],
      "name": "setFighterCreationChance",
      "outputs": [],
      "payable": false,
      "stateMutability": "nonpayable",
      "type": "function"
    },
    {
      "constant": true,
      "inputs": [
        {
          "name": "",
          "type": "uint256"
        }
      ],
      "name": "fighterIdToApproved",
      "outputs": [
        {
          "name": "",
          "type": "address"
        }
      ],
      "payable": false,
      "stateMutability": "view",
      "type": "function"
    },
    {
      "constant": false,
      "inputs": [
        {
          "name": "newFactor",
          "type": "uint256"
        }
      ],
      "name": "setTrainingFactor",
      "outputs": [],
      "payable": false,
      "stateMutability": "nonpayable",
      "type": "function"
    },
    {
      "constant": true,
      "inputs": [
        {
          "name": "",
          "type": "uint256"
        }
      ],
      "name": "fighterIdToOwner",
      "outputs": [
        {
          "name": "",
          "type": "address"
        }
      ],
      "payable": false,
      "stateMutability": "view",
      "type": "function"
    },
    {
      "constant": true,
      "inputs": [],
      "name": "oraclizeGasLimit",
      "outputs": [
        {
          "name": "",
          "type": "uint256"
        }
      ],
      "payable": false,
      "stateMutability": "view",
      "type": "function"
    },
    {
      "constant": false,
      "inputs": [
        {
          "name": "_fighterId",
          "type": "uint256"
        }
      ],
      "name": "removeFighterFromSale",
      "outputs": [],
      "payable": false,
      "stateMutability": "nonpayable",
      "type": "function"
    },
    {
      "constant": false,
      "inputs": [],
      "name": "withdrawBalance",
      "outputs": [],
      "payable": false,
      "stateMutability": "nonpayable",
      "type": "function"
    },
    {
      "constant": true,
      "inputs": [
        {
          "name": "_tokenId",
          "type": "uint256"
        }
      ],
      "name": "ownerOf",
      "outputs": [
        {
          "name": "owner",
          "type": "address"
        }
      ],
      "payable": false,
      "stateMutability": "view",
      "type": "function"
    },
    {
      "constant": false,
      "inputs": [
        {
          "name": "_fighterId",
          "type": "uint256"
        }
      ],
      "name": "removeFighterFromArena",
      "outputs": [],
      "payable": false,
      "stateMutability": "nonpayable",
      "type": "function"
    },
    {
      "constant": false,
      "inputs": [
        {
          "name": "newEndpoint",
          "type": "string"
        }
      ],
      "name": "setNewCombatEndpoint",
      "outputs": [],
      "payable": false,
      "stateMutability": "nonpayable",
      "type": "function"
    },
    {
      "constant": true,
      "inputs": [],
      "name": "combatEndpoint",
      "outputs": [
        {
          "name": "",
          "type": "string"
        }
      ],
      "payable": false,
      "stateMutability": "view",
      "type": "function"
    },
    {
      "constant": true,
      "inputs": [],
      "name": "startingFighterPrice",
      "outputs": [
        {
          "name": "",
          "type": "uint256"
        }
      ],
      "payable": false,
      "stateMutability": "view",
      "type": "function"
    },
    {
      "constant": true,
      "inputs": [],
      "name": "trainingCost",
      "outputs": [
        {
          "name": "",
          "type": "uint256"
        }
      ],
      "payable": false,
      "stateMutability": "view",
      "type": "function"
    },
    {
      "constant": true,
      "inputs": [
        {
          "name": "_owner",
          "type": "address"
        }
      ],
      "name": "balanceOf",
      "outputs": [
        {
          "name": "count",
          "type": "uint256"
        }
      ],
      "payable": false,
      "stateMutability": "view",
      "type": "function"
    },
    {
      "constant": false,
      "inputs": [
        {
          "name": "_recipient",
          "type": "address"
        },
        {
          "name": "_seed",
          "type": "uint256"
        }
      ],
      "name": "ownerCreation",
      "outputs": [],
      "payable": false,
      "stateMutability": "nonpayable",
      "type": "function"
    },
    {
      "constant": true,
      "inputs": [
        {
          "name": "",
          "type": "address"
        },
        {
          "name": "",
          "type": "uint256"
        }
      ],
      "name": "ownedFighters",
      "outputs": [
        {
          "name": "",
          "type": "uint256"
        }
      ],
      "payable": false,
      "stateMutability": "view",
      "type": "function"
    },
    {
      "constant": true,
      "inputs": [
        {
          "name": "_owner",
          "type": "address"
        }
      ],
      "name": "tokensOfOwner",
      "outputs": [
        {
          "name": "ownerTokens",
          "type": "uint256[]"
        }
      ],
      "payable": false,
      "stateMutability": "view",
      "type": "function"
    },
    {
      "constant": true,
      "inputs": [],
      "name": "owner",
      "outputs": [
        {
          "name": "",
          "type": "address"
        }
      ],
      "payable": false,
      "stateMutability": "view",
      "type": "function"
    },
    {
      "constant": false,
      "inputs": [
        {
          "name": "x",
          "type": "bytes32"
        }
      ],
      "name": "bytes32ToString",
      "outputs": [
        {
          "name": "",
          "type": "string"
        }
      ],
      "payable": false,
      "stateMutability": "nonpayable",
      "type": "function"
    },
    {
      "constant": false,
      "inputs": [
        {
          "name": "_newCut",
          "type": "uint256"
        }
      ],
      "name": "setNewMarketplaceCut",
      "outputs": [],
      "payable": false,
      "stateMutability": "nonpayable",
      "type": "function"
    },
    {
      "constant": true,
      "inputs": [],
      "name": "symbol",
      "outputs": [
        {
          "name": "",
          "type": "string"
        }
      ],
      "payable": false,
      "stateMutability": "view",
      "type": "function"
    },
    {
      "constant": true,
      "inputs": [
        {
          "name": "",
          "type": "uint256"
        }
      ],
      "name": "fighterIdToBrawl",
      "outputs": [
        {
          "name": "",
          "type": "uint256"
        }
      ],
      "payable": false,
      "stateMutability": "view",
      "type": "function"
    },
    {
      "constant": false,
      "inputs": [
        {
          "name": "newCost",
          "type": "uint256"
        }
      ],
      "name": "setNewTrainingCost",
      "outputs": [],
      "payable": false,
      "stateMutability": "nonpayable",
      "type": "function"
    },
    {
      "constant": true,
      "inputs": [
        {
          "name": "",
          "type": "uint256"
        }
      ],
      "name": "fighterIdToSale",
      "outputs": [
        {
          "name": "fighterId",
          "type": "uint256"
        },
        {
          "name": "price",
          "type": "uint256"
        }
      ],
      "payable": false,
      "stateMutability": "view",
      "type": "function"
    },
    {
      "constant": false,
      "inputs": [
        {
          "name": "_to",
          "type": "address"
        },
        {
          "name": "_tokenId",
          "type": "uint256"
        }
      ],
      "name": "transfer",
      "outputs": [],
      "payable": false,
      "stateMutability": "nonpayable",
      "type": "function"
    },
    {
      "constant": true,
      "inputs": [],
      "name": "marketplaceCut",
      "outputs": [
        {
          "name": "",
          "type": "uint256"
        }
      ],
      "payable": false,
      "stateMutability": "view",
      "type": "function"
    },
    {
      "constant": true,
      "inputs": [],
      "name": "trainingFactor",
      "outputs": [
        {
          "name": "",
          "type": "uint256"
        }
      ],
      "payable": false,
      "stateMutability": "view",
      "type": "function"
    },
    {
      "constant": false,
      "inputs": [
        {
          "name": "_fighterId",
          "type": "uint256"
        },
        {
          "name": "_price",
          "type": "uint256"
        }
      ],
      "name": "makeFighterAvailableForSale",
      "outputs": [],
      "payable": false,
      "stateMutability": "nonpayable",
      "type": "function"
    },
    {
      "constant": true,
      "inputs": [],
      "name": "erc721Metadata",
      "outputs": [
        {
          "name": "",
          "type": "address"
        }
      ],
      "payable": false,
      "stateMutability": "view",
      "type": "function"
    },
    {
      "constant": false,
      "inputs": [
        {
          "name": "_owner",
          "type": "address"
        }
      ],
      "name": "getFightersForAddress",
      "outputs": [
        {
          "name": "",
          "type": "uint256[]"
        }
      ],
      "payable": false,
      "stateMutability": "nonpayable",
      "type": "function"
    },
    {
      "constant": false,
      "inputs": [],
      "name": "killConract",
      "outputs": [],
      "payable": false,
      "stateMutability": "nonpayable",
      "type": "function"
    },
    {
      "constant": false,
      "inputs": [
        {
          "name": "newGas",
          "type": "uint256"
        }
      ],
      "name": "setNewOraclizeGasLimit",
      "outputs": [],
      "payable": false,
      "stateMutability": "nonpayable",
      "type": "function"
    },
    {
      "constant": false,
      "inputs": [
        {
          "name": "_attackerId",
          "type": "uint256"
        },
        {
          "name": "_defenderId",
          "type": "uint256"
        }
      ],
      "name": "fight",
      "outputs": [],
      "payable": true,
      "stateMutability": "payable",
      "type": "function"
    },
    {
      "constant": false,
      "inputs": [
        {
          "name": "_fighterId",
          "type": "uint256"
        }
      ],
      "name": "buyFighter",
      "outputs": [],
      "payable": true,
      "stateMutability": "payable",
      "type": "function"
    },
    {
      "constant": false,
      "inputs": [
        {
          "name": "newCost",
          "type": "uint256"
        }
      ],
      "name": "setNewArenaCost",
      "outputs": [],
      "payable": false,
      "stateMutability": "nonpayable",
      "type": "function"
    },
    {
      "constant": true,
      "inputs": [
        {
          "name": "",
          "type": "uint256"
        }
      ],
      "name": "fighterTypes",
      "outputs": [
        {
          "name": "",
          "type": "string"
        }
      ],
      "payable": false,
      "stateMutability": "view",
      "type": "function"
    },
    {
      "constant": false,
      "inputs": [
        {
          "name": "_contractAddress",
          "type": "address"
        }
      ],
      "name": "setMetadataAddress",
      "outputs": [],
      "payable": false,
      "stateMutability": "nonpayable",
      "type": "function"
    },
    {
      "constant": false,
      "inputs": [
        {
          "name": "_fighterId",
          "type": "uint256"
        }
      ],
      "name": "makeFighterAvailableForBrawl",
      "outputs": [],
      "payable": false,
      "stateMutability": "nonpayable",
      "type": "function"
    },
    {
      "constant": true,
      "inputs": [],
      "name": "arenaCost",
      "outputs": [
        {
          "name": "",
          "type": "uint256"
        }
      ],
      "payable": false,
      "stateMutability": "view",
      "type": "function"
    },
    {
      "constant": false,
      "inputs": [
        {
          "name": "_fighterId",
          "type": "uint256"
        }
      ],
      "name": "healFighter",
      "outputs": [],
      "payable": true,
      "stateMutability": "payable",
      "type": "function"
    },
    {
      "constant": false,
      "inputs": [
        {
          "name": "newOwner",
          "type": "address"
        }
      ],
      "name": "transferOwnership",
      "outputs": [],
      "payable": false,
      "stateMutability": "nonpayable",
      "type": "function"
    },
    {
      "constant": true,
      "inputs": [],
      "name": "chanceOfFighterCreation",
      "outputs": [
        {
          "name": "",
          "type": "uint256"
        }
      ],
      "payable": false,
      "stateMutability": "view",
      "type": "function"
    },
    {
      "constant": false,
      "inputs": [
        {
          "name": "_seed",
          "type": "uint256"
        }
      ],
      "name": "searchForFighter",
      "outputs": [
        {
          "name": "fighterFound",
          "type": "bool"
        }
      ],
      "payable": false,
      "stateMutability": "nonpayable",
      "type": "function"
    },
    {
      "inputs": [],
      "payable": false,
      "stateMutability": "nonpayable",
      "type": "constructor"
    },
    {
      "anonymous": false,
      "inputs": [
        {
          "indexed": false,
          "name": "buyer",
          "type": "address"
        },
        {
          "indexed": false,
          "name": "price",
          "type": "uint256"
        },
        {
          "indexed": false,
          "name": "fighterId",
          "type": "uint256"
        },
        {
          "indexed": false,
          "name": "seller",
          "type": "address"
        }
      ],
      "name": "PurchaseSuccess",
      "type": "event"
    },
    {
      "anonymous": false,
      "inputs": [
        {
          "indexed": false,
          "name": "winner",
          "type": "address"
        },
        {
          "indexed": false,
          "name": "winnerId",
          "type": "uint256"
        },
        {
          "indexed": false,
          "name": "loser",
          "type": "address"
        },
        {
          "indexed": false,
          "name": "loserId",
          "type": "uint256"
        },
        {
          "indexed": false,
          "name": "fighterInArena",
          "type": "uint256"
        },
        {
          "indexed": false,
          "name": "result",
          "type": "string"
        },
        {
          "indexed": false,
          "name": "queryId",
          "type": "bytes32"
        }
      ],
      "name": "FightComplete",
      "type": "event"
    },
    {
      "anonymous": false,
      "inputs": [
        {
          "indexed": false,
          "name": "owner",
          "type": "address"
        },
        {
          "indexed": false,
          "name": "fighterId",
          "type": "uint256"
        }
      ],
      "name": "MarketplaceRemoval",
      "type": "event"
    },
    {
      "anonymous": false,
      "inputs": [
        {
          "indexed": false,
          "name": "owner",
          "type": "address"
        },
        {
          "indexed": false,
          "name": "fighterId",
          "type": "uint256"
        }
      ],
      "name": "ArenaRemoval",
      "type": "event"
    },
    {
      "anonymous": false,
      "inputs": [
        {
          "indexed": false,
          "name": "owner",
          "type": "address"
        },
        {
          "indexed": false,
          "name": "fighterId",
          "type": "uint256"
        },
        {
          "indexed": false,
          "name": "price",
          "type": "uint256"
        }
      ],
      "name": "MarketplaceAdd",
      "type": "event"
    },
    {
      "anonymous": false,
      "inputs": [
        {
          "indexed": false,
          "name": "owner",
          "type": "address"
        },
        {
          "indexed": false,
          "name": "fighterId",
          "type": "uint256"
        }
      ],
      "name": "ArenaAdd",
      "type": "event"
    },
    {
      "anonymous": false,
      "inputs": [
        {
          "indexed": false,
          "name": "_string",
          "type": "string"
        }
      ],
      "name": "Test",
      "type": "event"
    },
    {
      "anonymous": false,
      "inputs": [
        {
          "indexed": false,
          "name": "from",
          "type": "address"
        },
        {
          "indexed": false,
          "name": "to",
          "type": "address"
        },
        {
          "indexed": false,
          "name": "tokenId",
          "type": "uint256"
        }
      ],
      "name": "Transfer",
      "type": "event"
    },
    {
      "anonymous": false,
      "inputs": [
        {
          "indexed": false,
          "name": "owner",
          "type": "address"
        },
        {
          "indexed": false,
          "name": "approved",
          "type": "address"
        },
        {
          "indexed": false,
          "name": "tokenId",
          "type": "uint256"
        }
      ],
      "name": "Approval",
      "type": "event"
    },
    {
      "anonymous": false,
      "inputs": [
        {
          "indexed": false,
          "name": "_keccak1",
          "type": "bytes32"
        },
        {
          "indexed": false,
          "name": "_keccak2",
          "type": "bytes32"
        }
      ],
      "name": "Test",
      "type": "event"
    },
    {
      "anonymous": false,
      "inputs": [
        {
          "indexed": false,
          "name": "owner",
          "type": "address"
        },
        {
          "indexed": false,
          "name": "fighterId",
          "type": "uint256"
        },
        {
          "indexed": false,
          "name": "maxHealth",
          "type": "uint256"
        },
        {
          "indexed": false,
          "name": "speed",
          "type": "uint256"
        },
        {
          "indexed": false,
          "name": "strength",
          "type": "uint256"
        },
        {
          "indexed": false,
          "name": "fighterType",
          "type": "string"
        }
      ],
      "name": "Creation",
      "type": "event"
    },
    {
      "anonymous": false,
      "inputs": [
        {
          "indexed": false,
          "name": "owner",
          "type": "address"
        },
        {
          "indexed": false,
          "name": "fighterId",
          "type": "uint256"
        },
        {
          "indexed": false,
          "name": "attribute",
          "type": "string"
        },
        {
          "indexed": false,
          "name": "increaseValue",
          "type": "uint256"
        }
      ],
      "name": "AttributeIncrease",
      "type": "event"
    },
    {
      "anonymous": false,
      "inputs": [
        {
          "indexed": false,
          "name": "owner",
          "type": "address"
        },
        {
          "indexed": false,
          "name": "fighterId",
          "type": "uint256"
        },
        {
          "indexed": false,
          "name": "maxHealth",
          "type": "uint256"
        }
      ],
      "name": "Healed",
      "type": "event"
    },
    {
      "anonymous": false,
      "inputs": [
        {
          "indexed": false,
          "name": "fighterWasFound",
          "type": "bool"
        },
        {
          "indexed": false,
          "name": "owner",
          "type": "address"
        },
        {
          "indexed": false,
          "name": "fighterId",
          "type": "uint256"
        }
      ],
      "name": "FighterFound",
      "type": "event"
    },
    {
      "constant": false,
      "inputs": [
        {
          "name": "newType",
          "type": "string"
        },
        {
          "name": "weakness",
          "type": "string"
        }
      ],
      "name": "addNewFighterType",
      "outputs": [],
      "payable": false,
      "stateMutability": "nonpayable",
      "type": "function"
    },
    {
      "constant": false,
      "inputs": [
        {
          "name": "startingFighters",
          "type": "uint256"
        }
      ],
      "name": "setupStartingFighters",
      "outputs": [],
      "payable": false,
      "stateMutability": "nonpayable",
      "type": "function"
    },
    {
      "constant": false,
      "inputs": [
        {
          "name": "_fighterId",
          "type": "uint256"
        }
      ],
      "name": "getInfoForFighter",
      "outputs": [
        {
          "name": "maxHealth",
          "type": "uint256"
        },
        {
          "name": "health",
          "type": "uint256"
        },
        {
          "name": "speed",
          "type": "uint256"
        },
        {
          "name": "strength",
          "type": "uint256"
        },
        {
          "name": "isForSale",
          "type": "bool"
        },
        {
          "name": "isInArena",
          "type": "bool"
        },
        {
          "name": "fighterType",
          "type": "string"
        }
      ],
      "payable": false,
      "stateMutability": "nonpayable",
      "type": "function"
    },
    {
      "constant": false,
      "inputs": [
        {
          "name": "newGasPrice",
          "type": "uint256"
        }
      ],
      "name": "setNewOraclizeGasPrice",
      "outputs": [],
      "payable": false,
      "stateMutability": "nonpayable",
      "type": "function"
    }
  ],
  "bytecode": "0x6060604052600360015560036002556611c37937e08000600355662386f26fc100006004556005600d55608060405190810160405280604381526020017f68747470733a2f2f72696e6b656279627261776c6261636b656e642e6865726f81526020017f6b756170702e636f6d2f6170692f6172656e612f63616c63756c61746557696e81526020017f6e65720000000000000000000000000000000000000000000000000000000000815250600e908051620000c1929160200190620009fa565b50620b71b0600f556611c37937e080006017553415620000e057600080fd5b60008054600160a060020a03191633600160a060020a03161790556200017b604080519081016040908152600882527f4d6f6220426f737300000000000000000000000000000000000000000000000060208301528051908101604052600881527f4d6f6220426f7373000000000000000000000000000000000000000000000000602082015264010000000062002e9c6200031f82021704565b620001fb604080519081016040908152600e82527f4c6f63616c204d4d41205374617200000000000000000000000000000000000060208301528051908101604052600881527f48656e63686d616e000000000000000000000000000000000000000000000000602082015264010000000062002e9c6200031f82021704565b6200027b604080519081016040908152600782527f526f61646d616e0000000000000000000000000000000000000000000000000060208301528051908101604052600e81527f4c6f63616c204d4d412053746172000000000000000000000000000000000000602082015264010000000062002e9c6200031f82021704565b620002fb604080519081016040908152600882527f48656e63686d616e00000000000000000000000000000000000000000000000060208301528051908101604052600781527f526f61646d616e00000000000000000000000000000000000000000000000000602082015264010000000062002e9c6200031f82021704565b6200031964012a05f20064010000000062002d0d620003d382021704565b62000b33565b600a80546001810162000333838262000a7f565b600092835260209092200183805162000351929160200190620009fa565b505080600b836040518082805190602001908083835b60208310620003885780518252601f19909201916020918201910162000367565b6001836020036101000a0380198251168184511680821785525050505050509050019150509081526020016040518091039020908051620003ce929160200190620009fa565b505050565b601054600160a060020a031615806200040e57506010546200040c90600160a060020a031664010000000062003605620005dd82021704565b155b1562000430576200042e600064010000000062003609620005e182021704565b505b601054600160a060020a03166338cc48316000604051602001526040518163ffffffff167c0100000000000000000000000000000000000000000000000000000000028152600401602060405180830381600087803b15156200049257600080fd5b6102c65a03f11515620004a457600080fd5b5050506040518051601154600160a060020a0390811691161490506200056257601054600160a060020a03166338cc48316000604051602001526040518163ffffffff167c0100000000000000000000000000000000000000000000000000000000028152600401602060405180830381600087803b15156200052657600080fd5b6102c65a03f115156200053857600080fd5b505050604051805160118054600160a060020a031916600160a060020a0392909216919091179055505b601154600160a060020a031663ca6ad1e4826040517c010000000000000000000000000000000000000000000000000000000063ffffffff84160281526004810191909152602401600060405180830381600087803b1515620005c457600080fd5b6102c65a03f11515620005d657600080fd5b5050505b50565b3b90565b6000620005fb640100000000620041186200060182021704565b92915050565b60008062000631731d3b2638a7cc9f2cb3d298a3da7a90b67e5506ed64010000000062003605620005dd82021704565b1115620006b35760108054600160a060020a031916731d3b2638a7cc9f2cb3d298a3da7a90b67e5506ed179055620006aa60408051908101604052600b81527f6574685f6d61696e6e6574000000000000000000000000000000000000000000602082015264010000000062004499620009e182021704565b506001620009de565b6000620006e273c03a2615d5efaf5f49f60b7bb6583eaec212fdf164010000000062003605620005dd82021704565b11156200075b5760108054600160a060020a03191673c03a2615d5efaf5f49f60b7bb6583eaec212fdf1179055620006aa60408051908101604052600c81527f6574685f726f707374656e330000000000000000000000000000000000000000602082015264010000000062004499620009e182021704565b60006200078a73b7a07bcf2ba2f2703b24c0691b5278999c59ac7e64010000000062003605620005dd82021704565b1115620008035760108054600160a060020a03191673b7a07bcf2ba2f2703b24c0691b5278999c59ac7e179055620006aa60408051908101604052600981527f6574685f6b6f76616e0000000000000000000000000000000000000000000000602082015264010000000062004499620009e182021704565b60006200083273146500cfd35b22e4a392fe0adc06de1a1368ed4864010000000062003605620005dd82021704565b1115620008ab5760108054600160a060020a03191673146500cfd35b22e4a392fe0adc06de1a1368ed48179055620006aa60408051908101604052600b81527f6574685f72696e6b656279000000000000000000000000000000000000000000602082015264010000000062004499620009e182021704565b6000620008da736f485c8bf6fc43ea212e93bbf8ce046c7f1cb47564010000000062003605620005dd82021704565b111562000910575060108054600160a060020a031916736f485c8bf6fc43ea212e93bbf8ce046c7f1cb4751790556001620009de565b60006200093f7320e12a1f859b3feae5fb2a0a32c18f5a65555bbf64010000000062003605620005dd82021704565b111562000975575060108054600160a060020a0319167320e12a1f859b3feae5fb2a0a32c18f5a65555bbf1790556001620009de565b6000620009a47351efaf4c8b3c9afbd5ab9f4bbc82784ab6ef8faa64010000000062003605620005dd82021704565b1115620009da575060108054600160a060020a0319167351efaf4c8b3c9afbd5ab9f4bbc82784ab6ef8faa1790556001620009de565b5060005b90565b6012818051620009f6929160200190620009fa565b5050565b828054600181600116156101000203166002900490600052602060002090601f016020900481019282601f1062000a3d57805160ff191683800117855562000a6d565b8280016001018555821562000a6d579182015b8281111562000a6d57825182559160200191906001019062000a50565b5062000a7b92915062000aa6565b5090565b815481835581811511620003ce57600083815260209020620003ce91810190830162000ac3565b620009de91905b8082111562000a7b576000815560010162000aad565b620009de91905b8082111562000a7b57600062000ae1828262000aeb565b5060010162000aca565b50805460018160011615610100020316600290046000825580601f1062000b135750620005da565b601f016020900490600052602060002090810190620005da919062000aa6565b6147678062000b436000396000f3006060604052600436106102b05763ffffffff60e060020a60003504166301ffc9a781146102b5578063027f48f7146103015780630560ff441461033257806306fdde03146103cb578063095ea7b3146103de57806318160ddd146104025780631ba210111461041557806323b872dd14610434578063241860aa1461045c57806327dc297e146104725780632b1a8d46146104c857806338bbfa50146104f35780633f40d2881461058b57806340e4e048146105a557806344e59ee9146105bb578063495ac3a8146105ed5780634b193933146106035780634c67899b1461061957806350b9c428146106d757806354c3bfa1146106ea5780635fd8c710146107005780636352211e14610713578063641e3aae14610729578063656aa88a1461073f5780636bbd3c971461075d5780636f4eb7e814610770578063701a19fd1461078357806370a08231146107965780638053e5d8146107b55780638357b8dd146107d75780638462151c146107f95780638d4c4b691461086b5780638da5cb5b146108815780639201de5514610894578063920b4a2d146108aa57806395d89b41146108c0578063a2df64df146108d3578063a5557ce0146108e9578063a707c73c146108ff578063a9059cbb1461092d578063ad2dccfe1461094f578063b2912d6214610962578063b64ce34a1461098c578063b6e570641461099f578063bc4006f5146109b8578063c20548ac146109cb578063c48f66f2146109ea578063c7cffa0f146109fd578063c977cf6614610a13578063ca39e5ef14610a29578063cbb5bbbf14610a37578063d004cad414610a42578063d9861dab14610a58578063e17b25af14610a6e578063e88f4f1f14610a8d578063ea9b50c514610aa3578063efbeef8014610ab6578063f2fde38b14610ac1578063f36014d214610ae0578063f6a6771614610af3575b600080fd5b34156102c057600080fd5b6102ed7fffffffff0000000000000000000000000000000000000000000000000000000060043516610b09565b604051901515815260200160405180910390f35b341561030c57600080fd5b610320600160a060020a0360043516610d90565b60405190815260200160405180910390f35b341561033d57600080fd5b610354600480359060248035908101910135610da2565b60405160208082528190810183818151815260200191508051906020019080838360005b83811015610390578082015183820152602001610378565b50505050905090810190601f1680156103bd5780820380516001836020036101000a031916815260200191505b509250505060405180910390f35b34156103d657600080fd5b610354610e7f565b34156103e957600080fd5b610400600160a060020a0360043516602435610eb6565b005b341561040d57600080fd5b610320610f29565b341561042057600080fd5b610400600160a060020a0360043516610f30565b341561043f57600080fd5b610400600160a060020a0360043581169060243516604435610f8b565b341561046757600080fd5b610320600435610ffb565b341561047d57600080fd5b610400600480359060446024803590810190830135806020601f8201819004810201604051908101604052818152929190602084018383808284375094965061101095505050505050565b34156104d357600080fd5b610400600160a060020a03600435166024356044356064356084356112b3565b34156104fe57600080fd5b610400600480359060446024803590810190830135806020601f8201819004810201604051908101604052818152929190602084018383808284378201915050505050509190803590602001908201803590602001908080601f016020809104026020016040519081016040528181529291906020840183838082843750949650610ff695505050505050565b610320600480359060248035908101910135604435611395565b34156105b057600080fd5b610400600435611426565b34156105c657600080fd5b6105d1600435611446565b604051600160a060020a03909116815260200160405180910390f35b34156105f857600080fd5b610400600435611461565b341561060e57600080fd5b6105d1600435611481565b341561062457600080fd5b61062f60043561149c565b604051878152602081018790526040810186905260608101859052831515608082015282151560a082015260e060c0820181815290820183818151815260200191508051906020019080838360005b8381101561069657808201518382015260200161067e565b50505050905090810190601f1680156106c35780820380516001836020036101000a031916815260200191505b509850505050505050505060405180910390f35b34156106e257600080fd5b6103206115ec565b34156106f557600080fd5b6104006004356115f2565b341561070b57600080fd5b61040061166b565b341561071e57600080fd5b6105d16004356116c1565b341561073457600080fd5b6104006004356116e5565b341561074a57600080fd5b610400600480356024810191013561175e565b341561076857600080fd5b610354611785565b341561077b57600080fd5b610320611823565b341561078e57600080fd5b610320611829565b34156107a157600080fd5b610320600160a060020a036004351661182f565b34156107c057600080fd5b610400600160a060020a036004351660243561184a565b34156107e257600080fd5b610320600160a060020a03600435166024356118ab565b341561080457600080fd5b610818600160a060020a03600435166118d9565b60405160208082528190810183818151815260200191508051906020019060200280838360005b8381101561085757808201518382015260200161083f565b505050509050019250505060405180910390f35b341561087657600080fd5b6104006004356119ba565b341561088c57600080fd5b6105d16119de565b341561089f57600080fd5b6103546004356119ed565b34156108b557600080fd5b610400600435611b2b565b34156108cb57600080fd5b610354611b4b565b34156108de57600080fd5b610320600435611b82565b34156108f457600080fd5b610400600435611b94565b341561090a57600080fd5b610915600435611bb4565b60405191825260208201526040908101905180910390f35b341561093857600080fd5b610400600160a060020a0360043516602435611bcd565b341561095a57600080fd5b610320611c27565b341561096d57600080fd5b6104006024600480358281019290820135918135918201910135611c2d565b341561099757600080fd5b610320611cb8565b34156109aa57600080fd5b610400600435602435611cbe565b34156109c357600080fd5b6105d1611d82565b34156109d657600080fd5b610818600160a060020a0360043516611d91565b34156109f557600080fd5b610400611e14565b3415610a0857600080fd5b610400600435611e3d565b3415610a1e57600080fd5b610400600435611e5d565b610400600435602435611ebe565b6104006004356120f2565b3415610a4d57600080fd5b61040060043561211f565b3415610a6357600080fd5b61035460043561213f565b3415610a7957600080fd5b610400600160a060020a03600435166121c7565b3415610a9857600080fd5b6104006004356121e9565b3415610aae57600080fd5b61032061227f565b610400600435612285565b3415610acc57600080fd5b610400600160a060020a03600435166122ae565b3415610aeb57600080fd5b6103206122f8565b3415610afe57600080fd5b6102ed6004356122fe565b60006040517f737570706f727473496e7465726661636528627974657334290000000000000081526019016040518091039020600160e060020a03191682600160e060020a0319161480610d8857506040517f746f6b656e4d657461646174612875696e743235362c737472696e67290000008152601d0160405180910390206040517f746f6b656e734f664f776e657228616464726573732900000000000000000000815260160160405180910390206040517f7472616e7366657246726f6d28616464726573732c616464726573732c75696e81527f7432353629000000000000000000000000000000000000000000000000000000602082015260250160405180910390206040517f7472616e7366657228616464726573732c75696e743235362900000000000000815260190160405180910390206040517f617070726f766528616464726573732c75696e74323536290000000000000000815260180160405180910390206040517f6f776e65724f662875696e743235362900000000000000000000000000000000815260100160405180910390206040517f62616c616e63654f662861646472657373290000000000000000000000000000815260120160405180910390206040517f746f74616c537570706c792829000000000000000000000000000000000000008152600d0160405180910390206040517f73796d626f6c2829000000000000000000000000000000000000000000000000815260080160405180910390206040517f6e616d652829000000000000000000000000000000000000000000000000000081526006016040518091039020181818181818181818600160e060020a03191682600160e060020a031916145b90505b919050565b60066020526000908152604090205481565b610daa6144ac565b610db26144be565b600c54600090600160a060020a03161515610dcc57600080fd5b600c54600160a060020a031663cb4799f2878787600060405160a0015260405160e060020a63ffffffff861602815260048101848152604060248301908152604483018490529091606401848480828437820191505094505050505060a060405180830381600087803b1515610e4157600080fd5b6102c65a03f11515610e5257600080fd5b50505060405180608001805160209091016040529092509050610e758282612424565b9695505050505050565b60408051908101604052600e81527f43727970746f427261776c657273000000000000000000000000000000000000602082015281565b610ec03382612479565b1515610ecb57600080fd5b610ed58183612499565b7f8c5be1e5ebec7d5bd14f71427d1e84f3dd0314c0f7b2291e5b200ac8c7c3b925338383604051600160a060020a039384168152919092166020820152604080820192909252606001905180910390a15050565b6005545b90565b60005433600160a060020a03908116911614610f4b57600080fd5b80600160a060020a03166108fc30600160a060020a0316319081150290604051600060405180830381858888f193505050501515610f8857600080fd5b50565b600160a060020a0382161515610fa057600080fd5b30600160a060020a031682600160a060020a031614151515610fc157600080fd5b610fcb33826124c7565b1515610fd657600080fd5b610fe08382612479565b1515610feb57600080fd5b610ff68383836124e7565b505050565b60009081526015602052604090206001015490565b60008060008061101e6125fa565b600160a060020a031633600160a060020a031614151561103d57600080fd5b61108160408051908101604052600181527f2d000000000000000000000000000000000000000000000000000000000000006020820152869063ffffffff61279a16565b935061113e84600081548110151561109557fe5b90600052602060002090018054600181600116156101000203166002900480601f0160208091040260200160405190810160405280929190818152602001828054600181600116156101000203166002900480156111345780601f1061110957610100808354040283529160200191611134565b820191906000526020600020905b81548152906001019060200180831161111757829003601f168201915b50505050506128bd565b925061115284600181548110151561109557fe5b915061115d836128ca565b156111725761116b836128dd565b508161117d565b508061117d816128dd565b600082815260076020526040808220548583529120546111aa91600160a060020a039081169116846124e7565b6000838152600760205260408082205484835291819020547f31472d75dc5dd50913d6ae9f1633f792d2e89e4c30d02c3a04f53956355bc4e392600160a060020a0390811692879290911690869086908b908d9051600160a060020a0380891682526020820188905286166040820152606081018590526080810184905260c0810182905260e060a0820181815290820184818151815260200191508051906020019080838360005b8381101561126b578082015183820152602001611253565b50505050905090810190601f1680156112985780820380516001836020036101000a031916815260200191505b509850505050505050505060405180910390a1505050505050565b60005433600160a060020a039081169116146112ce57600080fd5b61138d84848488600a868154811015156112e457fe5b90600052602060002090018054600181600116156101000203166002900480601f0160208091040260200160405190810160405280929190818152602001828054600181600116156101000203166002900480156113835780601f1061135857610100808354040283529160200191611383565b820191906000526020600020905b81548152906001019060200180831161136657829003601f168201915b50505050506128ee565b505050505050565b600080600354803410151561141c576113ae3388612479565b15156113b957600080fd5b6002546113c585612a88565b8115156113ce57fe5b0491508115156113dd57600191505b6114188787878080601f016020809104026020016040519081016040528181529291906020840183838082843750899450612ac99350505050565b8192505b5050949350505050565b60005433600160a060020a0390811691161461144157600080fd5b600155565b600860205260009081526040902054600160a060020a031681565b60005433600160a060020a0390811691161461147c57600080fd5b600255565b600760205260009081526040902054600160a060020a031681565b6000806000806000806114ad6144ac565b6114b56144e7565b600580548a9081106114c357fe5b906000526020600020906005020160a0604051908101604052908160008201548152602001600182015481526020016002820154815260200160038201548152602001600482018054600181600116156101000203166002900480601f01602080910402602001604051908101604052809291908181526020018280546001816001161561010002031660029004801561159e5780601f106115735761010080835404028352916020019161159e565b820191906000526020600020905b81548152906001019060200180831161158157829003601f168201915b505050505081525050905080600001518160200151826040015183606001516115c68d612cae565b6115cf8e6128ca565b8660800151959f949e50929c50909a509850965090945092505050565b600f5481565b6115fc3382612479565b151561160757600080fd5b61161081612cae565b151561161b57600080fd5b61162481612cc4565b7f3e808687755674bf6703cb65acce9b7da494797511c241a38e74134813273be23382604051600160a060020a03909216825260208201526040908101905180910390a150565b60005433600160a060020a0390811691161461168657600080fd5b600054600160a060020a039081169030163180156108fc0290604051600060405180830381858888f1935050505015156116bf57600080fd5b565b600081815260076020526040902054600160a060020a0316801515610d8b57600080fd5b6116ef3382612479565b15156116fa57600080fd5b611703816128ca565b151561170e57600080fd5b611717816128dd565b7fb3fefaad4d5eb17c447489e1529238e4f44c82b4f99284ca82969e1bfbb8e8c53382604051600160a060020a03909216825260208201526040908101905180910390a150565b60005433600160a060020a0390811691161461177957600080fd5b610ff6600e838361451c565b600e8054600181600116156101000203166002900480601f01602080910402602001604051908101604052809291908181526020018280546001816001161561010002031660029004801561181b5780601f106117f05761010080835404028352916020019161181b565b820191906000526020600020905b8154815290600101906020018083116117fe57829003601f168201915b505050505081565b60175481565b60035481565b600160a060020a031660009081526006602052604090205490565b600080548190819033600160a060020a0390811691161461186a57600080fd5b61187384612a88565b925061187e83612a88565b9150611892846001600a8054905003612cdb565b905061138d600a848488600a868154811015156112e457fe5b6009602052816000526040600020818154811015156118c657fe5b6000918252602090912001549150829050565b6118e16144ac565b60008060006118ee6144ac565b60006118f98761182f565b94508415156119295760006040518059106119115750595b908082528060200260200182016040525095506119b0565b60009350611935610f29565b9250846040518059106119455750595b90808252806020026020018201604052509150600190505b8281116119ac57600081815260076020526040902054600160a060020a03888116911614156119a4578082858151811061199357fe5b602090810290910101526001909301925b60010161195d565b8195505b5050505050919050565b60005433600160a060020a039081169116146119d557600080fd5b610f8881612d0d565b600054600160a060020a031681565b6119f56144ac565b6119fd6144ac565b6000806000611a0a6144ac565b6020604051805910611a195750595b818152601f19601f83011681016020016040529050945060009350600092505b6020831015611aac576008830260020a870291507fff00000000000000000000000000000000000000000000000000000000000000821615611aa15781858581518110611a8257fe5b906020010190600160f860020a031916908160001a9053506001909301925b600190920191611a39565b83604051805910611aba5750595b818152601f19601f830116810160200160405290509050600092505b83831015610e7557848381518110611aea57fe5b016020015160f860020a900460f860020a02818481518110611b0857fe5b906020010190600160f860020a031916908160001a905350600190920191611ad6565b60005433600160a060020a03908116911614611b4657600080fd5b600d55565b60408051908101604052600481527f4252574c00000000000000000000000000000000000000000000000000000000602082015281565b60166020526000908152604090205481565b60005433600160a060020a03908116911614611baf57600080fd5b600355565b6015602052600090815260409020805460019091015482565b600160a060020a0382161515611be257600080fd5b30600160a060020a031682600160a060020a031614151515611c0357600080fd5b611c0d3382612479565b1515611c1857600080fd5b611c233383836124e7565b5050565b600d5481565b60005433600160a060020a03908116911614611c4857600080fd5b611cb284848080601f016020809104026020016040519081016040528181529291906020840183838082843782019150505050505083838080601f016020809104026020016040519081016040528181529291906020840183838082843750612e9c945050505050565b50505050565b60025481565b611cc83383612479565b1515611cd357600080fd5b611cdc826128ca565b15611ce657600080fd5b60008111611cf357600080fd5b60408051908101604090815283825260208083018490526000858152601590915220815181556020820151600190910155507f9eaf5a44f033adc048686ca80e281b74f25fb52e998dd7f8e6812721383ae88a3383836040518084600160a060020a0316600160a060020a03168152602001838152602001828152602001935050505060405180910390a15050565b600c54600160a060020a031681565b611d996144ac565b6009600083600160a060020a0316600160a060020a03168152602001908152602001600020805480602002602001604051908101604052809291908181526020018280548015611e0857602002820191906000526020600020905b815481526020019060010190808311611df4575b50505050509050919050565b60005433600160a060020a03908116911614611e2f57600080fd5b600054600160a060020a0316ff5b60005433600160a060020a03908116911614611e5857600080fd5b600f55565b600080548190819033600160a060020a03908116911614611e7d57600080fd5b600192505b838311611cb257600a54611e97908490612cdb565b9150611eb1600a60058033600a878154811015156112e457fe5b6001909301929050611e82565b611ec66144ac565b611ece6144ac565b600454348190106120eb57611ee2846128ca565b1515611eed57600080fd5b611ef73386612479565b1515611f0257600080fd5b611f0c3385612479565b15611f1657600080fd5b611f9860408051908101604052600a81527f2f61747461636b65722f000000000000000000000000000000000000000000006020820152611f5687612f43565b60408051908101604052600a81527f2f646566656e6465722f000000000000000000000000000000000000000000006020820152611f9388612f43565b613037565b92506120a86040805190810160405280600581526020017f6a736f6e28000000000000000000000000000000000000000000000000000000815250600e8054600181600116156101000203166002900480601f0160208091040260200160405190810160405280929190818152602001828054600181600116156101000203166002900480156120695780601f1061203e57610100808354040283529160200191612069565b820191906000526020600020905b81548152906001019060200180831161204c57829003601f168201915b50505050508560408051908101604052600f81527f292e6f7574636f6d65537472696e6700000000000000000000000000000000006020820152613037565b915061138d60408051908101604052600381527f55524c00000000000000000000000000000000000000000000000000000000006020820152600f548490613063565b5050505050565b6120fc81346133e9565b600081815260076020526040902054610f8890600160a060020a031633836124e7565b60005433600160a060020a0390811691161461213a57600080fd5b600455565b600a80548290811061214d57fe5b90600052602060002090016000915090508054600181600116156101000203166002900480601f01602080910402602001604051908101604052809291908181526020018280546001816001161561010002031660029004801561181b5780601f106117f05761010080835404028352916020019161181b565b600c8054600160a060020a031916600160a060020a0392909216919091179055565b6121f33382612479565b15156121fe57600080fd5b61220781612cae565b1561221157600080fd5b61221a816128ca565b1561222457600080fd5b600081815260166020526040908190208290557ffd493e9e8a025ff7f65e924f394f7f1c3804e6114587e73b05e393385823ae5f903390839051600160a060020a03909216825260208201526040908101905180910390a150565b60045481565b60035434819010611c235761229a3383612479565b15156122a557600080fd5b611c23826134f6565b60005433600160a060020a039081169116146122c957600080fd5b600160a060020a03811615610f885760008054600160a060020a038316600160a060020a031990911617905550565b60015481565b60008060008060008061231087613500565b94506001548581151561231f57fe5b0615156123c45761232f87612a88565b935061233a84612a88565b925061234e876001600a8054905003612cdb565b9150612367600a858533600a878154811015156112e457fe5b90507f9bd510de0dcc8d26bfd35e5e1bad5c406154844b85cde0690dfa7881e481de76600133836040519215158352600160a060020a0390911660208301526040808301919091526060909101905180910390a1600195506119b0565b7f9bd510de0dcc8d26bfd35e5e1bad5c406154844b85cde0690dfa7881e481de7660003360006040519215158352600160a060020a0390911660208301526040808301919091526060909101905180910390a15060009695505050505050565b61242c6144ac565b6124346144ac565b600080846040518059106124455750595b818152601f19601f830116810160200160405290509250506020820190508461246f82828761352c565b5090949350505050565b600090815260076020526040902054600160a060020a0391821691161490565b6000918252600860205260409091208054600160a060020a031916600160a060020a03909216919091179055565b600090815260086020526040902054600160a060020a0391821691161490565b600160a060020a038216600081815260066020908152604080832080546001908101909155858452600783528184208054600160a060020a0319168617905593835260099091529020805490918101612540838261459a565b506000918252602090912001819055600160a060020a038316156125a55760008181526008602052604090208054600160a060020a03191690556125848382613571565b600160a060020a038316600090815260066020526040902080546000190190555b7fddf252ad1be2c89b69c2b068fc378daa952ba7f163c4a11628f55a4df523b3ef838383604051600160a060020a039384168152919092166020820152604080820192909252606001905180910390a1505050565b601054600090600160a060020a03161580612627575060105461262590600160a060020a0316613605565b155b15612638576126366000613609565b505b601054600160a060020a03166338cc48316000604051602001526040518163ffffffff1660e060020a028152600401602060405180830381600087803b151561268057600080fd5b6102c65a03f1151561269157600080fd5b5050506040518051601154600160a060020a03908116911614905061273357601054600160a060020a03166338cc48316000604051602001526040518163ffffffff1660e060020a028152600401602060405180830381600087803b15156126f857600080fd5b6102c65a03f1151561270957600080fd5b505050604051805160118054600160a060020a031916600160a060020a0392909216919091179055505b601154600160a060020a031663c281d19e6000604051602001526040518163ffffffff1660e060020a028152600401602060405180830381600087803b151561277b57600080fd5b6102c65a03f1151561278c57600080fd5b505050604051805191505090565b60006127a46144ac565b6000806127af6144ac565b6127b76144ac565b600080899650600095505b60018751038610156128b0576127d98a8a88613613565b94508460001914156127ea57865194505b8585036040518059106127fa5750595b818152601f19601f830116810160200160405290509350839250600091508590505b848110156128745786818151811061283057fe5b016020015160f860020a900460f860020a0283838060010194508151811061285457fe5b906020010190600160f860020a031916908160001a90535060010161281c565b84600101955087805480600101828161288d91906145be565b60009283526020909220018480516128a99291602001906145e2565b50506127c2565b5050505050505092915050565b6000610d888260006136ba565b6000908152601660205260408120541190565b600090815260166020526040812055565b60006128f86144e7565b600060a06040519081016040528089815260200189815260200188815260200187815260200185815250915060016005805480600101828161293a9190614650565b60009283526020909220859160050201815181556020820151816001015560408201518160020155606082015181600301556080820151816004019080516129869291602001906145e2565b50505003905063ffffffff8116811461299e57600080fd5b7faf9d5de903d3c24be3b2973b79ee3eefd1b8aada3d46baf60ee9f0d086b75fb985828a8a8a896040518087600160a060020a0316600160a060020a0316815260200186815260200185815260200184815260200183815260200180602001828103825283818151815260200191508051906020019080838360005b83811015612a32578082015183820152602001612a1a565b50505050905090810190601f168015612a5f5780820380516001836020036101000a031916815260200191505b5097505050505050505060405180910390a1612a7d600086836124e7565b979650505050505050565b600080600a600143034084604051918252602082015260409081019051908190039020811515612ab457fe5b06905060008111612ac3575060015b92915050565b6040517f6d61784865616c746800000000000000000000000000000000000000000000008152600901604051908190039020826040518082805190602001908083835b60208310612b2b5780518252601f199092019160209182019101612b0c565b6001836020036101000a03801982511681845116179092525050509190910192506040915050519081900390201415612b6e57612b69838233613828565b610ff6565b6040517f737472656e6774680000000000000000000000000000000000000000000000008152600801604051908190039020826040518082805190602001908083835b60208310612bd05780518252601f199092019160209182019101612bb1565b6001836020036101000a03801982511681845116179092525050509190910192506040915050519081900390201415612c0e57612b698382336139e0565b6040517f73706565640000000000000000000000000000000000000000000000000000008152600501604051908190039020826040518082805190602001908083835b60208310612c705780518252601f199092019160209182019101612c51565b6001836020036101000a03801982511681845116179092525050509190910192506040915050519081900390201415610ff657610ff6838233613b7e565b6000908152601560205260408120600101541190565b600090815260156020526040812081815560010155565b600081600143034084604051918252602082015260409081019051908190039020811515612d0557fe5b069392505050565b601054600160a060020a03161580612d375750601054612d3590600160a060020a0316613605565b155b15612d4857612d466000613609565b505b601054600160a060020a03166338cc48316000604051602001526040518163ffffffff1660e060020a028152600401602060405180830381600087803b1515612d9057600080fd5b6102c65a03f11515612da157600080fd5b5050506040518051601154600160a060020a039081169116149050612e4357601054600160a060020a03166338cc48316000604051602001526040518163ffffffff1660e060020a028152600401602060405180830381600087803b1515612e0857600080fd5b6102c65a03f11515612e1957600080fd5b505050604051805160118054600160a060020a031916600160a060020a0392909216919091179055505b601154600160a060020a031663ca6ad1e48260405160e060020a63ffffffff84160281526004810191909152602401600060405180830381600087803b1515612e8b57600080fd5b6102c65a03f11515611cb257600080fd5b600a805460018101612eae83826145be565b6000928352602090922001838051612eca9291602001906145e2565b505080600b836040518082805190602001908083835b60208310612eff5780518252601f199092019160209182019101612ee0565b6001836020036101000a0380198251168184511680821785525050505050509050019150509081526020016040518091039020908051610ff69291602001906145e2565b612f4b6144ac565b600080612f566144ac565b6000851515612f9a5760408051908101604052600181527f30000000000000000000000000000000000000000000000000000000000000006020820152945061302e565b8593505b8315612fb557600190920191600a84049350612f9e565b82604051805910612fc35750595b818152601f19601f8301168101602001604052905091505060001982015b851561302a5760001981019060f860020a6030600a890601029083908151811061300757fe5b906020010190600160f860020a031916908160001a905350600a86049550612fe1565b8194505b50505050919050565b61303f6144ac565b61305a85858585602060405190810160405260008152613d1c565b95945050505050565b6010546000908190600160a060020a03161580613092575060105461309090600160a060020a0316613605565b155b156130a3576130a16000613609565b505b601054600160a060020a03166338cc48316000604051602001526040518163ffffffff1660e060020a028152600401602060405180830381600087803b15156130eb57600080fd5b6102c65a03f115156130fc57600080fd5b5050506040518051601154600160a060020a03908116911614905061319e57601054600160a060020a03166338cc48316000604051602001526040518163ffffffff1660e060020a028152600401602060405180830381600087803b151561316357600080fd5b6102c65a03f1151561317457600080fd5b505050604051805160118054600160a060020a031916600160a060020a0392909216919091179055505b601154600160a060020a0316632ef3accc86856000604051602001526040518363ffffffff1660e060020a0281526004018080602001838152602001828103825284818151815260200191508051906020019080838360005b8381101561320f5780820151838201526020016131f7565b50505050905090810190601f16801561323c5780820380516001836020036101000a031916815260200191505b509350505050602060405180830381600087803b151561325b57600080fd5b6102c65a03f1151561326c57600080fd5b5050506040518051915050670de0b6b3a76400003a84020181111561329457600091506133e1565b601154600160a060020a031663c51be90f82600088888883604051602001526040518663ffffffff1660e060020a028152600401808581526020018060200180602001848152602001838103835286818151815260200191508051906020019080838360005b838110156133125780820151838201526020016132fa565b50505050905090810190601f16801561333f5780820380516001836020036101000a031916815260200191505b50838103825285818151815260200191508051906020019080838360005b8381101561337557808201518382015260200161335d565b50505050905090810190601f1680156133a25780820380516001836020036101000a031916815260200191505b5096505050505050506020604051808303818588803b15156133c357600080fd5b6125ee5a03f115156133d457600080fd5b5050505060405180519250505b509392505050565b60008060006133f83386612479565b1561340257600080fd5b61340b85612cae565b151561341657600080fd5b60008581526015602052604090206001015484101561343457600080fd5b600085815260076020526040902054600160a060020a0316925061345785612cc4565b61346084613f8c565b915050808303600160a060020a03831681156108fc0282604051600060405180830381858888f19350505050151561349757600080fd5b7f4750c394c3222df02b322dd8f4ee23c0025975134406b18d35ab7c9c1bb41ac233858786604051600160a060020a03948516815260208101939093526040808401929092529092166060820152608001905180910390a15050505050565b610f888133613f98565b6000806064600143034084604051918252602082015260409081019051908190039020811515612ab457fe5b60005b60208210613552578251845260208401935060208301925060208203915061352f565b6001826020036101000a03905080198351168185511617909352505050565b60005b600160a060020a038316600090815260096020526040902054811015610ff657600160a060020a03831660009081526009602052604090208054839190839081106135bb57fe5b90600052602060002090015414156135fd57600160a060020a03831660009081526009602052604090208054829081106135f157fe5b60009182526020822001555b600101613574565b3b90565b6000610d88614118565b600061361d6144ac565b6136256144ac565b50849050836000815160011461363757fe5b50835b82518110156136aa578160008151811061365057fe5b016020015160f860020a900460f860020a02600160f860020a03191683828151811061367857fe5b016020015160f860020a900460f860020a02600160f860020a03191614156136a2578093506136b0565b60010161363a565b60001993505b5050509392505050565b60006136c46144ac565b5082600080805b835181101561380b577f300000000000000000000000000000000000000000000000000000000000000084828151811061370157fe5b016020015160f860020a900460f860020a02600160f860020a0319161015801561377257507f390000000000000000000000000000000000000000000000000000000000000084828151811061375357fe5b016020015160f860020a900460f860020a02600160f860020a03191611155b156137c8578115613791578515156137895761380b565b600019909501945b600a8302925060308482815181106137a557fe5b016020015160f860020a900460f860020a0260f860020a90040383019250613803565b8381815181106137d457fe5b016020015160f860020a900460f860020a02600160f860020a031916602e60f860020a02141561380357600191505b6001016136cb565b600086111561381d5785600a0a830292505b509095945050505050565b6138306144e7565b600580548590811061383e57fe5b906000526020600020906005020160a0604051908101604052908160008201548152602001600182015481526020016002820154815260200160038201548152602001600482018054600181600116156101000203166002900480601f0160208091040260200160405190810160405280929190818152602001828054600181600116156101000203166002900480156139195780601f106138ee57610100808354040283529160200191613919565b820191906000526020600020905b8154815290600101906020018083116138fc57829003601f168201915b5050505050815250509050806000015181602001511415613941578281602001818151019052505b828181815101905250613954818561443c565b7fca04611e80f005feb5aafd7553030c696e4de100604c325926807c6cbda6a7c3828585604051600160a060020a03909316835260208301919091526060820152608060408083018290526009918301919091527f6d61784865616c7468000000000000000000000000000000000000000000000060a083015260c0909101905180910390a150505050565b6139e86144e7565b60058054859081106139f657fe5b906000526020600020906005020160a0604051908101604052908160008201548152602001600182015481526020016002820154815260200160038201548152602001600482018054600181600116156101000203166002900480601f016020809104026020016040519081016040528092919081815260200182805460018160011615610100020316600290048015613ad15780601f10613aa657610100808354040283529160200191613ad1565b820191906000526020600020905b815481529060010190602001808311613ab457829003601f168201915b5050505050815250509050828160600181815101905250613af2818561443c565b7fca04611e80f005feb5aafd7553030c696e4de100604c325926807c6cbda6a7c3828585604051600160a060020a03909316835260208301919091526060820152608060408083018290526008918301919091527f737472656e67746800000000000000000000000000000000000000000000000060a083015260c0909101905180910390a150505050565b613b866144e7565b6005805485908110613b9457fe5b906000526020600020906005020160a0604051908101604052908160008201548152602001600182015481526020016002820154815260200160038201548152602001600482018054600181600116156101000203166002900480601f016020809104026020016040519081016040528092919081815260200182805460018160011615610100020316600290048015613c6f5780601f10613c4457610100808354040283529160200191613c6f565b820191906000526020600020905b815481529060010190602001808311613c5257829003601f168201915b5050505050815250509050828160400181815101905250613c90818561443c565b7fca04611e80f005feb5aafd7553030c696e4de100604c325926807c6cbda6a7c3828585604051600160a060020a03909316835260208301919091526060820152608060408083018290526005918301919091527f737065656400000000000000000000000000000000000000000000000000000060a083015260c0909101905180910390a150505050565b613d246144ac565b613d2c6144ac565b613d346144ac565b613d3c6144ac565b613d446144ac565b613d4c6144ac565b613d546144ac565b613d5c6144ac565b6000808e98508d97508c96508b95508a94508451865188518a518c5101010101604051805910613d895750595b818152601f19601f83011681016020016040529050935083925060009150600090505b8851811015613e0557888181518110613dc157fe5b016020015160f860020a900460f860020a02838380600101945081518110613de557fe5b906020010190600160f860020a031916908160001a905350600101613dac565b5060005b8751811015613e6257878181518110613e1e57fe5b016020015160f860020a900460f860020a02838380600101945081518110613e4257fe5b906020010190600160f860020a031916908160001a905350600101613e09565b5060005b8651811015613ebf57868181518110613e7b57fe5b016020015160f860020a900460f860020a02838380600101945081518110613e9f57fe5b906020010190600160f860020a031916908160001a905350600101613e66565b5060005b8551811015613f1c57858181518110613ed857fe5b016020015160f860020a900460f860020a02838380600101945081518110613efc57fe5b906020010190600160f860020a031916908160001a905350600101613ec3565b5060005b8451811015613f7957848181518110613f3557fe5b016020015160f860020a900460f860020a02838380600101945081518110613f5957fe5b906020010190600160f860020a031916908160001a905350600101613f20565b50909d9c50505050505050505050505050565b600d5460649091040290565b613fa06144e7565b6005805484908110613fae57fe5b906000526020600020906005020160a0604051908101604052908160008201548152602001600182015481526020016002820154815260200160038201548152602001600482018054600181600116156101000203166002900480601f0160208091040260200160405190810160405280929190818152602001828054600181600116156101000203166002900480156140895780601f1061405e57610100808354040283529160200191614089565b820191906000526020600020905b81548152906001019060200180831161406c57829003601f168201915b505050505081525050905080600001518160200151106140a857600080fd5b805160208201526140b9818461443c565b7f99ac7da70b5c6f1d34e05f1b47107fb3b9a1c1542028d0ad8e86c959568629ed828483516040518084600160a060020a0316600160a060020a03168152602001838152602001828152602001935050505060405180910390a1505050565b600080614138731d3b2638a7cc9f2cb3d298a3da7a90b67e5506ed613605565b11156141a85760108054600160a060020a031916731d3b2638a7cc9f2cb3d298a3da7a90b67e5506ed1790556141a060408051908101604052600b81527f6574685f6d61696e6e65740000000000000000000000000000000000000000006020820152614499565b506001610f2d565b60006141c773c03a2615d5efaf5f49f60b7bb6583eaec212fdf1613605565b111561422f5760108054600160a060020a03191673c03a2615d5efaf5f49f60b7bb6583eaec212fdf11790556141a060408051908101604052600c81527f6574685f726f707374656e3300000000000000000000000000000000000000006020820152614499565b600061424e73b7a07bcf2ba2f2703b24c0691b5278999c59ac7e613605565b11156142b65760108054600160a060020a03191673b7a07bcf2ba2f2703b24c0691b5278999c59ac7e1790556141a060408051908101604052600981527f6574685f6b6f76616e00000000000000000000000000000000000000000000006020820152614499565b60006142d573146500cfd35b22e4a392fe0adc06de1a1368ed48613605565b111561433d5760108054600160a060020a03191673146500cfd35b22e4a392fe0adc06de1a1368ed481790556141a060408051908101604052600b81527f6574685f72696e6b6562790000000000000000000000000000000000000000006020820152614499565b600061435c736f485c8bf6fc43ea212e93bbf8ce046c7f1cb475613605565b1115614390575060108054600160a060020a031916736f485c8bf6fc43ea212e93bbf8ce046c7f1cb4751790556001610f2d565b60006143af7320e12a1f859b3feae5fb2a0a32c18f5a65555bbf613605565b11156143e3575060108054600160a060020a0319167320e12a1f859b3feae5fb2a0a32c18f5a65555bbf1790556001610f2d565b60006144027351efaf4c8b3c9afbd5ab9f4bbc82784ab6ef8faa613605565b1115614436575060108054600160a060020a0319167351efaf4c8b3c9afbd5ab9f4bbc82784ab6ef8faa1790556001610f2d565b50600090565b8160058281548110151561444c57fe5b9060005260206000209060050201600082015181556020820151816001015560408201518160020155606082015181600301556080820151816004019080516120eb9291602001906145e2565b6012818051611c239291602001906145e2565b60206040519081016040526000815290565b60806040519081016040526004815b600081526000199190910190602001816144cd5790505090565b60a060405190810160405280600081526020016000815260200160008152602001600081526020016145176144ac565b905290565b828054600181600116156101000203166002900490600052602060002090601f016020900481019282601f1061455d5782800160ff1982351617855561458a565b8280016001018555821561458a579182015b8281111561458a57823582559160200191906001019061456f565b5061459692915061467c565b5090565b815481835581811511610ff657600083815260209020610ff691810190830161467c565b815481835581811511610ff657600083815260209020610ff6918101908301614696565b828054600181600116156101000203166002900490600052602060002090601f016020900481019282601f1061462357805160ff191683800117855561458a565b8280016001018555821561458a579182015b8281111561458a578251825591602001919060010190614635565b815481835581811511610ff657600502816005028360005260206000209182019101610ff691906146b9565b610f2d91905b808211156145965760008155600101614682565b610f2d91905b808211156145965760006146b082826146f7565b5060010161469c565b610f2d91905b808211156145965760008082556001820181905560028201819055600382018190556146ee60048301826146f7565b506005016146bf565b50805460018160011615610100020316600290046000825580601f1061471d5750610f88565b601f016020900490600052602060002090810190610f88919061467c5600a165627a7a7230582035cabaed9057e150649e69e18c7254c3b93ee9fa90bc5a455c0628f4b960bc500029",
  "source": "pragma solidity ^0.4.18;\n\nimport \"./marketplace/Marketplace.sol\";\n\ncontract CryptoBrawlers is Marketplace {\n  uint public startingFighterPrice = 5000000000000000;\n\n  function CryptoBrawlers() {\n    _addFighterType('Mob Boss', 'Mob Boss');\n    _addFighterType('Local MMA Star', 'Henchman');\n    _addFighterType('Roadman', 'Local MMA Star');\n    _addFighterType('Henchman', 'Roadman');\n\n    oraclize_setCustomGasPrice(5000000000 wei);\n  }\n\n  function addNewFighterType(string newType, string weakness) external onlyOwner {\n    _addFighterType(newType, weakness);\n  }\n\n  function setupStartingFighters(uint startingFighters) external onlyOwner {\n    uint count;\n    for(count = 1; count <= startingFighters; count++) {\n      uint _typeId = RandomNumber.randomNumberToMax(count, fighterTypes.length);\n      uint createdFighterId = _createFighter(10, 5, 5, msg.sender, fighterTypes[_typeId]);\n\n      // fighter 0 must always be owned by the creator as it causes problems when trying to be purchased\n      // and transferred etc\n      /* if (createdFighterId > 0) {\n        fighterIdToSale[createdFighterId] = Sale({\n          fighterId: createdFighterId,\n          price: startingFighterPrice\n        });\n      } */\n    }\n  }\n\n  function getInfoForFighter(uint _fighterId)\n    external returns (uint maxHealth, uint health, uint speed, uint strength, bool isForSale, bool isInArena, string fighterType)\n  {\n    Fighter memory _fighter = fighters[_fighterId];\n    return (\n      _fighter.maxHealth,\n      _fighter.health,\n      _fighter.speed,\n      _fighter.strength,\n      _fighterIsForSale(_fighterId),\n      _fighterIsForBrawl(_fighterId),\n      _fighter.fighterType\n    );\n  }\n\n  function setNewOraclizeGasPrice(uint newGasPrice) external onlyOwner {\n    oraclize_setCustomGasPrice(newGasPrice * 1 wei);\n  }\n}\n",
  "sourcePath": "/Users/kendalla/projects/cryptoclash/contracts/CryptoBrawlers.sol",
  "compiler": {
    "name": "solc",
    "version": "0.4.19+commit.c4cbbb05.Emscripten.clang"
  },
  "schemaVersion": "1.0.1",
  "updatedAt": "2018-04-17T12:30:53.349Z"
}