{
  "contractName": "CryptoBrawlers",
  "abi": [
    {
      "constant": true,
      "inputs": [
        {
          "name": "_interfaceID",
          "type": "bytes4"
        }
      ],
      "name": "supportsInterface",
      "outputs": [
        {
          "name": "",
          "type": "bool"
        }
      ],
      "payable": false,
      "stateMutability": "view",
      "type": "function"
    },
    {
      "constant": true,
      "inputs": [
        {
          "name": "",
          "type": "address"
        }
      ],
      "name": "fighterCountForOwner",
      "outputs": [
        {
          "name": "",
          "type": "uint256"
        }
      ],
      "payable": false,
      "stateMutability": "view",
      "type": "function"
    },
    {
      "constant": true,
      "inputs": [
        {
          "name": "_tokenId",
          "type": "uint256"
        },
        {
          "name": "_preferredTransport",
          "type": "string"
        }
      ],
      "name": "tokenMetadata",
      "outputs": [
        {
          "name": "infoUrl",
          "type": "string"
        }
      ],
      "payable": false,
      "stateMutability": "view",
      "type": "function"
    },
    {
      "constant": true,
      "inputs": [],
      "name": "name",
      "outputs": [
        {
          "name": "",
          "type": "string"
        }
      ],
      "payable": false,
      "stateMutability": "view",
      "type": "function"
    },
    {
      "constant": false,
      "inputs": [
        {
          "name": "_to",
          "type": "address"
        },
        {
          "name": "_tokenId",
          "type": "uint256"
        }
      ],
      "name": "approve",
      "outputs": [],
      "payable": false,
      "stateMutability": "nonpayable",
      "type": "function"
    },
    {
      "constant": true,
      "inputs": [
        {
          "name": "str",
          "type": "string"
        },
        {
          "name": "delimiter",
          "type": "string"
        }
      ],
      "name": "splitStr",
      "outputs": [
        {
          "name": "",
          "type": "uint256[]"
        }
      ],
      "payable": false,
      "stateMutability": "view",
      "type": "function"
    },
    {
      "constant": true,
      "inputs": [],
      "name": "totalSupply",
      "outputs": [
        {
          "name": "",
          "type": "uint256"
        }
      ],
      "payable": false,
      "stateMutability": "view",
      "type": "function"
    },
    {
      "constant": false,
      "inputs": [
        {
          "name": "_recipient",
          "type": "address"
        }
      ],
      "name": "withdrawBalanceToAddress",
      "outputs": [],
      "payable": false,
      "stateMutability": "nonpayable",
      "type": "function"
    },
    {
      "constant": false,
      "inputs": [
        {
          "name": "_from",
          "type": "address"
        },
        {
          "name": "_to",
          "type": "address"
        },
        {
          "name": "_tokenId",
          "type": "uint256"
        }
      ],
      "name": "transferFrom",
      "outputs": [],
      "payable": false,
      "stateMutability": "nonpayable",
      "type": "function"
    },
    {
      "constant": true,
      "inputs": [
        {
          "name": "_fighterId",
          "type": "uint256"
        }
      ],
      "name": "getPriceForFighter",
      "outputs": [
        {
          "name": "",
          "type": "uint256"
        }
      ],
      "payable": false,
      "stateMutability": "view",
      "type": "function"
    },
    {
      "constant": false,
      "inputs": [
        {
          "name": "queryId",
          "type": "bytes32"
        },
        {
          "name": "result",
          "type": "string"
        }
      ],
      "name": "__callback",
      "outputs": [],
      "payable": false,
      "stateMutability": "nonpayable",
      "type": "function"
    },
    {
      "constant": false,
      "inputs": [
        {
          "name": "_recipient",
          "type": "address"
        },
        {
          "name": "_maxHealth",
          "type": "uint256"
        },
        {
          "name": "_speed",
          "type": "uint256"
        },
        {
          "name": "_strength",
          "type": "uint256"
        },
        {
          "name": "_typeId",
          "type": "uint256"
        }
      ],
      "name": "customOwnerCreation",
      "outputs": [],
      "payable": false,
      "stateMutability": "nonpayable",
      "type": "function"
    },
    {
      "constant": false,
      "inputs": [
        {
          "name": "myid",
          "type": "bytes32"
        },
        {
          "name": "result",
          "type": "string"
        },
        {
          "name": "proof",
          "type": "bytes"
        }
      ],
      "name": "__callback",
      "outputs": [],
      "payable": false,
      "stateMutability": "nonpayable",
      "type": "function"
    },
    {
      "constant": false,
      "inputs": [
        {
          "name": "_fighterId",
          "type": "uint256"
        },
        {
          "name": "_attribute",
          "type": "string"
        },
        {
          "name": "_seed",
          "type": "uint256"
        }
      ],
      "name": "trainFighter",
      "outputs": [
        {
          "name": "",
          "type": "uint256"
        }
      ],
      "payable": true,
      "stateMutability": "payable",
      "type": "function"
    },
    {
      "constant": false,
      "inputs": [
        {
          "name": "newProbability",
          "type": "uint256"
        }
      ],
      "name": "setFighterCreationChance",
      "outputs": [],
      "payable": false,
      "stateMutability": "nonpayable",
      "type": "function"
    },
    {
      "constant": true,
      "inputs": [
        {
          "name": "",
          "type": "uint256"
        }
      ],
      "name": "fighterIdToApproved",
      "outputs": [
        {
          "name": "",
          "type": "address"
        }
      ],
      "payable": false,
      "stateMutability": "view",
      "type": "function"
    },
    {
      "constant": false,
      "inputs": [
        {
          "name": "newFactor",
          "type": "uint256"
        }
      ],
      "name": "setTrainingFactor",
      "outputs": [],
      "payable": false,
      "stateMutability": "nonpayable",
      "type": "function"
    },
    {
      "constant": true,
      "inputs": [
        {
          "name": "",
          "type": "uint256"
        }
      ],
      "name": "fighterIdToOwner",
      "outputs": [
        {
          "name": "",
          "type": "address"
        }
      ],
      "payable": false,
      "stateMutability": "view",
      "type": "function"
    },
    {
      "constant": true,
      "inputs": [],
      "name": "oraclizeGasLimit",
      "outputs": [
        {
          "name": "",
          "type": "uint256"
        }
      ],
      "payable": false,
      "stateMutability": "view",
      "type": "function"
    },
    {
      "constant": false,
      "inputs": [
        {
          "name": "_fighterId",
          "type": "uint256"
        }
      ],
      "name": "removeFighterFromSale",
      "outputs": [],
      "payable": false,
      "stateMutability": "nonpayable",
      "type": "function"
    },
    {
      "constant": false,
      "inputs": [],
      "name": "withdrawBalance",
      "outputs": [],
      "payable": false,
      "stateMutability": "nonpayable",
      "type": "function"
    },
    {
      "constant": true,
      "inputs": [
        {
          "name": "_tokenId",
          "type": "uint256"
        }
      ],
      "name": "ownerOf",
      "outputs": [
        {
          "name": "owner",
          "type": "address"
        }
      ],
      "payable": false,
      "stateMutability": "view",
      "type": "function"
    },
    {
      "constant": false,
      "inputs": [
        {
          "name": "_fighterId",
          "type": "uint256"
        }
      ],
      "name": "removeFighterFromArena",
      "outputs": [],
      "payable": false,
      "stateMutability": "nonpayable",
      "type": "function"
    },
    {
      "constant": false,
      "inputs": [
        {
          "name": "newEndpoint",
          "type": "string"
        }
      ],
      "name": "setNewCombatEndpoint",
      "outputs": [],
      "payable": false,
      "stateMutability": "nonpayable",
      "type": "function"
    },
    {
      "constant": true,
      "inputs": [],
      "name": "combatEndpoint",
      "outputs": [
        {
          "name": "",
          "type": "string"
        }
      ],
      "payable": false,
      "stateMutability": "view",
      "type": "function"
    },
    {
      "constant": true,
      "inputs": [],
      "name": "startingFighterPrice",
      "outputs": [
        {
          "name": "",
          "type": "uint256"
        }
      ],
      "payable": false,
      "stateMutability": "view",
      "type": "function"
    },
    {
      "constant": true,
      "inputs": [],
      "name": "trainingCost",
      "outputs": [
        {
          "name": "",
          "type": "uint256"
        }
      ],
      "payable": false,
      "stateMutability": "view",
      "type": "function"
    },
    {
      "constant": true,
      "inputs": [
        {
          "name": "_owner",
          "type": "address"
        }
      ],
      "name": "balanceOf",
      "outputs": [
        {
          "name": "count",
          "type": "uint256"
        }
      ],
      "payable": false,
      "stateMutability": "view",
      "type": "function"
    },
    {
      "constant": false,
      "inputs": [
        {
          "name": "_recipient",
          "type": "address"
        },
        {
          "name": "_seed",
          "type": "uint256"
        }
      ],
      "name": "ownerCreation",
      "outputs": [],
      "payable": false,
      "stateMutability": "nonpayable",
      "type": "function"
    },
    {
      "constant": true,
      "inputs": [
        {
          "name": "",
          "type": "address"
        },
        {
          "name": "",
          "type": "uint256"
        }
      ],
      "name": "ownedFighters",
      "outputs": [
        {
          "name": "",
          "type": "uint256"
        }
      ],
      "payable": false,
      "stateMutability": "view",
      "type": "function"
    },
    {
      "constant": true,
      "inputs": [
        {
          "name": "_owner",
          "type": "address"
        }
      ],
      "name": "tokensOfOwner",
      "outputs": [
        {
          "name": "ownerTokens",
          "type": "uint256[]"
        }
      ],
      "payable": false,
      "stateMutability": "view",
      "type": "function"
    },
    {
      "constant": true,
      "inputs": [],
      "name": "owner",
      "outputs": [
        {
          "name": "",
          "type": "address"
        }
      ],
      "payable": false,
      "stateMutability": "view",
      "type": "function"
    },
    {
      "constant": false,
      "inputs": [
        {
          "name": "x",
          "type": "bytes32"
        }
      ],
      "name": "bytes32ToString",
      "outputs": [
        {
          "name": "",
          "type": "string"
        }
      ],
      "payable": false,
      "stateMutability": "nonpayable",
      "type": "function"
    },
    {
      "constant": false,
      "inputs": [
        {
          "name": "_newCut",
          "type": "uint256"
        }
      ],
      "name": "setNewMarketplaceCut",
      "outputs": [],
      "payable": false,
      "stateMutability": "nonpayable",
      "type": "function"
    },
    {
      "constant": true,
      "inputs": [],
      "name": "symbol",
      "outputs": [
        {
          "name": "",
          "type": "string"
        }
      ],
      "payable": false,
      "stateMutability": "view",
      "type": "function"
    },
    {
      "constant": true,
      "inputs": [
        {
          "name": "",
          "type": "uint256"
        }
      ],
      "name": "fighterIdToBrawl",
      "outputs": [
        {
          "name": "",
          "type": "uint256"
        }
      ],
      "payable": false,
      "stateMutability": "view",
      "type": "function"
    },
    {
      "constant": false,
      "inputs": [
        {
          "name": "newCost",
          "type": "uint256"
        }
      ],
      "name": "setNewTrainingCost",
      "outputs": [],
      "payable": false,
      "stateMutability": "nonpayable",
      "type": "function"
    },
    {
      "constant": true,
      "inputs": [
        {
          "name": "",
          "type": "uint256"
        }
      ],
      "name": "fighterIdToSale",
      "outputs": [
        {
          "name": "fighterId",
          "type": "uint256"
        },
        {
          "name": "price",
          "type": "uint256"
        }
      ],
      "payable": false,
      "stateMutability": "view",
      "type": "function"
    },
    {
      "constant": false,
      "inputs": [
        {
          "name": "_to",
          "type": "address"
        },
        {
          "name": "_tokenId",
          "type": "uint256"
        }
      ],
      "name": "transfer",
      "outputs": [],
      "payable": false,
      "stateMutability": "nonpayable",
      "type": "function"
    },
    {
      "constant": true,
      "inputs": [],
      "name": "marketplaceCut",
      "outputs": [
        {
          "name": "",
          "type": "uint256"
        }
      ],
      "payable": false,
      "stateMutability": "view",
      "type": "function"
    },
    {
      "constant": true,
      "inputs": [],
      "name": "trainingFactor",
      "outputs": [
        {
          "name": "",
          "type": "uint256"
        }
      ],
      "payable": false,
      "stateMutability": "view",
      "type": "function"
    },
    {
      "constant": false,
      "inputs": [
        {
          "name": "_fighterId",
          "type": "uint256"
        },
        {
          "name": "_price",
          "type": "uint256"
        }
      ],
      "name": "makeFighterAvailableForSale",
      "outputs": [],
      "payable": false,
      "stateMutability": "nonpayable",
      "type": "function"
    },
    {
      "constant": true,
      "inputs": [],
      "name": "erc721Metadata",
      "outputs": [
        {
          "name": "",
          "type": "address"
        }
      ],
      "payable": false,
      "stateMutability": "view",
      "type": "function"
    },
    {
      "constant": false,
      "inputs": [
        {
          "name": "_owner",
          "type": "address"
        }
      ],
      "name": "getFightersForAddress",
      "outputs": [
        {
          "name": "",
          "type": "uint256[]"
        }
      ],
      "payable": false,
      "stateMutability": "nonpayable",
      "type": "function"
    },
    {
      "constant": false,
      "inputs": [],
      "name": "killConract",
      "outputs": [],
      "payable": false,
      "stateMutability": "nonpayable",
      "type": "function"
    },
    {
      "constant": false,
      "inputs": [
        {
          "name": "newGas",
          "type": "uint256"
        }
      ],
      "name": "setNewOraclizeGasLimit",
      "outputs": [],
      "payable": false,
      "stateMutability": "nonpayable",
      "type": "function"
    },
    {
      "constant": false,
      "inputs": [
        {
          "name": "_attackerId",
          "type": "uint256"
        },
        {
          "name": "_defenderId",
          "type": "uint256"
        }
      ],
      "name": "fight",
      "outputs": [],
      "payable": true,
      "stateMutability": "payable",
      "type": "function"
    },
    {
      "constant": false,
      "inputs": [
        {
          "name": "_fighterId",
          "type": "uint256"
        }
      ],
      "name": "buyFighter",
      "outputs": [],
      "payable": true,
      "stateMutability": "payable",
      "type": "function"
    },
    {
      "constant": false,
      "inputs": [
        {
          "name": "newCost",
          "type": "uint256"
        }
      ],
      "name": "setNewArenaCost",
      "outputs": [],
      "payable": false,
      "stateMutability": "nonpayable",
      "type": "function"
    },
    {
      "constant": true,
      "inputs": [
        {
          "name": "",
          "type": "uint256"
        }
      ],
      "name": "fighterTypes",
      "outputs": [
        {
          "name": "",
          "type": "string"
        }
      ],
      "payable": false,
      "stateMutability": "view",
      "type": "function"
    },
    {
      "constant": false,
      "inputs": [
        {
          "name": "_contractAddress",
          "type": "address"
        }
      ],
      "name": "setMetadataAddress",
      "outputs": [],
      "payable": false,
      "stateMutability": "nonpayable",
      "type": "function"
    },
    {
      "constant": false,
      "inputs": [
        {
          "name": "_fighterId",
          "type": "uint256"
        }
      ],
      "name": "makeFighterAvailableForBrawl",
      "outputs": [],
      "payable": false,
      "stateMutability": "nonpayable",
      "type": "function"
    },
    {
      "constant": true,
      "inputs": [],
      "name": "arenaCost",
      "outputs": [
        {
          "name": "",
          "type": "uint256"
        }
      ],
      "payable": false,
      "stateMutability": "view",
      "type": "function"
    },
    {
      "constant": false,
      "inputs": [
        {
          "name": "_fighterId",
          "type": "uint256"
        }
      ],
      "name": "healFighter",
      "outputs": [],
      "payable": true,
      "stateMutability": "payable",
      "type": "function"
    },
    {
      "constant": false,
      "inputs": [
        {
          "name": "newOwner",
          "type": "address"
        }
      ],
      "name": "transferOwnership",
      "outputs": [],
      "payable": false,
      "stateMutability": "nonpayable",
      "type": "function"
    },
    {
      "constant": true,
      "inputs": [],
      "name": "chanceOfFighterCreation",
      "outputs": [
        {
          "name": "",
          "type": "uint256"
        }
      ],
      "payable": false,
      "stateMutability": "view",
      "type": "function"
    },
    {
      "constant": false,
      "inputs": [
        {
          "name": "_seed",
          "type": "uint256"
        }
      ],
      "name": "searchForFighter",
      "outputs": [
        {
          "name": "fighterFound",
          "type": "bool"
        }
      ],
      "payable": false,
      "stateMutability": "nonpayable",
      "type": "function"
    },
    {
      "inputs": [],
      "payable": false,
      "stateMutability": "nonpayable",
      "type": "constructor"
    },
    {
      "anonymous": false,
      "inputs": [
        {
          "indexed": false,
          "name": "buyer",
          "type": "address"
        },
        {
          "indexed": false,
          "name": "price",
          "type": "uint256"
        },
        {
          "indexed": false,
          "name": "fighterId",
          "type": "uint256"
        },
        {
          "indexed": false,
          "name": "seller",
          "type": "address"
        }
      ],
      "name": "PurchaseSuccess",
      "type": "event"
    },
    {
      "anonymous": false,
      "inputs": [
        {
          "indexed": false,
          "name": "winner",
          "type": "address"
        },
        {
          "indexed": false,
          "name": "winnerId",
          "type": "uint256"
        },
        {
          "indexed": false,
          "name": "loser",
          "type": "address"
        },
        {
          "indexed": false,
          "name": "loserId",
          "type": "uint256"
        },
        {
          "indexed": false,
          "name": "fighterInArena",
          "type": "uint256"
        }
      ],
      "name": "FightComplete",
      "type": "event"
    },
    {
      "anonymous": false,
      "inputs": [
        {
          "indexed": false,
          "name": "owner",
          "type": "address"
        },
        {
          "indexed": false,
          "name": "fighterId",
          "type": "uint256"
        }
      ],
      "name": "MarketplaceRemoval",
      "type": "event"
    },
    {
      "anonymous": false,
      "inputs": [
        {
          "indexed": false,
          "name": "owner",
          "type": "address"
        },
        {
          "indexed": false,
          "name": "fighterId",
          "type": "uint256"
        }
      ],
      "name": "ArenaRemoval",
      "type": "event"
    },
    {
      "anonymous": false,
      "inputs": [
        {
          "indexed": false,
          "name": "owner",
          "type": "address"
        },
        {
          "indexed": false,
          "name": "fighterId",
          "type": "uint256"
        },
        {
          "indexed": false,
          "name": "price",
          "type": "uint256"
        }
      ],
      "name": "MarketplaceAdd",
      "type": "event"
    },
    {
      "anonymous": false,
      "inputs": [
        {
          "indexed": false,
          "name": "owner",
          "type": "address"
        },
        {
          "indexed": false,
          "name": "fighterId",
          "type": "uint256"
        }
      ],
      "name": "ArenaAdd",
      "type": "event"
    },
    {
      "anonymous": false,
      "inputs": [
        {
          "indexed": false,
          "name": "_string",
          "type": "string"
        }
      ],
      "name": "Test",
      "type": "event"
    },
    {
      "anonymous": false,
      "inputs": [
        {
          "indexed": false,
          "name": "from",
          "type": "address"
        },
        {
          "indexed": false,
          "name": "to",
          "type": "address"
        },
        {
          "indexed": false,
          "name": "tokenId",
          "type": "uint256"
        }
      ],
      "name": "Transfer",
      "type": "event"
    },
    {
      "anonymous": false,
      "inputs": [
        {
          "indexed": false,
          "name": "owner",
          "type": "address"
        },
        {
          "indexed": false,
          "name": "approved",
          "type": "address"
        },
        {
          "indexed": false,
          "name": "tokenId",
          "type": "uint256"
        }
      ],
      "name": "Approval",
      "type": "event"
    },
    {
      "anonymous": false,
      "inputs": [
        {
          "indexed": false,
          "name": "_keccak1",
          "type": "bytes32"
        },
        {
          "indexed": false,
          "name": "_keccak2",
          "type": "bytes32"
        }
      ],
      "name": "Test",
      "type": "event"
    },
    {
      "anonymous": false,
      "inputs": [
        {
          "indexed": false,
          "name": "owner",
          "type": "address"
        },
        {
          "indexed": false,
          "name": "fighterId",
          "type": "uint256"
        },
        {
          "indexed": false,
          "name": "maxHealth",
          "type": "uint256"
        },
        {
          "indexed": false,
          "name": "speed",
          "type": "uint256"
        },
        {
          "indexed": false,
          "name": "strength",
          "type": "uint256"
        },
        {
          "indexed": false,
          "name": "fighterType",
          "type": "string"
        }
      ],
      "name": "Creation",
      "type": "event"
    },
    {
      "anonymous": false,
      "inputs": [
        {
          "indexed": false,
          "name": "owner",
          "type": "address"
        },
        {
          "indexed": false,
          "name": "fighterId",
          "type": "uint256"
        },
        {
          "indexed": false,
          "name": "attribute",
          "type": "string"
        },
        {
          "indexed": false,
          "name": "increaseValue",
          "type": "uint256"
        }
      ],
      "name": "AttributeIncrease",
      "type": "event"
    },
    {
      "anonymous": false,
      "inputs": [
        {
          "indexed": false,
          "name": "owner",
          "type": "address"
        },
        {
          "indexed": false,
          "name": "fighterId",
          "type": "uint256"
        },
        {
          "indexed": false,
          "name": "maxHealth",
          "type": "uint256"
        }
      ],
      "name": "Healed",
      "type": "event"
    },
    {
      "anonymous": false,
      "inputs": [
        {
          "indexed": false,
          "name": "fighterWasFound",
          "type": "bool"
        },
        {
          "indexed": false,
          "name": "owner",
          "type": "address"
        },
        {
          "indexed": false,
          "name": "fighterId",
          "type": "uint256"
        }
      ],
      "name": "FighterFound",
      "type": "event"
    },
    {
      "constant": false,
      "inputs": [
        {
          "name": "newType",
          "type": "string"
        },
        {
          "name": "weakness",
          "type": "string"
        }
      ],
      "name": "addNewFighterType",
      "outputs": [],
      "payable": false,
      "stateMutability": "nonpayable",
      "type": "function"
    },
    {
      "constant": false,
      "inputs": [
        {
          "name": "startingFighters",
          "type": "uint256"
        }
      ],
      "name": "setupStartingFighters",
      "outputs": [],
      "payable": false,
      "stateMutability": "nonpayable",
      "type": "function"
    },
    {
      "constant": false,
      "inputs": [
        {
          "name": "_fighterId",
          "type": "uint256"
        }
      ],
      "name": "getInfoForFighter",
      "outputs": [
        {
          "name": "maxHealth",
          "type": "uint256"
        },
        {
          "name": "health",
          "type": "uint256"
        },
        {
          "name": "speed",
          "type": "uint256"
        },
        {
          "name": "strength",
          "type": "uint256"
        },
        {
          "name": "isForSale",
          "type": "bool"
        },
        {
          "name": "isInArena",
          "type": "bool"
        },
        {
          "name": "fighterType",
          "type": "string"
        }
      ],
      "payable": false,
      "stateMutability": "nonpayable",
      "type": "function"
    },
    {
      "constant": false,
      "inputs": [
        {
          "name": "newGasPrice",
          "type": "uint256"
        }
      ],
      "name": "setNewOraclizeGasPrice",
      "outputs": [],
      "payable": false,
      "stateMutability": "nonpayable",
      "type": "function"
    }
  ],
  "bytecode": "0x6060604052600360015560036002556611c37937e08000600355662386f26fc100006004556005600d55608060405190810160405280604381526020017f68747470733a2f2f72696e6b656279627261776c6261636b656e642e6865726f81526020017f6b756170702e636f6d2f6170692f6172656e612f63616c63756c61746557696e81526020017f6e65720000000000000000000000000000000000000000000000000000000000815250600e908051620000c1929160200190620009fa565b50620b71b0600f556611c37937e080006017553415620000e057600080fd5b60008054600160a060020a03191633600160a060020a03161790556200017b604080519081016040908152600882527f4d6f6220426f737300000000000000000000000000000000000000000000000060208301528051908101604052600881527f4d6f6220426f73730000000000000000000000000000000000000000000000006020820152640100000000620030306200031f82021704565b620001fb604080519081016040908152600e82527f4c6f63616c204d4d41205374617200000000000000000000000000000000000060208301528051908101604052600881527f48656e63686d616e0000000000000000000000000000000000000000000000006020820152640100000000620030306200031f82021704565b6200027b604080519081016040908152600782527f526f61646d616e0000000000000000000000000000000000000000000000000060208301528051908101604052600e81527f4c6f63616c204d4d4120537461720000000000000000000000000000000000006020820152640100000000620030306200031f82021704565b620002fb604080519081016040908152600882527f48656e63686d616e00000000000000000000000000000000000000000000000060208301528051908101604052600781527f526f61646d616e000000000000000000000000000000000000000000000000006020820152640100000000620030306200031f82021704565b6200031964012a05f20064010000000062002ea1620003d382021704565b62000b33565b600a80546001810162000333838262000a7f565b600092835260209092200183805162000351929160200190620009fa565b505080600b836040518082805190602001908083835b60208310620003885780518252601f19909201916020918201910162000367565b6001836020036101000a0380198251168184511680821785525050505050509050019150509081526020016040518091039020908051620003ce929160200190620009fa565b505050565b601054600160a060020a031615806200040e57506010546200040c90600160a060020a031664010000000062003907620005dd82021704565b155b1562000430576200042e60006401000000006200390b620005e182021704565b505b601054600160a060020a03166338cc48316000604051602001526040518163ffffffff167c0100000000000000000000000000000000000000000000000000000000028152600401602060405180830381600087803b15156200049257600080fd5b6102c65a03f11515620004a457600080fd5b5050506040518051601154600160a060020a0390811691161490506200056257601054600160a060020a03166338cc48316000604051602001526040518163ffffffff167c0100000000000000000000000000000000000000000000000000000000028152600401602060405180830381600087803b15156200052657600080fd5b6102c65a03f115156200053857600080fd5b505050604051805160118054600160a060020a031916600160a060020a0392909216919091179055505b601154600160a060020a031663ca6ad1e4826040517c010000000000000000000000000000000000000000000000000000000063ffffffff84160281526004810191909152602401600060405180830381600087803b1515620005c457600080fd5b6102c65a03f11515620005d657600080fd5b5050505b50565b3b90565b6000620005fb640100000000620042056200060182021704565b92915050565b60008062000631731d3b2638a7cc9f2cb3d298a3da7a90b67e5506ed64010000000062003907620005dd82021704565b1115620006b35760108054600160a060020a031916731d3b2638a7cc9f2cb3d298a3da7a90b67e5506ed179055620006aa60408051908101604052600b81527f6574685f6d61696e6e6574000000000000000000000000000000000000000000602082015264010000000062004586620009e182021704565b506001620009de565b6000620006e273c03a2615d5efaf5f49f60b7bb6583eaec212fdf164010000000062003907620005dd82021704565b11156200075b5760108054600160a060020a03191673c03a2615d5efaf5f49f60b7bb6583eaec212fdf1179055620006aa60408051908101604052600c81527f6574685f726f707374656e330000000000000000000000000000000000000000602082015264010000000062004586620009e182021704565b60006200078a73b7a07bcf2ba2f2703b24c0691b5278999c59ac7e64010000000062003907620005dd82021704565b1115620008035760108054600160a060020a03191673b7a07bcf2ba2f2703b24c0691b5278999c59ac7e179055620006aa60408051908101604052600981527f6574685f6b6f76616e0000000000000000000000000000000000000000000000602082015264010000000062004586620009e182021704565b60006200083273146500cfd35b22e4a392fe0adc06de1a1368ed4864010000000062003907620005dd82021704565b1115620008ab5760108054600160a060020a03191673146500cfd35b22e4a392fe0adc06de1a1368ed48179055620006aa60408051908101604052600b81527f6574685f72696e6b656279000000000000000000000000000000000000000000602082015264010000000062004586620009e182021704565b6000620008da736f485c8bf6fc43ea212e93bbf8ce046c7f1cb47564010000000062003907620005dd82021704565b111562000910575060108054600160a060020a031916736f485c8bf6fc43ea212e93bbf8ce046c7f1cb4751790556001620009de565b60006200093f7320e12a1f859b3feae5fb2a0a32c18f5a65555bbf64010000000062003907620005dd82021704565b111562000975575060108054600160a060020a0319167320e12a1f859b3feae5fb2a0a32c18f5a65555bbf1790556001620009de565b6000620009a47351efaf4c8b3c9afbd5ab9f4bbc82784ab6ef8faa64010000000062003907620005dd82021704565b1115620009da575060108054600160a060020a0319167351efaf4c8b3c9afbd5ab9f4bbc82784ab6ef8faa1790556001620009de565b5060005b90565b6012818051620009f6929160200190620009fa565b5050565b828054600181600116156101000203166002900490600052602060002090601f016020900481019282601f1062000a3d57805160ff191683800117855562000a6d565b8280016001018555821562000a6d579182015b8281111562000a6d57825182559160200191906001019062000a50565b5062000a7b92915062000aa6565b5090565b815481835581811511620003ce57600083815260209020620003ce91810190830162000ac3565b620009de91905b8082111562000a7b576000815560010162000aad565b620009de91905b8082111562000a7b57600062000ae1828262000aeb565b5060010162000aca565b50805460018160011615610100020316600290046000825580601f1062000b135750620005da565b601f016020900490600052602060002090810190620005da919062000aa6565b6149178062000b436000396000f3006060604052600436106102bb5763ffffffff60e060020a60003504166301ffc9a781146102c0578063027f48f71461030c5780630560ff441461033d57806306fdde03146103d6578063095ea7b3146103e957806312b0b6271461040d57806318160ddd146104f35780631ba210111461050657806323b872dd14610525578063241860aa1461054d57806327dc297e146105635780632b1a8d46146105b957806338bbfa50146105e45780633f40d2881461067c57806340e4e0481461069657806344e59ee9146106ac578063495ac3a8146106de5780634b193933146106f45780634c67899b1461070a57806350b9c428146107c857806354c3bfa1146107db5780635fd8c710146107f15780636352211e14610804578063641e3aae1461081a578063656aa88a146108305780636bbd3c971461084e5780636f4eb7e814610861578063701a19fd1461087457806370a08231146108875780638053e5d8146108a65780638357b8dd146108c85780638462151c146108ea5780638d4c4b69146109095780638da5cb5b1461091f5780639201de5514610932578063920b4a2d1461094857806395d89b411461095e578063a2df64df14610971578063a5557ce014610987578063a707c73c1461099d578063a9059cbb146109cb578063ad2dccfe146109ed578063b2912d6214610a00578063b64ce34a14610a2a578063b6e5706414610a3d578063bc4006f514610a56578063c20548ac14610a69578063c48f66f214610a88578063c7cffa0f14610a9b578063c977cf6614610ab1578063ca39e5ef14610ac7578063cbb5bbbf14610ad5578063d004cad414610ae0578063d9861dab14610af6578063e17b25af14610b0c578063e88f4f1f14610b2b578063ea9b50c514610b41578063efbeef8014610b54578063f2fde38b14610b5f578063f36014d214610b7e578063f6a6771614610b91575b600080fd5b34156102cb57600080fd5b6102f87fffffffff0000000000000000000000000000000000000000000000000000000060043516610ba7565b604051901515815260200160405180910390f35b341561031757600080fd5b61032b600160a060020a0360043516610e2e565b60405190815260200160405180910390f35b341561034857600080fd5b61035f600480359060248035908101910135610e40565b60405160208082528190810183818151815260200191508051906020019080838360005b8381101561039b578082015183820152602001610383565b50505050905090810190601f1680156103c85780820380516001836020036101000a031916815260200191505b509250505060405180910390f35b34156103e157600080fd5b61035f610f1d565b34156103f457600080fd5b61040b600160a060020a0360043516602435610f54565b005b341561041857600080fd5b6104a060046024813581810190830135806020601f8201819004810201604051908101604052818152929190602084018383808284378201915050505050509190803590602001908201803590602001908080601f016020809104026020016040519081016040528181529291906020840183838082843750949650610fc795505050505050565b60405160208082528190810183818151815260200191508051906020019060200280838360005b838110156104df5780820151838201526020016104c7565b505050509050019250505060405180910390f35b34156104fe57600080fd5b61032b6112f6565b341561051157600080fd5b61040b600160a060020a03600435166112fd565b341561053057600080fd5b61040b600160a060020a0360043581169060243516604435611358565b341561055857600080fd5b61032b6004356113c8565b341561056e57600080fd5b61040b600480359060446024803590810190830135806020601f820181900481020160405190810160405281815292919060208401838380828437509496506113dd95505050505050565b34156105c457600080fd5b61040b600160a060020a036004351660243560443560643560843561156a565b34156105ef57600080fd5b61040b600480359060446024803590810190830135806020601f8201819004810201604051908101604052818152929190602084018383808284378201915050505050509190803590602001908201803590602001908080601f0160208091040260200160405190810160405281815292919060208401838380828437509496506113c395505050505050565b61032b60048035906024803590810191013560443561164c565b34156106a157600080fd5b61040b6004356116dd565b34156106b757600080fd5b6106c26004356116fd565b604051600160a060020a03909116815260200160405180910390f35b34156106e957600080fd5b61040b600435611718565b34156106ff57600080fd5b6106c2600435611738565b341561071557600080fd5b610720600435611753565b604051878152602081018790526040810186905260608101859052831515608082015282151560a082015260e060c0820181815290820183818151815260200191508051906020019080838360005b8381101561078757808201518382015260200161076f565b50505050905090810190601f1680156107b45780820380516001836020036101000a031916815260200191505b509850505050505050505060405180910390f35b34156107d357600080fd5b61032b6118a3565b34156107e657600080fd5b61040b6004356118a9565b34156107fc57600080fd5b61040b611922565b341561080f57600080fd5b6106c2600435611978565b341561082557600080fd5b61040b60043561199c565b341561083b57600080fd5b61040b6004803560248101910135611a15565b341561085957600080fd5b61035f611a3c565b341561086c57600080fd5b61032b611ada565b341561087f57600080fd5b61032b611ae0565b341561089257600080fd5b61032b600160a060020a0360043516611ae6565b34156108b157600080fd5b61040b600160a060020a0360043516602435611b01565b34156108d357600080fd5b61032b600160a060020a0360043516602435611b62565b34156108f557600080fd5b6104a0600160a060020a0360043516611b90565b341561091457600080fd5b61040b600435611c71565b341561092a57600080fd5b6106c2611c95565b341561093d57600080fd5b61035f600435611ca4565b341561095357600080fd5b61040b600435611de2565b341561096957600080fd5b61035f611e02565b341561097c57600080fd5b61032b600435611e39565b341561099257600080fd5b61040b600435611e4b565b34156109a857600080fd5b6109b3600435611e6b565b60405191825260208201526040908101905180910390f35b34156109d657600080fd5b61040b600160a060020a0360043516602435611e84565b34156109f857600080fd5b61032b611ede565b3415610a0b57600080fd5b61040b6024600480358281019290820135918135918201910135611ee4565b3415610a3557600080fd5b61032b611f6f565b3415610a4857600080fd5b61040b600435602435611f75565b3415610a6157600080fd5b6106c2612039565b3415610a7457600080fd5b6104a0600160a060020a0360043516612048565b3415610a9357600080fd5b61040b6120cb565b3415610aa657600080fd5b61040b6004356120f4565b3415610abc57600080fd5b61040b600435612114565b61040b600435602435612175565b61040b6004356123a9565b3415610aeb57600080fd5b61040b6004356123d6565b3415610b0157600080fd5b61035f6004356123f6565b3415610b1757600080fd5b61040b600160a060020a036004351661247e565b3415610b3657600080fd5b61040b6004356124a0565b3415610b4c57600080fd5b61032b612536565b61040b60043561253c565b3415610b6a57600080fd5b61040b600160a060020a0360043516612565565b3415610b8957600080fd5b61032b6125af565b3415610b9c57600080fd5b6102f86004356125b5565b60006040517f737570706f727473496e7465726661636528627974657334290000000000000081526019016040518091039020600160e060020a03191682600160e060020a0319161480610e2657506040517f746f6b656e4d657461646174612875696e743235362c737472696e67290000008152601d0160405180910390206040517f746f6b656e734f664f776e657228616464726573732900000000000000000000815260160160405180910390206040517f7472616e7366657246726f6d28616464726573732c616464726573732c75696e81527f7432353629000000000000000000000000000000000000000000000000000000602082015260250160405180910390206040517f7472616e7366657228616464726573732c75696e743235362900000000000000815260190160405180910390206040517f617070726f766528616464726573732c75696e74323536290000000000000000815260180160405180910390206040517f6f776e65724f662875696e743235362900000000000000000000000000000000815260100160405180910390206040517f62616c616e63654f662861646472657373290000000000000000000000000000815260120160405180910390206040517f746f74616c537570706c792829000000000000000000000000000000000000008152600d0160405180910390206040517f73796d626f6c2829000000000000000000000000000000000000000000000000815260080160405180910390206040517f6e616d652829000000000000000000000000000000000000000000000000000081526006016040518091039020181818181818181818600160e060020a03191682600160e060020a031916145b90505b919050565b60066020526000908152604090205481565b610e48614599565b610e506145ab565b600c54600090600160a060020a03161515610e6a57600080fd5b600c54600160a060020a031663cb4799f2878787600060405160a0015260405160e060020a63ffffffff861602815260048101848152604060248301908152604483018490529091606401848480828437820191505094505050505060a060405180830381600087803b1515610edf57600080fd5b6102c65a03f11515610ef057600080fd5b50505060405180608001805160209091016040529092509050610f1382826126db565b9695505050505050565b60408051908101604052600e81527f43727970746f427261776c657273000000000000000000000000000000000000602082015281565b610f5e3382612730565b1515610f6957600080fd5b610f738183612750565b7f8c5be1e5ebec7d5bd14f71427d1e84f3dd0314c0f7b2291e5b200ac8c7c3b925338383604051600160a060020a039384168152919092166020820152604080820192909252606001905180910390a15050565b610fcf614599565b6000806000610fdc614599565b610fe4614599565b508690508560005b82518110156111aa578160008151811061100257fe5b016020015160f860020a900460f860020a02600160f860020a03191683828151811061102a57fe5b016020015160f860020a900460f860020a02600160f860020a0319161415156110d657858054600181600116156101000203166002900480600101828161107191906145d4565b91908154600116156110925790600052602060002090602091828204019190065b85848151811061109e57fe5b016020015160f860020a900460f860020a0290919091601f036101000a81548160ff0219169060f860020a84040217905550506111a2565b83548490600181016110e88382614697565b91600052602060002090016000611197898054600181600116156101000203166002900480601f01602080910402602001604051908101604052809291908181526020018280546001816001161561010002031660029004801561118d5780601f106111625761010080835404028352916020019161118d565b820191906000526020600020905b81548152906001019060200180831161117057829003601f168201915b505050505061277e565b909190915055508495505b600101610fec565b816000815181106111b757fe5b016020015160f860020a900460f860020a02600160f860020a031916836001855103815181106111e357fe5b016020015160f860020a900460f860020a02600160f860020a0319161415156112985783548490600181016112188382614697565b91600052602060002090016000611292898054600181600116156101000203166002900480601f01602080910402602001604051908101604052809291908181526020018280546001816001161561010002031660029004801561118d5780601f106111625761010080835404028352916020019161118d565b90915550505b838054806020026020016040519081016040528092919081815260200182805480156112e357602002820191906000526020600020905b8154815260200190600101908083116112cf575b5050505050965050505050505092915050565b6005545b90565b60005433600160a060020a0390811691161461131857600080fd5b80600160a060020a03166108fc30600160a060020a0316319081150290604051600060405180830381858888f19350505050151561135557600080fd5b50565b600160a060020a038216151561136d57600080fd5b30600160a060020a031682600160a060020a03161415151561138e57600080fd5b611398338261278b565b15156113a357600080fd5b6113ad8382612730565b15156113b857600080fd5b6113c38383836127ab565b505050565b60009081526015602052604090206001015490565b6113e5614599565b60008060006113f26128be565b600160a060020a031633600160a060020a031614151561141157600080fd5b61144e8560408051908101604052600181527f2d000000000000000000000000000000000000000000000000000000000000006020820152610fc7565b93508360008151811061145d57fe5b9060200190602002015192508360018151811061147657fe5b90602001906020020151915061148b83612a5e565b156114a05761149983612a71565b50816114ab565b50806114ab81612a71565b600082815260076020526040808220548583529120546114d891600160a060020a039081169116846127ab565b6000838152600760205260408082205484835291819020547f0974ab4622ebebd6fc59c871455d5554bfc6cb8da267f947006c5f5c4f747f6092600160a060020a03908116928792909116908690869051600160a060020a0395861681526020810194909452919093166040808401919091526060830193909352608082015260a001905180910390a1505050505050565b60005433600160a060020a0390811691161461158557600080fd5b61164484848488600a8681548110151561159b57fe5b90600052602060002090018054600181600116156101000203166002900480601f01602080910402602001604051908101604052809291908181526020018280546001816001161561010002031660029004801561163a5780601f1061160f5761010080835404028352916020019161163a565b820191906000526020600020905b81548152906001019060200180831161161d57829003601f168201915b5050505050612a82565b505050505050565b60008060035480341015156116d3576116653388612730565b151561167057600080fd5b60025461167c85612c1c565b81151561168557fe5b04915081151561169457600191505b6116cf8787878080601f016020809104026020016040519081016040528181529291906020840183838082843750899450612c5d9350505050565b8192505b5050949350505050565b60005433600160a060020a039081169116146116f857600080fd5b600155565b600860205260009081526040902054600160a060020a031681565b60005433600160a060020a0390811691161461173357600080fd5b600255565b600760205260009081526040902054600160a060020a031681565b600080600080600080611764614599565b61176c6146bb565b600580548a90811061177a57fe5b906000526020600020906005020160a0604051908101604052908160008201548152602001600182015481526020016002820154815260200160038201548152602001600482018054600181600116156101000203166002900480601f0160208091040260200160405190810160405280929190818152602001828054600181600116156101000203166002900480156118555780601f1061182a57610100808354040283529160200191611855565b820191906000526020600020905b81548152906001019060200180831161183857829003601f168201915b5050505050815250509050806000015181602001518260400151836060015161187d8d612e42565b6118868e612a5e565b8660800151959f949e50929c50909a509850965090945092505050565b600f5481565b6118b33382612730565b15156118be57600080fd5b6118c781612e42565b15156118d257600080fd5b6118db81612e58565b7f3e808687755674bf6703cb65acce9b7da494797511c241a38e74134813273be23382604051600160a060020a03909216825260208201526040908101905180910390a150565b60005433600160a060020a0390811691161461193d57600080fd5b600054600160a060020a039081169030163180156108fc0290604051600060405180830381858888f19350505050151561197657600080fd5b565b600081815260076020526040902054600160a060020a0316801515610e2957600080fd5b6119a63382612730565b15156119b157600080fd5b6119ba81612a5e565b15156119c557600080fd5b6119ce81612a71565b7fb3fefaad4d5eb17c447489e1529238e4f44c82b4f99284ca82969e1bfbb8e8c53382604051600160a060020a03909216825260208201526040908101905180910390a150565b60005433600160a060020a03908116911614611a3057600080fd5b6113c3600e83836146f0565b600e8054600181600116156101000203166002900480601f016020809104026020016040519081016040528092919081815260200182805460018160011615610100020316600290048015611ad25780601f10611aa757610100808354040283529160200191611ad2565b820191906000526020600020905b815481529060010190602001808311611ab557829003601f168201915b505050505081565b60175481565b60035481565b600160a060020a031660009081526006602052604090205490565b600080548190819033600160a060020a03908116911614611b2157600080fd5b611b2a84612c1c565b9250611b3583612c1c565b9150611b49846001600a8054905003612e6f565b9050611644600a848488600a8681548110151561159b57fe5b600960205281600052604060002081815481101515611b7d57fe5b6000918252602090912001549150829050565b611b98614599565b6000806000611ba5614599565b6000611bb087611ae6565b9450841515611be0576000604051805910611bc85750595b90808252806020026020018201604052509550611c67565b60009350611bec6112f6565b925084604051805910611bfc5750595b90808252806020026020018201604052509150600190505b828111611c6357600081815260076020526040902054600160a060020a0388811691161415611c5b5780828581518110611c4a57fe5b602090810290910101526001909301925b600101611c14565b8195505b5050505050919050565b60005433600160a060020a03908116911614611c8c57600080fd5b61135581612ea1565b600054600160a060020a031681565b611cac614599565b611cb4614599565b6000806000611cc1614599565b6020604051805910611cd05750595b818152601f19601f83011681016020016040529050945060009350600092505b6020831015611d63576008830260020a870291507fff00000000000000000000000000000000000000000000000000000000000000821615611d585781858581518110611d3957fe5b906020010190600160f860020a031916908160001a9053506001909301925b600190920191611cf0565b83604051805910611d715750595b818152601f19601f830116810160200160405290509050600092505b83831015610f1357848381518110611da157fe5b016020015160f860020a900460f860020a02818481518110611dbf57fe5b906020010190600160f860020a031916908160001a905350600190920191611d8d565b60005433600160a060020a03908116911614611dfd57600080fd5b600d55565b60408051908101604052600481527f4252574c00000000000000000000000000000000000000000000000000000000602082015281565b60166020526000908152604090205481565b60005433600160a060020a03908116911614611e6657600080fd5b600355565b6015602052600090815260409020805460019091015482565b600160a060020a0382161515611e9957600080fd5b30600160a060020a031682600160a060020a031614151515611eba57600080fd5b611ec43382612730565b1515611ecf57600080fd5b611eda3383836127ab565b5050565b600d5481565b60005433600160a060020a03908116911614611eff57600080fd5b611f6984848080601f016020809104026020016040519081016040528181529291906020840183838082843782019150505050505083838080601f016020809104026020016040519081016040528181529291906020840183838082843750613030945050505050565b50505050565b60025481565b611f7f3383612730565b1515611f8a57600080fd5b611f9382612a5e565b15611f9d57600080fd5b60008111611faa57600080fd5b60408051908101604090815283825260208083018490526000858152601590915220815181556020820151600190910155507f9eaf5a44f033adc048686ca80e281b74f25fb52e998dd7f8e6812721383ae88a3383836040518084600160a060020a0316600160a060020a03168152602001838152602001828152602001935050505060405180910390a15050565b600c54600160a060020a031681565b612050614599565b6009600083600160a060020a0316600160a060020a031681526020019081526020016000208054806020026020016040519081016040528092919081815260200182805480156120bf57602002820191906000526020600020905b8154815260200190600101908083116120ab575b50505050509050919050565b60005433600160a060020a039081169116146120e657600080fd5b600054600160a060020a0316ff5b60005433600160a060020a0390811691161461210f57600080fd5b600f55565b600080548190819033600160a060020a0390811691161461213457600080fd5b600192505b838311611f6957600a5461214e908490612e6f565b9150612168600a60058033600a8781548110151561159b57fe5b6001909301929050612139565b61217d614599565b612185614599565b600454348190106123a25761219984612a5e565b15156121a457600080fd5b6121ae3386612730565b15156121b957600080fd5b6121c33385612730565b156121cd57600080fd5b61224f60408051908101604052600a81527f2f61747461636b65722f00000000000000000000000000000000000000000000602082015261220d876130d7565b60408051908101604052600a81527f2f646566656e6465722f00000000000000000000000000000000000000000000602082015261224a886130d7565b6131cb565b925061235f6040805190810160405280600581526020017f6a736f6e28000000000000000000000000000000000000000000000000000000815250600e8054600181600116156101000203166002900480601f0160208091040260200160405190810160405280929190818152602001828054600181600116156101000203166002900480156123205780601f106122f557610100808354040283529160200191612320565b820191906000526020600020905b81548152906001019060200180831161230357829003601f168201915b50505050508560408051908101604052600f81527f292e6f7574636f6d65537472696e67000000000000000000000000000000000060208201526131cb565b915061164460408051908101604052600381527f55524c00000000000000000000000000000000000000000000000000000000006020820152600f5484906131f7565b5050505050565b6123b3813461357d565b60008181526007602052604090205461135590600160a060020a031633836127ab565b60005433600160a060020a039081169116146123f157600080fd5b600455565b600a80548290811061240457fe5b90600052602060002090016000915090508054600181600116156101000203166002900480601f016020809104026020016040519081016040528092919081815260200182805460018160011615610100020316600290048015611ad25780601f10611aa757610100808354040283529160200191611ad2565b600c8054600160a060020a031916600160a060020a0392909216919091179055565b6124aa3382612730565b15156124b557600080fd5b6124be81612e42565b156124c857600080fd5b6124d181612a5e565b156124db57600080fd5b600081815260166020526040908190208290557ffd493e9e8a025ff7f65e924f394f7f1c3804e6114587e73b05e393385823ae5f903390839051600160a060020a03909216825260208201526040908101905180910390a150565b60045481565b60035434819010611eda576125513383612730565b151561255c57600080fd5b611eda8261368a565b60005433600160a060020a0390811691161461258057600080fd5b600160a060020a038116156113555760008054600160a060020a038316600160a060020a031990911617905550565b60015481565b6000806000806000806125c787613694565b9450600154858115156125d657fe5b06151561267b576125e687612c1c565b93506125f184612c1c565b9250612605876001600a8054905003612e6f565b915061261e600a858533600a8781548110151561159b57fe5b90507f9bd510de0dcc8d26bfd35e5e1bad5c406154844b85cde0690dfa7881e481de76600133836040519215158352600160a060020a0390911660208301526040808301919091526060909101905180910390a160019550611c67565b7f9bd510de0dcc8d26bfd35e5e1bad5c406154844b85cde0690dfa7881e481de7660003360006040519215158352600160a060020a0390911660208301526040808301919091526060909101905180910390a15060009695505050505050565b6126e3614599565b6126eb614599565b600080846040518059106126fc5750595b818152601f19601f83011681016020016040529050925050602082019050846127268282876136c0565b5090949350505050565b600090815260076020526040902054600160a060020a0391821691161490565b6000918252600860205260409091208054600160a060020a031916600160a060020a03909216919091179055565b6000610e26826000613705565b600090815260086020526040902054600160a060020a0391821691161490565b600160a060020a038216600081815260066020908152604080832080546001908101909155858452600783528184208054600160a060020a03191686179055938352600990915290208054909181016128048382614697565b506000918252602090912001819055600160a060020a038316156128695760008181526008602052604090208054600160a060020a03191690556128488382613873565b600160a060020a038316600090815260066020526040902080546000190190555b7fddf252ad1be2c89b69c2b068fc378daa952ba7f163c4a11628f55a4df523b3ef838383604051600160a060020a039384168152919092166020820152604080820192909252606001905180910390a1505050565b601054600090600160a060020a031615806128eb57506010546128e990600160a060020a0316613907565b155b156128fc576128fa600061390b565b505b601054600160a060020a03166338cc48316000604051602001526040518163ffffffff1660e060020a028152600401602060405180830381600087803b151561294457600080fd5b6102c65a03f1151561295557600080fd5b5050506040518051601154600160a060020a0390811691161490506129f757601054600160a060020a03166338cc48316000604051602001526040518163ffffffff1660e060020a028152600401602060405180830381600087803b15156129bc57600080fd5b6102c65a03f115156129cd57600080fd5b505050604051805160118054600160a060020a031916600160a060020a0392909216919091179055505b601154600160a060020a031663c281d19e6000604051602001526040518163ffffffff1660e060020a028152600401602060405180830381600087803b1515612a3f57600080fd5b6102c65a03f11515612a5057600080fd5b505050604051805191505090565b6000908152601660205260408120541190565b600090815260166020526040812055565b6000612a8c6146bb565b600060a060405190810160405280898152602001898152602001888152602001878152602001858152509150600160058054806001018281612ace919061476e565b6000928352602090922085916005020181518155602082015181600101556040820151816002015560608201518160030155608082015181600401908051612b1a92916020019061479a565b50505003905063ffffffff81168114612b3257600080fd5b7faf9d5de903d3c24be3b2973b79ee3eefd1b8aada3d46baf60ee9f0d086b75fb985828a8a8a896040518087600160a060020a0316600160a060020a0316815260200186815260200185815260200184815260200183815260200180602001828103825283818151815260200191508051906020019080838360005b83811015612bc6578082015183820152602001612bae565b50505050905090810190601f168015612bf35780820380516001836020036101000a031916815260200191505b5097505050505050505060405180910390a1612c11600086836127ab565b979650505050505050565b600080600a600143034084604051918252602082015260409081019051908190039020811515612c4857fe5b06905060008111612c57575060015b92915050565b6040517f6d61784865616c746800000000000000000000000000000000000000000000008152600901604051908190039020826040518082805190602001908083835b60208310612cbf5780518252601f199092019160209182019101612ca0565b6001836020036101000a03801982511681845116179092525050509190910192506040915050519081900390201415612d0257612cfd838233613915565b6113c3565b6040517f737472656e6774680000000000000000000000000000000000000000000000008152600801604051908190039020826040518082805190602001908083835b60208310612d645780518252601f199092019160209182019101612d45565b6001836020036101000a03801982511681845116179092525050509190910192506040915050519081900390201415612da257612cfd838233613acd565b6040517f73706565640000000000000000000000000000000000000000000000000000008152600501604051908190039020826040518082805190602001908083835b60208310612e045780518252601f199092019160209182019101612de5565b6001836020036101000a038019825116818451161790925250505091909101925060409150505190819003902014156113c3576113c3838233613c6b565b6000908152601560205260408120600101541190565b600090815260156020526040812081815560010155565b600081600143034084604051918252602082015260409081019051908190039020811515612e9957fe5b069392505050565b601054600160a060020a03161580612ecb5750601054612ec990600160a060020a0316613907565b155b15612edc57612eda600061390b565b505b601054600160a060020a03166338cc48316000604051602001526040518163ffffffff1660e060020a028152600401602060405180830381600087803b1515612f2457600080fd5b6102c65a03f11515612f3557600080fd5b5050506040518051601154600160a060020a039081169116149050612fd757601054600160a060020a03166338cc48316000604051602001526040518163ffffffff1660e060020a028152600401602060405180830381600087803b1515612f9c57600080fd5b6102c65a03f11515612fad57600080fd5b505050604051805160118054600160a060020a031916600160a060020a0392909216919091179055505b601154600160a060020a031663ca6ad1e48260405160e060020a63ffffffff84160281526004810191909152602401600060405180830381600087803b151561301f57600080fd5b6102c65a03f11515611f6957600080fd5b600a8054600181016130428382614808565b600092835260209092200183805161305e92916020019061479a565b505080600b836040518082805190602001908083835b602083106130935780518252601f199092019160209182019101613074565b6001836020036101000a03801982511681845116808217855250505050505090500191505090815260200160405180910390209080516113c392916020019061479a565b6130df614599565b6000806130ea614599565b600085151561312e5760408051908101604052600181527f3000000000000000000000000000000000000000000000000000000000000000602082015294506131c2565b8593505b831561314957600190920191600a84049350613132565b826040518059106131575750595b818152601f19601f8301168101602001604052905091505060001982015b85156131be5760001981019060f860020a6030600a890601029083908151811061319b57fe5b906020010190600160f860020a031916908160001a905350600a86049550613175565b8194505b50505050919050565b6131d3614599565b6131ee85858585602060405190810160405260008152613e09565b95945050505050565b6010546000908190600160a060020a03161580613226575060105461322490600160a060020a0316613907565b155b1561323757613235600061390b565b505b601054600160a060020a03166338cc48316000604051602001526040518163ffffffff1660e060020a028152600401602060405180830381600087803b151561327f57600080fd5b6102c65a03f1151561329057600080fd5b5050506040518051601154600160a060020a03908116911614905061333257601054600160a060020a03166338cc48316000604051602001526040518163ffffffff1660e060020a028152600401602060405180830381600087803b15156132f757600080fd5b6102c65a03f1151561330857600080fd5b505050604051805160118054600160a060020a031916600160a060020a0392909216919091179055505b601154600160a060020a0316632ef3accc86856000604051602001526040518363ffffffff1660e060020a0281526004018080602001838152602001828103825284818151815260200191508051906020019080838360005b838110156133a357808201518382015260200161338b565b50505050905090810190601f1680156133d05780820380516001836020036101000a031916815260200191505b509350505050602060405180830381600087803b15156133ef57600080fd5b6102c65a03f1151561340057600080fd5b5050506040518051915050670de0b6b3a76400003a8402018111156134285760009150613575565b601154600160a060020a031663c51be90f82600088888883604051602001526040518663ffffffff1660e060020a028152600401808581526020018060200180602001848152602001838103835286818151815260200191508051906020019080838360005b838110156134a657808201518382015260200161348e565b50505050905090810190601f1680156134d35780820380516001836020036101000a031916815260200191505b50838103825285818151815260200191508051906020019080838360005b838110156135095780820151838201526020016134f1565b50505050905090810190601f1680156135365780820380516001836020036101000a031916815260200191505b5096505050505050506020604051808303818588803b151561355757600080fd5b6125ee5a03f1151561356857600080fd5b5050505060405180519250505b509392505050565b600080600061358c3386612730565b1561359657600080fd5b61359f85612e42565b15156135aa57600080fd5b6000858152601560205260409020600101548410156135c857600080fd5b600085815260076020526040902054600160a060020a031692506135eb85612e58565b6135f484614079565b915050808303600160a060020a03831681156108fc0282604051600060405180830381858888f19350505050151561362b57600080fd5b7f4750c394c3222df02b322dd8f4ee23c0025975134406b18d35ab7c9c1bb41ac233858786604051600160a060020a03948516815260208101939093526040808401929092529092166060820152608001905180910390a15050505050565b6113558133614085565b6000806064600143034084604051918252602082015260409081019051908190039020811515612c4857fe5b60005b602082106136e657825184526020840193506020830192506020820391506136c3565b6001826020036101000a03905080198351168185511617909352505050565b600061370f614599565b5082600080805b8351811015613856577f300000000000000000000000000000000000000000000000000000000000000084828151811061374c57fe5b016020015160f860020a900460f860020a02600160f860020a031916101580156137bd57507f390000000000000000000000000000000000000000000000000000000000000084828151811061379e57fe5b016020015160f860020a900460f860020a02600160f860020a03191611155b156138135781156137dc578515156137d457613856565b600019909501945b600a8302925060308482815181106137f057fe5b016020015160f860020a900460f860020a0260f860020a9004038301925061384e565b83818151811061381f57fe5b016020015160f860020a900460f860020a02600160f860020a031916602e60f860020a02141561384e57600191505b600101613716565b60008611156138685785600a0a830292505b509095945050505050565b60005b600160a060020a0383166000908152600960205260409020548110156113c357600160a060020a03831660009081526009602052604090208054839190839081106138bd57fe5b90600052602060002090015414156138ff57600160a060020a03831660009081526009602052604090208054829081106138f357fe5b60009182526020822001555b600101613876565b3b90565b6000610e26614205565b61391d6146bb565b600580548590811061392b57fe5b906000526020600020906005020160a0604051908101604052908160008201548152602001600182015481526020016002820154815260200160038201548152602001600482018054600181600116156101000203166002900480601f016020809104026020016040519081016040528092919081815260200182805460018160011615610100020316600290048015613a065780601f106139db57610100808354040283529160200191613a06565b820191906000526020600020905b8154815290600101906020018083116139e957829003601f168201915b5050505050815250509050806000015181602001511415613a2e578281602001818151019052505b828181815101905250613a418185614529565b7fca04611e80f005feb5aafd7553030c696e4de100604c325926807c6cbda6a7c3828585604051600160a060020a03909316835260208301919091526060820152608060408083018290526009918301919091527f6d61784865616c7468000000000000000000000000000000000000000000000060a083015260c0909101905180910390a150505050565b613ad56146bb565b6005805485908110613ae357fe5b906000526020600020906005020160a0604051908101604052908160008201548152602001600182015481526020016002820154815260200160038201548152602001600482018054600181600116156101000203166002900480601f016020809104026020016040519081016040528092919081815260200182805460018160011615610100020316600290048015613bbe5780601f10613b9357610100808354040283529160200191613bbe565b820191906000526020600020905b815481529060010190602001808311613ba157829003601f168201915b5050505050815250509050828160600181815101905250613bdf8185614529565b7fca04611e80f005feb5aafd7553030c696e4de100604c325926807c6cbda6a7c3828585604051600160a060020a03909316835260208301919091526060820152608060408083018290526008918301919091527f737472656e67746800000000000000000000000000000000000000000000000060a083015260c0909101905180910390a150505050565b613c736146bb565b6005805485908110613c8157fe5b906000526020600020906005020160a0604051908101604052908160008201548152602001600182015481526020016002820154815260200160038201548152602001600482018054600181600116156101000203166002900480601f016020809104026020016040519081016040528092919081815260200182805460018160011615610100020316600290048015613d5c5780601f10613d3157610100808354040283529160200191613d5c565b820191906000526020600020905b815481529060010190602001808311613d3f57829003601f168201915b5050505050815250509050828160400181815101905250613d7d8185614529565b7fca04611e80f005feb5aafd7553030c696e4de100604c325926807c6cbda6a7c3828585604051600160a060020a03909316835260208301919091526060820152608060408083018290526005918301919091527f737065656400000000000000000000000000000000000000000000000000000060a083015260c0909101905180910390a150505050565b613e11614599565b613e19614599565b613e21614599565b613e29614599565b613e31614599565b613e39614599565b613e41614599565b613e49614599565b6000808e98508d97508c96508b95508a94508451865188518a518c5101010101604051805910613e765750595b818152601f19601f83011681016020016040529050935083925060009150600090505b8851811015613ef257888181518110613eae57fe5b016020015160f860020a900460f860020a02838380600101945081518110613ed257fe5b906020010190600160f860020a031916908160001a905350600101613e99565b5060005b8751811015613f4f57878181518110613f0b57fe5b016020015160f860020a900460f860020a02838380600101945081518110613f2f57fe5b906020010190600160f860020a031916908160001a905350600101613ef6565b5060005b8651811015613fac57868181518110613f6857fe5b016020015160f860020a900460f860020a02838380600101945081518110613f8c57fe5b906020010190600160f860020a031916908160001a905350600101613f53565b5060005b855181101561400957858181518110613fc557fe5b016020015160f860020a900460f860020a02838380600101945081518110613fe957fe5b906020010190600160f860020a031916908160001a905350600101613fb0565b5060005b84518110156140665784818151811061402257fe5b016020015160f860020a900460f860020a0283838060010194508151811061404657fe5b906020010190600160f860020a031916908160001a90535060010161400d565b50909d9c50505050505050505050505050565b600d5460649091040290565b61408d6146bb565b600580548490811061409b57fe5b906000526020600020906005020160a0604051908101604052908160008201548152602001600182015481526020016002820154815260200160038201548152602001600482018054600181600116156101000203166002900480601f0160208091040260200160405190810160405280929190818152602001828054600181600116156101000203166002900480156141765780601f1061414b57610100808354040283529160200191614176565b820191906000526020600020905b81548152906001019060200180831161415957829003601f168201915b5050505050815250509050806000015181602001511061419557600080fd5b805160208201526141a68184614529565b7f99ac7da70b5c6f1d34e05f1b47107fb3b9a1c1542028d0ad8e86c959568629ed828483516040518084600160a060020a0316600160a060020a03168152602001838152602001828152602001935050505060405180910390a1505050565b600080614225731d3b2638a7cc9f2cb3d298a3da7a90b67e5506ed613907565b11156142955760108054600160a060020a031916731d3b2638a7cc9f2cb3d298a3da7a90b67e5506ed17905561428d60408051908101604052600b81527f6574685f6d61696e6e65740000000000000000000000000000000000000000006020820152614586565b5060016112fa565b60006142b473c03a2615d5efaf5f49f60b7bb6583eaec212fdf1613907565b111561431c5760108054600160a060020a03191673c03a2615d5efaf5f49f60b7bb6583eaec212fdf117905561428d60408051908101604052600c81527f6574685f726f707374656e3300000000000000000000000000000000000000006020820152614586565b600061433b73b7a07bcf2ba2f2703b24c0691b5278999c59ac7e613907565b11156143a35760108054600160a060020a03191673b7a07bcf2ba2f2703b24c0691b5278999c59ac7e17905561428d60408051908101604052600981527f6574685f6b6f76616e00000000000000000000000000000000000000000000006020820152614586565b60006143c273146500cfd35b22e4a392fe0adc06de1a1368ed48613907565b111561442a5760108054600160a060020a03191673146500cfd35b22e4a392fe0adc06de1a1368ed4817905561428d60408051908101604052600b81527f6574685f72696e6b6562790000000000000000000000000000000000000000006020820152614586565b6000614449736f485c8bf6fc43ea212e93bbf8ce046c7f1cb475613907565b111561447d575060108054600160a060020a031916736f485c8bf6fc43ea212e93bbf8ce046c7f1cb47517905560016112fa565b600061449c7320e12a1f859b3feae5fb2a0a32c18f5a65555bbf613907565b11156144d0575060108054600160a060020a0319167320e12a1f859b3feae5fb2a0a32c18f5a65555bbf17905560016112fa565b60006144ef7351efaf4c8b3c9afbd5ab9f4bbc82784ab6ef8faa613907565b1115614523575060108054600160a060020a0319167351efaf4c8b3c9afbd5ab9f4bbc82784ab6ef8faa17905560016112fa565b50600090565b8160058281548110151561453957fe5b9060005260206000209060050201600082015181556020820151816001015560408201518160020155606082015181600301556080820151816004019080516123a292916020019061479a565b6012818051611eda92916020019061479a565b60206040519081016040526000815290565b60806040519081016040526004815b600081526000199190910190602001816145ba5790505090565b81546001816001161561010002031660029004825481601f1061462f5782601f10614614575b826008026101000360020a809104028280011783556113c3565b60ff19168360005260206000205581800160010183556113c3565b82601f1061465f575082600052602060002080549082601f0160209004810190614659919061482c565b506145fa565b508180016001018355818115116113c357601f016020900481601f016020900483600052602060002091820191016113c3919061482c565b8154818355818115116113c3576000838152602090206113c391810190830161482c565b60a060405190810160405280600081526020016000815260200160008152602001600081526020016146eb614599565b905290565b828054600181600116156101000203166002900490600052602060002090601f016020900481019282601f106147315782800160ff1982351617855561475e565b8280016001018555821561475e579182015b8281111561475e578235825591602001919060010190614743565b5061476a92915061482c565b5090565b8154818355818115116113c3576005028160050283600052602060002091820191016113c39190614846565b828054600181600116156101000203166002900490600052602060002090601f016020900481019282601f106147db57805160ff191683800117855561475e565b8280016001018555821561475e579182015b8281111561475e5782518255916020019190600101906147ed565b8154818355818115116113c3576000838152602090206113c3918101908301614884565b6112fa91905b8082111561476a5760008155600101614832565b6112fa91905b8082111561476a57600080825560018201819055600282018190556003820181905561487b60048301826148a7565b5060050161484c565b6112fa91905b8082111561476a57600061489e82826148a7565b5060010161488a565b50805460018160011615610100020316600290046000825580601f106148cd5750611355565b601f016020900490600052602060002090810190611355919061482c5600a165627a7a723058204262ea3e602f940b0ca85c91253d9e752f0f2ae0ba6ea40158ce010a850457a20029",
  "source": "pragma solidity ^0.4.18;\n\nimport \"./marketplace/Marketplace.sol\";\n\ncontract CryptoBrawlers is Marketplace {\n  uint public startingFighterPrice = 5000000000000000;\n\n  function CryptoBrawlers() {\n    _addFighterType('Mob Boss', 'Mob Boss');\n    _addFighterType('Local MMA Star', 'Henchman');\n    _addFighterType('Roadman', 'Local MMA Star');\n    _addFighterType('Henchman', 'Roadman');\n\n    oraclize_setCustomGasPrice(5000000000 wei);\n  }\n\n  function addNewFighterType(string newType, string weakness) external onlyOwner {\n    _addFighterType(newType, weakness);\n  }\n\n  function setupStartingFighters(uint startingFighters) external onlyOwner {\n    uint count;\n    for(count = 1; count <= startingFighters; count++) {\n      uint _typeId = RandomNumber.randomNumberToMax(count, fighterTypes.length);\n      uint createdFighterId = _createFighter(10, 5, 5, msg.sender, fighterTypes[_typeId]);\n\n      // fighter 0 must always be owned by the creator as it causes problems when trying to be purchased\n      // and transferred etc\n      /* if (createdFighterId > 0) {\n        fighterIdToSale[createdFighterId] = Sale({\n          fighterId: createdFighterId,\n          price: startingFighterPrice\n        });\n      } */\n    }\n  }\n\n  function getInfoForFighter(uint _fighterId)\n    external returns (uint maxHealth, uint health, uint speed, uint strength, bool isForSale, bool isInArena, string fighterType)\n  {\n    Fighter memory _fighter = fighters[_fighterId];\n    return (\n      _fighter.maxHealth,\n      _fighter.health,\n      _fighter.speed,\n      _fighter.strength,\n      _fighterIsForSale(_fighterId),\n      _fighterIsForBrawl(_fighterId),\n      _fighter.fighterType\n    );\n  }\n\n  function setNewOraclizeGasPrice(uint newGasPrice) external onlyOwner {\n    oraclize_setCustomGasPrice(newGasPrice * 1 wei);\n  }\n}\n",
  "sourcePath": "/Users/kendalla/projects/cryptoclash/contracts/CryptoBrawlers.sol",
  "compiler": {
    "name": "solc",
    "version": "0.4.19+commit.c4cbbb05.Emscripten.clang"
  },
  "schemaVersion": "1.0.1",
  "updatedAt": "2018-04-13T13:34:19.931Z"
}