{
  "contractName": "CryptoBrawlers",
  "abi": [
    {
      "constant": true,
      "inputs": [
        {
          "name": "_interfaceID",
          "type": "bytes4"
        }
      ],
      "name": "supportsInterface",
      "outputs": [
        {
          "name": "",
          "type": "bool"
        }
      ],
      "payable": false,
      "stateMutability": "view",
      "type": "function"
    },
    {
      "constant": true,
      "inputs": [
        {
          "name": "",
          "type": "address"
        }
      ],
      "name": "fighterCountForOwner",
      "outputs": [
        {
          "name": "",
          "type": "uint256"
        }
      ],
      "payable": false,
      "stateMutability": "view",
      "type": "function"
    },
    {
      "constant": true,
      "inputs": [
        {
          "name": "_tokenId",
          "type": "uint256"
        },
        {
          "name": "_preferredTransport",
          "type": "string"
        }
      ],
      "name": "tokenMetadata",
      "outputs": [
        {
          "name": "infoUrl",
          "type": "string"
        }
      ],
      "payable": false,
      "stateMutability": "view",
      "type": "function"
    },
    {
      "constant": true,
      "inputs": [],
      "name": "name",
      "outputs": [
        {
          "name": "",
          "type": "string"
        }
      ],
      "payable": false,
      "stateMutability": "view",
      "type": "function"
    },
    {
      "constant": false,
      "inputs": [
        {
          "name": "_to",
          "type": "address"
        },
        {
          "name": "_tokenId",
          "type": "uint256"
        }
      ],
      "name": "approve",
      "outputs": [],
      "payable": false,
      "stateMutability": "nonpayable",
      "type": "function"
    },
    {
      "constant": true,
      "inputs": [],
      "name": "totalSupply",
      "outputs": [
        {
          "name": "",
          "type": "uint256"
        }
      ],
      "payable": false,
      "stateMutability": "view",
      "type": "function"
    },
    {
      "constant": false,
      "inputs": [
        {
          "name": "_recipient",
          "type": "address"
        }
      ],
      "name": "withdrawBalanceToAddress",
      "outputs": [],
      "payable": false,
      "stateMutability": "nonpayable",
      "type": "function"
    },
    {
      "constant": false,
      "inputs": [
        {
          "name": "_from",
          "type": "address"
        },
        {
          "name": "_to",
          "type": "address"
        },
        {
          "name": "_tokenId",
          "type": "uint256"
        }
      ],
      "name": "transferFrom",
      "outputs": [],
      "payable": false,
      "stateMutability": "nonpayable",
      "type": "function"
    },
    {
      "constant": true,
      "inputs": [
        {
          "name": "_fighterId",
          "type": "uint256"
        }
      ],
      "name": "getPriceForFighter",
      "outputs": [
        {
          "name": "",
          "type": "uint256"
        }
      ],
      "payable": false,
      "stateMutability": "view",
      "type": "function"
    },
    {
      "constant": false,
      "inputs": [
        {
          "name": "queryId",
          "type": "bytes32"
        },
        {
          "name": "result",
          "type": "string"
        }
      ],
      "name": "__callback",
      "outputs": [],
      "payable": false,
      "stateMutability": "nonpayable",
      "type": "function"
    },
    {
      "constant": false,
      "inputs": [
        {
          "name": "_recipient",
          "type": "address"
        },
        {
          "name": "_maxHealth",
          "type": "uint256"
        },
        {
          "name": "_speed",
          "type": "uint256"
        },
        {
          "name": "_strength",
          "type": "uint256"
        },
        {
          "name": "_typeId",
          "type": "uint256"
        }
      ],
      "name": "customOwnerCreation",
      "outputs": [],
      "payable": false,
      "stateMutability": "nonpayable",
      "type": "function"
    },
    {
      "constant": false,
      "inputs": [
        {
          "name": "myid",
          "type": "bytes32"
        },
        {
          "name": "result",
          "type": "string"
        },
        {
          "name": "proof",
          "type": "bytes"
        }
      ],
      "name": "__callback",
      "outputs": [],
      "payable": false,
      "stateMutability": "nonpayable",
      "type": "function"
    },
    {
      "constant": false,
      "inputs": [
        {
          "name": "_fighterId",
          "type": "uint256"
        },
        {
          "name": "_attribute",
          "type": "string"
        },
        {
          "name": "_seed",
          "type": "uint256"
        }
      ],
      "name": "trainFighter",
      "outputs": [
        {
          "name": "",
          "type": "uint256"
        }
      ],
      "payable": true,
      "stateMutability": "payable",
      "type": "function"
    },
    {
      "constant": false,
      "inputs": [
        {
          "name": "newProbability",
          "type": "uint256"
        }
      ],
      "name": "setFighterCreationChance",
      "outputs": [],
      "payable": false,
      "stateMutability": "nonpayable",
      "type": "function"
    },
    {
      "constant": true,
      "inputs": [
        {
          "name": "",
          "type": "uint256"
        }
      ],
      "name": "fighterIdToApproved",
      "outputs": [
        {
          "name": "",
          "type": "address"
        }
      ],
      "payable": false,
      "stateMutability": "view",
      "type": "function"
    },
    {
      "constant": false,
      "inputs": [
        {
          "name": "newFactor",
          "type": "uint256"
        }
      ],
      "name": "setTrainingFactor",
      "outputs": [],
      "payable": false,
      "stateMutability": "nonpayable",
      "type": "function"
    },
    {
      "constant": true,
      "inputs": [
        {
          "name": "",
          "type": "uint256"
        }
      ],
      "name": "fighterIdToOwner",
      "outputs": [
        {
          "name": "",
          "type": "address"
        }
      ],
      "payable": false,
      "stateMutability": "view",
      "type": "function"
    },
    {
      "constant": true,
      "inputs": [],
      "name": "oraclizeGasLimit",
      "outputs": [
        {
          "name": "",
          "type": "uint256"
        }
      ],
      "payable": false,
      "stateMutability": "view",
      "type": "function"
    },
    {
      "constant": false,
      "inputs": [
        {
          "name": "_fighterId",
          "type": "uint256"
        }
      ],
      "name": "removeFighterFromSale",
      "outputs": [],
      "payable": false,
      "stateMutability": "nonpayable",
      "type": "function"
    },
    {
      "constant": false,
      "inputs": [],
      "name": "withdrawBalance",
      "outputs": [],
      "payable": false,
      "stateMutability": "nonpayable",
      "type": "function"
    },
    {
      "constant": true,
      "inputs": [
        {
          "name": "_tokenId",
          "type": "uint256"
        }
      ],
      "name": "ownerOf",
      "outputs": [
        {
          "name": "owner",
          "type": "address"
        }
      ],
      "payable": false,
      "stateMutability": "view",
      "type": "function"
    },
    {
      "constant": false,
      "inputs": [
        {
          "name": "_fighterId",
          "type": "uint256"
        }
      ],
      "name": "removeFighterFromArena",
      "outputs": [],
      "payable": false,
      "stateMutability": "nonpayable",
      "type": "function"
    },
    {
      "constant": false,
      "inputs": [
        {
          "name": "newEndpoint",
          "type": "string"
        }
      ],
      "name": "setNewCombatEndpoint",
      "outputs": [],
      "payable": false,
      "stateMutability": "nonpayable",
      "type": "function"
    },
    {
      "constant": true,
      "inputs": [],
      "name": "combatEndpoint",
      "outputs": [
        {
          "name": "",
          "type": "string"
        }
      ],
      "payable": false,
      "stateMutability": "view",
      "type": "function"
    },
    {
      "constant": true,
      "inputs": [],
      "name": "startingFighterPrice",
      "outputs": [
        {
          "name": "",
          "type": "uint256"
        }
      ],
      "payable": false,
      "stateMutability": "view",
      "type": "function"
    },
    {
      "constant": true,
      "inputs": [],
      "name": "trainingCost",
      "outputs": [
        {
          "name": "",
          "type": "uint256"
        }
      ],
      "payable": false,
      "stateMutability": "view",
      "type": "function"
    },
    {
      "constant": true,
      "inputs": [
        {
          "name": "_owner",
          "type": "address"
        }
      ],
      "name": "balanceOf",
      "outputs": [
        {
          "name": "count",
          "type": "uint256"
        }
      ],
      "payable": false,
      "stateMutability": "view",
      "type": "function"
    },
    {
      "constant": false,
      "inputs": [
        {
          "name": "_recipient",
          "type": "address"
        },
        {
          "name": "_seed",
          "type": "uint256"
        }
      ],
      "name": "ownerCreation",
      "outputs": [],
      "payable": false,
      "stateMutability": "nonpayable",
      "type": "function"
    },
    {
      "constant": true,
      "inputs": [
        {
          "name": "",
          "type": "address"
        },
        {
          "name": "",
          "type": "uint256"
        }
      ],
      "name": "ownedFighters",
      "outputs": [
        {
          "name": "",
          "type": "uint256"
        }
      ],
      "payable": false,
      "stateMutability": "view",
      "type": "function"
    },
    {
      "constant": true,
      "inputs": [
        {
          "name": "_owner",
          "type": "address"
        }
      ],
      "name": "tokensOfOwner",
      "outputs": [
        {
          "name": "ownerTokens",
          "type": "uint256[]"
        }
      ],
      "payable": false,
      "stateMutability": "view",
      "type": "function"
    },
    {
      "constant": true,
      "inputs": [],
      "name": "owner",
      "outputs": [
        {
          "name": "",
          "type": "address"
        }
      ],
      "payable": false,
      "stateMutability": "view",
      "type": "function"
    },
    {
      "constant": false,
      "inputs": [
        {
          "name": "_newCut",
          "type": "uint256"
        }
      ],
      "name": "setNewMarketplaceCut",
      "outputs": [],
      "payable": false,
      "stateMutability": "nonpayable",
      "type": "function"
    },
    {
      "constant": true,
      "inputs": [],
      "name": "symbol",
      "outputs": [
        {
          "name": "",
          "type": "string"
        }
      ],
      "payable": false,
      "stateMutability": "view",
      "type": "function"
    },
    {
      "constant": true,
      "inputs": [
        {
          "name": "",
          "type": "uint256"
        }
      ],
      "name": "fighterIdToBrawl",
      "outputs": [
        {
          "name": "",
          "type": "uint256"
        }
      ],
      "payable": false,
      "stateMutability": "view",
      "type": "function"
    },
    {
      "constant": false,
      "inputs": [
        {
          "name": "newCost",
          "type": "uint256"
        }
      ],
      "name": "setNewTrainingCost",
      "outputs": [],
      "payable": false,
      "stateMutability": "nonpayable",
      "type": "function"
    },
    {
      "constant": true,
      "inputs": [
        {
          "name": "",
          "type": "uint256"
        }
      ],
      "name": "fighterIdToSale",
      "outputs": [
        {
          "name": "fighterId",
          "type": "uint256"
        },
        {
          "name": "price",
          "type": "uint256"
        }
      ],
      "payable": false,
      "stateMutability": "view",
      "type": "function"
    },
    {
      "constant": false,
      "inputs": [
        {
          "name": "_to",
          "type": "address"
        },
        {
          "name": "_tokenId",
          "type": "uint256"
        }
      ],
      "name": "transfer",
      "outputs": [],
      "payable": false,
      "stateMutability": "nonpayable",
      "type": "function"
    },
    {
      "constant": true,
      "inputs": [],
      "name": "marketplaceCut",
      "outputs": [
        {
          "name": "",
          "type": "uint256"
        }
      ],
      "payable": false,
      "stateMutability": "view",
      "type": "function"
    },
    {
      "constant": true,
      "inputs": [],
      "name": "trainingFactor",
      "outputs": [
        {
          "name": "",
          "type": "uint256"
        }
      ],
      "payable": false,
      "stateMutability": "view",
      "type": "function"
    },
    {
      "constant": false,
      "inputs": [
        {
          "name": "_fighterId",
          "type": "uint256"
        },
        {
          "name": "_price",
          "type": "uint256"
        }
      ],
      "name": "makeFighterAvailableForSale",
      "outputs": [],
      "payable": false,
      "stateMutability": "nonpayable",
      "type": "function"
    },
    {
      "constant": true,
      "inputs": [],
      "name": "erc721Metadata",
      "outputs": [
        {
          "name": "",
          "type": "address"
        }
      ],
      "payable": false,
      "stateMutability": "view",
      "type": "function"
    },
    {
      "constant": false,
      "inputs": [
        {
          "name": "_owner",
          "type": "address"
        }
      ],
      "name": "getFightersForAddress",
      "outputs": [
        {
          "name": "",
          "type": "uint256[]"
        }
      ],
      "payable": false,
      "stateMutability": "nonpayable",
      "type": "function"
    },
    {
      "constant": false,
      "inputs": [],
      "name": "killConract",
      "outputs": [],
      "payable": false,
      "stateMutability": "nonpayable",
      "type": "function"
    },
    {
      "constant": false,
      "inputs": [
        {
          "name": "newGas",
          "type": "uint256"
        }
      ],
      "name": "setNewOraclizeGasLimit",
      "outputs": [],
      "payable": false,
      "stateMutability": "nonpayable",
      "type": "function"
    },
    {
      "constant": false,
      "inputs": [
        {
          "name": "_attackerId",
          "type": "uint256"
        },
        {
          "name": "_defenderId",
          "type": "uint256"
        }
      ],
      "name": "fight",
      "outputs": [],
      "payable": true,
      "stateMutability": "payable",
      "type": "function"
    },
    {
      "constant": false,
      "inputs": [
        {
          "name": "_fighterId",
          "type": "uint256"
        }
      ],
      "name": "buyFighter",
      "outputs": [],
      "payable": true,
      "stateMutability": "payable",
      "type": "function"
    },
    {
      "constant": false,
      "inputs": [
        {
          "name": "newCost",
          "type": "uint256"
        }
      ],
      "name": "setNewArenaCost",
      "outputs": [],
      "payable": false,
      "stateMutability": "nonpayable",
      "type": "function"
    },
    {
      "constant": true,
      "inputs": [
        {
          "name": "",
          "type": "uint256"
        }
      ],
      "name": "fighterTypes",
      "outputs": [
        {
          "name": "",
          "type": "string"
        }
      ],
      "payable": false,
      "stateMutability": "view",
      "type": "function"
    },
    {
      "constant": false,
      "inputs": [
        {
          "name": "_contractAddress",
          "type": "address"
        }
      ],
      "name": "setMetadataAddress",
      "outputs": [],
      "payable": false,
      "stateMutability": "nonpayable",
      "type": "function"
    },
    {
      "constant": false,
      "inputs": [
        {
          "name": "_fighterId",
          "type": "uint256"
        }
      ],
      "name": "makeFighterAvailableForBrawl",
      "outputs": [],
      "payable": false,
      "stateMutability": "nonpayable",
      "type": "function"
    },
    {
      "constant": true,
      "inputs": [],
      "name": "arenaCost",
      "outputs": [
        {
          "name": "",
          "type": "uint256"
        }
      ],
      "payable": false,
      "stateMutability": "view",
      "type": "function"
    },
    {
      "constant": false,
      "inputs": [
        {
          "name": "_fighterId",
          "type": "uint256"
        }
      ],
      "name": "healFighter",
      "outputs": [],
      "payable": true,
      "stateMutability": "payable",
      "type": "function"
    },
    {
      "constant": false,
      "inputs": [
        {
          "name": "newOwner",
          "type": "address"
        }
      ],
      "name": "transferOwnership",
      "outputs": [],
      "payable": false,
      "stateMutability": "nonpayable",
      "type": "function"
    },
    {
      "constant": true,
      "inputs": [],
      "name": "chanceOfFighterCreation",
      "outputs": [
        {
          "name": "",
          "type": "uint256"
        }
      ],
      "payable": false,
      "stateMutability": "view",
      "type": "function"
    },
    {
      "constant": false,
      "inputs": [
        {
          "name": "_seed",
          "type": "uint256"
        }
      ],
      "name": "searchForFighter",
      "outputs": [
        {
          "name": "fighterFound",
          "type": "bool"
        }
      ],
      "payable": false,
      "stateMutability": "nonpayable",
      "type": "function"
    },
    {
      "inputs": [],
      "payable": false,
      "stateMutability": "nonpayable",
      "type": "constructor"
    },
    {
      "anonymous": false,
      "inputs": [
        {
          "indexed": false,
          "name": "buyer",
          "type": "address"
        },
        {
          "indexed": false,
          "name": "price",
          "type": "uint256"
        },
        {
          "indexed": false,
          "name": "fighterId",
          "type": "uint256"
        },
        {
          "indexed": false,
          "name": "seller",
          "type": "address"
        }
      ],
      "name": "PurchaseSuccess",
      "type": "event"
    },
    {
      "anonymous": false,
      "inputs": [
        {
          "indexed": false,
          "name": "winner",
          "type": "address"
        },
        {
          "indexed": false,
          "name": "winnerId",
          "type": "uint256"
        },
        {
          "indexed": false,
          "name": "loser",
          "type": "address"
        },
        {
          "indexed": false,
          "name": "loserId",
          "type": "uint256"
        },
        {
          "indexed": false,
          "name": "fighterInArena",
          "type": "uint256"
        }
      ],
      "name": "FightComplete",
      "type": "event"
    },
    {
      "anonymous": false,
      "inputs": [
        {
          "indexed": false,
          "name": "owner",
          "type": "address"
        },
        {
          "indexed": false,
          "name": "fighterId",
          "type": "uint256"
        }
      ],
      "name": "MarketplaceRemoval",
      "type": "event"
    },
    {
      "anonymous": false,
      "inputs": [
        {
          "indexed": false,
          "name": "owner",
          "type": "address"
        },
        {
          "indexed": false,
          "name": "fighterId",
          "type": "uint256"
        }
      ],
      "name": "ArenaRemoval",
      "type": "event"
    },
    {
      "anonymous": false,
      "inputs": [
        {
          "indexed": false,
          "name": "owner",
          "type": "address"
        },
        {
          "indexed": false,
          "name": "fighterId",
          "type": "uint256"
        },
        {
          "indexed": false,
          "name": "price",
          "type": "uint256"
        }
      ],
      "name": "MarketplaceAdd",
      "type": "event"
    },
    {
      "anonymous": false,
      "inputs": [
        {
          "indexed": false,
          "name": "owner",
          "type": "address"
        },
        {
          "indexed": false,
          "name": "fighterId",
          "type": "uint256"
        }
      ],
      "name": "ArenaAdd",
      "type": "event"
    },
    {
      "anonymous": false,
      "inputs": [
        {
          "indexed": false,
          "name": "_string",
          "type": "string"
        }
      ],
      "name": "Test",
      "type": "event"
    },
    {
      "anonymous": false,
      "inputs": [
        {
          "indexed": false,
          "name": "from",
          "type": "address"
        },
        {
          "indexed": false,
          "name": "to",
          "type": "address"
        },
        {
          "indexed": false,
          "name": "tokenId",
          "type": "uint256"
        }
      ],
      "name": "Transfer",
      "type": "event"
    },
    {
      "anonymous": false,
      "inputs": [
        {
          "indexed": false,
          "name": "owner",
          "type": "address"
        },
        {
          "indexed": false,
          "name": "approved",
          "type": "address"
        },
        {
          "indexed": false,
          "name": "tokenId",
          "type": "uint256"
        }
      ],
      "name": "Approval",
      "type": "event"
    },
    {
      "anonymous": false,
      "inputs": [
        {
          "indexed": false,
          "name": "_keccak1",
          "type": "bytes32"
        },
        {
          "indexed": false,
          "name": "_keccak2",
          "type": "bytes32"
        }
      ],
      "name": "Test",
      "type": "event"
    },
    {
      "anonymous": false,
      "inputs": [
        {
          "indexed": false,
          "name": "owner",
          "type": "address"
        },
        {
          "indexed": false,
          "name": "fighterId",
          "type": "uint256"
        },
        {
          "indexed": false,
          "name": "maxHealth",
          "type": "uint256"
        },
        {
          "indexed": false,
          "name": "speed",
          "type": "uint256"
        },
        {
          "indexed": false,
          "name": "strength",
          "type": "uint256"
        },
        {
          "indexed": false,
          "name": "fighterType",
          "type": "string"
        }
      ],
      "name": "Creation",
      "type": "event"
    },
    {
      "anonymous": false,
      "inputs": [
        {
          "indexed": false,
          "name": "owner",
          "type": "address"
        },
        {
          "indexed": false,
          "name": "fighterId",
          "type": "uint256"
        },
        {
          "indexed": false,
          "name": "attribute",
          "type": "string"
        },
        {
          "indexed": false,
          "name": "increaseValue",
          "type": "uint256"
        }
      ],
      "name": "AttributeIncrease",
      "type": "event"
    },
    {
      "anonymous": false,
      "inputs": [
        {
          "indexed": false,
          "name": "owner",
          "type": "address"
        },
        {
          "indexed": false,
          "name": "fighterId",
          "type": "uint256"
        },
        {
          "indexed": false,
          "name": "maxHealth",
          "type": "uint256"
        }
      ],
      "name": "Healed",
      "type": "event"
    },
    {
      "anonymous": false,
      "inputs": [
        {
          "indexed": false,
          "name": "fighterWasFound",
          "type": "bool"
        },
        {
          "indexed": false,
          "name": "owner",
          "type": "address"
        },
        {
          "indexed": false,
          "name": "fighterId",
          "type": "uint256"
        }
      ],
      "name": "FighterFound",
      "type": "event"
    },
    {
      "constant": false,
      "inputs": [
        {
          "name": "newType",
          "type": "string"
        },
        {
          "name": "weakness",
          "type": "string"
        }
      ],
      "name": "addNewFighterType",
      "outputs": [],
      "payable": false,
      "stateMutability": "nonpayable",
      "type": "function"
    },
    {
      "constant": false,
      "inputs": [
        {
          "name": "startingFighters",
          "type": "uint256"
        }
      ],
      "name": "setupStartingFighters",
      "outputs": [],
      "payable": false,
      "stateMutability": "nonpayable",
      "type": "function"
    },
    {
      "constant": false,
      "inputs": [
        {
          "name": "_fighterId",
          "type": "uint256"
        }
      ],
      "name": "getInfoForFighter",
      "outputs": [
        {
          "name": "maxHealth",
          "type": "uint256"
        },
        {
          "name": "health",
          "type": "uint256"
        },
        {
          "name": "speed",
          "type": "uint256"
        },
        {
          "name": "strength",
          "type": "uint256"
        },
        {
          "name": "isForSale",
          "type": "bool"
        },
        {
          "name": "isInArena",
          "type": "bool"
        },
        {
          "name": "fighterType",
          "type": "string"
        }
      ],
      "payable": false,
      "stateMutability": "nonpayable",
      "type": "function"
    },
    {
      "constant": false,
      "inputs": [
        {
          "name": "newGasPrice",
          "type": "uint256"
        }
      ],
      "name": "setNewOraclizeGasPrice",
      "outputs": [],
      "payable": false,
      "stateMutability": "nonpayable",
      "type": "function"
    }
  ],
  "bytecode": "0x6060604052600360015560036002556611c37937e08000600355662386f26fc100006004556005600d55608060405190810160405280604381526020017f68747470733a2f2f72696e6b656279627261776c6261636b656e642e6865726f81526020017f6b756170702e636f6d2f6170692f6172656e612f63616c63756c61746557696e81526020017f6e65720000000000000000000000000000000000000000000000000000000000815250600e908051620000c1929160200190620009fa565b50620b71b0600f556611c37937e080006017553415620000e057600080fd5b60008054600160a060020a03191633600160a060020a03161790556200017b604080519081016040908152600882527f4d6f6220426f737300000000000000000000000000000000000000000000000060208301528051908101604052600881527f4d6f6220426f7373000000000000000000000000000000000000000000000000602082015264010000000062002cbf6200031f82021704565b620001fb604080519081016040908152600e82527f4c6f63616c204d4d41205374617200000000000000000000000000000000000060208301528051908101604052600881527f48656e63686d616e000000000000000000000000000000000000000000000000602082015264010000000062002cbf6200031f82021704565b6200027b604080519081016040908152600782527f526f61646d616e0000000000000000000000000000000000000000000000000060208301528051908101604052600e81527f4c6f63616c204d4d412053746172000000000000000000000000000000000000602082015264010000000062002cbf6200031f82021704565b620002fb604080519081016040908152600882527f48656e63686d616e00000000000000000000000000000000000000000000000060208301528051908101604052600781527f526f61646d616e00000000000000000000000000000000000000000000000000602082015264010000000062002cbf6200031f82021704565b6200031964012a05f20064010000000062002b30620003d382021704565b62000b33565b600a80546001810162000333838262000a7f565b600092835260209092200183805162000351929160200190620009fa565b505080600b836040518082805190602001908083835b60208310620003885780518252601f19909201916020918201910162000367565b6001836020036101000a0380198251168184511680821785525050505050509050019150509081526020016040518091039020908051620003ce929160200190620009fa565b505050565b601054600160a060020a031615806200040e57506010546200040c90600160a060020a031664010000000062003428620005dd82021704565b155b1562000430576200042e60006401000000006200342c620005e182021704565b505b601054600160a060020a03166338cc48316000604051602001526040518163ffffffff167c0100000000000000000000000000000000000000000000000000000000028152600401602060405180830381600087803b15156200049257600080fd5b6102c65a03f11515620004a457600080fd5b5050506040518051601154600160a060020a0390811691161490506200056257601054600160a060020a03166338cc48316000604051602001526040518163ffffffff167c0100000000000000000000000000000000000000000000000000000000028152600401602060405180830381600087803b15156200052657600080fd5b6102c65a03f115156200053857600080fd5b505050604051805160118054600160a060020a031916600160a060020a0392909216919091179055505b601154600160a060020a031663ca6ad1e4826040517c010000000000000000000000000000000000000000000000000000000063ffffffff84160281526004810191909152602401600060405180830381600087803b1515620005c457600080fd5b6102c65a03f11515620005d657600080fd5b5050505b50565b3b90565b6000620005fb64010000000062003f3b6200060182021704565b92915050565b60008062000631731d3b2638a7cc9f2cb3d298a3da7a90b67e5506ed64010000000062003428620005dd82021704565b1115620006b35760108054600160a060020a031916731d3b2638a7cc9f2cb3d298a3da7a90b67e5506ed179055620006aa60408051908101604052600b81527f6574685f6d61696e6e65740000000000000000000000000000000000000000006020820152640100000000620042bc620009e182021704565b506001620009de565b6000620006e273c03a2615d5efaf5f49f60b7bb6583eaec212fdf164010000000062003428620005dd82021704565b11156200075b5760108054600160a060020a03191673c03a2615d5efaf5f49f60b7bb6583eaec212fdf1179055620006aa60408051908101604052600c81527f6574685f726f707374656e3300000000000000000000000000000000000000006020820152640100000000620042bc620009e182021704565b60006200078a73b7a07bcf2ba2f2703b24c0691b5278999c59ac7e64010000000062003428620005dd82021704565b1115620008035760108054600160a060020a03191673b7a07bcf2ba2f2703b24c0691b5278999c59ac7e179055620006aa60408051908101604052600981527f6574685f6b6f76616e00000000000000000000000000000000000000000000006020820152640100000000620042bc620009e182021704565b60006200083273146500cfd35b22e4a392fe0adc06de1a1368ed4864010000000062003428620005dd82021704565b1115620008ab5760108054600160a060020a03191673146500cfd35b22e4a392fe0adc06de1a1368ed48179055620006aa60408051908101604052600b81527f6574685f72696e6b6562790000000000000000000000000000000000000000006020820152640100000000620042bc620009e182021704565b6000620008da736f485c8bf6fc43ea212e93bbf8ce046c7f1cb47564010000000062003428620005dd82021704565b111562000910575060108054600160a060020a031916736f485c8bf6fc43ea212e93bbf8ce046c7f1cb4751790556001620009de565b60006200093f7320e12a1f859b3feae5fb2a0a32c18f5a65555bbf64010000000062003428620005dd82021704565b111562000975575060108054600160a060020a0319167320e12a1f859b3feae5fb2a0a32c18f5a65555bbf1790556001620009de565b6000620009a47351efaf4c8b3c9afbd5ab9f4bbc82784ab6ef8faa64010000000062003428620005dd82021704565b1115620009da575060108054600160a060020a0319167351efaf4c8b3c9afbd5ab9f4bbc82784ab6ef8faa1790556001620009de565b5060005b90565b6012818051620009f6929160200190620009fa565b5050565b828054600181600116156101000203166002900490600052602060002090601f016020900481019282601f1062000a3d57805160ff191683800117855562000a6d565b8280016001018555821562000a6d579182015b8281111562000a6d57825182559160200191906001019062000a50565b5062000a7b92915062000aa6565b5090565b815481835581811511620003ce57600083815260209020620003ce91810190830162000ac3565b620009de91905b8082111562000a7b576000815560010162000aad565b620009de91905b8082111562000a7b57600062000ae1828262000aeb565b5060010162000aca565b50805460018160011615610100020316600290046000825580601f1062000b135750620005da565b601f016020900490600052602060002090810190620005da919062000aa6565b61458a8062000b436000396000f3006060604052600436106102a55763ffffffff60e060020a60003504166301ffc9a781146102aa578063027f48f7146102f65780630560ff441461032757806306fdde03146103c0578063095ea7b3146103d357806318160ddd146103f75780631ba210111461040a57806323b872dd14610429578063241860aa1461045157806327dc297e146104675780632b1a8d46146104bd57806338bbfa50146104e85780633f40d2881461058057806340e4e0481461059a57806344e59ee9146105b0578063495ac3a8146105e25780634b193933146105f85780634c67899b1461060e57806350b9c428146106cc57806354c3bfa1146106df5780635fd8c710146106f55780636352211e14610708578063641e3aae1461071e578063656aa88a146107345780636bbd3c97146107525780636f4eb7e814610765578063701a19fd1461077857806370a082311461078b5780638053e5d8146107aa5780638357b8dd146107cc5780638462151c146107ee5780638d4c4b69146108605780638da5cb5b14610876578063920b4a2d1461088957806395d89b411461089f578063a2df64df146108b2578063a5557ce0146108c8578063a707c73c146108de578063a9059cbb1461090c578063ad2dccfe1461092e578063b2912d6214610941578063b64ce34a1461096b578063b6e570641461097e578063bc4006f514610997578063c20548ac146109aa578063c48f66f2146109c9578063c7cffa0f146109dc578063c977cf66146109f2578063ca39e5ef14610a08578063cbb5bbbf14610a16578063d004cad414610a21578063d9861dab14610a37578063e17b25af14610a4d578063e88f4f1f14610a6c578063ea9b50c514610a82578063efbeef8014610a95578063f2fde38b14610aa0578063f36014d214610abf578063f6a6771614610ad2575b600080fd5b34156102b557600080fd5b6102e27fffffffff0000000000000000000000000000000000000000000000000000000060043516610ae8565b604051901515815260200160405180910390f35b341561030157600080fd5b610315600160a060020a0360043516610d6f565b60405190815260200160405180910390f35b341561033257600080fd5b610349600480359060248035908101910135610d81565b60405160208082528190810183818151815260200191508051906020019080838360005b8381101561038557808201518382015260200161036d565b50505050905090810190601f1680156103b25780820380516001836020036101000a031916815260200191505b509250505060405180910390f35b34156103cb57600080fd5b610349610e5e565b34156103de57600080fd5b6103f5600160a060020a0360043516602435610e95565b005b341561040257600080fd5b610315610f08565b341561041557600080fd5b6103f5600160a060020a0360043516610f0f565b341561043457600080fd5b6103f5600160a060020a0360043581169060243516604435610f6a565b341561045c57600080fd5b610315600435610fda565b341561047257600080fd5b6103f5600480359060446024803590810190830135806020601f82018190048102016040519081016040528181529291906020840183838082843750949650610fef95505050505050565b34156104c857600080fd5b6103f5600160a060020a0360043516602435604435606435608435611214565b34156104f357600080fd5b6103f5600480359060446024803590810190830135806020601f8201819004810201604051908101604052818152929190602084018383808284378201915050505050509190803590602001908201803590602001908080601f016020809104026020016040519081016040528181529291906020840183838082843750949650610fd595505050505050565b6103156004803590602480359081019101356044356112f6565b34156105a557600080fd5b6103f5600435611387565b34156105bb57600080fd5b6105c66004356113a7565b604051600160a060020a03909116815260200160405180910390f35b34156105ed57600080fd5b6103f56004356113c2565b341561060357600080fd5b6105c66004356113e2565b341561061957600080fd5b6106246004356113fd565b604051878152602081018790526040810186905260608101859052831515608082015282151560a082015260e060c0820181815290820183818151815260200191508051906020019080838360005b8381101561068b578082015183820152602001610673565b50505050905090810190601f1680156106b85780820380516001836020036101000a031916815260200191505b509850505050505050505060405180910390f35b34156106d757600080fd5b61031561154d565b34156106ea57600080fd5b6103f5600435611553565b341561070057600080fd5b6103f56115cc565b341561071357600080fd5b6105c6600435611622565b341561072957600080fd5b6103f5600435611646565b341561073f57600080fd5b6103f560048035602481019101356116bf565b341561075d57600080fd5b6103496116e6565b341561077057600080fd5b610315611784565b341561078357600080fd5b61031561178a565b341561079657600080fd5b610315600160a060020a0360043516611790565b34156107b557600080fd5b6103f5600160a060020a03600435166024356117ab565b34156107d757600080fd5b610315600160a060020a036004351660243561180c565b34156107f957600080fd5b61080d600160a060020a036004351661183a565b60405160208082528190810183818151815260200191508051906020019060200280838360005b8381101561084c578082015183820152602001610834565b505050509050019250505060405180910390f35b341561086b57600080fd5b6103f560043561191b565b341561088157600080fd5b6105c661193f565b341561089457600080fd5b6103f560043561194e565b34156108aa57600080fd5b61034961196e565b34156108bd57600080fd5b6103156004356119a5565b34156108d357600080fd5b6103f56004356119b7565b34156108e957600080fd5b6108f46004356119d7565b60405191825260208201526040908101905180910390f35b341561091757600080fd5b6103f5600160a060020a03600435166024356119f0565b341561093957600080fd5b610315611a4a565b341561094c57600080fd5b6103f56024600480358281019290820135918135918201910135611a50565b341561097657600080fd5b610315611adb565b341561098957600080fd5b6103f5600435602435611ae1565b34156109a257600080fd5b6105c6611ba5565b34156109b557600080fd5b61080d600160a060020a0360043516611bb4565b34156109d457600080fd5b6103f5611c37565b34156109e757600080fd5b6103f5600435611c60565b34156109fd57600080fd5b6103f5600435611c80565b6103f5600435602435611ce1565b6103f5600435611f15565b3415610a2c57600080fd5b6103f5600435611f42565b3415610a4257600080fd5b610349600435611f62565b3415610a5857600080fd5b6103f5600160a060020a0360043516611fea565b3415610a7757600080fd5b6103f560043561200c565b3415610a8d57600080fd5b6103156120a2565b6103f56004356120a8565b3415610aab57600080fd5b6103f5600160a060020a03600435166120d1565b3415610aca57600080fd5b61031561211b565b3415610add57600080fd5b6102e2600435612121565b60006040517f737570706f727473496e7465726661636528627974657334290000000000000081526019016040518091039020600160e060020a03191682600160e060020a0319161480610d6757506040517f746f6b656e4d657461646174612875696e743235362c737472696e67290000008152601d0160405180910390206040517f746f6b656e734f664f776e657228616464726573732900000000000000000000815260160160405180910390206040517f7472616e7366657246726f6d28616464726573732c616464726573732c75696e81527f7432353629000000000000000000000000000000000000000000000000000000602082015260250160405180910390206040517f7472616e7366657228616464726573732c75696e743235362900000000000000815260190160405180910390206040517f617070726f766528616464726573732c75696e74323536290000000000000000815260180160405180910390206040517f6f776e65724f662875696e743235362900000000000000000000000000000000815260100160405180910390206040517f62616c616e63654f662861646472657373290000000000000000000000000000815260120160405180910390206040517f746f74616c537570706c792829000000000000000000000000000000000000008152600d0160405180910390206040517f73796d626f6c2829000000000000000000000000000000000000000000000000815260080160405180910390206040517f6e616d652829000000000000000000000000000000000000000000000000000081526006016040518091039020181818181818181818600160e060020a03191682600160e060020a031916145b90505b919050565b60066020526000908152604090205481565b610d896142cf565b610d916142e1565b600c54600090600160a060020a03161515610dab57600080fd5b600c54600160a060020a031663cb4799f2878787600060405160a0015260405160e060020a63ffffffff861602815260048101848152604060248301908152604483018490529091606401848480828437820191505094505050505060a060405180830381600087803b1515610e2057600080fd5b6102c65a03f11515610e3157600080fd5b50505060405180608001805160209091016040529092509050610e548282612247565b9695505050505050565b60408051908101604052600e81527f43727970746f427261776c657273000000000000000000000000000000000000602082015281565b610e9f338261229c565b1515610eaa57600080fd5b610eb481836122bc565b7f8c5be1e5ebec7d5bd14f71427d1e84f3dd0314c0f7b2291e5b200ac8c7c3b925338383604051600160a060020a039384168152919092166020820152604080820192909252606001905180910390a15050565b6005545b90565b60005433600160a060020a03908116911614610f2a57600080fd5b80600160a060020a03166108fc30600160a060020a0316319081150290604051600060405180830381858888f193505050501515610f6757600080fd5b50565b600160a060020a0382161515610f7f57600080fd5b30600160a060020a031682600160a060020a031614151515610fa057600080fd5b610faa33826122ea565b1515610fb557600080fd5b610fbf838261229c565b1515610fca57600080fd5b610fd583838361230a565b505050565b60009081526015602052604090206001015490565b600080600080610ffd61241d565b600160a060020a031633600160a060020a031614151561101c57600080fd5b6110598560408051908101604052600181527f2d0000000000000000000000000000000000000000000000000000000000000060208201526125bd565b935061111684600081548110151561106d57fe5b90600052602060002090018054600181600116156101000203166002900480601f01602080910402602001604051908101604052809291908181526020018280546001816001161561010002031660029004801561110c5780601f106110e15761010080835404028352916020019161110c565b820191906000526020600020905b8154815290600101906020018083116110ef57829003601f168201915b50505050506126e0565b925061112a84600181548110151561106d57fe5b9150611135836126ed565b1561114a5761114383612700565b5081611155565b508061115581612700565b6000828152600760205260408082205485835291205461118291600160a060020a0390811691168461230a565b6000838152600760205260408082205484835291819020547f0974ab4622ebebd6fc59c871455d5554bfc6cb8da267f947006c5f5c4f747f6092600160a060020a03908116928792909116908690869051600160a060020a0395861681526020810194909452919093166040808401919091526060830193909352608082015260a001905180910390a1505050505050565b60005433600160a060020a0390811691161461122f57600080fd5b6112ee84848488600a8681548110151561124557fe5b90600052602060002090018054600181600116156101000203166002900480601f0160208091040260200160405190810160405280929190818152602001828054600181600116156101000203166002900480156112e45780601f106112b9576101008083540402835291602001916112e4565b820191906000526020600020905b8154815290600101906020018083116112c757829003601f168201915b5050505050612711565b505050505050565b600080600354803410151561137d5761130f338861229c565b151561131a57600080fd5b600254611326856128ab565b81151561132f57fe5b04915081151561133e57600191505b6113798787878080601f0160208091040260200160405190810160405281815292919060208401838380828437508994506128ec9350505050565b8192505b5050949350505050565b60005433600160a060020a039081169116146113a257600080fd5b600155565b600860205260009081526040902054600160a060020a031681565b60005433600160a060020a039081169116146113dd57600080fd5b600255565b600760205260009081526040902054600160a060020a031681565b60008060008060008061140e6142cf565b61141661430a565b600580548a90811061142457fe5b906000526020600020906005020160a0604051908101604052908160008201548152602001600182015481526020016002820154815260200160038201548152602001600482018054600181600116156101000203166002900480601f0160208091040260200160405190810160405280929190818152602001828054600181600116156101000203166002900480156114ff5780601f106114d4576101008083540402835291602001916114ff565b820191906000526020600020905b8154815290600101906020018083116114e257829003601f168201915b505050505081525050905080600001518160200151826040015183606001516115278d612ad1565b6115308e6126ed565b8660800151959f949e50929c50909a509850965090945092505050565b600f5481565b61155d338261229c565b151561156857600080fd5b61157181612ad1565b151561157c57600080fd5b61158581612ae7565b7f3e808687755674bf6703cb65acce9b7da494797511c241a38e74134813273be23382604051600160a060020a03909216825260208201526040908101905180910390a150565b60005433600160a060020a039081169116146115e757600080fd5b600054600160a060020a039081169030163180156108fc0290604051600060405180830381858888f19350505050151561162057600080fd5b565b600081815260076020526040902054600160a060020a0316801515610d6a57600080fd5b611650338261229c565b151561165b57600080fd5b611664816126ed565b151561166f57600080fd5b61167881612700565b7fb3fefaad4d5eb17c447489e1529238e4f44c82b4f99284ca82969e1bfbb8e8c53382604051600160a060020a03909216825260208201526040908101905180910390a150565b60005433600160a060020a039081169116146116da57600080fd5b610fd5600e838361433f565b600e8054600181600116156101000203166002900480601f01602080910402602001604051908101604052809291908181526020018280546001816001161561010002031660029004801561177c5780601f106117515761010080835404028352916020019161177c565b820191906000526020600020905b81548152906001019060200180831161175f57829003601f168201915b505050505081565b60175481565b60035481565b600160a060020a031660009081526006602052604090205490565b600080548190819033600160a060020a039081169116146117cb57600080fd5b6117d4846128ab565b92506117df836128ab565b91506117f3846001600a8054905003612afe565b90506112ee600a848488600a8681548110151561124557fe5b60096020528160005260406000208181548110151561182757fe5b6000918252602090912001549150829050565b6118426142cf565b600080600061184f6142cf565b600061185a87611790565b945084151561188a5760006040518059106118725750595b90808252806020026020018201604052509550611911565b60009350611896610f08565b9250846040518059106118a65750595b90808252806020026020018201604052509150600190505b82811161190d57600081815260076020526040902054600160a060020a038881169116141561190557808285815181106118f457fe5b602090810290910101526001909301925b6001016118be565b8195505b5050505050919050565b60005433600160a060020a0390811691161461193657600080fd5b610f6781612b30565b600054600160a060020a031681565b60005433600160a060020a0390811691161461196957600080fd5b600d55565b60408051908101604052600481527f4252574c00000000000000000000000000000000000000000000000000000000602082015281565b60166020526000908152604090205481565b60005433600160a060020a039081169116146119d257600080fd5b600355565b6015602052600090815260409020805460019091015482565b600160a060020a0382161515611a0557600080fd5b30600160a060020a031682600160a060020a031614151515611a2657600080fd5b611a30338261229c565b1515611a3b57600080fd5b611a4633838361230a565b5050565b600d5481565b60005433600160a060020a03908116911614611a6b57600080fd5b611ad584848080601f016020809104026020016040519081016040528181529291906020840183838082843782019150505050505083838080601f016020809104026020016040519081016040528181529291906020840183838082843750612cbf945050505050565b50505050565b60025481565b611aeb338361229c565b1515611af657600080fd5b611aff826126ed565b15611b0957600080fd5b60008111611b1657600080fd5b60408051908101604090815283825260208083018490526000858152601590915220815181556020820151600190910155507f9eaf5a44f033adc048686ca80e281b74f25fb52e998dd7f8e6812721383ae88a3383836040518084600160a060020a0316600160a060020a03168152602001838152602001828152602001935050505060405180910390a15050565b600c54600160a060020a031681565b611bbc6142cf565b6009600083600160a060020a0316600160a060020a03168152602001908152602001600020805480602002602001604051908101604052809291908181526020018280548015611c2b57602002820191906000526020600020905b815481526020019060010190808311611c17575b50505050509050919050565b60005433600160a060020a03908116911614611c5257600080fd5b600054600160a060020a0316ff5b60005433600160a060020a03908116911614611c7b57600080fd5b600f55565b600080548190819033600160a060020a03908116911614611ca057600080fd5b600192505b838311611ad557600a54611cba908490612afe565b9150611cd4600a60058033600a8781548110151561124557fe5b6001909301929050611ca5565b611ce96142cf565b611cf16142cf565b60045434819010611f0e57611d05846126ed565b1515611d1057600080fd5b611d1a338661229c565b1515611d2557600080fd5b611d2f338561229c565b15611d3957600080fd5b611dbb60408051908101604052600a81527f2f61747461636b65722f000000000000000000000000000000000000000000006020820152611d7987612d66565b60408051908101604052600a81527f2f646566656e6465722f000000000000000000000000000000000000000000006020820152611db688612d66565b612e5a565b9250611ecb6040805190810160405280600581526020017f6a736f6e28000000000000000000000000000000000000000000000000000000815250600e8054600181600116156101000203166002900480601f016020809104026020016040519081016040528092919081815260200182805460018160011615610100020316600290048015611e8c5780601f10611e6157610100808354040283529160200191611e8c565b820191906000526020600020905b815481529060010190602001808311611e6f57829003601f168201915b50505050508560408051908101604052600f81527f292e6f7574636f6d65537472696e6700000000000000000000000000000000006020820152612e5a565b91506112ee60408051908101604052600381527f55524c00000000000000000000000000000000000000000000000000000000006020820152600f548490612e86565b5050505050565b611f1f813461320c565b600081815260076020526040902054610f6790600160a060020a0316338361230a565b60005433600160a060020a03908116911614611f5d57600080fd5b600455565b600a805482908110611f7057fe5b90600052602060002090016000915090508054600181600116156101000203166002900480601f01602080910402602001604051908101604052809291908181526020018280546001816001161561010002031660029004801561177c5780601f106117515761010080835404028352916020019161177c565b600c8054600160a060020a031916600160a060020a0392909216919091179055565b612016338261229c565b151561202157600080fd5b61202a81612ad1565b1561203457600080fd5b61203d816126ed565b1561204757600080fd5b600081815260166020526040908190208290557ffd493e9e8a025ff7f65e924f394f7f1c3804e6114587e73b05e393385823ae5f903390839051600160a060020a03909216825260208201526040908101905180910390a150565b60045481565b60035434819010611a46576120bd338361229c565b15156120c857600080fd5b611a4682613319565b60005433600160a060020a039081169116146120ec57600080fd5b600160a060020a03811615610f675760008054600160a060020a038316600160a060020a031990911617905550565b60015481565b60008060008060008061213387613323565b94506001548581151561214257fe5b0615156121e757612152876128ab565b935061215d846128ab565b9250612171876001600a8054905003612afe565b915061218a600a858533600a8781548110151561124557fe5b90507f9bd510de0dcc8d26bfd35e5e1bad5c406154844b85cde0690dfa7881e481de76600133836040519215158352600160a060020a0390911660208301526040808301919091526060909101905180910390a160019550611911565b7f9bd510de0dcc8d26bfd35e5e1bad5c406154844b85cde0690dfa7881e481de7660003360006040519215158352600160a060020a0390911660208301526040808301919091526060909101905180910390a15060009695505050505050565b61224f6142cf565b6122576142cf565b600080846040518059106122685750595b818152601f19601f830116810160200160405290509250506020820190508461229282828761334f565b5090949350505050565b600090815260076020526040902054600160a060020a0391821691161490565b6000918252600860205260409091208054600160a060020a031916600160a060020a03909216919091179055565b600090815260086020526040902054600160a060020a0391821691161490565b600160a060020a038216600081815260066020908152604080832080546001908101909155858452600783528184208054600160a060020a031916861790559383526009909152902080549091810161236383826143bd565b506000918252602090912001819055600160a060020a038316156123c85760008181526008602052604090208054600160a060020a03191690556123a78382613394565b600160a060020a038316600090815260066020526040902080546000190190555b7fddf252ad1be2c89b69c2b068fc378daa952ba7f163c4a11628f55a4df523b3ef838383604051600160a060020a039384168152919092166020820152604080820192909252606001905180910390a1505050565b601054600090600160a060020a0316158061244a575060105461244890600160a060020a0316613428565b155b1561245b57612459600061342c565b505b601054600160a060020a03166338cc48316000604051602001526040518163ffffffff1660e060020a028152600401602060405180830381600087803b15156124a357600080fd5b6102c65a03f115156124b457600080fd5b5050506040518051601154600160a060020a03908116911614905061255657601054600160a060020a03166338cc48316000604051602001526040518163ffffffff1660e060020a028152600401602060405180830381600087803b151561251b57600080fd5b6102c65a03f1151561252c57600080fd5b505050604051805160118054600160a060020a031916600160a060020a0392909216919091179055505b601154600160a060020a031663c281d19e6000604051602001526040518163ffffffff1660e060020a028152600401602060405180830381600087803b151561259e57600080fd5b6102c65a03f115156125af57600080fd5b505050604051805191505090565b60006125c76142cf565b6000806125d26142cf565b6125da6142cf565b600080899650600095505b60018751038610156126d3576125fc8a8a88613436565b945084600019141561260d57865194505b85850360405180591061261d5750595b818152601f19601f830116810160200160405290509350839250600091508590505b848110156126975786818151811061265357fe5b016020015160f860020a900460f860020a0283838060010194508151811061267757fe5b906020010190600160f860020a031916908160001a90535060010161263f565b8460010195508780548060010182816126b091906143e1565b60009283526020909220018480516126cc929160200190614405565b50506125e5565b5050505050505092915050565b6000610d678260006134dd565b6000908152601660205260408120541190565b600090815260166020526040812055565b600061271b61430a565b600060a06040519081016040528089815260200189815260200188815260200187815260200185815250915060016005805480600101828161275d9190614473565b60009283526020909220859160050201815181556020820151816001015560408201518160020155606082015181600301556080820151816004019080516127a9929160200190614405565b50505003905063ffffffff811681146127c157600080fd5b7faf9d5de903d3c24be3b2973b79ee3eefd1b8aada3d46baf60ee9f0d086b75fb985828a8a8a896040518087600160a060020a0316600160a060020a0316815260200186815260200185815260200184815260200183815260200180602001828103825283818151815260200191508051906020019080838360005b8381101561285557808201518382015260200161283d565b50505050905090810190601f1680156128825780820380516001836020036101000a031916815260200191505b5097505050505050505060405180910390a16128a06000868361230a565b979650505050505050565b600080600a6001430340846040519182526020820152604090810190519081900390208115156128d757fe5b069050600081116128e6575060015b92915050565b6040517f6d61784865616c746800000000000000000000000000000000000000000000008152600901604051908190039020826040518082805190602001908083835b6020831061294e5780518252601f19909201916020918201910161292f565b6001836020036101000a038019825116818451161790925250505091909101925060409150505190819003902014156129915761298c83823361364b565b610fd5565b6040517f737472656e6774680000000000000000000000000000000000000000000000008152600801604051908190039020826040518082805190602001908083835b602083106129f35780518252601f1990920191602091820191016129d4565b6001836020036101000a03801982511681845116179092525050509190910192506040915050519081900390201415612a315761298c838233613803565b6040517f73706565640000000000000000000000000000000000000000000000000000008152600501604051908190039020826040518082805190602001908083835b60208310612a935780518252601f199092019160209182019101612a74565b6001836020036101000a03801982511681845116179092525050509190910192506040915050519081900390201415610fd557610fd58382336139a1565b6000908152601560205260408120600101541190565b600090815260156020526040812081815560010155565b600081600143034084604051918252602082015260409081019051908190039020811515612b2857fe5b069392505050565b601054600160a060020a03161580612b5a5750601054612b5890600160a060020a0316613428565b155b15612b6b57612b69600061342c565b505b601054600160a060020a03166338cc48316000604051602001526040518163ffffffff1660e060020a028152600401602060405180830381600087803b1515612bb357600080fd5b6102c65a03f11515612bc457600080fd5b5050506040518051601154600160a060020a039081169116149050612c6657601054600160a060020a03166338cc48316000604051602001526040518163ffffffff1660e060020a028152600401602060405180830381600087803b1515612c2b57600080fd5b6102c65a03f11515612c3c57600080fd5b505050604051805160118054600160a060020a031916600160a060020a0392909216919091179055505b601154600160a060020a031663ca6ad1e48260405160e060020a63ffffffff84160281526004810191909152602401600060405180830381600087803b1515612cae57600080fd5b6102c65a03f11515611ad557600080fd5b600a805460018101612cd183826143e1565b6000928352602090922001838051612ced929160200190614405565b505080600b836040518082805190602001908083835b60208310612d225780518252601f199092019160209182019101612d03565b6001836020036101000a0380198251168184511680821785525050505050509050019150509081526020016040518091039020908051610fd5929160200190614405565b612d6e6142cf565b600080612d796142cf565b6000851515612dbd5760408051908101604052600181527f300000000000000000000000000000000000000000000000000000000000000060208201529450612e51565b8593505b8315612dd857600190920191600a84049350612dc1565b82604051805910612de65750595b818152601f19601f8301168101602001604052905091505060001982015b8515612e4d5760001981019060f860020a6030600a8906010290839081518110612e2a57fe5b906020010190600160f860020a031916908160001a905350600a86049550612e04565b8194505b50505050919050565b612e626142cf565b612e7d85858585602060405190810160405260008152613b3f565b95945050505050565b6010546000908190600160a060020a03161580612eb55750601054612eb390600160a060020a0316613428565b155b15612ec657612ec4600061342c565b505b601054600160a060020a03166338cc48316000604051602001526040518163ffffffff1660e060020a028152600401602060405180830381600087803b1515612f0e57600080fd5b6102c65a03f11515612f1f57600080fd5b5050506040518051601154600160a060020a039081169116149050612fc157601054600160a060020a03166338cc48316000604051602001526040518163ffffffff1660e060020a028152600401602060405180830381600087803b1515612f8657600080fd5b6102c65a03f11515612f9757600080fd5b505050604051805160118054600160a060020a031916600160a060020a0392909216919091179055505b601154600160a060020a0316632ef3accc86856000604051602001526040518363ffffffff1660e060020a0281526004018080602001838152602001828103825284818151815260200191508051906020019080838360005b8381101561303257808201518382015260200161301a565b50505050905090810190601f16801561305f5780820380516001836020036101000a031916815260200191505b509350505050602060405180830381600087803b151561307e57600080fd5b6102c65a03f1151561308f57600080fd5b5050506040518051915050670de0b6b3a76400003a8402018111156130b75760009150613204565b601154600160a060020a031663c51be90f82600088888883604051602001526040518663ffffffff1660e060020a028152600401808581526020018060200180602001848152602001838103835286818151815260200191508051906020019080838360005b8381101561313557808201518382015260200161311d565b50505050905090810190601f1680156131625780820380516001836020036101000a031916815260200191505b50838103825285818151815260200191508051906020019080838360005b83811015613198578082015183820152602001613180565b50505050905090810190601f1680156131c55780820380516001836020036101000a031916815260200191505b5096505050505050506020604051808303818588803b15156131e657600080fd5b6125ee5a03f115156131f757600080fd5b5050505060405180519250505b509392505050565b600080600061321b338661229c565b1561322557600080fd5b61322e85612ad1565b151561323957600080fd5b60008581526015602052604090206001015484101561325757600080fd5b600085815260076020526040902054600160a060020a0316925061327a85612ae7565b61328384613daf565b915050808303600160a060020a03831681156108fc0282604051600060405180830381858888f1935050505015156132ba57600080fd5b7f4750c394c3222df02b322dd8f4ee23c0025975134406b18d35ab7c9c1bb41ac233858786604051600160a060020a03948516815260208101939093526040808401929092529092166060820152608001905180910390a15050505050565b610f678133613dbb565b60008060646001430340846040519182526020820152604090810190519081900390208115156128d757fe5b60005b602082106133755782518452602084019350602083019250602082039150613352565b6001826020036101000a03905080198351168185511617909352505050565b60005b600160a060020a038316600090815260096020526040902054811015610fd557600160a060020a03831660009081526009602052604090208054839190839081106133de57fe5b906000526020600020900154141561342057600160a060020a038316600090815260096020526040902080548290811061341457fe5b60009182526020822001555b600101613397565b3b90565b6000610d67613f3b565b60006134406142cf565b6134486142cf565b50849050836000815160011461345a57fe5b50835b82518110156134cd578160008151811061347357fe5b016020015160f860020a900460f860020a02600160f860020a03191683828151811061349b57fe5b016020015160f860020a900460f860020a02600160f860020a03191614156134c5578093506134d3565b60010161345d565b60001993505b5050509392505050565b60006134e76142cf565b5082600080805b835181101561362e577f300000000000000000000000000000000000000000000000000000000000000084828151811061352457fe5b016020015160f860020a900460f860020a02600160f860020a0319161015801561359557507f390000000000000000000000000000000000000000000000000000000000000084828151811061357657fe5b016020015160f860020a900460f860020a02600160f860020a03191611155b156135eb5781156135b4578515156135ac5761362e565b600019909501945b600a8302925060308482815181106135c857fe5b016020015160f860020a900460f860020a0260f860020a90040383019250613626565b8381815181106135f757fe5b016020015160f860020a900460f860020a02600160f860020a031916602e60f860020a02141561362657600191505b6001016134ee565b60008611156136405785600a0a830292505b509095945050505050565b61365361430a565b600580548590811061366157fe5b906000526020600020906005020160a0604051908101604052908160008201548152602001600182015481526020016002820154815260200160038201548152602001600482018054600181600116156101000203166002900480601f01602080910402602001604051908101604052809291908181526020018280546001816001161561010002031660029004801561373c5780601f106137115761010080835404028352916020019161373c565b820191906000526020600020905b81548152906001019060200180831161371f57829003601f168201915b5050505050815250509050806000015181602001511415613764578281602001818151019052505b828181815101905250613777818561425f565b7fca04611e80f005feb5aafd7553030c696e4de100604c325926807c6cbda6a7c3828585604051600160a060020a03909316835260208301919091526060820152608060408083018290526009918301919091527f6d61784865616c7468000000000000000000000000000000000000000000000060a083015260c0909101905180910390a150505050565b61380b61430a565b600580548590811061381957fe5b906000526020600020906005020160a0604051908101604052908160008201548152602001600182015481526020016002820154815260200160038201548152602001600482018054600181600116156101000203166002900480601f0160208091040260200160405190810160405280929190818152602001828054600181600116156101000203166002900480156138f45780601f106138c9576101008083540402835291602001916138f4565b820191906000526020600020905b8154815290600101906020018083116138d757829003601f168201915b5050505050815250509050828160600181815101905250613915818561425f565b7fca04611e80f005feb5aafd7553030c696e4de100604c325926807c6cbda6a7c3828585604051600160a060020a03909316835260208301919091526060820152608060408083018290526008918301919091527f737472656e67746800000000000000000000000000000000000000000000000060a083015260c0909101905180910390a150505050565b6139a961430a565b60058054859081106139b757fe5b906000526020600020906005020160a0604051908101604052908160008201548152602001600182015481526020016002820154815260200160038201548152602001600482018054600181600116156101000203166002900480601f016020809104026020016040519081016040528092919081815260200182805460018160011615610100020316600290048015613a925780601f10613a6757610100808354040283529160200191613a92565b820191906000526020600020905b815481529060010190602001808311613a7557829003601f168201915b5050505050815250509050828160400181815101905250613ab3818561425f565b7fca04611e80f005feb5aafd7553030c696e4de100604c325926807c6cbda6a7c3828585604051600160a060020a03909316835260208301919091526060820152608060408083018290526005918301919091527f737065656400000000000000000000000000000000000000000000000000000060a083015260c0909101905180910390a150505050565b613b476142cf565b613b4f6142cf565b613b576142cf565b613b5f6142cf565b613b676142cf565b613b6f6142cf565b613b776142cf565b613b7f6142cf565b6000808e98508d97508c96508b95508a94508451865188518a518c5101010101604051805910613bac5750595b818152601f19601f83011681016020016040529050935083925060009150600090505b8851811015613c2857888181518110613be457fe5b016020015160f860020a900460f860020a02838380600101945081518110613c0857fe5b906020010190600160f860020a031916908160001a905350600101613bcf565b5060005b8751811015613c8557878181518110613c4157fe5b016020015160f860020a900460f860020a02838380600101945081518110613c6557fe5b906020010190600160f860020a031916908160001a905350600101613c2c565b5060005b8651811015613ce257868181518110613c9e57fe5b016020015160f860020a900460f860020a02838380600101945081518110613cc257fe5b906020010190600160f860020a031916908160001a905350600101613c89565b5060005b8551811015613d3f57858181518110613cfb57fe5b016020015160f860020a900460f860020a02838380600101945081518110613d1f57fe5b906020010190600160f860020a031916908160001a905350600101613ce6565b5060005b8451811015613d9c57848181518110613d5857fe5b016020015160f860020a900460f860020a02838380600101945081518110613d7c57fe5b906020010190600160f860020a031916908160001a905350600101613d43565b50909d9c50505050505050505050505050565b600d5460649091040290565b613dc361430a565b6005805484908110613dd157fe5b906000526020600020906005020160a0604051908101604052908160008201548152602001600182015481526020016002820154815260200160038201548152602001600482018054600181600116156101000203166002900480601f016020809104026020016040519081016040528092919081815260200182805460018160011615610100020316600290048015613eac5780601f10613e8157610100808354040283529160200191613eac565b820191906000526020600020905b815481529060010190602001808311613e8f57829003601f168201915b50505050508152505090508060000151816020015110613ecb57600080fd5b80516020820152613edc818461425f565b7f99ac7da70b5c6f1d34e05f1b47107fb3b9a1c1542028d0ad8e86c959568629ed828483516040518084600160a060020a0316600160a060020a03168152602001838152602001828152602001935050505060405180910390a1505050565b600080613f5b731d3b2638a7cc9f2cb3d298a3da7a90b67e5506ed613428565b1115613fcb5760108054600160a060020a031916731d3b2638a7cc9f2cb3d298a3da7a90b67e5506ed179055613fc360408051908101604052600b81527f6574685f6d61696e6e657400000000000000000000000000000000000000000060208201526142bc565b506001610f0c565b6000613fea73c03a2615d5efaf5f49f60b7bb6583eaec212fdf1613428565b11156140525760108054600160a060020a03191673c03a2615d5efaf5f49f60b7bb6583eaec212fdf1179055613fc360408051908101604052600c81527f6574685f726f707374656e33000000000000000000000000000000000000000060208201526142bc565b600061407173b7a07bcf2ba2f2703b24c0691b5278999c59ac7e613428565b11156140d95760108054600160a060020a03191673b7a07bcf2ba2f2703b24c0691b5278999c59ac7e179055613fc360408051908101604052600981527f6574685f6b6f76616e000000000000000000000000000000000000000000000060208201526142bc565b60006140f873146500cfd35b22e4a392fe0adc06de1a1368ed48613428565b11156141605760108054600160a060020a03191673146500cfd35b22e4a392fe0adc06de1a1368ed48179055613fc360408051908101604052600b81527f6574685f72696e6b65627900000000000000000000000000000000000000000060208201526142bc565b600061417f736f485c8bf6fc43ea212e93bbf8ce046c7f1cb475613428565b11156141b3575060108054600160a060020a031916736f485c8bf6fc43ea212e93bbf8ce046c7f1cb4751790556001610f0c565b60006141d27320e12a1f859b3feae5fb2a0a32c18f5a65555bbf613428565b1115614206575060108054600160a060020a0319167320e12a1f859b3feae5fb2a0a32c18f5a65555bbf1790556001610f0c565b60006142257351efaf4c8b3c9afbd5ab9f4bbc82784ab6ef8faa613428565b1115614259575060108054600160a060020a0319167351efaf4c8b3c9afbd5ab9f4bbc82784ab6ef8faa1790556001610f0c565b50600090565b8160058281548110151561426f57fe5b906000526020600020906005020160008201518155602082015181600101556040820151816002015560608201518160030155608082015181600401908051611f0e929160200190614405565b6012818051611a46929160200190614405565b60206040519081016040526000815290565b60806040519081016040526004815b600081526000199190910190602001816142f05790505090565b60a0604051908101604052806000815260200160008152602001600081526020016000815260200161433a6142cf565b905290565b828054600181600116156101000203166002900490600052602060002090601f016020900481019282601f106143805782800160ff198235161785556143ad565b828001600101855582156143ad579182015b828111156143ad578235825591602001919060010190614392565b506143b992915061449f565b5090565b815481835581811511610fd557600083815260209020610fd591810190830161449f565b815481835581811511610fd557600083815260209020610fd59181019083016144b9565b828054600181600116156101000203166002900490600052602060002090601f016020900481019282601f1061444657805160ff19168380011785556143ad565b828001600101855582156143ad579182015b828111156143ad578251825591602001919060010190614458565b815481835581811511610fd557600502816005028360005260206000209182019101610fd591906144dc565b610f0c91905b808211156143b957600081556001016144a5565b610f0c91905b808211156143b95760006144d3828261451a565b506001016144bf565b610f0c91905b808211156143b9576000808255600182018190556002820181905560038201819055614511600483018261451a565b506005016144e2565b50805460018160011615610100020316600290046000825580601f106145405750610f67565b601f016020900490600052602060002090810190610f67919061449f5600a165627a7a72305820c293547af8136728c716cba67c072dc9afcca86dc6e5f9e9d1872173d00aab490029",
  "source": "pragma solidity ^0.4.18;\n\nimport \"./marketplace/Marketplace.sol\";\n\ncontract CryptoBrawlers is Marketplace {\n  uint public startingFighterPrice = 5000000000000000;\n\n  function CryptoBrawlers() {\n    _addFighterType('Mob Boss', 'Mob Boss');\n    _addFighterType('Local MMA Star', 'Henchman');\n    _addFighterType('Roadman', 'Local MMA Star');\n    _addFighterType('Henchman', 'Roadman');\n\n    oraclize_setCustomGasPrice(5000000000 wei);\n  }\n\n  function addNewFighterType(string newType, string weakness) external onlyOwner {\n    _addFighterType(newType, weakness);\n  }\n\n  function setupStartingFighters(uint startingFighters) external onlyOwner {\n    uint count;\n    for(count = 1; count <= startingFighters; count++) {\n      uint _typeId = RandomNumber.randomNumberToMax(count, fighterTypes.length);\n      uint createdFighterId = _createFighter(10, 5, 5, msg.sender, fighterTypes[_typeId]);\n\n      // fighter 0 must always be owned by the creator as it causes problems when trying to be purchased\n      // and transferred etc\n      /* if (createdFighterId > 0) {\n        fighterIdToSale[createdFighterId] = Sale({\n          fighterId: createdFighterId,\n          price: startingFighterPrice\n        });\n      } */\n    }\n  }\n\n  function getInfoForFighter(uint _fighterId)\n    external returns (uint maxHealth, uint health, uint speed, uint strength, bool isForSale, bool isInArena, string fighterType)\n  {\n    Fighter memory _fighter = fighters[_fighterId];\n    return (\n      _fighter.maxHealth,\n      _fighter.health,\n      _fighter.speed,\n      _fighter.strength,\n      _fighterIsForSale(_fighterId),\n      _fighterIsForBrawl(_fighterId),\n      _fighter.fighterType\n    );\n  }\n\n  function setNewOraclizeGasPrice(uint newGasPrice) external onlyOwner {\n    oraclize_setCustomGasPrice(newGasPrice * 1 wei);\n  }\n}\n",
  "sourcePath": "/Users/kendalla/projects/cryptoclash/contracts/CryptoBrawlers.sol",
  "compiler": {
    "name": "solc",
    "version": "0.4.19+commit.c4cbbb05.Emscripten.clang"
  },
  "schemaVersion": "1.0.1",
  "updatedAt": "2018-04-12T12:37:42.192Z"
}