{
  "contractName": "ERC721Metadata",
  "abi": [
    {
      "constant": true,
      "inputs": [
        {
          "name": "_tokenId",
          "type": "uint256"
        },
        {
          "name": "",
          "type": "string"
        }
      ],
      "name": "getMetadata",
      "outputs": [
        {
          "name": "buffer",
          "type": "bytes32[4]"
        },
        {
          "name": "count",
          "type": "uint256"
        }
      ],
      "payable": false,
      "stateMutability": "view",
      "type": "function"
    }
  ],
  "bytecode": "0x6060604052341561000f57600080fd5b6103608061001e6000396000f300606060405260043610610041576000357c0100000000000000000000000000000000000000000000000000000000900463ffffffff168063cb4799f214610046575b600080fd5b341561005157600080fd5b6100aa600480803590602001909190803590602001908201803590602001908080601f016020809104026020016040519081016040528093929190818152602001838380828437820191505050505050919050506100ef565b6040518083600460200280838360005b838110156100d55780820151818401526020810190506100ba565b505050509050018281526020019250505060405180910390f35b6100f7610309565b6000600184141561014e577f48656c6c6f20576f726c6421203a44000000000000000000000000000000000082600060048110151561013257fe5b60200201906000191690816000191681525050600f9050610302565b60028414156101e6577f4920776f756c6420646566696e6974656c792063686f6f73652061206d65646982600060048110151561018757fe5b602002019060001916908160001916815250507f756d206c656e67746820737472696e672e0000000000000000000000000000008260016004811015156101ca57fe5b6020020190600019169081600019168152505060319050610301565b6003841415610300577f4c6f72656d20697073756d20646f6c6f722073697420616d65742c206d69206582600060048110151561021f57fe5b602002019060001916908160001916815250507f737420616363756d73616e2064617069627573206175677565206c6f72656d2c82600160048110151561026257fe5b602002019060001916908160001916815250507f2074726973746971756520766573746962756c756d2069642c206c696265726f8260026004811015156102a557fe5b602002019060001916908160001916815250507f207375736369706974207661726975732073617069656e20616c697175616d2e8260036004811015156102e857fe5b60200201906000191690816000191681525050608090505b5b5b9250929050565b6080604051908101604052806004905b600080191681526020019060019003908161031957905050905600a165627a7a72305820da073ee7eb87f83a5cc01d520caaec3ede07115bcb6c4d363fe55dcbe0258d150029",
  "source": "pragma solidity ^0.4.11;\n\ncontract ERC721Metadata {\n  /// @dev Given a token Id, returns a byte array that is supposed to be converted into string.\n  function getMetadata(uint256 _tokenId, string) public view returns (bytes32[4] buffer, uint256 count) {\n    if (_tokenId == 1) {\n        buffer[0] = \"Hello World! :D\";\n        count = 15;\n    } else if (_tokenId == 2) {\n        buffer[0] = \"I would definitely choose a medi\";\n        buffer[1] = \"um length string.\";\n        count = 49;\n    } else if (_tokenId == 3) {\n        buffer[0] = \"Lorem ipsum dolor sit amet, mi e\";\n        buffer[1] = \"st accumsan dapibus augue lorem,\";\n        buffer[2] = \" tristique vestibulum id, libero\";\n        buffer[3] = \" suscipit varius sapien aliquam.\";\n        count = 128;\n    }\n  }\n}\n",
  "sourcePath": "/Users/Aaron/Projects/cryptoclash/contracts/base/ERC721Metadata.sol",
  "compiler": {
    "name": "solc",
    "version": "0.4.18+commit.9cf6e910.Emscripten.clang"
  },
  "schemaVersion": "1.0.1",
  "updatedAt": "2018-01-02T17:05:17.804Z"
}