{
  "contractName": "ERC721Metadata",
  "abi": [
    {
      "constant": true,
      "inputs": [
        {
          "name": "_tokenId",
          "type": "uint256"
        },
        {
          "name": "",
          "type": "string"
        }
      ],
      "name": "getMetadata",
      "outputs": [
        {
          "name": "buffer",
          "type": "bytes32[4]"
        },
        {
          "name": "count",
          "type": "uint256"
        }
      ],
      "payable": false,
      "stateMutability": "view",
      "type": "function"
    }
  ],
  "bytecode": "0x6060604052341561000f57600080fd5b6102708061001e6000396000f3006060604052600436106100405763ffffffff7c0100000000000000000000000000000000000000000000000000000000600035041663cb4799f28114610045575b600080fd5b341561005057600080fd5b61009b600480359060446024803590810190830135806020601f820181900481020160405190810160405281815292919060208401838380828437509496506100da95505050505050565b6040518083608080838360005b838110156100c05780820151838201526020016100a8565b505050509050018281526020019250505060405180910390f35b6100e261021b565b6000836001141561011857507f48656c6c6f20576f726c6421203a4400000000000000000000000000000000008152600f610214565b836002141561017257507f4920776f756c6420646566696e6974656c792063686f6f73652061206d65646981527f756d206c656e67746820737472696e672e00000000000000000000000000000060208201526031610214565b836003141561021457507f4c6f72656d20697073756d20646f6c6f722073697420616d65742c206d69206581527f737420616363756d73616e2064617069627573206175677565206c6f72656d2c60208201527f2074726973746971756520766573746962756c756d2069642c206c696265726f60408201527f207375736369706974207661726975732073617069656e20616c697175616d2e606082015260805b9250929050565b60806040519081016040526004815b6000815260001991909101906020018161022a57905050905600a165627a7a72305820757109b7ee2a1d1b7c0669c3ad269735ffcec5e9e1a99c0b14582297ccbc41b10029",
  "source": "pragma solidity ^0.4.18;\n\ncontract ERC721Metadata {\n  /// @dev Given a token Id, returns a byte array that is supposed to be converted into string.\n  function getMetadata(uint256 _tokenId, string) public view returns (bytes32[4] buffer, uint256 count) {\n    if (_tokenId == 1) {\n        buffer[0] = \"Hello World! :D\";\n        count = 15;\n    } else if (_tokenId == 2) {\n        buffer[0] = \"I would definitely choose a medi\";\n        buffer[1] = \"um length string.\";\n        count = 49;\n    } else if (_tokenId == 3) {\n        buffer[0] = \"Lorem ipsum dolor sit amet, mi e\";\n        buffer[1] = \"st accumsan dapibus augue lorem,\";\n        buffer[2] = \" tristique vestibulum id, libero\";\n        buffer[3] = \" suscipit varius sapien aliquam.\";\n        count = 128;\n    }\n  }\n}\n",
  "sourcePath": "/Users/kendalla/projects/cryptoclash/contracts/base/ERC721Metadata.sol",
  "compiler": {
    "name": "solc",
    "version": "0.4.19+commit.c4cbbb05.Emscripten.clang"
  },
  "schemaVersion": "1.0.1",
  "updatedAt": "2018-04-12T12:37:42.193Z"
}