{
  "contractName": "FighterOwnership",
  "abi": [
    {
      "constant": true,
      "inputs": [
        {
          "name": "",
          "type": "address"
        }
      ],
      "name": "fighterCountForOwner",
      "outputs": [
        {
          "name": "",
          "type": "uint256"
        }
      ],
      "payable": false,
      "stateMutability": "view",
      "type": "function"
    },
    {
      "constant": true,
      "inputs": [],
      "name": "name",
      "outputs": [
        {
          "name": "",
          "type": "string"
        }
      ],
      "payable": false,
      "stateMutability": "view",
      "type": "function"
    },
    {
      "constant": false,
      "inputs": [
        {
          "name": "newProbability",
          "type": "uint256"
        }
      ],
      "name": "setFighterCreationChance",
      "outputs": [],
      "payable": false,
      "stateMutability": "nonpayable",
      "type": "function"
    },
    {
      "constant": true,
      "inputs": [
        {
          "name": "",
          "type": "uint256"
        }
      ],
      "name": "fighterIdToApproved",
      "outputs": [
        {
          "name": "",
          "type": "address"
        }
      ],
      "payable": false,
      "stateMutability": "view",
      "type": "function"
    },
    {
      "constant": false,
      "inputs": [
        {
          "name": "newFactor",
          "type": "uint256"
        }
      ],
      "name": "setTrainingFactor",
      "outputs": [],
      "payable": false,
      "stateMutability": "nonpayable",
      "type": "function"
    },
    {
      "constant": true,
      "inputs": [
        {
          "name": "",
          "type": "uint256"
        }
      ],
      "name": "fighterIdToOwner",
      "outputs": [
        {
          "name": "",
          "type": "address"
        }
      ],
      "payable": false,
      "stateMutability": "view",
      "type": "function"
    },
    {
      "constant": true,
      "inputs": [],
      "name": "trainingCost",
      "outputs": [
        {
          "name": "",
          "type": "uint256"
        }
      ],
      "payable": false,
      "stateMutability": "view",
      "type": "function"
    },
    {
      "constant": true,
      "inputs": [
        {
          "name": "",
          "type": "address"
        },
        {
          "name": "",
          "type": "uint256"
        }
      ],
      "name": "ownedFighters",
      "outputs": [
        {
          "name": "",
          "type": "uint256"
        }
      ],
      "payable": false,
      "stateMutability": "view",
      "type": "function"
    },
    {
      "constant": true,
      "inputs": [],
      "name": "owner",
      "outputs": [
        {
          "name": "",
          "type": "address"
        }
      ],
      "payable": false,
      "stateMutability": "view",
      "type": "function"
    },
    {
      "constant": true,
      "inputs": [],
      "name": "symbol",
      "outputs": [
        {
          "name": "",
          "type": "string"
        }
      ],
      "payable": false,
      "stateMutability": "view",
      "type": "function"
    },
    {
      "constant": false,
      "inputs": [
        {
          "name": "newCost",
          "type": "uint256"
        }
      ],
      "name": "setNewTrainingCost",
      "outputs": [],
      "payable": false,
      "stateMutability": "nonpayable",
      "type": "function"
    },
    {
      "constant": true,
      "inputs": [],
      "name": "trainingFactor",
      "outputs": [
        {
          "name": "",
          "type": "uint256"
        }
      ],
      "payable": false,
      "stateMutability": "view",
      "type": "function"
    },
    {
      "constant": true,
      "inputs": [],
      "name": "erc721Metadata",
      "outputs": [
        {
          "name": "",
          "type": "address"
        }
      ],
      "payable": false,
      "stateMutability": "view",
      "type": "function"
    },
    {
      "constant": false,
      "inputs": [
        {
          "name": "newCost",
          "type": "uint256"
        }
      ],
      "name": "setNewArenaCost",
      "outputs": [],
      "payable": false,
      "stateMutability": "nonpayable",
      "type": "function"
    },
    {
      "constant": true,
      "inputs": [
        {
          "name": "",
          "type": "uint256"
        }
      ],
      "name": "fighterTypes",
      "outputs": [
        {
          "name": "",
          "type": "string"
        }
      ],
      "payable": false,
      "stateMutability": "view",
      "type": "function"
    },
    {
      "constant": true,
      "inputs": [],
      "name": "arenaCost",
      "outputs": [
        {
          "name": "",
          "type": "uint256"
        }
      ],
      "payable": false,
      "stateMutability": "view",
      "type": "function"
    },
    {
      "constant": false,
      "inputs": [
        {
          "name": "newOwner",
          "type": "address"
        }
      ],
      "name": "transferOwnership",
      "outputs": [],
      "payable": false,
      "stateMutability": "nonpayable",
      "type": "function"
    },
    {
      "constant": true,
      "inputs": [],
      "name": "chanceOfFighterCreation",
      "outputs": [
        {
          "name": "",
          "type": "uint256"
        }
      ],
      "payable": false,
      "stateMutability": "view",
      "type": "function"
    },
    {
      "anonymous": false,
      "inputs": [
        {
          "indexed": false,
          "name": "from",
          "type": "address"
        },
        {
          "indexed": false,
          "name": "to",
          "type": "address"
        },
        {
          "indexed": false,
          "name": "tokenId",
          "type": "uint256"
        }
      ],
      "name": "Transfer",
      "type": "event"
    },
    {
      "anonymous": false,
      "inputs": [
        {
          "indexed": false,
          "name": "owner",
          "type": "address"
        },
        {
          "indexed": false,
          "name": "approved",
          "type": "address"
        },
        {
          "indexed": false,
          "name": "tokenId",
          "type": "uint256"
        }
      ],
      "name": "Approval",
      "type": "event"
    },
    {
      "anonymous": false,
      "inputs": [
        {
          "indexed": false,
          "name": "_keccak1",
          "type": "bytes32"
        },
        {
          "indexed": false,
          "name": "_keccak2",
          "type": "bytes32"
        }
      ],
      "name": "Test",
      "type": "event"
    },
    {
      "anonymous": false,
      "inputs": [
        {
          "indexed": false,
          "name": "owner",
          "type": "address"
        },
        {
          "indexed": false,
          "name": "fighterId",
          "type": "uint256"
        },
        {
          "indexed": false,
          "name": "maxHealth",
          "type": "uint256"
        },
        {
          "indexed": false,
          "name": "speed",
          "type": "uint256"
        },
        {
          "indexed": false,
          "name": "strength",
          "type": "uint256"
        },
        {
          "indexed": false,
          "name": "fighterType",
          "type": "string"
        }
      ],
      "name": "Creation",
      "type": "event"
    },
    {
      "anonymous": false,
      "inputs": [
        {
          "indexed": false,
          "name": "owner",
          "type": "address"
        },
        {
          "indexed": false,
          "name": "fighterId",
          "type": "uint256"
        },
        {
          "indexed": false,
          "name": "attribute",
          "type": "string"
        },
        {
          "indexed": false,
          "name": "increaseValue",
          "type": "uint256"
        }
      ],
      "name": "AttributeIncrease",
      "type": "event"
    },
    {
      "anonymous": false,
      "inputs": [
        {
          "indexed": false,
          "name": "owner",
          "type": "address"
        },
        {
          "indexed": false,
          "name": "fighterId",
          "type": "uint256"
        },
        {
          "indexed": false,
          "name": "maxHealth",
          "type": "uint256"
        }
      ],
      "name": "Healed",
      "type": "event"
    },
    {
      "anonymous": false,
      "inputs": [
        {
          "indexed": false,
          "name": "fighterWasFound",
          "type": "bool"
        },
        {
          "indexed": false,
          "name": "owner",
          "type": "address"
        },
        {
          "indexed": false,
          "name": "fighterId",
          "type": "uint256"
        }
      ],
      "name": "FighterFound",
      "type": "event"
    },
    {
      "constant": true,
      "inputs": [
        {
          "name": "_interfaceID",
          "type": "bytes4"
        }
      ],
      "name": "supportsInterface",
      "outputs": [
        {
          "name": "",
          "type": "bool"
        }
      ],
      "payable": false,
      "stateMutability": "view",
      "type": "function"
    },
    {
      "constant": false,
      "inputs": [
        {
          "name": "_contractAddress",
          "type": "address"
        }
      ],
      "name": "setMetadataAddress",
      "outputs": [],
      "payable": false,
      "stateMutability": "nonpayable",
      "type": "function"
    },
    {
      "constant": true,
      "inputs": [
        {
          "name": "_owner",
          "type": "address"
        }
      ],
      "name": "balanceOf",
      "outputs": [
        {
          "name": "count",
          "type": "uint256"
        }
      ],
      "payable": false,
      "stateMutability": "view",
      "type": "function"
    },
    {
      "constant": false,
      "inputs": [
        {
          "name": "_to",
          "type": "address"
        },
        {
          "name": "_tokenId",
          "type": "uint256"
        }
      ],
      "name": "transfer",
      "outputs": [],
      "payable": false,
      "stateMutability": "nonpayable",
      "type": "function"
    },
    {
      "constant": false,
      "inputs": [
        {
          "name": "_to",
          "type": "address"
        },
        {
          "name": "_tokenId",
          "type": "uint256"
        }
      ],
      "name": "approve",
      "outputs": [],
      "payable": false,
      "stateMutability": "nonpayable",
      "type": "function"
    },
    {
      "constant": false,
      "inputs": [
        {
          "name": "_from",
          "type": "address"
        },
        {
          "name": "_to",
          "type": "address"
        },
        {
          "name": "_tokenId",
          "type": "uint256"
        }
      ],
      "name": "transferFrom",
      "outputs": [],
      "payable": false,
      "stateMutability": "nonpayable",
      "type": "function"
    },
    {
      "constant": true,
      "inputs": [],
      "name": "totalSupply",
      "outputs": [
        {
          "name": "",
          "type": "uint256"
        }
      ],
      "payable": false,
      "stateMutability": "view",
      "type": "function"
    },
    {
      "constant": true,
      "inputs": [
        {
          "name": "_tokenId",
          "type": "uint256"
        }
      ],
      "name": "ownerOf",
      "outputs": [
        {
          "name": "owner",
          "type": "address"
        }
      ],
      "payable": false,
      "stateMutability": "view",
      "type": "function"
    },
    {
      "constant": false,
      "inputs": [
        {
          "name": "_owner",
          "type": "address"
        }
      ],
      "name": "getFightersForAddress",
      "outputs": [
        {
          "name": "",
          "type": "uint256[]"
        }
      ],
      "payable": false,
      "stateMutability": "nonpayable",
      "type": "function"
    },
    {
      "constant": true,
      "inputs": [
        {
          "name": "_owner",
          "type": "address"
        }
      ],
      "name": "tokensOfOwner",
      "outputs": [
        {
          "name": "ownerTokens",
          "type": "uint256[]"
        }
      ],
      "payable": false,
      "stateMutability": "view",
      "type": "function"
    },
    {
      "constant": true,
      "inputs": [
        {
          "name": "_tokenId",
          "type": "uint256"
        },
        {
          "name": "_preferredTransport",
          "type": "string"
        }
      ],
      "name": "tokenMetadata",
      "outputs": [
        {
          "name": "infoUrl",
          "type": "string"
        }
      ],
      "payable": false,
      "stateMutability": "view",
      "type": "function"
    },
    {
      "constant": false,
      "inputs": [
        {
          "name": "_fighterId",
          "type": "uint256"
        }
      ],
      "name": "healFighter",
      "outputs": [],
      "payable": true,
      "stateMutability": "payable",
      "type": "function"
    },
    {
      "constant": false,
      "inputs": [
        {
          "name": "_fighterId",
          "type": "uint256"
        },
        {
          "name": "_attribute",
          "type": "string"
        },
        {
          "name": "_seed",
          "type": "uint256"
        }
      ],
      "name": "trainFighter",
      "outputs": [
        {
          "name": "",
          "type": "uint256"
        }
      ],
      "payable": true,
      "stateMutability": "payable",
      "type": "function"
    },
    {
      "constant": false,
      "inputs": [
        {
          "name": "_seed",
          "type": "uint256"
        }
      ],
      "name": "searchForFighter",
      "outputs": [
        {
          "name": "fighterFound",
          "type": "bool"
        }
      ],
      "payable": false,
      "stateMutability": "nonpayable",
      "type": "function"
    },
    {
      "constant": false,
      "inputs": [
        {
          "name": "_recipient",
          "type": "address"
        },
        {
          "name": "_seed",
          "type": "uint256"
        }
      ],
      "name": "ownerCreation",
      "outputs": [],
      "payable": false,
      "stateMutability": "nonpayable",
      "type": "function"
    },
    {
      "constant": false,
      "inputs": [
        {
          "name": "_recipient",
          "type": "address"
        },
        {
          "name": "_maxHealth",
          "type": "uint256"
        },
        {
          "name": "_speed",
          "type": "uint256"
        },
        {
          "name": "_strength",
          "type": "uint256"
        },
        {
          "name": "_typeId",
          "type": "uint256"
        }
      ],
      "name": "customOwnerCreation",
      "outputs": [],
      "payable": false,
      "stateMutability": "nonpayable",
      "type": "function"
    }
  ],
  "bytecode": "0x60606040526003600181905560028190556611c37937e080009055662386f26fc1000060045560008054600160a060020a033316600160a060020a0319909116179055612280806100516000396000f3006060604052600436106101ab5763ffffffff7c010000000000000000000000000000000000000000000000000000000060003504166301ffc9a781146101b0578063027f48f7146101fc5780630560ff441461022d57806306fdde03146102c6578063095ea7b3146102d957806318160ddd146102fd57806323b872dd146103105780632b1a8d46146103385780633f40d2881461036357806340e4e0481461037d57806344e59ee914610393578063495ac3a8146103c55780634b193933146103db5780636352211e146103f1578063701a19fd1461040757806370a082311461041a5780638053e5d8146104395780638357b8dd1461045b5780638462151c1461047d5780638da5cb5b146104ef57806395d89b4114610502578063a5557ce014610515578063a9059cbb1461052b578063b64ce34a1461054d578063bc4006f514610560578063c20548ac14610573578063d004cad414610592578063d9861dab146105a8578063e17b25af146105be578063ea9b50c5146105dd578063efbeef80146105f0578063f2fde38b146105fb578063f36014d21461061a578063f6a677161461062d575b600080fd5b34156101bb57600080fd5b6101e87fffffffff0000000000000000000000000000000000000000000000000000000060043516610643565b604051901515815260200160405180910390f35b341561020757600080fd5b61021b600160a060020a03600435166108ca565b60405190815260200160405180910390f35b341561023857600080fd5b61024f6004803590602480359081019101356108dc565b60405160208082528190810183818151815260200191508051906020019080838360005b8381101561028b578082015183820152602001610273565b50505050905090810190601f1680156102b85780820380516001836020036101000a031916815260200191505b509250505060405180910390f35b34156102d157600080fd5b61024f6109d2565b34156102e457600080fd5b6102fb600160a060020a0360043516602435610a09565b005b341561030857600080fd5b61021b610a7c565b341561031b57600080fd5b6102fb600160a060020a0360043581169060243516604435610a83565b341561034357600080fd5b6102fb600160a060020a0360043516602435604435606435608435610af3565b61021b600480359060248035908101910135604435610bd5565b341561038857600080fd5b6102fb600435610c66565b341561039e57600080fd5b6103a9600435610c86565b604051600160a060020a03909116815260200160405180910390f35b34156103d057600080fd5b6102fb600435610ca1565b34156103e657600080fd5b6103a9600435610cc1565b34156103fc57600080fd5b6103a9600435610cdc565b341561041257600080fd5b61021b610d00565b341561042557600080fd5b61021b600160a060020a0360043516610d06565b341561044457600080fd5b6102fb600160a060020a0360043516602435610d21565b341561046657600080fd5b61021b600160a060020a0360043516602435610d82565b341561048857600080fd5b61049c600160a060020a0360043516610db0565b60405160208082528190810183818151815260200191508051906020019060200280838360005b838110156104db5780820151838201526020016104c3565b505050509050019250505060405180910390f35b34156104fa57600080fd5b6103a9610e91565b341561050d57600080fd5b61024f610ea0565b341561052057600080fd5b6102fb600435610ed7565b341561053657600080fd5b6102fb600160a060020a0360043516602435610ef7565b341561055857600080fd5b61021b610f51565b341561056b57600080fd5b6103a9610f57565b341561057e57600080fd5b61049c600160a060020a0360043516610f66565b341561059d57600080fd5b6102fb600435610fe9565b34156105b357600080fd5b61024f600435611009565b34156105c957600080fd5b6102fb600160a060020a03600435166110c4565b34156105e857600080fd5b61021b6110f3565b6102fb6004356110f9565b341561060657600080fd5b6102fb600160a060020a0360043516611122565b341561062557600080fd5b61021b611178565b341561063857600080fd5b6101e860043561117e565b60006040517f737570706f727473496e7465726661636528627974657334290000000000000081526019016040518091039020600160e060020a03191682600160e060020a03191614806108c257506040517f746f6b656e4d657461646174612875696e743235362c737472696e67290000008152601d0160405180910390206040517f746f6b656e734f664f776e657228616464726573732900000000000000000000815260160160405180910390206040517f7472616e7366657246726f6d28616464726573732c616464726573732c75696e81527f7432353629000000000000000000000000000000000000000000000000000000602082015260250160405180910390206040517f7472616e7366657228616464726573732c75696e743235362900000000000000815260190160405180910390206040517f617070726f766528616464726573732c75696e74323536290000000000000000815260180160405180910390206040517f6f776e65724f662875696e743235362900000000000000000000000000000000815260100160405180910390206040517f62616c616e63654f662861646472657373290000000000000000000000000000815260120160405180910390206040517f746f74616c537570706c792829000000000000000000000000000000000000008152600d0160405180910390206040517f73796d626f6c2829000000000000000000000000000000000000000000000000815260080160405180910390206040517f6e616d652829000000000000000000000000000000000000000000000000000081526006016040518091039020181818181818181818600160e060020a03191682600160e060020a031916145b90505b919050565b60066020526000908152604090205481565b6108e461207a565b6108ec61208c565b600c54600090600160a060020a0316151561090657600080fd5b600c54600160a060020a031663cb4799f2878787600060405160a001526040517c010000000000000000000000000000000000000000000000000000000063ffffffff861602815260048101848152604060248301908152604483018490529091606401848480828437820191505094505050505060a060405180830381600087803b151561099457600080fd5b6102c65a03f115156109a557600080fd5b505050604051806080018051602090910160405290925090506109c882826112a4565b9695505050505050565b60408051908101604052600e81527f43727970746f427261776c657273000000000000000000000000000000000000602082015281565b610a1333826112f9565b1515610a1e57600080fd5b610a288183611319565b7f8c5be1e5ebec7d5bd14f71427d1e84f3dd0314c0f7b2291e5b200ac8c7c3b925338383604051600160a060020a039384168152919092166020820152604080820192909252606001905180910390a15050565b6005545b90565b600160a060020a0382161515610a9857600080fd5b30600160a060020a031682600160a060020a031614151515610ab957600080fd5b610ac33382611354565b1515610ace57600080fd5b610ad883826112f9565b1515610ae357600080fd5b610aee838383611374565b505050565b60005433600160a060020a03908116911614610b0e57600080fd5b610bcd84848488600a86815481101515610b2457fe5b90600052602060002090018054600181600116156101000203166002900480601f016020809104026020016040519081016040528092919081815260200182805460018160011615610100020316600290048015610bc35780601f10610b9857610100808354040283529160200191610bc3565b820191906000526020600020905b815481529060010190602001808311610ba657829003601f168201915b50505050506114a1565b505050505050565b6000806003548034101515610c5c57610bee33886112f9565b1515610bf957600080fd5b600254610c058561163b565b811515610c0e57fe5b049150811515610c1d57600191505b610c588787878080601f01602080910402602001604051908101604052818152929190602084018383808284375089945061167c9350505050565b8192505b5050949350505050565b60005433600160a060020a03908116911614610c8157600080fd5b600155565b600860205260009081526040902054600160a060020a031681565b60005433600160a060020a03908116911614610cbc57600080fd5b600255565b600760205260009081526040902054600160a060020a031681565b600081815260076020526040902054600160a060020a03168015156108c557600080fd5b60035481565b600160a060020a031660009081526006602052604090205490565b600080548190819033600160a060020a03908116911614610d4157600080fd5b610d4a8461163b565b9250610d558361163b565b9150610d69846001600a8054905003611861565b9050610bcd600a848488600a86815481101515610b2457fe5b600960205281600052604060002081815481101515610d9d57fe5b6000918252602090912001549150829050565b610db861207a565b6000806000610dc561207a565b6000610dd087610d06565b9450841515610e00576000604051805910610de85750595b90808252806020026020018201604052509550610e87565b60009350610e0c610a7c565b925084604051805910610e1c5750595b90808252806020026020018201604052509150600190505b828111610e8357600081815260076020526040902054600160a060020a0388811691161415610e7b5780828581518110610e6a57fe5b602090810290910101526001909301925b600101610e34565b8195505b5050505050919050565b600054600160a060020a031681565b60408051908101604052600481527f4252574c00000000000000000000000000000000000000000000000000000000602082015281565b60005433600160a060020a03908116911614610ef257600080fd5b600355565b600160a060020a0382161515610f0c57600080fd5b30600160a060020a031682600160a060020a031614151515610f2d57600080fd5b610f3733826112f9565b1515610f4257600080fd5b610f4d338383611374565b5050565b60025481565b600c54600160a060020a031681565b610f6e61207a565b6009600083600160a060020a0316600160a060020a03168152602001908152602001600020805480602002602001604051908101604052809291908181526020018280548015610fdd57602002820191906000526020600020905b815481526020019060010190808311610fc9575b50505050509050919050565b60005433600160a060020a0390811691161461100457600080fd5b600455565b600a80548290811061101757fe5b90600052602060002090016000915090508054600181600116156101000203166002900480601f0160208091040260200160405190810160405280929190818152602001828054600181600116156101000203166002900480156110bc5780601f10611091576101008083540402835291602001916110bc565b820191906000526020600020905b81548152906001019060200180831161109f57829003601f168201915b505050505081565b600c805473ffffffffffffffffffffffffffffffffffffffff1916600160a060020a0392909216919091179055565b60045481565b60035434819010610f4d5761110e33836112f9565b151561111957600080fd5b610f4d82611893565b60005433600160a060020a0390811691161461113d57600080fd5b600160a060020a03811615611175576000805473ffffffffffffffffffffffffffffffffffffffff1916600160a060020a0383161790555b50565b60015481565b6000806000806000806111908761189d565b94506001548581151561119f57fe5b061515611244576111af8761163b565b93506111ba8461163b565b92506111ce876001600a8054905003611861565b91506111e7600a858533600a87815481101515610b2457fe5b90507f9bd510de0dcc8d26bfd35e5e1bad5c406154844b85cde0690dfa7881e481de76600133836040519215158352600160a060020a0390911660208301526040808301919091526060909101905180910390a160019550610e87565b7f9bd510de0dcc8d26bfd35e5e1bad5c406154844b85cde0690dfa7881e481de7660003360006040519215158352600160a060020a0390911660208301526040808301919091526060909101905180910390a15060009695505050505050565b6112ac61207a565b6112b461207a565b600080846040518059106112c55750595b818152601f19601f83011681016020016040529050925050602082019050846112ef8282876118c9565b5090949350505050565b600090815260076020526040902054600160a060020a0391821691161490565b600091825260086020526040909120805473ffffffffffffffffffffffffffffffffffffffff1916600160a060020a03909216919091179055565b600090815260086020526040902054600160a060020a0391821691161490565b600160a060020a03821660008181526006602090815260408083208054600190810190915585845260078352818420805473ffffffffffffffffffffffffffffffffffffffff191686179055938352600990915290208054909181016113da83826120b5565b506000918252602090912001819055600160a060020a0383161561144c576000818152600860205260409020805473ffffffffffffffffffffffffffffffffffffffff1916905561142b838261190e565b600160a060020a038316600090815260066020526040902080546000190190555b7fddf252ad1be2c89b69c2b068fc378daa952ba7f163c4a11628f55a4df523b3ef838383604051600160a060020a039384168152919092166020820152604080820192909252606001905180910390a1505050565b60006114ab6120d9565b600060a0604051908101604052808981526020018981526020018881526020018781526020018581525091506001600580548060010182816114ed919061210e565b600092835260209092208591600502018151815560208201518160010155604082015181600201556060820151816003015560808201518160040190805161153992916020019061213a565b50505003905063ffffffff8116811461155157600080fd5b7faf9d5de903d3c24be3b2973b79ee3eefd1b8aada3d46baf60ee9f0d086b75fb985828a8a8a896040518087600160a060020a0316600160a060020a0316815260200186815260200185815260200184815260200183815260200180602001828103825283818151815260200191508051906020019080838360005b838110156115e55780820151838201526020016115cd565b50505050905090810190601f1680156116125780820380516001836020036101000a031916815260200191505b5097505050505050505060405180910390a161163060008683611374565b979650505050505050565b600080600a60014303408460405191825260208201526040908101905190819003902081151561166757fe5b06905060008111611676575060015b92915050565b6040517f6d61784865616c746800000000000000000000000000000000000000000000008152600901604051908190039020826040518082805190602001908083835b602083106116de5780518252601f1990920191602091820191016116bf565b6001836020036101000a038019825116818451161790925250505091909101925060409150505190819003902014156117215761171c8382336119a2565b610aee565b6040517f737472656e6774680000000000000000000000000000000000000000000000008152600801604051908190039020826040518082805190602001908083835b602083106117835780518252601f199092019160209182019101611764565b6001836020036101000a038019825116818451161790925250505091909101925060409150505190819003902014156117c15761171c838233611b5a565b6040517f73706565640000000000000000000000000000000000000000000000000000008152600501604051908190039020826040518082805190602001908083835b602083106118235780518252601f199092019160209182019101611804565b6001836020036101000a03801982511681845116179092525050509190910192506040915050519081900390201415610aee57610aee838233611cf8565b60008160014303408460405191825260208201526040908101905190819003902081151561188b57fe5b069392505050565b6111758133611e96565b600080606460014303408460405191825260208201526040908101905190819003902081151561166757fe5b60005b602082106118ef57825184526020840193506020830192506020820391506118cc565b6001826020036101000a03905080198351168185511617909352505050565b60005b600160a060020a038316600090815260096020526040902054811015610aee57600160a060020a038316600090815260096020526040902080548391908390811061195857fe5b906000526020600020900154141561199a57600160a060020a038316600090815260096020526040902080548290811061198e57fe5b60009182526020822001555b600101611911565b6119aa6120d9565b60058054859081106119b857fe5b906000526020600020906005020160a0604051908101604052908160008201548152602001600182015481526020016002820154815260200160038201548152602001600482018054600181600116156101000203166002900480601f016020809104026020016040519081016040528092919081815260200182805460018160011615610100020316600290048015611a935780601f10611a6857610100808354040283529160200191611a93565b820191906000526020600020905b815481529060010190602001808311611a7657829003601f168201915b5050505050815250509050806000015181602001511415611abb578281602001818151019052505b828181815101905250611ace8185612016565b7fca04611e80f005feb5aafd7553030c696e4de100604c325926807c6cbda6a7c3828585604051600160a060020a03909316835260208301919091526060820152608060408083018290526009918301919091527f6d61784865616c7468000000000000000000000000000000000000000000000060a083015260c0909101905180910390a150505050565b611b626120d9565b6005805485908110611b7057fe5b906000526020600020906005020160a0604051908101604052908160008201548152602001600182015481526020016002820154815260200160038201548152602001600482018054600181600116156101000203166002900480601f016020809104026020016040519081016040528092919081815260200182805460018160011615610100020316600290048015611c4b5780601f10611c2057610100808354040283529160200191611c4b565b820191906000526020600020905b815481529060010190602001808311611c2e57829003601f168201915b5050505050815250509050828160600181815101905250611c6c8185612016565b7fca04611e80f005feb5aafd7553030c696e4de100604c325926807c6cbda6a7c3828585604051600160a060020a03909316835260208301919091526060820152608060408083018290526008918301919091527f737472656e67746800000000000000000000000000000000000000000000000060a083015260c0909101905180910390a150505050565b611d006120d9565b6005805485908110611d0e57fe5b906000526020600020906005020160a0604051908101604052908160008201548152602001600182015481526020016002820154815260200160038201548152602001600482018054600181600116156101000203166002900480601f016020809104026020016040519081016040528092919081815260200182805460018160011615610100020316600290048015611de95780601f10611dbe57610100808354040283529160200191611de9565b820191906000526020600020905b815481529060010190602001808311611dcc57829003601f168201915b5050505050815250509050828160400181815101905250611e0a8185612016565b7fca04611e80f005feb5aafd7553030c696e4de100604c325926807c6cbda6a7c3828585604051600160a060020a03909316835260208301919091526060820152608060408083018290526005918301919091527f737065656400000000000000000000000000000000000000000000000000000060a083015260c0909101905180910390a150505050565b611e9e6120d9565b6005805484908110611eac57fe5b906000526020600020906005020160a0604051908101604052908160008201548152602001600182015481526020016002820154815260200160038201548152602001600482018054600181600116156101000203166002900480601f016020809104026020016040519081016040528092919081815260200182805460018160011615610100020316600290048015611f875780601f10611f5c57610100808354040283529160200191611f87565b820191906000526020600020905b815481529060010190602001808311611f6a57829003601f168201915b50505050508152505090508060000151816020015110611fa657600080fd5b80516020820152611fb78184612016565b7f99ac7da70b5c6f1d34e05f1b47107fb3b9a1c1542028d0ad8e86c959568629ed828483516040518084600160a060020a0316600160a060020a03168152602001838152602001828152602001935050505060405180910390a1505050565b8160058281548110151561202657fe5b90600052602060002090600502016000820151815560208201518160010155604082015181600201556060820151816003015560808201518160040190805161207392916020019061213a565b5050505050565b60206040519081016040526000815290565b60806040519081016040526004815b6000815260001991909101906020018161209b5790505090565b815481835581811511610aee57600083815260209020610aee9181019083016121b8565b60a0604051908101604052806000815260200160008152602001600081526020016000815260200161210961207a565b905290565b815481835581811511610aee57600502816005028360005260206000209182019101610aee91906121d2565b828054600181600116156101000203166002900490600052602060002090601f016020900481019282601f1061217b57805160ff19168380011785556121a8565b828001600101855582156121a8579182015b828111156121a857825182559160200191906001019061218d565b506121b49291506121b8565b5090565b610a8091905b808211156121b457600081556001016121be565b610a8091905b808211156121b45760008082556001820181905560028201819055600382018190556122076004830182612210565b506005016121d8565b50805460018160011615610100020316600290046000825580601f106122365750611175565b601f01602090049060005260206000209081019061117591906121b85600a165627a7a7230582007e76c658bd58f29d66220d3c8449eaaa35f72c66929944e92c5ab9ec524513a0029",
  "source": "pragma solidity ^0.4.18;\n\nimport \"../lib/RandomNumber.sol\";\n\nimport \"../base/ERC721.sol\";\nimport \"../base/ERC721Metadata.sol\";\nimport \"../base/Priced.sol\";\nimport \"./FighterConfig.sol\";\nimport \"./FighterBase.sol\";\nimport \"./FighterTraining.sol\";\n\ncontract FighterOwnership is FighterConfig, FighterBase, FighterTraining, ERC721, Priced {\n\n    /// @notice Name and symbol of the non fungible token, as defined in ERC721.\n    string public constant name = \"CryptoBrawlers\";\n    string public constant symbol = \"BRWL\";\n\n    // The contract that will return fighter metadata\n    ERC721Metadata public erc721Metadata;\n\n    bytes4 constant InterfaceSignature_ERC165 =\n        bytes4(keccak256('supportsInterface(bytes4)'));\n\n    bytes4 constant InterfaceSignature_ERC721 =\n        bytes4(keccak256('name()')) ^\n        bytes4(keccak256('symbol()')) ^\n        bytes4(keccak256('totalSupply()')) ^\n        bytes4(keccak256('balanceOf(address)')) ^\n        bytes4(keccak256('ownerOf(uint256)')) ^\n        bytes4(keccak256('approve(address,uint256)')) ^\n        bytes4(keccak256('transfer(address,uint256)')) ^\n        bytes4(keccak256('transferFrom(address,address,uint256)')) ^\n        bytes4(keccak256('tokensOfOwner(address)')) ^\n        bytes4(keccak256('tokenMetadata(uint256,string)'));\n\n    /// @notice Introspection interface as per ERC-165 (https://github.com/ethereum/EIPs/issues/165).\n    ///  Returns true for any standardized interfaces implemented by this contract. We implement\n    ///  ERC-165 (obviously!) and ERC-721.\n    function supportsInterface(bytes4 _interfaceID) external view returns (bool)\n    {\n      // DEBUG ONLY\n      //require((InterfaceSignature_ERC165 == 0x01ffc9a7) && (InterfaceSignature_ERC721 == 0x9a20483d));\n\n      return ((_interfaceID == InterfaceSignature_ERC165) || (_interfaceID == InterfaceSignature_ERC721));\n    }\n\n    /// @dev Set the address of the sibling contract that tracks metadata.\n    ///  CEO only.\n    function setMetadataAddress(address _contractAddress) public {\n      erc721Metadata = ERC721Metadata(_contractAddress);\n    }\n\n    // Internal utility functions: These functions all assume that their input arguments\n    // are valid. We leave it to public methods to sanitize their inputs and follow\n    // the required logic.\n\n    /// @dev Checks if a given address is the current owner of a particular fighter.\n    /// @param _claimant the address we are validating against.\n    /// @param _tokenId fighter id, only valid when > 0\n    function _owns(address _claimant, uint256 _tokenId) internal view returns (bool) {\n      return fighterIdToOwner[_tokenId] == _claimant;\n    }\n\n    /// @dev Checks if a given address currently has transferApproval for a particular fighter.\n    /// @param _claimant the address we are confirming kitten is approved for.\n    /// @param _tokenId fighter id, only valid when > 0\n    function _approvedFor(address _claimant, uint256 _tokenId) internal view returns (bool) {\n      return fighterIdToApproved[_tokenId] == _claimant;\n    }\n\n    /// @dev Marks an address as being approved for transferFrom(), overwriting any previous\n    ///  approval. Setting _approved to address(0) clears all transfer approval.\n    ///  NOTE: _approve() does NOT send the Approval event.\n    function _approve(uint256 _tokenId, address _approved) internal {\n      fighterIdToApproved[_tokenId] = _approved;\n    }\n\n    /// @notice Returns the number of Fighters owned by a specific address.\n    /// @param _owner The owner address to check.\n    /// @dev Required for ERC-721 compliance\n    function balanceOf(address _owner) public view returns (uint256 count) {\n      return fighterCountForOwner[_owner];\n    }\n\n    /// @notice Transfers a Fighter to another address. If transferring to a smart\n    /// contract be VERY CAREFUL to ensure that it is aware of ERC-721.\n    /// @param _to The address of the recipient, can be a user or contract.\n    /// @param _tokenId The ID of the fighter to transfer.\n    /// @dev Required for ERC-721 compliance.\n    function transfer(address _to, uint256 _tokenId) external {\n      // Safety check to prevent against an unexpected 0x0 default.\n      require(_to != address(0));\n      // Disallow transfers to this contract to prevent accidental misuse.\n      require(_to != address(this));\n      // Disallow transfers to the auction contracts to prevent accidental\n      // You can only send your own fighter.\n      require(_owns(msg.sender, _tokenId));\n\n      // Reassign ownership, clear pending approvals, emit Transfer event.\n      _transfer(msg.sender, _to, _tokenId);\n    }\n\n    /// @notice Grant another address the right to transfer a specific fighter via\n    ///  transferFrom(). This is the preferred flow for transfering NFTs to contracts.\n    /// @param _to The address to be granted transfer approval. Pass address(0) to\n    ///  clear all approvals.\n    /// @param _tokenId The ID of the fighter that can be transferred if this call succeeds.\n    /// @dev Required for ERC-721 compliance.\n    function approve(address _to, uint256 _tokenId) external {\n      // Only an owner can grant transfer approval.\n      require(_owns(msg.sender, _tokenId));\n\n      // Register the approval (replacing any previous approval).\n      _approve(_tokenId, _to);\n\n      // Emit approval event.\n      Approval(msg.sender, _to, _tokenId);\n    }\n\n    /// @notice Transfer a fighter owned by another address, for which the calling address\n    ///  has previously been granted transfer approval by the owner.\n    /// @param _from The address that owns the fighter to be transfered.\n    /// @param _to The address that should take ownership of the fighter. Can be any address,\n    ///  including the caller.\n    /// @param _tokenId The ID of the fighter to be transferred.\n    /// @dev Required for ERC-721 compliance.\n    function transferFrom(address _from, address _to, uint256 _tokenId) external {\n      // Safety check to prevent against an unexpected 0x0 default.\n      require(_to != address(0));\n      // Disallow transfers to this contract to prevent accidental misuse.\n      require(_to != address(this));\n      // Check for approval and valid ownership\n      require(_approvedFor(msg.sender, _tokenId));\n      require(_owns(_from, _tokenId));\n\n      // Reassign ownership (also clears pending approvals and emits Transfer event).\n      _transfer(_from, _to, _tokenId);\n    }\n\n    /// @notice Returns the total number of fighters currently in existence.\n    /// @dev Required for ERC-721 compliance.\n    function totalSupply() public view returns (uint) {\n        return fighters.length;\n    }\n\n    /// @notice Returns the address currently assigned ownership of a given fighter.\n    /// @dev Required for ERC-721 compliance.\n    function ownerOf(uint256 _tokenId)\n        external\n        view\n        returns (address owner)\n    {\n        owner = fighterIdToOwner[_tokenId];\n\n        require(owner != address(0));\n    }\n\n    function getFightersForAddress(address _owner) external returns(uint256[]) {\n      return ownedFighters[_owner];\n    }\n\n    /// @notice Returns a list of all Fighter IDs assigned to an address.\n    /// @param _owner The owner whose Fighters we are interested in.\n    // This is mega expensive, make sure it's only being called from web3\n    function tokensOfOwner(address _owner) external view returns(uint256[] ownerTokens) {\n        uint256 tokenCount = balanceOf(_owner);\n\n        if (tokenCount == 0) {\n          // Return an empty array\n          return new uint256[](0);\n        } else {\n          uint256 resultIndex = 0;\n          uint256 totalFighters = totalSupply();\n          uint256[] memory result = new uint256[](tokenCount);\n\n          uint fighterId;\n          for (fighterId = 1; fighterId <= totalFighters; fighterId++) {\n            if (fighterIdToOwner[fighterId] == _owner) {\n              result[resultIndex] = fighterId;\n              resultIndex++;\n            }\n          }\n\n          return result;\n        }\n    }\n\n    /// @dev Adapted from memcpy() by @arachnid (Nick Johnson <arachnid@notdot.net>)\n    ///  This method is licenced under the Apache License.\n    ///  Ref: https://github.com/Arachnid/solidity-stringutils/blob/2f6ca9accb48ae14c66f1437ec50ed19a0616f78/strings.sol\n    function _memcpy(uint _dest, uint _src, uint _len) private view {\n        // Copy word-length chunks while possible\n        for(; _len >= 32; _len -= 32) {\n            assembly {\n                mstore(_dest, mload(_src))\n            }\n            _dest += 32;\n            _src += 32;\n        }\n\n        // Copy remaining bytes\n        uint256 mask = 256 ** (32 - _len) - 1;\n        assembly {\n            let srcpart := and(mload(_src), not(mask))\n            let destpart := and(mload(_dest), mask)\n            mstore(_dest, or(destpart, srcpart))\n        }\n    }\n\n    /// @dev Adapted from toString(slice) by @arachnid (Nick Johnson <arachnid@notdot.net>)\n    ///  This method is licenced under the Apache License.\n    ///  Ref: https://github.com/Arachnid/solidity-stringutils/blob/2f6ca9accb48ae14c66f1437ec50ed19a0616f78/strings.sol\n    function _toString(bytes32[4] _rawBytes, uint256 _stringLength) private view returns (string) {\n        var outputString = new string(_stringLength);\n        uint256 outputPtr;\n        uint256 bytesPtr;\n\n        assembly {\n            outputPtr := add(outputString, 32)\n            bytesPtr := _rawBytes\n        }\n\n        _memcpy(outputPtr, bytesPtr, _stringLength);\n\n        return outputString;\n    }\n\n    /// @notice Returns a URI pointing to a metadata package for this token conforming to\n    ///  ERC-721 (https://github.com/ethereum/EIPs/issues/721)\n    /// @param _tokenId The ID number of the fighter whose metadata should be returned.\n    function tokenMetadata(uint256 _tokenId, string _preferredTransport) external view returns (string infoUrl) {\n        require(erc721Metadata != address(0));\n        bytes32[4] memory buffer;\n        uint256 count;\n        (buffer, count) = erc721Metadata.getMetadata(_tokenId, _preferredTransport);\n\n        return _toString(buffer, count);\n    }\n\n    function healFighter(uint _fighterId) external payable costs(trainingCost) {\n      require(_owns(msg.sender, _fighterId));\n      _heal(_fighterId);\n    }\n\n    function trainFighter(uint _fighterId, string _attribute, uint _seed) external payable costs(trainingCost) returns (uint) {\n      require(_owns(msg.sender, _fighterId));\n      uint _attributeIncrease = (RandomNumber.rand1To10(_seed) / trainingFactor);\n      if (_attributeIncrease == 0) {\n        _attributeIncrease = 1;\n      }\n\n      _train(_fighterId, _attribute, _attributeIncrease);\n      return _attributeIncrease;\n    }\n\n    function searchForFighter(uint _seed) external returns (bool fighterFound) {\n      uint randomNum = RandomNumber.randomNum(_seed);\n\n      if (randomNum % chanceOfFighterCreation == 0) {\n        uint _speed = RandomNumber.rand1To10(_seed);\n        uint _strength = RandomNumber.rand1To10(_speed);\n        uint _typeId = RandomNumber.randomNumberToMax(_seed, fighterTypes.length - 1);\n        uint _fighterId = _createFighter(10, _speed, _strength, msg.sender, fighterTypes[_typeId]);\n        FighterFound(true, msg.sender, _fighterId);\n        return true;\n      }\n      FighterFound(false, msg.sender, 0);\n      return false;\n    }\n\n    function ownerCreation(address _recipient, uint _seed) external onlyOwner {\n      uint _speed = RandomNumber.rand1To10(_seed);\n      uint _strength = RandomNumber.rand1To10(_speed);\n      uint _typeId = RandomNumber.randomNumberToMax(_seed, fighterTypes.length - 1);\n      _createFighter(10, _speed, _strength, _recipient, fighterTypes[_typeId]);\n    }\n\n    function customOwnerCreation(address _recipient, uint _maxHealth, uint _speed, uint _strength, uint _typeId) external onlyOwner {\n      _createFighter(_maxHealth, _speed, _strength, _recipient, fighterTypes[_typeId]);\n    }\n}\n",
  "sourcePath": "/Users/kendalla/projects/cryptoclash/contracts/fighter/FighterOwnership.sol",
  "compiler": {
    "name": "solc",
    "version": "0.4.19+commit.c4cbbb05.Emscripten.clang"
  },
  "schemaVersion": "1.0.1",
  "updatedAt": "2018-04-17T12:56:36.385Z"
}