{
  "contractName": "FighterConfig",
  "abi": [
    {
      "constant": true,
      "inputs": [],
      "name": "trainingCost",
      "outputs": [
        {
          "name": "",
          "type": "uint256"
        }
      ],
      "payable": false,
      "stateMutability": "view",
      "type": "function"
    },
    {
      "constant": true,
      "inputs": [],
      "name": "owner",
      "outputs": [
        {
          "name": "",
          "type": "address"
        }
      ],
      "payable": false,
      "stateMutability": "view",
      "type": "function"
    },
    {
      "constant": true,
      "inputs": [],
      "name": "trainingFactor",
      "outputs": [
        {
          "name": "",
          "type": "uint256"
        }
      ],
      "payable": false,
      "stateMutability": "view",
      "type": "function"
    },
    {
      "constant": true,
      "inputs": [],
      "name": "arenaCost",
      "outputs": [
        {
          "name": "",
          "type": "uint256"
        }
      ],
      "payable": false,
      "stateMutability": "view",
      "type": "function"
    },
    {
      "constant": false,
      "inputs": [
        {
          "name": "newOwner",
          "type": "address"
        }
      ],
      "name": "transferOwnership",
      "outputs": [],
      "payable": false,
      "stateMutability": "nonpayable",
      "type": "function"
    },
    {
      "constant": true,
      "inputs": [],
      "name": "chanceOfFighterCreation",
      "outputs": [
        {
          "name": "",
          "type": "uint256"
        }
      ],
      "payable": false,
      "stateMutability": "view",
      "type": "function"
    },
    {
      "constant": false,
      "inputs": [
        {
          "name": "newProbability",
          "type": "uint256"
        }
      ],
      "name": "setFighterCreationChance",
      "outputs": [],
      "payable": false,
      "stateMutability": "nonpayable",
      "type": "function"
    },
    {
      "constant": false,
      "inputs": [
        {
          "name": "newFactor",
          "type": "uint256"
        }
      ],
      "name": "setTrainingFactor",
      "outputs": [],
      "payable": false,
      "stateMutability": "nonpayable",
      "type": "function"
    },
    {
      "constant": false,
      "inputs": [
        {
          "name": "newCost",
          "type": "uint256"
        }
      ],
      "name": "setNewTrainingCost",
      "outputs": [],
      "payable": false,
      "stateMutability": "nonpayable",
      "type": "function"
    },
    {
      "constant": false,
      "inputs": [
        {
          "name": "newCost",
          "type": "uint256"
        }
      ],
      "name": "setNewArenaCost",
      "outputs": [],
      "payable": false,
      "stateMutability": "nonpayable",
      "type": "function"
    }
  ],
  "bytecode": "0x60606040526003600181905560028190556611c37937e080009055662386f26fc1000060045560008054600160a060020a033316600160a060020a03199091161790556102d7806100516000396000f3006060604052600436106100a35763ffffffff7c010000000000000000000000000000000000000000000000000000000060003504166340e4e04881146100a8578063495ac3a8146100c0578063701a19fd146100d65780638da5cb5b146100fb578063a5557ce01461012a578063b64ce34a14610140578063d004cad414610153578063ea9b50c514610169578063f2fde38b1461017c578063f36014d21461019b575b600080fd5b34156100b357600080fd5b6100be6004356101ae565b005b34156100cb57600080fd5b6100be6004356101ce565b34156100e157600080fd5b6100e96101ee565b60405190815260200160405180910390f35b341561010657600080fd5b61010e6101f4565b604051600160a060020a03909116815260200160405180910390f35b341561013557600080fd5b6100be600435610203565b341561014b57600080fd5b6100e9610223565b341561015e57600080fd5b6100be600435610229565b341561017457600080fd5b6100e9610249565b341561018757600080fd5b6100be600160a060020a036004351661024f565b34156101a657600080fd5b6100e96102a5565b60005433600160a060020a039081169116146101c957600080fd5b600155565b60005433600160a060020a039081169116146101e957600080fd5b600255565b60035481565b600054600160a060020a031681565b60005433600160a060020a0390811691161461021e57600080fd5b600355565b60025481565b60005433600160a060020a0390811691161461024457600080fd5b600455565b60045481565b60005433600160a060020a0390811691161461026a57600080fd5b600160a060020a038116156102a2576000805473ffffffffffffffffffffffffffffffffffffffff1916600160a060020a0383161790555b50565b600154815600a165627a7a72305820b9722ff3bc4399c055a5450e98a4b8ea3310292831c61e0bfa601ee325aa5ec60029",
  "source": "pragma solidity ^0.4.18;\n\nimport \"../base/Ownable.sol\";\n\ncontract FighterConfig is Ownable {\n  uint public chanceOfFighterCreation = 3;\n  uint public trainingFactor = 3;\n  uint256 public trainingCost = 5000000000000000; // cost of training in wei\n  uint256 public arenaCost = 10000000000000000;\n\n  function setFighterCreationChance(uint newProbability) external onlyOwner {\n    chanceOfFighterCreation = newProbability;\n  }\n\n  function setTrainingFactor(uint newFactor) external onlyOwner {\n    trainingFactor = newFactor;\n  }\n\n  function setNewTrainingCost(uint newCost) external onlyOwner {\n    trainingCost = newCost;\n  }\n\n  function setNewArenaCost(uint newCost) external onlyOwner {\n    arenaCost = newCost;\n  }\n}\n",
  "sourcePath": "/Users/kendalla/projects/cryptoclash/contracts/fighter/FighterConfig.sol",
  "compiler": {
    "name": "solc",
    "version": "0.4.19+commit.c4cbbb05.Emscripten.clang"
  },
  "schemaVersion": "1.0.1",
  "updatedAt": "2018-04-13T13:34:19.935Z"
}