{
  "contractName": "FighterOwnership",
  "abi": [
    {
      "constant": true,
      "inputs": [
        {
          "name": "_interfaceID",
          "type": "bytes4"
        }
      ],
      "name": "supportsInterface",
      "outputs": [
        {
          "name": "",
          "type": "bool"
        }
      ],
      "payable": false,
      "stateMutability": "view",
      "type": "function"
    },
    {
      "constant": true,
      "inputs": [
        {
          "name": "",
          "type": "address"
        }
      ],
      "name": "fighterCountForOwner",
      "outputs": [
        {
          "name": "",
          "type": "uint256"
        }
      ],
      "payable": false,
      "stateMutability": "view",
      "type": "function"
    },
    {
      "constant": true,
      "inputs": [
        {
          "name": "_tokenId",
          "type": "uint256"
        },
        {
          "name": "_preferredTransport",
          "type": "string"
        }
      ],
      "name": "tokenMetadata",
      "outputs": [
        {
          "name": "infoUrl",
          "type": "string"
        }
      ],
      "payable": false,
      "stateMutability": "view",
      "type": "function"
    },
    {
      "constant": true,
      "inputs": [],
      "name": "name",
      "outputs": [
        {
          "name": "",
          "type": "string"
        }
      ],
      "payable": false,
      "stateMutability": "view",
      "type": "function"
    },
    {
      "constant": false,
      "inputs": [
        {
          "name": "_to",
          "type": "address"
        },
        {
          "name": "_tokenId",
          "type": "uint256"
        }
      ],
      "name": "approve",
      "outputs": [],
      "payable": false,
      "stateMutability": "nonpayable",
      "type": "function"
    },
    {
      "constant": true,
      "inputs": [],
      "name": "totalSupply",
      "outputs": [
        {
          "name": "",
          "type": "uint256"
        }
      ],
      "payable": false,
      "stateMutability": "view",
      "type": "function"
    },
    {
      "constant": false,
      "inputs": [
        {
          "name": "_from",
          "type": "address"
        },
        {
          "name": "_to",
          "type": "address"
        },
        {
          "name": "_tokenId",
          "type": "uint256"
        }
      ],
      "name": "transferFrom",
      "outputs": [],
      "payable": false,
      "stateMutability": "nonpayable",
      "type": "function"
    },
    {
      "constant": false,
      "inputs": [
        {
          "name": "_recipient",
          "type": "address"
        },
        {
          "name": "_maxHealth",
          "type": "uint256"
        },
        {
          "name": "_speed",
          "type": "uint256"
        },
        {
          "name": "_strength",
          "type": "uint256"
        }
      ],
      "name": "customOwnerCreation",
      "outputs": [],
      "payable": false,
      "stateMutability": "nonpayable",
      "type": "function"
    },
    {
      "constant": false,
      "inputs": [
        {
          "name": "_fighterId",
          "type": "uint256"
        },
        {
          "name": "_attribute",
          "type": "string"
        },
        {
          "name": "_seed",
          "type": "uint256"
        }
      ],
      "name": "trainFighter",
      "outputs": [],
      "payable": false,
      "stateMutability": "nonpayable",
      "type": "function"
    },
    {
      "constant": false,
      "inputs": [
        {
          "name": "newProbability",
          "type": "uint256"
        }
      ],
      "name": "setFighterCreationChance",
      "outputs": [],
      "payable": false,
      "stateMutability": "nonpayable",
      "type": "function"
    },
    {
      "constant": true,
      "inputs": [
        {
          "name": "",
          "type": "uint256"
        }
      ],
      "name": "fighterIdToApproved",
      "outputs": [
        {
          "name": "",
          "type": "address"
        }
      ],
      "payable": false,
      "stateMutability": "view",
      "type": "function"
    },
    {
      "constant": false,
      "inputs": [
        {
          "name": "newFactor",
          "type": "uint256"
        }
      ],
      "name": "setTrainingFactor",
      "outputs": [],
      "payable": false,
      "stateMutability": "nonpayable",
      "type": "function"
    },
    {
      "constant": true,
      "inputs": [
        {
          "name": "",
          "type": "uint256"
        }
      ],
      "name": "fighterIdToOwner",
      "outputs": [
        {
          "name": "",
          "type": "address"
        }
      ],
      "payable": false,
      "stateMutability": "view",
      "type": "function"
    },
    {
      "constant": false,
      "inputs": [
        {
          "name": "_fighterId",
          "type": "uint256"
        }
      ],
      "name": "getInfoForFighter",
      "outputs": [
        {
          "name": "",
          "type": "uint256[4]"
        }
      ],
      "payable": false,
      "stateMutability": "nonpayable",
      "type": "function"
    },
    {
      "constant": true,
      "inputs": [
        {
          "name": "_tokenId",
          "type": "uint256"
        }
      ],
      "name": "ownerOf",
      "outputs": [
        {
          "name": "owner",
          "type": "address"
        }
      ],
      "payable": false,
      "stateMutability": "view",
      "type": "function"
    },
    {
      "constant": true,
      "inputs": [
        {
          "name": "_owner",
          "type": "address"
        }
      ],
      "name": "balanceOf",
      "outputs": [
        {
          "name": "count",
          "type": "uint256"
        }
      ],
      "payable": false,
      "stateMutability": "view",
      "type": "function"
    },
    {
      "constant": false,
      "inputs": [
        {
          "name": "_recipient",
          "type": "address"
        },
        {
          "name": "_seed",
          "type": "uint256"
        }
      ],
      "name": "ownerCreation",
      "outputs": [],
      "payable": false,
      "stateMutability": "nonpayable",
      "type": "function"
    },
    {
      "constant": true,
      "inputs": [
        {
          "name": "",
          "type": "address"
        },
        {
          "name": "",
          "type": "uint256"
        }
      ],
      "name": "ownedFighters",
      "outputs": [
        {
          "name": "",
          "type": "uint256"
        }
      ],
      "payable": false,
      "stateMutability": "view",
      "type": "function"
    },
    {
      "constant": true,
      "inputs": [
        {
          "name": "_owner",
          "type": "address"
        }
      ],
      "name": "tokensOfOwner",
      "outputs": [
        {
          "name": "ownerTokens",
          "type": "uint256[]"
        }
      ],
      "payable": false,
      "stateMutability": "view",
      "type": "function"
    },
    {
      "constant": true,
      "inputs": [],
      "name": "owner",
      "outputs": [
        {
          "name": "",
          "type": "address"
        }
      ],
      "payable": false,
      "stateMutability": "view",
      "type": "function"
    },
    {
      "constant": true,
      "inputs": [],
      "name": "symbol",
      "outputs": [
        {
          "name": "",
          "type": "string"
        }
      ],
      "payable": false,
      "stateMutability": "view",
      "type": "function"
    },
    {
      "constant": false,
      "inputs": [
        {
          "name": "_to",
          "type": "address"
        },
        {
          "name": "_tokenId",
          "type": "uint256"
        }
      ],
      "name": "transfer",
      "outputs": [],
      "payable": false,
      "stateMutability": "nonpayable",
      "type": "function"
    },
    {
      "constant": true,
      "inputs": [],
      "name": "trainingFactor",
      "outputs": [
        {
          "name": "",
          "type": "uint256"
        }
      ],
      "payable": false,
      "stateMutability": "view",
      "type": "function"
    },
    {
      "constant": true,
      "inputs": [],
      "name": "erc721Metadata",
      "outputs": [
        {
          "name": "",
          "type": "address"
        }
      ],
      "payable": false,
      "stateMutability": "view",
      "type": "function"
    },
    {
      "constant": false,
      "inputs": [
        {
          "name": "_contractAddress",
          "type": "address"
        }
      ],
      "name": "setMetadataAddress",
      "outputs": [],
      "payable": false,
      "stateMutability": "nonpayable",
      "type": "function"
    },
    {
      "constant": false,
      "inputs": [
        {
          "name": "_fighterId",
          "type": "uint256"
        }
      ],
      "name": "healFighter",
      "outputs": [],
      "payable": false,
      "stateMutability": "nonpayable",
      "type": "function"
    },
    {
      "constant": false,
      "inputs": [
        {
          "name": "newOwner",
          "type": "address"
        }
      ],
      "name": "transferOwnership",
      "outputs": [],
      "payable": false,
      "stateMutability": "nonpayable",
      "type": "function"
    },
    {
      "constant": true,
      "inputs": [],
      "name": "chanceOfFighterCreation",
      "outputs": [
        {
          "name": "",
          "type": "uint256"
        }
      ],
      "payable": false,
      "stateMutability": "view",
      "type": "function"
    },
    {
      "constant": false,
      "inputs": [
        {
          "name": "_seed",
          "type": "uint256"
        }
      ],
      "name": "searchForFighter",
      "outputs": [
        {
          "name": "fighterFound",
          "type": "bool"
        }
      ],
      "payable": false,
      "stateMutability": "nonpayable",
      "type": "function"
    },
    {
      "anonymous": false,
      "inputs": [
        {
          "indexed": false,
          "name": "from",
          "type": "address"
        },
        {
          "indexed": false,
          "name": "to",
          "type": "address"
        },
        {
          "indexed": false,
          "name": "tokenId",
          "type": "uint256"
        }
      ],
      "name": "Transfer",
      "type": "event"
    },
    {
      "anonymous": false,
      "inputs": [
        {
          "indexed": false,
          "name": "owner",
          "type": "address"
        },
        {
          "indexed": false,
          "name": "approved",
          "type": "address"
        },
        {
          "indexed": false,
          "name": "tokenId",
          "type": "uint256"
        }
      ],
      "name": "Approval",
      "type": "event"
    },
    {
      "anonymous": false,
      "inputs": [
        {
          "indexed": false,
          "name": "owner",
          "type": "address"
        },
        {
          "indexed": false,
          "name": "fighterId",
          "type": "uint256"
        }
      ],
      "name": "Creation",
      "type": "event"
    },
    {
      "anonymous": false,
      "inputs": [
        {
          "indexed": false,
          "name": "owner",
          "type": "address"
        },
        {
          "indexed": false,
          "name": "fighterId",
          "type": "uint256"
        },
        {
          "indexed": false,
          "name": "attribute",
          "type": "string"
        },
        {
          "indexed": false,
          "name": "increaseValue",
          "type": "uint256"
        }
      ],
      "name": "AttributeIncrease",
      "type": "event"
    },
    {
      "anonymous": false,
      "inputs": [
        {
          "indexed": false,
          "name": "owner",
          "type": "address"
        },
        {
          "indexed": false,
          "name": "fighterId",
          "type": "uint256"
        }
      ],
      "name": "Healed",
      "type": "event"
    },
    {
      "anonymous": false,
      "inputs": [
        {
          "indexed": false,
          "name": "fighterWasFound",
          "type": "bool"
        }
      ],
      "name": "FighterFound",
      "type": "event"
    }
  ],
  "bytecode": "0x60606040526003600181905560025560008054600160a060020a033316600160a060020a03199091161790556119c38061003a6000396000f3006060604052600436106101745763ffffffff7c010000000000000000000000000000000000000000000000000000000060003504166301ffc9a78114610179578063027f48f7146101c55780630560ff44146101f657806306fdde031461028f578063095ea7b3146102a257806318160ddd146102c657806323b872dd146102d95780633b61d9fa146103015780633f40d2881461032957806340e4e0481461034e57806344e59ee914610364578063495ac3a8146103965780634b193933146103ac5780634c67899b146103c25780636352211e1461041057806370a08231146104265780638053e5d8146104455780638357b8dd146104675780638462151c146104895780638da5cb5b146104fb57806395d89b411461050e578063a9059cbb14610521578063b64ce34a14610543578063bc4006f514610556578063e17b25af14610569578063efbeef8014610588578063f2fde38b1461059e578063f36014d2146105bd578063f6a67716146105d0575b600080fd5b341561018457600080fd5b6101b17fffffffff00000000000000000000000000000000000000000000000000000000600435166105e6565b604051901515815260200160405180910390f35b34156101d057600080fd5b6101e4600160a060020a036004351661086d565b60405190815260200160405180910390f35b341561020157600080fd5b61021860048035906024803590810191013561087f565b60405160208082528190810183818151815260200191508051906020019080838360005b8381101561025457808201518382015260200161023c565b50505050905090810190601f1680156102815780820380516001836020036101000a031916815260200191505b509250505060405180910390f35b341561029a57600080fd5b610218610975565b34156102ad57600080fd5b6102c4600160a060020a03600435166024356109ac565b005b34156102d157600080fd5b6101e4610a1f565b34156102e457600080fd5b6102c4600160a060020a0360043581169060243516604435610a26565b341561030c57600080fd5b6102c4600160a060020a0360043516602435604435606435610a96565b341561033457600080fd5b6102c4600480359060248035908101910135604435610ac4565b341561035957600080fd5b6102c4600435610b2e565b341561036f57600080fd5b61037a600435610b4e565b604051600160a060020a03909116815260200160405180910390f35b34156103a157600080fd5b6102c4600435610b69565b34156103b757600080fd5b61037a600435610b89565b34156103cd57600080fd5b6103d8600435610ba4565b6040518082608080838360005b838110156103fd5780820151838201526020016103e5565b5050505090500191505060405180910390f35b341561041b57600080fd5b61037a600435610c35565b341561043157600080fd5b6101e4600160a060020a0360043516610c59565b341561045057600080fd5b6102c4600160a060020a0360043516602435610c74565b341561047257600080fd5b6101e4600160a060020a0360043516602435610cb5565b341561049457600080fd5b6104a8600160a060020a0360043516610cd2565b60405160208082528190810183818151815260200191508051906020019060200280838360005b838110156104e75780820151838201526020016104cf565b505050509050019250505060405180910390f35b341561050657600080fd5b61037a610db3565b341561051957600080fd5b610218610dc2565b341561052c57600080fd5b6102c4600160a060020a0360043516602435610df9565b341561054e57600080fd5b6101e4610e53565b341561056157600080fd5b61037a610e59565b341561057457600080fd5b6102c4600160a060020a0360043516610e68565b341561059357600080fd5b6102c4600435610e97565b34156105a957600080fd5b6102c4600160a060020a0360043516610eb8565b34156105c857600080fd5b6101e4610f0f565b34156105db57600080fd5b6101b1600435610f15565b60006040517f737570706f727473496e7465726661636528627974657334290000000000000081526019016040518091039020600160e060020a03191682600160e060020a031916148061086557506040517f746f6b656e4d657461646174612875696e743235362c737472696e67290000008152601d0160405180910390206040517f746f6b656e734f664f776e657228616464726573732900000000000000000000815260160160405180910390206040517f7472616e7366657246726f6d28616464726573732c616464726573732c75696e81527f7432353629000000000000000000000000000000000000000000000000000000602082015260250160405180910390206040517f7472616e7366657228616464726573732c75696e743235362900000000000000815260190160405180910390206040517f617070726f766528616464726573732c75696e74323536290000000000000000815260180160405180910390206040517f6f776e65724f662875696e743235362900000000000000000000000000000000815260100160405180910390206040517f62616c616e63654f662861646472657373290000000000000000000000000000815260120160405180910390206040517f746f74616c537570706c792829000000000000000000000000000000000000008152600d0160405180910390206040517f73796d626f6c2829000000000000000000000000000000000000000000000000815260080160405180910390206040517f6e616d652829000000000000000000000000000000000000000000000000000081526006016040518091039020181818181818181818600160e060020a03191682600160e060020a031916145b90505b919050565b60056020526000908152604090205481565b6108876118b6565b61088f6118c8565b600854600090600160a060020a031615156108a957600080fd5b600854600160a060020a031663cb4799f2878787600060405160a001526040517c010000000000000000000000000000000000000000000000000000000063ffffffff861602815260048101848152604060248301908152604483018490529091606401848480828437820191505094505050505060a060405180830381600087803b151561093757600080fd5b6102c65a03f1151561094857600080fd5b5050506040518060800180516020909101604052909250905061096b8282610fe0565b9695505050505050565b60408051908101604052600b81527f43727970746f427261776c000000000000000000000000000000000000000000602082015281565b6109b63382611035565b15156109c157600080fd5b6109cb8183611055565b7f8c5be1e5ebec7d5bd14f71427d1e84f3dd0314c0f7b2291e5b200ac8c7c3b925338383604051600160a060020a039384168152919092166020820152604080820192909252606001905180910390a15050565b6003545b90565b600160a060020a0382161515610a3b57600080fd5b30600160a060020a031682600160a060020a031614151515610a5c57600080fd5b610a663382611090565b1515610a7157600080fd5b610a7b8382611035565b1515610a8657600080fd5b610a918383836110b0565b505050565b60005433600160a060020a03908116911614610ab157600080fd5b610abd838383876111c5565b5050505050565b6000610ad03386611035565b1515610adb57600080fd5b600254610ae7836112a4565b811515610af057fe5b049050610abd8585858080601f0160208091040260200160405190810160405281815292919060208401838380828437508894506112e49350505050565b60005433600160a060020a03908116911614610b4957600080fd5b600155565b600760205260009081526040902054600160a060020a031681565b60005433600160a060020a03908116911614610b8457600080fd5b600255565b600660205260009081526040902054600160a060020a031681565b610bac6118f1565b610bb4611918565b6003805484908110610bc257fe5b9060005260206000209060040201608060405190810160409081528254825260018301546020830152600283015481830152600390920154606082015291506080905190810160405280825181526020018260200151815260200182604001518152602001826060015190529392505050565b600081815260066020526040902054600160a060020a031680151561086857600080fd5b600160a060020a031660009081526005602052604090205490565b60008054819033600160a060020a03908116911614610c9257600080fd5b610c9b836112a4565b9150610ca6836112a4565b9050610abd600a8383876111c5565b600460209081526000928352604080842090915290825290205481565b610cda6118b6565b6000806000610ce76118b6565b6000610cf287610c59565b9450841515610d22576000604051805910610d0a5750595b90808252806020026020018201604052509550610da9565b60009350610d2e610a1f565b925084604051805910610d3e5750595b90808252806020026020018201604052509150600190505b828111610da557600081815260066020526040902054600160a060020a0388811691161415610d9d5780828581518110610d8c57fe5b602090810290910101526001909301925b600101610d56565b8195505b5050505050919050565b600054600160a060020a031681565b60408051908101604052600481527f4252574c00000000000000000000000000000000000000000000000000000000602082015281565b600160a060020a0382161515610e0e57600080fd5b30600160a060020a031682600160a060020a031614151515610e2f57600080fd5b610e393382611035565b1515610e4457600080fd5b610e4f3383836110b0565b5050565b60025481565b600854600160a060020a031681565b6008805473ffffffffffffffffffffffffffffffffffffffff1916600160a060020a0392909216919091179055565b610ea13382611035565b1515610eac57600080fd5b610eb5816114c9565b50565b60005433600160a060020a03908116911614610ed357600080fd5b600160a060020a03811615610eb55760008054600160a060020a03831673ffffffffffffffffffffffffffffffffffffffff1990911617905550565b60015481565b600080600080610f24856114d3565b925060015483811515610f3357fe5b061515610f9d57610f43856112a4565b9150610f4e856112a4565b9050610f5d600a8383336111c5565b507f7ebb470024e5eee1d5ff9ccf7830ab34657fb753526f8a9e99c50452cc06ead56001604051901515815260200160405180910390a160019350610fd8565b7f7ebb470024e5eee1d5ff9ccf7830ab34657fb753526f8a9e99c50452cc06ead56000604051901515815260200160405180910390a1600093505b505050919050565b610fe86118b6565b610ff06118b6565b600080846040518059106110015750595b818152601f19601f830116810160200160405290509250506020820190508461102b8282876114ff565b5090949350505050565b600090815260066020526040902054600160a060020a0391821691161490565b600091825260076020526040909120805473ffffffffffffffffffffffffffffffffffffffff1916600160a060020a03909216919091179055565b600090815260076020526040902054600160a060020a0391821691161490565b600160a060020a0380831660008181526004602090815260408083208684528252808320869055838352600582528083208054600101905585835260069091529020805473ffffffffffffffffffffffffffffffffffffffff1916909117905583161561117057600160a060020a0383166000818152600460209081526040808320858452825280832083905560078252808320805473ffffffffffffffffffffffffffffffffffffffff19169055928252600590522080546000190190555b7fddf252ad1be2c89b69c2b068fc378daa952ba7f163c4a11628f55a4df523b3ef838383604051600160a060020a039384168152919092166020820152604080820192909252606001905180910390a1505050565b60006111cf611918565b600060806040519081016040528088815260200188815260200187815260200186815250915060016003805480600101828161120b9190611941565b6000928352602090922085916004020181518155602082015181600101556040820151816002015560608201516003909101555003905063ffffffff8116811461125457600080fd5b7fc07d6fc5db170f8be7da51bea7bf502fb674192c618536ee210555994694b0b78482604051600160a060020a03909216825260208201526040908101905180910390a161096b600085836110b0565b600080600a6001430340846040519182526020820152604090810190519081900390208115156112d057fe5b0690508015156112de576001015b92915050565b6040517f6d61784865616c746800000000000000000000000000000000000000000000008152600901604051908190039020826040518082805190602001908083835b602083106113465780518252601f199092019160209182019101611327565b6001836020036101000a0380198251168184511617909252505050919091019250604091505051908190039020141561138957611384838233611544565b610a91565b6040517f737472656e6774680000000000000000000000000000000000000000000000008152600801604051908190039020826040518082805190602001908083835b602083106113eb5780518252601f1990920191602091820191016113cc565b6001836020036101000a0380198251168184511617909252505050919091019250604091505051908190039020141561142957611384838233611636565b6040517f73706565640000000000000000000000000000000000000000000000000000008152600501604051908190039020826040518082805190602001908083835b6020831061148b5780518252601f19909201916020918201910161146c565b6001836020036101000a03801982511681845116179092525050509190910192506040915050519081900390201415610a9157610a91838233611724565b610eb58133611811565b60008060646001430340846040519182526020820152604090810190519081900390208115156112d057fe5b60005b602082106115255782518452602084019350602083019250602082039150611502565b6001826020036101000a03905080198351168185511617909352505050565b61154c611918565b600380548590811061155a57fe5b906000526020600020906004020160806040519081016040908152825482526001830154602083015260028301549082015260039091015460608201529050828181815101905250805160208201527fca04611e80f005feb5aafd7553030c696e4de100604c325926807c6cbda6a7c382856001604051600160a060020a0390931683526020830191909152606082015260806040808301829052600a918301919091527f4d6178204865616c74680000000000000000000000000000000000000000000060a083015260c0909101905180910390a150505050565b61163e611918565b600380548590811061164c57fe5b9060005260206000209060040201608060405190810160409081528254825260018301546020830152600283015490820152600390910154606082019081529091508390818151019052507fca04611e80f005feb5aafd7553030c696e4de100604c325926807c6cbda6a7c382856001604051600160a060020a03909316835260208301919091526060820152608060408083018290526008918301919091527f537472656e67746800000000000000000000000000000000000000000000000060a083015260c0909101905180910390a150505050565b61172c611918565b600380548590811061173a57fe5b90600052602060002090600402016080604051908101604090815282548252600183015460208301526002830154908201908152600390920154606082015291508390818151019052507fca04611e80f005feb5aafd7553030c696e4de100604c325926807c6cbda6a7c382856001604051600160a060020a03909316835260208301919091526060820152608060408083018290526005918301919091527f537065656400000000000000000000000000000000000000000000000000000060a083015260c0909101905180910390a150505050565b611819611918565b600380548490811061182757fe5b906000526020600020906004020160806040519081016040908152825482526001830154602083015260028301549082015260039091015460608201529050805160208201527fb714a55d7bb8d35d8cf25c68ae8435a49a2faaffa841fcb1303d75dbf0a905688284604051600160a060020a03909216825260208201526040908101905180910390a1505050565b60206040519081016040526000815290565b60806040519081016040526004815b600081526000199190910190602001816118d75790505090565b60806040519081016040526004815b60008152602001906001900390816119005790505090565b608060405190810160405280600081526020016000815260200160008152602001600081525090565b815481835581811511610a9157600083815260209020610a9191610a239160049182028101918502015b808211156119935760008082556001820181905560028201819055600382015560040161196b565b50905600a165627a7a7230582047dc4f75fa679265c75bc8d304b11649409a6f70cf6ccd45bc2f095e40b39c020029",
  "source": "pragma solidity ^0.4.11;\n\nimport \"../lib/RandomNumber.sol\";\n\nimport \"../base/ERC721.sol\";\nimport \"../base/ERC721Metadata.sol\";\nimport \"./FighterConfig.sol\";\nimport \"./FighterBase.sol\";\nimport \"./FighterTraining.sol\";\n\ncontract FighterOwnership is FighterConfig, FighterBase, FighterTraining, ERC721 {\n\n    /// @notice Name and symbol of the non fungible token, as defined in ERC721.\n    string public constant name = \"CryptoBrawl\";\n    string public constant symbol = \"BRWL\";\n\n    // The contract that will return fighter metadata\n    ERC721Metadata public erc721Metadata;\n\n    bytes4 constant InterfaceSignature_ERC165 =\n        bytes4(keccak256('supportsInterface(bytes4)'));\n\n    bytes4 constant InterfaceSignature_ERC721 =\n        bytes4(keccak256('name()')) ^\n        bytes4(keccak256('symbol()')) ^\n        bytes4(keccak256('totalSupply()')) ^\n        bytes4(keccak256('balanceOf(address)')) ^\n        bytes4(keccak256('ownerOf(uint256)')) ^\n        bytes4(keccak256('approve(address,uint256)')) ^\n        bytes4(keccak256('transfer(address,uint256)')) ^\n        bytes4(keccak256('transferFrom(address,address,uint256)')) ^\n        bytes4(keccak256('tokensOfOwner(address)')) ^\n        bytes4(keccak256('tokenMetadata(uint256,string)'));\n\n    /// @notice Introspection interface as per ERC-165 (https://github.com/ethereum/EIPs/issues/165).\n    ///  Returns true for any standardized interfaces implemented by this contract. We implement\n    ///  ERC-165 (obviously!) and ERC-721.\n    function supportsInterface(bytes4 _interfaceID) external view returns (bool)\n    {\n      // DEBUG ONLY\n      //require((InterfaceSignature_ERC165 == 0x01ffc9a7) && (InterfaceSignature_ERC721 == 0x9a20483d));\n\n      return ((_interfaceID == InterfaceSignature_ERC165) || (_interfaceID == InterfaceSignature_ERC721));\n    }\n\n    /// @dev Set the address of the sibling contract that tracks metadata.\n    ///  CEO only.\n    function setMetadataAddress(address _contractAddress) public {\n      erc721Metadata = ERC721Metadata(_contractAddress);\n    }\n\n    // Internal utility functions: These functions all assume that their input arguments\n    // are valid. We leave it to public methods to sanitize their inputs and follow\n    // the required logic.\n\n    /// @dev Checks if a given address is the current owner of a particular fighter.\n    /// @param _claimant the address we are validating against.\n    /// @param _tokenId fighter id, only valid when > 0\n    function _owns(address _claimant, uint256 _tokenId) internal view returns (bool) {\n      return fighterIdToOwner[_tokenId] == _claimant;\n    }\n\n    /// @dev Checks if a given address currently has transferApproval for a particular fighter.\n    /// @param _claimant the address we are confirming kitten is approved for.\n    /// @param _tokenId fighter id, only valid when > 0\n    function _approvedFor(address _claimant, uint256 _tokenId) internal view returns (bool) {\n      return fighterIdToApproved[_tokenId] == _claimant;\n    }\n\n    /// @dev Marks an address as being approved for transferFrom(), overwriting any previous\n    ///  approval. Setting _approved to address(0) clears all transfer approval.\n    ///  NOTE: _approve() does NOT send the Approval event. This is intentional because\n    ///  _approve() and transferFrom() are used together for putting Kitties on auction, and\n    ///  there is no value in spamming the log with Approval events in that case.\n    function _approve(uint256 _tokenId, address _approved) internal {\n      fighterIdToApproved[_tokenId] = _approved;\n    }\n\n    /// @notice Returns the number of Fighters owned by a specific address.\n    /// @param _owner The owner address to check.\n    /// @dev Required for ERC-721 compliance\n    function balanceOf(address _owner) public view returns (uint256 count) {\n      return fighterCountForOwner[_owner];\n    }\n\n    /// @notice Transfers a Fighter to another address. If transferring to a smart\n    /// contract be VERY CAREFUL to ensure that it is aware of ERC-721.\n    /// @param _to The address of the recipient, can be a user or contract.\n    /// @param _tokenId The ID of the fighter to transfer.\n    /// @dev Required for ERC-721 compliance.\n    function transfer(address _to, uint256 _tokenId) external {\n      // Safety check to prevent against an unexpected 0x0 default.\n      require(_to != address(0));\n      // Disallow transfers to this contract to prevent accidental misuse.\n      require(_to != address(this));\n      // Disallow transfers to the auction contracts to prevent accidental\n      // You can only send your own fighter.\n      require(_owns(msg.sender, _tokenId));\n\n      // Reassign ownership, clear pending approvals, emit Transfer event.\n      _transfer(msg.sender, _to, _tokenId);\n    }\n\n    /// @notice Grant another address the right to transfer a specific fighter via\n    ///  transferFrom(). This is the preferred flow for transfering NFTs to contracts.\n    /// @param _to The address to be granted transfer approval. Pass address(0) to\n    ///  clear all approvals.\n    /// @param _tokenId The ID of the fighter that can be transferred if this call succeeds.\n    /// @dev Required for ERC-721 compliance.\n    function approve(address _to, uint256 _tokenId) external {\n      // Only an owner can grant transfer approval.\n      require(_owns(msg.sender, _tokenId));\n\n      // Register the approval (replacing any previous approval).\n      _approve(_tokenId, _to);\n\n      // Emit approval event.\n      Approval(msg.sender, _to, _tokenId);\n    }\n\n    /// @notice Transfer a fighter owned by another address, for which the calling address\n    ///  has previously been granted transfer approval by the owner.\n    /// @param _from The address that owns the fighter to be transfered.\n    /// @param _to The address that should take ownership of the fighter. Can be any address,\n    ///  including the caller.\n    /// @param _tokenId The ID of the fighter to be transferred.\n    /// @dev Required for ERC-721 compliance.\n    function transferFrom(address _from, address _to, uint256 _tokenId) external {\n      // Safety check to prevent against an unexpected 0x0 default.\n      require(_to != address(0));\n      // Disallow transfers to this contract to prevent accidental misuse.\n      require(_to != address(this));\n      // Check for approval and valid ownership\n      require(_approvedFor(msg.sender, _tokenId));\n      require(_owns(_from, _tokenId));\n\n      // Reassign ownership (also clears pending approvals and emits Transfer event).\n      _transfer(_from, _to, _tokenId);\n    }\n\n    /// @notice Returns the total number of fighters currently in existence.\n    /// @dev Required for ERC-721 compliance.\n    function totalSupply() public view returns (uint) {\n        return fighters.length;\n    }\n\n    /// @notice Returns the address currently assigned ownership of a given fighter.\n    /// @dev Required for ERC-721 compliance.\n    function ownerOf(uint256 _tokenId)\n        external\n        view\n        returns (address owner)\n    {\n        owner = fighterIdToOwner[_tokenId];\n\n        require(owner != address(0));\n    }\n\n    /// @notice Returns a list of all Fighter IDs assigned to an address.\n    /// @param _owner The owner whose Fighters we are interested in.\n    // This is mega expensive, make sure it's only being called from web3\n    function tokensOfOwner(address _owner) external view returns(uint256[] ownerTokens) {\n        uint256 tokenCount = balanceOf(_owner);\n\n        if (tokenCount == 0) {\n          // Return an empty array\n          return new uint256[](0);\n        } else {\n          uint256 resultIndex = 0;\n          uint256 totalFighters = totalSupply();\n          uint256[] memory result = new uint256[](tokenCount);\n\n          uint fighterId;\n          for (fighterId = 1; fighterId <= totalFighters; fighterId++) {\n            if (fighterIdToOwner[fighterId] == _owner) {\n              result[resultIndex] = fighterId;\n              resultIndex++;\n            }\n          }\n\n          return result;\n        }\n    }\n\n    /// @dev Adapted from memcpy() by @arachnid (Nick Johnson <arachnid@notdot.net>)\n    ///  This method is licenced under the Apache License.\n    ///  Ref: https://github.com/Arachnid/solidity-stringutils/blob/2f6ca9accb48ae14c66f1437ec50ed19a0616f78/strings.sol\n    function _memcpy(uint _dest, uint _src, uint _len) private view {\n        // Copy word-length chunks while possible\n        for(; _len >= 32; _len -= 32) {\n            assembly {\n                mstore(_dest, mload(_src))\n            }\n            _dest += 32;\n            _src += 32;\n        }\n\n        // Copy remaining bytes\n        uint256 mask = 256 ** (32 - _len) - 1;\n        assembly {\n            let srcpart := and(mload(_src), not(mask))\n            let destpart := and(mload(_dest), mask)\n            mstore(_dest, or(destpart, srcpart))\n        }\n    }\n\n    /// @dev Adapted from toString(slice) by @arachnid (Nick Johnson <arachnid@notdot.net>)\n    ///  This method is licenced under the Apache License.\n    ///  Ref: https://github.com/Arachnid/solidity-stringutils/blob/2f6ca9accb48ae14c66f1437ec50ed19a0616f78/strings.sol\n    function _toString(bytes32[4] _rawBytes, uint256 _stringLength) private view returns (string) {\n        var outputString = new string(_stringLength);\n        uint256 outputPtr;\n        uint256 bytesPtr;\n\n        assembly {\n            outputPtr := add(outputString, 32)\n            bytesPtr := _rawBytes\n        }\n\n        _memcpy(outputPtr, bytesPtr, _stringLength);\n\n        return outputString;\n    }\n\n    /// @notice Returns a URI pointing to a metadata package for this token conforming to\n    ///  ERC-721 (https://github.com/ethereum/EIPs/issues/721)\n    /// @param _tokenId The ID number of the fighter whose metadata should be returned.\n    function tokenMetadata(uint256 _tokenId, string _preferredTransport) external view returns (string infoUrl) {\n        require(erc721Metadata != address(0));\n        bytes32[4] memory buffer;\n        uint256 count;\n        (buffer, count) = erc721Metadata.getMetadata(_tokenId, _preferredTransport);\n\n        return _toString(buffer, count);\n    }\n\n    function healFighter(uint _fighterId) external {\n      require(_owns(msg.sender, _fighterId));\n      _heal(_fighterId);\n    }\n\n    function trainFighter(uint _fighterId, string _attribute, uint _seed) external {\n      require(_owns(msg.sender, _fighterId));\n      uint _attributeIncrease = (RandomNumber.rand1To10(_seed) / trainingFactor);\n      _train(_fighterId, _attribute, _attributeIncrease);\n    }\n\n    function searchForFighter(uint _seed) external returns (bool fighterFound) {\n      uint randomNum = RandomNumber.randomNum(_seed);\n\n      if (randomNum % chanceOfFighterCreation == 0) {\n        uint _speed = RandomNumber.rand1To10(_seed);\n        uint _strength = RandomNumber.rand1To10(_seed);\n        _createFighter(10, _speed, _strength, msg.sender);\n        FighterFound(true);\n        return true;\n      }\n      FighterFound(false);\n      return false;\n    }\n\n    function ownerCreation(address _recipient, uint _seed) public onlyOwner {\n      uint _speed = RandomNumber.rand1To10(_seed);\n      uint _strength = RandomNumber.rand1To10(_seed);\n      _createFighter(10, _speed, _strength, _recipient);\n    }\n\n    function customOwnerCreation(address _recipient, uint _maxHealth, uint _speed, uint _strength) public onlyOwner {\n      _createFighter(_maxHealth, _speed, _strength, _recipient);\n    }\n\n    function getInfoForFighter(uint _fighterId) public returns (uint[4]) {\n      Fighter memory _fighter = fighters[_fighterId];\n      return [uint(_fighter.maxHealth), _fighter.health, _fighter.speed, _fighter.strength];\n    }\n}\n",
  "sourcePath": "/Users/Aaron/Projects/cryptoclash/contracts/fighter/FighterOwnership.sol",
  "compiler": {
    "name": "solc",
    "version": "0.4.18+commit.9cf6e910.Emscripten.clang"
  },
  "schemaVersion": "1.0.1",
  "updatedAt": "2018-01-03T14:31:22.747Z"
}