{
  "contractName": "FighterTraining",
  "abi": [
    {
      "constant": true,
      "inputs": [
        {
          "name": "",
          "type": "address"
        }
      ],
      "name": "fighterCountForOwner",
      "outputs": [
        {
          "name": "",
          "type": "uint256"
        }
      ],
      "payable": false,
      "stateMutability": "view",
      "type": "function"
    },
    {
      "constant": true,
      "inputs": [
        {
          "name": "",
          "type": "uint256"
        }
      ],
      "name": "fighterIdToApproved",
      "outputs": [
        {
          "name": "",
          "type": "address"
        }
      ],
      "payable": false,
      "stateMutability": "view",
      "type": "function"
    },
    {
      "constant": true,
      "inputs": [
        {
          "name": "",
          "type": "uint256"
        }
      ],
      "name": "fighterIdToOwner",
      "outputs": [
        {
          "name": "",
          "type": "address"
        }
      ],
      "payable": false,
      "stateMutability": "view",
      "type": "function"
    },
    {
      "constant": true,
      "inputs": [
        {
          "name": "",
          "type": "address"
        },
        {
          "name": "",
          "type": "uint256"
        }
      ],
      "name": "ownedFighters",
      "outputs": [
        {
          "name": "",
          "type": "uint256"
        }
      ],
      "payable": false,
      "stateMutability": "view",
      "type": "function"
    },
    {
      "anonymous": false,
      "inputs": [
        {
          "indexed": false,
          "name": "owner",
          "type": "address"
        },
        {
          "indexed": false,
          "name": "fighterId",
          "type": "uint256"
        }
      ],
      "name": "Creation",
      "type": "event"
    },
    {
      "anonymous": false,
      "inputs": [
        {
          "indexed": false,
          "name": "from",
          "type": "address"
        },
        {
          "indexed": false,
          "name": "to",
          "type": "address"
        },
        {
          "indexed": false,
          "name": "fighterId",
          "type": "uint256"
        }
      ],
      "name": "Transfer",
      "type": "event"
    },
    {
      "anonymous": false,
      "inputs": [
        {
          "indexed": false,
          "name": "owner",
          "type": "address"
        },
        {
          "indexed": false,
          "name": "fighterId",
          "type": "uint256"
        },
        {
          "indexed": false,
          "name": "attribute",
          "type": "string"
        },
        {
          "indexed": false,
          "name": "increaseValue",
          "type": "uint256"
        }
      ],
      "name": "AttributeIncrease",
      "type": "event"
    },
    {
      "anonymous": false,
      "inputs": [
        {
          "indexed": false,
          "name": "owner",
          "type": "address"
        },
        {
          "indexed": false,
          "name": "fighterId",
          "type": "uint256"
        }
      ],
      "name": "Healed",
      "type": "event"
    },
    {
      "anonymous": false,
      "inputs": [
        {
          "indexed": false,
          "name": "fighterWasFound",
          "type": "bool"
        }
      ],
      "name": "FighterFound",
      "type": "event"
    }
  ],
  "bytecode": "0x6060604052341561000f57600080fd5b6101d38061001e6000396000f3006060604052600436106100615763ffffffff7c0100000000000000000000000000000000000000000000000000000000600035041663027f48f7811461006657806344e59ee9146100a45780634b193933146100e35780638357b8dd146100f9575b600080fd5b341561007157600080fd5b61009273ffffffffffffffffffffffffffffffffffffffff60043516610128565b60405190815260200160405180910390f35b34156100af57600080fd5b6100ba60043561013a565b60405173ffffffffffffffffffffffffffffffffffffffff909116815260200160405180910390f35b34156100ee57600080fd5b6100ba600435610162565b341561010457600080fd5b61009273ffffffffffffffffffffffffffffffffffffffff6004351660243561018a565b60026020526000908152604090205481565b60046020526000908152604090205473ffffffffffffffffffffffffffffffffffffffff1681565b60036020526000908152604090205473ffffffffffffffffffffffffffffffffffffffff1681565b6001602090815260009283526040808420909152908252902054815600a165627a7a72305820867b6dd6c5e5d78c3ba6c19eb30998f39595abf0294f3be265894b1877996ac70029",
  "source": "pragma solidity ^0.4.11;\n\nimport \"./FighterBase.sol\";\n\ncontract FighterTraining is FighterBase {\n  function _train(uint _fighterId, string _attribute, uint _attributeIncrease) internal {\n    if (keccak256(_attribute) == keccak256('maxHealth')) {\n      _trainMaxHealth(_fighterId, _attributeIncrease, msg.sender);\n    } else if (keccak256(_attribute) == keccak256('strength')) {\n      _trainStrength(_fighterId, _attributeIncrease, msg.sender);\n    } else if (keccak256(_attribute) == keccak256('speed')) {\n      _trainSpeed(_fighterId, _attributeIncrease, msg.sender);\n    }\n  }\n\n  function _heal(uint _fighterId) internal {\n    _healFighter(_fighterId, msg.sender);\n  }\n}\n",
  "sourcePath": "/Users/Aaron/Projects/cryptoclash/contracts/fighter/FighterTraining.sol",
  "compiler": {
    "name": "solc",
    "version": "0.4.18+commit.9cf6e910.Emscripten.clang"
  },
  "schemaVersion": "1.0.1",
  "updatedAt": "2018-01-03T14:31:22.739Z"
}