{
  "contractName": "FighterConfig",
  "abi": [
    {
      "constant": false,
      "inputs": [
        {
          "name": "newProbability",
          "type": "uint256"
        }
      ],
      "name": "setFighterCreationChance",
      "outputs": [],
      "payable": false,
      "stateMutability": "nonpayable",
      "type": "function"
    },
    {
      "constant": false,
      "inputs": [
        {
          "name": "newFactor",
          "type": "uint256"
        }
      ],
      "name": "setTrainingFactor",
      "outputs": [],
      "payable": false,
      "stateMutability": "nonpayable",
      "type": "function"
    },
    {
      "constant": true,
      "inputs": [],
      "name": "owner",
      "outputs": [
        {
          "name": "",
          "type": "address"
        }
      ],
      "payable": false,
      "stateMutability": "view",
      "type": "function"
    },
    {
      "constant": true,
      "inputs": [],
      "name": "trainingFactor",
      "outputs": [
        {
          "name": "",
          "type": "uint256"
        }
      ],
      "payable": false,
      "stateMutability": "view",
      "type": "function"
    },
    {
      "constant": false,
      "inputs": [
        {
          "name": "newOwner",
          "type": "address"
        }
      ],
      "name": "transferOwnership",
      "outputs": [],
      "payable": false,
      "stateMutability": "nonpayable",
      "type": "function"
    },
    {
      "constant": true,
      "inputs": [],
      "name": "chanceOfFighterCreation",
      "outputs": [
        {
          "name": "",
          "type": "uint256"
        }
      ],
      "payable": false,
      "stateMutability": "view",
      "type": "function"
    }
  ],
  "bytecode": "0x60606040526003600181905560025560008054600160a060020a033316600160a060020a031990911617905561020d8061003a6000396000f3006060604052600436106100775763ffffffff7c010000000000000000000000000000000000000000000000000000000060003504166340e4e048811461007c578063495ac3a8146100945780638da5cb5b146100aa578063b64ce34a146100d9578063f2fde38b146100fe578063f36014d21461011d575b600080fd5b341561008757600080fd5b610092600435610130565b005b341561009f57600080fd5b610092600435610150565b34156100b557600080fd5b6100bd610170565b604051600160a060020a03909116815260200160405180910390f35b34156100e457600080fd5b6100ec61017f565b60405190815260200160405180910390f35b341561010957600080fd5b610092600160a060020a0360043516610185565b341561012857600080fd5b6100ec6101db565b60005433600160a060020a0390811691161461014b57600080fd5b600155565b60005433600160a060020a0390811691161461016b57600080fd5b600255565b600054600160a060020a031681565b60025481565b60005433600160a060020a039081169116146101a057600080fd5b600160a060020a038116156101d8576000805473ffffffffffffffffffffffffffffffffffffffff1916600160a060020a0383161790555b50565b600154815600a165627a7a72305820c9be303d05ddea69f34041434f4c8d15311663f0215eeb88bc3f6b435a9f23a30029",
  "source": "pragma solidity ^0.4.11;\n\nimport \"../base/Ownable.sol\";\n\ncontract FighterConfig is Ownable {\n  uint public chanceOfFighterCreation = 3;\n  uint public trainingFactor = 3;\n\n  function setFighterCreationChance(uint newProbability) external onlyOwner {\n    chanceOfFighterCreation = newProbability;\n  }\n\n  function setTrainingFactor(uint newFactor) external onlyOwner {\n    trainingFactor = newFactor;\n  }\n}\n",
  "sourcePath": "/Users/Aaron/Projects/cryptoclash/contracts/fighter/FighterConfig.sol",
  "compiler": {
    "name": "solc",
    "version": "0.4.18+commit.9cf6e910.Emscripten.clang"
  },
  "schemaVersion": "1.0.1",
  "updatedAt": "2018-01-03T14:31:22.735Z"
}