{
  "contractName": "FighterTraining",
  "abi": [
    {
      "constant": true,
      "inputs": [
        {
          "name": "_interfaceID",
          "type": "bytes4"
        }
      ],
      "name": "supportsInterface",
      "outputs": [
        {
          "name": "",
          "type": "bool"
        }
      ],
      "payable": false,
      "stateMutability": "view",
      "type": "function"
    },
    {
      "constant": true,
      "inputs": [
        {
          "name": "",
          "type": "address"
        }
      ],
      "name": "fighterCountForOwner",
      "outputs": [
        {
          "name": "",
          "type": "uint256"
        }
      ],
      "payable": false,
      "stateMutability": "view",
      "type": "function"
    },
    {
      "constant": true,
      "inputs": [
        {
          "name": "_tokenId",
          "type": "uint256"
        },
        {
          "name": "_preferredTransport",
          "type": "string"
        }
      ],
      "name": "tokenMetadata",
      "outputs": [
        {
          "name": "infoUrl",
          "type": "string"
        }
      ],
      "payable": false,
      "stateMutability": "view",
      "type": "function"
    },
    {
      "constant": true,
      "inputs": [],
      "name": "name",
      "outputs": [
        {
          "name": "",
          "type": "string"
        }
      ],
      "payable": false,
      "stateMutability": "view",
      "type": "function"
    },
    {
      "constant": false,
      "inputs": [
        {
          "name": "_to",
          "type": "address"
        },
        {
          "name": "_tokenId",
          "type": "uint256"
        }
      ],
      "name": "approve",
      "outputs": [],
      "payable": false,
      "stateMutability": "nonpayable",
      "type": "function"
    },
    {
      "constant": true,
      "inputs": [],
      "name": "totalSupply",
      "outputs": [
        {
          "name": "",
          "type": "uint256"
        }
      ],
      "payable": false,
      "stateMutability": "view",
      "type": "function"
    },
    {
      "constant": false,
      "inputs": [
        {
          "name": "_from",
          "type": "address"
        },
        {
          "name": "_to",
          "type": "address"
        },
        {
          "name": "_tokenId",
          "type": "uint256"
        }
      ],
      "name": "transferFrom",
      "outputs": [],
      "payable": false,
      "stateMutability": "nonpayable",
      "type": "function"
    },
    {
      "constant": false,
      "inputs": [
        {
          "name": "_fighterId",
          "type": "uint256"
        },
        {
          "name": "_attribute",
          "type": "string"
        }
      ],
      "name": "trainFighter",
      "outputs": [],
      "payable": false,
      "stateMutability": "nonpayable",
      "type": "function"
    },
    {
      "constant": true,
      "inputs": [
        {
          "name": "",
          "type": "uint256"
        }
      ],
      "name": "fighterIdToApproved",
      "outputs": [
        {
          "name": "",
          "type": "address"
        }
      ],
      "payable": false,
      "stateMutability": "view",
      "type": "function"
    },
    {
      "constant": true,
      "inputs": [
        {
          "name": "",
          "type": "uint256"
        }
      ],
      "name": "fighterIdToOwner",
      "outputs": [
        {
          "name": "",
          "type": "address"
        }
      ],
      "payable": false,
      "stateMutability": "view",
      "type": "function"
    },
    {
      "constant": true,
      "inputs": [
        {
          "name": "_tokenId",
          "type": "uint256"
        }
      ],
      "name": "ownerOf",
      "outputs": [
        {
          "name": "owner",
          "type": "address"
        }
      ],
      "payable": false,
      "stateMutability": "view",
      "type": "function"
    },
    {
      "constant": true,
      "inputs": [
        {
          "name": "_owner",
          "type": "address"
        }
      ],
      "name": "balanceOf",
      "outputs": [
        {
          "name": "count",
          "type": "uint256"
        }
      ],
      "payable": false,
      "stateMutability": "view",
      "type": "function"
    },
    {
      "constant": true,
      "inputs": [
        {
          "name": "",
          "type": "address"
        },
        {
          "name": "",
          "type": "uint256"
        }
      ],
      "name": "ownedFighters",
      "outputs": [
        {
          "name": "",
          "type": "uint256"
        }
      ],
      "payable": false,
      "stateMutability": "view",
      "type": "function"
    },
    {
      "constant": true,
      "inputs": [
        {
          "name": "_owner",
          "type": "address"
        }
      ],
      "name": "tokensOfOwner",
      "outputs": [
        {
          "name": "ownerTokens",
          "type": "uint256[]"
        }
      ],
      "payable": false,
      "stateMutability": "view",
      "type": "function"
    },
    {
      "constant": true,
      "inputs": [],
      "name": "symbol",
      "outputs": [
        {
          "name": "",
          "type": "string"
        }
      ],
      "payable": false,
      "stateMutability": "view",
      "type": "function"
    },
    {
      "constant": false,
      "inputs": [
        {
          "name": "_to",
          "type": "address"
        },
        {
          "name": "_tokenId",
          "type": "uint256"
        }
      ],
      "name": "transfer",
      "outputs": [],
      "payable": false,
      "stateMutability": "nonpayable",
      "type": "function"
    },
    {
      "constant": true,
      "inputs": [],
      "name": "erc721Metadata",
      "outputs": [
        {
          "name": "",
          "type": "address"
        }
      ],
      "payable": false,
      "stateMutability": "view",
      "type": "function"
    },
    {
      "constant": false,
      "inputs": [
        {
          "name": "_contractAddress",
          "type": "address"
        }
      ],
      "name": "setMetadataAddress",
      "outputs": [],
      "payable": false,
      "stateMutability": "nonpayable",
      "type": "function"
    },
    {
      "constant": false,
      "inputs": [
        {
          "name": "_fighterId",
          "type": "uint256"
        }
      ],
      "name": "healFighter",
      "outputs": [],
      "payable": false,
      "stateMutability": "nonpayable",
      "type": "function"
    },
    {
      "anonymous": false,
      "inputs": [
        {
          "indexed": false,
          "name": "from",
          "type": "address"
        },
        {
          "indexed": false,
          "name": "to",
          "type": "address"
        },
        {
          "indexed": false,
          "name": "tokenId",
          "type": "uint256"
        }
      ],
      "name": "Transfer",
      "type": "event"
    },
    {
      "anonymous": false,
      "inputs": [
        {
          "indexed": false,
          "name": "owner",
          "type": "address"
        },
        {
          "indexed": false,
          "name": "approved",
          "type": "address"
        },
        {
          "indexed": false,
          "name": "tokenId",
          "type": "uint256"
        }
      ],
      "name": "Approval",
      "type": "event"
    },
    {
      "anonymous": false,
      "inputs": [
        {
          "indexed": false,
          "name": "owner",
          "type": "address"
        },
        {
          "indexed": false,
          "name": "fighterId",
          "type": "uint256"
        }
      ],
      "name": "Creation",
      "type": "event"
    },
    {
      "anonymous": false,
      "inputs": [
        {
          "indexed": false,
          "name": "owner",
          "type": "address"
        },
        {
          "indexed": false,
          "name": "fighterId",
          "type": "uint256"
        },
        {
          "indexed": false,
          "name": "attribute",
          "type": "string"
        },
        {
          "indexed": false,
          "name": "increaseValue",
          "type": "uint256"
        }
      ],
      "name": "AttributeIncrease",
      "type": "event"
    },
    {
      "anonymous": false,
      "inputs": [
        {
          "indexed": false,
          "name": "owner",
          "type": "address"
        },
        {
          "indexed": false,
          "name": "fighterId",
          "type": "uint256"
        }
      ],
      "name": "Healed",
      "type": "event"
    }
  ],
  "bytecode": "0x6060604052341561000f57600080fd5b611cc28061001e6000396000f300606060405260043610610107576000357c0100000000000000000000000000000000000000000000000000000000900463ffffffff16806301ffc9a71461010c578063027f48f7146101665780630560ff44146101b357806306fdde0314610263578063095ea7b3146102f157806318160ddd1461033357806323b872dd1461035c578063288b4f87146103bd57806344e59ee9146103f45780634b193933146104575780636352211e146104ba57806370a082311461051d5780638357b8dd1461056a5780638462151c146105c057806395d89b411461064e578063a9059cbb146106dc578063bc4006f51461071e578063e17b25af14610773578063efbeef80146107ac575b600080fd5b341561011757600080fd5b61014c60048080357bffffffffffffffffffffffffffffffffffffffffffffffffffffffff19169060200190919050506107cf565b604051808215151515815260200191505060405180910390f35b341561017157600080fd5b61019d600480803573ffffffffffffffffffffffffffffffffffffffff16906020019091905050610ae0565b6040518082815260200191505060405180910390f35b34156101be57600080fd5b6101e860048080359060200190919080359060200190820180359060200191909192905050610af8565b6040518080602001828103825283818151815260200191508051906020019080838360005b8381101561022857808201518184015260208101905061020d565b50505050905090810190601f1680156102555780820380516001836020036101000a031916815260200191505b509250505060405180910390f35b341561026e57600080fd5b610276610c63565b6040518080602001828103825283818151815260200191508051906020019080838360005b838110156102b657808201518184015260208101905061029b565b50505050905090810190601f1680156102e35780820380516001836020036101000a031916815260200191505b509250505060405180910390f35b34156102fc57600080fd5b610331600480803573ffffffffffffffffffffffffffffffffffffffff16906020019091908035906020019091905050610c9c565b005b341561033e57600080fd5b610346610d5e565b6040518082815260200191505060405180910390f35b341561036757600080fd5b6103bb600480803573ffffffffffffffffffffffffffffffffffffffff1690602001909190803573ffffffffffffffffffffffffffffffffffffffff16906020019091908035906020019091905050610d6e565b005b34156103c857600080fd5b6103f260048080359060200190919080359060200190820180359060200191909192905050610e1f565b005b34156103ff57600080fd5b6104156004808035906020019091905050610f87565b604051808273ffffffffffffffffffffffffffffffffffffffff1673ffffffffffffffffffffffffffffffffffffffff16815260200191505060405180910390f35b341561046257600080fd5b6104786004808035906020019091905050610fba565b604051808273ffffffffffffffffffffffffffffffffffffffff1673ffffffffffffffffffffffffffffffffffffffff16815260200191505060405180910390f35b34156104c557600080fd5b6104db6004808035906020019091905050610fed565b604051808273ffffffffffffffffffffffffffffffffffffffff1673ffffffffffffffffffffffffffffffffffffffff16815260200191505060405180910390f35b341561052857600080fd5b610554600480803573ffffffffffffffffffffffffffffffffffffffff16906020019091905050611066565b6040518082815260200191505060405180910390f35b341561057557600080fd5b6105aa600480803573ffffffffffffffffffffffffffffffffffffffff169060200190919080359060200190919050506110af565b6040518082815260200191505060405180910390f35b34156105cb57600080fd5b6105f7600480803573ffffffffffffffffffffffffffffffffffffffff169060200190919050506110d4565b6040518080602001828103825283818151815260200191508051906020019060200280838360005b8381101561063a57808201518184015260208101905061061f565b505050509050019250505060405180910390f35b341561065957600080fd5b61066161120b565b6040518080602001828103825283818151815260200191508051906020019080838360005b838110156106a1578082015181840152602081019050610686565b50505050905090810190601f1680156106ce5780820380516001836020036101000a031916815260200191505b509250505060405180910390f35b34156106e757600080fd5b61071c600480803573ffffffffffffffffffffffffffffffffffffffff16906020019091908035906020019091905050611244565b005b341561072957600080fd5b6107316112df565b604051808273ffffffffffffffffffffffffffffffffffffffff1673ffffffffffffffffffffffffffffffffffffffff16815260200191505060405180910390f35b341561077e57600080fd5b6107aa600480803573ffffffffffffffffffffffffffffffffffffffff16906020019091905050611305565b005b34156107b757600080fd5b6107cd6004808035906020019091905050611349565b005b600060405180807f737570706f727473496e74657266616365286279746573342900000000000000815250601901905060405180910390207bffffffffffffffffffffffffffffffffffffffffffffffffffffffff1916827bffffffffffffffffffffffffffffffffffffffffffffffffffffffff19161480610ad9575060405180807f746f6b656e4d657461646174612875696e743235362c737472696e6729000000815250601d019050604051809103902060405180807f746f6b656e734f664f776e6572286164647265737329000000000000000000008152506016019050604051809103902060405180807f7472616e7366657246726f6d28616464726573732c616464726573732c75696e81526020017f74323536290000000000000000000000000000000000000000000000000000008152506025019050604051809103902060405180807f7472616e7366657228616464726573732c75696e7432353629000000000000008152506019019050604051809103902060405180807f617070726f766528616464726573732c75696e743235362900000000000000008152506018019050604051809103902060405180807f6f776e65724f662875696e7432353629000000000000000000000000000000008152506010019050604051809103902060405180807f62616c616e63654f6628616464726573732900000000000000000000000000008152506012019050604051809103902060405180807f746f74616c537570706c79282900000000000000000000000000000000000000815250600d019050604051809103902060405180807f73796d626f6c28290000000000000000000000000000000000000000000000008152506008019050604051809103902060405180807f6e616d6528290000000000000000000000000000000000000000000000000000815250600601905060405180910390201818181818181818187bffffffffffffffffffffffffffffffffffffffffffffffffffffffff1916827bffffffffffffffffffffffffffffffffffffffffffffffffffffffff1916145b9050919050565b60026020528060005260406000206000915090505481565b610b00611c1a565b610b08611c2e565b60008073ffffffffffffffffffffffffffffffffffffffff16600560009054906101000a900473ffffffffffffffffffffffffffffffffffffffff1673ffffffffffffffffffffffffffffffffffffffff1614151515610b6757600080fd5b600560009054906101000a900473ffffffffffffffffffffffffffffffffffffffff1673ffffffffffffffffffffffffffffffffffffffff1663cb4799f2878787600060405160a001526040518463ffffffff167c010000000000000000000000000000000000000000000000000000000002815260040180848152602001806020018281038252848482818152602001925080828437820191505094505050505060a060405180830381600087803b1515610c2257600080fd5b6102c65a03f11515610c3357600080fd5b505050604051806080018051906020016040528092508193505050610c58828261136b565b925050509392505050565b6040805190810160405280600b81526020017f43727970746f427261776c00000000000000000000000000000000000000000081525081565b610ca633826113c3565b1515610cb157600080fd5b610cbb818361142f565b7f8c5be1e5ebec7d5bd14f71427d1e84f3dd0314c0f7b2291e5b200ac8c7c3b925338383604051808473ffffffffffffffffffffffffffffffffffffffff1673ffffffffffffffffffffffffffffffffffffffff1681526020018373ffffffffffffffffffffffffffffffffffffffff1673ffffffffffffffffffffffffffffffffffffffff168152602001828152602001935050505060405180910390a15050565b6000600160008054905003905090565b600073ffffffffffffffffffffffffffffffffffffffff168273ffffffffffffffffffffffffffffffffffffffff1614151515610daa57600080fd5b3073ffffffffffffffffffffffffffffffffffffffff168273ffffffffffffffffffffffffffffffffffffffff1614151515610de557600080fd5b610def3382611485565b1515610dfa57600080fd5b610e0483826113c3565b1515610e0f57600080fd5b610e1a8383836114f1565b505050565b610e2933846113c3565b1515610e3457600080fd5b60405180807f6d61784865616c7468000000000000000000000000000000000000000000000081525060090190506040518091039020600019168282604051808383808284378201915050925050506040518091039020600019161415610ea457610e9f833361179c565b610f82565b60405180807f737472656e67746800000000000000000000000000000000000000000000000081525060080190506040518091039020600019168282604051808383808284378201915050925050506040518091039020600019161415610f1457610f0f83336118ba565b610f81565b60405180807f737065656400000000000000000000000000000000000000000000000000000081525060050190506040518091039020600019168282604051808383808284378201915050925050506040518091039020600019161415610f8057610f7f83336119d8565b5b5b5b505050565b60046020528060005260406000206000915054906101000a900473ffffffffffffffffffffffffffffffffffffffff1681565b60036020528060005260406000206000915054906101000a900473ffffffffffffffffffffffffffffffffffffffff1681565b60006003600083815260200190815260200160002060009054906101000a900473ffffffffffffffffffffffffffffffffffffffff169050600073ffffffffffffffffffffffffffffffffffffffff168173ffffffffffffffffffffffffffffffffffffffff161415151561106157600080fd5b919050565b6000600260008373ffffffffffffffffffffffffffffffffffffffff1673ffffffffffffffffffffffffffffffffffffffff168152602001908152602001600020549050919050565b6001602052816000526040600020602052806000526040600020600091509150505481565b6110dc611c59565b60008060006110e9611c59565b60006110f487611066565b9450600085141561112657600060405180591061110e5750595b90808252806020026020018201604052509550611201565b60009350611132610d5e565b9250846040518059106111425750595b90808252806020026020018201604052509150600190505b82811115156111fd578673ffffffffffffffffffffffffffffffffffffffff166003600083815260200190815260200160002060009054906101000a900473ffffffffffffffffffffffffffffffffffffffff1673ffffffffffffffffffffffffffffffffffffffff1614156111f0578082858151811015156111d957fe5b906020019060200201818152505083806001019450505b808060010191505061115a565b8195505b5050505050919050565b6040805190810160405280600481526020017f4252574c0000000000000000000000000000000000000000000000000000000081525081565b600073ffffffffffffffffffffffffffffffffffffffff168273ffffffffffffffffffffffffffffffffffffffff161415151561128057600080fd5b3073ffffffffffffffffffffffffffffffffffffffff168273ffffffffffffffffffffffffffffffffffffffff16141515156112bb57600080fd5b6112c533826113c3565b15156112d057600080fd5b6112db3383836114f1565b5050565b600560009054906101000a900473ffffffffffffffffffffffffffffffffffffffff1681565b80600560006101000a81548173ffffffffffffffffffffffffffffffffffffffff021916908373ffffffffffffffffffffffffffffffffffffffff16021790555050565b61135333826113c3565b151561135e57600080fd5b6113688133611af6565b50565b611373611c1a565b61137b611c1a565b6000808460405180591061138c5750595b9080825280601f01601f191660200182016040525092506020830191508590506113b7828287611bcf565b82935050505092915050565b60008273ffffffffffffffffffffffffffffffffffffffff166003600084815260200190815260200160002060009054906101000a900473ffffffffffffffffffffffffffffffffffffffff1673ffffffffffffffffffffffffffffffffffffffff1614905092915050565b806004600084815260200190815260200160002060006101000a81548173ffffffffffffffffffffffffffffffffffffffff021916908373ffffffffffffffffffffffffffffffffffffffff1602179055505050565b60008273ffffffffffffffffffffffffffffffffffffffff166004600084815260200190815260200160002060009054906101000a900473ffffffffffffffffffffffffffffffffffffffff1673ffffffffffffffffffffffffffffffffffffffff1614905092915050565b80600160008473ffffffffffffffffffffffffffffffffffffffff1673ffffffffffffffffffffffffffffffffffffffff168152602001908152602001600020600083815260200190815260200160002081905550600260008373ffffffffffffffffffffffffffffffffffffffff1673ffffffffffffffffffffffffffffffffffffffff16815260200190815260200160002060008154809291906001019190505550816003600083815260200190815260200160002060006101000a81548173ffffffffffffffffffffffffffffffffffffffff021916908373ffffffffffffffffffffffffffffffffffffffff160217905550600073ffffffffffffffffffffffffffffffffffffffff168373ffffffffffffffffffffffffffffffffffffffff161415156116f857600160008473ffffffffffffffffffffffffffffffffffffffff1673ffffffffffffffffffffffffffffffffffffffff1681526020019081526020016000206000828152602001908152602001600020600090556004600082815260200190815260200160002060006101000a81549073ffffffffffffffffffffffffffffffffffffffff0219169055600260008473ffffffffffffffffffffffffffffffffffffffff1673ffffffffffffffffffffffffffffffffffffffff16815260200190815260200160002060008154809291906001900391905055505b7fddf252ad1be2c89b69c2b068fc378daa952ba7f163c4a11628f55a4df523b3ef838383604051808473ffffffffffffffffffffffffffffffffffffffff1673ffffffffffffffffffffffffffffffffffffffff1681526020018373ffffffffffffffffffffffffffffffffffffffff1673ffffffffffffffffffffffffffffffffffffffff168152602001828152602001935050505060405180910390a1505050565b6117a4611c6d565b6000838154811015156117b357fe5b906000526020600020906004020160806040519081016040529081600082015481526020016001820154815260200160028201548152602001600382015481525050905060018160000181815101915081815250507fca04611e80f005feb5aafd7553030c696e4de100604c325926807c6cbda6a7c382846001604051808473ffffffffffffffffffffffffffffffffffffffff1673ffffffffffffffffffffffffffffffffffffffff168152602001838152602001806020018381526020018281038252600a8152602001807f4d6178204865616c74680000000000000000000000000000000000000000000081525060200194505050505060405180910390a1505050565b6118c2611c6d565b6000838154811015156118d157fe5b906000526020600020906004020160806040519081016040529081600082015481526020016001820154815260200160028201548152602001600382015481525050905060018160600181815101915081815250507fca04611e80f005feb5aafd7553030c696e4de100604c325926807c6cbda6a7c382846001604051808473ffffffffffffffffffffffffffffffffffffffff1673ffffffffffffffffffffffffffffffffffffffff16815260200183815260200180602001838152602001828103825260088152602001807f537472656e67746800000000000000000000000000000000000000000000000081525060200194505050505060405180910390a1505050565b6119e0611c6d565b6000838154811015156119ef57fe5b906000526020600020906004020160806040519081016040529081600082015481526020016001820154815260200160028201548152602001600382015481525050905060018160400181815101915081815250507fca04611e80f005feb5aafd7553030c696e4de100604c325926807c6cbda6a7c382846001604051808473ffffffffffffffffffffffffffffffffffffffff1673ffffffffffffffffffffffffffffffffffffffff16815260200183815260200180602001838152602001828103825260058152602001807f537065656400000000000000000000000000000000000000000000000000000081525060200194505050505060405180910390a1505050565b611afe611c6d565b600083815481101515611b0d57fe5b906000526020600020906004020160806040519081016040529081600082015481526020016001820154815260200160028201548152602001600382015481525050905080600001518160200181815250507fb714a55d7bb8d35d8cf25c68ae8435a49a2faaffa841fcb1303d75dbf0a905688284604051808373ffffffffffffffffffffffffffffffffffffffff1673ffffffffffffffffffffffffffffffffffffffff1681526020018281526020019250505060405180910390a1505050565b60005b602082101515611bf75782518452602084019350602083019250602082039150611bd2565b6001826020036101000a0390508019835116818551168181178652505050505050565b602060405190810160405280600081525090565b6080604051908101604052806004905b6000801916815260200190600190039081611c3e5790505090565b602060405190810160405280600081525090565b6080604051908101604052806000815260200160008152602001600081526020016000815250905600a165627a7a7230582038ec160fd10857ac0f2858087d5b2a6b5f005e52c482fc19cd49b4f55690cff80029",
  "source": "pragma solidity ^0.4.11;\n\nimport \"./FighterOwnership.sol\";\n\ncontract FighterTraining is FighterOwnership {\n  function trainFighter(uint _fighterId, string _attribute) external {\n    require(_owns(msg.sender, _fighterId));\n\n    if (keccak256(_attribute) == keccak256('maxHealth')) {\n      _trainMaxHealth(_fighterId, msg.sender);\n    } else if (keccak256(_attribute) == keccak256('strength')) {\n      _trainStrength(_fighterId, msg.sender);\n    } else if (keccak256(_attribute) == keccak256('speed')) {\n      _trainSpeed(_fighterId, msg.sender);\n    }\n  }\n\n  function healFighter(uint _fighterId) external {\n    require(_owns(msg.sender, _fighterId));\n    _healFighter(_fighterId, msg.sender);\n  }\n}\n",
  "sourcePath": "/Users/Aaron/Projects/cryptoclash/contracts/fighter/FighterTraining.sol",
  "compiler": {
    "name": "solc",
    "version": "0.4.18+commit.9cf6e910.Emscripten.clang"
  },
  "schemaVersion": "1.0.1",
  "updatedAt": "2018-01-02T17:05:17.810Z"
}