{
  "contractName": "FighterBase",
  "abi": [
    {
      "constant": true,
      "inputs": [
        {
          "name": "",
          "type": "address"
        }
      ],
      "name": "fighterCountForOwner",
      "outputs": [
        {
          "name": "",
          "type": "uint256"
        }
      ],
      "payable": false,
      "stateMutability": "view",
      "type": "function"
    },
    {
      "constant": true,
      "inputs": [
        {
          "name": "",
          "type": "uint256"
        }
      ],
      "name": "fighterIdToApproved",
      "outputs": [
        {
          "name": "",
          "type": "address"
        }
      ],
      "payable": false,
      "stateMutability": "view",
      "type": "function"
    },
    {
      "constant": true,
      "inputs": [
        {
          "name": "",
          "type": "uint256"
        }
      ],
      "name": "fighterIdToOwner",
      "outputs": [
        {
          "name": "",
          "type": "address"
        }
      ],
      "payable": false,
      "stateMutability": "view",
      "type": "function"
    },
    {
      "constant": true,
      "inputs": [
        {
          "name": "",
          "type": "address"
        },
        {
          "name": "",
          "type": "uint256"
        }
      ],
      "name": "ownedFighters",
      "outputs": [
        {
          "name": "",
          "type": "uint256"
        }
      ],
      "payable": false,
      "stateMutability": "view",
      "type": "function"
    },
    {
      "anonymous": false,
      "inputs": [
        {
          "indexed": false,
          "name": "owner",
          "type": "address"
        },
        {
          "indexed": false,
          "name": "fighterId",
          "type": "uint256"
        }
      ],
      "name": "Creation",
      "type": "event"
    },
    {
      "anonymous": false,
      "inputs": [
        {
          "indexed": false,
          "name": "from",
          "type": "address"
        },
        {
          "indexed": false,
          "name": "to",
          "type": "address"
        },
        {
          "indexed": false,
          "name": "fighterId",
          "type": "uint256"
        }
      ],
      "name": "Transfer",
      "type": "event"
    },
    {
      "anonymous": false,
      "inputs": [
        {
          "indexed": false,
          "name": "owner",
          "type": "address"
        },
        {
          "indexed": false,
          "name": "fighterId",
          "type": "uint256"
        },
        {
          "indexed": false,
          "name": "attribute",
          "type": "string"
        },
        {
          "indexed": false,
          "name": "increaseValue",
          "type": "uint256"
        }
      ],
      "name": "AttributeIncrease",
      "type": "event"
    },
    {
      "anonymous": false,
      "inputs": [
        {
          "indexed": false,
          "name": "owner",
          "type": "address"
        },
        {
          "indexed": false,
          "name": "fighterId",
          "type": "uint256"
        }
      ],
      "name": "Healed",
      "type": "event"
    },
    {
      "anonymous": false,
      "inputs": [
        {
          "indexed": false,
          "name": "fighterWasFound",
          "type": "bool"
        }
      ],
      "name": "FighterFound",
      "type": "event"
    }
  ],
  "bytecode": "0x6060604052341561000f57600080fd5b6101e48061001e6000396000f3006060604052600436106100615763ffffffff7c0100000000000000000000000000000000000000000000000000000000600035041663027f48f7811461006657806344e59ee9146100a45780634b193933146100e35780638357b8dd146100f9575b600080fd5b341561007157600080fd5b61009273ffffffffffffffffffffffffffffffffffffffff60043516610128565b60405190815260200160405180910390f35b34156100af57600080fd5b6100ba60043561013a565b60405173ffffffffffffffffffffffffffffffffffffffff909116815260200160405180910390f35b34156100ee57600080fd5b6100ba600435610162565b341561010457600080fd5b61009273ffffffffffffffffffffffffffffffffffffffff6004351660243561018a565b60016020526000908152604090205481565b60036020526000908152604090205473ffffffffffffffffffffffffffffffffffffffff1681565b60026020526000908152604090205473ffffffffffffffffffffffffffffffffffffffff1681565b6004602052816000526040600020818154811015156101a557fe5b60009182526020909120015491508290505600a165627a7a7230582034a19fd0844acc9e4519bb6da39d0c4ac0f0ae89466d40bbc3cac85e4f11882e0029",
  "source": "pragma solidity ^0.4.18;\n\ncontract FighterBase {\n  /*** EVENTS ***/\n\n  event Creation(address owner, uint256 fighterId);\n  event Transfer(address from, address to, uint256 fighterId);\n  event AttributeIncrease(\n    address owner,\n    uint fighterId,\n    string attribute,\n    uint increaseValue\n  );\n  event Healed(address owner, uint fighterId);\n  event FighterFound(bool fighterWasFound);\n\n  struct Fighter {\n    uint256 maxHealth;\n    uint256 health;\n    uint256 speed;\n    uint256 strength;\n  }\n\n  /*** STORAGE ***/\n\n  Fighter[] fighters;\n  mapping(address => uint256) public fighterCountForOwner; // Need this for ERC721 compliance\n  mapping(uint256 => address) public fighterIdToOwner; // lookup for owner of a specific fighter\n  mapping(uint256 => address) public fighterIdToApproved; // Shows appoved address for sending of fighters, Needed for ERC721\n  mapping(address => uint256[]) public ownedFighters;\n\n  function _transfer(address _from, address _to, uint256 _fighterId) internal {\n    fighterCountForOwner[_to]++;\n    fighterIdToOwner[_fighterId] = _to;\n    ownedFighters[_to].push(_fighterId);\n\n    // Check that it isn't a newly created fighter before messing with ownership values\n    if (_from != address(0)) {\n      delete fighterIdToApproved[_fighterId];\n      _removeOwnedFighter(_from, _fighterId);\n      fighterCountForOwner[_from]--;\n    }\n    // Emit the transfer event.\n    Transfer(_from, _to, _fighterId);\n  }\n\n  function _removeOwnedFighter(address _oldOwner, uint256 _fighterId) internal {\n    uint index;\n    for(index = 0; index < ownedFighters[_oldOwner].length; index++) {\n      if (ownedFighters[_oldOwner][index] == _fighterId) {\n        delete ownedFighters[_oldOwner][index];\n      }\n    }\n  }\n\n  function _createFighter(\n    uint _maxHealth,\n    uint _speed,\n    uint _strength,\n    address _owner\n  )\n    internal\n    returns (uint)\n  {\n    Fighter memory _fighter = Fighter({\n      maxHealth: _maxHealth,\n      health: _maxHealth, // Fighters are always created with maximum health\n      speed: _speed,\n      strength: _strength\n    });\n\n    uint256 newFighterId = fighters.push(_fighter) - 1;\n\n    // 4 billion fighters is the max lel\n    require(newFighterId == uint256(uint32(newFighterId)));\n\n    Creation(_owner, newFighterId);\n\n    // This will assign ownership, and also emit the Transfer event as\n    // per ERC721 draft\n    _transfer(0, _owner, newFighterId);\n\n    return newFighterId;\n  }\n\n  function _updateFighterInStorage(Fighter _updatedFighter, uint _fighterId) internal {\n    fighters[_fighterId] = _updatedFighter;\n  }\n\n  function _trainMaxHealth(uint _fighterId, uint _attributeIncrease, address _owner) internal {\n    Fighter memory _fighter = fighters[_fighterId];\n\n    if (_fighter.health == _fighter.maxHealth) {\n      _fighter.health += _attributeIncrease;\n    }\n\n    _fighter.maxHealth += _attributeIncrease;\n    _updateFighterInStorage(_fighter, _fighterId);\n\n    AttributeIncrease(_owner, _fighterId, 'maxHealth', _attributeIncrease);\n  }\n\n  function _trainSpeed(uint _fighterId, uint _attributeIncrease, address _owner) internal {\n    Fighter memory _fighter = fighters[_fighterId];\n    _fighter.speed += _attributeIncrease;\n    _updateFighterInStorage(_fighter, _fighterId);\n\n    AttributeIncrease(_owner, _fighterId, 'speed', _attributeIncrease);\n  }\n\n  function _trainStrength(uint _fighterId, uint _attributeIncrease, address _owner) internal {\n    Fighter memory _fighter = fighters[_fighterId];\n    _fighter.strength += _attributeIncrease;\n    _updateFighterInStorage(_fighter, _fighterId);\n\n    AttributeIncrease(_owner, _fighterId, 'strength', _attributeIncrease);\n  }\n\n  // This function assumes that a fighter can actually be healed i.e this check is done elsewhere before any eth is taken\n  function _healFighter(uint _fighterId, address _owner) internal {\n    Fighter memory _fighter = fighters[_fighterId];\n    require(_fighter.health < _fighter.maxHealth);\n    \n    _fighter.health = _fighter.maxHealth;\n    _updateFighterInStorage(_fighter, _fighterId);\n\n    Healed(_owner, _fighterId);\n  }\n}\n",
  "sourcePath": "/Users/kendalla/projects/cryptoclash/contracts/fighter/FighterBase.sol",
  "compiler": {
    "name": "solc",
    "version": "0.4.18+commit.9cf6e910.Emscripten.clang"
  },
  "schemaVersion": "1.0.1",
  "updatedAt": "2018-01-24T13:16:20.189Z"
}