{
  "contractName": "FighterTraining",
  "abi": [
    {
      "constant": true,
      "inputs": [
        {
          "name": "",
          "type": "address"
        }
      ],
      "name": "fighterCountForOwner",
      "outputs": [
        {
          "name": "",
          "type": "uint256"
        }
      ],
      "payable": false,
      "stateMutability": "view",
      "type": "function"
    },
    {
      "constant": true,
      "inputs": [
        {
          "name": "",
          "type": "uint256"
        }
      ],
      "name": "fighterIdToApproved",
      "outputs": [
        {
          "name": "",
          "type": "address"
        }
      ],
      "payable": false,
      "stateMutability": "view",
      "type": "function"
    },
    {
      "constant": true,
      "inputs": [
        {
          "name": "",
          "type": "uint256"
        }
      ],
      "name": "fighterIdToOwner",
      "outputs": [
        {
          "name": "",
          "type": "address"
        }
      ],
      "payable": false,
      "stateMutability": "view",
      "type": "function"
    },
    {
      "anonymous": false,
      "inputs": [
        {
          "indexed": false,
          "name": "owner",
          "type": "address"
        },
        {
          "indexed": false,
          "name": "fighterId",
          "type": "uint256"
        }
      ],
      "name": "Creation",
      "type": "event"
    },
    {
      "anonymous": false,
      "inputs": [
        {
          "indexed": false,
          "name": "from",
          "type": "address"
        },
        {
          "indexed": false,
          "name": "to",
          "type": "address"
        },
        {
          "indexed": false,
          "name": "fighterId",
          "type": "uint256"
        }
      ],
      "name": "Transfer",
      "type": "event"
    },
    {
      "anonymous": false,
      "inputs": [
        {
          "indexed": false,
          "name": "owner",
          "type": "address"
        },
        {
          "indexed": false,
          "name": "fighterId",
          "type": "uint256"
        },
        {
          "indexed": false,
          "name": "attribute",
          "type": "string"
        },
        {
          "indexed": false,
          "name": "increaseValue",
          "type": "uint256"
        }
      ],
      "name": "AttributeIncrease",
      "type": "event"
    },
    {
      "anonymous": false,
      "inputs": [
        {
          "indexed": false,
          "name": "owner",
          "type": "address"
        },
        {
          "indexed": false,
          "name": "fighterId",
          "type": "uint256"
        }
      ],
      "name": "Healed",
      "type": "event"
    },
    {
      "anonymous": false,
      "inputs": [
        {
          "indexed": false,
          "name": "fighterWasFound",
          "type": "bool"
        }
      ],
      "name": "FighterFound",
      "type": "event"
    }
  ],
  "bytecode": "0x6060604052341561000f57600080fd5b61017c8061001e6000396000f3006060604052600436106100565763ffffffff7c0100000000000000000000000000000000000000000000000000000000600035041663027f48f7811461005b57806344e59ee9146100995780634b193933146100d8575b600080fd5b341561006657600080fd5b61008773ffffffffffffffffffffffffffffffffffffffff600435166100ee565b60405190815260200160405180910390f35b34156100a457600080fd5b6100af600435610100565b60405173ffffffffffffffffffffffffffffffffffffffff909116815260200160405180910390f35b34156100e357600080fd5b6100af600435610128565b60016020526000908152604090205481565b60036020526000908152604090205473ffffffffffffffffffffffffffffffffffffffff1681565b60026020526000908152604090205473ffffffffffffffffffffffffffffffffffffffff16815600a165627a7a72305820c33ad49a6b25144b46102f9730fe4376fd35e9f32eebd7c8e388cb304c77c62c0029",
  "source": "pragma solidity ^0.4.18;\n\nimport \"./FighterBase.sol\";\n\ncontract FighterTraining is FighterBase {\n  function _train(uint _fighterId, string _attribute, uint _attributeIncrease) internal {\n    if (keccak256(_attribute) == keccak256('maxHealth')) {\n      _trainMaxHealth(_fighterId, _attributeIncrease, msg.sender);\n    } else if (keccak256(_attribute) == keccak256('strength')) {\n      _trainStrength(_fighterId, _attributeIncrease, msg.sender);\n    } else if (keccak256(_attribute) == keccak256('speed')) {\n      _trainSpeed(_fighterId, _attributeIncrease, msg.sender);\n    }\n  }\n\n  function _heal(uint _fighterId) internal {\n    _healFighter(_fighterId, msg.sender);\n  }\n}\n",
  "sourcePath": "/Users/Aaron/Projects/cryptoclash/contracts/fighter/FighterTraining.sol",
  "compiler": {
    "name": "solc",
    "version": "0.4.18+commit.9cf6e910.Emscripten.clang"
  },
  "schemaVersion": "1.0.1",
  "updatedAt": "2018-01-05T10:46:53.468Z"
}