{
  "contractName": "FighterTraining",
  "abi": [
    {
      "constant": true,
      "inputs": [
        {
          "name": "_interfaceID",
          "type": "bytes4"
        }
      ],
      "name": "supportsInterface",
      "outputs": [
        {
          "name": "",
          "type": "bool"
        }
      ],
      "payable": false,
      "stateMutability": "view",
      "type": "function"
    },
    {
      "constant": true,
      "inputs": [
        {
          "name": "",
          "type": "address"
        }
      ],
      "name": "fighterCountForOwner",
      "outputs": [
        {
          "name": "",
          "type": "uint256"
        }
      ],
      "payable": false,
      "stateMutability": "view",
      "type": "function"
    },
    {
      "constant": true,
      "inputs": [
        {
          "name": "_tokenId",
          "type": "uint256"
        },
        {
          "name": "_preferredTransport",
          "type": "string"
        }
      ],
      "name": "tokenMetadata",
      "outputs": [
        {
          "name": "infoUrl",
          "type": "string"
        }
      ],
      "payable": false,
      "stateMutability": "view",
      "type": "function"
    },
    {
      "constant": true,
      "inputs": [],
      "name": "name",
      "outputs": [
        {
          "name": "",
          "type": "string"
        }
      ],
      "payable": false,
      "stateMutability": "view",
      "type": "function"
    },
    {
      "constant": false,
      "inputs": [
        {
          "name": "_to",
          "type": "address"
        },
        {
          "name": "_tokenId",
          "type": "uint256"
        }
      ],
      "name": "approve",
      "outputs": [],
      "payable": false,
      "stateMutability": "nonpayable",
      "type": "function"
    },
    {
      "constant": true,
      "inputs": [],
      "name": "totalSupply",
      "outputs": [
        {
          "name": "",
          "type": "uint256"
        }
      ],
      "payable": false,
      "stateMutability": "view",
      "type": "function"
    },
    {
      "constant": false,
      "inputs": [
        {
          "name": "_from",
          "type": "address"
        },
        {
          "name": "_to",
          "type": "address"
        },
        {
          "name": "_tokenId",
          "type": "uint256"
        }
      ],
      "name": "transferFrom",
      "outputs": [],
      "payable": false,
      "stateMutability": "nonpayable",
      "type": "function"
    },
    {
      "constant": false,
      "inputs": [
        {
          "name": "_fighterId",
          "type": "uint256"
        },
        {
          "name": "_attribute",
          "type": "string"
        }
      ],
      "name": "trainFighter",
      "outputs": [],
      "payable": false,
      "stateMutability": "nonpayable",
      "type": "function"
    },
    {
      "constant": true,
      "inputs": [
        {
          "name": "",
          "type": "uint256"
        }
      ],
      "name": "fighterIdToApproved",
      "outputs": [
        {
          "name": "",
          "type": "address"
        }
      ],
      "payable": false,
      "stateMutability": "view",
      "type": "function"
    },
    {
      "constant": true,
      "inputs": [
        {
          "name": "",
          "type": "uint256"
        }
      ],
      "name": "fighterIdToOwner",
      "outputs": [
        {
          "name": "",
          "type": "address"
        }
      ],
      "payable": false,
      "stateMutability": "view",
      "type": "function"
    },
    {
      "constant": true,
      "inputs": [
        {
          "name": "_tokenId",
          "type": "uint256"
        }
      ],
      "name": "ownerOf",
      "outputs": [
        {
          "name": "owner",
          "type": "address"
        }
      ],
      "payable": false,
      "stateMutability": "view",
      "type": "function"
    },
    {
      "constant": true,
      "inputs": [
        {
          "name": "_owner",
          "type": "address"
        }
      ],
      "name": "balanceOf",
      "outputs": [
        {
          "name": "count",
          "type": "uint256"
        }
      ],
      "payable": false,
      "stateMutability": "view",
      "type": "function"
    },
    {
      "constant": true,
      "inputs": [
        {
          "name": "",
          "type": "address"
        },
        {
          "name": "",
          "type": "uint256"
        }
      ],
      "name": "ownedFighters",
      "outputs": [
        {
          "name": "",
          "type": "uint256"
        }
      ],
      "payable": false,
      "stateMutability": "view",
      "type": "function"
    },
    {
      "constant": true,
      "inputs": [
        {
          "name": "_owner",
          "type": "address"
        }
      ],
      "name": "tokensOfOwner",
      "outputs": [
        {
          "name": "ownerTokens",
          "type": "uint256[]"
        }
      ],
      "payable": false,
      "stateMutability": "view",
      "type": "function"
    },
    {
      "constant": true,
      "inputs": [],
      "name": "symbol",
      "outputs": [
        {
          "name": "",
          "type": "string"
        }
      ],
      "payable": false,
      "stateMutability": "view",
      "type": "function"
    },
    {
      "constant": false,
      "inputs": [
        {
          "name": "_to",
          "type": "address"
        },
        {
          "name": "_tokenId",
          "type": "uint256"
        }
      ],
      "name": "transfer",
      "outputs": [],
      "payable": false,
      "stateMutability": "nonpayable",
      "type": "function"
    },
    {
      "constant": true,
      "inputs": [],
      "name": "erc721Metadata",
      "outputs": [
        {
          "name": "",
          "type": "address"
        }
      ],
      "payable": false,
      "stateMutability": "view",
      "type": "function"
    },
    {
      "constant": false,
      "inputs": [
        {
          "name": "_contractAddress",
          "type": "address"
        }
      ],
      "name": "setMetadataAddress",
      "outputs": [],
      "payable": false,
      "stateMutability": "nonpayable",
      "type": "function"
    },
    {
      "constant": false,
      "inputs": [
        {
          "name": "_fighterId",
          "type": "uint256"
        }
      ],
      "name": "healFighter",
      "outputs": [],
      "payable": false,
      "stateMutability": "nonpayable",
      "type": "function"
    },
    {
      "anonymous": false,
      "inputs": [
        {
          "indexed": false,
          "name": "from",
          "type": "address"
        },
        {
          "indexed": false,
          "name": "to",
          "type": "address"
        },
        {
          "indexed": false,
          "name": "tokenId",
          "type": "uint256"
        }
      ],
      "name": "Transfer",
      "type": "event"
    },
    {
      "anonymous": false,
      "inputs": [
        {
          "indexed": false,
          "name": "owner",
          "type": "address"
        },
        {
          "indexed": false,
          "name": "approved",
          "type": "address"
        },
        {
          "indexed": false,
          "name": "tokenId",
          "type": "uint256"
        }
      ],
      "name": "Approval",
      "type": "event"
    },
    {
      "anonymous": false,
      "inputs": [
        {
          "indexed": false,
          "name": "owner",
          "type": "address"
        },
        {
          "indexed": false,
          "name": "fighterId",
          "type": "uint256"
        }
      ],
      "name": "Creation",
      "type": "event"
    },
    {
      "anonymous": false,
      "inputs": [
        {
          "indexed": false,
          "name": "owner",
          "type": "address"
        },
        {
          "indexed": false,
          "name": "fighterId",
          "type": "uint256"
        },
        {
          "indexed": false,
          "name": "attribute",
          "type": "string"
        },
        {
          "indexed": false,
          "name": "increaseValue",
          "type": "uint256"
        }
      ],
      "name": "AttributeIncrease",
      "type": "event"
    },
    {
      "anonymous": false,
      "inputs": [
        {
          "indexed": false,
          "name": "owner",
          "type": "address"
        },
        {
          "indexed": false,
          "name": "fighterId",
          "type": "uint256"
        }
      ],
      "name": "Healed",
      "type": "event"
    }
  ],
  "bytecode": "0x6060604052341561000f57600080fd5b6112bf8061001e6000396000f3006060604052600436106101065763ffffffff7c010000000000000000000000000000000000000000000000000000000060003504166301ffc9a7811461010b578063027f48f7146101575780630560ff441461018857806306fdde0314610221578063095ea7b31461023457806318160ddd1461025857806323b872dd1461026b578063288b4f871461029357806344e59ee9146102b55780634b193933146102e75780636352211e146102fd57806370a08231146103135780638357b8dd146103325780638462151c1461035457806395d89b41146103c6578063a9059cbb146103d9578063bc4006f5146103fb578063e17b25af1461040e578063efbeef801461042d575b600080fd5b341561011657600080fd5b6101437fffffffff0000000000000000000000000000000000000000000000000000000060043516610443565b604051901515815260200160405180910390f35b341561016257600080fd5b610176600160a060020a03600435166106ca565b60405190815260200160405180910390f35b341561019357600080fd5b6101aa6004803590602480359081019101356106dc565b60405160208082528190810183818151815260200191508051906020019080838360005b838110156101e65780820151838201526020016101ce565b50505050905090810190601f1680156102135780820380516001836020036101000a031916815260200191505b509250505060405180910390f35b341561022c57600080fd5b6101aa6107d2565b341561023f57600080fd5b610256600160a060020a0360043516602435610809565b005b341561026357600080fd5b61017661087c565b341561027657600080fd5b610256600160a060020a0360043581169060243516604435610886565b341561029e57600080fd5b6102566004803590602480359081019101356108f6565b34156102c057600080fd5b6102cb600435610a30565b604051600160a060020a03909116815260200160405180910390f35b34156102f257600080fd5b6102cb600435610a4b565b341561030857600080fd5b6102cb600435610a66565b341561031e57600080fd5b610176600160a060020a0360043516610a8a565b341561033d57600080fd5b610176600160a060020a0360043516602435610aa5565b341561035f57600080fd5b610373600160a060020a0360043516610ac2565b60405160208082528190810183818151815260200191508051906020019060200280838360005b838110156103b257808201518382015260200161039a565b505050509050019250505060405180910390f35b34156103d157600080fd5b6101aa610ba3565b34156103e457600080fd5b610256600160a060020a0360043516602435610bda565b341561040657600080fd5b6102cb610c34565b341561041957600080fd5b610256600160a060020a0360043516610c43565b341561043857600080fd5b610256600435610c72565b60006040517f737570706f727473496e7465726661636528627974657334290000000000000081526019016040518091039020600160e060020a03191682600160e060020a03191614806106c257506040517f746f6b656e4d657461646174612875696e743235362c737472696e67290000008152601d0160405180910390206040517f746f6b656e734f664f776e657228616464726573732900000000000000000000815260160160405180910390206040517f7472616e7366657246726f6d28616464726573732c616464726573732c75696e81527f7432353629000000000000000000000000000000000000000000000000000000602082015260250160405180910390206040517f7472616e7366657228616464726573732c75696e743235362900000000000000815260190160405180910390206040517f617070726f766528616464726573732c75696e74323536290000000000000000815260180160405180910390206040517f6f776e65724f662875696e743235362900000000000000000000000000000000815260100160405180910390206040517f62616c616e63654f662861646472657373290000000000000000000000000000815260120160405180910390206040517f746f74616c537570706c792829000000000000000000000000000000000000008152600d0160405180910390206040517f73796d626f6c2829000000000000000000000000000000000000000000000000815260080160405180910390206040517f6e616d652829000000000000000000000000000000000000000000000000000081526006016040518091039020181818181818181818600160e060020a03191682600160e060020a031916145b90505b919050565b60026020526000908152604090205481565b6106e461122f565b6106ec611241565b600554600090600160a060020a0316151561070657600080fd5b600554600160a060020a031663cb4799f2878787600060405160a001526040517c010000000000000000000000000000000000000000000000000000000063ffffffff861602815260048101848152604060248301908152604483018490529091606401848480828437820191505094505050505060a060405180830381600087803b151561079457600080fd5b6102c65a03f115156107a557600080fd5b505050604051806080018051602090910160405290925090506107c88282610c94565b9695505050505050565b60408051908101604052600b81527f43727970746f427261776c000000000000000000000000000000000000000000602082015281565b6108133382610ce9565b151561081e57600080fd5b6108288183610d09565b7f8c5be1e5ebec7d5bd14f71427d1e84f3dd0314c0f7b2291e5b200ac8c7c3b925338383604051600160a060020a039384168152919092166020820152604080820192909252606001905180910390a15050565b6000546000190190565b600160a060020a038216151561089b57600080fd5b30600160a060020a031682600160a060020a0316141515156108bc57600080fd5b6108c63382610d44565b15156108d157600080fd5b6108db8382610ce9565b15156108e657600080fd5b6108f1838383610d64565b505050565b6109003384610ce9565b151561090b57600080fd5b6040517f6d61784865616c74680000000000000000000000000000000000000000000000815260090160405190819003902082826040518083838082843782019150509250505060405190819003902014156109705761096b8333610e79565b6108f1565b6040517f737472656e677468000000000000000000000000000000000000000000000000815260080160405190819003902082826040518083838082843782019150509250505060405190819003902014156109d05761096b8333610f66565b6040517f7370656564000000000000000000000000000000000000000000000000000000815260050160405190819003902082826040518083838082843782019150509250505060405190819003902014156108f1576108f18333611059565b600460205260009081526040902054600160a060020a031681565b600360205260009081526040902054600160a060020a031681565b600081815260036020526040902054600160a060020a03168015156106c557600080fd5b600160a060020a031660009081526002602052604090205490565b600160209081526000928352604080842090915290825290205481565b610aca61122f565b6000806000610ad761122f565b6000610ae287610a8a565b9450841515610b12576000604051805910610afa5750595b90808252806020026020018201604052509550610b99565b60009350610b1e61087c565b925084604051805910610b2e5750595b90808252806020026020018201604052509150600190505b828111610b9557600081815260036020526040902054600160a060020a0388811691161415610b8d5780828581518110610b7c57fe5b602090810290910101526001909301925b600101610b46565b8195505b5050505050919050565b60408051908101604052600481527f4252574c00000000000000000000000000000000000000000000000000000000602082015281565b600160a060020a0382161515610bef57600080fd5b30600160a060020a031682600160a060020a031614151515610c1057600080fd5b610c1a3382610ce9565b1515610c2557600080fd5b610c30338383610d64565b5050565b600554600160a060020a031681565b6005805473ffffffffffffffffffffffffffffffffffffffff1916600160a060020a0392909216919091179055565b610c7c3382610ce9565b1515610c8757600080fd5b610c918133611145565b50565b610c9c61122f565b610ca461122f565b60008084604051805910610cb55750595b818152601f19601f8301168101602001604052905092505060208201905084610cdf8282876111ea565b5090949350505050565b600090815260036020526040902054600160a060020a0391821691161490565b600091825260046020526040909120805473ffffffffffffffffffffffffffffffffffffffff1916600160a060020a03909216919091179055565b600090815260046020526040902054600160a060020a0391821691161490565b600160a060020a0380831660008181526001602081815260408084208785528252808420879055848452600282528084208054909301909255858352600390529020805473ffffffffffffffffffffffffffffffffffffffff19169091179055831615610e2457600160a060020a0383166000818152600160209081526040808320858452825280832083905560048252808320805473ffffffffffffffffffffffffffffffffffffffff19169055928252600290522080546000190190555b7fddf252ad1be2c89b69c2b068fc378daa952ba7f163c4a11628f55a4df523b3ef838383604051600160a060020a039384168152919092166020820152604080820192909252606001905180910390a1505050565b610e8161126a565b6000805484908110610e8f57fe5b9060005260206000209060040201608060405190810160409081528254825260018084015460208401526002840154918301919091526003909201546060820152915081818151019052507fca04611e80f005feb5aafd7553030c696e4de100604c325926807c6cbda6a7c382846001604051600160a060020a0390931683526020830191909152606082015260806040808301829052600a918301919091527f4d6178204865616c74680000000000000000000000000000000000000000000060a083015260c0909101905180910390a1505050565b610f6e61126a565b6000805484908110610f7c57fe5b9060005260206000209060040201608060405190810160405290816000820154815260200160018201548152602001600282015481526020016003820154815250509050600181606001818151019052507fca04611e80f005feb5aafd7553030c696e4de100604c325926807c6cbda6a7c382846001604051600160a060020a03909316835260208301919091526060820152608060408083018290526008918301919091527f537472656e67746800000000000000000000000000000000000000000000000060a083015260c0909101905180910390a1505050565b61106161126a565b600080548490811061106f57fe5b90600052602060002090600402016080604051908101604090815282548252600180840154602084015260028401549183019182526003909301546060830152909250818151019052507fca04611e80f005feb5aafd7553030c696e4de100604c325926807c6cbda6a7c382846001604051600160a060020a03909316835260208301919091526060820152608060408083018290526005918301919091527f537065656400000000000000000000000000000000000000000000000000000060a083015260c0909101905180910390a1505050565b61114d61126a565b600080548490811061115b57fe5b906000526020600020906004020160806040519081016040908152825482526001830154602083015260028301549082015260039091015460608201529050805160208201527fb714a55d7bb8d35d8cf25c68ae8435a49a2faaffa841fcb1303d75dbf0a905688284604051600160a060020a03909216825260208201526040908101905180910390a1505050565b60005b6020821061121057825184526020840193506020830192506020820391506111ed565b6001826020036101000a03905080198351168185511617909352505050565b60206040519081016040526000815290565b60806040519081016040526004815b600081526000199190910190602001816112505790505090565b6080604051908101604052806000815260200160008152602001600081526020016000815250905600a165627a7a72305820a16a9bd946c7d305bef4db5490db690ba54961fa646361b0b32ca0996097bacb0029",
  "source": "pragma solidity ^0.4.11;\n\nimport \"./FighterOwnership.sol\";\n\ncontract FighterTraining is FighterOwnership {\n  function trainFighter(uint _fighterId, string _attribute) external {\n    require(_owns(msg.sender, _fighterId));\n\n    if (keccak256(_attribute) == keccak256('maxHealth')) {\n      _trainMaxHealth(_fighterId, msg.sender);\n    } else if (keccak256(_attribute) == keccak256('strength')) {\n      _trainStrength(_fighterId, msg.sender);\n    } else if (keccak256(_attribute) == keccak256('speed')) {\n      _trainSpeed(_fighterId, msg.sender);\n    }\n  }\n\n  function healFighter(uint _fighterId) external {\n    require(_owns(msg.sender, _fighterId));\n    _healFighter(_fighterId, msg.sender);\n  }\n}\n",
  "sourcePath": "/Users/Aaron/Projects/cryptoclash/contracts/fighter/FighterTraining.sol",
  "compiler": {
    "name": "solc",
    "version": "0.4.18+commit.9cf6e910.Emscripten.clang"
  },
  "schemaVersion": "1.0.1",
  "updatedAt": "2018-01-02T20:52:43.609Z"
}