{
  "contractName": "FighterConfig",
  "abi": [
    {
      "constant": false,
      "inputs": [
        {
          "name": "newProbability",
          "type": "uint256"
        }
      ],
      "name": "setFighterCreationChance",
      "outputs": [],
      "payable": false,
      "stateMutability": "nonpayable",
      "type": "function"
    },
    {
      "constant": false,
      "inputs": [
        {
          "name": "newFactor",
          "type": "uint256"
        }
      ],
      "name": "setTrainingFactor",
      "outputs": [],
      "payable": false,
      "stateMutability": "nonpayable",
      "type": "function"
    },
    {
      "constant": true,
      "inputs": [],
      "name": "trainingCost",
      "outputs": [
        {
          "name": "",
          "type": "uint256"
        }
      ],
      "payable": false,
      "stateMutability": "view",
      "type": "function"
    },
    {
      "constant": true,
      "inputs": [],
      "name": "owner",
      "outputs": [
        {
          "name": "",
          "type": "address"
        }
      ],
      "payable": false,
      "stateMutability": "view",
      "type": "function"
    },
    {
      "constant": false,
      "inputs": [
        {
          "name": "newCost",
          "type": "uint256"
        }
      ],
      "name": "setNewTrainingCost",
      "outputs": [],
      "payable": false,
      "stateMutability": "nonpayable",
      "type": "function"
    },
    {
      "constant": true,
      "inputs": [],
      "name": "trainingFactor",
      "outputs": [
        {
          "name": "",
          "type": "uint256"
        }
      ],
      "payable": false,
      "stateMutability": "view",
      "type": "function"
    },
    {
      "constant": false,
      "inputs": [
        {
          "name": "newOwner",
          "type": "address"
        }
      ],
      "name": "transferOwnership",
      "outputs": [],
      "payable": false,
      "stateMutability": "nonpayable",
      "type": "function"
    },
    {
      "constant": true,
      "inputs": [],
      "name": "chanceOfFighterCreation",
      "outputs": [
        {
          "name": "",
          "type": "uint256"
        }
      ],
      "payable": false,
      "stateMutability": "view",
      "type": "function"
    }
  ],
  "bytecode": "0x60606040526003600181905560028190556611c37937e08000905560008054600160a060020a033316600160a060020a0319909116179055610272806100466000396000f30060606040526004361061008d5763ffffffff7c010000000000000000000000000000000000000000000000000000000060003504166340e4e0488114610092578063495ac3a8146100aa578063701a19fd146100c05780638da5cb5b146100e5578063a5557ce014610114578063b64ce34a1461012a578063f2fde38b1461013d578063f36014d21461015c575b600080fd5b341561009d57600080fd5b6100a860043561016f565b005b34156100b557600080fd5b6100a860043561018f565b34156100cb57600080fd5b6100d36101af565b60405190815260200160405180910390f35b34156100f057600080fd5b6100f86101b5565b604051600160a060020a03909116815260200160405180910390f35b341561011f57600080fd5b6100a86004356101c4565b341561013557600080fd5b6100d36101e4565b341561014857600080fd5b6100a8600160a060020a03600435166101ea565b341561016757600080fd5b6100d3610240565b60005433600160a060020a0390811691161461018a57600080fd5b600155565b60005433600160a060020a039081169116146101aa57600080fd5b600255565b60035481565b600054600160a060020a031681565b60005433600160a060020a039081169116146101df57600080fd5b600355565b60025481565b60005433600160a060020a0390811691161461020557600080fd5b600160a060020a0381161561023d576000805473ffffffffffffffffffffffffffffffffffffffff1916600160a060020a0383161790555b50565b600154815600a165627a7a72305820ad978efd43dbf29714d8d759eb0991a88fad30d79801d288591151394c0af1a20029",
  "source": "pragma solidity ^0.4.18;\n\nimport \"../base/Ownable.sol\";\n\ncontract FighterConfig is Ownable {\n  uint public chanceOfFighterCreation = 3;\n  uint public trainingFactor = 3;\n  uint256 public trainingCost = 5000000000000000; // cost of training in wei\n\n  function setFighterCreationChance(uint newProbability) external onlyOwner {\n    chanceOfFighterCreation = newProbability;\n  }\n\n  function setTrainingFactor(uint newFactor) external onlyOwner {\n    trainingFactor = newFactor;\n  }\n\n  function setNewTrainingCost(uint newCost) external onlyOwner {\n    trainingCost = newCost;\n  }\n}\n",
  "sourcePath": "/Users/kendalla/projects/cryptoclash/contracts/fighter/FighterConfig.sol",
  "compiler": {
    "name": "solc",
    "version": "0.4.18+commit.9cf6e910.Emscripten.clang"
  },
  "schemaVersion": "1.0.1",
  "updatedAt": "2018-02-07T12:10:29.177Z"
}