{
  "contractName": "FighterOwnership",
  "abi": [
    {
      "constant": true,
      "inputs": [
        {
          "name": "_interfaceID",
          "type": "bytes4"
        }
      ],
      "name": "supportsInterface",
      "outputs": [
        {
          "name": "",
          "type": "bool"
        }
      ],
      "payable": false,
      "stateMutability": "view",
      "type": "function"
    },
    {
      "constant": true,
      "inputs": [
        {
          "name": "",
          "type": "address"
        }
      ],
      "name": "fighterCountForOwner",
      "outputs": [
        {
          "name": "",
          "type": "uint256"
        }
      ],
      "payable": false,
      "stateMutability": "view",
      "type": "function"
    },
    {
      "constant": true,
      "inputs": [
        {
          "name": "_tokenId",
          "type": "uint256"
        },
        {
          "name": "_preferredTransport",
          "type": "string"
        }
      ],
      "name": "tokenMetadata",
      "outputs": [
        {
          "name": "infoUrl",
          "type": "string"
        }
      ],
      "payable": false,
      "stateMutability": "view",
      "type": "function"
    },
    {
      "constant": true,
      "inputs": [],
      "name": "name",
      "outputs": [
        {
          "name": "",
          "type": "string"
        }
      ],
      "payable": false,
      "stateMutability": "view",
      "type": "function"
    },
    {
      "constant": false,
      "inputs": [
        {
          "name": "_to",
          "type": "address"
        },
        {
          "name": "_tokenId",
          "type": "uint256"
        }
      ],
      "name": "approve",
      "outputs": [],
      "payable": false,
      "stateMutability": "nonpayable",
      "type": "function"
    },
    {
      "constant": true,
      "inputs": [],
      "name": "totalSupply",
      "outputs": [
        {
          "name": "",
          "type": "uint256"
        }
      ],
      "payable": false,
      "stateMutability": "view",
      "type": "function"
    },
    {
      "constant": false,
      "inputs": [
        {
          "name": "_from",
          "type": "address"
        },
        {
          "name": "_to",
          "type": "address"
        },
        {
          "name": "_tokenId",
          "type": "uint256"
        }
      ],
      "name": "transferFrom",
      "outputs": [],
      "payable": false,
      "stateMutability": "nonpayable",
      "type": "function"
    },
    {
      "constant": true,
      "inputs": [
        {
          "name": "",
          "type": "uint256"
        }
      ],
      "name": "fighterIdToApproved",
      "outputs": [
        {
          "name": "",
          "type": "address"
        }
      ],
      "payable": false,
      "stateMutability": "view",
      "type": "function"
    },
    {
      "constant": true,
      "inputs": [
        {
          "name": "",
          "type": "uint256"
        }
      ],
      "name": "fighterIdToOwner",
      "outputs": [
        {
          "name": "",
          "type": "address"
        }
      ],
      "payable": false,
      "stateMutability": "view",
      "type": "function"
    },
    {
      "constant": true,
      "inputs": [
        {
          "name": "_tokenId",
          "type": "uint256"
        }
      ],
      "name": "ownerOf",
      "outputs": [
        {
          "name": "owner",
          "type": "address"
        }
      ],
      "payable": false,
      "stateMutability": "view",
      "type": "function"
    },
    {
      "constant": true,
      "inputs": [
        {
          "name": "_owner",
          "type": "address"
        }
      ],
      "name": "balanceOf",
      "outputs": [
        {
          "name": "count",
          "type": "uint256"
        }
      ],
      "payable": false,
      "stateMutability": "view",
      "type": "function"
    },
    {
      "constant": true,
      "inputs": [
        {
          "name": "",
          "type": "address"
        },
        {
          "name": "",
          "type": "uint256"
        }
      ],
      "name": "ownedFighters",
      "outputs": [
        {
          "name": "",
          "type": "uint256"
        }
      ],
      "payable": false,
      "stateMutability": "view",
      "type": "function"
    },
    {
      "constant": true,
      "inputs": [
        {
          "name": "_owner",
          "type": "address"
        }
      ],
      "name": "tokensOfOwner",
      "outputs": [
        {
          "name": "ownerTokens",
          "type": "uint256[]"
        }
      ],
      "payable": false,
      "stateMutability": "view",
      "type": "function"
    },
    {
      "constant": true,
      "inputs": [],
      "name": "symbol",
      "outputs": [
        {
          "name": "",
          "type": "string"
        }
      ],
      "payable": false,
      "stateMutability": "view",
      "type": "function"
    },
    {
      "constant": false,
      "inputs": [
        {
          "name": "_to",
          "type": "address"
        },
        {
          "name": "_tokenId",
          "type": "uint256"
        }
      ],
      "name": "transfer",
      "outputs": [],
      "payable": false,
      "stateMutability": "nonpayable",
      "type": "function"
    },
    {
      "constant": true,
      "inputs": [],
      "name": "erc721Metadata",
      "outputs": [
        {
          "name": "",
          "type": "address"
        }
      ],
      "payable": false,
      "stateMutability": "view",
      "type": "function"
    },
    {
      "constant": false,
      "inputs": [
        {
          "name": "_contractAddress",
          "type": "address"
        }
      ],
      "name": "setMetadataAddress",
      "outputs": [],
      "payable": false,
      "stateMutability": "nonpayable",
      "type": "function"
    },
    {
      "anonymous": false,
      "inputs": [
        {
          "indexed": false,
          "name": "from",
          "type": "address"
        },
        {
          "indexed": false,
          "name": "to",
          "type": "address"
        },
        {
          "indexed": false,
          "name": "tokenId",
          "type": "uint256"
        }
      ],
      "name": "Transfer",
      "type": "event"
    },
    {
      "anonymous": false,
      "inputs": [
        {
          "indexed": false,
          "name": "owner",
          "type": "address"
        },
        {
          "indexed": false,
          "name": "approved",
          "type": "address"
        },
        {
          "indexed": false,
          "name": "tokenId",
          "type": "uint256"
        }
      ],
      "name": "Approval",
      "type": "event"
    },
    {
      "anonymous": false,
      "inputs": [
        {
          "indexed": false,
          "name": "owner",
          "type": "address"
        },
        {
          "indexed": false,
          "name": "fighterId",
          "type": "uint256"
        }
      ],
      "name": "Creation",
      "type": "event"
    },
    {
      "anonymous": false,
      "inputs": [
        {
          "indexed": false,
          "name": "owner",
          "type": "address"
        },
        {
          "indexed": false,
          "name": "fighterId",
          "type": "uint256"
        },
        {
          "indexed": false,
          "name": "attribute",
          "type": "string"
        },
        {
          "indexed": false,
          "name": "increaseValue",
          "type": "uint256"
        }
      ],
      "name": "AttributeIncrease",
      "type": "event"
    },
    {
      "anonymous": false,
      "inputs": [
        {
          "indexed": false,
          "name": "owner",
          "type": "address"
        },
        {
          "indexed": false,
          "name": "fighterId",
          "type": "uint256"
        }
      ],
      "name": "Healed",
      "type": "event"
    }
  ],
  "bytecode": "0x6060604052341561000f57600080fd5b610d7b8061001e6000396000f3006060604052600436106100f05763ffffffff7c010000000000000000000000000000000000000000000000000000000060003504166301ffc9a781146100f5578063027f48f7146101415780630560ff441461017257806306fdde031461020b578063095ea7b31461021e57806318160ddd1461024257806323b872dd1461025557806344e59ee91461027d5780634b193933146102af5780636352211e146102c557806370a08231146102db5780638357b8dd146102fa5780638462151c1461031c57806395d89b411461038e578063a9059cbb146103a1578063bc4006f5146103c3578063e17b25af146103d6575b600080fd5b341561010057600080fd5b61012d7fffffffff00000000000000000000000000000000000000000000000000000000600435166103f5565b604051901515815260200160405180910390f35b341561014c57600080fd5b610160600160a060020a036004351661067c565b60405190815260200160405180910390f35b341561017d57600080fd5b61019460048035906024803590810191013561068e565b60405160208082528190810183818151815260200191508051906020019080838360005b838110156101d05780820151838201526020016101b8565b50505050905090810190601f1680156101fd5780820380516001836020036101000a031916815260200191505b509250505060405180910390f35b341561021657600080fd5b610194610784565b341561022957600080fd5b610240600160a060020a03600435166024356107bb565b005b341561024d57600080fd5b61016061082e565b341561026057600080fd5b610240600160a060020a0360043581169060243516604435610838565b341561028857600080fd5b6102936004356108a8565b604051600160a060020a03909116815260200160405180910390f35b34156102ba57600080fd5b6102936004356108c3565b34156102d057600080fd5b6102936004356108de565b34156102e657600080fd5b610160600160a060020a0360043516610902565b341561030557600080fd5b610160600160a060020a036004351660243561091d565b341561032757600080fd5b61033b600160a060020a036004351661093a565b60405160208082528190810183818151815260200191508051906020019060200280838360005b8381101561037a578082015183820152602001610362565b505050509050019250505060405180910390f35b341561039957600080fd5b610194610a1b565b34156103ac57600080fd5b610240600160a060020a0360043516602435610a52565b34156103ce57600080fd5b610293610aac565b34156103e157600080fd5b610240600160a060020a0360043516610abb565b60006040517f737570706f727473496e7465726661636528627974657334290000000000000081526019016040518091039020600160e060020a03191682600160e060020a031916148061067457506040517f746f6b656e4d657461646174612875696e743235362c737472696e67290000008152601d0160405180910390206040517f746f6b656e734f664f776e657228616464726573732900000000000000000000815260160160405180910390206040517f7472616e7366657246726f6d28616464726573732c616464726573732c75696e81527f7432353629000000000000000000000000000000000000000000000000000000602082015260250160405180910390206040517f7472616e7366657228616464726573732c75696e743235362900000000000000815260190160405180910390206040517f617070726f766528616464726573732c75696e74323536290000000000000000815260180160405180910390206040517f6f776e65724f662875696e743235362900000000000000000000000000000000815260100160405180910390206040517f62616c616e63654f662861646472657373290000000000000000000000000000815260120160405180910390206040517f746f74616c537570706c792829000000000000000000000000000000000000008152600d0160405180910390206040517f73796d626f6c2829000000000000000000000000000000000000000000000000815260080160405180910390206040517f6e616d652829000000000000000000000000000000000000000000000000000081526006016040518091039020181818181818181818600160e060020a03191682600160e060020a031916145b90505b919050565b60026020526000908152604090205481565b610696610d14565b61069e610d26565b600554600090600160a060020a031615156106b857600080fd5b600554600160a060020a031663cb4799f2878787600060405160a001526040517c010000000000000000000000000000000000000000000000000000000063ffffffff861602815260048101848152604060248301908152604483018490529091606401848480828437820191505094505050505060a060405180830381600087803b151561074657600080fd5b6102c65a03f1151561075757600080fd5b5050506040518060800180516020909101604052909250905061077a8282610aea565b9695505050505050565b60408051908101604052600b81527f43727970746f427261776c000000000000000000000000000000000000000000602082015281565b6107c53382610b3f565b15156107d057600080fd5b6107da8183610b5f565b7f8c5be1e5ebec7d5bd14f71427d1e84f3dd0314c0f7b2291e5b200ac8c7c3b925338383604051600160a060020a039384168152919092166020820152604080820192909252606001905180910390a15050565b6000546000190190565b600160a060020a038216151561084d57600080fd5b30600160a060020a031682600160a060020a03161415151561086e57600080fd5b6108783382610b9a565b151561088357600080fd5b61088d8382610b3f565b151561089857600080fd5b6108a3838383610bba565b505050565b600460205260009081526040902054600160a060020a031681565b600360205260009081526040902054600160a060020a031681565b600081815260036020526040902054600160a060020a031680151561067757600080fd5b600160a060020a031660009081526002602052604090205490565b600160209081526000928352604080842090915290825290205481565b610942610d14565b600080600061094f610d14565b600061095a87610902565b945084151561098a5760006040518059106109725750595b90808252806020026020018201604052509550610a11565b6000935061099661082e565b9250846040518059106109a65750595b90808252806020026020018201604052509150600190505b828111610a0d57600081815260036020526040902054600160a060020a0388811691161415610a0557808285815181106109f457fe5b602090810290910101526001909301925b6001016109be565b8195505b5050505050919050565b60408051908101604052600481527f4252574c00000000000000000000000000000000000000000000000000000000602082015281565b600160a060020a0382161515610a6757600080fd5b30600160a060020a031682600160a060020a031614151515610a8857600080fd5b610a923382610b3f565b1515610a9d57600080fd5b610aa8338383610bba565b5050565b600554600160a060020a031681565b6005805473ffffffffffffffffffffffffffffffffffffffff1916600160a060020a0392909216919091179055565b610af2610d14565b610afa610d14565b60008084604051805910610b0b5750595b818152601f19601f8301168101602001604052905092505060208201905084610b35828287610ccf565b5090949350505050565b600090815260036020526040902054600160a060020a0391821691161490565b600091825260046020526040909120805473ffffffffffffffffffffffffffffffffffffffff1916600160a060020a03909216919091179055565b600090815260046020526040902054600160a060020a0391821691161490565b600160a060020a0380831660008181526001602081815260408084208785528252808420879055848452600282528084208054909301909255858352600390529020805473ffffffffffffffffffffffffffffffffffffffff19169091179055831615610c7a57600160a060020a0383166000818152600160209081526040808320858452825280832083905560048252808320805473ffffffffffffffffffffffffffffffffffffffff19169055928252600290522080546000190190555b7fddf252ad1be2c89b69c2b068fc378daa952ba7f163c4a11628f55a4df523b3ef838383604051600160a060020a039384168152919092166020820152604080820192909252606001905180910390a1505050565b60005b60208210610cf55782518452602084019350602083019250602082039150610cd2565b6001826020036101000a03905080198351168185511617909352505050565b60206040519081016040526000815290565b60806040519081016040526004815b60008152600019919091019060200181610d3557905050905600a165627a7a7230582021c693e635acb67bd27b3236f3f3de9449e7bdffde29736eb02c22c7b7e9162b0029",
  "source": "pragma solidity ^0.4.11;\n\nimport \"../base/ERC721.sol\";\nimport \"../base/ERC721Metadata.sol\";\nimport \"./FighterBase.sol\";\n\ncontract FighterOwnership is FighterBase, ERC721 {\n\n    /// @notice Name and symbol of the non fungible token, as defined in ERC721.\n    string public constant name = \"CryptoBrawl\";\n    string public constant symbol = \"BRWL\";\n\n    // The contract that will return fighter metadata\n    ERC721Metadata public erc721Metadata;\n\n    bytes4 constant InterfaceSignature_ERC165 =\n        bytes4(keccak256('supportsInterface(bytes4)'));\n\n    bytes4 constant InterfaceSignature_ERC721 =\n        bytes4(keccak256('name()')) ^\n        bytes4(keccak256('symbol()')) ^\n        bytes4(keccak256('totalSupply()')) ^\n        bytes4(keccak256('balanceOf(address)')) ^\n        bytes4(keccak256('ownerOf(uint256)')) ^\n        bytes4(keccak256('approve(address,uint256)')) ^\n        bytes4(keccak256('transfer(address,uint256)')) ^\n        bytes4(keccak256('transferFrom(address,address,uint256)')) ^\n        bytes4(keccak256('tokensOfOwner(address)')) ^\n        bytes4(keccak256('tokenMetadata(uint256,string)'));\n\n    /// @notice Introspection interface as per ERC-165 (https://github.com/ethereum/EIPs/issues/165).\n    ///  Returns true for any standardized interfaces implemented by this contract. We implement\n    ///  ERC-165 (obviously!) and ERC-721.\n    function supportsInterface(bytes4 _interfaceID) external view returns (bool)\n    {\n      // DEBUG ONLY\n      //require((InterfaceSignature_ERC165 == 0x01ffc9a7) && (InterfaceSignature_ERC721 == 0x9a20483d));\n\n      return ((_interfaceID == InterfaceSignature_ERC165) || (_interfaceID == InterfaceSignature_ERC721));\n    }\n\n    /// @dev Set the address of the sibling contract that tracks metadata.\n    ///  CEO only.\n    function setMetadataAddress(address _contractAddress) public {\n      erc721Metadata = ERC721Metadata(_contractAddress);\n    }\n\n    // Internal utility functions: These functions all assume that their input arguments\n    // are valid. We leave it to public methods to sanitize their inputs and follow\n    // the required logic.\n\n    /// @dev Checks if a given address is the current owner of a particular fighter.\n    /// @param _claimant the address we are validating against.\n    /// @param _tokenId fighter id, only valid when > 0\n    function _owns(address _claimant, uint256 _tokenId) internal view returns (bool) {\n      return fighterIdToOwner[_tokenId] == _claimant;\n    }\n\n    /// @dev Checks if a given address currently has transferApproval for a particular fighter.\n    /// @param _claimant the address we are confirming kitten is approved for.\n    /// @param _tokenId fighter id, only valid when > 0\n    function _approvedFor(address _claimant, uint256 _tokenId) internal view returns (bool) {\n      return fighterIdToApproved[_tokenId] == _claimant;\n    }\n\n    /// @dev Marks an address as being approved for transferFrom(), overwriting any previous\n    ///  approval. Setting _approved to address(0) clears all transfer approval.\n    ///  NOTE: _approve() does NOT send the Approval event. This is intentional because\n    ///  _approve() and transferFrom() are used together for putting Kitties on auction, and\n    ///  there is no value in spamming the log with Approval events in that case.\n    function _approve(uint256 _tokenId, address _approved) internal {\n      fighterIdToApproved[_tokenId] = _approved;\n    }\n\n    /// @notice Returns the number of Fighters owned by a specific address.\n    /// @param _owner The owner address to check.\n    /// @dev Required for ERC-721 compliance\n    function balanceOf(address _owner) public view returns (uint256 count) {\n      return fighterCountForOwner[_owner];\n    }\n\n    /// @notice Transfers a Fighter to another address. If transferring to a smart\n    ///  contract be VERY CAREFUL to ensure that it is aware of ERC-721.\n    /// @param _to The address of the recipient, can be a user or contract.\n    /// @param _tokenId The ID of the fighter to transfer.\n    /// @dev Required for ERC-721 compliance.\n    function transfer(address _to, uint256 _tokenId) external {\n      // Safety check to prevent against an unexpected 0x0 default.\n      require(_to != address(0));\n      // Disallow transfers to this contract to prevent accidental misuse.\n      // The contract should never own any kitties (except very briefly\n      // after a gen0 cat is created and before it goes on auction).\n      require(_to != address(this));\n      // Disallow transfers to the auction contracts to prevent accidental\n      // misuse. Auction contracts should only take ownership of kitties\n      // through the allow + transferFrom flow.\n      /* require(_to != address(saleAuction)); */\n      /* require(_to != address(siringAuction)); */\n\n      // You can only send your own cat.\n      require(_owns(msg.sender, _tokenId));\n\n      // Reassign ownership, clear pending approvals, emit Transfer event.\n      _transfer(msg.sender, _to, _tokenId);\n    }\n\n    /// @notice Grant another address the right to transfer a specific fighter via\n    ///  transferFrom(). This is the preferred flow for transfering NFTs to contracts.\n    /// @param _to The address to be granted transfer approval. Pass address(0) to\n    ///  clear all approvals.\n    /// @param _tokenId The ID of the fighter that can be transferred if this call succeeds.\n    /// @dev Required for ERC-721 compliance.\n    function approve(address _to, uint256 _tokenId) external {\n      // Only an owner can grant transfer approval.\n      require(_owns(msg.sender, _tokenId));\n\n      // Register the approval (replacing any previous approval).\n      _approve(_tokenId, _to);\n\n      // Emit approval event.\n      Approval(msg.sender, _to, _tokenId);\n    }\n\n    /// @notice Transfer a fighter owned by another address, for which the calling address\n    ///  has previously been granted transfer approval by the owner.\n    /// @param _from The address that owns the fighter to be transfered.\n    /// @param _to The address that should take ownership of the fighter. Can be any address,\n    ///  including the caller.\n    /// @param _tokenId The ID of the fighter to be transferred.\n    /// @dev Required for ERC-721 compliance.\n    function transferFrom(address _from, address _to, uint256 _tokenId) external {\n      // Safety check to prevent against an unexpected 0x0 default.\n      require(_to != address(0));\n      // Disallow transfers to this contract to prevent accidental misuse.\n      // The contract should never own any kitties (except very briefly\n      // after a gen0 cat is created and before it goes on auction).\n      require(_to != address(this));\n      // Check for approval and valid ownership\n      require(_approvedFor(msg.sender, _tokenId));\n      require(_owns(_from, _tokenId));\n\n      // Reassign ownership (also clears pending approvals and emits Transfer event).\n      _transfer(_from, _to, _tokenId);\n    }\n\n    /// @notice Returns the total number of Kitties currently in existence.\n    /// @dev Required for ERC-721 compliance.\n    function totalSupply() public view returns (uint) {\n        return fighters.length - 1;\n    }\n\n    /// @notice Returns the address currently assigned ownership of a given fighter.\n    /// @dev Required for ERC-721 compliance.\n    function ownerOf(uint256 _tokenId)\n        external\n        view\n        returns (address owner)\n    {\n        owner = fighterIdToOwner[_tokenId];\n\n        require(owner != address(0));\n    }\n\n    /// @notice Returns a list of all Fighter IDs assigned to an address.\n    /// @param _owner The owner whose Fighters we are interested in.\n    // This is mega expensive, make sure it's only being called from web3\n    function tokensOfOwner(address _owner) external view returns(uint256[] ownerTokens) {\n        uint256 tokenCount = balanceOf(_owner);\n\n        if (tokenCount == 0) {\n          // Return an empty array\n          return new uint256[](0);\n        } else {\n          uint256 resultIndex = 0;\n          uint256 totalFighters = totalSupply();\n          uint256[] memory result = new uint256[](tokenCount);\n\n          uint fighterId;\n          for (fighterId = 1; fighterId <= totalFighters; fighterId++) {\n            if (fighterIdToOwner[fighterId] == _owner) {\n              result[resultIndex] = fighterId;\n              resultIndex++;\n            }\n          }\n\n          return result;\n        }\n    }\n\n    /// @dev Adapted from memcpy() by @arachnid (Nick Johnson <arachnid@notdot.net>)\n    ///  This method is licenced under the Apache License.\n    ///  Ref: https://github.com/Arachnid/solidity-stringutils/blob/2f6ca9accb48ae14c66f1437ec50ed19a0616f78/strings.sol\n    function _memcpy(uint _dest, uint _src, uint _len) private view {\n        // Copy word-length chunks while possible\n        for(; _len >= 32; _len -= 32) {\n            assembly {\n                mstore(_dest, mload(_src))\n            }\n            _dest += 32;\n            _src += 32;\n        }\n\n        // Copy remaining bytes\n        uint256 mask = 256 ** (32 - _len) - 1;\n        assembly {\n            let srcpart := and(mload(_src), not(mask))\n            let destpart := and(mload(_dest), mask)\n            mstore(_dest, or(destpart, srcpart))\n        }\n    }\n\n    /// @dev Adapted from toString(slice) by @arachnid (Nick Johnson <arachnid@notdot.net>)\n    ///  This method is licenced under the Apache License.\n    ///  Ref: https://github.com/Arachnid/solidity-stringutils/blob/2f6ca9accb48ae14c66f1437ec50ed19a0616f78/strings.sol\n    function _toString(bytes32[4] _rawBytes, uint256 _stringLength) private view returns (string) {\n        var outputString = new string(_stringLength);\n        uint256 outputPtr;\n        uint256 bytesPtr;\n\n        assembly {\n            outputPtr := add(outputString, 32)\n            bytesPtr := _rawBytes\n        }\n\n        _memcpy(outputPtr, bytesPtr, _stringLength);\n\n        return outputString;\n    }\n\n    /// @notice Returns a URI pointing to a metadata package for this token conforming to\n    ///  ERC-721 (https://github.com/ethereum/EIPs/issues/721)\n    /// @param _tokenId The ID number of the fighter whose metadata should be returned.\n    function tokenMetadata(uint256 _tokenId, string _preferredTransport) external view returns (string infoUrl) {\n        require(erc721Metadata != address(0));\n        bytes32[4] memory buffer;\n        uint256 count;\n        (buffer, count) = erc721Metadata.getMetadata(_tokenId, _preferredTransport);\n\n        return _toString(buffer, count);\n    }\n}\n",
  "sourcePath": "/Users/Aaron/Projects/cryptoclash/contracts/fighter/FighterOwnership.sol",
  "compiler": {
    "name": "solc",
    "version": "0.4.18+commit.9cf6e910.Emscripten.clang"
  },
  "schemaVersion": "1.0.1",
  "updatedAt": "2018-01-02T20:52:43.623Z"
}