{
  "contractName": "FighterTraining",
  "abi": [
    {
      "constant": true,
      "inputs": [
        {
          "name": "",
          "type": "address"
        }
      ],
      "name": "fighterCountForOwner",
      "outputs": [
        {
          "name": "",
          "type": "uint256"
        }
      ],
      "payable": false,
      "stateMutability": "view",
      "type": "function"
    },
    {
      "constant": true,
      "inputs": [
        {
          "name": "",
          "type": "uint256"
        }
      ],
      "name": "fighterIdToApproved",
      "outputs": [
        {
          "name": "",
          "type": "address"
        }
      ],
      "payable": false,
      "stateMutability": "view",
      "type": "function"
    },
    {
      "constant": true,
      "inputs": [
        {
          "name": "",
          "type": "uint256"
        }
      ],
      "name": "fighterIdToOwner",
      "outputs": [
        {
          "name": "",
          "type": "address"
        }
      ],
      "payable": false,
      "stateMutability": "view",
      "type": "function"
    },
    {
      "constant": true,
      "inputs": [
        {
          "name": "",
          "type": "address"
        },
        {
          "name": "",
          "type": "uint256"
        }
      ],
      "name": "ownedFighters",
      "outputs": [
        {
          "name": "",
          "type": "uint256"
        }
      ],
      "payable": false,
      "stateMutability": "view",
      "type": "function"
    },
    {
      "constant": true,
      "inputs": [
        {
          "name": "",
          "type": "uint256"
        }
      ],
      "name": "fighterTypes",
      "outputs": [
        {
          "name": "",
          "type": "string"
        }
      ],
      "payable": false,
      "stateMutability": "view",
      "type": "function"
    },
    {
      "anonymous": false,
      "inputs": [
        {
          "indexed": false,
          "name": "_keccak1",
          "type": "bytes32"
        },
        {
          "indexed": false,
          "name": "_keccak2",
          "type": "bytes32"
        }
      ],
      "name": "Test",
      "type": "event"
    },
    {
      "anonymous": false,
      "inputs": [
        {
          "indexed": false,
          "name": "owner",
          "type": "address"
        },
        {
          "indexed": false,
          "name": "fighterId",
          "type": "uint256"
        },
        {
          "indexed": false,
          "name": "maxHealth",
          "type": "uint256"
        },
        {
          "indexed": false,
          "name": "speed",
          "type": "uint256"
        },
        {
          "indexed": false,
          "name": "strength",
          "type": "uint256"
        },
        {
          "indexed": false,
          "name": "fighterType",
          "type": "string"
        }
      ],
      "name": "Creation",
      "type": "event"
    },
    {
      "anonymous": false,
      "inputs": [
        {
          "indexed": false,
          "name": "from",
          "type": "address"
        },
        {
          "indexed": false,
          "name": "to",
          "type": "address"
        },
        {
          "indexed": false,
          "name": "fighterId",
          "type": "uint256"
        }
      ],
      "name": "Transfer",
      "type": "event"
    },
    {
      "anonymous": false,
      "inputs": [
        {
          "indexed": false,
          "name": "owner",
          "type": "address"
        },
        {
          "indexed": false,
          "name": "fighterId",
          "type": "uint256"
        },
        {
          "indexed": false,
          "name": "attribute",
          "type": "string"
        },
        {
          "indexed": false,
          "name": "increaseValue",
          "type": "uint256"
        }
      ],
      "name": "AttributeIncrease",
      "type": "event"
    },
    {
      "anonymous": false,
      "inputs": [
        {
          "indexed": false,
          "name": "owner",
          "type": "address"
        },
        {
          "indexed": false,
          "name": "fighterId",
          "type": "uint256"
        },
        {
          "indexed": false,
          "name": "maxHealth",
          "type": "uint256"
        }
      ],
      "name": "Healed",
      "type": "event"
    },
    {
      "anonymous": false,
      "inputs": [
        {
          "indexed": false,
          "name": "fighterWasFound",
          "type": "bool"
        },
        {
          "indexed": false,
          "name": "owner",
          "type": "address"
        },
        {
          "indexed": false,
          "name": "fighterId",
          "type": "uint256"
        }
      ],
      "name": "FighterFound",
      "type": "event"
    }
  ],
  "bytecode": "0x6060604052341561000f57600080fd5b6103378061001e6000396000f30060606040526004361061006c5763ffffffff7c0100000000000000000000000000000000000000000000000000000000600035041663027f48f7811461007157806344e59ee9146100af5780634b193933146100ee5780638357b8dd14610104578063d9861dab14610133575b600080fd5b341561007c57600080fd5b61009d73ffffffffffffffffffffffffffffffffffffffff600435166101c0565b60405190815260200160405180910390f35b34156100ba57600080fd5b6100c56004356101d2565b60405173ffffffffffffffffffffffffffffffffffffffff909116815260200160405180910390f35b34156100f957600080fd5b6100c56004356101fa565b341561010f57600080fd5b61009d73ffffffffffffffffffffffffffffffffffffffff60043516602435610222565b341561013e57600080fd5b610149600435610250565b60405160208082528190810183818151815260200191508051906020019080838360005b8381101561018557808201518382015260200161016d565b50505050905090810190601f1680156101b25780820380516001836020036101000a031916815260200191505b509250505060405180910390f35b60016020526000908152604090205481565b60036020526000908152604090205473ffffffffffffffffffffffffffffffffffffffff1681565b60026020526000908152604090205473ffffffffffffffffffffffffffffffffffffffff1681565b60046020528160005260406000208181548110151561023d57fe5b6000918252602090912001549150829050565b600580548290811061025e57fe5b90600052602060002090016000915090508054600181600116156101000203166002900480601f0160208091040260200160405190810160405280929190818152602001828054600181600116156101000203166002900480156103035780601f106102d857610100808354040283529160200191610303565b820191906000526020600020905b8154815290600101906020018083116102e657829003601f168201915b5050505050815600a165627a7a7230582059b85cf753fed4053216436533db87eb26e026a1202a7a39a2f80bd4d05eea5f0029",
  "source": "pragma solidity ^0.4.18;\n\nimport \"./FighterBase.sol\";\n\ncontract FighterTraining is FighterBase {\n  event Test(bytes32 _keccak1, bytes32 _keccak2);\n\n  function _train(uint _fighterId, string _attribute, uint _attributeIncrease) internal {\n    if (keccak256(_attribute) == keccak256('maxHealth')) {\n      _trainMaxHealth(_fighterId, _attributeIncrease, msg.sender);\n    } else if (keccak256(_attribute) == keccak256('strength')) {\n      _trainStrength(_fighterId, _attributeIncrease, msg.sender);\n    } else if (keccak256(_attribute) == keccak256('speed')) {\n      _trainSpeed(_fighterId, _attributeIncrease, msg.sender);\n    }\n  }\n\n  function _heal(uint _fighterId) internal {\n    _healFighter(_fighterId, msg.sender);\n  }\n}\n",
  "sourcePath": "/Users/kendalla/projects/cryptoclash/contracts/fighter/FighterTraining.sol",
  "compiler": {
    "name": "solc",
    "version": "0.4.19+commit.c4cbbb05.Emscripten.clang"
  },
  "schemaVersion": "1.0.1",
  "updatedAt": "2018-04-10T12:11:47.387Z"
}