{
  "contractName": "FighterBase",
  "abi": [
    {
      "constant": true,
      "inputs": [
        {
          "name": "",
          "type": "address"
        }
      ],
      "name": "fighterCountForOwner",
      "outputs": [
        {
          "name": "",
          "type": "uint256"
        }
      ],
      "payable": false,
      "stateMutability": "view",
      "type": "function"
    },
    {
      "constant": true,
      "inputs": [
        {
          "name": "",
          "type": "uint256"
        }
      ],
      "name": "fighterIdToApproved",
      "outputs": [
        {
          "name": "",
          "type": "address"
        }
      ],
      "payable": false,
      "stateMutability": "view",
      "type": "function"
    },
    {
      "constant": true,
      "inputs": [
        {
          "name": "",
          "type": "uint256"
        }
      ],
      "name": "fighterIdToOwner",
      "outputs": [
        {
          "name": "",
          "type": "address"
        }
      ],
      "payable": false,
      "stateMutability": "view",
      "type": "function"
    },
    {
      "constant": true,
      "inputs": [
        {
          "name": "",
          "type": "address"
        },
        {
          "name": "",
          "type": "uint256"
        }
      ],
      "name": "ownedFighters",
      "outputs": [
        {
          "name": "",
          "type": "uint256"
        }
      ],
      "payable": false,
      "stateMutability": "view",
      "type": "function"
    },
    {
      "constant": true,
      "inputs": [
        {
          "name": "",
          "type": "uint256"
        }
      ],
      "name": "fighterTypes",
      "outputs": [
        {
          "name": "",
          "type": "string"
        }
      ],
      "payable": false,
      "stateMutability": "view",
      "type": "function"
    },
    {
      "anonymous": false,
      "inputs": [
        {
          "indexed": false,
          "name": "owner",
          "type": "address"
        },
        {
          "indexed": false,
          "name": "fighterId",
          "type": "uint256"
        },
        {
          "indexed": false,
          "name": "maxHealth",
          "type": "uint256"
        },
        {
          "indexed": false,
          "name": "speed",
          "type": "uint256"
        },
        {
          "indexed": false,
          "name": "strength",
          "type": "uint256"
        },
        {
          "indexed": false,
          "name": "fighterType",
          "type": "string"
        }
      ],
      "name": "Creation",
      "type": "event"
    },
    {
      "anonymous": false,
      "inputs": [
        {
          "indexed": false,
          "name": "from",
          "type": "address"
        },
        {
          "indexed": false,
          "name": "to",
          "type": "address"
        },
        {
          "indexed": false,
          "name": "fighterId",
          "type": "uint256"
        }
      ],
      "name": "Transfer",
      "type": "event"
    },
    {
      "anonymous": false,
      "inputs": [
        {
          "indexed": false,
          "name": "owner",
          "type": "address"
        },
        {
          "indexed": false,
          "name": "fighterId",
          "type": "uint256"
        },
        {
          "indexed": false,
          "name": "attribute",
          "type": "string"
        },
        {
          "indexed": false,
          "name": "increaseValue",
          "type": "uint256"
        }
      ],
      "name": "AttributeIncrease",
      "type": "event"
    },
    {
      "anonymous": false,
      "inputs": [
        {
          "indexed": false,
          "name": "owner",
          "type": "address"
        },
        {
          "indexed": false,
          "name": "fighterId",
          "type": "uint256"
        },
        {
          "indexed": false,
          "name": "maxHealth",
          "type": "uint256"
        }
      ],
      "name": "Healed",
      "type": "event"
    },
    {
      "anonymous": false,
      "inputs": [
        {
          "indexed": false,
          "name": "fighterWasFound",
          "type": "bool"
        },
        {
          "indexed": false,
          "name": "owner",
          "type": "address"
        },
        {
          "indexed": false,
          "name": "fighterId",
          "type": "uint256"
        }
      ],
      "name": "FighterFound",
      "type": "event"
    }
  ],
  "bytecode": "0x6060604052341561000f57600080fd5b6103378061001e6000396000f30060606040526004361061006c5763ffffffff7c0100000000000000000000000000000000000000000000000000000000600035041663027f48f7811461007157806344e59ee9146100af5780634b193933146100ee5780638357b8dd14610104578063d9861dab14610133575b600080fd5b341561007c57600080fd5b61009d73ffffffffffffffffffffffffffffffffffffffff600435166101c0565b60405190815260200160405180910390f35b34156100ba57600080fd5b6100c56004356101d2565b60405173ffffffffffffffffffffffffffffffffffffffff909116815260200160405180910390f35b34156100f957600080fd5b6100c56004356101fa565b341561010f57600080fd5b61009d73ffffffffffffffffffffffffffffffffffffffff60043516602435610222565b341561013e57600080fd5b610149600435610250565b60405160208082528190810183818151815260200191508051906020019080838360005b8381101561018557808201518382015260200161016d565b50505050905090810190601f1680156101b25780820380516001836020036101000a031916815260200191505b509250505060405180910390f35b60016020526000908152604090205481565b60036020526000908152604090205473ffffffffffffffffffffffffffffffffffffffff1681565b60026020526000908152604090205473ffffffffffffffffffffffffffffffffffffffff1681565b60046020528160005260406000208181548110151561023d57fe5b6000918252602090912001549150829050565b600580548290811061025e57fe5b90600052602060002090016000915090508054600181600116156101000203166002900480601f0160208091040260200160405190810160405280929190818152602001828054600181600116156101000203166002900480156103035780601f106102d857610100808354040283529160200191610303565b820191906000526020600020905b8154815290600101906020018083116102e657829003601f168201915b5050505050815600a165627a7a72305820c0c4a8ddd5a13a01b8dfb5b34a557adb1c95ae5f091b6379486aa0c3f741ccba0029",
  "source": "pragma solidity ^0.4.18;\n\ncontract FighterBase {\n  /*** EVENTS ***/\n\n  event Creation(address owner, uint256 fighterId, uint256 maxHealth, uint256 speed, uint256 strength, string fighterType);\n  event Transfer(address from, address to, uint fighterId);\n  event AttributeIncrease(\n    address owner,\n    uint fighterId,\n    string attribute,\n    uint increaseValue\n  );\n  event Healed(address owner, uint fighterId, uint maxHealth);\n  event FighterFound(bool fighterWasFound, address owner, uint fighterId);\n\n  struct Fighter {\n    uint256 maxHealth;\n    uint256 health;\n    uint256 speed;\n    uint256 strength;\n    string fighterType;\n  }\n\n  /*** STORAGE ***/\n\n  Fighter[] fighters;\n  mapping(address => uint256) public fighterCountForOwner; // Need this for ERC721 compliance\n  mapping(uint256 => address) public fighterIdToOwner; // lookup for owner of a specific fighter\n  mapping(uint256 => address) public fighterIdToApproved; // Shows appoved address for sending of fighters, Needed for ERC721\n  mapping(address => uint256[]) public ownedFighters;\n\n  string[] public fighterTypes;\n  mapping(string => string) fighterTypesToWeakness;\n\n  function _addFighterType(string newType, string weakness) internal {\n    fighterTypes.push(newType);\n    fighterTypesToWeakness[newType] = weakness;\n  }\n\n  function _transfer(address _from, address _to, uint256 _fighterId) internal {\n    fighterCountForOwner[_to]++;\n    fighterIdToOwner[_fighterId] = _to;\n    ownedFighters[_to].push(_fighterId);\n\n    // Check that it isn't a newly created fighter before messing with ownership values\n    if (_from != address(0)) {\n      delete fighterIdToApproved[_fighterId];\n      _removeOwnedFighter(_from, _fighterId);\n      fighterCountForOwner[_from]--;\n    }\n    // Emit the transfer event.\n    Transfer(_from, _to, _fighterId);\n  }\n\n  function _removeOwnedFighter(address _oldOwner, uint256 _fighterId) internal {\n    uint index;\n    for(index = 0; index < ownedFighters[_oldOwner].length; index++) {\n      if (ownedFighters[_oldOwner][index] == _fighterId) {\n        delete ownedFighters[_oldOwner][index];\n      }\n    }\n  }\n\n  function _createFighter(\n    uint _maxHealth,\n    uint _speed,\n    uint _strength,\n    address _owner,\n    string _type\n  )\n    internal\n    returns (uint)\n  {\n    Fighter memory _fighter = Fighter({\n      maxHealth: _maxHealth,\n      health: _maxHealth, // Fighters are always created with maximum health\n      speed: _speed,\n      strength: _strength,\n      fighterType: _type\n    });\n\n    uint256 newFighterId = fighters.push(_fighter) - 1;\n\n    // 4 billion fighters is the max lel\n    require(newFighterId == uint256(uint32(newFighterId)));\n\n    Creation(_owner, newFighterId, _maxHealth, _speed, _strength, _type);\n\n    // This will assign ownership, and also emit the Transfer event as\n    // per ERC721 draft\n    _transfer(0, _owner, newFighterId);\n\n    return newFighterId;\n  }\n\n  function _updateFighterInStorage(Fighter _updatedFighter, uint _fighterId) internal {\n    fighters[_fighterId] = _updatedFighter;\n  }\n\n  function _trainMaxHealth(uint _fighterId, uint _attributeIncrease, address _owner) internal {\n    Fighter memory _fighter = fighters[_fighterId];\n\n    if (_fighter.health == _fighter.maxHealth) {\n      _fighter.health += _attributeIncrease;\n    }\n\n    _fighter.maxHealth += _attributeIncrease;\n    _updateFighterInStorage(_fighter, _fighterId);\n\n    AttributeIncrease(_owner, _fighterId, 'maxHealth', _attributeIncrease);\n  }\n\n  function _trainSpeed(uint _fighterId, uint _attributeIncrease, address _owner) internal {\n    Fighter memory _fighter = fighters[_fighterId];\n    _fighter.speed += _attributeIncrease;\n    _updateFighterInStorage(_fighter, _fighterId);\n\n    AttributeIncrease(_owner, _fighterId, 'speed', _attributeIncrease);\n  }\n\n  function _trainStrength(uint _fighterId, uint _attributeIncrease, address _owner) internal {\n    Fighter memory _fighter = fighters[_fighterId];\n    _fighter.strength += _attributeIncrease;\n    _updateFighterInStorage(_fighter, _fighterId);\n\n    AttributeIncrease(_owner, _fighterId, 'strength', _attributeIncrease);\n  }\n\n  // This function assumes that a fighter can actually be healed i.e this check is done elsewhere before any eth is taken\n  function _healFighter(uint _fighterId, address _owner) internal {\n    Fighter memory _fighter = fighters[_fighterId];\n    require(_fighter.health < _fighter.maxHealth);\n\n    _fighter.health = _fighter.maxHealth;\n    _updateFighterInStorage(_fighter, _fighterId);\n\n    Healed(_owner, _fighterId, _fighter.maxHealth);\n  }\n}\n",
  "sourcePath": "/Users/kendalla/projects/cryptoclash/contracts/fighter/FighterBase.sol",
  "compiler": {
    "name": "solc",
    "version": "0.4.19+commit.c4cbbb05.Emscripten.clang"
  },
  "schemaVersion": "1.0.1",
  "updatedAt": "2018-04-12T12:37:42.194Z"
}