{
  "contractName": "Marketplace",
  "abi": [
    {
      "constant": true,
      "inputs": [
        {
          "name": "_interfaceID",
          "type": "bytes4"
        }
      ],
      "name": "supportsInterface",
      "outputs": [
        {
          "name": "",
          "type": "bool"
        }
      ],
      "payable": false,
      "stateMutability": "view",
      "type": "function"
    },
    {
      "constant": true,
      "inputs": [
        {
          "name": "",
          "type": "address"
        }
      ],
      "name": "fighterCountForOwner",
      "outputs": [
        {
          "name": "",
          "type": "uint256"
        }
      ],
      "payable": false,
      "stateMutability": "view",
      "type": "function"
    },
    {
      "constant": true,
      "inputs": [
        {
          "name": "_tokenId",
          "type": "uint256"
        },
        {
          "name": "_preferredTransport",
          "type": "string"
        }
      ],
      "name": "tokenMetadata",
      "outputs": [
        {
          "name": "infoUrl",
          "type": "string"
        }
      ],
      "payable": false,
      "stateMutability": "view",
      "type": "function"
    },
    {
      "constant": true,
      "inputs": [],
      "name": "name",
      "outputs": [
        {
          "name": "",
          "type": "string"
        }
      ],
      "payable": false,
      "stateMutability": "view",
      "type": "function"
    },
    {
      "constant": false,
      "inputs": [
        {
          "name": "_to",
          "type": "address"
        },
        {
          "name": "_tokenId",
          "type": "uint256"
        }
      ],
      "name": "approve",
      "outputs": [],
      "payable": false,
      "stateMutability": "nonpayable",
      "type": "function"
    },
    {
      "constant": true,
      "inputs": [],
      "name": "totalSupply",
      "outputs": [
        {
          "name": "",
          "type": "uint256"
        }
      ],
      "payable": false,
      "stateMutability": "view",
      "type": "function"
    },
    {
      "constant": false,
      "inputs": [
        {
          "name": "_recipient",
          "type": "address"
        }
      ],
      "name": "withdrawBalanceToAddress",
      "outputs": [],
      "payable": false,
      "stateMutability": "nonpayable",
      "type": "function"
    },
    {
      "constant": false,
      "inputs": [
        {
          "name": "_from",
          "type": "address"
        },
        {
          "name": "_to",
          "type": "address"
        },
        {
          "name": "_tokenId",
          "type": "uint256"
        }
      ],
      "name": "transferFrom",
      "outputs": [],
      "payable": false,
      "stateMutability": "nonpayable",
      "type": "function"
    },
    {
      "constant": false,
      "inputs": [
        {
          "name": "_recipient",
          "type": "address"
        },
        {
          "name": "_maxHealth",
          "type": "uint256"
        },
        {
          "name": "_speed",
          "type": "uint256"
        },
        {
          "name": "_strength",
          "type": "uint256"
        },
        {
          "name": "_typeId",
          "type": "uint256"
        }
      ],
      "name": "customOwnerCreation",
      "outputs": [],
      "payable": false,
      "stateMutability": "nonpayable",
      "type": "function"
    },
    {
      "constant": false,
      "inputs": [
        {
          "name": "_fighterId",
          "type": "uint256"
        },
        {
          "name": "_attribute",
          "type": "string"
        },
        {
          "name": "_seed",
          "type": "uint256"
        }
      ],
      "name": "trainFighter",
      "outputs": [
        {
          "name": "",
          "type": "uint256"
        }
      ],
      "payable": true,
      "stateMutability": "payable",
      "type": "function"
    },
    {
      "constant": false,
      "inputs": [
        {
          "name": "newProbability",
          "type": "uint256"
        }
      ],
      "name": "setFighterCreationChance",
      "outputs": [],
      "payable": false,
      "stateMutability": "nonpayable",
      "type": "function"
    },
    {
      "constant": true,
      "inputs": [
        {
          "name": "",
          "type": "uint256"
        }
      ],
      "name": "fighterIdToApproved",
      "outputs": [
        {
          "name": "",
          "type": "address"
        }
      ],
      "payable": false,
      "stateMutability": "view",
      "type": "function"
    },
    {
      "constant": false,
      "inputs": [
        {
          "name": "newFactor",
          "type": "uint256"
        }
      ],
      "name": "setTrainingFactor",
      "outputs": [],
      "payable": false,
      "stateMutability": "nonpayable",
      "type": "function"
    },
    {
      "constant": true,
      "inputs": [
        {
          "name": "",
          "type": "uint256"
        }
      ],
      "name": "fighterIdToOwner",
      "outputs": [
        {
          "name": "",
          "type": "address"
        }
      ],
      "payable": false,
      "stateMutability": "view",
      "type": "function"
    },
    {
      "constant": true,
      "inputs": [],
      "name": "oraclizeGasLimit",
      "outputs": [
        {
          "name": "",
          "type": "uint256"
        }
      ],
      "payable": false,
      "stateMutability": "view",
      "type": "function"
    },
    {
      "constant": false,
      "inputs": [],
      "name": "withdrawBalance",
      "outputs": [],
      "payable": false,
      "stateMutability": "nonpayable",
      "type": "function"
    },
    {
      "constant": true,
      "inputs": [
        {
          "name": "_tokenId",
          "type": "uint256"
        }
      ],
      "name": "ownerOf",
      "outputs": [
        {
          "name": "owner",
          "type": "address"
        }
      ],
      "payable": false,
      "stateMutability": "view",
      "type": "function"
    },
    {
      "constant": false,
      "inputs": [
        {
          "name": "newEndpoint",
          "type": "string"
        }
      ],
      "name": "setNewCombatEndpoint",
      "outputs": [],
      "payable": false,
      "stateMutability": "nonpayable",
      "type": "function"
    },
    {
      "constant": true,
      "inputs": [],
      "name": "combatEndpoint",
      "outputs": [
        {
          "name": "",
          "type": "string"
        }
      ],
      "payable": false,
      "stateMutability": "view",
      "type": "function"
    },
    {
      "constant": true,
      "inputs": [],
      "name": "trainingCost",
      "outputs": [
        {
          "name": "",
          "type": "uint256"
        }
      ],
      "payable": false,
      "stateMutability": "view",
      "type": "function"
    },
    {
      "constant": true,
      "inputs": [
        {
          "name": "_owner",
          "type": "address"
        }
      ],
      "name": "balanceOf",
      "outputs": [
        {
          "name": "count",
          "type": "uint256"
        }
      ],
      "payable": false,
      "stateMutability": "view",
      "type": "function"
    },
    {
      "constant": false,
      "inputs": [
        {
          "name": "_recipient",
          "type": "address"
        },
        {
          "name": "_seed",
          "type": "uint256"
        }
      ],
      "name": "ownerCreation",
      "outputs": [],
      "payable": false,
      "stateMutability": "nonpayable",
      "type": "function"
    },
    {
      "constant": true,
      "inputs": [
        {
          "name": "",
          "type": "address"
        },
        {
          "name": "",
          "type": "uint256"
        }
      ],
      "name": "ownedFighters",
      "outputs": [
        {
          "name": "",
          "type": "uint256"
        }
      ],
      "payable": false,
      "stateMutability": "view",
      "type": "function"
    },
    {
      "constant": true,
      "inputs": [
        {
          "name": "_owner",
          "type": "address"
        }
      ],
      "name": "tokensOfOwner",
      "outputs": [
        {
          "name": "ownerTokens",
          "type": "uint256[]"
        }
      ],
      "payable": false,
      "stateMutability": "view",
      "type": "function"
    },
    {
      "constant": true,
      "inputs": [],
      "name": "owner",
      "outputs": [
        {
          "name": "",
          "type": "address"
        }
      ],
      "payable": false,
      "stateMutability": "view",
      "type": "function"
    },
    {
      "constant": false,
      "inputs": [
        {
          "name": "_newCut",
          "type": "uint256"
        }
      ],
      "name": "setNewMarketplaceCut",
      "outputs": [],
      "payable": false,
      "stateMutability": "nonpayable",
      "type": "function"
    },
    {
      "constant": true,
      "inputs": [],
      "name": "symbol",
      "outputs": [
        {
          "name": "",
          "type": "string"
        }
      ],
      "payable": false,
      "stateMutability": "view",
      "type": "function"
    },
    {
      "constant": true,
      "inputs": [
        {
          "name": "",
          "type": "uint256"
        }
      ],
      "name": "fighterIdToBrawl",
      "outputs": [
        {
          "name": "",
          "type": "uint256"
        }
      ],
      "payable": false,
      "stateMutability": "view",
      "type": "function"
    },
    {
      "constant": false,
      "inputs": [
        {
          "name": "newCost",
          "type": "uint256"
        }
      ],
      "name": "setNewTrainingCost",
      "outputs": [],
      "payable": false,
      "stateMutability": "nonpayable",
      "type": "function"
    },
    {
      "constant": true,
      "inputs": [
        {
          "name": "",
          "type": "uint256"
        }
      ],
      "name": "fighterIdToSale",
      "outputs": [
        {
          "name": "fighterId",
          "type": "uint256"
        },
        {
          "name": "price",
          "type": "uint256"
        }
      ],
      "payable": false,
      "stateMutability": "view",
      "type": "function"
    },
    {
      "constant": false,
      "inputs": [
        {
          "name": "_to",
          "type": "address"
        },
        {
          "name": "_tokenId",
          "type": "uint256"
        }
      ],
      "name": "transfer",
      "outputs": [],
      "payable": false,
      "stateMutability": "nonpayable",
      "type": "function"
    },
    {
      "constant": true,
      "inputs": [],
      "name": "marketplaceCut",
      "outputs": [
        {
          "name": "",
          "type": "uint256"
        }
      ],
      "payable": false,
      "stateMutability": "view",
      "type": "function"
    },
    {
      "constant": true,
      "inputs": [],
      "name": "trainingFactor",
      "outputs": [
        {
          "name": "",
          "type": "uint256"
        }
      ],
      "payable": false,
      "stateMutability": "view",
      "type": "function"
    },
    {
      "constant": true,
      "inputs": [],
      "name": "erc721Metadata",
      "outputs": [
        {
          "name": "",
          "type": "address"
        }
      ],
      "payable": false,
      "stateMutability": "view",
      "type": "function"
    },
    {
      "constant": false,
      "inputs": [
        {
          "name": "_owner",
          "type": "address"
        }
      ],
      "name": "getFightersForAddress",
      "outputs": [
        {
          "name": "",
          "type": "uint256[]"
        }
      ],
      "payable": false,
      "stateMutability": "nonpayable",
      "type": "function"
    },
    {
      "constant": false,
      "inputs": [],
      "name": "killConract",
      "outputs": [],
      "payable": false,
      "stateMutability": "nonpayable",
      "type": "function"
    },
    {
      "constant": false,
      "inputs": [
        {
          "name": "newGas",
          "type": "uint256"
        }
      ],
      "name": "setNewOraclizeGasLimit",
      "outputs": [],
      "payable": false,
      "stateMutability": "nonpayable",
      "type": "function"
    },
    {
      "constant": false,
      "inputs": [
        {
          "name": "newCost",
          "type": "uint256"
        }
      ],
      "name": "setNewArenaCost",
      "outputs": [],
      "payable": false,
      "stateMutability": "nonpayable",
      "type": "function"
    },
    {
      "constant": true,
      "inputs": [
        {
          "name": "",
          "type": "uint256"
        }
      ],
      "name": "fighterTypes",
      "outputs": [
        {
          "name": "",
          "type": "string"
        }
      ],
      "payable": false,
      "stateMutability": "view",
      "type": "function"
    },
    {
      "constant": false,
      "inputs": [
        {
          "name": "_contractAddress",
          "type": "address"
        }
      ],
      "name": "setMetadataAddress",
      "outputs": [],
      "payable": false,
      "stateMutability": "nonpayable",
      "type": "function"
    },
    {
      "constant": true,
      "inputs": [],
      "name": "arenaCost",
      "outputs": [
        {
          "name": "",
          "type": "uint256"
        }
      ],
      "payable": false,
      "stateMutability": "view",
      "type": "function"
    },
    {
      "constant": false,
      "inputs": [
        {
          "name": "_fighterId",
          "type": "uint256"
        }
      ],
      "name": "healFighter",
      "outputs": [],
      "payable": true,
      "stateMutability": "payable",
      "type": "function"
    },
    {
      "constant": false,
      "inputs": [
        {
          "name": "newOwner",
          "type": "address"
        }
      ],
      "name": "transferOwnership",
      "outputs": [],
      "payable": false,
      "stateMutability": "nonpayable",
      "type": "function"
    },
    {
      "constant": true,
      "inputs": [],
      "name": "chanceOfFighterCreation",
      "outputs": [
        {
          "name": "",
          "type": "uint256"
        }
      ],
      "payable": false,
      "stateMutability": "view",
      "type": "function"
    },
    {
      "constant": false,
      "inputs": [
        {
          "name": "_seed",
          "type": "uint256"
        }
      ],
      "name": "searchForFighter",
      "outputs": [
        {
          "name": "fighterFound",
          "type": "bool"
        }
      ],
      "payable": false,
      "stateMutability": "nonpayable",
      "type": "function"
    },
    {
      "anonymous": false,
      "inputs": [
        {
          "indexed": false,
          "name": "buyer",
          "type": "address"
        },
        {
          "indexed": false,
          "name": "price",
          "type": "uint256"
        },
        {
          "indexed": false,
          "name": "fighterId",
          "type": "uint256"
        },
        {
          "indexed": false,
          "name": "seller",
          "type": "address"
        }
      ],
      "name": "PurchaseSuccess",
      "type": "event"
    },
    {
      "anonymous": false,
      "inputs": [
        {
          "indexed": false,
          "name": "winner",
          "type": "address"
        },
        {
          "indexed": false,
          "name": "winnerId",
          "type": "uint256"
        },
        {
          "indexed": false,
          "name": "loser",
          "type": "address"
        },
        {
          "indexed": false,
          "name": "loserId",
          "type": "uint256"
        },
        {
          "indexed": false,
          "name": "fighterInArena",
          "type": "uint256"
        }
      ],
      "name": "FightComplete",
      "type": "event"
    },
    {
      "anonymous": false,
      "inputs": [
        {
          "indexed": false,
          "name": "owner",
          "type": "address"
        },
        {
          "indexed": false,
          "name": "fighterId",
          "type": "uint256"
        }
      ],
      "name": "MarketplaceRemoval",
      "type": "event"
    },
    {
      "anonymous": false,
      "inputs": [
        {
          "indexed": false,
          "name": "owner",
          "type": "address"
        },
        {
          "indexed": false,
          "name": "fighterId",
          "type": "uint256"
        }
      ],
      "name": "ArenaRemoval",
      "type": "event"
    },
    {
      "anonymous": false,
      "inputs": [
        {
          "indexed": false,
          "name": "owner",
          "type": "address"
        },
        {
          "indexed": false,
          "name": "fighterId",
          "type": "uint256"
        },
        {
          "indexed": false,
          "name": "price",
          "type": "uint256"
        }
      ],
      "name": "MarketplaceAdd",
      "type": "event"
    },
    {
      "anonymous": false,
      "inputs": [
        {
          "indexed": false,
          "name": "owner",
          "type": "address"
        },
        {
          "indexed": false,
          "name": "fighterId",
          "type": "uint256"
        }
      ],
      "name": "ArenaAdd",
      "type": "event"
    },
    {
      "anonymous": false,
      "inputs": [
        {
          "indexed": false,
          "name": "_string",
          "type": "string"
        }
      ],
      "name": "Test",
      "type": "event"
    },
    {
      "anonymous": false,
      "inputs": [
        {
          "indexed": false,
          "name": "from",
          "type": "address"
        },
        {
          "indexed": false,
          "name": "to",
          "type": "address"
        },
        {
          "indexed": false,
          "name": "tokenId",
          "type": "uint256"
        }
      ],
      "name": "Transfer",
      "type": "event"
    },
    {
      "anonymous": false,
      "inputs": [
        {
          "indexed": false,
          "name": "owner",
          "type": "address"
        },
        {
          "indexed": false,
          "name": "approved",
          "type": "address"
        },
        {
          "indexed": false,
          "name": "tokenId",
          "type": "uint256"
        }
      ],
      "name": "Approval",
      "type": "event"
    },
    {
      "anonymous": false,
      "inputs": [
        {
          "indexed": false,
          "name": "_keccak1",
          "type": "bytes32"
        },
        {
          "indexed": false,
          "name": "_keccak2",
          "type": "bytes32"
        }
      ],
      "name": "Test",
      "type": "event"
    },
    {
      "anonymous": false,
      "inputs": [
        {
          "indexed": false,
          "name": "owner",
          "type": "address"
        },
        {
          "indexed": false,
          "name": "fighterId",
          "type": "uint256"
        },
        {
          "indexed": false,
          "name": "maxHealth",
          "type": "uint256"
        },
        {
          "indexed": false,
          "name": "speed",
          "type": "uint256"
        },
        {
          "indexed": false,
          "name": "strength",
          "type": "uint256"
        },
        {
          "indexed": false,
          "name": "fighterType",
          "type": "string"
        }
      ],
      "name": "Creation",
      "type": "event"
    },
    {
      "anonymous": false,
      "inputs": [
        {
          "indexed": false,
          "name": "owner",
          "type": "address"
        },
        {
          "indexed": false,
          "name": "fighterId",
          "type": "uint256"
        },
        {
          "indexed": false,
          "name": "attribute",
          "type": "string"
        },
        {
          "indexed": false,
          "name": "increaseValue",
          "type": "uint256"
        }
      ],
      "name": "AttributeIncrease",
      "type": "event"
    },
    {
      "anonymous": false,
      "inputs": [
        {
          "indexed": false,
          "name": "owner",
          "type": "address"
        },
        {
          "indexed": false,
          "name": "fighterId",
          "type": "uint256"
        },
        {
          "indexed": false,
          "name": "maxHealth",
          "type": "uint256"
        }
      ],
      "name": "Healed",
      "type": "event"
    },
    {
      "anonymous": false,
      "inputs": [
        {
          "indexed": false,
          "name": "fighterWasFound",
          "type": "bool"
        },
        {
          "indexed": false,
          "name": "owner",
          "type": "address"
        },
        {
          "indexed": false,
          "name": "fighterId",
          "type": "uint256"
        }
      ],
      "name": "FighterFound",
      "type": "event"
    },
    {
      "constant": true,
      "inputs": [
        {
          "name": "_fighterId",
          "type": "uint256"
        }
      ],
      "name": "getPriceForFighter",
      "outputs": [
        {
          "name": "",
          "type": "uint256"
        }
      ],
      "payable": false,
      "stateMutability": "view",
      "type": "function"
    },
    {
      "constant": false,
      "inputs": [
        {
          "name": "_fighterId",
          "type": "uint256"
        }
      ],
      "name": "removeFighterFromSale",
      "outputs": [],
      "payable": false,
      "stateMutability": "nonpayable",
      "type": "function"
    },
    {
      "constant": false,
      "inputs": [
        {
          "name": "_fighterId",
          "type": "uint256"
        }
      ],
      "name": "removeFighterFromArena",
      "outputs": [],
      "payable": false,
      "stateMutability": "nonpayable",
      "type": "function"
    },
    {
      "constant": false,
      "inputs": [
        {
          "name": "_fighterId",
          "type": "uint256"
        },
        {
          "name": "_price",
          "type": "uint256"
        }
      ],
      "name": "makeFighterAvailableForSale",
      "outputs": [],
      "payable": false,
      "stateMutability": "nonpayable",
      "type": "function"
    },
    {
      "constant": false,
      "inputs": [
        {
          "name": "_fighterId",
          "type": "uint256"
        }
      ],
      "name": "makeFighterAvailableForBrawl",
      "outputs": [],
      "payable": false,
      "stateMutability": "nonpayable",
      "type": "function"
    },
    {
      "constant": false,
      "inputs": [
        {
          "name": "_fighterId",
          "type": "uint256"
        }
      ],
      "name": "buyFighter",
      "outputs": [],
      "payable": true,
      "stateMutability": "payable",
      "type": "function"
    },
    {
      "constant": false,
      "inputs": [
        {
          "name": "queryId",
          "type": "bytes32"
        },
        {
          "name": "result",
          "type": "string"
        }
      ],
      "name": "__callback",
      "outputs": [],
      "payable": false,
      "stateMutability": "nonpayable",
      "type": "function"
    },
    {
      "constant": false,
      "inputs": [
        {
          "name": "myid",
          "type": "bytes32"
        },
        {
          "name": "result",
          "type": "string"
        },
        {
          "name": "proof",
          "type": "bytes"
        }
      ],
      "name": "__callback",
      "outputs": [],
      "payable": false,
      "stateMutability": "nonpayable",
      "type": "function"
    },
    {
      "constant": false,
      "inputs": [
        {
          "name": "_attackerId",
          "type": "uint256"
        },
        {
          "name": "_defenderId",
          "type": "uint256"
        }
      ],
      "name": "fight",
      "outputs": [],
      "payable": true,
      "stateMutability": "payable",
      "type": "function"
    }
  ],
  "bytecode": "0x6060604052600360015560036002556611c37937e08000600355662386f26fc100006004556005600d55608060405190810160405280604381526020017f68747470733a2f2f72696e6b656279627261776c6261636b656e642e6865726f81526020017f6b756170702e636f6d2f6170692f6172656e612f63616c63756c61746557696e81526020017f6e65720000000000000000000000000000000000000000000000000000000000815250600e908051620000c1929160200190620000ea565b50620b71b0600f5560008054600160a060020a03191633600160a060020a03161790556200018f565b828054600181600116156101000203166002900490600052602060002090601f016020900481019282601f106200012d57805160ff19168380011785556200015d565b828001600101855582156200015d579182015b828111156200015d57825182559160200191906001019062000140565b506200016b9291506200016f565b5090565b6200018c91905b808211156200016b576000815560010162000176565b90565b613f90806200019f6000396000f30060606040526004361061026e5763ffffffff60e060020a60003504166301ffc9a78114610273578063027f48f7146102bf5780630560ff44146102f057806306fdde0314610389578063095ea7b31461039c57806318160ddd146103c05780631ba21011146103d357806323b872dd146103f2578063241860aa1461041a57806327dc297e146104305780632b1a8d461461048657806338bbfa50146104b15780633f40d2881461054957806340e4e0481461056357806344e59ee914610579578063495ac3a8146105ab5780634b193933146105c157806350b9c428146105d757806354c3bfa1146105ea5780635fd8c710146106005780636352211e14610613578063641e3aae14610629578063656aa88a1461063f5780636bbd3c971461065d578063701a19fd1461067057806370a08231146106835780638053e5d8146106a25780638357b8dd146106c45780638462151c146106e65780638da5cb5b14610758578063920b4a2d1461076b57806395d89b4114610781578063a2df64df14610794578063a5557ce0146107aa578063a707c73c146107c0578063a9059cbb146107ee578063ad2dccfe14610810578063b64ce34a14610823578063b6e5706414610836578063bc4006f51461084f578063c20548ac14610862578063c48f66f214610881578063c7cffa0f14610894578063ca39e5ef146108aa578063cbb5bbbf146108b8578063d004cad4146108c3578063d9861dab146108d9578063e17b25af146108ef578063e88f4f1f1461090e578063ea9b50c514610924578063efbeef8014610937578063f2fde38b14610942578063f36014d214610961578063f6a6771614610974575b600080fd5b341561027e57600080fd5b6102ab7fffffffff000000000000000000000000000000000000000000000000000000006004351661098a565b604051901515815260200160405180910390f35b34156102ca57600080fd5b6102de600160a060020a0360043516610c11565b60405190815260200160405180910390f35b34156102fb57600080fd5b610312600480359060248035908101910135610c23565b60405160208082528190810183818151815260200191508051906020019080838360005b8381101561034e578082015183820152602001610336565b50505050905090810190601f16801561037b5780820380516001836020036101000a031916815260200191505b509250505060405180910390f35b341561039457600080fd5b610312610d00565b34156103a757600080fd5b6103be600160a060020a0360043516602435610d37565b005b34156103cb57600080fd5b6102de610daa565b34156103de57600080fd5b6103be600160a060020a0360043516610db1565b34156103fd57600080fd5b6103be600160a060020a0360043581169060243516604435610e0c565b341561042557600080fd5b6102de600435610e7c565b341561043b57600080fd5b6103be600480359060446024803590810190830135806020601f82018190048102016040519081016040528181529291906020840183838082843750949650610e9195505050505050565b341561049157600080fd5b6103be600160a060020a03600435166024356044356064356084356110b6565b34156104bc57600080fd5b6103be600480359060446024803590810190830135806020601f8201819004810201604051908101604052818152929190602084018383808284378201915050505050509190803590602001908201803590602001908080601f016020809104026020016040519081016040528181529291906020840183838082843750949650610e7795505050505050565b6102de600480359060248035908101910135604435611198565b341561056e57600080fd5b6103be600435611229565b341561058457600080fd5b61058f600435611249565b604051600160a060020a03909116815260200160405180910390f35b34156105b657600080fd5b6103be600435611264565b34156105cc57600080fd5b61058f600435611284565b34156105e257600080fd5b6102de61129f565b34156105f557600080fd5b6103be6004356112a5565b341561060b57600080fd5b6103be61131e565b341561061e57600080fd5b61058f600435611374565b341561063457600080fd5b6103be600435611398565b341561064a57600080fd5b6103be6004803560248101910135611411565b341561066857600080fd5b610312611438565b341561067b57600080fd5b6102de6114d6565b341561068e57600080fd5b6102de600160a060020a03600435166114dc565b34156106ad57600080fd5b6103be600160a060020a03600435166024356114f7565b34156106cf57600080fd5b6102de600160a060020a0360043516602435611558565b34156106f157600080fd5b610705600160a060020a0360043516611586565b60405160208082528190810183818151815260200191508051906020019060200280838360005b8381101561074457808201518382015260200161072c565b505050509050019250505060405180910390f35b341561076357600080fd5b61058f611667565b341561077657600080fd5b6103be600435611676565b341561078c57600080fd5b610312611696565b341561079f57600080fd5b6102de6004356116cd565b34156107b557600080fd5b6103be6004356116df565b34156107cb57600080fd5b6107d66004356116ff565b60405191825260208201526040908101905180910390f35b34156107f957600080fd5b6103be600160a060020a0360043516602435611718565b341561081b57600080fd5b6102de611772565b341561082e57600080fd5b6102de611778565b341561084157600080fd5b6103be60043560243561177e565b341561085a57600080fd5b61058f611842565b341561086d57600080fd5b610705600160a060020a0360043516611851565b341561088c57600080fd5b6103be6118d4565b341561089f57600080fd5b6103be6004356118fd565b6103be60043560243561191d565b6103be600435611b51565b34156108ce57600080fd5b6103be600435611b7e565b34156108e457600080fd5b610312600435611b9e565b34156108fa57600080fd5b6103be600160a060020a0360043516611c26565b341561091957600080fd5b6103be600435611c48565b341561092f57600080fd5b6102de611cde565b6103be600435611ce4565b341561094d57600080fd5b6103be600160a060020a0360043516611d0d565b341561096c57600080fd5b6102de611d57565b341561097f57600080fd5b6102ab600435611d5d565b60006040517f737570706f727473496e7465726661636528627974657334290000000000000081526019016040518091039020600160e060020a03191682600160e060020a0319161480610c0957506040517f746f6b656e4d657461646174612875696e743235362c737472696e67290000008152601d0160405180910390206040517f746f6b656e734f664f776e657228616464726573732900000000000000000000815260160160405180910390206040517f7472616e7366657246726f6d28616464726573732c616464726573732c75696e81527f7432353629000000000000000000000000000000000000000000000000000000602082015260250160405180910390206040517f7472616e7366657228616464726573732c75696e743235362900000000000000815260190160405180910390206040517f617070726f766528616464726573732c75696e74323536290000000000000000815260180160405180910390206040517f6f776e65724f662875696e743235362900000000000000000000000000000000815260100160405180910390206040517f62616c616e63654f662861646472657373290000000000000000000000000000815260120160405180910390206040517f746f74616c537570706c792829000000000000000000000000000000000000008152600d0160405180910390206040517f73796d626f6c2829000000000000000000000000000000000000000000000000815260080160405180910390206040517f6e616d652829000000000000000000000000000000000000000000000000000081526006016040518091039020181818181818181818600160e060020a03191682600160e060020a031916145b90505b919050565b60066020526000908152604090205481565b610c2b613cd5565b610c33613ce7565b600c54600090600160a060020a03161515610c4d57600080fd5b600c54600160a060020a031663cb4799f2878787600060405160a0015260405160e060020a63ffffffff861602815260048101848152604060248301908152604483018490529091606401848480828437820191505094505050505060a060405180830381600087803b1515610cc257600080fd5b6102c65a03f11515610cd357600080fd5b50505060405180608001805160209091016040529092509050610cf68282611e83565b9695505050505050565b60408051908101604052600e81527f43727970746f427261776c657273000000000000000000000000000000000000602082015281565b610d413382611ed8565b1515610d4c57600080fd5b610d568183611ef8565b7f8c5be1e5ebec7d5bd14f71427d1e84f3dd0314c0f7b2291e5b200ac8c7c3b925338383604051600160a060020a039384168152919092166020820152604080820192909252606001905180910390a15050565b6005545b90565b60005433600160a060020a03908116911614610dcc57600080fd5b80600160a060020a03166108fc30600160a060020a0316319081150290604051600060405180830381858888f193505050501515610e0957600080fd5b50565b600160a060020a0382161515610e2157600080fd5b30600160a060020a031682600160a060020a031614151515610e4257600080fd5b610e4c3382611f26565b1515610e5757600080fd5b610e618382611ed8565b1515610e6c57600080fd5b610e77838383611f46565b505050565b60009081526015602052604090206001015490565b600080600080610e9f612059565b600160a060020a031633600160a060020a0316141515610ebe57600080fd5b610efb8560408051908101604052600181527f2d0000000000000000000000000000000000000000000000000000000000000060208201526121f9565b9350610fb8846000815481101515610f0f57fe5b90600052602060002090018054600181600116156101000203166002900480601f016020809104026020016040519081016040528092919081815260200182805460018160011615610100020316600290048015610fae5780601f10610f8357610100808354040283529160200191610fae565b820191906000526020600020905b815481529060010190602001808311610f9157829003601f168201915b505050505061231c565b9250610fcc846001815481101515610f0f57fe5b9150610fd783612329565b15610fec57610fe58361233c565b5081610ff7565b5080610ff78161233c565b6000828152600760205260408082205485835291205461102491600160a060020a03908116911684611f46565b6000838152600760205260408082205484835291819020547f0974ab4622ebebd6fc59c871455d5554bfc6cb8da267f947006c5f5c4f747f6092600160a060020a03908116928792909116908690869051600160a060020a0395861681526020810194909452919093166040808401919091526060830193909352608082015260a001905180910390a1505050505050565b60005433600160a060020a039081169116146110d157600080fd5b61119084848488600a868154811015156110e757fe5b90600052602060002090018054600181600116156101000203166002900480601f0160208091040260200160405190810160405280929190818152602001828054600181600116156101000203166002900480156111865780601f1061115b57610100808354040283529160200191611186565b820191906000526020600020905b81548152906001019060200180831161116957829003601f168201915b505050505061234d565b505050505050565b600080600354803410151561121f576111b13388611ed8565b15156111bc57600080fd5b6002546111c8856124e7565b8115156111d157fe5b0491508115156111e057600191505b61121b8787878080601f0160208091040260200160405190810160405281815292919060208401838380828437508994506125289350505050565b8192505b5050949350505050565b60005433600160a060020a0390811691161461124457600080fd5b600155565b600860205260009081526040902054600160a060020a031681565b60005433600160a060020a0390811691161461127f57600080fd5b600255565b600760205260009081526040902054600160a060020a031681565b600f5481565b6112af3382611ed8565b15156112ba57600080fd5b6112c38161270d565b15156112ce57600080fd5b6112d781612723565b7f3e808687755674bf6703cb65acce9b7da494797511c241a38e74134813273be23382604051600160a060020a03909216825260208201526040908101905180910390a150565b60005433600160a060020a0390811691161461133957600080fd5b600054600160a060020a039081169030163180156108fc0290604051600060405180830381858888f19350505050151561137257600080fd5b565b600081815260076020526040902054600160a060020a0316801515610c0c57600080fd5b6113a23382611ed8565b15156113ad57600080fd5b6113b681612329565b15156113c157600080fd5b6113ca8161233c565b7fb3fefaad4d5eb17c447489e1529238e4f44c82b4f99284ca82969e1bfbb8e8c53382604051600160a060020a03909216825260208201526040908101905180910390a150565b60005433600160a060020a0390811691161461142c57600080fd5b610e77600e8383613d10565b600e8054600181600116156101000203166002900480601f0160208091040260200160405190810160405280929190818152602001828054600181600116156101000203166002900480156114ce5780601f106114a3576101008083540402835291602001916114ce565b820191906000526020600020905b8154815290600101906020018083116114b157829003601f168201915b505050505081565b60035481565b600160a060020a031660009081526006602052604090205490565b600080548190819033600160a060020a0390811691161461151757600080fd5b611520846124e7565b925061152b836124e7565b915061153f846001600a805490500361273a565b9050611190600a848488600a868154811015156110e757fe5b60096020528160005260406000208181548110151561157357fe5b6000918252602090912001549150829050565b61158e613cd5565b600080600061159b613cd5565b60006115a6876114dc565b94508415156115d65760006040518059106115be5750595b9080825280602002602001820160405250955061165d565b600093506115e2610daa565b9250846040518059106115f25750595b90808252806020026020018201604052509150600190505b82811161165957600081815260076020526040902054600160a060020a0388811691161415611651578082858151811061164057fe5b602090810290910101526001909301925b60010161160a565b8195505b5050505050919050565b600054600160a060020a031681565b60005433600160a060020a0390811691161461169157600080fd5b600d55565b60408051908101604052600481527f4252574c00000000000000000000000000000000000000000000000000000000602082015281565b60166020526000908152604090205481565b60005433600160a060020a039081169116146116fa57600080fd5b600355565b6015602052600090815260409020805460019091015482565b600160a060020a038216151561172d57600080fd5b30600160a060020a031682600160a060020a03161415151561174e57600080fd5b6117583382611ed8565b151561176357600080fd5b61176e338383611f46565b5050565b600d5481565b60025481565b6117883383611ed8565b151561179357600080fd5b61179c82612329565b156117a657600080fd5b600081116117b357600080fd5b60408051908101604090815283825260208083018490526000858152601590915220815181556020820151600190910155507f9eaf5a44f033adc048686ca80e281b74f25fb52e998dd7f8e6812721383ae88a3383836040518084600160a060020a0316600160a060020a03168152602001838152602001828152602001935050505060405180910390a15050565b600c54600160a060020a031681565b611859613cd5565b6009600083600160a060020a0316600160a060020a031681526020019081526020016000208054806020026020016040519081016040528092919081815260200182805480156118c857602002820191906000526020600020905b8154815260200190600101908083116118b4575b50505050509050919050565b60005433600160a060020a039081169116146118ef57600080fd5b600054600160a060020a0316ff5b60005433600160a060020a0390811691161461191857600080fd5b600f55565b611925613cd5565b61192d613cd5565b60045434819010611b4a5761194184612329565b151561194c57600080fd5b6119563386611ed8565b151561196157600080fd5b61196b3385611ed8565b1561197557600080fd5b6119f760408051908101604052600a81527f2f61747461636b65722f0000000000000000000000000000000000000000000060208201526119b58761276c565b60408051908101604052600a81527f2f646566656e6465722f0000000000000000000000000000000000000000000060208201526119f28861276c565b612860565b9250611b076040805190810160405280600581526020017f6a736f6e28000000000000000000000000000000000000000000000000000000815250600e8054600181600116156101000203166002900480601f016020809104026020016040519081016040528092919081815260200182805460018160011615610100020316600290048015611ac85780601f10611a9d57610100808354040283529160200191611ac8565b820191906000526020600020905b815481529060010190602001808311611aab57829003601f168201915b50505050508560408051908101604052600f81527f292e6f7574636f6d65537472696e6700000000000000000000000000000000006020820152612860565b915061119060408051908101604052600381527f55524c00000000000000000000000000000000000000000000000000000000006020820152600f54849061288c565b5050505050565b611b5b8134612c12565b600081815260076020526040902054610e0990600160a060020a03163383611f46565b60005433600160a060020a03908116911614611b9957600080fd5b600455565b600a805482908110611bac57fe5b90600052602060002090016000915090508054600181600116156101000203166002900480601f0160208091040260200160405190810160405280929190818152602001828054600181600116156101000203166002900480156114ce5780601f106114a3576101008083540402835291602001916114ce565b600c8054600160a060020a031916600160a060020a0392909216919091179055565b611c523382611ed8565b1515611c5d57600080fd5b611c668161270d565b15611c7057600080fd5b611c7981612329565b15611c8357600080fd5b600081815260166020526040908190208290557ffd493e9e8a025ff7f65e924f394f7f1c3804e6114587e73b05e393385823ae5f903390839051600160a060020a03909216825260208201526040908101905180910390a150565b60045481565b6003543481901061176e57611cf93383611ed8565b1515611d0457600080fd5b61176e82612d1f565b60005433600160a060020a03908116911614611d2857600080fd5b600160a060020a03811615610e095760008054600160a060020a038316600160a060020a031990911617905550565b60015481565b600080600080600080611d6f87612d29565b945060015485811515611d7e57fe5b061515611e2357611d8e876124e7565b9350611d99846124e7565b9250611dad876001600a805490500361273a565b9150611dc6600a858533600a878154811015156110e757fe5b90507f9bd510de0dcc8d26bfd35e5e1bad5c406154844b85cde0690dfa7881e481de76600133836040519215158352600160a060020a0390911660208301526040808301919091526060909101905180910390a16001955061165d565b7f9bd510de0dcc8d26bfd35e5e1bad5c406154844b85cde0690dfa7881e481de7660003360006040519215158352600160a060020a0390911660208301526040808301919091526060909101905180910390a15060009695505050505050565b611e8b613cd5565b611e93613cd5565b60008084604051805910611ea45750595b818152601f19601f8301168101602001604052905092505060208201905084611ece828287612d55565b5090949350505050565b600090815260076020526040902054600160a060020a0391821691161490565b6000918252600860205260409091208054600160a060020a031916600160a060020a03909216919091179055565b600090815260086020526040902054600160a060020a0391821691161490565b600160a060020a038216600081815260066020908152604080832080546001908101909155858452600783528184208054600160a060020a0319168617905593835260099091529020805490918101611f9f8382613d8e565b506000918252602090912001819055600160a060020a038316156120045760008181526008602052604090208054600160a060020a0319169055611fe38382612d9a565b600160a060020a038316600090815260066020526040902080546000190190555b7fddf252ad1be2c89b69c2b068fc378daa952ba7f163c4a11628f55a4df523b3ef838383604051600160a060020a039384168152919092166020820152604080820192909252606001905180910390a1505050565b601054600090600160a060020a03161580612086575060105461208490600160a060020a0316612e2e565b155b15612097576120956000612e32565b505b601054600160a060020a03166338cc48316000604051602001526040518163ffffffff1660e060020a028152600401602060405180830381600087803b15156120df57600080fd5b6102c65a03f115156120f057600080fd5b5050506040518051601154600160a060020a03908116911614905061219257601054600160a060020a03166338cc48316000604051602001526040518163ffffffff1660e060020a028152600401602060405180830381600087803b151561215757600080fd5b6102c65a03f1151561216857600080fd5b505050604051805160118054600160a060020a031916600160a060020a0392909216919091179055505b601154600160a060020a031663c281d19e6000604051602001526040518163ffffffff1660e060020a028152600401602060405180830381600087803b15156121da57600080fd5b6102c65a03f115156121eb57600080fd5b505050604051805191505090565b6000612203613cd5565b60008061220e613cd5565b612216613cd5565b600080899650600095505b600187510386101561230f576122388a8a88612e3c565b945084600019141561224957865194505b8585036040518059106122595750595b818152601f19601f830116810160200160405290509350839250600091508590505b848110156122d35786818151811061228f57fe5b016020015160f860020a900460f860020a028383806001019450815181106122b357fe5b906020010190600160f860020a031916908160001a90535060010161227b565b8460010195508780548060010182816122ec9190613db2565b6000928352602090922001848051612308929160200190613dd6565b5050612221565b5050505050505092915050565b6000610c09826000612ee3565b6000908152601660205260408120541190565b600090815260166020526040812055565b6000612357613e44565b600060a0604051908101604052808981526020018981526020018881526020018781526020018581525091506001600580548060010182816123999190613e79565b60009283526020909220859160050201815181556020820151816001015560408201518160020155606082015181600301556080820151816004019080516123e5929160200190613dd6565b50505003905063ffffffff811681146123fd57600080fd5b7faf9d5de903d3c24be3b2973b79ee3eefd1b8aada3d46baf60ee9f0d086b75fb985828a8a8a896040518087600160a060020a0316600160a060020a0316815260200186815260200185815260200184815260200183815260200180602001828103825283818151815260200191508051906020019080838360005b83811015612491578082015183820152602001612479565b50505050905090810190601f1680156124be5780820380516001836020036101000a031916815260200191505b5097505050505050505060405180910390a16124dc60008683611f46565b979650505050505050565b600080600a60014303408460405191825260208201526040908101905190819003902081151561251357fe5b06905060008111612522575060015b92915050565b6040517f6d61784865616c746800000000000000000000000000000000000000000000008152600901604051908190039020826040518082805190602001908083835b6020831061258a5780518252601f19909201916020918201910161256b565b6001836020036101000a038019825116818451161790925250505091909101925060409150505190819003902014156125cd576125c8838233613051565b610e77565b6040517f737472656e6774680000000000000000000000000000000000000000000000008152600801604051908190039020826040518082805190602001908083835b6020831061262f5780518252601f199092019160209182019101612610565b6001836020036101000a0380198251168184511617909252505050919091019250604091505051908190039020141561266d576125c8838233613209565b6040517f73706565640000000000000000000000000000000000000000000000000000008152600501604051908190039020826040518082805190602001908083835b602083106126cf5780518252601f1990920191602091820191016126b0565b6001836020036101000a03801982511681845116179092525050509190910192506040915050519081900390201415610e7757610e778382336133a7565b6000908152601560205260408120600101541190565b600090815260156020526040812081815560010155565b60008160014303408460405191825260208201526040908101905190819003902081151561276457fe5b069392505050565b612774613cd5565b60008061277f613cd5565b60008515156127c35760408051908101604052600181527f300000000000000000000000000000000000000000000000000000000000000060208201529450612857565b8593505b83156127de57600190920191600a840493506127c7565b826040518059106127ec5750595b818152601f19601f8301168101602001604052905091505060001982015b85156128535760001981019060f860020a6030600a890601029083908151811061283057fe5b906020010190600160f860020a031916908160001a905350600a8604955061280a565b8194505b50505050919050565b612868613cd5565b61288385858585602060405190810160405260008152613545565b95945050505050565b6010546000908190600160a060020a031615806128bb57506010546128b990600160a060020a0316612e2e565b155b156128cc576128ca6000612e32565b505b601054600160a060020a03166338cc48316000604051602001526040518163ffffffff1660e060020a028152600401602060405180830381600087803b151561291457600080fd5b6102c65a03f1151561292557600080fd5b5050506040518051601154600160a060020a0390811691161490506129c757601054600160a060020a03166338cc48316000604051602001526040518163ffffffff1660e060020a028152600401602060405180830381600087803b151561298c57600080fd5b6102c65a03f1151561299d57600080fd5b505050604051805160118054600160a060020a031916600160a060020a0392909216919091179055505b601154600160a060020a0316632ef3accc86856000604051602001526040518363ffffffff1660e060020a0281526004018080602001838152602001828103825284818151815260200191508051906020019080838360005b83811015612a38578082015183820152602001612a20565b50505050905090810190601f168015612a655780820380516001836020036101000a031916815260200191505b509350505050602060405180830381600087803b1515612a8457600080fd5b6102c65a03f11515612a9557600080fd5b5050506040518051915050670de0b6b3a76400003a840201811115612abd5760009150612c0a565b601154600160a060020a031663c51be90f82600088888883604051602001526040518663ffffffff1660e060020a028152600401808581526020018060200180602001848152602001838103835286818151815260200191508051906020019080838360005b83811015612b3b578082015183820152602001612b23565b50505050905090810190601f168015612b685780820380516001836020036101000a031916815260200191505b50838103825285818151815260200191508051906020019080838360005b83811015612b9e578082015183820152602001612b86565b50505050905090810190601f168015612bcb5780820380516001836020036101000a031916815260200191505b5096505050505050506020604051808303818588803b1515612bec57600080fd5b6125ee5a03f11515612bfd57600080fd5b5050505060405180519250505b509392505050565b6000806000612c213386611ed8565b15612c2b57600080fd5b612c348561270d565b1515612c3f57600080fd5b600085815260156020526040902060010154841015612c5d57600080fd5b600085815260076020526040902054600160a060020a03169250612c8085612723565b612c89846137b5565b915050808303600160a060020a03831681156108fc0282604051600060405180830381858888f193505050501515612cc057600080fd5b7f4750c394c3222df02b322dd8f4ee23c0025975134406b18d35ab7c9c1bb41ac233858786604051600160a060020a03948516815260208101939093526040808401929092529092166060820152608001905180910390a15050505050565b610e0981336137c1565b600080606460014303408460405191825260208201526040908101905190819003902081151561251357fe5b60005b60208210612d7b5782518452602084019350602083019250602082039150612d58565b6001826020036101000a03905080198351168185511617909352505050565b60005b600160a060020a038316600090815260096020526040902054811015610e7757600160a060020a0383166000908152600960205260409020805483919083908110612de457fe5b9060005260206000209001541415612e2657600160a060020a0383166000908152600960205260409020805482908110612e1a57fe5b60009182526020822001555b600101612d9d565b3b90565b6000610c09613941565b6000612e46613cd5565b612e4e613cd5565b508490508360008151600114612e6057fe5b50835b8251811015612ed35781600081518110612e7957fe5b016020015160f860020a900460f860020a02600160f860020a031916838281518110612ea157fe5b016020015160f860020a900460f860020a02600160f860020a0319161415612ecb57809350612ed9565b600101612e63565b60001993505b5050509392505050565b6000612eed613cd5565b5082600080805b8351811015613034577f3000000000000000000000000000000000000000000000000000000000000000848281518110612f2a57fe5b016020015160f860020a900460f860020a02600160f860020a03191610158015612f9b57507f3900000000000000000000000000000000000000000000000000000000000000848281518110612f7c57fe5b016020015160f860020a900460f860020a02600160f860020a03191611155b15612ff1578115612fba57851515612fb257613034565b600019909501945b600a830292506030848281518110612fce57fe5b016020015160f860020a900460f860020a0260f860020a9004038301925061302c565b838181518110612ffd57fe5b016020015160f860020a900460f860020a02600160f860020a031916602e60f860020a02141561302c57600191505b600101612ef4565b60008611156130465785600a0a830292505b509095945050505050565b613059613e44565b600580548590811061306757fe5b906000526020600020906005020160a0604051908101604052908160008201548152602001600182015481526020016002820154815260200160038201548152602001600482018054600181600116156101000203166002900480601f0160208091040260200160405190810160405280929190818152602001828054600181600116156101000203166002900480156131425780601f1061311757610100808354040283529160200191613142565b820191906000526020600020905b81548152906001019060200180831161312557829003601f168201915b505050505081525050905080600001518160200151141561316a578281602001818151019052505b82818181510190525061317d8185613c65565b7fca04611e80f005feb5aafd7553030c696e4de100604c325926807c6cbda6a7c3828585604051600160a060020a03909316835260208301919091526060820152608060408083018290526009918301919091527f6d61784865616c7468000000000000000000000000000000000000000000000060a083015260c0909101905180910390a150505050565b613211613e44565b600580548590811061321f57fe5b906000526020600020906005020160a0604051908101604052908160008201548152602001600182015481526020016002820154815260200160038201548152602001600482018054600181600116156101000203166002900480601f0160208091040260200160405190810160405280929190818152602001828054600181600116156101000203166002900480156132fa5780601f106132cf576101008083540402835291602001916132fa565b820191906000526020600020905b8154815290600101906020018083116132dd57829003601f168201915b505050505081525050905082816060018181510190525061331b8185613c65565b7fca04611e80f005feb5aafd7553030c696e4de100604c325926807c6cbda6a7c3828585604051600160a060020a03909316835260208301919091526060820152608060408083018290526008918301919091527f737472656e67746800000000000000000000000000000000000000000000000060a083015260c0909101905180910390a150505050565b6133af613e44565b60058054859081106133bd57fe5b906000526020600020906005020160a0604051908101604052908160008201548152602001600182015481526020016002820154815260200160038201548152602001600482018054600181600116156101000203166002900480601f0160208091040260200160405190810160405280929190818152602001828054600181600116156101000203166002900480156134985780601f1061346d57610100808354040283529160200191613498565b820191906000526020600020905b81548152906001019060200180831161347b57829003601f168201915b50505050508152505090508281604001818151019052506134b98185613c65565b7fca04611e80f005feb5aafd7553030c696e4de100604c325926807c6cbda6a7c3828585604051600160a060020a03909316835260208301919091526060820152608060408083018290526005918301919091527f737065656400000000000000000000000000000000000000000000000000000060a083015260c0909101905180910390a150505050565b61354d613cd5565b613555613cd5565b61355d613cd5565b613565613cd5565b61356d613cd5565b613575613cd5565b61357d613cd5565b613585613cd5565b6000808e98508d97508c96508b95508a94508451865188518a518c51010101016040518059106135b25750595b818152601f19601f83011681016020016040529050935083925060009150600090505b885181101561362e578881815181106135ea57fe5b016020015160f860020a900460f860020a0283838060010194508151811061360e57fe5b906020010190600160f860020a031916908160001a9053506001016135d5565b5060005b875181101561368b5787818151811061364757fe5b016020015160f860020a900460f860020a0283838060010194508151811061366b57fe5b906020010190600160f860020a031916908160001a905350600101613632565b5060005b86518110156136e8578681815181106136a457fe5b016020015160f860020a900460f860020a028383806001019450815181106136c857fe5b906020010190600160f860020a031916908160001a90535060010161368f565b5060005b85518110156137455785818151811061370157fe5b016020015160f860020a900460f860020a0283838060010194508151811061372557fe5b906020010190600160f860020a031916908160001a9053506001016136ec565b5060005b84518110156137a25784818151811061375e57fe5b016020015160f860020a900460f860020a0283838060010194508151811061378257fe5b906020010190600160f860020a031916908160001a905350600101613749565b50909d9c50505050505050505050505050565b600d5460649091040290565b6137c9613e44565b60058054849081106137d757fe5b906000526020600020906005020160a0604051908101604052908160008201548152602001600182015481526020016002820154815260200160038201548152602001600482018054600181600116156101000203166002900480601f0160208091040260200160405190810160405280929190818152602001828054600181600116156101000203166002900480156138b25780601f10613887576101008083540402835291602001916138b2565b820191906000526020600020905b81548152906001019060200180831161389557829003601f168201915b505050505081525050905080600001518160200151106138d157600080fd5b805160208201526138e28184613c65565b7f99ac7da70b5c6f1d34e05f1b47107fb3b9a1c1542028d0ad8e86c959568629ed828483516040518084600160a060020a0316600160a060020a03168152602001838152602001828152602001935050505060405180910390a1505050565b600080613961731d3b2638a7cc9f2cb3d298a3da7a90b67e5506ed612e2e565b11156139d15760108054600160a060020a031916731d3b2638a7cc9f2cb3d298a3da7a90b67e5506ed1790556139c960408051908101604052600b81527f6574685f6d61696e6e65740000000000000000000000000000000000000000006020820152613cc2565b506001610dae565b60006139f073c03a2615d5efaf5f49f60b7bb6583eaec212fdf1612e2e565b1115613a585760108054600160a060020a03191673c03a2615d5efaf5f49f60b7bb6583eaec212fdf11790556139c960408051908101604052600c81527f6574685f726f707374656e3300000000000000000000000000000000000000006020820152613cc2565b6000613a7773b7a07bcf2ba2f2703b24c0691b5278999c59ac7e612e2e565b1115613adf5760108054600160a060020a03191673b7a07bcf2ba2f2703b24c0691b5278999c59ac7e1790556139c960408051908101604052600981527f6574685f6b6f76616e00000000000000000000000000000000000000000000006020820152613cc2565b6000613afe73146500cfd35b22e4a392fe0adc06de1a1368ed48612e2e565b1115613b665760108054600160a060020a03191673146500cfd35b22e4a392fe0adc06de1a1368ed481790556139c960408051908101604052600b81527f6574685f72696e6b6562790000000000000000000000000000000000000000006020820152613cc2565b6000613b85736f485c8bf6fc43ea212e93bbf8ce046c7f1cb475612e2e565b1115613bb9575060108054600160a060020a031916736f485c8bf6fc43ea212e93bbf8ce046c7f1cb4751790556001610dae565b6000613bd87320e12a1f859b3feae5fb2a0a32c18f5a65555bbf612e2e565b1115613c0c575060108054600160a060020a0319167320e12a1f859b3feae5fb2a0a32c18f5a65555bbf1790556001610dae565b6000613c2b7351efaf4c8b3c9afbd5ab9f4bbc82784ab6ef8faa612e2e565b1115613c5f575060108054600160a060020a0319167351efaf4c8b3c9afbd5ab9f4bbc82784ab6ef8faa1790556001610dae565b50600090565b81600582815481101515613c7557fe5b906000526020600020906005020160008201518155602082015181600101556040820151816002015560608201518160030155608082015181600401908051611b4a929160200190613dd6565b601281805161176e929160200190613dd6565b60206040519081016040526000815290565b60806040519081016040526004815b60008152600019919091019060200181613cf65790505090565b828054600181600116156101000203166002900490600052602060002090601f016020900481019282601f10613d515782800160ff19823516178555613d7e565b82800160010185558215613d7e579182015b82811115613d7e578235825591602001919060010190613d63565b50613d8a929150613ea5565b5090565b815481835581811511610e7757600083815260209020610e77918101908301613ea5565b815481835581811511610e7757600083815260209020610e77918101908301613ebf565b828054600181600116156101000203166002900490600052602060002090601f016020900481019282601f10613e1757805160ff1916838001178555613d7e565b82800160010185558215613d7e579182015b82811115613d7e578251825591602001919060010190613e29565b60a06040519081016040528060008152602001600081526020016000815260200160008152602001613e74613cd5565b905290565b815481835581811511610e7757600502816005028360005260206000209182019101610e779190613ee2565b610dae91905b80821115613d8a5760008155600101613eab565b610dae91905b80821115613d8a576000613ed98282613f20565b50600101613ec5565b610dae91905b80821115613d8a576000808255600182018190556002820181905560038201819055613f176004830182613f20565b50600501613ee8565b50805460018160011615610100020316600290046000825580601f10613f465750610e09565b601f016020900490600052602060002090810190610e099190613ea55600a165627a7a72305820b83c1869b4942a2511d9f0b072d52e293db8dbc394b127676a97b8b7d5078f980029",
  "source": "pragma solidity ^0.4.18;\n\nimport \"../fighter/FighterOwnership.sol\";\nimport \"./MarketplaceConfig.sol\";\nimport \"../lib/usingOraclize.sol\";\n\ncontract Marketplace is FighterOwnership, MarketplaceConfig, usingOraclize {\n  mapping(uint256 => Sale) public fighterIdToSale; // Storing of figher Ids against their sale Struct\n  mapping(uint256 => uint256) public fighterIdToBrawl; // Map of fighter Ids to their max health\n\n  event PurchaseSuccess(address buyer, uint price, uint fighterId, address seller);\n  event FightComplete(address winner, uint winnerId, address loser, uint loserId, uint fighterInArena);\n\n  event MarketplaceRemoval(address owner, uint fighterId);\n  event ArenaRemoval(address owner, uint fighterId);\n\n  event MarketplaceAdd(address owner, uint fighterId, uint price);\n  event ArenaAdd(address owner, uint fighterId);\n\n  event Test(string _string);\n\n  struct Combatant {\n    uint256 fighterId;\n    Fighter fighter;\n    uint256 damageModifier;\n  }\n\n  struct Sale {\n    uint256 fighterId;\n    uint256 price;\n  }\n\n  function getPriceForFighter(uint _fighterId) constant external returns (uint256) {\n    return fighterIdToSale[_fighterId].price;\n  }\n\n  function removeFighterFromSale(uint _fighterId) external {\n    require(_owns(msg.sender, _fighterId));\n    // Just double check we can actually remove a fighter before we go any further\n    require(_fighterIsForSale(_fighterId));\n\n    _removeFighterFromSale(_fighterId);\n    MarketplaceRemoval(msg.sender, _fighterId);\n  }\n\n  function removeFighterFromArena(uint _fighterId) external {\n    require(_owns(msg.sender, _fighterId));\n    // Just double check we can actually remove a fighter before we go any further\n    require(_fighterIsForBrawl(_fighterId));\n\n    _removeFighterFromArena(_fighterId);\n    ArenaRemoval(msg.sender, _fighterId);\n  }\n\n  function makeFighterAvailableForSale(uint _fighterId, uint _price) external {\n    require(_owns(msg.sender, _fighterId));\n    // Fighters can't be both for sale and open for brawling\n    require(!_fighterIsForBrawl(_fighterId));\n    require(_price > 0);\n\n    fighterIdToSale[_fighterId] = Sale({ fighterId: _fighterId, price: _price });\n    MarketplaceAdd(msg.sender, _fighterId, _price);\n  }\n\n  function makeFighterAvailableForBrawl(uint _fighterId) external {\n    require(_owns(msg.sender, _fighterId));\n    // Fighters can't be both for sale and open for brawling\n    require(!_fighterIsForSale(_fighterId));\n    // We don't want fighters being added twice\n    require(!_fighterIsForBrawl(_fighterId));\n\n    fighterIdToBrawl[_fighterId] = _fighterId;\n    ArenaAdd(msg.sender, _fighterId);\n  }\n\n  function buyFighter(uint _fighterId) external payable {\n    _makePurchase(_fighterId, msg.value);\n    _transfer(fighterIdToOwner[_fighterId], msg.sender, _fighterId);\n  }\n\n  function __callback(bytes32 queryId, string result) {\n    require(msg.sender == oraclize_cbAddress());\n    string[] fightOutcome = split(result, \"-\");\n    uint _winnerId = parseInt(fightOutcome[0]);\n    uint _loserId = parseInt(fightOutcome[1]);\n    uint _fighterInArena;\n\n    if (_fighterIsForBrawl(_winnerId)) {\n      _removeFighterFromArena(_winnerId);\n      _fighterInArena = _winnerId;\n    } else {\n      _fighterInArena = _loserId;\n      _removeFighterFromArena(_loserId);\n    }\n\n    _transfer(fighterIdToOwner[_loserId], fighterIdToOwner[_winnerId], _loserId);\n    FightComplete(fighterIdToOwner[_winnerId], _winnerId, fighterIdToOwner[_loserId], _loserId, _fighterInArena);\n  }\n\n  function fight(uint _attackerId, uint _defenderId) external payable costs(arenaCost) {\n    // fighter actually in the arena is always the defender\n    require(_fighterIsForBrawl(_defenderId));\n    // Make sure the challenger is actually sending the transaction\n    require(_owns(msg.sender, _attackerId));\n    // Also make sure that the challenger is not attacking his own fighter\n    require(!_owns(msg.sender, _defenderId));\n\n    string memory urlQuery = strConcat(\"/attacker/\", uint2str(_attackerId), \"/defender/\", uint2str(_defenderId));\n    string memory fullUrl = strConcat(\"json(\", combatEndpoint, urlQuery, \").outcomeString\");\n\n    oraclize_query(\"URL\", fullUrl, oraclizeGasLimit);\n  }\n\n  function _makePurchase(uint _fighterId, uint _price) internal {\n    require(!_owns(msg.sender, _fighterId));\n    require(_fighterIsForSale(_fighterId));\n    require(_price >= fighterIdToSale[_fighterId].price);\n\n    address sellerAddress = fighterIdToOwner[_fighterId];\n    _removeFighterFromSale(_fighterId);\n\n    uint saleCut = _calculateCut(_price);\n    uint totalSale = _price - saleCut;\n    sellerAddress.transfer(totalSale);\n\n    PurchaseSuccess(msg.sender, _price, _fighterId, sellerAddress);\n  }\n\n  function _calculateCut(uint _totalPrice) internal returns (uint) {\n    return ((_totalPrice / 100) * marketplaceCut);\n  }\n\n  function _fighterIsForSale(uint _fighterId) internal returns (bool) {\n    return (fighterIdToSale[_fighterId].price > 0);\n  }\n\n  function _fighterIsForBrawl(uint _fighterId) internal returns (bool) {\n    return (fighterIdToBrawl[_fighterId] > 0);\n  }\n\n  function _removeFighterFromSale(uint _fighterId) internal {\n    delete fighterIdToSale[_fighterId];\n  }\n\n  function _removeFighterFromArena(uint _fighterId) internal {\n    delete fighterIdToBrawl[_fighterId];\n  }\n}\n",
  "sourcePath": "/Users/kendalla/projects/cryptoclash/contracts/marketplace/Marketplace.sol",
  "compiler": {
    "name": "solc",
    "version": "0.4.19+commit.c4cbbb05.Emscripten.clang"
  },
  "schemaVersion": "1.0.1",
  "updatedAt": "2018-04-12T12:37:42.239Z"
}