{
  "contractName": "Marketplace",
  "abi": [
    {
      "constant": true,
      "inputs": [
        {
          "name": "_interfaceID",
          "type": "bytes4"
        }
      ],
      "name": "supportsInterface",
      "outputs": [
        {
          "name": "",
          "type": "bool"
        }
      ],
      "payable": false,
      "stateMutability": "view",
      "type": "function"
    },
    {
      "constant": true,
      "inputs": [
        {
          "name": "",
          "type": "address"
        }
      ],
      "name": "fighterCountForOwner",
      "outputs": [
        {
          "name": "",
          "type": "uint256"
        }
      ],
      "payable": false,
      "stateMutability": "view",
      "type": "function"
    },
    {
      "constant": true,
      "inputs": [
        {
          "name": "_tokenId",
          "type": "uint256"
        },
        {
          "name": "_preferredTransport",
          "type": "string"
        }
      ],
      "name": "tokenMetadata",
      "outputs": [
        {
          "name": "infoUrl",
          "type": "string"
        }
      ],
      "payable": false,
      "stateMutability": "view",
      "type": "function"
    },
    {
      "constant": true,
      "inputs": [],
      "name": "name",
      "outputs": [
        {
          "name": "",
          "type": "string"
        }
      ],
      "payable": false,
      "stateMutability": "view",
      "type": "function"
    },
    {
      "constant": false,
      "inputs": [
        {
          "name": "_to",
          "type": "address"
        },
        {
          "name": "_tokenId",
          "type": "uint256"
        }
      ],
      "name": "approve",
      "outputs": [],
      "payable": false,
      "stateMutability": "nonpayable",
      "type": "function"
    },
    {
      "constant": true,
      "inputs": [],
      "name": "totalSupply",
      "outputs": [
        {
          "name": "",
          "type": "uint256"
        }
      ],
      "payable": false,
      "stateMutability": "view",
      "type": "function"
    },
    {
      "constant": false,
      "inputs": [
        {
          "name": "_recipient",
          "type": "address"
        }
      ],
      "name": "withdrawBalanceToAddress",
      "outputs": [],
      "payable": false,
      "stateMutability": "nonpayable",
      "type": "function"
    },
    {
      "constant": false,
      "inputs": [
        {
          "name": "_from",
          "type": "address"
        },
        {
          "name": "_to",
          "type": "address"
        },
        {
          "name": "_tokenId",
          "type": "uint256"
        }
      ],
      "name": "transferFrom",
      "outputs": [],
      "payable": false,
      "stateMutability": "nonpayable",
      "type": "function"
    },
    {
      "constant": false,
      "inputs": [
        {
          "name": "_recipient",
          "type": "address"
        },
        {
          "name": "_maxHealth",
          "type": "uint256"
        },
        {
          "name": "_speed",
          "type": "uint256"
        },
        {
          "name": "_strength",
          "type": "uint256"
        },
        {
          "name": "_typeId",
          "type": "uint256"
        }
      ],
      "name": "customOwnerCreation",
      "outputs": [],
      "payable": false,
      "stateMutability": "nonpayable",
      "type": "function"
    },
    {
      "constant": false,
      "inputs": [
        {
          "name": "_fighterId",
          "type": "uint256"
        },
        {
          "name": "_attribute",
          "type": "string"
        },
        {
          "name": "_seed",
          "type": "uint256"
        }
      ],
      "name": "trainFighter",
      "outputs": [
        {
          "name": "",
          "type": "uint256"
        }
      ],
      "payable": true,
      "stateMutability": "payable",
      "type": "function"
    },
    {
      "constant": false,
      "inputs": [
        {
          "name": "newProbability",
          "type": "uint256"
        }
      ],
      "name": "setFighterCreationChance",
      "outputs": [],
      "payable": false,
      "stateMutability": "nonpayable",
      "type": "function"
    },
    {
      "constant": true,
      "inputs": [
        {
          "name": "",
          "type": "uint256"
        }
      ],
      "name": "fighterIdToApproved",
      "outputs": [
        {
          "name": "",
          "type": "address"
        }
      ],
      "payable": false,
      "stateMutability": "view",
      "type": "function"
    },
    {
      "constant": false,
      "inputs": [
        {
          "name": "newFactor",
          "type": "uint256"
        }
      ],
      "name": "setTrainingFactor",
      "outputs": [],
      "payable": false,
      "stateMutability": "nonpayable",
      "type": "function"
    },
    {
      "constant": true,
      "inputs": [
        {
          "name": "",
          "type": "uint256"
        }
      ],
      "name": "fighterIdToOwner",
      "outputs": [
        {
          "name": "",
          "type": "address"
        }
      ],
      "payable": false,
      "stateMutability": "view",
      "type": "function"
    },
    {
      "constant": false,
      "inputs": [],
      "name": "withdrawBalance",
      "outputs": [],
      "payable": false,
      "stateMutability": "nonpayable",
      "type": "function"
    },
    {
      "constant": true,
      "inputs": [
        {
          "name": "_tokenId",
          "type": "uint256"
        }
      ],
      "name": "ownerOf",
      "outputs": [
        {
          "name": "owner",
          "type": "address"
        }
      ],
      "payable": false,
      "stateMutability": "view",
      "type": "function"
    },
    {
      "constant": false,
      "inputs": [
        {
          "name": "newEndpoint",
          "type": "string"
        }
      ],
      "name": "setNewCombatEndpoint",
      "outputs": [],
      "payable": false,
      "stateMutability": "nonpayable",
      "type": "function"
    },
    {
      "constant": true,
      "inputs": [],
      "name": "combatEndpoint",
      "outputs": [
        {
          "name": "",
          "type": "string"
        }
      ],
      "payable": false,
      "stateMutability": "view",
      "type": "function"
    },
    {
      "constant": true,
      "inputs": [],
      "name": "trainingCost",
      "outputs": [
        {
          "name": "",
          "type": "uint256"
        }
      ],
      "payable": false,
      "stateMutability": "view",
      "type": "function"
    },
    {
      "constant": true,
      "inputs": [
        {
          "name": "_owner",
          "type": "address"
        }
      ],
      "name": "balanceOf",
      "outputs": [
        {
          "name": "count",
          "type": "uint256"
        }
      ],
      "payable": false,
      "stateMutability": "view",
      "type": "function"
    },
    {
      "constant": false,
      "inputs": [
        {
          "name": "_recipient",
          "type": "address"
        },
        {
          "name": "_seed",
          "type": "uint256"
        }
      ],
      "name": "ownerCreation",
      "outputs": [],
      "payable": false,
      "stateMutability": "nonpayable",
      "type": "function"
    },
    {
      "constant": true,
      "inputs": [
        {
          "name": "",
          "type": "address"
        },
        {
          "name": "",
          "type": "uint256"
        }
      ],
      "name": "ownedFighters",
      "outputs": [
        {
          "name": "",
          "type": "uint256"
        }
      ],
      "payable": false,
      "stateMutability": "view",
      "type": "function"
    },
    {
      "constant": true,
      "inputs": [
        {
          "name": "_owner",
          "type": "address"
        }
      ],
      "name": "tokensOfOwner",
      "outputs": [
        {
          "name": "ownerTokens",
          "type": "uint256[]"
        }
      ],
      "payable": false,
      "stateMutability": "view",
      "type": "function"
    },
    {
      "constant": true,
      "inputs": [],
      "name": "owner",
      "outputs": [
        {
          "name": "",
          "type": "address"
        }
      ],
      "payable": false,
      "stateMutability": "view",
      "type": "function"
    },
    {
      "constant": false,
      "inputs": [
        {
          "name": "_newCut",
          "type": "uint256"
        }
      ],
      "name": "setNewMarketplaceCut",
      "outputs": [],
      "payable": false,
      "stateMutability": "nonpayable",
      "type": "function"
    },
    {
      "constant": true,
      "inputs": [],
      "name": "symbol",
      "outputs": [
        {
          "name": "",
          "type": "string"
        }
      ],
      "payable": false,
      "stateMutability": "view",
      "type": "function"
    },
    {
      "constant": true,
      "inputs": [
        {
          "name": "",
          "type": "uint256"
        }
      ],
      "name": "fighterIdToBrawl",
      "outputs": [
        {
          "name": "",
          "type": "uint256"
        }
      ],
      "payable": false,
      "stateMutability": "view",
      "type": "function"
    },
    {
      "constant": false,
      "inputs": [
        {
          "name": "newCost",
          "type": "uint256"
        }
      ],
      "name": "setNewTrainingCost",
      "outputs": [],
      "payable": false,
      "stateMutability": "nonpayable",
      "type": "function"
    },
    {
      "constant": true,
      "inputs": [
        {
          "name": "",
          "type": "uint256"
        }
      ],
      "name": "fighterIdToSale",
      "outputs": [
        {
          "name": "fighterId",
          "type": "uint256"
        },
        {
          "name": "price",
          "type": "uint256"
        }
      ],
      "payable": false,
      "stateMutability": "view",
      "type": "function"
    },
    {
      "constant": false,
      "inputs": [
        {
          "name": "_to",
          "type": "address"
        },
        {
          "name": "_tokenId",
          "type": "uint256"
        }
      ],
      "name": "transfer",
      "outputs": [],
      "payable": false,
      "stateMutability": "nonpayable",
      "type": "function"
    },
    {
      "constant": true,
      "inputs": [],
      "name": "marketplaceCut",
      "outputs": [
        {
          "name": "",
          "type": "uint256"
        }
      ],
      "payable": false,
      "stateMutability": "view",
      "type": "function"
    },
    {
      "constant": true,
      "inputs": [],
      "name": "trainingFactor",
      "outputs": [
        {
          "name": "",
          "type": "uint256"
        }
      ],
      "payable": false,
      "stateMutability": "view",
      "type": "function"
    },
    {
      "constant": true,
      "inputs": [],
      "name": "erc721Metadata",
      "outputs": [
        {
          "name": "",
          "type": "address"
        }
      ],
      "payable": false,
      "stateMutability": "view",
      "type": "function"
    },
    {
      "constant": false,
      "inputs": [
        {
          "name": "_owner",
          "type": "address"
        }
      ],
      "name": "getFightersForAddress",
      "outputs": [
        {
          "name": "",
          "type": "uint256[]"
        }
      ],
      "payable": false,
      "stateMutability": "nonpayable",
      "type": "function"
    },
    {
      "constant": false,
      "inputs": [],
      "name": "killConract",
      "outputs": [],
      "payable": false,
      "stateMutability": "nonpayable",
      "type": "function"
    },
    {
      "constant": true,
      "inputs": [
        {
          "name": "",
          "type": "uint256"
        }
      ],
      "name": "fighterTypes",
      "outputs": [
        {
          "name": "",
          "type": "string"
        }
      ],
      "payable": false,
      "stateMutability": "view",
      "type": "function"
    },
    {
      "constant": false,
      "inputs": [
        {
          "name": "_contractAddress",
          "type": "address"
        }
      ],
      "name": "setMetadataAddress",
      "outputs": [],
      "payable": false,
      "stateMutability": "nonpayable",
      "type": "function"
    },
    {
      "constant": false,
      "inputs": [
        {
          "name": "_fighterId",
          "type": "uint256"
        }
      ],
      "name": "healFighter",
      "outputs": [],
      "payable": true,
      "stateMutability": "payable",
      "type": "function"
    },
    {
      "constant": false,
      "inputs": [
        {
          "name": "newOwner",
          "type": "address"
        }
      ],
      "name": "transferOwnership",
      "outputs": [],
      "payable": false,
      "stateMutability": "nonpayable",
      "type": "function"
    },
    {
      "constant": true,
      "inputs": [],
      "name": "chanceOfFighterCreation",
      "outputs": [
        {
          "name": "",
          "type": "uint256"
        }
      ],
      "payable": false,
      "stateMutability": "view",
      "type": "function"
    },
    {
      "constant": false,
      "inputs": [
        {
          "name": "_seed",
          "type": "uint256"
        }
      ],
      "name": "searchForFighter",
      "outputs": [
        {
          "name": "fighterFound",
          "type": "bool"
        }
      ],
      "payable": false,
      "stateMutability": "nonpayable",
      "type": "function"
    },
    {
      "anonymous": false,
      "inputs": [
        {
          "indexed": false,
          "name": "buyer",
          "type": "address"
        },
        {
          "indexed": false,
          "name": "price",
          "type": "uint256"
        },
        {
          "indexed": false,
          "name": "fighterId",
          "type": "uint256"
        },
        {
          "indexed": false,
          "name": "seller",
          "type": "address"
        }
      ],
      "name": "PurchaseSuccess",
      "type": "event"
    },
    {
      "anonymous": false,
      "inputs": [
        {
          "indexed": false,
          "name": "winner",
          "type": "address"
        },
        {
          "indexed": false,
          "name": "winnerId",
          "type": "uint256"
        },
        {
          "indexed": false,
          "name": "winnersHealth",
          "type": "uint256"
        },
        {
          "indexed": false,
          "name": "loser",
          "type": "address"
        },
        {
          "indexed": false,
          "name": "loserId",
          "type": "uint256"
        },
        {
          "indexed": false,
          "name": "fighterInArena",
          "type": "uint256"
        }
      ],
      "name": "FightComplete",
      "type": "event"
    },
    {
      "anonymous": false,
      "inputs": [
        {
          "indexed": false,
          "name": "owner",
          "type": "address"
        },
        {
          "indexed": false,
          "name": "fighterId",
          "type": "uint256"
        }
      ],
      "name": "MarketplaceRemoval",
      "type": "event"
    },
    {
      "anonymous": false,
      "inputs": [
        {
          "indexed": false,
          "name": "owner",
          "type": "address"
        },
        {
          "indexed": false,
          "name": "fighterId",
          "type": "uint256"
        }
      ],
      "name": "ArenaRemoval",
      "type": "event"
    },
    {
      "anonymous": false,
      "inputs": [
        {
          "indexed": false,
          "name": "owner",
          "type": "address"
        },
        {
          "indexed": false,
          "name": "fighterId",
          "type": "uint256"
        },
        {
          "indexed": false,
          "name": "price",
          "type": "uint256"
        }
      ],
      "name": "MarketplaceAdd",
      "type": "event"
    },
    {
      "anonymous": false,
      "inputs": [
        {
          "indexed": false,
          "name": "owner",
          "type": "address"
        },
        {
          "indexed": false,
          "name": "fighterId",
          "type": "uint256"
        }
      ],
      "name": "ArenaAdd",
      "type": "event"
    },
    {
      "anonymous": false,
      "inputs": [
        {
          "indexed": false,
          "name": "_string",
          "type": "string"
        }
      ],
      "name": "Test",
      "type": "event"
    },
    {
      "anonymous": false,
      "inputs": [
        {
          "indexed": false,
          "name": "from",
          "type": "address"
        },
        {
          "indexed": false,
          "name": "to",
          "type": "address"
        },
        {
          "indexed": false,
          "name": "tokenId",
          "type": "uint256"
        }
      ],
      "name": "Transfer",
      "type": "event"
    },
    {
      "anonymous": false,
      "inputs": [
        {
          "indexed": false,
          "name": "owner",
          "type": "address"
        },
        {
          "indexed": false,
          "name": "approved",
          "type": "address"
        },
        {
          "indexed": false,
          "name": "tokenId",
          "type": "uint256"
        }
      ],
      "name": "Approval",
      "type": "event"
    },
    {
      "anonymous": false,
      "inputs": [
        {
          "indexed": false,
          "name": "_keccak1",
          "type": "bytes32"
        },
        {
          "indexed": false,
          "name": "_keccak2",
          "type": "bytes32"
        }
      ],
      "name": "Test",
      "type": "event"
    },
    {
      "anonymous": false,
      "inputs": [
        {
          "indexed": false,
          "name": "owner",
          "type": "address"
        },
        {
          "indexed": false,
          "name": "fighterId",
          "type": "uint256"
        },
        {
          "indexed": false,
          "name": "maxHealth",
          "type": "uint256"
        },
        {
          "indexed": false,
          "name": "speed",
          "type": "uint256"
        },
        {
          "indexed": false,
          "name": "strength",
          "type": "uint256"
        },
        {
          "indexed": false,
          "name": "fighterType",
          "type": "string"
        }
      ],
      "name": "Creation",
      "type": "event"
    },
    {
      "anonymous": false,
      "inputs": [
        {
          "indexed": false,
          "name": "owner",
          "type": "address"
        },
        {
          "indexed": false,
          "name": "fighterId",
          "type": "uint256"
        },
        {
          "indexed": false,
          "name": "attribute",
          "type": "string"
        },
        {
          "indexed": false,
          "name": "increaseValue",
          "type": "uint256"
        }
      ],
      "name": "AttributeIncrease",
      "type": "event"
    },
    {
      "anonymous": false,
      "inputs": [
        {
          "indexed": false,
          "name": "owner",
          "type": "address"
        },
        {
          "indexed": false,
          "name": "fighterId",
          "type": "uint256"
        },
        {
          "indexed": false,
          "name": "maxHealth",
          "type": "uint256"
        }
      ],
      "name": "Healed",
      "type": "event"
    },
    {
      "anonymous": false,
      "inputs": [
        {
          "indexed": false,
          "name": "fighterWasFound",
          "type": "bool"
        },
        {
          "indexed": false,
          "name": "owner",
          "type": "address"
        },
        {
          "indexed": false,
          "name": "fighterId",
          "type": "uint256"
        }
      ],
      "name": "FighterFound",
      "type": "event"
    },
    {
      "constant": true,
      "inputs": [
        {
          "name": "_fighterId",
          "type": "uint256"
        }
      ],
      "name": "getPriceForFighter",
      "outputs": [
        {
          "name": "",
          "type": "uint256"
        }
      ],
      "payable": false,
      "stateMutability": "view",
      "type": "function"
    },
    {
      "constant": false,
      "inputs": [
        {
          "name": "_fighterId",
          "type": "uint256"
        }
      ],
      "name": "removeFighterFromSale",
      "outputs": [],
      "payable": false,
      "stateMutability": "nonpayable",
      "type": "function"
    },
    {
      "constant": false,
      "inputs": [
        {
          "name": "_fighterId",
          "type": "uint256"
        }
      ],
      "name": "removeFighterFromArena",
      "outputs": [],
      "payable": false,
      "stateMutability": "nonpayable",
      "type": "function"
    },
    {
      "constant": false,
      "inputs": [
        {
          "name": "_fighterId",
          "type": "uint256"
        },
        {
          "name": "_price",
          "type": "uint256"
        }
      ],
      "name": "makeFighterAvailableForSale",
      "outputs": [],
      "payable": false,
      "stateMutability": "nonpayable",
      "type": "function"
    },
    {
      "constant": false,
      "inputs": [
        {
          "name": "_fighterId",
          "type": "uint256"
        }
      ],
      "name": "makeFighterAvailableForBrawl",
      "outputs": [],
      "payable": false,
      "stateMutability": "nonpayable",
      "type": "function"
    },
    {
      "constant": false,
      "inputs": [
        {
          "name": "_fighterId",
          "type": "uint256"
        }
      ],
      "name": "buyFighter",
      "outputs": [],
      "payable": true,
      "stateMutability": "payable",
      "type": "function"
    },
    {
      "constant": false,
      "inputs": [
        {
          "name": "queryId",
          "type": "bytes32"
        },
        {
          "name": "result",
          "type": "string"
        }
      ],
      "name": "__callback",
      "outputs": [],
      "payable": false,
      "stateMutability": "nonpayable",
      "type": "function"
    },
    {
      "constant": false,
      "inputs": [
        {
          "name": "myid",
          "type": "bytes32"
        },
        {
          "name": "result",
          "type": "string"
        },
        {
          "name": "proof",
          "type": "bytes"
        }
      ],
      "name": "__callback",
      "outputs": [],
      "payable": false,
      "stateMutability": "nonpayable",
      "type": "function"
    },
    {
      "constant": false,
      "inputs": [
        {
          "name": "_attackerId",
          "type": "uint256"
        },
        {
          "name": "_defenderId",
          "type": "uint256"
        }
      ],
      "name": "fight",
      "outputs": [],
      "payable": true,
      "stateMutability": "payable",
      "type": "function"
    }
  ],
  "bytecode": "0x6060604052600360015560036002556611c37937e080006003556005600c55608060405190810160405280604381526020017f68747470733a2f2f72696e6b656279627261776c6261636b656e642e6865726f81526020017f6b756170702e636f6d2f6170692f6172656e612f63616c63756c61746557696e81526020017f6e65720000000000000000000000000000000000000000000000000000000000815250600d908051620000b6929160200190620000d8565b5060008054600160a060020a03191633600160a060020a03161790556200017d565b828054600181600116156101000203166002900490600052602060002090601f016020900481019282601f106200011b57805160ff19168380011785556200014b565b828001600101855582156200014b579182015b828111156200014b5782518255916020019190600101906200012e565b50620001599291506200015d565b5090565b6200017a91905b8082111562000159576000815560010162000164565b90565b613f0c806200018d6000396000f3006060604052600436106102425763ffffffff60e060020a60003504166301ffc9a78114610247578063027f48f7146102935780630560ff44146102c457806306fdde031461035d578063095ea7b31461037057806318160ddd146103945780631ba21011146103a757806323b872dd146103c6578063241860aa146103ee57806327dc297e146104045780632b1a8d461461045a57806338bbfa50146104855780633f40d2881461051d57806340e4e0481461053757806344e59ee91461054d578063495ac3a81461057f5780634b1939331461059557806354c3bfa1146105ab5780635fd8c710146105c15780636352211e146105d4578063641e3aae146105ea578063656aa88a146106005780636bbd3c971461061e578063701a19fd1461063157806370a08231146106445780638053e5d8146106635780638357b8dd146106855780638462151c146106a75780638da5cb5b14610719578063920b4a2d1461072c57806395d89b4114610742578063a2df64df14610755578063a5557ce01461076b578063a707c73c14610781578063a9059cbb146107af578063ad2dccfe146107d1578063b64ce34a146107e4578063b6e57064146107f7578063bc4006f514610810578063c20548ac14610823578063c48f66f214610842578063ca39e5ef14610855578063cbb5bbbf14610863578063d9861dab1461086e578063e17b25af14610884578063e88f4f1f146108a3578063efbeef80146108b9578063f2fde38b146108c4578063f36014d2146108e3578063f6a67716146108f6575b600080fd5b341561025257600080fd5b61027f7fffffffff000000000000000000000000000000000000000000000000000000006004351661090c565b604051901515815260200160405180910390f35b341561029e57600080fd5b6102b2600160a060020a0360043516610b93565b60405190815260200160405180910390f35b34156102cf57600080fd5b6102e6600480359060248035908101910135610ba5565b60405160208082528190810183818151815260200191508051906020019080838360005b8381101561032257808201518382015260200161030a565b50505050905090810190601f16801561034f5780820380516001836020036101000a031916815260200191505b509250505060405180910390f35b341561036857600080fd5b6102e6610c82565b341561037b57600080fd5b610392600160a060020a0360043516602435610cb9565b005b341561039f57600080fd5b6102b2610d2c565b34156103b257600080fd5b610392600160a060020a0360043516610d33565b34156103d157600080fd5b610392600160a060020a0360043581169060243516604435610d8e565b34156103f957600080fd5b6102b2600435610dfe565b341561040f57600080fd5b610392600480359060446024803590810190830135806020601f82018190048102016040519081016040528181529291906020840183838082843750949650610e1395505050505050565b341561046557600080fd5b610392600160a060020a036004351660243560443560643560843561109b565b341561049057600080fd5b610392600480359060446024803590810190830135806020601f8201819004810201604051908101604052818152929190602084018383808284378201915050505050509190803590602001908201803590602001908080601f016020809104026020016040519081016040528181529291906020840183838082843750949650610df995505050505050565b6102b260048035906024803590810191013560443561117d565b341561054257600080fd5b61039260043561120e565b341561055857600080fd5b61056360043561122e565b604051600160a060020a03909116815260200160405180910390f35b341561058a57600080fd5b610392600435611249565b34156105a057600080fd5b610563600435611269565b34156105b657600080fd5b610392600435611284565b34156105cc57600080fd5b6103926112fd565b34156105df57600080fd5b610563600435611353565b34156105f557600080fd5b610392600435611377565b341561060b57600080fd5b61039260048035602481019101356113f0565b341561062957600080fd5b6102e6611417565b341561063c57600080fd5b6102b26114b5565b341561064f57600080fd5b6102b2600160a060020a03600435166114bb565b341561066e57600080fd5b610392600160a060020a03600435166024356114d6565b341561069057600080fd5b6102b2600160a060020a0360043516602435611537565b34156106b257600080fd5b6106c6600160a060020a0360043516611565565b60405160208082528190810183818151815260200191508051906020019060200280838360005b838110156107055780820151838201526020016106ed565b505050509050019250505060405180910390f35b341561072457600080fd5b610563611646565b341561073757600080fd5b610392600435611655565b341561074d57600080fd5b6102e6611675565b341561076057600080fd5b6102b26004356116ac565b341561077657600080fd5b6103926004356116be565b341561078c57600080fd5b6107976004356116de565b60405191825260208201526040908101905180910390f35b34156107ba57600080fd5b610392600160a060020a03600435166024356116f7565b34156107dc57600080fd5b6102b2611751565b34156107ef57600080fd5b6102b2611757565b341561080257600080fd5b61039260043560243561175d565b341561081b57600080fd5b610563611821565b341561082e57600080fd5b6106c6600160a060020a0360043516611830565b341561084d57600080fd5b6103926118b3565b6103926004356024356118dc565b610392600435611b01565b341561087957600080fd5b6102e6600435611b2e565b341561088f57600080fd5b610392600160a060020a0360043516611bb6565b34156108ae57600080fd5b610392600435611bd8565b610392600435611c6e565b34156108cf57600080fd5b610392600160a060020a0360043516611c97565b34156108ee57600080fd5b6102b2611ce1565b341561090157600080fd5b61027f600435611ce7565b60006040517f737570706f727473496e7465726661636528627974657334290000000000000081526019016040518091039020600160e060020a03191682600160e060020a0319161480610b8b57506040517f746f6b656e4d657461646174612875696e743235362c737472696e67290000008152601d0160405180910390206040517f746f6b656e734f664f776e657228616464726573732900000000000000000000815260160160405180910390206040517f7472616e7366657246726f6d28616464726573732c616464726573732c75696e81527f7432353629000000000000000000000000000000000000000000000000000000602082015260250160405180910390206040517f7472616e7366657228616464726573732c75696e743235362900000000000000815260190160405180910390206040517f617070726f766528616464726573732c75696e74323536290000000000000000815260180160405180910390206040517f6f776e65724f662875696e743235362900000000000000000000000000000000815260100160405180910390206040517f62616c616e63654f662861646472657373290000000000000000000000000000815260120160405180910390206040517f746f74616c537570706c792829000000000000000000000000000000000000008152600d0160405180910390206040517f73796d626f6c2829000000000000000000000000000000000000000000000000815260080160405180910390206040517f6e616d652829000000000000000000000000000000000000000000000000000081526006016040518091039020181818181818181818600160e060020a03191682600160e060020a031916145b90505b919050565b60056020526000908152604090205481565b610bad613c51565b610bb5613c63565b600b54600090600160a060020a03161515610bcf57600080fd5b600b54600160a060020a031663cb4799f2878787600060405160a0015260405160e060020a63ffffffff861602815260048101848152604060248301908152604483018490529091606401848480828437820191505094505050505060a060405180830381600087803b1515610c4457600080fd5b6102c65a03f11515610c5557600080fd5b50505060405180608001805160209091016040529092509050610c788282611e0d565b9695505050505050565b60408051908101604052600e81527f43727970746f427261776c657273000000000000000000000000000000000000602082015281565b610cc33382611e62565b1515610cce57600080fd5b610cd88183611e82565b7f8c5be1e5ebec7d5bd14f71427d1e84f3dd0314c0f7b2291e5b200ac8c7c3b925338383604051600160a060020a039384168152919092166020820152604080820192909252606001905180910390a15050565b6004545b90565b60005433600160a060020a03908116911614610d4e57600080fd5b80600160a060020a03166108fc30600160a060020a0316319081150290604051600060405180830381858888f193505050501515610d8b57600080fd5b50565b600160a060020a0382161515610da357600080fd5b30600160a060020a031682600160a060020a031614151515610dc457600080fd5b610dce3382611eb0565b1515610dd957600080fd5b610de38382611e62565b1515610dee57600080fd5b610df9838383611ed0565b505050565b60009081526013602052604090206001015490565b610e1b613c51565b600080600080610e29611fe3565b600160a060020a031633600160a060020a03161415610e4757600080fd5b610e848660408051908101604052600181527f2d000000000000000000000000000000000000000000000000000000000000006020820152612183565b80548060200260200160405190810160405281815291906000602084015b82821015610f5f57838290600052602060002090018054600181600116156101000203166002900480601f016020809104026020016040519081016040528092919081815260200182805460018160011615610100020316600290048015610f4b5780601f10610f2057610100808354040283529160200191610f4b565b820191906000526020600020905b815481529060010190602001808311610f2e57829003601f168201915b505050505081526020019060010190610ea2565b505050509450610f8485600081518110610f7557fe5b906020019060200201516122a6565b9350610f9685600181518110610f7557fe5b9250610fa885600281518110610f7557fe5b9150610fb3846122b3565b15610fc857610fc1846122c6565b5082610fd3565b5081610fd3816122c6565b6000838152600660205260408082205486835291205461100091600160a060020a03908116911685611ed0565b6000848152600660205260408082205485835291819020547ffb708df51bbc469c707fb22038e85ab80099cf6182a9f133533b0cee7a098d1692600160a060020a03908116928892879216908890879051600160a060020a0396871681526020810195909552604080860194909452919094166060840152608083019390935260a082019290925260c001905180910390a150505050505050565b60005433600160a060020a039081169116146110b657600080fd5b611175848484886009868154811015156110cc57fe5b90600052602060002090018054600181600116156101000203166002900480601f01602080910402602001604051908101604052809291908181526020018280546001816001161561010002031660029004801561116b5780601f106111405761010080835404028352916020019161116b565b820191906000526020600020905b81548152906001019060200180831161114e57829003601f168201915b50505050506122d7565b505050505050565b6000806003548034101515611204576111963388611e62565b15156111a157600080fd5b6002546111ad85612471565b8115156111b657fe5b0491508115156111c557600191505b6112008787878080601f0160208091040260200160405190810160405281815292919060208401838380828437508994506124b29350505050565b8192505b5050949350505050565b60005433600160a060020a0390811691161461122957600080fd5b600155565b600760205260009081526040902054600160a060020a031681565b60005433600160a060020a0390811691161461126457600080fd5b600255565b600660205260009081526040902054600160a060020a031681565b61128e3382611e62565b151561129957600080fd5b6112a281612697565b15156112ad57600080fd5b6112b6816126ad565b7f3e808687755674bf6703cb65acce9b7da494797511c241a38e74134813273be23382604051600160a060020a03909216825260208201526040908101905180910390a150565b60005433600160a060020a0390811691161461131857600080fd5b600054600160a060020a039081169030163180156108fc0290604051600060405180830381858888f19350505050151561135157600080fd5b565b600081815260066020526040902054600160a060020a0316801515610b8e57600080fd5b6113813382611e62565b151561138c57600080fd5b611395816122b3565b15156113a057600080fd5b6113a9816122c6565b7fb3fefaad4d5eb17c447489e1529238e4f44c82b4f99284ca82969e1bfbb8e8c53382604051600160a060020a03909216825260208201526040908101905180910390a150565b60005433600160a060020a0390811691161461140b57600080fd5b610df9600d8383613c8c565b600d8054600181600116156101000203166002900480601f0160208091040260200160405190810160405280929190818152602001828054600181600116156101000203166002900480156114ad5780601f10611482576101008083540402835291602001916114ad565b820191906000526020600020905b81548152906001019060200180831161149057829003601f168201915b505050505081565b60035481565b600160a060020a031660009081526005602052604090205490565b600080548190819033600160a060020a039081169116146114f657600080fd5b6114ff84612471565b925061150a83612471565b915061151e846001600980549050036126c4565b9050611175600a8484886009868154811015156110cc57fe5b60086020528160005260406000208181548110151561155257fe5b6000918252602090912001549150829050565b61156d613c51565b600080600061157a613c51565b6000611585876114bb565b94508415156115b557600060405180591061159d5750595b9080825280602002602001820160405250955061163c565b600093506115c1610d2c565b9250846040518059106115d15750595b90808252806020026020018201604052509150600190505b82811161163857600081815260066020526040902054600160a060020a0388811691161415611630578082858151811061161f57fe5b602090810290910101526001909301925b6001016115e9565b8195505b5050505050919050565b600054600160a060020a031681565b60005433600160a060020a0390811691161461167057600080fd5b600c55565b60408051908101604052600481527f4252574c00000000000000000000000000000000000000000000000000000000602082015281565b60146020526000908152604090205481565b60005433600160a060020a039081169116146116d957600080fd5b600355565b6013602052600090815260409020805460019091015482565b600160a060020a038216151561170c57600080fd5b30600160a060020a031682600160a060020a03161415151561172d57600080fd5b6117373382611e62565b151561174257600080fd5b61174d338383611ed0565b5050565b600c5481565b60025481565b6117673383611e62565b151561177257600080fd5b61177b826122b3565b1561178557600080fd5b6000811161179257600080fd5b60408051908101604090815283825260208083018490526000858152601390915220815181556020820151600190910155507f9eaf5a44f033adc048686ca80e281b74f25fb52e998dd7f8e6812721383ae88a3383836040518084600160a060020a0316600160a060020a03168152602001838152602001828152602001935050505060405180910390a15050565b600b54600160a060020a031681565b611838613c51565b6008600083600160a060020a0316600160a060020a031681526020019081526020016000208054806020026020016040519081016040528092919081815260200182805480156118a757602002820191906000526020600020905b815481526020019060010190808311611893575b50505050509050919050565b60005433600160a060020a039081169116146118ce57600080fd5b600054600160a060020a0316ff5b6118e4613c51565b6118ec613c51565b6118f5836122b3565b151561190057600080fd5b61190a3385611e62565b151561191557600080fd5b61191f3384611e62565b1561192957600080fd5b6119ab60408051908101604052600a81527f2f61747461636b65722f000000000000000000000000000000000000000000006020820152611969866126f6565b60408051908101604052600a81527f2f646566656e6465722f0000000000000000000000000000000000000000000060208201526119a6876126f6565b6127ea565b9150611abb6040805190810160405280600581526020017f6a736f6e28000000000000000000000000000000000000000000000000000000815250600d8054600181600116156101000203166002900480601f016020809104026020016040519081016040528092919081815260200182805460018160011615610100020316600290048015611a7c5780601f10611a5157610100808354040283529160200191611a7c565b820191906000526020600020905b815481529060010190602001808311611a5f57829003601f168201915b50505050508460408051908101604052600f81527f292e6f7574636f6d65537472696e67000000000000000000000000000000000060208201526127ea565b9050611afa60408051908101604052600381527f55524c0000000000000000000000000000000000000000000000000000000000602082015282612816565b5050505050565b611b0b8134612b8e565b600081815260066020526040902054610d8b90600160a060020a03163383611ed0565b6009805482908110611b3c57fe5b90600052602060002090016000915090508054600181600116156101000203166002900480601f0160208091040260200160405190810160405280929190818152602001828054600181600116156101000203166002900480156114ad5780601f10611482576101008083540402835291602001916114ad565b600b8054600160a060020a031916600160a060020a0392909216919091179055565b611be23382611e62565b1515611bed57600080fd5b611bf681612697565b15611c0057600080fd5b611c09816122b3565b15611c1357600080fd5b600081815260146020526040908190208290557ffd493e9e8a025ff7f65e924f394f7f1c3804e6114587e73b05e393385823ae5f903390839051600160a060020a03909216825260208201526040908101905180910390a150565b6003543481901061174d57611c833383611e62565b1515611c8e57600080fd5b61174d82612c9b565b60005433600160a060020a03908116911614611cb257600080fd5b600160a060020a03811615610d8b5760008054600160a060020a038316600160a060020a031990911617905550565b60015481565b600080600080600080611cf987612ca5565b945060015485811515611d0857fe5b061515611dad57611d1887612471565b9350611d2384612471565b9250611d37876001600980549050036126c4565b9150611d50600a8585336009878154811015156110cc57fe5b90507f9bd510de0dcc8d26bfd35e5e1bad5c406154844b85cde0690dfa7881e481de76600133836040519215158352600160a060020a0390911660208301526040808301919091526060909101905180910390a16001955061163c565b7f9bd510de0dcc8d26bfd35e5e1bad5c406154844b85cde0690dfa7881e481de7660003360006040519215158352600160a060020a0390911660208301526040808301919091526060909101905180910390a15060009695505050505050565b611e15613c51565b611e1d613c51565b60008084604051805910611e2e5750595b818152601f19601f8301168101602001604052905092505060208201905084611e58828287612cd1565b5090949350505050565b600090815260066020526040902054600160a060020a0391821691161490565b6000918252600760205260409091208054600160a060020a031916600160a060020a03909216919091179055565b600090815260076020526040902054600160a060020a0391821691161490565b600160a060020a038216600081815260056020908152604080832080546001908101909155858452600683528184208054600160a060020a0319168617905593835260089091529020805490918101611f298382613d0a565b506000918252602090912001819055600160a060020a03831615611f8e5760008181526007602052604090208054600160a060020a0319169055611f6d8382612d16565b600160a060020a038316600090815260056020526040902080546000190190555b7fddf252ad1be2c89b69c2b068fc378daa952ba7f163c4a11628f55a4df523b3ef838383604051600160a060020a039384168152919092166020820152604080820192909252606001905180910390a1505050565b600e54600090600160a060020a031615806120105750600e5461200e90600160a060020a0316612daa565b155b156120215761201f6000612dae565b505b600e54600160a060020a03166338cc48316000604051602001526040518163ffffffff1660e060020a028152600401602060405180830381600087803b151561206957600080fd5b6102c65a03f1151561207a57600080fd5b5050506040518051600f54600160a060020a03908116911614905061211c57600e54600160a060020a03166338cc48316000604051602001526040518163ffffffff1660e060020a028152600401602060405180830381600087803b15156120e157600080fd5b6102c65a03f115156120f257600080fd5b5050506040518051600f8054600160a060020a031916600160a060020a0392909216919091179055505b600f54600160a060020a031663c281d19e6000604051602001526040518163ffffffff1660e060020a028152600401602060405180830381600087803b151561216457600080fd5b6102c65a03f1151561217557600080fd5b505050604051805191505090565b600061218d613c51565b600080612198613c51565b6121a0613c51565b600080899650600095505b6001875103861015612299576121c28a8a88612db8565b94508460001914156121d357865194505b8585036040518059106121e35750595b818152601f19601f830116810160200160405290509350839250600091508590505b8481101561225d5786818151811061221957fe5b016020015160f860020a900460f860020a0283838060010194508151811061223d57fe5b906020010190600160f860020a031916908160001a905350600101612205565b8460010195508780548060010182816122769190613d2e565b6000928352602090922001848051612292929160200190613d52565b50506121ab565b5050505050505092915050565b6000610b8b826000612e5f565b6000908152601460205260408120541190565b600090815260146020526040812055565b60006122e1613dc0565b600060a0604051908101604052808981526020018981526020018881526020018781526020018581525091506001600480548060010182816123239190613df5565b600092835260209092208591600502018151815560208201518160010155604082015181600201556060820151816003015560808201518160040190805161236f929160200190613d52565b50505003905063ffffffff8116811461238757600080fd5b7faf9d5de903d3c24be3b2973b79ee3eefd1b8aada3d46baf60ee9f0d086b75fb985828a8a8a896040518087600160a060020a0316600160a060020a0316815260200186815260200185815260200184815260200183815260200180602001828103825283818151815260200191508051906020019080838360005b8381101561241b578082015183820152602001612403565b50505050905090810190601f1680156124485780820380516001836020036101000a031916815260200191505b5097505050505050505060405180910390a161246660008683611ed0565b979650505050505050565b600080600a60014303408460405191825260208201526040908101905190819003902081151561249d57fe5b069050600081116124ac575060015b92915050565b6040517f6d61784865616c746800000000000000000000000000000000000000000000008152600901604051908190039020826040518082805190602001908083835b602083106125145780518252601f1990920191602091820191016124f5565b6001836020036101000a0380198251168184511617909252505050919091019250604091505051908190039020141561255757612552838233612fcd565b610df9565b6040517f737472656e6774680000000000000000000000000000000000000000000000008152600801604051908190039020826040518082805190602001908083835b602083106125b95780518252601f19909201916020918201910161259a565b6001836020036101000a038019825116818451161790925250505091909101925060409150505190819003902014156125f757612552838233613185565b6040517f73706565640000000000000000000000000000000000000000000000000000008152600501604051908190039020826040518082805190602001908083835b602083106126595780518252601f19909201916020918201910161263a565b6001836020036101000a03801982511681845116179092525050509190910192506040915050519081900390201415610df957610df9838233613323565b6000908152601360205260408120600101541190565b600090815260136020526040812081815560010155565b6000816001430340846040519182526020820152604090810190519081900390208115156126ee57fe5b069392505050565b6126fe613c51565b600080612709613c51565b600085151561274d5760408051908101604052600181527f3000000000000000000000000000000000000000000000000000000000000000602082015294506127e1565b8593505b831561276857600190920191600a84049350612751565b826040518059106127765750595b818152601f19601f8301168101602001604052905091505060001982015b85156127dd5760001981019060f860020a6030600a89060102908390815181106127ba57fe5b906020010190600160f860020a031916908160001a905350600a86049550612794565b8194505b50505050919050565b6127f2613c51565b61280d858585856020604051908101604052600081526134c1565b95945050505050565b600e546000908190600160a060020a031615806128455750600e5461284390600160a060020a0316612daa565b155b15612856576128546000612dae565b505b600e54600160a060020a03166338cc48316000604051602001526040518163ffffffff1660e060020a028152600401602060405180830381600087803b151561289e57600080fd5b6102c65a03f115156128af57600080fd5b5050506040518051600f54600160a060020a03908116911614905061295157600e54600160a060020a03166338cc48316000604051602001526040518163ffffffff1660e060020a028152600401602060405180830381600087803b151561291657600080fd5b6102c65a03f1151561292757600080fd5b5050506040518051600f8054600160a060020a031916600160a060020a0392909216919091179055505b600f54600160a060020a031663524f3889856000604051602001526040518263ffffffff1660e060020a0281526004018080602001828103825283818151815260200191508051906020019080838360005b838110156129bb5780820151838201526020016129a3565b50505050905090810190601f1680156129e85780820380516001836020036101000a031916815260200191505b5092505050602060405180830381600087803b1515612a0657600080fd5b6102c65a03f11515612a1757600080fd5b5050506040518051915050670de0b6b3a764000062030d403a0201811115612a425760009150612b87565b600f54600160a060020a031663adf59f99826000878782604051602001526040518563ffffffff1660e060020a028152600401808481526020018060200180602001838103835285818151815260200191508051906020019080838360005b83811015612ab9578082015183820152602001612aa1565b50505050905090810190601f168015612ae65780820380516001836020036101000a031916815260200191505b50838103825284818151815260200191508051906020019080838360005b83811015612b1c578082015183820152602001612b04565b50505050905090810190601f168015612b495780820380516001836020036101000a031916815260200191505b50955050505050506020604051808303818588803b1515612b6957600080fd5b6125ee5a03f11515612b7a57600080fd5b5050505060405180519250505b5092915050565b6000806000612b9d3386611e62565b15612ba757600080fd5b612bb085612697565b1515612bbb57600080fd5b600085815260136020526040902060010154841015612bd957600080fd5b600085815260066020526040902054600160a060020a03169250612bfc856126ad565b612c0584613731565b915050808303600160a060020a03831681156108fc0282604051600060405180830381858888f193505050501515612c3c57600080fd5b7f4750c394c3222df02b322dd8f4ee23c0025975134406b18d35ab7c9c1bb41ac233858786604051600160a060020a03948516815260208101939093526040808401929092529092166060820152608001905180910390a15050505050565b610d8b813361373d565b600080606460014303408460405191825260208201526040908101905190819003902081151561249d57fe5b60005b60208210612cf75782518452602084019350602083019250602082039150612cd4565b6001826020036101000a03905080198351168185511617909352505050565b60005b600160a060020a038316600090815260086020526040902054811015610df957600160a060020a0383166000908152600860205260409020805483919083908110612d6057fe5b9060005260206000209001541415612da257600160a060020a0383166000908152600860205260409020805482908110612d9657fe5b60009182526020822001555b600101612d19565b3b90565b6000610b8b6138bd565b6000612dc2613c51565b612dca613c51565b508490508360008151600114612ddc57fe5b50835b8251811015612e4f5781600081518110612df557fe5b016020015160f860020a900460f860020a02600160f860020a031916838281518110612e1d57fe5b016020015160f860020a900460f860020a02600160f860020a0319161415612e4757809350612e55565b600101612ddf565b60001993505b5050509392505050565b6000612e69613c51565b5082600080805b8351811015612fb0577f3000000000000000000000000000000000000000000000000000000000000000848281518110612ea657fe5b016020015160f860020a900460f860020a02600160f860020a03191610158015612f1757507f3900000000000000000000000000000000000000000000000000000000000000848281518110612ef857fe5b016020015160f860020a900460f860020a02600160f860020a03191611155b15612f6d578115612f3657851515612f2e57612fb0565b600019909501945b600a830292506030848281518110612f4a57fe5b016020015160f860020a900460f860020a0260f860020a90040383019250612fa8565b838181518110612f7957fe5b016020015160f860020a900460f860020a02600160f860020a031916602e60f860020a021415612fa857600191505b600101612e70565b6000861115612fc25785600a0a830292505b509095945050505050565b612fd5613dc0565b6004805485908110612fe357fe5b906000526020600020906005020160a0604051908101604052908160008201548152602001600182015481526020016002820154815260200160038201548152602001600482018054600181600116156101000203166002900480601f0160208091040260200160405190810160405280929190818152602001828054600181600116156101000203166002900480156130be5780601f10613093576101008083540402835291602001916130be565b820191906000526020600020905b8154815290600101906020018083116130a157829003601f168201915b50505050508152505090508060000151816020015114156130e6578281602001818151019052505b8281818151019052506130f98185613be1565b7fca04611e80f005feb5aafd7553030c696e4de100604c325926807c6cbda6a7c3828585604051600160a060020a03909316835260208301919091526060820152608060408083018290526009918301919091527f6d61784865616c7468000000000000000000000000000000000000000000000060a083015260c0909101905180910390a150505050565b61318d613dc0565b600480548590811061319b57fe5b906000526020600020906005020160a0604051908101604052908160008201548152602001600182015481526020016002820154815260200160038201548152602001600482018054600181600116156101000203166002900480601f0160208091040260200160405190810160405280929190818152602001828054600181600116156101000203166002900480156132765780601f1061324b57610100808354040283529160200191613276565b820191906000526020600020905b81548152906001019060200180831161325957829003601f168201915b50505050508152505090508281606001818151019052506132978185613be1565b7fca04611e80f005feb5aafd7553030c696e4de100604c325926807c6cbda6a7c3828585604051600160a060020a03909316835260208301919091526060820152608060408083018290526008918301919091527f737472656e67746800000000000000000000000000000000000000000000000060a083015260c0909101905180910390a150505050565b61332b613dc0565b600480548590811061333957fe5b906000526020600020906005020160a0604051908101604052908160008201548152602001600182015481526020016002820154815260200160038201548152602001600482018054600181600116156101000203166002900480601f0160208091040260200160405190810160405280929190818152602001828054600181600116156101000203166002900480156134145780601f106133e957610100808354040283529160200191613414565b820191906000526020600020905b8154815290600101906020018083116133f757829003601f168201915b50505050508152505090508281604001818151019052506134358185613be1565b7fca04611e80f005feb5aafd7553030c696e4de100604c325926807c6cbda6a7c3828585604051600160a060020a03909316835260208301919091526060820152608060408083018290526005918301919091527f737065656400000000000000000000000000000000000000000000000000000060a083015260c0909101905180910390a150505050565b6134c9613c51565b6134d1613c51565b6134d9613c51565b6134e1613c51565b6134e9613c51565b6134f1613c51565b6134f9613c51565b613501613c51565b6000808e98508d97508c96508b95508a94508451865188518a518c510101010160405180591061352e5750595b818152601f19601f83011681016020016040529050935083925060009150600090505b88518110156135aa5788818151811061356657fe5b016020015160f860020a900460f860020a0283838060010194508151811061358a57fe5b906020010190600160f860020a031916908160001a905350600101613551565b5060005b8751811015613607578781815181106135c357fe5b016020015160f860020a900460f860020a028383806001019450815181106135e757fe5b906020010190600160f860020a031916908160001a9053506001016135ae565b5060005b86518110156136645786818151811061362057fe5b016020015160f860020a900460f860020a0283838060010194508151811061364457fe5b906020010190600160f860020a031916908160001a90535060010161360b565b5060005b85518110156136c15785818151811061367d57fe5b016020015160f860020a900460f860020a028383806001019450815181106136a157fe5b906020010190600160f860020a031916908160001a905350600101613668565b5060005b845181101561371e578481815181106136da57fe5b016020015160f860020a900460f860020a028383806001019450815181106136fe57fe5b906020010190600160f860020a031916908160001a9053506001016136c5565b50909d9c50505050505050505050505050565b600c5460649091040290565b613745613dc0565b600480548490811061375357fe5b906000526020600020906005020160a0604051908101604052908160008201548152602001600182015481526020016002820154815260200160038201548152602001600482018054600181600116156101000203166002900480601f01602080910402602001604051908101604052809291908181526020018280546001816001161561010002031660029004801561382e5780601f106138035761010080835404028352916020019161382e565b820191906000526020600020905b81548152906001019060200180831161381157829003601f168201915b5050505050815250509050806000015181602001511061384d57600080fd5b8051602082015261385e8184613be1565b7f99ac7da70b5c6f1d34e05f1b47107fb3b9a1c1542028d0ad8e86c959568629ed828483516040518084600160a060020a0316600160a060020a03168152602001838152602001828152602001935050505060405180910390a1505050565b6000806138dd731d3b2638a7cc9f2cb3d298a3da7a90b67e5506ed612daa565b111561394d57600e8054600160a060020a031916731d3b2638a7cc9f2cb3d298a3da7a90b67e5506ed17905561394560408051908101604052600b81527f6574685f6d61696e6e65740000000000000000000000000000000000000000006020820152613c3e565b506001610d30565b600061396c73c03a2615d5efaf5f49f60b7bb6583eaec212fdf1612daa565b11156139d457600e8054600160a060020a03191673c03a2615d5efaf5f49f60b7bb6583eaec212fdf117905561394560408051908101604052600c81527f6574685f726f707374656e3300000000000000000000000000000000000000006020820152613c3e565b60006139f373b7a07bcf2ba2f2703b24c0691b5278999c59ac7e612daa565b1115613a5b57600e8054600160a060020a03191673b7a07bcf2ba2f2703b24c0691b5278999c59ac7e17905561394560408051908101604052600981527f6574685f6b6f76616e00000000000000000000000000000000000000000000006020820152613c3e565b6000613a7a73146500cfd35b22e4a392fe0adc06de1a1368ed48612daa565b1115613ae257600e8054600160a060020a03191673146500cfd35b22e4a392fe0adc06de1a1368ed4817905561394560408051908101604052600b81527f6574685f72696e6b6562790000000000000000000000000000000000000000006020820152613c3e565b6000613b01736f485c8bf6fc43ea212e93bbf8ce046c7f1cb475612daa565b1115613b355750600e8054600160a060020a031916736f485c8bf6fc43ea212e93bbf8ce046c7f1cb4751790556001610d30565b6000613b547320e12a1f859b3feae5fb2a0a32c18f5a65555bbf612daa565b1115613b885750600e8054600160a060020a0319167320e12a1f859b3feae5fb2a0a32c18f5a65555bbf1790556001610d30565b6000613ba77351efaf4c8b3c9afbd5ab9f4bbc82784ab6ef8faa612daa565b1115613bdb5750600e8054600160a060020a0319167351efaf4c8b3c9afbd5ab9f4bbc82784ab6ef8faa1790556001610d30565b50600090565b81600482815481101515613bf157fe5b906000526020600020906005020160008201518155602082015181600101556040820151816002015560608201518160030155608082015181600401908051611afa929160200190613d52565b601081805161174d929160200190613d52565b60206040519081016040526000815290565b60806040519081016040526004815b60008152600019919091019060200181613c725790505090565b828054600181600116156101000203166002900490600052602060002090601f016020900481019282601f10613ccd5782800160ff19823516178555613cfa565b82800160010185558215613cfa579182015b82811115613cfa578235825591602001919060010190613cdf565b50613d06929150613e21565b5090565b815481835581811511610df957600083815260209020610df9918101908301613e21565b815481835581811511610df957600083815260209020610df9918101908301613e3b565b828054600181600116156101000203166002900490600052602060002090601f016020900481019282601f10613d9357805160ff1916838001178555613cfa565b82800160010185558215613cfa579182015b82811115613cfa578251825591602001919060010190613da5565b60a06040519081016040528060008152602001600081526020016000815260200160008152602001613df0613c51565b905290565b815481835581811511610df957600502816005028360005260206000209182019101610df99190613e5e565b610d3091905b80821115613d065760008155600101613e27565b610d3091905b80821115613d06576000613e558282613e9c565b50600101613e41565b610d3091905b80821115613d06576000808255600182018190556002820181905560038201819055613e936004830182613e9c565b50600501613e64565b50805460018160011615610100020316600290046000825580601f10613ec25750610d8b565b601f016020900490600052602060002090810190610d8b9190613e215600a165627a7a72305820b4c608f543e2d8886e12c7ae4bb3f71fc53a171129d3236cf3fcb9450494a5ca0029",
  "source": "pragma solidity ^0.4.18;\n\nimport \"../fighter/FighterOwnership.sol\";\nimport \"./MarketplaceConfig.sol\";\nimport \"../lib/usingOraclize.sol\";\n\ncontract Marketplace is FighterOwnership, MarketplaceConfig, usingOraclize {\n  mapping(uint256 => Sale) public fighterIdToSale; // Storing of figher Ids against their sale Struct\n  mapping(uint256 => uint256) public fighterIdToBrawl; // Map of fighter Ids to their max health\n\n  event PurchaseSuccess(address buyer, uint price, uint fighterId, address seller);\n  event FightComplete(address winner, uint winnerId, uint winnersHealth, address loser, uint loserId, uint fighterInArena);\n\n  event MarketplaceRemoval(address owner, uint fighterId);\n  event ArenaRemoval(address owner, uint fighterId);\n\n  event MarketplaceAdd(address owner, uint fighterId, uint price);\n  event ArenaAdd(address owner, uint fighterId);\n\n  event Test(string _string);\n\n  struct Combatant {\n    uint256 fighterId;\n    Fighter fighter;\n    uint256 damageModifier;\n  }\n\n  struct Sale {\n    uint256 fighterId;\n    uint256 price;\n  }\n\n  function getPriceForFighter(uint _fighterId) constant external returns (uint256) {\n    return fighterIdToSale[_fighterId].price;\n  }\n\n  function removeFighterFromSale(uint _fighterId) external {\n    require(_owns(msg.sender, _fighterId));\n    // Just double check we can actually remove a fighter before we go any further\n    require(_fighterIsForSale(_fighterId));\n\n    _removeFighterFromSale(_fighterId);\n    MarketplaceRemoval(msg.sender, _fighterId);\n  }\n\n  function removeFighterFromArena(uint _fighterId) external {\n    require(_owns(msg.sender, _fighterId));\n    // Just double check we can actually remove a fighter before we go any further\n    require(_fighterIsForBrawl(_fighterId));\n\n    _removeFighterFromArena(_fighterId);\n    ArenaRemoval(msg.sender, _fighterId);\n  }\n\n  function makeFighterAvailableForSale(uint _fighterId, uint _price) external {\n    require(_owns(msg.sender, _fighterId));\n    // Fighters can't be both for sale and open for brawling\n    require(!_fighterIsForBrawl(_fighterId));\n    require(_price > 0);\n\n    fighterIdToSale[_fighterId] = Sale({ fighterId: _fighterId, price: _price });\n    MarketplaceAdd(msg.sender, _fighterId, _price);\n  }\n\n  function makeFighterAvailableForBrawl(uint _fighterId) external {\n    require(_owns(msg.sender, _fighterId));\n    // Fighters can't be both for sale and open for brawling\n    require(!_fighterIsForSale(_fighterId));\n    // We don't want fighters being added twice\n    require(!_fighterIsForBrawl(_fighterId));\n\n    fighterIdToBrawl[_fighterId] = _fighterId;\n    ArenaAdd(msg.sender, _fighterId);\n  }\n\n  function buyFighter(uint _fighterId) external payable {\n    _makePurchase(_fighterId, msg.value);\n    _transfer(fighterIdToOwner[_fighterId], msg.sender, _fighterId);\n  }\n\n  function __callback(bytes32 queryId, string result) {\n    if (msg.sender == oraclize_cbAddress()) throw;\n    string[] memory fightOutcome = split(result, \"-\");\n    uint _winnerId = parseInt(fightOutcome[0]);\n    uint _loserId = parseInt(fightOutcome[1]);\n    uint _winnersHealth = parseInt(fightOutcome[2]);\n    uint _fighterInArena;\n\n    if (_fighterIsForBrawl(_winnerId)) {\n      _removeFighterFromArena(_winnerId);\n      _fighterInArena = _winnerId;\n    } else {\n      _fighterInArena = _loserId;\n      _removeFighterFromArena(_loserId);\n    }\n\n    // set the health values of the fighters\n    /* fighters[_winnerId].health = _winnersHealth;\n    fighters[_loserId].health = 0; */\n\n    _transfer(fighterIdToOwner[_loserId], fighterIdToOwner[_winnerId], _loserId);\n    FightComplete(fighterIdToOwner[_winnerId], _winnerId, _winnersHealth, fighterIdToOwner[_loserId], _loserId, _fighterInArena);\n  }\n\n  function fight(uint _attackerId, uint _defenderId) external payable {\n    // fighter actually in the arena is always the defender\n    require(_fighterIsForBrawl(_defenderId));\n    // Make sure the challenger is actually sending the transaction\n    require(_owns(msg.sender, _attackerId));\n    // Also make sure that the challenger is not attacking his own fighter\n    require(!_owns(msg.sender, _defenderId));\n\n    string memory urlQuery = strConcat(\"/attacker/\", uint2str(_attackerId), \"/defender/\", uint2str(_defenderId));\n    string memory fullUrl = strConcat(\"json(\", combatEndpoint, urlQuery, \").outcomeString\");\n\n    oraclize_query(\"URL\", fullUrl);\n  }\n\n  function _makePurchase(uint _fighterId, uint _price) internal {\n    require(!_owns(msg.sender, _fighterId));\n    require(_fighterIsForSale(_fighterId));\n    require(_price >= fighterIdToSale[_fighterId].price);\n\n    address sellerAddress = fighterIdToOwner[_fighterId];\n    _removeFighterFromSale(_fighterId);\n\n    uint saleCut = _calculateCut(_price);\n    uint totalSale = _price - saleCut;\n    sellerAddress.transfer(totalSale);\n\n    PurchaseSuccess(msg.sender, _price, _fighterId, sellerAddress);\n  }\n\n  function _calculateCut(uint _totalPrice) internal returns (uint) {\n    return ((_totalPrice / 100) * marketplaceCut);\n  }\n\n  function _fighterIsForSale(uint _fighterId) internal returns (bool) {\n    return (fighterIdToSale[_fighterId].price > 0);\n  }\n\n  function _fighterIsForBrawl(uint _fighterId) internal returns (bool) {\n    return (fighterIdToBrawl[_fighterId] > 0);\n  }\n\n  function _removeFighterFromSale(uint _fighterId) internal {\n    delete fighterIdToSale[_fighterId];\n  }\n\n  function _removeFighterFromArena(uint _fighterId) internal {\n    delete fighterIdToBrawl[_fighterId];\n  }\n}\n",
  "sourcePath": "/Users/kendalla/projects/cryptoclash/contracts/marketplace/Marketplace.sol",
  "compiler": {
    "name": "solc",
    "version": "0.4.19+commit.c4cbbb05.Emscripten.clang"
  },
  "schemaVersion": "1.0.1",
  "updatedAt": "2018-04-10T12:11:47.503Z"
}