{
  "contractName": "MarketplaceConfig",
  "abi": [
    {
      "constant": false,
      "inputs": [
        {
          "name": "_recipient",
          "type": "address"
        }
      ],
      "name": "withdrawBalanceToAddress",
      "outputs": [],
      "payable": false,
      "stateMutability": "nonpayable",
      "type": "function"
    },
    {
      "constant": false,
      "inputs": [],
      "name": "withdrawBalance",
      "outputs": [],
      "payable": false,
      "stateMutability": "nonpayable",
      "type": "function"
    },
    {
      "constant": true,
      "inputs": [],
      "name": "owner",
      "outputs": [
        {
          "name": "",
          "type": "address"
        }
      ],
      "payable": false,
      "stateMutability": "view",
      "type": "function"
    },
    {
      "constant": false,
      "inputs": [
        {
          "name": "_newCut",
          "type": "uint256"
        }
      ],
      "name": "setNewMarketplaceCut",
      "outputs": [],
      "payable": false,
      "stateMutability": "nonpayable",
      "type": "function"
    },
    {
      "constant": true,
      "inputs": [],
      "name": "marketplaceCut",
      "outputs": [
        {
          "name": "",
          "type": "uint256"
        }
      ],
      "payable": false,
      "stateMutability": "view",
      "type": "function"
    },
    {
      "constant": false,
      "inputs": [],
      "name": "killConract",
      "outputs": [],
      "payable": false,
      "stateMutability": "nonpayable",
      "type": "function"
    },
    {
      "constant": false,
      "inputs": [
        {
          "name": "newOwner",
          "type": "address"
        }
      ],
      "name": "transferOwnership",
      "outputs": [],
      "payable": false,
      "stateMutability": "nonpayable",
      "type": "function"
    }
  ],
  "bytecode": "0x6060604052600560015560008054600160a060020a033316600160a060020a03199091161790556102e9806100356000396000f3006060604052600436106100825763ffffffff7c01000000000000000000000000000000000000000000000000000000006000350416631ba2101181146100875780635fd8c710146100a85780638da5cb5b146100bb578063920b4a2d146100ea578063ad2dccfe14610100578063c48f66f214610125578063f2fde38b14610138575b600080fd5b341561009257600080fd5b6100a6600160a060020a0360043516610157565b005b34156100b357600080fd5b6100a66101b2565b34156100c657600080fd5b6100ce610208565b604051600160a060020a03909116815260200160405180910390f35b34156100f557600080fd5b6100a6600435610217565b341561010b57600080fd5b610113610237565b60405190815260200160405180910390f35b341561013057600080fd5b6100a661023d565b341561014357600080fd5b6100a6600160a060020a0360043516610266565b60005433600160a060020a0390811691161461017257600080fd5b80600160a060020a03166108fc30600160a060020a0316319081150290604051600060405180830381858888f1935050505015156101af57600080fd5b50565b60005433600160a060020a039081169116146101cd57600080fd5b600054600160a060020a039081169030163180156108fc0290604051600060405180830381858888f19350505050151561020657600080fd5b565b600054600160a060020a031681565b60005433600160a060020a0390811691161461023257600080fd5b600155565b60015481565b60005433600160a060020a0390811691161461025857600080fd5b600054600160a060020a0316ff5b60005433600160a060020a0390811691161461028157600080fd5b600160a060020a038116156101af5760008054600160a060020a03831673ffffffffffffffffffffffffffffffffffffffff19909116179055505600a165627a7a72305820051b296a1ce09463f6a18215e1ab7e4a3eac0a27b1b18b284225f5139d53c9c90029",
  "source": "pragma solidity ^0.4.18;\n\nimport \"../base/Ownable.sol\";\n\ncontract MarketplaceConfig is Ownable {\n  uint public marketplaceCut = 5;\n\n  function setNewMarketplaceCut(uint _newCut) external onlyOwner {\n    marketplaceCut = _newCut;\n  }\n\n  function withdrawBalance() external onlyOwner {\n    owner.transfer(this.balance);\n  }\n\n  function withdrawBalanceToAddress(address _recipient) external onlyOwner {\n    _recipient.transfer(this.balance);\n  }\n\n  function killConract() external onlyOwner {\n    selfdestruct(owner);\n  }\n}\n",
  "sourcePath": "/Users/Aaron/Projects/cryptoclash/contracts/marketplace/MarketplaceConfig.sol",
  "compiler": {
    "name": "solc",
    "version": "0.4.18+commit.9cf6e910.Emscripten.clang"
  },
  "schemaVersion": "1.0.1",
  "updatedAt": "2018-01-20T08:24:17.729Z"
}