{
  "contractName": "Marketplace",
  "abi": [
    {
      "constant": true,
      "inputs": [
        {
          "name": "_interfaceID",
          "type": "bytes4"
        }
      ],
      "name": "supportsInterface",
      "outputs": [
        {
          "name": "",
          "type": "bool"
        }
      ],
      "payable": false,
      "stateMutability": "view",
      "type": "function"
    },
    {
      "constant": true,
      "inputs": [
        {
          "name": "",
          "type": "address"
        }
      ],
      "name": "fighterCountForOwner",
      "outputs": [
        {
          "name": "",
          "type": "uint256"
        }
      ],
      "payable": false,
      "stateMutability": "view",
      "type": "function"
    },
    {
      "constant": true,
      "inputs": [
        {
          "name": "_tokenId",
          "type": "uint256"
        },
        {
          "name": "_preferredTransport",
          "type": "string"
        }
      ],
      "name": "tokenMetadata",
      "outputs": [
        {
          "name": "infoUrl",
          "type": "string"
        }
      ],
      "payable": false,
      "stateMutability": "view",
      "type": "function"
    },
    {
      "constant": true,
      "inputs": [],
      "name": "name",
      "outputs": [
        {
          "name": "",
          "type": "string"
        }
      ],
      "payable": false,
      "stateMutability": "view",
      "type": "function"
    },
    {
      "constant": false,
      "inputs": [
        {
          "name": "_to",
          "type": "address"
        },
        {
          "name": "_tokenId",
          "type": "uint256"
        }
      ],
      "name": "approve",
      "outputs": [],
      "payable": false,
      "stateMutability": "nonpayable",
      "type": "function"
    },
    {
      "constant": true,
      "inputs": [],
      "name": "totalSupply",
      "outputs": [
        {
          "name": "",
          "type": "uint256"
        }
      ],
      "payable": false,
      "stateMutability": "view",
      "type": "function"
    },
    {
      "constant": false,
      "inputs": [
        {
          "name": "_recipient",
          "type": "address"
        }
      ],
      "name": "withdrawBalanceToAddress",
      "outputs": [],
      "payable": false,
      "stateMutability": "nonpayable",
      "type": "function"
    },
    {
      "constant": false,
      "inputs": [
        {
          "name": "_from",
          "type": "address"
        },
        {
          "name": "_to",
          "type": "address"
        },
        {
          "name": "_tokenId",
          "type": "uint256"
        }
      ],
      "name": "transferFrom",
      "outputs": [],
      "payable": false,
      "stateMutability": "nonpayable",
      "type": "function"
    },
    {
      "constant": true,
      "inputs": [
        {
          "name": "_fighterId",
          "type": "uint256"
        }
      ],
      "name": "getPriceForFighter",
      "outputs": [
        {
          "name": "",
          "type": "uint256"
        }
      ],
      "payable": false,
      "stateMutability": "view",
      "type": "function"
    },
    {
      "constant": true,
      "inputs": [
        {
          "name": "",
          "type": "uint256"
        }
      ],
      "name": "fighterIdToMaxHealth",
      "outputs": [
        {
          "name": "",
          "type": "uint256"
        }
      ],
      "payable": false,
      "stateMutability": "view",
      "type": "function"
    },
    {
      "constant": false,
      "inputs": [
        {
          "name": "_recipient",
          "type": "address"
        },
        {
          "name": "_maxHealth",
          "type": "uint256"
        },
        {
          "name": "_speed",
          "type": "uint256"
        },
        {
          "name": "_strength",
          "type": "uint256"
        },
        {
          "name": "_typeId",
          "type": "uint256"
        }
      ],
      "name": "customOwnerCreation",
      "outputs": [],
      "payable": false,
      "stateMutability": "nonpayable",
      "type": "function"
    },
    {
      "constant": false,
      "inputs": [
        {
          "name": "_fighterId",
          "type": "uint256"
        },
        {
          "name": "_attribute",
          "type": "string"
        },
        {
          "name": "_seed",
          "type": "uint256"
        }
      ],
      "name": "trainFighter",
      "outputs": [
        {
          "name": "",
          "type": "uint256"
        }
      ],
      "payable": true,
      "stateMutability": "payable",
      "type": "function"
    },
    {
      "constant": false,
      "inputs": [
        {
          "name": "newProbability",
          "type": "uint256"
        }
      ],
      "name": "setFighterCreationChance",
      "outputs": [],
      "payable": false,
      "stateMutability": "nonpayable",
      "type": "function"
    },
    {
      "constant": true,
      "inputs": [
        {
          "name": "",
          "type": "uint256"
        }
      ],
      "name": "fighterIdToApproved",
      "outputs": [
        {
          "name": "",
          "type": "address"
        }
      ],
      "payable": false,
      "stateMutability": "view",
      "type": "function"
    },
    {
      "constant": false,
      "inputs": [
        {
          "name": "newFactor",
          "type": "uint256"
        }
      ],
      "name": "setTrainingFactor",
      "outputs": [],
      "payable": false,
      "stateMutability": "nonpayable",
      "type": "function"
    },
    {
      "constant": true,
      "inputs": [
        {
          "name": "",
          "type": "uint256"
        }
      ],
      "name": "fighterIdToOwner",
      "outputs": [
        {
          "name": "",
          "type": "address"
        }
      ],
      "payable": false,
      "stateMutability": "view",
      "type": "function"
    },
    {
      "constant": false,
      "inputs": [
        {
          "name": "_fighterId",
          "type": "uint256"
        }
      ],
      "name": "removeFighterFromSale",
      "outputs": [],
      "payable": false,
      "stateMutability": "nonpayable",
      "type": "function"
    },
    {
      "constant": false,
      "inputs": [],
      "name": "withdrawBalance",
      "outputs": [],
      "payable": false,
      "stateMutability": "nonpayable",
      "type": "function"
    },
    {
      "constant": true,
      "inputs": [
        {
          "name": "_tokenId",
          "type": "uint256"
        }
      ],
      "name": "ownerOf",
      "outputs": [
        {
          "name": "owner",
          "type": "address"
        }
      ],
      "payable": false,
      "stateMutability": "view",
      "type": "function"
    },
    {
      "constant": false,
      "inputs": [
        {
          "name": "_fighterId",
          "type": "uint256"
        }
      ],
      "name": "removeFighterFromArena",
      "outputs": [],
      "payable": false,
      "stateMutability": "nonpayable",
      "type": "function"
    },
    {
      "constant": true,
      "inputs": [],
      "name": "trainingCost",
      "outputs": [
        {
          "name": "",
          "type": "uint256"
        }
      ],
      "payable": false,
      "stateMutability": "view",
      "type": "function"
    },
    {
      "constant": true,
      "inputs": [
        {
          "name": "_owner",
          "type": "address"
        }
      ],
      "name": "balanceOf",
      "outputs": [
        {
          "name": "count",
          "type": "uint256"
        }
      ],
      "payable": false,
      "stateMutability": "view",
      "type": "function"
    },
    {
      "constant": false,
      "inputs": [
        {
          "name": "_recipient",
          "type": "address"
        },
        {
          "name": "_seed",
          "type": "uint256"
        }
      ],
      "name": "ownerCreation",
      "outputs": [],
      "payable": false,
      "stateMutability": "nonpayable",
      "type": "function"
    },
    {
      "constant": true,
      "inputs": [
        {
          "name": "",
          "type": "address"
        },
        {
          "name": "",
          "type": "uint256"
        }
      ],
      "name": "ownedFighters",
      "outputs": [
        {
          "name": "",
          "type": "uint256"
        }
      ],
      "payable": false,
      "stateMutability": "view",
      "type": "function"
    },
    {
      "constant": true,
      "inputs": [
        {
          "name": "_owner",
          "type": "address"
        }
      ],
      "name": "tokensOfOwner",
      "outputs": [
        {
          "name": "ownerTokens",
          "type": "uint256[]"
        }
      ],
      "payable": false,
      "stateMutability": "view",
      "type": "function"
    },
    {
      "constant": true,
      "inputs": [],
      "name": "owner",
      "outputs": [
        {
          "name": "",
          "type": "address"
        }
      ],
      "payable": false,
      "stateMutability": "view",
      "type": "function"
    },
    {
      "constant": false,
      "inputs": [
        {
          "name": "_newCut",
          "type": "uint256"
        }
      ],
      "name": "setNewMarketplaceCut",
      "outputs": [],
      "payable": false,
      "stateMutability": "nonpayable",
      "type": "function"
    },
    {
      "constant": true,
      "inputs": [],
      "name": "symbol",
      "outputs": [
        {
          "name": "",
          "type": "string"
        }
      ],
      "payable": false,
      "stateMutability": "view",
      "type": "function"
    },
    {
      "constant": false,
      "inputs": [
        {
          "name": "newCost",
          "type": "uint256"
        }
      ],
      "name": "setNewTrainingCost",
      "outputs": [],
      "payable": false,
      "stateMutability": "nonpayable",
      "type": "function"
    },
    {
      "constant": true,
      "inputs": [
        {
          "name": "",
          "type": "uint256"
        }
      ],
      "name": "fighterIdToSale",
      "outputs": [
        {
          "name": "fighterId",
          "type": "uint256"
        },
        {
          "name": "price",
          "type": "uint256"
        }
      ],
      "payable": false,
      "stateMutability": "view",
      "type": "function"
    },
    {
      "constant": false,
      "inputs": [
        {
          "name": "_to",
          "type": "address"
        },
        {
          "name": "_tokenId",
          "type": "uint256"
        }
      ],
      "name": "transfer",
      "outputs": [],
      "payable": false,
      "stateMutability": "nonpayable",
      "type": "function"
    },
    {
      "constant": true,
      "inputs": [],
      "name": "marketplaceCut",
      "outputs": [
        {
          "name": "",
          "type": "uint256"
        }
      ],
      "payable": false,
      "stateMutability": "view",
      "type": "function"
    },
    {
      "constant": true,
      "inputs": [],
      "name": "trainingFactor",
      "outputs": [
        {
          "name": "",
          "type": "uint256"
        }
      ],
      "payable": false,
      "stateMutability": "view",
      "type": "function"
    },
    {
      "constant": false,
      "inputs": [
        {
          "name": "_fighterId",
          "type": "uint256"
        },
        {
          "name": "_price",
          "type": "uint256"
        }
      ],
      "name": "makeFighterAvailableForSale",
      "outputs": [],
      "payable": false,
      "stateMutability": "nonpayable",
      "type": "function"
    },
    {
      "constant": true,
      "inputs": [],
      "name": "erc721Metadata",
      "outputs": [
        {
          "name": "",
          "type": "address"
        }
      ],
      "payable": false,
      "stateMutability": "view",
      "type": "function"
    },
    {
      "constant": false,
      "inputs": [
        {
          "name": "_owner",
          "type": "address"
        }
      ],
      "name": "getFightersForAddress",
      "outputs": [
        {
          "name": "",
          "type": "uint256[]"
        }
      ],
      "payable": false,
      "stateMutability": "nonpayable",
      "type": "function"
    },
    {
      "constant": true,
      "inputs": [],
      "name": "getFightersForSale",
      "outputs": [
        {
          "name": "",
          "type": "uint256[]"
        }
      ],
      "payable": false,
      "stateMutability": "view",
      "type": "function"
    },
    {
      "constant": false,
      "inputs": [],
      "name": "killConract",
      "outputs": [],
      "payable": false,
      "stateMutability": "nonpayable",
      "type": "function"
    },
    {
      "constant": false,
      "inputs": [
        {
          "name": "_fighterId",
          "type": "uint256"
        }
      ],
      "name": "buyFighter",
      "outputs": [],
      "payable": true,
      "stateMutability": "payable",
      "type": "function"
    },
    {
      "constant": true,
      "inputs": [
        {
          "name": "",
          "type": "uint256"
        }
      ],
      "name": "fighterTypes",
      "outputs": [
        {
          "name": "",
          "type": "string"
        }
      ],
      "payable": false,
      "stateMutability": "view",
      "type": "function"
    },
    {
      "constant": false,
      "inputs": [
        {
          "name": "_contractAddress",
          "type": "address"
        }
      ],
      "name": "setMetadataAddress",
      "outputs": [],
      "payable": false,
      "stateMutability": "nonpayable",
      "type": "function"
    },
    {
      "constant": false,
      "inputs": [
        {
          "name": "_fighterId",
          "type": "uint256"
        }
      ],
      "name": "makeFighterAvailableForBrawl",
      "outputs": [],
      "payable": false,
      "stateMutability": "nonpayable",
      "type": "function"
    },
    {
      "constant": false,
      "inputs": [
        {
          "name": "_fighterId",
          "type": "uint256"
        }
      ],
      "name": "healFighter",
      "outputs": [],
      "payable": true,
      "stateMutability": "payable",
      "type": "function"
    },
    {
      "constant": false,
      "inputs": [
        {
          "name": "newOwner",
          "type": "address"
        }
      ],
      "name": "transferOwnership",
      "outputs": [],
      "payable": false,
      "stateMutability": "nonpayable",
      "type": "function"
    },
    {
      "constant": true,
      "inputs": [],
      "name": "chanceOfFighterCreation",
      "outputs": [
        {
          "name": "",
          "type": "uint256"
        }
      ],
      "payable": false,
      "stateMutability": "view",
      "type": "function"
    },
    {
      "constant": true,
      "inputs": [],
      "name": "getFightersInArena",
      "outputs": [
        {
          "name": "",
          "type": "uint256[]"
        }
      ],
      "payable": false,
      "stateMutability": "view",
      "type": "function"
    },
    {
      "constant": false,
      "inputs": [
        {
          "name": "_attackerId",
          "type": "uint256"
        },
        {
          "name": "_defenderId",
          "type": "uint256"
        },
        {
          "name": "_seed",
          "type": "uint256"
        }
      ],
      "name": "fight",
      "outputs": [],
      "payable": false,
      "stateMutability": "nonpayable",
      "type": "function"
    },
    {
      "constant": false,
      "inputs": [
        {
          "name": "_seed",
          "type": "uint256"
        }
      ],
      "name": "searchForFighter",
      "outputs": [
        {
          "name": "fighterFound",
          "type": "bool"
        }
      ],
      "payable": false,
      "stateMutability": "nonpayable",
      "type": "function"
    },
    {
      "anonymous": false,
      "inputs": [
        {
          "indexed": false,
          "name": "buyer",
          "type": "address"
        },
        {
          "indexed": false,
          "name": "price",
          "type": "uint256"
        },
        {
          "indexed": false,
          "name": "fighterId",
          "type": "uint256"
        },
        {
          "indexed": false,
          "name": "seller",
          "type": "address"
        }
      ],
      "name": "PurchaseSuccess",
      "type": "event"
    },
    {
      "anonymous": false,
      "inputs": [
        {
          "indexed": false,
          "name": "winner",
          "type": "address"
        },
        {
          "indexed": false,
          "name": "winnerId",
          "type": "uint256"
        },
        {
          "indexed": false,
          "name": "loser",
          "type": "address"
        },
        {
          "indexed": false,
          "name": "loserId",
          "type": "uint256"
        },
        {
          "indexed": false,
          "name": "fighterInArena",
          "type": "uint256"
        }
      ],
      "name": "FightComplete",
      "type": "event"
    },
    {
      "anonymous": false,
      "inputs": [
        {
          "indexed": false,
          "name": "attacker",
          "type": "address"
        },
        {
          "indexed": false,
          "name": "defender",
          "type": "address"
        },
        {
          "indexed": false,
          "name": "attackerId",
          "type": "uint256"
        },
        {
          "indexed": false,
          "name": "defenderId",
          "type": "uint256"
        },
        {
          "indexed": false,
          "name": "hit",
          "type": "bool"
        },
        {
          "indexed": false,
          "name": "damage",
          "type": "uint256"
        }
      ],
      "name": "CombatRound",
      "type": "event"
    },
    {
      "anonymous": false,
      "inputs": [
        {
          "indexed": false,
          "name": "owner",
          "type": "address"
        },
        {
          "indexed": false,
          "name": "fighterId",
          "type": "uint256"
        }
      ],
      "name": "MarketplaceRemoval",
      "type": "event"
    },
    {
      "anonymous": false,
      "inputs": [
        {
          "indexed": false,
          "name": "owner",
          "type": "address"
        },
        {
          "indexed": false,
          "name": "fighterId",
          "type": "uint256"
        }
      ],
      "name": "ArenaRemoval",
      "type": "event"
    },
    {
      "anonymous": false,
      "inputs": [
        {
          "indexed": false,
          "name": "owner",
          "type": "address"
        },
        {
          "indexed": false,
          "name": "fighterId",
          "type": "uint256"
        },
        {
          "indexed": false,
          "name": "price",
          "type": "uint256"
        }
      ],
      "name": "MarketplaceAdd",
      "type": "event"
    },
    {
      "anonymous": false,
      "inputs": [
        {
          "indexed": false,
          "name": "owner",
          "type": "address"
        },
        {
          "indexed": false,
          "name": "fighterId",
          "type": "uint256"
        }
      ],
      "name": "ArenaAdd",
      "type": "event"
    },
    {
      "anonymous": false,
      "inputs": [
        {
          "indexed": false,
          "name": "from",
          "type": "address"
        },
        {
          "indexed": false,
          "name": "to",
          "type": "address"
        },
        {
          "indexed": false,
          "name": "tokenId",
          "type": "uint256"
        }
      ],
      "name": "Transfer",
      "type": "event"
    },
    {
      "anonymous": false,
      "inputs": [
        {
          "indexed": false,
          "name": "owner",
          "type": "address"
        },
        {
          "indexed": false,
          "name": "approved",
          "type": "address"
        },
        {
          "indexed": false,
          "name": "tokenId",
          "type": "uint256"
        }
      ],
      "name": "Approval",
      "type": "event"
    },
    {
      "anonymous": false,
      "inputs": [
        {
          "indexed": false,
          "name": "owner",
          "type": "address"
        },
        {
          "indexed": false,
          "name": "fighterId",
          "type": "uint256"
        },
        {
          "indexed": false,
          "name": "maxHealth",
          "type": "uint256"
        },
        {
          "indexed": false,
          "name": "speed",
          "type": "uint256"
        },
        {
          "indexed": false,
          "name": "strength",
          "type": "uint256"
        },
        {
          "indexed": false,
          "name": "fighterType",
          "type": "string"
        }
      ],
      "name": "Creation",
      "type": "event"
    },
    {
      "anonymous": false,
      "inputs": [
        {
          "indexed": false,
          "name": "owner",
          "type": "address"
        },
        {
          "indexed": false,
          "name": "fighterId",
          "type": "uint256"
        },
        {
          "indexed": false,
          "name": "attribute",
          "type": "string"
        },
        {
          "indexed": false,
          "name": "increaseValue",
          "type": "uint256"
        }
      ],
      "name": "AttributeIncrease",
      "type": "event"
    },
    {
      "anonymous": false,
      "inputs": [
        {
          "indexed": false,
          "name": "owner",
          "type": "address"
        },
        {
          "indexed": false,
          "name": "fighterId",
          "type": "uint256"
        },
        {
          "indexed": false,
          "name": "maxHealth",
          "type": "uint256"
        }
      ],
      "name": "Healed",
      "type": "event"
    },
    {
      "anonymous": false,
      "inputs": [
        {
          "indexed": false,
          "name": "fighterWasFound",
          "type": "bool"
        },
        {
          "indexed": false,
          "name": "owner",
          "type": "address"
        },
        {
          "indexed": false,
          "name": "fighterId",
          "type": "uint256"
        }
      ],
      "name": "FighterFound",
      "type": "event"
    }
  ],
  "bytecode": "0x60606040526003600181905560028190556611c37937e0800090556005600c5560008054600160a060020a033316600160a060020a031990911617905561368d8061004b6000396000f3006060604052600436106102455763ffffffff7c010000000000000000000000000000000000000000000000000000000060003504166301ffc9a7811461024a578063027f48f7146102965780630560ff44146102c757806306fdde0314610360578063095ea7b31461037357806318160ddd146103975780631ba21011146103aa57806323b872dd146103c9578063241860aa146103f157806328e3cec0146104075780632b1a8d461461041d5780633f40d2881461044857806340e4e0481461046257806344e59ee914610478578063495ac3a8146104aa5780634b193933146104c057806354c3bfa1146104d65780635fd8c710146104ec5780636352211e146104ff578063641e3aae14610515578063701a19fd1461052b57806370a082311461053e5780638053e5d81461055d5780638357b8dd1461057f5780638462151c146105a15780638da5cb5b14610613578063920b4a2d1461062657806395d89b411461063c578063a5557ce01461064f578063a707c73c14610665578063a9059cbb14610693578063ad2dccfe146106b5578063b64ce34a146106c8578063b6e57064146106db578063bc4006f5146106f4578063c20548ac14610707578063c38ee21114610726578063c48f66f214610739578063cbb5bbbf1461074c578063d9861dab14610757578063e17b25af1461076d578063e88f4f1f1461078c578063efbeef80146107a2578063f2fde38b146107ad578063f36014d2146107cc578063f65bd953146107df578063f669ddaf146107f2578063f6a677161461080e575b600080fd5b341561025557600080fd5b6102827fffffffff0000000000000000000000000000000000000000000000000000000060043516610824565b604051901515815260200160405180910390f35b34156102a157600080fd5b6102b5600160a060020a0360043516610aab565b60405190815260200160405180910390f35b34156102d257600080fd5b6102e9600480359060248035908101910135610abd565b60405160208082528190810183818151815260200191508051906020019080838360005b8381101561032557808201518382015260200161030d565b50505050905090810190601f1680156103525780820380516001836020036101000a031916815260200191505b509250505060405180910390f35b341561036b57600080fd5b6102e9610bb3565b341561037e57600080fd5b610395600160a060020a0360043516602435610bea565b005b34156103a257600080fd5b6102b5610c5d565b34156103b557600080fd5b610395600160a060020a0360043516610c64565b34156103d457600080fd5b610395600160a060020a0360043581169060243516604435610cbf565b34156103fc57600080fd5b6102b5600435610d2f565b341561041257600080fd5b6102b5600435610d44565b341561042857600080fd5b610395600160a060020a0360043516602435604435606435608435610d56565b6102b5600480359060248035908101910135604435610e38565b341561046d57600080fd5b610395600435610ebd565b341561048357600080fd5b61048e600435610edd565b604051600160a060020a03909116815260200160405180910390f35b34156104b557600080fd5b610395600435610ef8565b34156104cb57600080fd5b61048e600435610f18565b34156104e157600080fd5b610395600435610f33565b34156104f757600080fd5b610395610fac565b341561050a57600080fd5b61048e600435611002565b341561052057600080fd5b610395600435611026565b341561053657600080fd5b6102b561109f565b341561054957600080fd5b6102b5600160a060020a03600435166110a5565b341561056857600080fd5b610395600160a060020a03600435166024356110c0565b341561058a57600080fd5b6102b5600160a060020a036004351660243561111e565b34156105ac57600080fd5b6105c0600160a060020a036004351661114c565b60405160208082528190810183818151815260200191508051906020019060200280838360005b838110156105ff5780820151838201526020016105e7565b505050509050019250505060405180910390f35b341561061e57600080fd5b61048e61122d565b341561063157600080fd5b61039560043561123c565b341561064757600080fd5b6102e961125c565b341561065a57600080fd5b610395600435611293565b341561067057600080fd5b61067b6004356112b3565b60405191825260208201526040908101905180910390f35b341561069e57600080fd5b610395600160a060020a03600435166024356112cc565b34156106c057600080fd5b6102b5611326565b34156106d357600080fd5b6102b561132c565b34156106e657600080fd5b610395600435602435611332565b34156106ff57600080fd5b61048e6113f6565b341561071257600080fd5b6105c0600160a060020a0360043516611405565b341561073157600080fd5b6105c0611488565b341561074457600080fd5b6103956114d1565b6103956004356114fa565b341561076257600080fd5b6102e9600435611527565b341561077857600080fd5b610395600160a060020a03600435166115e2565b341561079757600080fd5b610395600435611611565b6103956004356116b7565b34156107b857600080fd5b610395600160a060020a03600435166116e0565b34156107d757600080fd5b6102b5611737565b34156107ea57600080fd5b6105c061173d565b34156107fd57600080fd5b610395600435602435604435611781565b341561081957600080fd5b6102826004356118d7565b60006040517f737570706f727473496e7465726661636528627974657334290000000000000081526019016040518091039020600160e060020a03191682600160e060020a0319161480610aa357506040517f746f6b656e4d657461646174612875696e743235362c737472696e67290000008152601d0160405180910390206040517f746f6b656e734f664f776e657228616464726573732900000000000000000000815260160160405180910390206040517f7472616e7366657246726f6d28616464726573732c616464726573732c75696e81527f7432353629000000000000000000000000000000000000000000000000000000602082015260250160405180910390206040517f7472616e7366657228616464726573732c75696e743235362900000000000000815260190160405180910390206040517f617070726f766528616464726573732c75696e74323536290000000000000000815260180160405180910390206040517f6f776e65724f662875696e743235362900000000000000000000000000000000815260100160405180910390206040517f62616c616e63654f662861646472657373290000000000000000000000000000815260120160405180910390206040517f746f74616c537570706c792829000000000000000000000000000000000000008152600d0160405180910390206040517f73796d626f6c2829000000000000000000000000000000000000000000000000815260080160405180910390206040517f6e616d652829000000000000000000000000000000000000000000000000000081526006016040518091039020181818181818181818600160e060020a03191682600160e060020a031916145b90505b919050565b60056020526000908152604090205481565b610ac5613441565b610acd613453565b600b54600090600160a060020a03161515610ae757600080fd5b600b54600160a060020a031663cb4799f2878787600060405160a001526040517c010000000000000000000000000000000000000000000000000000000063ffffffff861602815260048101848152604060248301908152604483018490529091606401848480828437820191505094505050505060a060405180830381600087803b1515610b7557600080fd5b6102c65a03f11515610b8657600080fd5b50505060405180608001805160209091016040529092509050610ba982826119fa565b9695505050505050565b60408051908101604052600e81527f43727970746f427261776c657273000000000000000000000000000000000000602082015281565b610bf43382611a4f565b1515610bff57600080fd5b610c098183611a73565b7f8c5be1e5ebec7d5bd14f71427d1e84f3dd0314c0f7b2291e5b200ac8c7c3b925338383604051600160a060020a039384168152919092166020820152604080820192909252606001905180910390a15050565b6004545b90565b60005433600160a060020a03908116911614610c7f57600080fd5b80600160a060020a03166108fc30600160a060020a0316319081150290604051600060405180830381858888f193505050501515610cbc57600080fd5b50565b600160a060020a0382161515610cd457600080fd5b30600160a060020a031682600160a060020a031614151515610cf557600080fd5b610cff3382611aae565b1515610d0a57600080fd5b610d148382611a4f565b1515610d1f57600080fd5b610d2a838383611ace565b505050565b6000908152600d602052604090206001015490565b600e6020526000908152604090205481565b60005433600160a060020a03908116911614610d7157600080fd5b610e3084848488600986815481101515610d8757fe5b90600052602060002090018054600181600116156101000203166002900480601f016020809104026020016040519081016040528092919081815260200182805460018160011615610100020316600290048015610e265780601f10610dfb57610100808354040283529160200191610e26565b820191906000526020600020905b815481529060010190602001808311610e0957829003601f168201915b5050505050611bfb565b505050505050565b6000806003548034101515610eb357610e513388611a4f565b1515610e5c57600080fd5b600254610e6885611d95565b811515610e7157fe5b049150610eaf8787878080601f016020809104026020016040519081016040528181529291906020840183838082843750899450611dd59350505050565b8192505b5050949350505050565b60005433600160a060020a03908116911614610ed857600080fd5b600155565b600760205260009081526040902054600160a060020a031681565b60005433600160a060020a03908116911614610f1357600080fd5b600255565b600660205260009081526040902054600160a060020a031681565b610f3d3382611a4f565b1515610f4857600080fd5b610f5181611fba565b1515610f5c57600080fd5b610f6581611fd0565b7f3e808687755674bf6703cb65acce9b7da494797511c241a38e74134813273be23382604051600160a060020a03909216825260208201526040908101905180910390a150565b60005433600160a060020a03908116911614610fc757600080fd5b600054600160a060020a039081169030163180156108fc0290604051600060405180830381858888f19350505050151561100057600080fd5b565b600081815260066020526040902054600160a060020a0316801515610aa657600080fd5b6110303382611a4f565b151561103b57600080fd5b61104481611fe7565b151561104f57600080fd5b61105881611ffa565b7fb3fefaad4d5eb17c447489e1529238e4f44c82b4f99284ca82969e1bfbb8e8c53382604051600160a060020a03909216825260208201526040908101905180910390a150565b60035481565b600160a060020a031660009081526005602052604090205490565b600080548190819033600160a060020a039081169116146110e057600080fd5b6110e984611d95565b92506110f483611d95565b91506111058460098054905061200b565b9050610e30600a848488600986815481101515610d8757fe5b60086020528160005260406000208181548110151561113957fe5b6000918252602090912001549150829050565b611154613441565b6000806000611161613441565b600061116c876110a5565b945084151561119c5760006040518059106111845750595b90808252806020026020018201604052509550611223565b600093506111a8610c5d565b9250846040518059106111b85750595b90808252806020026020018201604052509150600190505b82811161121f57600081815260066020526040902054600160a060020a0388811691161415611217578082858151811061120657fe5b602090810290910101526001909301925b6001016111d0565b8195505b5050505050919050565b600054600160a060020a031681565b60005433600160a060020a0390811691161461125757600080fd5b600c55565b60408051908101604052600481527f4252574c00000000000000000000000000000000000000000000000000000000602082015281565b60005433600160a060020a039081169116146112ae57600080fd5b600355565b600d602052600090815260409020805460019091015482565b600160a060020a03821615156112e157600080fd5b30600160a060020a031682600160a060020a03161415151561130257600080fd5b61130c3382611a4f565b151561131757600080fd5b611322338383611ace565b5050565b600c5481565b60025481565b61133c3383611a4f565b151561134757600080fd5b61135082611fe7565b1561135a57600080fd5b6000811161136757600080fd5b60408051908101604090815283825260208083018490526000858152600d90915220815181556020820151600190910155507f9eaf5a44f033adc048686ca80e281b74f25fb52e998dd7f8e6812721383ae88a3383836040518084600160a060020a0316600160a060020a03168152602001838152602001828152602001935050505060405180910390a15050565b600b54600160a060020a031681565b61140d613441565b6008600083600160a060020a0316600160a060020a0316815260200190815260200160002080548060200260200160405190810160405280929190818152602001828054801561147c57602002820191906000526020600020905b815481526020019060010190808311611468575b50505050509050919050565b611490613441565b6114cc60408051908101604052600b81527f6d61726b6574706c616365000000000000000000000000000000000000000000602082015261203d565b905090565b60005433600160a060020a039081169116146114ec57600080fd5b600054600160a060020a0316ff5b6115048134612170565b600081815260066020526040902054610cbc90600160a060020a03163383611ace565b600980548290811061153557fe5b90600052602060002090016000915090508054600181600116156101000203166002900480601f0160208091040260200160405190810160405280929190818152602001828054600181600116156101000203166002900480156115da5780601f106115af576101008083540402835291602001916115da565b820191906000526020600020905b8154815290600101906020018083116115bd57829003601f168201915b505050505081565b600b805473ffffffffffffffffffffffffffffffffffffffff1916600160a060020a0392909216919091179055565b61161b3382611a4f565b151561162657600080fd5b61162f81611fba565b1561163957600080fd5b600480548290811061164757fe5b906000526020600020906005020160000154600e6000838152602001908152602001600020819055507ffd493e9e8a025ff7f65e924f394f7f1c3804e6114587e73b05e393385823ae5f3382604051600160a060020a03909216825260208201526040908101905180910390a150565b60035434819010611322576116cc3383611a4f565b15156116d757600080fd5b6113228261227d565b60005433600160a060020a039081169116146116fb57600080fd5b600160a060020a03811615610cbc5760008054600160a060020a03831673ffffffffffffffffffffffffffffffffffffffff1990911617905550565b60015481565b611745613441565b6114cc60408051908101604052600581527f6172656e61000000000000000000000000000000000000000000000000000000602082015261203d565b61178961347c565b600080600061179786611fe7565b15156117a257600080fd5b6117ac3388611a4f565b15156117b757600080fd5b6117c13387611a4f565b156117cb57600080fd5b6117d6878787612287565b935083519250602084015191506117ec82611fe7565b156117fd576117fa82611ffa565b50805b61180683611fe7565b156118175761181483611ffa565b50815b6000828152600660205260408082205485835291205461184491600160a060020a03908116911684611ace565b6000838152600660205260408082205484835291819020547f0974ab4622ebebd6fc59c871455d5554bfc6cb8da267f947006c5f5c4f747f6092600160a060020a03908116928792909116908690869051600160a060020a0395861681526020810194909452919093166040808401919091526060830193909352608082015260a001905180910390a150505050505050565b6000806000806000806118e9876125bb565b9450600154858115156118f857fe5b06151561199a5761190887611d95565b935061191384611d95565b92506119248760098054905061200b565b915061193d600a858533600987815481101515610d8757fe5b90507f9bd510de0dcc8d26bfd35e5e1bad5c406154844b85cde0690dfa7881e481de76600133836040519215158352600160a060020a0390911660208301526040808301919091526060909101905180910390a160019550611223565b7f9bd510de0dcc8d26bfd35e5e1bad5c406154844b85cde0690dfa7881e481de7660003360006040519215158352600160a060020a0390911660208301526040808301919091526060909101905180910390a15060009695505050505050565b611a02613441565b611a0a613441565b60008084604051805910611a1b5750595b818152601f19601f8301168101602001604052905092505060208201905084611a458282876125e7565b5090949350505050565b600081815260066020526040902054600160a060020a038381169116145b92915050565b600091825260076020526040909120805473ffffffffffffffffffffffffffffffffffffffff1916600160a060020a03909216919091179055565b600090815260076020526040902054600160a060020a0391821691161490565b600160a060020a03821660008181526005602090815260408083208054600190810190915585845260068352818420805473ffffffffffffffffffffffffffffffffffffffff19168617905593835260089091529020805490918101611b3483826134a2565b506000918252602090912001819055600160a060020a03831615611ba6576000818152600760205260409020805473ffffffffffffffffffffffffffffffffffffffff19169055611b85838261262c565b600160a060020a038316600090815260056020526040902080546000190190555b7fddf252ad1be2c89b69c2b068fc378daa952ba7f163c4a11628f55a4df523b3ef838383604051600160a060020a039384168152919092166020820152604080820192909252606001905180910390a1505050565b6000611c056134c6565b600060a060405190810160405280898152602001898152602001888152602001878152602001858152509150600160048054806001018281611c4791906134fb565b6000928352602090922085916005020181518155602082015181600101556040820151816002015560608201518160030155608082015181600401908051611c93929160200190613527565b50505003905063ffffffff81168114611cab57600080fd5b7faf9d5de903d3c24be3b2973b79ee3eefd1b8aada3d46baf60ee9f0d086b75fb985828a8a8a896040518087600160a060020a0316600160a060020a0316815260200186815260200185815260200184815260200183815260200180602001828103825283818151815260200191508051906020019080838360005b83811015611d3f578082015183820152602001611d27565b50505050905090810190601f168015611d6c5780820380516001836020036101000a031916815260200191505b5097505050505050505060405180910390a1611d8a60008683611ace565b979650505050505050565b600080600a600143034084604051918252602082015260409081019051908190039020811515611dc157fe5b06905060008111611a6d5750600192915050565b6040517f6d61784865616c746800000000000000000000000000000000000000000000008152600901604051908190039020826040518082805190602001908083835b60208310611e375780518252601f199092019160209182019101611e18565b6001836020036101000a03801982511681845116179092525050509190910192506040915050519081900390201415611e7a57611e758382336126c0565b610d2a565b6040517f737472656e6774680000000000000000000000000000000000000000000000008152600801604051908190039020826040518082805190602001908083835b60208310611edc5780518252601f199092019160209182019101611ebd565b6001836020036101000a03801982511681845116179092525050509190910192506040915050519081900390201415611f1a57611e75838233612878565b6040517f73706565640000000000000000000000000000000000000000000000000000008152600501604051908190039020826040518082805190602001908083835b60208310611f7c5780518252601f199092019160209182019101611f5d565b6001836020036101000a03801982511681845116179092525050509190910192506040915050519081900390201415610d2a57610d2a838233612a16565b6000908152600d60205260408120600101541190565b6000908152600d6020526040812081815560010155565b6000908152600e60205260408120541190565b6000908152600e6020526040812055565b60008160014303408460405191825260208201526040908101905190819003902081151561203557fe5b069392505050565b612045613441565b600080612050613441565b600061205a610c5d565b935060009250856040518082805190602001908083835b602083106120905780518252601f199092019160209182019101612071565b6001836020036101000a03801982511681845116179092525050509190910192506040915050519081900390207f6172656e610000000000000000000000000000000000000000000000000000001415612128575060015b838111612123576120f881611fe7565b1561211b578082848151811061210a57fe5b602090810290910101526001909201915b6001016120e8565b612167565b5060015b8381116121675761213c81611fba565b1561215f578082848151811061214e57fe5b602090810290910101526001909201915b60010161212c565b50949350505050565b600080600061217f3386611a4f565b1561218957600080fd5b61219285611fba565b151561219d57600080fd5b6000858152600d60205260409020600101548410156121bb57600080fd5b600085815260066020526040902054600160a060020a031692506121de85611fd0565b6121e784612bb4565b915050808303600160a060020a03831681156108fc0282604051600060405180830381858888f19350505050151561221e57600080fd5b7f4750c394c3222df02b322dd8f4ee23c0025975134406b18d35ab7c9c1bb41ac233858786604051600160a060020a03948516815260208101939093526040808401929092529092166060820152608001905180910390a15050505050565b610cbc8133612bc0565b61228f61347c565b612297613441565b61229f6134c6565b6122a76134c6565b60048054889081106122b557fe5b906000526020600020906005020160a0604051908101604052908160008201548152602001600182015481526020016002820154815260200160038201548152602001600482018054600181600116156101000203166002900480601f0160208091040260200160405190810160405280929190818152602001828054600181600116156101000203166002900480156123905780601f1061236557610100808354040283529160200191612390565b820191906000526020600020905b81548152906001019060200180831161237357829003601f168201915b50505050508152505091506004868154811015156123aa57fe5b906000526020600020906005020160a0604051908101604052908160008201548152602001600182015481526020016002820154815260200160038201548152602001600482018054600181600116156101000203166002900480601f0160208091040260200160405190810160405280929190818152602001828054600181600116156101000203166002900480156124855780601f1061245a57610100808354040283529160200191612485565b820191906000526020600020905b81548152906001019060200180831161246857829003601f168201915b5050505050815250509050816040015181604001511061252a576060604051908101604052808781526020018281526020016124c983608001518560800151612d40565b9052836000815181106124d857fe5b6020908102909101015260606040519081016040528088815260200183815260200161250c84608001518460800151612d40565b90528360018151811061251b57fe5b602090810290910101526125b1565b60606040519081016040528088815260200183815260200161255484608001518460800151612d40565b90528360008151811061256357fe5b6020908102909101015260606040519081016040528087815260200182815260200161259783608001518560800151612d40565b9052836001815181106125a657fe5b602090810290910101525b611d8a8386612e84565b6000806064600143034084604051918252602082015260409081019051908190039020811515611dc157fe5b60005b6020821061260d57825184526020840193506020830192506020820391506125ea565b6001826020036101000a03905080198351168185511617909352505050565b60005b600160a060020a038316600090815260086020526040902054811015610d2a57600160a060020a038316600090815260086020526040902080548391908390811061267657fe5b90600052602060002090015414156126b857600160a060020a03831660009081526008602052604090208054829081106126ac57fe5b60009182526020822001555b60010161262f565b6126c86134c6565b60048054859081106126d657fe5b906000526020600020906005020160a0604051908101604052908160008201548152602001600182015481526020016002820154815260200160038201548152602001600482018054600181600116156101000203166002900480601f0160208091040260200160405190810160405280929190818152602001828054600181600116156101000203166002900480156127b15780601f10612786576101008083540402835291602001916127b1565b820191906000526020600020905b81548152906001019060200180831161279457829003601f168201915b50505050508152505090508060000151816020015114156127d9578281602001818151019052505b8281818151019052506127ec81856133c0565b7fca04611e80f005feb5aafd7553030c696e4de100604c325926807c6cbda6a7c3828585604051600160a060020a03909316835260208301919091526060820152608060408083018290526009918301919091527f6d61784865616c7468000000000000000000000000000000000000000000000060a083015260c0909101905180910390a150505050565b6128806134c6565b600480548590811061288e57fe5b906000526020600020906005020160a0604051908101604052908160008201548152602001600182015481526020016002820154815260200160038201548152602001600482018054600181600116156101000203166002900480601f0160208091040260200160405190810160405280929190818152602001828054600181600116156101000203166002900480156129695780601f1061293e57610100808354040283529160200191612969565b820191906000526020600020905b81548152906001019060200180831161294c57829003601f168201915b505050505081525050905082816060018181510190525061298a81856133c0565b7fca04611e80f005feb5aafd7553030c696e4de100604c325926807c6cbda6a7c3828585604051600160a060020a03909316835260208301919091526060820152608060408083018290526008918301919091527f737472656e67746800000000000000000000000000000000000000000000000060a083015260c0909101905180910390a150505050565b612a1e6134c6565b6004805485908110612a2c57fe5b906000526020600020906005020160a0604051908101604052908160008201548152602001600182015481526020016002820154815260200160038201548152602001600482018054600181600116156101000203166002900480601f016020809104026020016040519081016040528092919081815260200182805460018160011615610100020316600290048015612b075780601f10612adc57610100808354040283529160200191612b07565b820191906000526020600020905b815481529060010190602001808311612aea57829003601f168201915b5050505050815250509050828160400181815101905250612b2881856133c0565b7fca04611e80f005feb5aafd7553030c696e4de100604c325926807c6cbda6a7c3828585604051600160a060020a03909316835260208301919091526060820152608060408083018290526005918301919091527f737065656400000000000000000000000000000000000000000000000000000060a083015260c0909101905180910390a150505050565b600c5460649091040290565b612bc86134c6565b6004805484908110612bd657fe5b906000526020600020906005020160a0604051908101604052908160008201548152602001600182015481526020016002820154815260200160038201548152602001600482018054600181600116156101000203166002900480601f016020809104026020016040519081016040528092919081815260200182805460018160011615610100020316600290048015612cb15780601f10612c8657610100808354040283529160200191612cb1565b820191906000526020600020905b815481529060010190602001808311612c9457829003601f168201915b50505050508152505090508060000151816020015110612cd057600080fd5b80516020820152612ce181846133c0565b7f99ac7da70b5c6f1d34e05f1b47107fb3b9a1c1542028d0ad8e86c959568629ed828483516040518084600160a060020a0316600160a060020a03168152602001838152602001828152602001935050505060405180910390a1505050565b6000816040518082805190602001908083835b60208310612d725780518252601f199092019160209182019101612d53565b6001836020036101000a0380198251168184511617909252505050919091019250604091505051908190039020600a846040518082805190602001908083835b60208310612dd15780518252601f199092019160209182019101612db2565b6001836020036101000a03801982511681845116808217855250505050505090500191505090815260200160405180910390206040518082805460018160011615610100020316600290048015612e5f5780601f10612e3d576101008083540402835291820191612e5f565b820191906000526020600020905b815481529060010190602001808311612e4b575b50509150506040519081900390201415612e7b57506002611a6d565b50600192915050565b612e8c61347c565b612e9461347c565b600080600080600080600080600660008d600081518110612eb157fe5b906020019060200201515181526020810191909152604001600090812054600160a060020a031698506006908d600181518110612eea57fe5b90602001906020020151518152602081019190915260400160002054600160a060020a031696505b60008c600081518110612f2157fe5b906020019060200201516020015160200151118015612f5e575060008c600181518110612f4a57fe5b906020019060200201516020015160200151115b15613389578b600081518110612f7057fe5b906020019060200201516020015160600151612f8b8c613424565b0295508b600181518110612f9b57fe5b906020019060200201516020015160400151612fb68c613424565b02945084861115613094578b600081518110612fce57fe5b9060200190602002015160400151858703029350838c600181518110612ff057fe5b90602001906020020151602001516020018181510390525060008051602061364283398151915288888e60008151811061302657fe5b90602001906020020151518f60018151811061303e57fe5b9060200190602002015151600189604051600160a060020a03968716815294909516602085015260408085019390935260608401919091521515608083015260a082019290925260c001905180910390a161311c565b60008051602061364283398151915288888e6000815181106130b257fe5b90602001906020020151518f6001815181106130ca57fe5b9060200190602002015151600080604051600160a060020a03968716815294909516602085015260408085019390935260608401919091521515608083015260a082019290925260c001905180910390a15b60008c60018151811061312b57fe5b9060200190602002015160200151602001511161317e578b60008151811061314f57fe5b906020019060200201515189528b60018151811061316957fe5b906020019060200201515160208a0152613389565b8b60018151811061318b57fe5b9060200190602002015160200151606001516131a68c613424565b0292508b6000815181106131b657fe5b9060200190602002015160200151604001516131d18c613424565b029150818311156132af578b6001815181106131e957fe5b9060200190602002015160400151828403029050808c60008151811061320b57fe5b90602001906020020151602001516020018181510390525060008051602061364283398151915287898e60018151811061324157fe5b90602001906020020151518f60008151811061325957fe5b9060200190602002015151600186604051600160a060020a03968716815294909516602085015260408085019390935260608401919091521515608083015260a082019290925260c001905180910390a1613337565b60008051602061364283398151915287898e6001815181106132cd57fe5b90602001906020020151518f6000815181106132e557fe5b9060200190602002015151600080604051600160a060020a03968716815294909516602085015260408085019390935260608401919091521515608083015260a082019290925260c001905180910390a15b60008c60008151811061334657fe5b90602001906020020151602001516020015111613384578b60018151811061336a57fe5b906020019060200201515189528b60008151811061316957fe5b612f12565b6000600460208b01518154811061339c57fe5b600091825260209091206001600590920201015550969a9950505050505050505050565b816004828154811015156133d057fe5b90600052602060002090600502016000820151815560208201518160010155604082015181600201556060820151816003015560808201518160040190805161341d929160200190613527565b5050505050565b6000600a61343183611d95565b81151561343a57fe5b0492915050565b60206040519081016040526000815290565b60806040519081016040526004815b600081526000199190910190602001816134625790505090565b604080519081016040526002815b600081526020019060019003908161348a5790505090565b815481835581811511610d2a57600083815260209020610d2a9181019083016135a5565b60a060405190810160405280600081526020016000815260200160008152602001600081526020016134f6613441565b905290565b815481835581811511610d2a57600502816005028360005260206000209182019101610d2a91906135bf565b828054600181600116156101000203166002900490600052602060002090601f016020900481019282601f1061356857805160ff1916838001178555613595565b82800160010185558215613595579182015b8281111561359557825182559160200191906001019061357a565b506135a19291506135a5565b5090565b610c6191905b808211156135a157600081556001016135ab565b610c6191905b808211156135a15760008082556001820181905560028201819055600382018190556135f460048301826135fd565b506005016135c5565b50805460018160011615610100020316600290046000825580601f106136235750610cbc565b601f016020900490600052602060002090810190610cbc91906135a556004b7373256ef7029f6d9931d4ace0654220d5ea3d8a4728e098ee35224c7b2efea165627a7a72305820ff44358b7c7307156653b54ccda45e4193ba2652c6e16ef2debf2f6445d761500029",
  "source": "pragma solidity ^0.4.18;\n\nimport \"../fighter/FighterOwnership.sol\";\nimport \"./MarketplaceConfig.sol\";\n\ncontract Marketplace is FighterOwnership, MarketplaceConfig {\n  mapping(uint256 => Sale) public fighterIdToSale; // Storing of figher Ids against their sale Struct\n  mapping(uint256 => uint256) public fighterIdToMaxHealth; // Map of fighter Ids to their max health\n\n  event PurchaseSuccess(address buyer, uint price, uint fighterId, address seller);\n  event FightComplete(address winner, uint winnerId, address loser, uint loserId, uint fighterInArena);\n  event CombatRound(address attacker, address defender, uint attackerId, uint defenderId, bool hit, uint damage);\n\n  event MarketplaceRemoval(address owner, uint fighterId);\n  event ArenaRemoval(address owner, uint fighterId);\n\n  event MarketplaceAdd(address owner, uint fighterId, uint price);\n  event ArenaAdd(address owner, uint fighterId);\n\n  struct Combatant {\n    uint256 fighterId;\n    Fighter fighter;\n    uint256 damageModifier;\n  }\n\n  struct Sale {\n    uint256 fighterId;\n    uint256 price;\n  }\n\n  function getPriceForFighter(uint _fighterId) constant external returns (uint256) {\n    return fighterIdToSale[_fighterId].price;\n  }\n\n  function getFightersForSale() external view returns(uint256[]) {\n    return _getFightersInArea('marketplace');\n  }\n\n  function getFightersInArena() external view returns(uint256[]) {\n    return _getFightersInArea('arena');\n  }\n\n  function _getFightersInArea(string area) internal returns(uint256[] fighterIds) {\n    uint256 totalFighters = totalSupply();\n    uint256 resultIndex = 0;\n    uint256[] memory result;\n\n    uint fighterId;\n    if (keccak256(area) == 'arena') {\n      for (fighterId = 1; fighterId <= totalFighters; fighterId++) {\n        if (_fighterIsForBrawl(fighterId)) {\n          result[resultIndex] = fighterId;\n          resultIndex++;\n        }\n      }\n    } else {\n      for (fighterId = 1; fighterId <= totalFighters; fighterId++) {\n        if (_fighterIsForSale(fighterId)) {\n          result[resultIndex] = fighterId;\n          resultIndex++;\n        }\n      }\n    }\n\n    return result;\n  }\n\n  function removeFighterFromSale(uint _fighterId) external {\n    require(_owns(msg.sender, _fighterId));\n    // Just double check we can actually remove a fighter before we go any further\n    require(_fighterIsForSale(_fighterId));\n\n    _removeFighterFromSale(_fighterId);\n    MarketplaceRemoval(msg.sender, _fighterId);\n  }\n\n  function removeFighterFromArena(uint _fighterId) external {\n    require(_owns(msg.sender, _fighterId));\n    // Just double check we can actually remove a fighter before we go any further\n    require(_fighterIsForBrawl(_fighterId));\n\n    _removeFighterFromArena(_fighterId);\n    ArenaRemoval(msg.sender, _fighterId);\n  }\n\n  function makeFighterAvailableForSale(uint _fighterId, uint _price) external {\n    require(_owns(msg.sender, _fighterId));\n    // Fighters can't be both for sale and open for brawling\n    require(!_fighterIsForBrawl(_fighterId));\n    require(_price > 0);\n\n    fighterIdToSale[_fighterId] = Sale({ fighterId: _fighterId, price: _price });\n    MarketplaceAdd(msg.sender, _fighterId, _price);\n  }\n\n  function makeFighterAvailableForBrawl(uint _fighterId) external {\n    require(_owns(msg.sender, _fighterId));\n    // Fighters can't be both for sale and open for brawling\n    require(!_fighterIsForSale(_fighterId));\n\n    fighterIdToMaxHealth[_fighterId] = fighters[_fighterId].maxHealth;\n    ArenaAdd(msg.sender, _fighterId);\n  }\n\n  function buyFighter(uint _fighterId) external payable {\n    _makePurchase(_fighterId, msg.value);\n    _transfer(fighterIdToOwner[_fighterId], msg.sender, _fighterId);\n  }\n\n  function fight(uint _attackerId, uint _defenderId, uint _seed) external {\n    // fighter actually in the arena is always the defender\n    require(_fighterIsForBrawl(_defenderId));\n    // Make sure the challenger is actually sending the transaction\n    require(_owns(msg.sender, _attackerId));\n    // Also make sure that the challenger is not attacking his own fighter\n    require(!_owns(msg.sender, _defenderId));\n\n    uint[2] memory winnerAndLoser = _determineWinner(_attackerId, _defenderId, _seed);\n    uint _winnerId = winnerAndLoser[0];\n    uint _loserId = winnerAndLoser[1];\n    uint _fighterInArena;\n\n    if (_fighterIsForBrawl(_loserId)) {\n      _removeFighterFromArena(_loserId);\n      _fighterInArena = _loserId;\n    }\n\n    if (_fighterIsForBrawl(_winnerId)) {\n      _removeFighterFromArena(_winnerId);\n      _fighterInArena = _winnerId;\n    }\n\n    _transfer(fighterIdToOwner[_loserId], fighterIdToOwner[_winnerId], _loserId);\n    FightComplete(fighterIdToOwner[_winnerId], _winnerId, fighterIdToOwner[_loserId], _loserId, _fighterInArena);\n  }\n\n  function _determineWinner(uint _attackerId, uint _defenderId, uint _seed) internal returns (uint[2]) {\n    Combatant[] memory orderOfCombat;\n    Fighter memory _attacker = fighters[_attackerId];\n    Fighter memory _defender = fighters[_defenderId];\n\n    if(_defender.speed >= _attacker.speed) {\n      orderOfCombat[0] = Combatant({ fighterId: _defenderId, fighter: _defender, damageModifier: calculateDamageModifier(_defender.fighterType, _attacker.fighterType) });\n      orderOfCombat[1] = Combatant({ fighterId: _attackerId, fighter: _attacker, damageModifier: calculateDamageModifier(_attacker.fighterType, _defender.fighterType) });\n    } else {\n      orderOfCombat[0] = Combatant({ fighterId: _attackerId, fighter: _attacker, damageModifier: calculateDamageModifier(_attacker.fighterType, _defender.fighterType) });\n      orderOfCombat[1] = Combatant({ fighterId: _defenderId, fighter: _defender, damageModifier: calculateDamageModifier(_defender.fighterType, _attacker.fighterType) });\n    }\n\n    return _calculateCombatOutcome(orderOfCombat, _seed);\n  }\n\n  function _calculateCombatOutcome(Combatant[] _combatants, uint _seed) internal returns (uint[2]) {\n    uint[2] memory winnerAndLoser;\n    address fighter1Owner = fighterIdToOwner[_combatants[0].fighterId];\n    address fighter2Owner = fighterIdToOwner[_combatants[1].fighterId];\n\n    while (_combatants[0].fighter.health > 0 &&  _combatants[1].fighter.health > 0) {\n      uint _fighter1StrengthCheck = (RandomNumber.randDecimal(_seed) *  _combatants[0].fighter.strength);\n      uint _fighter2SpeedCheck = (RandomNumber.randDecimal(_seed) *  _combatants[1].fighter.speed);\n\n      if (_fighter1StrengthCheck > _fighter2SpeedCheck) {\n        uint _damage1 = (_fighter1StrengthCheck - _fighter2SpeedCheck) * _combatants[0].damageModifier;\n        _combatants[1].fighter.health -= _damage1;\n        CombatRound(fighter1Owner, fighter2Owner, _combatants[0].fighterId, _combatants[1].fighterId, true, _damage1);\n      } else {\n        CombatRound(fighter1Owner, fighter2Owner, _combatants[0].fighterId, _combatants[1].fighterId, false, 0);\n      }\n\n      if (_combatants[1].fighter.health <= 0) {\n        winnerAndLoser[0] =  _combatants[0].fighterId;\n        winnerAndLoser[1] =  _combatants[1].fighterId;\n        break;\n      }\n\n      uint _fighter2StrengthCheck = (RandomNumber.randDecimal(_seed) *  _combatants[1].fighter.strength);\n      uint _fighter1SpeedCheck = (RandomNumber.randDecimal(_seed) *  _combatants[0].fighter.speed);\n\n      if (_fighter2StrengthCheck > _fighter1SpeedCheck) {\n        uint _damage2 = (_fighter2StrengthCheck - _fighter1SpeedCheck) * _combatants[1].damageModifier;\n        _combatants[0].fighter.health -= _damage2;\n        CombatRound(fighter2Owner, fighter1Owner, _combatants[1].fighterId, _combatants[0].fighterId, true, _damage2);\n      } else {\n        CombatRound(fighter2Owner, fighter1Owner, _combatants[1].fighterId, _combatants[0].fighterId, false, 0);\n      }\n\n      if (_combatants[0].fighter.health <= 0) {\n        winnerAndLoser[0] = _combatants[1].fighterId;\n        winnerAndLoser[1] = _combatants[0].fighterId;\n        break;\n      }\n    }\n\n    // Set the losers health to 0\n    fighters[winnerAndLoser[1]].health = 0;\n    return winnerAndLoser;\n  }\n\n  function _makePurchase(uint _fighterId, uint _price) internal {\n    require(!_owns(msg.sender, _fighterId));\n    require(_fighterIsForSale(_fighterId));\n    require(_price >= fighterIdToSale[_fighterId].price);\n\n    address sellerAddress = fighterIdToOwner[_fighterId];\n    _removeFighterFromSale(_fighterId);\n\n    uint saleCut = _calculateCut(_price);\n    uint totalSale = _price - saleCut;\n    sellerAddress.transfer(totalSale);\n\n    PurchaseSuccess(msg.sender, _price, _fighterId, sellerAddress);\n  }\n\n  function _calculateCut(uint _totalPrice) internal returns (uint) {\n    return ((_totalPrice / 100) * marketplaceCut);\n  }\n\n  function _fighterIsForSale(uint _fighterId) internal returns (bool) {\n    return (fighterIdToSale[_fighterId].price > 0);\n  }\n\n  function _fighterIsForBrawl(uint _fighterId) internal returns (bool) {\n    return (fighterIdToMaxHealth[_fighterId] > 0);\n  }\n\n  function _removeFighterFromSale(uint _fighterId) internal {\n    delete fighterIdToSale[_fighterId];\n  }\n\n  function _removeFighterFromArena(uint _fighterId) internal {\n    delete fighterIdToMaxHealth[_fighterId];\n  }\n}\n",
  "sourcePath": "/Users/kendalla/projects/cryptoclash/contracts/marketplace/Marketplace.sol",
  "compiler": {
    "name": "solc",
    "version": "0.4.18+commit.9cf6e910.Emscripten.clang"
  },
  "schemaVersion": "1.0.1",
  "updatedAt": "2018-02-06T16:53:53.823Z"
}