{
  "contractName": "Marketplace",
  "abi": [
    {
      "constant": true,
      "inputs": [
        {
          "name": "_interfaceID",
          "type": "bytes4"
        }
      ],
      "name": "supportsInterface",
      "outputs": [
        {
          "name": "",
          "type": "bool"
        }
      ],
      "payable": false,
      "stateMutability": "view",
      "type": "function"
    },
    {
      "constant": true,
      "inputs": [
        {
          "name": "",
          "type": "address"
        }
      ],
      "name": "fighterCountForOwner",
      "outputs": [
        {
          "name": "",
          "type": "uint256"
        }
      ],
      "payable": false,
      "stateMutability": "view",
      "type": "function"
    },
    {
      "constant": true,
      "inputs": [
        {
          "name": "_tokenId",
          "type": "uint256"
        },
        {
          "name": "_preferredTransport",
          "type": "string"
        }
      ],
      "name": "tokenMetadata",
      "outputs": [
        {
          "name": "infoUrl",
          "type": "string"
        }
      ],
      "payable": false,
      "stateMutability": "view",
      "type": "function"
    },
    {
      "constant": true,
      "inputs": [],
      "name": "name",
      "outputs": [
        {
          "name": "",
          "type": "string"
        }
      ],
      "payable": false,
      "stateMutability": "view",
      "type": "function"
    },
    {
      "constant": false,
      "inputs": [
        {
          "name": "_to",
          "type": "address"
        },
        {
          "name": "_tokenId",
          "type": "uint256"
        }
      ],
      "name": "approve",
      "outputs": [],
      "payable": false,
      "stateMutability": "nonpayable",
      "type": "function"
    },
    {
      "constant": true,
      "inputs": [],
      "name": "totalSupply",
      "outputs": [
        {
          "name": "",
          "type": "uint256"
        }
      ],
      "payable": false,
      "stateMutability": "view",
      "type": "function"
    },
    {
      "constant": false,
      "inputs": [
        {
          "name": "_recipient",
          "type": "address"
        }
      ],
      "name": "withdrawBalanceToAddress",
      "outputs": [],
      "payable": false,
      "stateMutability": "nonpayable",
      "type": "function"
    },
    {
      "constant": false,
      "inputs": [
        {
          "name": "_from",
          "type": "address"
        },
        {
          "name": "_to",
          "type": "address"
        },
        {
          "name": "_tokenId",
          "type": "uint256"
        }
      ],
      "name": "transferFrom",
      "outputs": [],
      "payable": false,
      "stateMutability": "nonpayable",
      "type": "function"
    },
    {
      "constant": true,
      "inputs": [
        {
          "name": "_fighterId",
          "type": "uint256"
        }
      ],
      "name": "getPriceForFighter",
      "outputs": [
        {
          "name": "",
          "type": "uint256"
        }
      ],
      "payable": false,
      "stateMutability": "view",
      "type": "function"
    },
    {
      "constant": true,
      "inputs": [
        {
          "name": "",
          "type": "uint256"
        }
      ],
      "name": "fighterIdToMaxHealth",
      "outputs": [
        {
          "name": "",
          "type": "uint256"
        }
      ],
      "payable": false,
      "stateMutability": "view",
      "type": "function"
    },
    {
      "constant": false,
      "inputs": [
        {
          "name": "_recipient",
          "type": "address"
        },
        {
          "name": "_maxHealth",
          "type": "uint256"
        },
        {
          "name": "_speed",
          "type": "uint256"
        },
        {
          "name": "_strength",
          "type": "uint256"
        }
      ],
      "name": "customOwnerCreation",
      "outputs": [],
      "payable": false,
      "stateMutability": "nonpayable",
      "type": "function"
    },
    {
      "constant": false,
      "inputs": [
        {
          "name": "_fighterId",
          "type": "uint256"
        },
        {
          "name": "_attribute",
          "type": "string"
        },
        {
          "name": "_seed",
          "type": "uint256"
        }
      ],
      "name": "trainFighter",
      "outputs": [
        {
          "name": "",
          "type": "uint256"
        }
      ],
      "payable": true,
      "stateMutability": "payable",
      "type": "function"
    },
    {
      "constant": false,
      "inputs": [
        {
          "name": "newProbability",
          "type": "uint256"
        }
      ],
      "name": "setFighterCreationChance",
      "outputs": [],
      "payable": false,
      "stateMutability": "nonpayable",
      "type": "function"
    },
    {
      "constant": true,
      "inputs": [
        {
          "name": "",
          "type": "uint256"
        }
      ],
      "name": "fighterIdToApproved",
      "outputs": [
        {
          "name": "",
          "type": "address"
        }
      ],
      "payable": false,
      "stateMutability": "view",
      "type": "function"
    },
    {
      "constant": false,
      "inputs": [
        {
          "name": "newFactor",
          "type": "uint256"
        }
      ],
      "name": "setTrainingFactor",
      "outputs": [],
      "payable": false,
      "stateMutability": "nonpayable",
      "type": "function"
    },
    {
      "constant": true,
      "inputs": [
        {
          "name": "",
          "type": "uint256"
        }
      ],
      "name": "fighterIdToOwner",
      "outputs": [
        {
          "name": "",
          "type": "address"
        }
      ],
      "payable": false,
      "stateMutability": "view",
      "type": "function"
    },
    {
      "constant": false,
      "inputs": [
        {
          "name": "_fighterId",
          "type": "uint256"
        }
      ],
      "name": "removeFighterFromSale",
      "outputs": [],
      "payable": false,
      "stateMutability": "nonpayable",
      "type": "function"
    },
    {
      "constant": false,
      "inputs": [],
      "name": "withdrawBalance",
      "outputs": [],
      "payable": false,
      "stateMutability": "nonpayable",
      "type": "function"
    },
    {
      "constant": true,
      "inputs": [
        {
          "name": "_tokenId",
          "type": "uint256"
        }
      ],
      "name": "ownerOf",
      "outputs": [
        {
          "name": "owner",
          "type": "address"
        }
      ],
      "payable": false,
      "stateMutability": "view",
      "type": "function"
    },
    {
      "constant": false,
      "inputs": [
        {
          "name": "_fighterId",
          "type": "uint256"
        }
      ],
      "name": "removeFighterFromArena",
      "outputs": [],
      "payable": false,
      "stateMutability": "nonpayable",
      "type": "function"
    },
    {
      "constant": true,
      "inputs": [],
      "name": "trainingCost",
      "outputs": [
        {
          "name": "",
          "type": "uint256"
        }
      ],
      "payable": false,
      "stateMutability": "view",
      "type": "function"
    },
    {
      "constant": true,
      "inputs": [
        {
          "name": "_owner",
          "type": "address"
        }
      ],
      "name": "balanceOf",
      "outputs": [
        {
          "name": "count",
          "type": "uint256"
        }
      ],
      "payable": false,
      "stateMutability": "view",
      "type": "function"
    },
    {
      "constant": false,
      "inputs": [
        {
          "name": "_recipient",
          "type": "address"
        },
        {
          "name": "_seed",
          "type": "uint256"
        }
      ],
      "name": "ownerCreation",
      "outputs": [],
      "payable": false,
      "stateMutability": "nonpayable",
      "type": "function"
    },
    {
      "constant": true,
      "inputs": [
        {
          "name": "",
          "type": "address"
        },
        {
          "name": "",
          "type": "uint256"
        }
      ],
      "name": "ownedFighters",
      "outputs": [
        {
          "name": "",
          "type": "uint256"
        }
      ],
      "payable": false,
      "stateMutability": "view",
      "type": "function"
    },
    {
      "constant": true,
      "inputs": [
        {
          "name": "_owner",
          "type": "address"
        }
      ],
      "name": "tokensOfOwner",
      "outputs": [
        {
          "name": "ownerTokens",
          "type": "uint256[]"
        }
      ],
      "payable": false,
      "stateMutability": "view",
      "type": "function"
    },
    {
      "constant": true,
      "inputs": [],
      "name": "owner",
      "outputs": [
        {
          "name": "",
          "type": "address"
        }
      ],
      "payable": false,
      "stateMutability": "view",
      "type": "function"
    },
    {
      "constant": false,
      "inputs": [
        {
          "name": "_newCut",
          "type": "uint256"
        }
      ],
      "name": "setNewMarketplaceCut",
      "outputs": [],
      "payable": false,
      "stateMutability": "nonpayable",
      "type": "function"
    },
    {
      "constant": true,
      "inputs": [],
      "name": "symbol",
      "outputs": [
        {
          "name": "",
          "type": "string"
        }
      ],
      "payable": false,
      "stateMutability": "view",
      "type": "function"
    },
    {
      "constant": false,
      "inputs": [
        {
          "name": "newCost",
          "type": "uint256"
        }
      ],
      "name": "setNewTrainingCost",
      "outputs": [],
      "payable": false,
      "stateMutability": "nonpayable",
      "type": "function"
    },
    {
      "constant": true,
      "inputs": [
        {
          "name": "",
          "type": "uint256"
        }
      ],
      "name": "fighterIdToSale",
      "outputs": [
        {
          "name": "fighterId",
          "type": "uint256"
        },
        {
          "name": "price",
          "type": "uint256"
        }
      ],
      "payable": false,
      "stateMutability": "view",
      "type": "function"
    },
    {
      "constant": false,
      "inputs": [
        {
          "name": "_to",
          "type": "address"
        },
        {
          "name": "_tokenId",
          "type": "uint256"
        }
      ],
      "name": "transfer",
      "outputs": [],
      "payable": false,
      "stateMutability": "nonpayable",
      "type": "function"
    },
    {
      "constant": true,
      "inputs": [],
      "name": "marketplaceCut",
      "outputs": [
        {
          "name": "",
          "type": "uint256"
        }
      ],
      "payable": false,
      "stateMutability": "view",
      "type": "function"
    },
    {
      "constant": true,
      "inputs": [],
      "name": "trainingFactor",
      "outputs": [
        {
          "name": "",
          "type": "uint256"
        }
      ],
      "payable": false,
      "stateMutability": "view",
      "type": "function"
    },
    {
      "constant": false,
      "inputs": [
        {
          "name": "_fighterId",
          "type": "uint256"
        },
        {
          "name": "_price",
          "type": "uint256"
        }
      ],
      "name": "makeFighterAvailableForSale",
      "outputs": [],
      "payable": false,
      "stateMutability": "nonpayable",
      "type": "function"
    },
    {
      "constant": true,
      "inputs": [],
      "name": "erc721Metadata",
      "outputs": [
        {
          "name": "",
          "type": "address"
        }
      ],
      "payable": false,
      "stateMutability": "view",
      "type": "function"
    },
    {
      "constant": false,
      "inputs": [
        {
          "name": "_owner",
          "type": "address"
        }
      ],
      "name": "getFightersForAddress",
      "outputs": [
        {
          "name": "",
          "type": "uint256[]"
        }
      ],
      "payable": false,
      "stateMutability": "nonpayable",
      "type": "function"
    },
    {
      "constant": true,
      "inputs": [],
      "name": "getFightersForSale",
      "outputs": [
        {
          "name": "",
          "type": "uint256[]"
        }
      ],
      "payable": false,
      "stateMutability": "view",
      "type": "function"
    },
    {
      "constant": false,
      "inputs": [],
      "name": "killConract",
      "outputs": [],
      "payable": false,
      "stateMutability": "nonpayable",
      "type": "function"
    },
    {
      "constant": false,
      "inputs": [
        {
          "name": "_fighterId",
          "type": "uint256"
        }
      ],
      "name": "buyFighter",
      "outputs": [],
      "payable": true,
      "stateMutability": "payable",
      "type": "function"
    },
    {
      "constant": false,
      "inputs": [
        {
          "name": "_contractAddress",
          "type": "address"
        }
      ],
      "name": "setMetadataAddress",
      "outputs": [],
      "payable": false,
      "stateMutability": "nonpayable",
      "type": "function"
    },
    {
      "constant": false,
      "inputs": [
        {
          "name": "_fighterId",
          "type": "uint256"
        }
      ],
      "name": "makeFighterAvailableForBrawl",
      "outputs": [],
      "payable": false,
      "stateMutability": "nonpayable",
      "type": "function"
    },
    {
      "constant": false,
      "inputs": [
        {
          "name": "_fighterId",
          "type": "uint256"
        }
      ],
      "name": "healFighter",
      "outputs": [],
      "payable": true,
      "stateMutability": "payable",
      "type": "function"
    },
    {
      "constant": false,
      "inputs": [
        {
          "name": "newOwner",
          "type": "address"
        }
      ],
      "name": "transferOwnership",
      "outputs": [],
      "payable": false,
      "stateMutability": "nonpayable",
      "type": "function"
    },
    {
      "constant": true,
      "inputs": [],
      "name": "chanceOfFighterCreation",
      "outputs": [
        {
          "name": "",
          "type": "uint256"
        }
      ],
      "payable": false,
      "stateMutability": "view",
      "type": "function"
    },
    {
      "constant": true,
      "inputs": [],
      "name": "getFightersInArena",
      "outputs": [
        {
          "name": "",
          "type": "uint256[]"
        }
      ],
      "payable": false,
      "stateMutability": "view",
      "type": "function"
    },
    {
      "constant": false,
      "inputs": [
        {
          "name": "_attackerId",
          "type": "uint256"
        },
        {
          "name": "_defenderId",
          "type": "uint256"
        },
        {
          "name": "_seed",
          "type": "uint256"
        }
      ],
      "name": "fight",
      "outputs": [],
      "payable": false,
      "stateMutability": "nonpayable",
      "type": "function"
    },
    {
      "constant": false,
      "inputs": [
        {
          "name": "_seed",
          "type": "uint256"
        }
      ],
      "name": "searchForFighter",
      "outputs": [
        {
          "name": "fighterFound",
          "type": "bool"
        }
      ],
      "payable": false,
      "stateMutability": "nonpayable",
      "type": "function"
    },
    {
      "anonymous": false,
      "inputs": [
        {
          "indexed": false,
          "name": "buyer",
          "type": "address"
        },
        {
          "indexed": false,
          "name": "price",
          "type": "uint256"
        },
        {
          "indexed": false,
          "name": "fighterId",
          "type": "uint256"
        }
      ],
      "name": "PurchaseSuccess",
      "type": "event"
    },
    {
      "anonymous": false,
      "inputs": [
        {
          "indexed": false,
          "name": "winner",
          "type": "address"
        },
        {
          "indexed": false,
          "name": "winnerId",
          "type": "uint256"
        }
      ],
      "name": "FightComplete",
      "type": "event"
    },
    {
      "anonymous": false,
      "inputs": [
        {
          "indexed": false,
          "name": "from",
          "type": "address"
        },
        {
          "indexed": false,
          "name": "to",
          "type": "address"
        },
        {
          "indexed": false,
          "name": "tokenId",
          "type": "uint256"
        }
      ],
      "name": "Transfer",
      "type": "event"
    },
    {
      "anonymous": false,
      "inputs": [
        {
          "indexed": false,
          "name": "owner",
          "type": "address"
        },
        {
          "indexed": false,
          "name": "approved",
          "type": "address"
        },
        {
          "indexed": false,
          "name": "tokenId",
          "type": "uint256"
        }
      ],
      "name": "Approval",
      "type": "event"
    },
    {
      "anonymous": false,
      "inputs": [
        {
          "indexed": false,
          "name": "owner",
          "type": "address"
        },
        {
          "indexed": false,
          "name": "fighterId",
          "type": "uint256"
        }
      ],
      "name": "Creation",
      "type": "event"
    },
    {
      "anonymous": false,
      "inputs": [
        {
          "indexed": false,
          "name": "owner",
          "type": "address"
        },
        {
          "indexed": false,
          "name": "fighterId",
          "type": "uint256"
        },
        {
          "indexed": false,
          "name": "attribute",
          "type": "string"
        },
        {
          "indexed": false,
          "name": "increaseValue",
          "type": "uint256"
        }
      ],
      "name": "AttributeIncrease",
      "type": "event"
    },
    {
      "anonymous": false,
      "inputs": [
        {
          "indexed": false,
          "name": "owner",
          "type": "address"
        },
        {
          "indexed": false,
          "name": "fighterId",
          "type": "uint256"
        }
      ],
      "name": "Healed",
      "type": "event"
    },
    {
      "anonymous": false,
      "inputs": [
        {
          "indexed": false,
          "name": "fighterWasFound",
          "type": "bool"
        }
      ],
      "name": "FighterFound",
      "type": "event"
    }
  ],
  "bytecode": "0x60606040526003600181905560028190556611c37937e0800090556005600a5560008054600160a060020a033316600160a060020a03199091161790556128978061004b6000396000f30060606040526004361061023a5763ffffffff7c010000000000000000000000000000000000000000000000000000000060003504166301ffc9a7811461023f578063027f48f71461028b5780630560ff44146102bc57806306fdde0314610355578063095ea7b31461036857806318160ddd1461038c5780631ba210111461039f57806323b872dd146103be578063241860aa146103e657806328e3cec0146103fc5780633b61d9fa146104125780633f40d2881461043a57806340e4e0481461045457806344e59ee91461046a578063495ac3a81461049c5780634b193933146104b257806354c3bfa1146104c85780635fd8c710146104de5780636352211e146104f1578063641e3aae14610507578063701a19fd1461051d57806370a08231146105305780638053e5d81461054f5780638357b8dd146105715780638462151c146105935780638da5cb5b14610605578063920b4a2d1461061857806395d89b411461062e578063a5557ce014610641578063a707c73c14610657578063a9059cbb14610685578063ad2dccfe146106a7578063b64ce34a146106ba578063b6e57064146106cd578063bc4006f5146106e6578063c20548ac146106f9578063c38ee21114610718578063c48f66f21461072b578063cbb5bbbf1461073e578063e17b25af14610749578063e88f4f1f14610768578063efbeef801461077e578063f2fde38b14610789578063f36014d2146107a8578063f65bd953146107bb578063f669ddaf146107ce578063f6a67716146107ea575b600080fd5b341561024a57600080fd5b6102777fffffffff0000000000000000000000000000000000000000000000000000000060043516610800565b604051901515815260200160405180910390f35b341561029657600080fd5b6102aa600160a060020a0360043516610a87565b60405190815260200160405180910390f35b34156102c757600080fd5b6102de600480359060248035908101910135610a99565b60405160208082528190810183818151815260200191508051906020019080838360005b8381101561031a578082015183820152602001610302565b50505050905090810190601f1680156103475780820380516001836020036101000a031916815260200191505b509250505060405180910390f35b341561036057600080fd5b6102de610b8f565b341561037357600080fd5b61038a600160a060020a0360043516602435610bc6565b005b341561039757600080fd5b6102aa610c39565b34156103aa57600080fd5b61038a600160a060020a0360043516610c40565b34156103c957600080fd5b61038a600160a060020a0360043581169060243516604435610c9b565b34156103f157600080fd5b6102aa600435610d0b565b341561040757600080fd5b6102aa600435610d20565b341561041d57600080fd5b61038a600160a060020a0360043516602435604435606435610d32565b6102aa600480359060248035908101910135604435610d60565b341561045f57600080fd5b61038a600435610de5565b341561047557600080fd5b610480600435610e05565b604051600160a060020a03909116815260200160405180910390f35b34156104a757600080fd5b61038a600435610e20565b34156104bd57600080fd5b610480600435610e40565b34156104d357600080fd5b61038a600435610e5b565b34156104e957600080fd5b61038a610e8d565b34156104fc57600080fd5b610480600435610ee3565b341561051257600080fd5b61038a600435610f07565b341561052857600080fd5b6102aa610f39565b341561053b57600080fd5b6102aa600160a060020a0360043516610f3f565b341561055a57600080fd5b61038a600160a060020a0360043516602435610f5a565b341561057c57600080fd5b6102aa600160a060020a0360043516602435610f9b565b341561059e57600080fd5b6105b2600160a060020a0360043516610fc9565b60405160208082528190810183818151815260200191508051906020019060200280838360005b838110156105f15780820151838201526020016105d9565b505050509050019250505060405180910390f35b341561061057600080fd5b6104806110aa565b341561062357600080fd5b61038a6004356110b9565b341561063957600080fd5b6102de6110d9565b341561064c57600080fd5b61038a600435611110565b341561066257600080fd5b61066d600435611130565b60405191825260208201526040908101905180910390f35b341561069057600080fd5b61038a600160a060020a0360043516602435611149565b34156106b257600080fd5b6102aa6111a3565b34156106c557600080fd5b6102aa6111a9565b34156106d857600080fd5b61038a6004356024356111af565b34156106f157600080fd5b61048061121a565b341561070457600080fd5b6105b2600160a060020a0360043516611229565b341561072357600080fd5b6105b26112ac565b341561073657600080fd5b61038a6112f5565b61038a60043561131e565b341561075457600080fd5b61038a600160a060020a036004351661134b565b341561077357600080fd5b61038a60043561137a565b61038a6004356113d1565b341561079457600080fd5b61038a600160a060020a03600435166113fa565b34156107b357600080fd5b6102aa611451565b34156107c657600080fd5b6105b2611457565b34156107d957600080fd5b61038a60043560243560443561149b565b34156107f557600080fd5b6102776004356115be565b60006040517f737570706f727473496e7465726661636528627974657334290000000000000081526019016040518091039020600160e060020a03191682600160e060020a0319161480610a7f57506040517f746f6b656e4d657461646174612875696e743235362c737472696e67290000008152601d0160405180910390206040517f746f6b656e734f664f776e657228616464726573732900000000000000000000815260160160405180910390206040517f7472616e7366657246726f6d28616464726573732c616464726573732c75696e81527f7432353629000000000000000000000000000000000000000000000000000000602082015260250160405180910390206040517f7472616e7366657228616464726573732c75696e743235362900000000000000815260190160405180910390206040517f617070726f766528616464726573732c75696e74323536290000000000000000815260180160405180910390206040517f6f776e65724f662875696e743235362900000000000000000000000000000000815260100160405180910390206040517f62616c616e63654f662861646472657373290000000000000000000000000000815260120160405180910390206040517f746f74616c537570706c792829000000000000000000000000000000000000008152600d0160405180910390206040517f73796d626f6c2829000000000000000000000000000000000000000000000000815260080160405180910390206040517f6e616d652829000000000000000000000000000000000000000000000000000081526006016040518091039020181818181818181818600160e060020a03191682600160e060020a031916145b90505b919050565b60056020526000908152604090205481565b610aa1612745565b610aa9612757565b600954600090600160a060020a03161515610ac357600080fd5b600954600160a060020a031663cb4799f2878787600060405160a001526040517c010000000000000000000000000000000000000000000000000000000063ffffffff861602815260048101848152604060248301908152604483018490529091606401848480828437820191505094505050505060a060405180830381600087803b1515610b5157600080fd5b6102c65a03f11515610b6257600080fd5b50505060405180608001805160209091016040529092509050610b858282611689565b9695505050505050565b60408051908101604052600e81527f43727970746f427261776c657273000000000000000000000000000000000000602082015281565b610bd033826116de565b1515610bdb57600080fd5b610be581836116fe565b7f8c5be1e5ebec7d5bd14f71427d1e84f3dd0314c0f7b2291e5b200ac8c7c3b925338383604051600160a060020a039384168152919092166020820152604080820192909252606001905180910390a15050565b6004545b90565b60005433600160a060020a03908116911614610c5b57600080fd5b80600160a060020a03166108fc30600160a060020a0316319081150290604051600060405180830381858888f193505050501515610c9857600080fd5b50565b600160a060020a0382161515610cb057600080fd5b30600160a060020a031682600160a060020a031614151515610cd157600080fd5b610cdb3382611739565b1515610ce657600080fd5b610cf083826116de565b1515610cfb57600080fd5b610d06838383611759565b505050565b6000908152600b602052604090206001015490565b600c6020526000908152604090205481565b60005433600160a060020a03908116911614610d4d57600080fd5b610d5983838387611886565b5050505050565b6000806003548034101515610ddb57610d7933886116de565b1515610d8457600080fd5b600254610d9085611965565b811515610d9957fe5b049150610dd78787878080601f0160208091040260200160405190810160405281815292919060208401838380828437508994506119a59350505050565b8192505b5050949350505050565b60005433600160a060020a03908116911614610e0057600080fd5b600155565b600760205260009081526040902054600160a060020a031681565b60005433600160a060020a03908116911614610e3b57600080fd5b600255565b600660205260009081526040902054600160a060020a031681565b610e6533826116de565b1515610e7057600080fd5b610e7981611b8a565b1515610e8457600080fd5b610c9881611ba0565b60005433600160a060020a03908116911614610ea857600080fd5b600054600160a060020a039081169030163180156108fc0290604051600060405180830381858888f193505050501515610ee157600080fd5b565b600081815260066020526040902054600160a060020a0316801515610a8257600080fd5b610f1133826116de565b1515610f1c57600080fd5b610f2581611bb7565b1515610f3057600080fd5b610c9881611bca565b60035481565b600160a060020a031660009081526005602052604090205490565b60008054819033600160a060020a03908116911614610f7857600080fd5b610f8183611965565b9150610f8c83611965565b9050610d59600a838387611886565b600860205281600052604060002081815481101515610fb657fe5b6000918252602090912001549150829050565b610fd1612745565b6000806000610fde612745565b6000610fe987610f3f565b94508415156110195760006040518059106110015750595b908082528060200260200182016040525095506110a0565b60009350611025610c39565b9250846040518059106110355750595b90808252806020026020018201604052509150600190505b82811161109c57600081815260066020526040902054600160a060020a0388811691161415611094578082858151811061108357fe5b602090810290910101526001909301925b60010161104d565b8195505b5050505050919050565b600054600160a060020a031681565b60005433600160a060020a039081169116146110d457600080fd5b600a55565b60408051908101604052600481527f4252574c00000000000000000000000000000000000000000000000000000000602082015281565b60005433600160a060020a0390811691161461112b57600080fd5b600355565b600b602052600090815260409020805460019091015482565b600160a060020a038216151561115e57600080fd5b30600160a060020a031682600160a060020a03161415151561117f57600080fd5b61118933826116de565b151561119457600080fd5b61119f338383611759565b5050565b600a5481565b60025481565b6111b933836116de565b15156111c457600080fd5b6111cd82611bb7565b156111d757600080fd5b600081116111e457600080fd5b60408051908101604090815283825260208083018490526000858152600b90915220815181556020820151600190910155505050565b600954600160a060020a031681565b611231612745565b6008600083600160a060020a0316600160a060020a031681526020019081526020016000208054806020026020016040519081016040528092919081815260200182805480156112a057602002820191906000526020600020905b81548152602001906001019080831161128c575b50505050509050919050565b6112b4612745565b6112f060408051908101604052600b81527f6d61726b6574706c6163650000000000000000000000000000000000000000006020820152611bdb565b905090565b60005433600160a060020a0390811691161461131057600080fd5b600054600160a060020a0316ff5b6113288134611d0e565b600081815260066020526040902054610c9890600160a060020a03163383611759565b6009805473ffffffffffffffffffffffffffffffffffffffff1916600160a060020a0392909216919091179055565b61138433826116de565b151561138f57600080fd5b61139881611b8a565b156113a257600080fd5b60048054829081106113b057fe5b60009182526020808320600490920290910154928252600c90526040902055565b6003543481901061119f576113e633836116de565b15156113f157600080fd5b61119f82611e1c565b60005433600160a060020a0390811691161461141557600080fd5b600160a060020a03811615610c985760008054600160a060020a03831673ffffffffffffffffffffffffffffffffffffffff1990911617905550565b60015481565b61145f612745565b6112f060408051908101604052600581527f6172656e610000000000000000000000000000000000000000000000000000006020820152611bdb565b6114a3612780565b6000806114af85611bb7565b15156114ba57600080fd5b6114c433876116de565b15156114cf57600080fd5b6114d933866116de565b156114e357600080fd5b6114ee868686611e26565b9250825191506020830151905061150481611bb7565b156115125761151281611bca565b61151b82611bb7565b156115295761152982611bca565b6000818152600660205260408082205484835291205461155691600160a060020a03908116911683611759565b60008281526006602052604090819020547f3d6738b58dc42b8b9e1018be879243c73ce97814f92f989514ded9bd5dcb4cfa91600160a060020a0390911690849051600160a060020a03909216825260208201526040908101905180910390a1505050505050565b6000806000806115cd85611fb6565b9250600154838115156115dc57fe5b061515611646576115ec85611965565b91506115f785611965565b9050611606600a838333611886565b507f7ebb470024e5eee1d5ff9ccf7830ab34657fb753526f8a9e99c50452cc06ead56001604051901515815260200160405180910390a160019350611681565b7f7ebb470024e5eee1d5ff9ccf7830ab34657fb753526f8a9e99c50452cc06ead56000604051901515815260200160405180910390a1600093505b505050919050565b611691612745565b611699612745565b600080846040518059106116aa5750595b818152601f19601f83011681016020016040529050925050602082019050846116d4828287611fe2565b5090949350505050565b600090815260066020526040902054600160a060020a0391821691161490565b600091825260076020526040909120805473ffffffffffffffffffffffffffffffffffffffff1916600160a060020a03909216919091179055565b600090815260076020526040902054600160a060020a0391821691161490565b600160a060020a03821660008181526005602090815260408083208054600190810190915585845260068352818420805473ffffffffffffffffffffffffffffffffffffffff191686179055938352600890915290208054909181016117bf83826127a6565b506000918252602090912001819055600160a060020a03831615611831576000818152600760205260409020805473ffffffffffffffffffffffffffffffffffffffff191690556118108382612027565b600160a060020a038316600090815260056020526040902080546000190190555b7fddf252ad1be2c89b69c2b068fc378daa952ba7f163c4a11628f55a4df523b3ef838383604051600160a060020a039384168152919092166020820152604080820192909252606001905180910390a1505050565b60006118906127ca565b60006080604051908101604052808881526020018881526020018781526020018681525091506001600480548060010182816118cc91906127f3565b6000928352602090922085916004020181518155602082015181600101556040820151816002015560608201516003909101555003905063ffffffff8116811461191557600080fd5b7fc07d6fc5db170f8be7da51bea7bf502fb674192c618536ee210555994694b0b78482604051600160a060020a03909216825260208201526040908101905180910390a1610b8560008583611759565b600080600a60014303408460405191825260208201526040908101905190819003902081151561199157fe5b06905080151561199f575060015b92915050565b6040517f6d61784865616c746800000000000000000000000000000000000000000000008152600901604051908190039020826040518082805190602001908083835b60208310611a075780518252601f1990920191602091820191016119e8565b6001836020036101000a03801982511681845116179092525050509190910192506040915050519081900390201415611a4a57611a458382336120bb565b610d06565b6040517f737472656e6774680000000000000000000000000000000000000000000000008152600801604051908190039020826040518082805190602001908083835b60208310611aac5780518252601f199092019160209182019101611a8d565b6001836020036101000a03801982511681845116179092525050509190910192506040915050519081900390201415611aea57611a458382336121c9565b6040517f73706565640000000000000000000000000000000000000000000000000000008152600501604051908190039020826040518082805190602001908083835b60208310611b4c5780518252601f199092019160209182019101611b2d565b6001836020036101000a03801982511681845116179092525050509190910192506040915050519081900390201415610d0657610d068382336122c0565b6000908152600b60205260408120600101541190565b6000908152600b6020526040812081815560010155565b6000908152600c60205260408120541190565b6000908152600c6020526040812055565b611be3612745565b600080611bee612745565b6000611bf8610c39565b935060009250856040518082805190602001908083835b60208310611c2e5780518252601f199092019160209182019101611c0f565b6001836020036101000a03801982511681845116179092525050509190910192506040915050519081900390207f6172656e610000000000000000000000000000000000000000000000000000001415611cc6575060015b838111611cc157611c9681611bb7565b15611cb95780828481518110611ca857fe5b602090810290910101526001909201915b600101611c86565b611d05565b5060015b838111611d0557611cda81611b8a565b15611cfd5780828481518110611cec57fe5b602090810290910101526001909201915b600101611cca565b50949350505050565b6000806000611d1d33866116de565b15611d2757600080fd5b611d3085611b8a565b1515611d3b57600080fd5b6000858152600b6020526040902060010154841015611d5957600080fd5b600085815260066020526040902054600160a060020a03169250611d7c85611ba0565b611d85846123b6565b915050808303600160a060020a03831681156108fc0282604051600060405180830381858888f193505050501515611dbc57600080fd5b7f9ae15b9678dec12e7a6cf4b0046777058c2fcaf18d7868cbc354defb79981f903385876040518084600160a060020a0316600160a060020a03168152602001838152602001828152602001935050505060405180910390a15050505050565b610c9881336123c2565b611e2e612780565b611e36612745565b611e3e6127ca565b611e466127ca565b6004805488908110611e5457fe5b90600052602060002090600402016080604051908101604090815282548252600183015460208301526002830154908201526003909101546060820152600480549193509087908110611ea357fe5b906000526020600020906004020160806040519081016040908152825482526001830154602083015260028301548183015260039092015460608201529150820151816040015110611f4a57604080519081016040528681526020810182905283600081518110611f1057fe5b60209081029091010152604080519081016040528781526020810183905283600181518110611f3b57fe5b60209081029091010152611fa1565b604080519081016040528781526020810183905283600081518110611f6b57fe5b60209081029091010152604080519081016040528681526020810182905283600181518110611f9657fe5b602090810290910101525b611fab8386612482565b979650505050505050565b600080606460014303408460405191825260208201526040908101905190819003902081151561199157fe5b60005b602082106120085782518452602084019350602083019250602082039150611fe5565b6001826020036101000a03905080198351168185511617909352505050565b60005b600160a060020a038316600090815260086020526040902054811015610d0657600160a060020a038316600090815260086020526040902080548391908390811061207157fe5b90600052602060002090015414156120b357600160a060020a03831660009081526008602052604090208054829081106120a757fe5b60009182526020822001555b60010161202a565b6120c36127ca565b60048054859081106120d157fe5b90600052602060002090600402016080604051908101604090815282548252600183015460208301526002830154908201526003909101546060820152905080518160200151141561212a578281602001818151019052505b82818181510190525061213d81856126df565b7fca04611e80f005feb5aafd7553030c696e4de100604c325926807c6cbda6a7c3828585604051600160a060020a03909316835260208301919091526060820152608060408083018290526009918301919091527f6d61784865616c7468000000000000000000000000000000000000000000000060a083015260c0909101905180910390a150505050565b6121d16127ca565b60048054859081106121df57fe5b90600052602060002090600402016080604051908101604090815282548252600183015460208301526002830154908201526003909101546060820190815290915083908181510190525061223481856126df565b7fca04611e80f005feb5aafd7553030c696e4de100604c325926807c6cbda6a7c3828585604051600160a060020a03909316835260208301919091526060820152608060408083018290526008918301919091527f737472656e67746800000000000000000000000000000000000000000000000060a083015260c0909101905180910390a150505050565b6122c86127ca565b60048054859081106122d657fe5b906000526020600020906004020160806040519081016040908152825482526001830154602083015260028301549082019081526003909201546060820152915083908181510190525061232a81856126df565b7fca04611e80f005feb5aafd7553030c696e4de100604c325926807c6cbda6a7c3828585604051600160a060020a03909316835260208301919091526060820152608060408083018290526005918301919091527f737065656400000000000000000000000000000000000000000000000000000060a083015260c0909101905180910390a150505050565b600a5460649091040290565b6123ca6127ca565b60048054849081106123d857fe5b906000526020600020906004020160806040519081016040908152825482526001830154602083015260028301549082015260039091015460608201529050805181602001511061242857600080fd5b8051602082015261243981846126df565b7fb714a55d7bb8d35d8cf25c68ae8435a49a2faaffa841fcb1303d75dbf0a905688284604051600160a060020a03909216825260208201526040908101905180910390a1505050565b61248a612780565b612492612780565b6000806000805b6000886000815181106124a857fe5b9060200190602002015160200151602001511180156124e557506000886001815181106124d157fe5b906020019060200201516020015160200151115b156126ac57876000815181106124f757fe5b90602001906020020151602001516060015161251288612728565b0293508760018151811061252257fe5b90602001906020020151602001516040015161253d88612728565b02925082841115612571578284038860018151811061255857fe5b9060200190602002015160200151602001818151039052505b60008860018151811061258057fe5b906020019060200201516020015160200151116125d357876000815181106125a457fe5b90602001906020020151518552876001815181106125be57fe5b906020019060200201515160208601526126ac565b876001815181106125e057fe5b9060200190602002015160200151606001516125fb88612728565b0291508760008151811061260b57fe5b90602001906020020151602001516040015161262688612728565b0290508082111561265a578082038860008151811061264157fe5b9060200190602002015160200151602001818151039052505b60008860008151811061266957fe5b906020019060200201516020015160200151116126a7578760018151811061268d57fe5b90602001906020020151518552876000815181106125be57fe5b612499565b600060046020870151815481106126bf57fe5b600091825260209091206001600490920201015550929695505050505050565b816004828154811015156126ef57fe5b90600052602060002090600402016000820151815560208201518160010155604082015181600201556060820151600390910155505050565b6000600a61273583611965565b81151561273e57fe5b0492915050565b60206040519081016040526000815290565b60806040519081016040526004815b600081526000199190910190602001816127665790505090565b604080519081016040526002815b600081526020019060019003908161278e5790505090565b815481835581811511610d0657600083815260209020610d0691810190830161281f565b608060405190810160405280600081526020016000815260200160008152602001600081525090565b815481835581811511610d0657600402816004028360005260206000209182019101610d06919061283d565b610c3d91905b808211156128395760008155600101612825565b5090565b610c3d91905b80821115612839576000808255600182018190556002820181905560038201556004016128435600a165627a7a72305820b13089af6b4e4d2ba9ac0d2e268bbdbbc43e54ca4231ca373c2f906336de4c1c0029",
  "source": "pragma solidity ^0.4.18;\n\nimport \"../fighter/FighterOwnership.sol\";\nimport \"./MarketplaceConfig.sol\";\n\ncontract Marketplace is FighterOwnership, MarketplaceConfig {\n  mapping(uint256 => Sale) public fighterIdToSale; // Storing of figher Ids against their sale Struct\n  mapping(uint256 => uint256) public fighterIdToMaxHealth; // Map of fighter Ids to their max health\n\n  event PurchaseSuccess(address buyer, uint price, uint fighterId);\n  event FightComplete(address winner, uint winnerId);\n\n  struct Combatant {\n    uint256 fighterId;\n    Fighter fighter;\n  }\n\n  struct Sale {\n    uint256 fighterId;\n    uint256 price;\n  }\n\n  function getPriceForFighter(uint _fighterId) constant external returns (uint256) {\n    return fighterIdToSale[_fighterId].price;\n  }\n\n  function getFightersForSale() external view returns(uint256[]) {\n    return _getFightersInArea('marketplace');\n  }\n\n  function getFightersInArena() external view returns(uint256[]) {\n    return _getFightersInArea('arena');\n  }\n\n  function _getFightersInArea(string area) internal returns(uint256[] fighterIds) {\n    uint256 totalFighters = totalSupply();\n    uint256 resultIndex = 0;\n    uint256[] memory result;\n\n    uint fighterId;\n    if (keccak256(area) == 'arena') {\n      for (fighterId = 1; fighterId <= totalFighters; fighterId++) {\n        if (_fighterIsForBrawl(fighterId)) {\n          result[resultIndex] = fighterId;\n          resultIndex++;\n        }\n      }\n    } else {\n      for (fighterId = 1; fighterId <= totalFighters; fighterId++) {\n        if (_fighterIsForSale(fighterId)) {\n          result[resultIndex] = fighterId;\n          resultIndex++;\n        }\n      }\n    }\n\n    return result;\n  }\n\n  function removeFighterFromSale(uint _fighterId) external {\n    require(_owns(msg.sender, _fighterId));\n    // Just double check we can actually remove a fighter before we go any further\n    require(_fighterIsForSale(_fighterId));\n\n    _removeFighterFromSale(_fighterId);\n  }\n\n  function removeFighterFromArena(uint _fighterId) external {\n    require(_owns(msg.sender, _fighterId));\n    // Just double check we can actually remove a fighter before we go any further\n    require(_fighterIsForBrawl(_fighterId));\n\n    _removeFighterFromArena(_fighterId);\n  }\n\n  function makeFighterAvailableForSale(uint _fighterId, uint _price) external {\n    require(_owns(msg.sender, _fighterId));\n    // Fighters can't be both for sale and open for brawling\n    require(!_fighterIsForBrawl(_fighterId));\n    require(_price > 0);\n\n    fighterIdToSale[_fighterId] = Sale({ fighterId: _fighterId, price: _price });\n  }\n\n  function makeFighterAvailableForBrawl(uint _fighterId) external {\n    require(_owns(msg.sender, _fighterId));\n    // Fighters can't be both for sale and open for brawling\n    require(!_fighterIsForSale(_fighterId));\n\n    fighterIdToMaxHealth[_fighterId] = fighters[_fighterId].maxHealth;\n  }\n\n  function buyFighter(uint _fighterId) external payable {\n    _makePurchase(_fighterId, msg.value);\n    _transfer(fighterIdToOwner[_fighterId], msg.sender, _fighterId);\n  }\n\n  function fight(uint _attackerId, uint _defenderId, uint _seed) external {\n    // fighter actually in the arena is always the defender\n    require(_fighterIsForBrawl(_defenderId));\n    // Make sure the challenger is actually sending the transaction\n    require(_owns(msg.sender, _attackerId));\n    // Also make sure that the challenger is not attacking his own fighter\n    require(!_owns(msg.sender, _defenderId));\n\n    uint[2] memory winnerAndLoser = _determineWinner(_attackerId, _defenderId, _seed);\n    uint _winnerId = winnerAndLoser[0];\n    uint _loserId = winnerAndLoser[1];\n\n    if (_fighterIsForBrawl(_loserId)) {\n      _removeFighterFromArena(_loserId);\n    }\n\n    if (_fighterIsForBrawl(_winnerId)) {\n      _removeFighterFromArena(_winnerId);\n    }\n\n    _transfer(fighterIdToOwner[_loserId], fighterIdToOwner[_winnerId], _loserId);\n    FightComplete(fighterIdToOwner[_winnerId], _winnerId);\n  }\n\n  function _determineWinner(uint _attackerId, uint _defenderId, uint _seed) internal returns (uint[2]) {\n    Combatant[] memory orderOfCombat;\n    Fighter memory _attacker = fighters[_attackerId];\n    Fighter memory _defender = fighters[_defenderId];\n\n    if(_defender.speed >= _attacker.speed) {\n      orderOfCombat[0] = Combatant({ fighterId: _defenderId, fighter: _defender });\n      orderOfCombat[1] = Combatant({ fighterId: _attackerId, fighter: _attacker });\n    } else {\n      orderOfCombat[0] = Combatant({ fighterId: _attackerId, fighter: _attacker });\n      orderOfCombat[1] = Combatant({ fighterId: _defenderId, fighter: _defender });\n    }\n\n    return _calculateCombatOutcome(orderOfCombat, _seed);\n  }\n\n  function _calculateCombatOutcome(Combatant[] _combatants, uint _seed) internal returns (uint[2]) {\n    uint[2] memory winnerAndLoser;\n\n    while ( _combatants[0].fighter.health > 0 &&  _combatants[1].fighter.health > 0) {\n      uint _fighter1StrengthCheck = (RandomNumber.randDecimal(_seed) *  _combatants[0].fighter.strength);\n      uint _fighter2SpeedCheck = (RandomNumber.randDecimal(_seed) *  _combatants[1].fighter.speed);\n\n      if (_fighter1StrengthCheck > _fighter2SpeedCheck) {\n         _combatants[1].fighter.health -= (_fighter1StrengthCheck - _fighter2SpeedCheck);\n      }\n\n      if (_combatants[1].fighter.health <= 0) {\n        winnerAndLoser[0] =  _combatants[0].fighterId;\n        winnerAndLoser[1] =  _combatants[1].fighterId;\n        break;\n      }\n\n      uint _fighter2StrengthCheck = (RandomNumber.randDecimal(_seed) *  _combatants[1].fighter.strength);\n      uint _fighter1SpeedCheck = (RandomNumber.randDecimal(_seed) *  _combatants[0].fighter.speed);\n\n      if (_fighter2StrengthCheck > _fighter1SpeedCheck) {\n         _combatants[0].fighter.health -= (_fighter2StrengthCheck - _fighter1SpeedCheck);\n      }\n\n      if (_combatants[0].fighter.health <= 0) {\n        winnerAndLoser[0] = _combatants[1].fighterId;\n        winnerAndLoser[1] = _combatants[0].fighterId;\n        break;\n      }\n    }\n\n    // Set the losers health to 0\n    fighters[winnerAndLoser[1]].health = 0;\n    return winnerAndLoser;\n  }\n\n  function _makePurchase(uint _fighterId, uint _price) internal {\n    require(!_owns(msg.sender, _fighterId));\n    require(_fighterIsForSale(_fighterId));\n    require(_price >= fighterIdToSale[_fighterId].price);\n\n    address sellerAddress = fighterIdToOwner[_fighterId];\n    _removeFighterFromSale(_fighterId);\n\n    uint saleCut = _calculateCut(_price);\n    uint totalSale = _price - saleCut;\n    sellerAddress.transfer(totalSale);\n\n    PurchaseSuccess(msg.sender, _price, _fighterId);\n  }\n\n  function _calculateCut(uint _totalPrice) internal returns (uint) {\n    return ((_totalPrice / 100) * marketplaceCut);\n  }\n\n  function _fighterIsForSale(uint _fighterId) internal returns (bool) {\n    return (fighterIdToSale[_fighterId].price > 0);\n  }\n\n  function _fighterIsForBrawl(uint _fighterId) internal returns (bool) {\n    return (fighterIdToMaxHealth[_fighterId] > 0);\n  }\n\n  function _removeFighterFromSale(uint _fighterId) internal {\n    delete fighterIdToSale[_fighterId];\n  }\n\n  function _removeFighterFromArena(uint _fighterId) internal {\n    delete fighterIdToMaxHealth[_fighterId];\n  }\n}\n",
  "sourcePath": "/Users/Aaron/Projects/cryptoclash/contracts/marketplace/Marketplace.sol",
  "compiler": {
    "name": "solc",
    "version": "0.4.18+commit.9cf6e910.Emscripten.clang"
  },
  "schemaVersion": "1.0.1",
  "updatedAt": "2018-01-25T19:44:16.065Z"
}