{
  "contractName": "Marketplace",
  "abi": [
    {
      "constant": true,
      "inputs": [
        {
          "name": "_interfaceID",
          "type": "bytes4"
        }
      ],
      "name": "supportsInterface",
      "outputs": [
        {
          "name": "",
          "type": "bool"
        }
      ],
      "payable": false,
      "stateMutability": "view",
      "type": "function"
    },
    {
      "constant": true,
      "inputs": [
        {
          "name": "",
          "type": "address"
        }
      ],
      "name": "fighterCountForOwner",
      "outputs": [
        {
          "name": "",
          "type": "uint256"
        }
      ],
      "payable": false,
      "stateMutability": "view",
      "type": "function"
    },
    {
      "constant": true,
      "inputs": [
        {
          "name": "_tokenId",
          "type": "uint256"
        },
        {
          "name": "_preferredTransport",
          "type": "string"
        }
      ],
      "name": "tokenMetadata",
      "outputs": [
        {
          "name": "infoUrl",
          "type": "string"
        }
      ],
      "payable": false,
      "stateMutability": "view",
      "type": "function"
    },
    {
      "constant": true,
      "inputs": [],
      "name": "name",
      "outputs": [
        {
          "name": "",
          "type": "string"
        }
      ],
      "payable": false,
      "stateMutability": "view",
      "type": "function"
    },
    {
      "constant": false,
      "inputs": [
        {
          "name": "_to",
          "type": "address"
        },
        {
          "name": "_tokenId",
          "type": "uint256"
        }
      ],
      "name": "approve",
      "outputs": [],
      "payable": false,
      "stateMutability": "nonpayable",
      "type": "function"
    },
    {
      "constant": true,
      "inputs": [],
      "name": "totalSupply",
      "outputs": [
        {
          "name": "",
          "type": "uint256"
        }
      ],
      "payable": false,
      "stateMutability": "view",
      "type": "function"
    },
    {
      "constant": false,
      "inputs": [
        {
          "name": "_recipient",
          "type": "address"
        }
      ],
      "name": "withdrawBalanceToAddress",
      "outputs": [],
      "payable": false,
      "stateMutability": "nonpayable",
      "type": "function"
    },
    {
      "constant": false,
      "inputs": [
        {
          "name": "_from",
          "type": "address"
        },
        {
          "name": "_to",
          "type": "address"
        },
        {
          "name": "_tokenId",
          "type": "uint256"
        }
      ],
      "name": "transferFrom",
      "outputs": [],
      "payable": false,
      "stateMutability": "nonpayable",
      "type": "function"
    },
    {
      "constant": true,
      "inputs": [
        {
          "name": "_fighterId",
          "type": "uint256"
        }
      ],
      "name": "getPriceForFighter",
      "outputs": [
        {
          "name": "",
          "type": "uint256"
        }
      ],
      "payable": false,
      "stateMutability": "view",
      "type": "function"
    },
    {
      "constant": true,
      "inputs": [
        {
          "name": "",
          "type": "uint256"
        }
      ],
      "name": "fighterIdToMaxHealth",
      "outputs": [
        {
          "name": "",
          "type": "uint256"
        }
      ],
      "payable": false,
      "stateMutability": "view",
      "type": "function"
    },
    {
      "constant": false,
      "inputs": [
        {
          "name": "_recipient",
          "type": "address"
        },
        {
          "name": "_maxHealth",
          "type": "uint256"
        },
        {
          "name": "_speed",
          "type": "uint256"
        },
        {
          "name": "_strength",
          "type": "uint256"
        }
      ],
      "name": "customOwnerCreation",
      "outputs": [],
      "payable": false,
      "stateMutability": "nonpayable",
      "type": "function"
    },
    {
      "constant": false,
      "inputs": [
        {
          "name": "_fighterId",
          "type": "uint256"
        },
        {
          "name": "_attribute",
          "type": "string"
        },
        {
          "name": "_seed",
          "type": "uint256"
        }
      ],
      "name": "trainFighter",
      "outputs": [
        {
          "name": "",
          "type": "uint256"
        }
      ],
      "payable": true,
      "stateMutability": "payable",
      "type": "function"
    },
    {
      "constant": false,
      "inputs": [
        {
          "name": "newProbability",
          "type": "uint256"
        }
      ],
      "name": "setFighterCreationChance",
      "outputs": [],
      "payable": false,
      "stateMutability": "nonpayable",
      "type": "function"
    },
    {
      "constant": true,
      "inputs": [
        {
          "name": "",
          "type": "uint256"
        }
      ],
      "name": "fighterIdToApproved",
      "outputs": [
        {
          "name": "",
          "type": "address"
        }
      ],
      "payable": false,
      "stateMutability": "view",
      "type": "function"
    },
    {
      "constant": false,
      "inputs": [
        {
          "name": "newFactor",
          "type": "uint256"
        }
      ],
      "name": "setTrainingFactor",
      "outputs": [],
      "payable": false,
      "stateMutability": "nonpayable",
      "type": "function"
    },
    {
      "constant": true,
      "inputs": [
        {
          "name": "",
          "type": "uint256"
        }
      ],
      "name": "fighterIdToOwner",
      "outputs": [
        {
          "name": "",
          "type": "address"
        }
      ],
      "payable": false,
      "stateMutability": "view",
      "type": "function"
    },
    {
      "constant": false,
      "inputs": [
        {
          "name": "_fighterId",
          "type": "uint256"
        }
      ],
      "name": "removeFighterFromSale",
      "outputs": [],
      "payable": false,
      "stateMutability": "nonpayable",
      "type": "function"
    },
    {
      "constant": false,
      "inputs": [],
      "name": "withdrawBalance",
      "outputs": [],
      "payable": false,
      "stateMutability": "nonpayable",
      "type": "function"
    },
    {
      "constant": true,
      "inputs": [
        {
          "name": "_tokenId",
          "type": "uint256"
        }
      ],
      "name": "ownerOf",
      "outputs": [
        {
          "name": "owner",
          "type": "address"
        }
      ],
      "payable": false,
      "stateMutability": "view",
      "type": "function"
    },
    {
      "constant": false,
      "inputs": [
        {
          "name": "_fighterId",
          "type": "uint256"
        }
      ],
      "name": "removeFighterFromArena",
      "outputs": [],
      "payable": false,
      "stateMutability": "nonpayable",
      "type": "function"
    },
    {
      "constant": true,
      "inputs": [],
      "name": "trainingCost",
      "outputs": [
        {
          "name": "",
          "type": "uint256"
        }
      ],
      "payable": false,
      "stateMutability": "view",
      "type": "function"
    },
    {
      "constant": true,
      "inputs": [
        {
          "name": "_owner",
          "type": "address"
        }
      ],
      "name": "balanceOf",
      "outputs": [
        {
          "name": "count",
          "type": "uint256"
        }
      ],
      "payable": false,
      "stateMutability": "view",
      "type": "function"
    },
    {
      "constant": false,
      "inputs": [
        {
          "name": "_recipient",
          "type": "address"
        },
        {
          "name": "_seed",
          "type": "uint256"
        }
      ],
      "name": "ownerCreation",
      "outputs": [],
      "payable": false,
      "stateMutability": "nonpayable",
      "type": "function"
    },
    {
      "constant": true,
      "inputs": [
        {
          "name": "",
          "type": "address"
        },
        {
          "name": "",
          "type": "uint256"
        }
      ],
      "name": "ownedFighters",
      "outputs": [
        {
          "name": "",
          "type": "uint256"
        }
      ],
      "payable": false,
      "stateMutability": "view",
      "type": "function"
    },
    {
      "constant": true,
      "inputs": [
        {
          "name": "_owner",
          "type": "address"
        }
      ],
      "name": "tokensOfOwner",
      "outputs": [
        {
          "name": "ownerTokens",
          "type": "uint256[]"
        }
      ],
      "payable": false,
      "stateMutability": "view",
      "type": "function"
    },
    {
      "constant": true,
      "inputs": [],
      "name": "owner",
      "outputs": [
        {
          "name": "",
          "type": "address"
        }
      ],
      "payable": false,
      "stateMutability": "view",
      "type": "function"
    },
    {
      "constant": true,
      "inputs": [
        {
          "name": "",
          "type": "uint256"
        }
      ],
      "name": "fightersInMarket",
      "outputs": [
        {
          "name": "",
          "type": "uint256"
        }
      ],
      "payable": false,
      "stateMutability": "view",
      "type": "function"
    },
    {
      "constant": false,
      "inputs": [
        {
          "name": "_newCut",
          "type": "uint256"
        }
      ],
      "name": "setNewMarketplaceCut",
      "outputs": [],
      "payable": false,
      "stateMutability": "nonpayable",
      "type": "function"
    },
    {
      "constant": true,
      "inputs": [],
      "name": "symbol",
      "outputs": [
        {
          "name": "",
          "type": "string"
        }
      ],
      "payable": false,
      "stateMutability": "view",
      "type": "function"
    },
    {
      "constant": false,
      "inputs": [
        {
          "name": "newCost",
          "type": "uint256"
        }
      ],
      "name": "setNewTrainingCost",
      "outputs": [],
      "payable": false,
      "stateMutability": "nonpayable",
      "type": "function"
    },
    {
      "constant": true,
      "inputs": [
        {
          "name": "",
          "type": "uint256"
        }
      ],
      "name": "fighterIdToSale",
      "outputs": [
        {
          "name": "fighterId",
          "type": "uint256"
        },
        {
          "name": "price",
          "type": "uint256"
        }
      ],
      "payable": false,
      "stateMutability": "view",
      "type": "function"
    },
    {
      "constant": false,
      "inputs": [
        {
          "name": "_to",
          "type": "address"
        },
        {
          "name": "_tokenId",
          "type": "uint256"
        }
      ],
      "name": "transfer",
      "outputs": [],
      "payable": false,
      "stateMutability": "nonpayable",
      "type": "function"
    },
    {
      "constant": true,
      "inputs": [],
      "name": "marketplaceCut",
      "outputs": [
        {
          "name": "",
          "type": "uint256"
        }
      ],
      "payable": false,
      "stateMutability": "view",
      "type": "function"
    },
    {
      "constant": true,
      "inputs": [],
      "name": "trainingFactor",
      "outputs": [
        {
          "name": "",
          "type": "uint256"
        }
      ],
      "payable": false,
      "stateMutability": "view",
      "type": "function"
    },
    {
      "constant": false,
      "inputs": [
        {
          "name": "_fighterId",
          "type": "uint256"
        },
        {
          "name": "_price",
          "type": "uint256"
        }
      ],
      "name": "makeFighterAvailableForSale",
      "outputs": [],
      "payable": false,
      "stateMutability": "nonpayable",
      "type": "function"
    },
    {
      "constant": true,
      "inputs": [
        {
          "name": "",
          "type": "uint256"
        }
      ],
      "name": "fightersInArena",
      "outputs": [
        {
          "name": "",
          "type": "uint256"
        }
      ],
      "payable": false,
      "stateMutability": "view",
      "type": "function"
    },
    {
      "constant": true,
      "inputs": [],
      "name": "erc721Metadata",
      "outputs": [
        {
          "name": "",
          "type": "address"
        }
      ],
      "payable": false,
      "stateMutability": "view",
      "type": "function"
    },
    {
      "constant": false,
      "inputs": [
        {
          "name": "_owner",
          "type": "address"
        }
      ],
      "name": "getFightersForAddress",
      "outputs": [
        {
          "name": "",
          "type": "uint256[]"
        }
      ],
      "payable": false,
      "stateMutability": "nonpayable",
      "type": "function"
    },
    {
      "constant": true,
      "inputs": [],
      "name": "getFightersForSale",
      "outputs": [
        {
          "name": "",
          "type": "uint256[]"
        }
      ],
      "payable": false,
      "stateMutability": "view",
      "type": "function"
    },
    {
      "constant": false,
      "inputs": [],
      "name": "killConract",
      "outputs": [],
      "payable": false,
      "stateMutability": "nonpayable",
      "type": "function"
    },
    {
      "constant": false,
      "inputs": [
        {
          "name": "_fighterId",
          "type": "uint256"
        }
      ],
      "name": "buyFighter",
      "outputs": [],
      "payable": true,
      "stateMutability": "payable",
      "type": "function"
    },
    {
      "constant": false,
      "inputs": [
        {
          "name": "_contractAddress",
          "type": "address"
        }
      ],
      "name": "setMetadataAddress",
      "outputs": [],
      "payable": false,
      "stateMutability": "nonpayable",
      "type": "function"
    },
    {
      "constant": false,
      "inputs": [
        {
          "name": "_fighterId",
          "type": "uint256"
        }
      ],
      "name": "makeFighterAvailableForBrawl",
      "outputs": [],
      "payable": false,
      "stateMutability": "nonpayable",
      "type": "function"
    },
    {
      "constant": false,
      "inputs": [
        {
          "name": "_fighterId",
          "type": "uint256"
        }
      ],
      "name": "healFighter",
      "outputs": [],
      "payable": true,
      "stateMutability": "payable",
      "type": "function"
    },
    {
      "constant": false,
      "inputs": [
        {
          "name": "newOwner",
          "type": "address"
        }
      ],
      "name": "transferOwnership",
      "outputs": [],
      "payable": false,
      "stateMutability": "nonpayable",
      "type": "function"
    },
    {
      "constant": true,
      "inputs": [],
      "name": "chanceOfFighterCreation",
      "outputs": [
        {
          "name": "",
          "type": "uint256"
        }
      ],
      "payable": false,
      "stateMutability": "view",
      "type": "function"
    },
    {
      "constant": true,
      "inputs": [],
      "name": "getFightersInArena",
      "outputs": [
        {
          "name": "",
          "type": "uint256[]"
        }
      ],
      "payable": false,
      "stateMutability": "view",
      "type": "function"
    },
    {
      "constant": false,
      "inputs": [
        {
          "name": "_attackerId",
          "type": "uint256"
        },
        {
          "name": "_defenderId",
          "type": "uint256"
        },
        {
          "name": "_seed",
          "type": "uint256"
        }
      ],
      "name": "fight",
      "outputs": [],
      "payable": false,
      "stateMutability": "nonpayable",
      "type": "function"
    },
    {
      "constant": false,
      "inputs": [
        {
          "name": "_seed",
          "type": "uint256"
        }
      ],
      "name": "searchForFighter",
      "outputs": [
        {
          "name": "fighterFound",
          "type": "bool"
        }
      ],
      "payable": false,
      "stateMutability": "nonpayable",
      "type": "function"
    },
    {
      "anonymous": false,
      "inputs": [
        {
          "indexed": false,
          "name": "buyer",
          "type": "address"
        },
        {
          "indexed": false,
          "name": "price",
          "type": "uint256"
        },
        {
          "indexed": false,
          "name": "fighterId",
          "type": "uint256"
        }
      ],
      "name": "PurchaseSuccess",
      "type": "event"
    },
    {
      "anonymous": false,
      "inputs": [
        {
          "indexed": false,
          "name": "winner",
          "type": "address"
        },
        {
          "indexed": false,
          "name": "winnerId",
          "type": "uint256"
        }
      ],
      "name": "FightComplete",
      "type": "event"
    },
    {
      "anonymous": false,
      "inputs": [
        {
          "indexed": false,
          "name": "from",
          "type": "address"
        },
        {
          "indexed": false,
          "name": "to",
          "type": "address"
        },
        {
          "indexed": false,
          "name": "tokenId",
          "type": "uint256"
        }
      ],
      "name": "Transfer",
      "type": "event"
    },
    {
      "anonymous": false,
      "inputs": [
        {
          "indexed": false,
          "name": "owner",
          "type": "address"
        },
        {
          "indexed": false,
          "name": "approved",
          "type": "address"
        },
        {
          "indexed": false,
          "name": "tokenId",
          "type": "uint256"
        }
      ],
      "name": "Approval",
      "type": "event"
    },
    {
      "anonymous": false,
      "inputs": [
        {
          "indexed": false,
          "name": "owner",
          "type": "address"
        },
        {
          "indexed": false,
          "name": "fighterId",
          "type": "uint256"
        }
      ],
      "name": "Creation",
      "type": "event"
    },
    {
      "anonymous": false,
      "inputs": [
        {
          "indexed": false,
          "name": "owner",
          "type": "address"
        },
        {
          "indexed": false,
          "name": "fighterId",
          "type": "uint256"
        },
        {
          "indexed": false,
          "name": "attribute",
          "type": "string"
        },
        {
          "indexed": false,
          "name": "increaseValue",
          "type": "uint256"
        }
      ],
      "name": "AttributeIncrease",
      "type": "event"
    },
    {
      "anonymous": false,
      "inputs": [
        {
          "indexed": false,
          "name": "owner",
          "type": "address"
        },
        {
          "indexed": false,
          "name": "fighterId",
          "type": "uint256"
        }
      ],
      "name": "Healed",
      "type": "event"
    },
    {
      "anonymous": false,
      "inputs": [
        {
          "indexed": false,
          "name": "fighterWasFound",
          "type": "bool"
        }
      ],
      "name": "FighterFound",
      "type": "event"
    }
  ],
  "bytecode": "0x60606040526003600181905560028190556611c37937e0800090556005600a5560008054600160a060020a033316600160a060020a03199091161790556128e48061004b6000396000f3006060604052600436106102505763ffffffff7c010000000000000000000000000000000000000000000000000000000060003504166301ffc9a78114610255578063027f48f7146102a15780630560ff44146102d257806306fdde031461036b578063095ea7b31461037e57806318160ddd146103a25780631ba21011146103b557806323b872dd146103d4578063241860aa146103fc57806328e3cec0146104125780633b61d9fa146104285780633f40d2881461045057806340e4e0481461046a57806344e59ee914610480578063495ac3a8146104b25780634b193933146104c857806354c3bfa1146104de5780635fd8c710146104f45780636352211e14610507578063641e3aae1461051d578063701a19fd1461053357806370a08231146105465780638053e5d8146105655780638357b8dd146105875780638462151c146105a95780638da5cb5b1461061b57806390cf201c1461062e578063920b4a2d1461064457806395d89b411461065a578063a5557ce01461066d578063a707c73c14610683578063a9059cbb146106b1578063ad2dccfe146106d3578063b64ce34a146106e6578063b6e57064146106f9578063b7dc761e14610712578063bc4006f514610728578063c20548ac1461073b578063c38ee2111461075a578063c48f66f21461076d578063cbb5bbbf14610780578063e17b25af1461078b578063e88f4f1f146107aa578063efbeef80146107c0578063f2fde38b146107cb578063f36014d2146107ea578063f65bd953146107fd578063f669ddaf14610810578063f6a677161461082c575b600080fd5b341561026057600080fd5b61028d7fffffffff0000000000000000000000000000000000000000000000000000000060043516610842565b604051901515815260200160405180910390f35b34156102ac57600080fd5b6102c0600160a060020a0360043516610ac9565b60405190815260200160405180910390f35b34156102dd57600080fd5b6102f4600480359060248035908101910135610adb565b60405160208082528190810183818151815260200191508051906020019080838360005b83811015610330578082015183820152602001610318565b50505050905090810190601f16801561035d5780820380516001836020036101000a031916815260200191505b509250505060405180910390f35b341561037657600080fd5b6102f4610bd1565b341561038957600080fd5b6103a0600160a060020a0360043516602435610c08565b005b34156103ad57600080fd5b6102c0610c7b565b34156103c057600080fd5b6103a0600160a060020a0360043516610c82565b34156103df57600080fd5b6103a0600160a060020a0360043581169060243516604435610cdd565b341561040757600080fd5b6102c0600435610d4d565b341561041d57600080fd5b6102c0600435610d62565b341561043357600080fd5b6103a0600160a060020a0360043516602435604435606435610d74565b6102c0600480359060248035908101910135604435610da2565b341561047557600080fd5b6103a0600435610e27565b341561048b57600080fd5b610496600435610e47565b604051600160a060020a03909116815260200160405180910390f35b34156104bd57600080fd5b6103a0600435610e62565b34156104d357600080fd5b610496600435610e82565b34156104e957600080fd5b6103a0600435610e9d565b34156104ff57600080fd5b6103a0610ecf565b341561051257600080fd5b610496600435610f25565b341561052857600080fd5b6103a0600435610f49565b341561053e57600080fd5b6102c0610f7b565b341561055157600080fd5b6102c0600160a060020a0360043516610f81565b341561057057600080fd5b6103a0600160a060020a0360043516602435610f9c565b341561059257600080fd5b6102c0600160a060020a0360043516602435610fdd565b34156105b457600080fd5b6105c8600160a060020a036004351661100b565b60405160208082528190810183818151815260200191508051906020019060200280838360005b838110156106075780820151838201526020016105ef565b505050509050019250505060405180910390f35b341561062657600080fd5b6104966110ec565b341561063957600080fd5b6102c06004356110fb565b341561064f57600080fd5b6103a060043561111a565b341561066557600080fd5b6102f461113a565b341561067857600080fd5b6103a0600435611171565b341561068e57600080fd5b610699600435611191565b60405191825260208201526040908101905180910390f35b34156106bc57600080fd5b6103a0600160a060020a03600435166024356111aa565b34156106de57600080fd5b6102c0611204565b34156106f157600080fd5b6102c061120a565b341561070457600080fd5b6103a0600435602435611210565b341561071d57600080fd5b6102c060043561129c565b341561073357600080fd5b6104966112aa565b341561074657600080fd5b6105c8600160a060020a03600435166112b9565b341561076557600080fd5b6105c861133c565b341561077857600080fd5b6103a061139a565b6103a06004356113c3565b341561079657600080fd5b6103a0600160a060020a03600435166113f0565b34156107b557600080fd5b6103a060043561141f565b6103a0600435611497565b34156107d657600080fd5b6103a0600160a060020a03600435166114c0565b34156107f557600080fd5b6102c0611517565b341561080857600080fd5b6105c861151d565b341561081b57600080fd5b6103a0600435602435604435611579565b341561083757600080fd5b61028d60043561169c565b60006040517f737570706f727473496e7465726661636528627974657334290000000000000081526019016040518091039020600160e060020a03191682600160e060020a0319161480610ac157506040517f746f6b656e4d657461646174612875696e743235362c737472696e67290000008152601d0160405180910390206040517f746f6b656e734f664f776e657228616464726573732900000000000000000000815260160160405180910390206040517f7472616e7366657246726f6d28616464726573732c616464726573732c75696e81527f7432353629000000000000000000000000000000000000000000000000000000602082015260250160405180910390206040517f7472616e7366657228616464726573732c75696e743235362900000000000000815260190160405180910390206040517f617070726f766528616464726573732c75696e74323536290000000000000000815260180160405180910390206040517f6f776e65724f662875696e743235362900000000000000000000000000000000815260100160405180910390206040517f62616c616e63654f662861646472657373290000000000000000000000000000815260120160405180910390206040517f746f74616c537570706c792829000000000000000000000000000000000000008152600d0160405180910390206040517f73796d626f6c2829000000000000000000000000000000000000000000000000815260080160405180910390206040517f6e616d652829000000000000000000000000000000000000000000000000000081526006016040518091039020181818181818181818600160e060020a03191682600160e060020a031916145b90505b919050565b60056020526000908152604090205481565b610ae3612792565b610aeb6127a4565b600954600090600160a060020a03161515610b0557600080fd5b600954600160a060020a031663cb4799f2878787600060405160a001526040517c010000000000000000000000000000000000000000000000000000000063ffffffff861602815260048101848152604060248301908152604483018490529091606401848480828437820191505094505050505060a060405180830381600087803b1515610b9357600080fd5b6102c65a03f11515610ba457600080fd5b50505060405180608001805160209091016040529092509050610bc78282611767565b9695505050505050565b60408051908101604052600e81527f43727970746f427261776c657273000000000000000000000000000000000000602082015281565b610c1233826117bc565b1515610c1d57600080fd5b610c2781836117dc565b7f8c5be1e5ebec7d5bd14f71427d1e84f3dd0314c0f7b2291e5b200ac8c7c3b925338383604051600160a060020a039384168152919092166020820152604080820192909252606001905180910390a15050565b6004545b90565b60005433600160a060020a03908116911614610c9d57600080fd5b80600160a060020a03166108fc30600160a060020a0316319081150290604051600060405180830381858888f193505050501515610cda57600080fd5b50565b600160a060020a0382161515610cf257600080fd5b30600160a060020a031682600160a060020a031614151515610d1357600080fd5b610d1d3382611817565b1515610d2857600080fd5b610d3283826117bc565b1515610d3d57600080fd5b610d48838383611837565b505050565b6000908152600b602052604090206001015490565b600d6020526000908152604090205481565b60005433600160a060020a03908116911614610d8f57600080fd5b610d9b83838387611964565b5050505050565b6000806003548034101515610e1d57610dbb33886117bc565b1515610dc657600080fd5b600254610dd285611a43565b811515610ddb57fe5b049150610e198787878080601f016020809104026020016040519081016040528181529291906020840183838082843750899450611a839350505050565b8192505b5050949350505050565b60005433600160a060020a03908116911614610e4257600080fd5b600155565b600760205260009081526040902054600160a060020a031681565b60005433600160a060020a03908116911614610e7d57600080fd5b600255565b600660205260009081526040902054600160a060020a031681565b610ea733826117bc565b1515610eb257600080fd5b610ebb81611c68565b1515610ec657600080fd5b610cda81611c7e565b60005433600160a060020a03908116911614610eea57600080fd5b600054600160a060020a039081169030163180156108fc0290604051600060405180830381858888f193505050501515610f2357600080fd5b565b600081815260066020526040902054600160a060020a0316801515610ac457600080fd5b610f5333826117bc565b1515610f5e57600080fd5b610f6781611ce6565b1515610f7257600080fd5b610cda81611cf9565b60035481565b600160a060020a031660009081526005602052604090205490565b60008054819033600160a060020a03908116911614610fba57600080fd5b610fc383611a43565b9150610fce83611a43565b9050610d9b600a838387611964565b600860205281600052604060002081815481101515610ff857fe5b6000918252602090912001549150829050565b611013612792565b6000806000611020612792565b600061102b87610f81565b945084151561105b5760006040518059106110435750595b908082528060200260200182016040525095506110e2565b60009350611067610c7b565b9250846040518059106110775750595b90808252806020026020018201604052509150600190505b8281116110de57600081815260066020526040902054600160a060020a03888116911614156110d657808285815181106110c557fe5b602090810290910101526001909301925b60010161108f565b8195505b5050505050919050565b600054600160a060020a031681565b600c80548290811061110957fe5b600091825260209091200154905081565b60005433600160a060020a0390811691161461113557600080fd5b600a55565b60408051908101604052600481527f4252574c00000000000000000000000000000000000000000000000000000000602082015281565b60005433600160a060020a0390811691161461118c57600080fd5b600355565b600b602052600090815260409020805460019091015482565b600160a060020a03821615156111bf57600080fd5b30600160a060020a031682600160a060020a0316141515156111e057600080fd5b6111ea33826117bc565b15156111f557600080fd5b611200338383611837565b5050565b600a5481565b60025481565b61121a33836117bc565b151561122557600080fd5b61122e82611ce6565b1561123857600080fd5b6000811161124557600080fd5b600c80546001810161125783826127cd565b50600091825260209091200182905560408051908101604090815283825260208083018490526000858152600b90915220815181556020820151600190910155505050565b600e80548290811061110957fe5b600954600160a060020a031681565b6112c1612792565b6008600083600160a060020a0316600160a060020a0316815260200190815260200160002080548060200260200160405190810160405280929190818152602001828054801561133057602002820191906000526020600020905b81548152602001906001019080831161131c575b50505050509050919050565b611344612792565b600c80548060200260200160405190810160405280929190818152602001828054801561139057602002820191906000526020600020905b81548152602001906001019080831161137c575b5050505050905090565b60005433600160a060020a039081169116146113b557600080fd5b600054600160a060020a0316ff5b6113cd8134611d5b565b600081815260066020526040902054610cda90600160a060020a03163383611837565b6009805473ffffffffffffffffffffffffffffffffffffffff1916600160a060020a0392909216919091179055565b61142933826117bc565b151561143457600080fd5b61143d81611c68565b1561144757600080fd5b600e80546001810161145983826127cd565b506000918252602090912001819055600480548290811061147657fe5b60009182526020808320600490920290910154928252600d90526040902055565b60035434819010611200576114ac33836117bc565b15156114b757600080fd5b61120082611e69565b60005433600160a060020a039081169116146114db57600080fd5b600160a060020a03811615610cda5760008054600160a060020a03831673ffffffffffffffffffffffffffffffffffffffff1990911617905550565b60015481565b611525612792565b600e805480602002602001604051908101604052809291908181526020018280548015611390576020028201919060005260206000209081548152602001906001019080831161137c575050505050905090565b6115816127f1565b60008061158d85611ce6565b151561159857600080fd5b6115a233876117bc565b15156115ad57600080fd5b6115b733866117bc565b156115c157600080fd5b6115cc868686611e73565b925082519150602083015190506115e281611ce6565b156115f0576115f081611cf9565b6115f982611ce6565b156116075761160782611cf9565b6000818152600660205260408082205484835291205461163491600160a060020a03908116911683611837565b60008281526006602052604090819020547f3d6738b58dc42b8b9e1018be879243c73ce97814f92f989514ded9bd5dcb4cfa91600160a060020a0390911690849051600160a060020a03909216825260208201526040908101905180910390a1505050505050565b6000806000806116ab85612003565b9250600154838115156116ba57fe5b061515611724576116ca85611a43565b91506116d585611a43565b90506116e4600a838333611964565b507f7ebb470024e5eee1d5ff9ccf7830ab34657fb753526f8a9e99c50452cc06ead56001604051901515815260200160405180910390a16001935061175f565b7f7ebb470024e5eee1d5ff9ccf7830ab34657fb753526f8a9e99c50452cc06ead56000604051901515815260200160405180910390a1600093505b505050919050565b61176f612792565b611777612792565b600080846040518059106117885750595b818152601f19601f83011681016020016040529050925050602082019050846117b282828761202f565b5090949350505050565b600090815260066020526040902054600160a060020a0391821691161490565b600091825260076020526040909120805473ffffffffffffffffffffffffffffffffffffffff1916600160a060020a03909216919091179055565b600090815260076020526040902054600160a060020a0391821691161490565b600160a060020a03821660008181526005602090815260408083208054600190810190915585845260068352818420805473ffffffffffffffffffffffffffffffffffffffff1916861790559383526008909152902080549091810161189d83826127cd565b506000918252602090912001819055600160a060020a0383161561190f576000818152600760205260409020805473ffffffffffffffffffffffffffffffffffffffff191690556118ee8382612074565b600160a060020a038316600090815260056020526040902080546000190190555b7fddf252ad1be2c89b69c2b068fc378daa952ba7f163c4a11628f55a4df523b3ef838383604051600160a060020a039384168152919092166020820152604080820192909252606001905180910390a1505050565b600061196e612817565b60006080604051908101604052808881526020018881526020018781526020018681525091506001600480548060010182816119aa9190612840565b6000928352602090922085916004020181518155602082015181600101556040820151816002015560608201516003909101555003905063ffffffff811681146119f357600080fd5b7fc07d6fc5db170f8be7da51bea7bf502fb674192c618536ee210555994694b0b78482604051600160a060020a03909216825260208201526040908101905180910390a1610bc760008583611837565b600080600a600143034084604051918252602082015260409081019051908190039020811515611a6f57fe5b069050801515611a7d575060015b92915050565b6040517f6d61784865616c746800000000000000000000000000000000000000000000008152600901604051908190039020826040518082805190602001908083835b60208310611ae55780518252601f199092019160209182019101611ac6565b6001836020036101000a03801982511681845116179092525050509190910192506040915050519081900390201415611b2857611b23838233612108565b610d48565b6040517f737472656e6774680000000000000000000000000000000000000000000000008152600801604051908190039020826040518082805190602001908083835b60208310611b8a5780518252601f199092019160209182019101611b6b565b6001836020036101000a03801982511681845116179092525050509190910192506040915050519081900390201415611bc857611b23838233612216565b6040517f73706565640000000000000000000000000000000000000000000000000000008152600501604051908190039020826040518082805190602001908083835b60208310611c2a5780518252601f199092019160209182019101611c0b565b6001836020036101000a03801982511681845116179092525050509190910192506040915050519081900390201415610d4857610d4883823361230d565b6000908152600b60205260408120600101541190565b60005b600c548110156112005781600c82815481101515611c9b57fe5b9060005260206000209001541415611cde57600c805482908110611cbb57fe5b60009182526020808320909101829055838252600b905260408120818155600101555b600101611c81565b6000908152600d60205260408120541190565b60005b600e548110156112005781600e82815481101515611d1657fe5b9060005260206000209001541415611d5357600e805482908110611d3657fe5b60009182526020808320909101829055838252600d905260408120555b600101611cfc565b6000806000611d6a33866117bc565b15611d7457600080fd5b611d7d85611c68565b1515611d8857600080fd5b6000858152600b6020526040902060010154841015611da657600080fd5b600085815260066020526040902054600160a060020a03169250611dc985611c7e565b611dd284612403565b915050808303600160a060020a03831681156108fc0282604051600060405180830381858888f193505050501515611e0957600080fd5b7f9ae15b9678dec12e7a6cf4b0046777058c2fcaf18d7868cbc354defb79981f903385876040518084600160a060020a0316600160a060020a03168152602001838152602001828152602001935050505060405180910390a15050505050565b610cda813361240f565b611e7b6127f1565b611e83612792565b611e8b612817565b611e93612817565b6004805488908110611ea157fe5b90600052602060002090600402016080604051908101604090815282548252600183015460208301526002830154908201526003909101546060820152600480549193509087908110611ef057fe5b906000526020600020906004020160806040519081016040908152825482526001830154602083015260028301548183015260039092015460608201529150820151816040015110611f9757604080519081016040528681526020810182905283600081518110611f5d57fe5b60209081029091010152604080519081016040528781526020810183905283600181518110611f8857fe5b60209081029091010152611fee565b604080519081016040528781526020810183905283600081518110611fb857fe5b60209081029091010152604080519081016040528681526020810182905283600181518110611fe357fe5b602090810290910101525b611ff883866124cf565b979650505050505050565b6000806064600143034084604051918252602082015260409081019051908190039020811515611a6f57fe5b60005b602082106120555782518452602084019350602083019250602082039150612032565b6001826020036101000a03905080198351168185511617909352505050565b60005b600160a060020a038316600090815260086020526040902054811015610d4857600160a060020a03831660009081526008602052604090208054839190839081106120be57fe5b906000526020600020900154141561210057600160a060020a03831660009081526008602052604090208054829081106120f457fe5b60009182526020822001555b600101612077565b612110612817565b600480548590811061211e57fe5b906000526020600020906004020160806040519081016040908152825482526001830154602083015260028301549082015260039091015460608201529050805181602001511415612177578281602001818151019052505b82818181510190525061218a818561272c565b7fca04611e80f005feb5aafd7553030c696e4de100604c325926807c6cbda6a7c3828585604051600160a060020a03909316835260208301919091526060820152608060408083018290526009918301919091527f6d61784865616c7468000000000000000000000000000000000000000000000060a083015260c0909101905180910390a150505050565b61221e612817565b600480548590811061222c57fe5b906000526020600020906004020160806040519081016040908152825482526001830154602083015260028301549082015260039091015460608201908152909150839081815101905250612281818561272c565b7fca04611e80f005feb5aafd7553030c696e4de100604c325926807c6cbda6a7c3828585604051600160a060020a03909316835260208301919091526060820152608060408083018290526008918301919091527f737472656e67746800000000000000000000000000000000000000000000000060a083015260c0909101905180910390a150505050565b612315612817565b600480548590811061232357fe5b9060005260206000209060040201608060405190810160409081528254825260018301546020830152600283015490820190815260039092015460608201529150839081815101905250612377818561272c565b7fca04611e80f005feb5aafd7553030c696e4de100604c325926807c6cbda6a7c3828585604051600160a060020a03909316835260208301919091526060820152608060408083018290526005918301919091527f737065656400000000000000000000000000000000000000000000000000000060a083015260c0909101905180910390a150505050565b600a5460649091040290565b612417612817565b600480548490811061242557fe5b906000526020600020906004020160806040519081016040908152825482526001830154602083015260028301549082015260039091015460608201529050805181602001511061247557600080fd5b80516020820152612486818461272c565b7fb714a55d7bb8d35d8cf25c68ae8435a49a2faaffa841fcb1303d75dbf0a905688284604051600160a060020a03909216825260208201526040908101905180910390a1505050565b6124d76127f1565b6124df6127f1565b6000806000805b6000886000815181106124f557fe5b906020019060200201516020015160200151118015612532575060008860018151811061251e57fe5b906020019060200201516020015160200151115b156126f9578760008151811061254457fe5b90602001906020020151602001516060015161255f88612775565b0293508760018151811061256f57fe5b90602001906020020151602001516040015161258a88612775565b029250828411156125be57828403886001815181106125a557fe5b9060200190602002015160200151602001818151039052505b6000886001815181106125cd57fe5b9060200190602002015160200151602001511161262057876000815181106125f157fe5b906020019060200201515185528760018151811061260b57fe5b906020019060200201515160208601526126f9565b8760018151811061262d57fe5b90602001906020020151602001516060015161264888612775565b0291508760008151811061265857fe5b90602001906020020151602001516040015161267388612775565b029050808211156126a7578082038860008151811061268e57fe5b9060200190602002015160200151602001818151039052505b6000886000815181106126b657fe5b906020019060200201516020015160200151116126f457876001815181106126da57fe5b906020019060200201515185528760008151811061260b57fe5b6124e6565b6000600460208701518154811061270c57fe5b600091825260209091206001600490920201015550929695505050505050565b8160048281548110151561273c57fe5b90600052602060002090600402016000820151815560208201518160010155604082015181600201556060820151600390910155505050565b6000600a61278283611a43565b81151561278b57fe5b0492915050565b60206040519081016040526000815290565b60806040519081016040526004815b600081526000199190910190602001816127b35790505090565b815481835581811511610d4857600083815260209020610d4891810190830161286c565b604080519081016040526002815b60008152602001906001900390816127ff5790505090565b608060405190810160405280600081526020016000815260200160008152602001600081525090565b815481835581811511610d4857600402816004028360005260206000209182019101610d48919061288a565b610c7f91905b808211156128865760008155600101612872565b5090565b610c7f91905b80821115612886576000808255600182018190556002820181905560038201556004016128905600a165627a7a72305820debec4df0849b9ea51e4c0a89e5426359fde325a04b54fe358ea47206d41ff2c0029",
  "source": "pragma solidity ^0.4.18;\n\nimport \"../fighter/FighterOwnership.sol\";\nimport \"./MarketplaceConfig.sol\";\n\ncontract Marketplace is FighterOwnership, MarketplaceConfig {\n  mapping(uint256 => Sale) public fighterIdToSale; // Storing of figher Ids against their sale Struct\n  uint256[] public fightersInMarket; // List of all figher Ids in the market\n\n  mapping(uint256 => uint256) public fighterIdToMaxHealth; // Map of fighter Ids to their max health\n  uint256[] public fightersInArena; // List of all fighter ids in the arena\n\n  event PurchaseSuccess(address buyer, uint price, uint fighterId);\n  event FightComplete(address winner, uint winnerId);\n\n  struct Combatant {\n    uint256 fighterId;\n    Fighter fighter;\n  }\n\n  struct Sale {\n    uint256 fighterId;\n    uint256 price;\n  }\n\n  function getPriceForFighter(uint _fighterId) constant external returns (uint256) {\n    return fighterIdToSale[_fighterId].price;\n  }\n\n  function getFightersForSale() constant external returns (uint[]) {\n    return fightersInMarket;\n  }\n\n  function getFightersInArena() constant external returns (uint[]) {\n    return fightersInArena;\n  }\n\n  function removeFighterFromSale(uint _fighterId) external {\n    require(_owns(msg.sender, _fighterId));\n    // Just double check we can actually remove a fighter before we go any further\n    require(_fighterIsForSale(_fighterId));\n\n    _removeFighterFromSale(_fighterId);\n  }\n\n  function removeFighterFromArena(uint _fighterId) external {\n    require(_owns(msg.sender, _fighterId));\n    // Just double check we can actually remove a fighter before we go any further\n    require(_fighterIsForBrawl(_fighterId));\n\n    _removeFighterFromArena(_fighterId);\n  }\n\n  function makeFighterAvailableForSale(uint _fighterId, uint _price) external {\n    require(_owns(msg.sender, _fighterId));\n    // Fighters can't be both for sale and open for brawling\n    require(!_fighterIsForBrawl(_fighterId));\n    require(_price > 0);\n\n    fightersInMarket.push(_fighterId);\n    fighterIdToSale[_fighterId] = Sale({ fighterId: _fighterId, price: _price });\n  }\n\n  function makeFighterAvailableForBrawl(uint _fighterId) external {\n    require(_owns(msg.sender, _fighterId));\n    // Fighters can't be both for sale and open for brawling\n    require(!_fighterIsForSale(_fighterId));\n\n    fightersInArena.push(_fighterId);\n    fighterIdToMaxHealth[_fighterId] = fighters[_fighterId].maxHealth;\n  }\n\n  function buyFighter(uint _fighterId) external payable {\n    _makePurchase(_fighterId, msg.value);\n    _transfer(fighterIdToOwner[_fighterId], msg.sender, _fighterId);\n  }\n\n  function fight(uint _attackerId, uint _defenderId, uint _seed) external {\n    // fighter actually in the arena is always the defender\n    require(_fighterIsForBrawl(_defenderId));\n    // Make sure the challenger is actually sending the transaction\n    require(_owns(msg.sender, _attackerId));\n    // Also make sure that the challenger is not attacking his own fighter\n    require(!_owns(msg.sender, _defenderId));\n\n    uint[2] memory winnerAndLoser = _determineWinner(_attackerId, _defenderId, _seed);\n    uint _winnerId = winnerAndLoser[0];\n    uint _loserId = winnerAndLoser[1];\n\n    if (_fighterIsForBrawl(_loserId)) {\n      _removeFighterFromArena(_loserId);\n    }\n\n    if (_fighterIsForBrawl(_winnerId)) {\n      _removeFighterFromArena(_winnerId);\n    }\n\n    _transfer(fighterIdToOwner[_loserId], fighterIdToOwner[_winnerId], _loserId);\n    FightComplete(fighterIdToOwner[_winnerId], _winnerId);\n  }\n\n  function _determineWinner(uint _attackerId, uint _defenderId, uint _seed) internal returns (uint[2]) {\n    Combatant[] memory orderOfCombat;\n    Fighter memory _attacker = fighters[_attackerId];\n    Fighter memory _defender = fighters[_defenderId];\n\n    if(_defender.speed >= _attacker.speed) {\n      orderOfCombat[0] = Combatant({ fighterId: _defenderId, fighter: _defender });\n      orderOfCombat[1] = Combatant({ fighterId: _attackerId, fighter: _attacker });\n    } else {\n      orderOfCombat[0] = Combatant({ fighterId: _attackerId, fighter: _attacker });\n      orderOfCombat[1] = Combatant({ fighterId: _defenderId, fighter: _defender });\n    }\n\n    return _calculateCombatOutcome(orderOfCombat, _seed);\n  }\n\n  function _calculateCombatOutcome(Combatant[] _combatants, uint _seed) internal returns (uint[2]) {\n    uint[2] memory winnerAndLoser;\n\n    while ( _combatants[0].fighter.health > 0 &&  _combatants[1].fighter.health > 0) {\n      uint _fighter1StrengthCheck = (RandomNumber.randDecimal(_seed) *  _combatants[0].fighter.strength);\n      uint _fighter2SpeedCheck = (RandomNumber.randDecimal(_seed) *  _combatants[1].fighter.speed);\n\n      if (_fighter1StrengthCheck > _fighter2SpeedCheck) {\n         _combatants[1].fighter.health -= (_fighter1StrengthCheck - _fighter2SpeedCheck);\n      }\n\n      if (_combatants[1].fighter.health <= 0) {\n        winnerAndLoser[0] =  _combatants[0].fighterId;\n        winnerAndLoser[1] =  _combatants[1].fighterId;\n        break;\n      }\n\n      uint _fighter2StrengthCheck = (RandomNumber.randDecimal(_seed) *  _combatants[1].fighter.strength);\n      uint _fighter1SpeedCheck = (RandomNumber.randDecimal(_seed) *  _combatants[0].fighter.speed);\n\n      if (_fighter2StrengthCheck > _fighter1SpeedCheck) {\n         _combatants[0].fighter.health -= (_fighter2StrengthCheck - _fighter1SpeedCheck);\n      }\n\n      if (_combatants[0].fighter.health <= 0) {\n        winnerAndLoser[0] = _combatants[1].fighterId;\n        winnerAndLoser[1] = _combatants[0].fighterId;\n        break;\n      }\n    }\n\n    // Set the losers health to 0\n    fighters[winnerAndLoser[1]].health = 0;\n    return winnerAndLoser;\n  }\n\n  function _makePurchase(uint _fighterId, uint _price) internal {\n    require(!_owns(msg.sender, _fighterId));\n    require(_fighterIsForSale(_fighterId));\n    require(_price >= fighterIdToSale[_fighterId].price);\n\n    address sellerAddress = fighterIdToOwner[_fighterId];\n    _removeFighterFromSale(_fighterId);\n\n    uint saleCut = _calculateCut(_price);\n    uint totalSale = _price - saleCut;\n    sellerAddress.transfer(totalSale);\n\n    PurchaseSuccess(msg.sender, _price, _fighterId);\n  }\n\n  function _calculateCut(uint _totalPrice) internal returns (uint) {\n    return ((_totalPrice / 100) * marketplaceCut);\n  }\n\n  function _fighterIsForSale(uint _fighterId) internal returns (bool) {\n    return (fighterIdToSale[_fighterId].price > 0);\n  }\n\n  function _fighterIsForBrawl(uint _fighterId) internal returns (bool) {\n    return (fighterIdToMaxHealth[_fighterId] > 0);\n  }\n\n  function _removeFighterFromSale(uint _fighterId) internal {\n    uint index;\n    for(index = 0; index < fightersInMarket.length; index++) {\n      if (fightersInMarket[index] == _fighterId) {\n        delete fightersInMarket[index];\n        delete fighterIdToSale[_fighterId];\n      }\n    }\n  }\n\n  function _removeFighterFromArena(uint _fighterId) internal {\n    uint index;\n    for(index = 0; index < fightersInArena.length; index++) {\n      if (fightersInArena[index] == _fighterId) {\n        delete fightersInArena[index];\n        delete fighterIdToMaxHealth[_fighterId];\n      }\n    }\n  }\n}\n",
  "sourcePath": "/Users/kendalla/projects/cryptoclash/contracts/marketplace/Marketplace.sol",
  "compiler": {
    "name": "solc",
    "version": "0.4.18+commit.9cf6e910.Emscripten.clang"
  },
  "schemaVersion": "1.0.1",
  "updatedAt": "2018-01-25T13:24:16.226Z"
}