{
  "contractName": "Marketplace",
  "abi": [
    {
      "constant": true,
      "inputs": [
        {
          "name": "_interfaceID",
          "type": "bytes4"
        }
      ],
      "name": "supportsInterface",
      "outputs": [
        {
          "name": "",
          "type": "bool"
        }
      ],
      "payable": false,
      "stateMutability": "view",
      "type": "function"
    },
    {
      "constant": true,
      "inputs": [
        {
          "name": "",
          "type": "address"
        }
      ],
      "name": "fighterCountForOwner",
      "outputs": [
        {
          "name": "",
          "type": "uint256"
        }
      ],
      "payable": false,
      "stateMutability": "view",
      "type": "function"
    },
    {
      "constant": true,
      "inputs": [
        {
          "name": "_tokenId",
          "type": "uint256"
        },
        {
          "name": "_preferredTransport",
          "type": "string"
        }
      ],
      "name": "tokenMetadata",
      "outputs": [
        {
          "name": "infoUrl",
          "type": "string"
        }
      ],
      "payable": false,
      "stateMutability": "view",
      "type": "function"
    },
    {
      "constant": true,
      "inputs": [],
      "name": "name",
      "outputs": [
        {
          "name": "",
          "type": "string"
        }
      ],
      "payable": false,
      "stateMutability": "view",
      "type": "function"
    },
    {
      "constant": false,
      "inputs": [
        {
          "name": "_to",
          "type": "address"
        },
        {
          "name": "_tokenId",
          "type": "uint256"
        }
      ],
      "name": "approve",
      "outputs": [],
      "payable": false,
      "stateMutability": "nonpayable",
      "type": "function"
    },
    {
      "constant": true,
      "inputs": [],
      "name": "totalSupply",
      "outputs": [
        {
          "name": "",
          "type": "uint256"
        }
      ],
      "payable": false,
      "stateMutability": "view",
      "type": "function"
    },
    {
      "constant": false,
      "inputs": [
        {
          "name": "_recipient",
          "type": "address"
        }
      ],
      "name": "withdrawBalanceToAddress",
      "outputs": [],
      "payable": false,
      "stateMutability": "nonpayable",
      "type": "function"
    },
    {
      "constant": false,
      "inputs": [
        {
          "name": "_from",
          "type": "address"
        },
        {
          "name": "_to",
          "type": "address"
        },
        {
          "name": "_tokenId",
          "type": "uint256"
        }
      ],
      "name": "transferFrom",
      "outputs": [],
      "payable": false,
      "stateMutability": "nonpayable",
      "type": "function"
    },
    {
      "constant": false,
      "inputs": [
        {
          "name": "_recipient",
          "type": "address"
        },
        {
          "name": "_maxHealth",
          "type": "uint256"
        },
        {
          "name": "_speed",
          "type": "uint256"
        },
        {
          "name": "_strength",
          "type": "uint256"
        },
        {
          "name": "_typeId",
          "type": "uint256"
        }
      ],
      "name": "customOwnerCreation",
      "outputs": [],
      "payable": false,
      "stateMutability": "nonpayable",
      "type": "function"
    },
    {
      "constant": false,
      "inputs": [
        {
          "name": "_fighterId",
          "type": "uint256"
        },
        {
          "name": "_attribute",
          "type": "string"
        },
        {
          "name": "_seed",
          "type": "uint256"
        }
      ],
      "name": "trainFighter",
      "outputs": [
        {
          "name": "",
          "type": "uint256"
        }
      ],
      "payable": true,
      "stateMutability": "payable",
      "type": "function"
    },
    {
      "constant": false,
      "inputs": [
        {
          "name": "newProbability",
          "type": "uint256"
        }
      ],
      "name": "setFighterCreationChance",
      "outputs": [],
      "payable": false,
      "stateMutability": "nonpayable",
      "type": "function"
    },
    {
      "constant": true,
      "inputs": [
        {
          "name": "",
          "type": "uint256"
        }
      ],
      "name": "fighterIdToApproved",
      "outputs": [
        {
          "name": "",
          "type": "address"
        }
      ],
      "payable": false,
      "stateMutability": "view",
      "type": "function"
    },
    {
      "constant": false,
      "inputs": [
        {
          "name": "newFactor",
          "type": "uint256"
        }
      ],
      "name": "setTrainingFactor",
      "outputs": [],
      "payable": false,
      "stateMutability": "nonpayable",
      "type": "function"
    },
    {
      "constant": true,
      "inputs": [
        {
          "name": "",
          "type": "uint256"
        }
      ],
      "name": "fighterIdToOwner",
      "outputs": [
        {
          "name": "",
          "type": "address"
        }
      ],
      "payable": false,
      "stateMutability": "view",
      "type": "function"
    },
    {
      "constant": true,
      "inputs": [],
      "name": "oraclizeGasLimit",
      "outputs": [
        {
          "name": "",
          "type": "uint256"
        }
      ],
      "payable": false,
      "stateMutability": "view",
      "type": "function"
    },
    {
      "constant": false,
      "inputs": [],
      "name": "withdrawBalance",
      "outputs": [],
      "payable": false,
      "stateMutability": "nonpayable",
      "type": "function"
    },
    {
      "constant": true,
      "inputs": [
        {
          "name": "_tokenId",
          "type": "uint256"
        }
      ],
      "name": "ownerOf",
      "outputs": [
        {
          "name": "owner",
          "type": "address"
        }
      ],
      "payable": false,
      "stateMutability": "view",
      "type": "function"
    },
    {
      "constant": false,
      "inputs": [
        {
          "name": "newEndpoint",
          "type": "string"
        }
      ],
      "name": "setNewCombatEndpoint",
      "outputs": [],
      "payable": false,
      "stateMutability": "nonpayable",
      "type": "function"
    },
    {
      "constant": true,
      "inputs": [],
      "name": "combatEndpoint",
      "outputs": [
        {
          "name": "",
          "type": "string"
        }
      ],
      "payable": false,
      "stateMutability": "view",
      "type": "function"
    },
    {
      "constant": true,
      "inputs": [],
      "name": "trainingCost",
      "outputs": [
        {
          "name": "",
          "type": "uint256"
        }
      ],
      "payable": false,
      "stateMutability": "view",
      "type": "function"
    },
    {
      "constant": true,
      "inputs": [
        {
          "name": "_owner",
          "type": "address"
        }
      ],
      "name": "balanceOf",
      "outputs": [
        {
          "name": "count",
          "type": "uint256"
        }
      ],
      "payable": false,
      "stateMutability": "view",
      "type": "function"
    },
    {
      "constant": false,
      "inputs": [
        {
          "name": "_recipient",
          "type": "address"
        },
        {
          "name": "_seed",
          "type": "uint256"
        }
      ],
      "name": "ownerCreation",
      "outputs": [],
      "payable": false,
      "stateMutability": "nonpayable",
      "type": "function"
    },
    {
      "constant": true,
      "inputs": [
        {
          "name": "",
          "type": "address"
        },
        {
          "name": "",
          "type": "uint256"
        }
      ],
      "name": "ownedFighters",
      "outputs": [
        {
          "name": "",
          "type": "uint256"
        }
      ],
      "payable": false,
      "stateMutability": "view",
      "type": "function"
    },
    {
      "constant": true,
      "inputs": [
        {
          "name": "_owner",
          "type": "address"
        }
      ],
      "name": "tokensOfOwner",
      "outputs": [
        {
          "name": "ownerTokens",
          "type": "uint256[]"
        }
      ],
      "payable": false,
      "stateMutability": "view",
      "type": "function"
    },
    {
      "constant": true,
      "inputs": [],
      "name": "owner",
      "outputs": [
        {
          "name": "",
          "type": "address"
        }
      ],
      "payable": false,
      "stateMutability": "view",
      "type": "function"
    },
    {
      "constant": false,
      "inputs": [
        {
          "name": "x",
          "type": "bytes32"
        }
      ],
      "name": "bytes32ToString",
      "outputs": [
        {
          "name": "",
          "type": "string"
        }
      ],
      "payable": false,
      "stateMutability": "nonpayable",
      "type": "function"
    },
    {
      "constant": false,
      "inputs": [
        {
          "name": "_newCut",
          "type": "uint256"
        }
      ],
      "name": "setNewMarketplaceCut",
      "outputs": [],
      "payable": false,
      "stateMutability": "nonpayable",
      "type": "function"
    },
    {
      "constant": true,
      "inputs": [],
      "name": "symbol",
      "outputs": [
        {
          "name": "",
          "type": "string"
        }
      ],
      "payable": false,
      "stateMutability": "view",
      "type": "function"
    },
    {
      "constant": true,
      "inputs": [
        {
          "name": "",
          "type": "uint256"
        }
      ],
      "name": "fighterIdToBrawl",
      "outputs": [
        {
          "name": "",
          "type": "uint256"
        }
      ],
      "payable": false,
      "stateMutability": "view",
      "type": "function"
    },
    {
      "constant": false,
      "inputs": [
        {
          "name": "newCost",
          "type": "uint256"
        }
      ],
      "name": "setNewTrainingCost",
      "outputs": [],
      "payable": false,
      "stateMutability": "nonpayable",
      "type": "function"
    },
    {
      "constant": true,
      "inputs": [
        {
          "name": "",
          "type": "uint256"
        }
      ],
      "name": "fighterIdToSale",
      "outputs": [
        {
          "name": "fighterId",
          "type": "uint256"
        },
        {
          "name": "price",
          "type": "uint256"
        }
      ],
      "payable": false,
      "stateMutability": "view",
      "type": "function"
    },
    {
      "constant": false,
      "inputs": [
        {
          "name": "_to",
          "type": "address"
        },
        {
          "name": "_tokenId",
          "type": "uint256"
        }
      ],
      "name": "transfer",
      "outputs": [],
      "payable": false,
      "stateMutability": "nonpayable",
      "type": "function"
    },
    {
      "constant": true,
      "inputs": [],
      "name": "marketplaceCut",
      "outputs": [
        {
          "name": "",
          "type": "uint256"
        }
      ],
      "payable": false,
      "stateMutability": "view",
      "type": "function"
    },
    {
      "constant": true,
      "inputs": [],
      "name": "trainingFactor",
      "outputs": [
        {
          "name": "",
          "type": "uint256"
        }
      ],
      "payable": false,
      "stateMutability": "view",
      "type": "function"
    },
    {
      "constant": true,
      "inputs": [],
      "name": "erc721Metadata",
      "outputs": [
        {
          "name": "",
          "type": "address"
        }
      ],
      "payable": false,
      "stateMutability": "view",
      "type": "function"
    },
    {
      "constant": false,
      "inputs": [
        {
          "name": "_owner",
          "type": "address"
        }
      ],
      "name": "getFightersForAddress",
      "outputs": [
        {
          "name": "",
          "type": "uint256[]"
        }
      ],
      "payable": false,
      "stateMutability": "nonpayable",
      "type": "function"
    },
    {
      "constant": false,
      "inputs": [],
      "name": "killConract",
      "outputs": [],
      "payable": false,
      "stateMutability": "nonpayable",
      "type": "function"
    },
    {
      "constant": false,
      "inputs": [
        {
          "name": "newGas",
          "type": "uint256"
        }
      ],
      "name": "setNewOraclizeGasLimit",
      "outputs": [],
      "payable": false,
      "stateMutability": "nonpayable",
      "type": "function"
    },
    {
      "constant": false,
      "inputs": [
        {
          "name": "newCost",
          "type": "uint256"
        }
      ],
      "name": "setNewArenaCost",
      "outputs": [],
      "payable": false,
      "stateMutability": "nonpayable",
      "type": "function"
    },
    {
      "constant": true,
      "inputs": [
        {
          "name": "",
          "type": "uint256"
        }
      ],
      "name": "fighterTypes",
      "outputs": [
        {
          "name": "",
          "type": "string"
        }
      ],
      "payable": false,
      "stateMutability": "view",
      "type": "function"
    },
    {
      "constant": false,
      "inputs": [
        {
          "name": "_contractAddress",
          "type": "address"
        }
      ],
      "name": "setMetadataAddress",
      "outputs": [],
      "payable": false,
      "stateMutability": "nonpayable",
      "type": "function"
    },
    {
      "constant": true,
      "inputs": [],
      "name": "arenaCost",
      "outputs": [
        {
          "name": "",
          "type": "uint256"
        }
      ],
      "payable": false,
      "stateMutability": "view",
      "type": "function"
    },
    {
      "constant": false,
      "inputs": [
        {
          "name": "_fighterId",
          "type": "uint256"
        }
      ],
      "name": "healFighter",
      "outputs": [],
      "payable": true,
      "stateMutability": "payable",
      "type": "function"
    },
    {
      "constant": false,
      "inputs": [
        {
          "name": "newOwner",
          "type": "address"
        }
      ],
      "name": "transferOwnership",
      "outputs": [],
      "payable": false,
      "stateMutability": "nonpayable",
      "type": "function"
    },
    {
      "constant": true,
      "inputs": [],
      "name": "chanceOfFighterCreation",
      "outputs": [
        {
          "name": "",
          "type": "uint256"
        }
      ],
      "payable": false,
      "stateMutability": "view",
      "type": "function"
    },
    {
      "constant": false,
      "inputs": [
        {
          "name": "_seed",
          "type": "uint256"
        }
      ],
      "name": "searchForFighter",
      "outputs": [
        {
          "name": "fighterFound",
          "type": "bool"
        }
      ],
      "payable": false,
      "stateMutability": "nonpayable",
      "type": "function"
    },
    {
      "anonymous": false,
      "inputs": [
        {
          "indexed": false,
          "name": "buyer",
          "type": "address"
        },
        {
          "indexed": false,
          "name": "price",
          "type": "uint256"
        },
        {
          "indexed": false,
          "name": "fighterId",
          "type": "uint256"
        },
        {
          "indexed": false,
          "name": "seller",
          "type": "address"
        }
      ],
      "name": "PurchaseSuccess",
      "type": "event"
    },
    {
      "anonymous": false,
      "inputs": [
        {
          "indexed": false,
          "name": "winner",
          "type": "address"
        },
        {
          "indexed": false,
          "name": "winnerId",
          "type": "uint256"
        },
        {
          "indexed": false,
          "name": "loser",
          "type": "address"
        },
        {
          "indexed": false,
          "name": "loserId",
          "type": "uint256"
        },
        {
          "indexed": false,
          "name": "fighterInArena",
          "type": "uint256"
        }
      ],
      "name": "FightComplete",
      "type": "event"
    },
    {
      "anonymous": false,
      "inputs": [
        {
          "indexed": false,
          "name": "owner",
          "type": "address"
        },
        {
          "indexed": false,
          "name": "fighterId",
          "type": "uint256"
        }
      ],
      "name": "MarketplaceRemoval",
      "type": "event"
    },
    {
      "anonymous": false,
      "inputs": [
        {
          "indexed": false,
          "name": "owner",
          "type": "address"
        },
        {
          "indexed": false,
          "name": "fighterId",
          "type": "uint256"
        }
      ],
      "name": "ArenaRemoval",
      "type": "event"
    },
    {
      "anonymous": false,
      "inputs": [
        {
          "indexed": false,
          "name": "owner",
          "type": "address"
        },
        {
          "indexed": false,
          "name": "fighterId",
          "type": "uint256"
        },
        {
          "indexed": false,
          "name": "price",
          "type": "uint256"
        }
      ],
      "name": "MarketplaceAdd",
      "type": "event"
    },
    {
      "anonymous": false,
      "inputs": [
        {
          "indexed": false,
          "name": "owner",
          "type": "address"
        },
        {
          "indexed": false,
          "name": "fighterId",
          "type": "uint256"
        }
      ],
      "name": "ArenaAdd",
      "type": "event"
    },
    {
      "anonymous": false,
      "inputs": [
        {
          "indexed": false,
          "name": "_string",
          "type": "string"
        }
      ],
      "name": "Test",
      "type": "event"
    },
    {
      "anonymous": false,
      "inputs": [
        {
          "indexed": false,
          "name": "from",
          "type": "address"
        },
        {
          "indexed": false,
          "name": "to",
          "type": "address"
        },
        {
          "indexed": false,
          "name": "tokenId",
          "type": "uint256"
        }
      ],
      "name": "Transfer",
      "type": "event"
    },
    {
      "anonymous": false,
      "inputs": [
        {
          "indexed": false,
          "name": "owner",
          "type": "address"
        },
        {
          "indexed": false,
          "name": "approved",
          "type": "address"
        },
        {
          "indexed": false,
          "name": "tokenId",
          "type": "uint256"
        }
      ],
      "name": "Approval",
      "type": "event"
    },
    {
      "anonymous": false,
      "inputs": [
        {
          "indexed": false,
          "name": "_keccak1",
          "type": "bytes32"
        },
        {
          "indexed": false,
          "name": "_keccak2",
          "type": "bytes32"
        }
      ],
      "name": "Test",
      "type": "event"
    },
    {
      "anonymous": false,
      "inputs": [
        {
          "indexed": false,
          "name": "owner",
          "type": "address"
        },
        {
          "indexed": false,
          "name": "fighterId",
          "type": "uint256"
        },
        {
          "indexed": false,
          "name": "maxHealth",
          "type": "uint256"
        },
        {
          "indexed": false,
          "name": "speed",
          "type": "uint256"
        },
        {
          "indexed": false,
          "name": "strength",
          "type": "uint256"
        },
        {
          "indexed": false,
          "name": "fighterType",
          "type": "string"
        }
      ],
      "name": "Creation",
      "type": "event"
    },
    {
      "anonymous": false,
      "inputs": [
        {
          "indexed": false,
          "name": "owner",
          "type": "address"
        },
        {
          "indexed": false,
          "name": "fighterId",
          "type": "uint256"
        },
        {
          "indexed": false,
          "name": "attribute",
          "type": "string"
        },
        {
          "indexed": false,
          "name": "increaseValue",
          "type": "uint256"
        }
      ],
      "name": "AttributeIncrease",
      "type": "event"
    },
    {
      "anonymous": false,
      "inputs": [
        {
          "indexed": false,
          "name": "owner",
          "type": "address"
        },
        {
          "indexed": false,
          "name": "fighterId",
          "type": "uint256"
        },
        {
          "indexed": false,
          "name": "maxHealth",
          "type": "uint256"
        }
      ],
      "name": "Healed",
      "type": "event"
    },
    {
      "anonymous": false,
      "inputs": [
        {
          "indexed": false,
          "name": "fighterWasFound",
          "type": "bool"
        },
        {
          "indexed": false,
          "name": "owner",
          "type": "address"
        },
        {
          "indexed": false,
          "name": "fighterId",
          "type": "uint256"
        }
      ],
      "name": "FighterFound",
      "type": "event"
    },
    {
      "constant": true,
      "inputs": [
        {
          "name": "_fighterId",
          "type": "uint256"
        }
      ],
      "name": "getPriceForFighter",
      "outputs": [
        {
          "name": "",
          "type": "uint256"
        }
      ],
      "payable": false,
      "stateMutability": "view",
      "type": "function"
    },
    {
      "constant": false,
      "inputs": [
        {
          "name": "_fighterId",
          "type": "uint256"
        }
      ],
      "name": "removeFighterFromSale",
      "outputs": [],
      "payable": false,
      "stateMutability": "nonpayable",
      "type": "function"
    },
    {
      "constant": false,
      "inputs": [
        {
          "name": "_fighterId",
          "type": "uint256"
        }
      ],
      "name": "removeFighterFromArena",
      "outputs": [],
      "payable": false,
      "stateMutability": "nonpayable",
      "type": "function"
    },
    {
      "constant": false,
      "inputs": [
        {
          "name": "_fighterId",
          "type": "uint256"
        },
        {
          "name": "_price",
          "type": "uint256"
        }
      ],
      "name": "makeFighterAvailableForSale",
      "outputs": [],
      "payable": false,
      "stateMutability": "nonpayable",
      "type": "function"
    },
    {
      "constant": false,
      "inputs": [
        {
          "name": "_fighterId",
          "type": "uint256"
        }
      ],
      "name": "makeFighterAvailableForBrawl",
      "outputs": [],
      "payable": false,
      "stateMutability": "nonpayable",
      "type": "function"
    },
    {
      "constant": false,
      "inputs": [
        {
          "name": "_fighterId",
          "type": "uint256"
        }
      ],
      "name": "buyFighter",
      "outputs": [],
      "payable": true,
      "stateMutability": "payable",
      "type": "function"
    },
    {
      "constant": false,
      "inputs": [
        {
          "name": "queryId",
          "type": "bytes32"
        },
        {
          "name": "result",
          "type": "string"
        }
      ],
      "name": "__callback",
      "outputs": [],
      "payable": false,
      "stateMutability": "nonpayable",
      "type": "function"
    },
    {
      "constant": false,
      "inputs": [
        {
          "name": "myid",
          "type": "bytes32"
        },
        {
          "name": "result",
          "type": "string"
        },
        {
          "name": "proof",
          "type": "bytes"
        }
      ],
      "name": "__callback",
      "outputs": [],
      "payable": false,
      "stateMutability": "nonpayable",
      "type": "function"
    },
    {
      "constant": false,
      "inputs": [
        {
          "name": "_attackerId",
          "type": "uint256"
        },
        {
          "name": "_defenderId",
          "type": "uint256"
        }
      ],
      "name": "fight",
      "outputs": [],
      "payable": true,
      "stateMutability": "payable",
      "type": "function"
    }
  ],
  "bytecode": "0x6060604052600360015560036002556611c37937e08000600355662386f26fc100006004556005600d55608060405190810160405280604381526020017f68747470733a2f2f72696e6b656279627261776c6261636b656e642e6865726f81526020017f6b756170702e636f6d2f6170692f6172656e612f63616c63756c61746557696e81526020017f6e65720000000000000000000000000000000000000000000000000000000000815250600e908051620000c1929160200190620000ea565b50620b71b0600f5560008054600160a060020a03191633600160a060020a03161790556200018f565b828054600181600116156101000203166002900490600052602060002090601f016020900481019282601f106200012d57805160ff19168380011785556200015d565b828001600101855582156200015d579182015b828111156200015d57825182559160200191906001019062000140565b506200016b9291506200016f565b5090565b6200018c91905b808211156200016b576000815560010162000176565b90565b6140f6806200019f6000396000f3006060604052600436106102795763ffffffff60e060020a60003504166301ffc9a7811461027e578063027f48f7146102ca5780630560ff44146102fb57806306fdde0314610394578063095ea7b3146103a757806318160ddd146103cb5780631ba21011146103de57806323b872dd146103fd578063241860aa1461042557806327dc297e1461043b5780632b1a8d461461049157806338bbfa50146104bc5780633f40d2881461055457806340e4e0481461056e57806344e59ee914610584578063495ac3a8146105b65780634b193933146105cc57806350b9c428146105e257806354c3bfa1146105f55780635fd8c7101461060b5780636352211e1461061e578063641e3aae14610634578063656aa88a1461064a5780636bbd3c9714610668578063701a19fd1461067b57806370a082311461068e5780638053e5d8146106ad5780638357b8dd146106cf5780638462151c146106f15780638da5cb5b146107635780639201de5514610776578063920b4a2d1461078c57806395d89b41146107a2578063a2df64df146107b5578063a5557ce0146107cb578063a707c73c146107e1578063a9059cbb1461080f578063ad2dccfe14610831578063b64ce34a14610844578063b6e5706414610857578063bc4006f514610870578063c20548ac14610883578063c48f66f2146108a2578063c7cffa0f146108b5578063ca39e5ef146108cb578063cbb5bbbf146108d9578063d004cad4146108e4578063d9861dab146108fa578063e17b25af14610910578063e88f4f1f1461092f578063ea9b50c514610945578063efbeef8014610958578063f2fde38b14610963578063f36014d214610982578063f6a6771614610995575b600080fd5b341561028957600080fd5b6102b67fffffffff00000000000000000000000000000000000000000000000000000000600435166109ab565b604051901515815260200160405180910390f35b34156102d557600080fd5b6102e9600160a060020a0360043516610c32565b60405190815260200160405180910390f35b341561030657600080fd5b61031d600480359060248035908101910135610c44565b60405160208082528190810183818151815260200191508051906020019080838360005b83811015610359578082015183820152602001610341565b50505050905090810190601f1680156103865780820380516001836020036101000a031916815260200191505b509250505060405180910390f35b341561039f57600080fd5b61031d610d21565b34156103b257600080fd5b6103c9600160a060020a0360043516602435610d58565b005b34156103d657600080fd5b6102e9610dcb565b34156103e957600080fd5b6103c9600160a060020a0360043516610dd2565b341561040857600080fd5b6103c9600160a060020a0360043581169060243516604435610e2d565b341561043057600080fd5b6102e9600435610e9d565b341561044657600080fd5b6103c9600480359060446024803590810190830135806020601f82018190048102016040519081016040528181529291906020840183838082843750949650610eb295505050505050565b341561049c57600080fd5b6103c9600160a060020a03600435166024356044356064356084356110de565b34156104c757600080fd5b6103c9600480359060446024803590810190830135806020601f8201819004810201604051908101604052818152929190602084018383808284378201915050505050509190803590602001908201803590602001908080601f016020809104026020016040519081016040528181529291906020840183838082843750949650610e9895505050505050565b6102e96004803590602480359081019101356044356111c0565b341561057957600080fd5b6103c9600435611251565b341561058f57600080fd5b61059a600435611271565b604051600160a060020a03909116815260200160405180910390f35b34156105c157600080fd5b6103c960043561128c565b34156105d757600080fd5b61059a6004356112ac565b34156105ed57600080fd5b6102e96112c7565b341561060057600080fd5b6103c96004356112cd565b341561061657600080fd5b6103c9611346565b341561062957600080fd5b61059a60043561139c565b341561063f57600080fd5b6103c96004356113c0565b341561065557600080fd5b6103c96004803560248101910135611439565b341561067357600080fd5b61031d611460565b341561068657600080fd5b6102e96114fe565b341561069957600080fd5b6102e9600160a060020a0360043516611504565b34156106b857600080fd5b6103c9600160a060020a036004351660243561151f565b34156106da57600080fd5b6102e9600160a060020a0360043516602435611580565b34156106fc57600080fd5b610710600160a060020a03600435166115ae565b60405160208082528190810183818151815260200191508051906020019060200280838360005b8381101561074f578082015183820152602001610737565b505050509050019250505060405180910390f35b341561076e57600080fd5b61059a61168f565b341561078157600080fd5b61031d60043561169e565b341561079757600080fd5b6103c96004356117dc565b34156107ad57600080fd5b61031d6117fc565b34156107c057600080fd5b6102e9600435611833565b34156107d657600080fd5b6103c9600435611845565b34156107ec57600080fd5b6107f7600435611865565b60405191825260208201526040908101905180910390f35b341561081a57600080fd5b6103c9600160a060020a036004351660243561187e565b341561083c57600080fd5b6102e96118d8565b341561084f57600080fd5b6102e96118de565b341561086257600080fd5b6103c96004356024356118e4565b341561087b57600080fd5b61059a6119a8565b341561088e57600080fd5b610710600160a060020a03600435166119b7565b34156108ad57600080fd5b6103c9611a3a565b34156108c057600080fd5b6103c9600435611a63565b6103c9600435602435611a83565b6103c9600435611cb7565b34156108ef57600080fd5b6103c9600435611ce4565b341561090557600080fd5b61031d600435611d04565b341561091b57600080fd5b6103c9600160a060020a0360043516611d8c565b341561093a57600080fd5b6103c9600435611dae565b341561095057600080fd5b6102e9611e44565b6103c9600435611e4a565b341561096e57600080fd5b6103c9600160a060020a0360043516611e73565b341561098d57600080fd5b6102e9611ebd565b34156109a057600080fd5b6102b6600435611ec3565b60006040517f737570706f727473496e7465726661636528627974657334290000000000000081526019016040518091039020600160e060020a03191682600160e060020a0319161480610c2a57506040517f746f6b656e4d657461646174612875696e743235362c737472696e67290000008152601d0160405180910390206040517f746f6b656e734f664f776e657228616464726573732900000000000000000000815260160160405180910390206040517f7472616e7366657246726f6d28616464726573732c616464726573732c75696e81527f7432353629000000000000000000000000000000000000000000000000000000602082015260250160405180910390206040517f7472616e7366657228616464726573732c75696e743235362900000000000000815260190160405180910390206040517f617070726f766528616464726573732c75696e74323536290000000000000000815260180160405180910390206040517f6f776e65724f662875696e743235362900000000000000000000000000000000815260100160405180910390206040517f62616c616e63654f662861646472657373290000000000000000000000000000815260120160405180910390206040517f746f74616c537570706c792829000000000000000000000000000000000000008152600d0160405180910390206040517f73796d626f6c2829000000000000000000000000000000000000000000000000815260080160405180910390206040517f6e616d652829000000000000000000000000000000000000000000000000000081526006016040518091039020181818181818181818600160e060020a03191682600160e060020a031916145b90505b919050565b60066020526000908152604090205481565b610c4c613e3b565b610c54613e4d565b600c54600090600160a060020a03161515610c6e57600080fd5b600c54600160a060020a031663cb4799f2878787600060405160a0015260405160e060020a63ffffffff861602815260048101848152604060248301908152604483018490529091606401848480828437820191505094505050505060a060405180830381600087803b1515610ce357600080fd5b6102c65a03f11515610cf457600080fd5b50505060405180608001805160209091016040529092509050610d178282611fe9565b9695505050505050565b60408051908101604052600e81527f43727970746f427261776c657273000000000000000000000000000000000000602082015281565b610d62338261203e565b1515610d6d57600080fd5b610d77818361205e565b7f8c5be1e5ebec7d5bd14f71427d1e84f3dd0314c0f7b2291e5b200ac8c7c3b925338383604051600160a060020a039384168152919092166020820152604080820192909252606001905180910390a15050565b6005545b90565b60005433600160a060020a03908116911614610ded57600080fd5b80600160a060020a03166108fc30600160a060020a0316319081150290604051600060405180830381858888f193505050501515610e2a57600080fd5b50565b600160a060020a0382161515610e4257600080fd5b30600160a060020a031682600160a060020a031614151515610e6357600080fd5b610e6d338261208c565b1515610e7857600080fd5b610e82838261203e565b1515610e8d57600080fd5b610e988383836120ac565b505050565b60009081526015602052604090206001015490565b600080600080610ec06121bf565b600160a060020a031633600160a060020a0316141515610edf57600080fd5b610f2360408051908101604052600181527f2d000000000000000000000000000000000000000000000000000000000000006020820152869063ffffffff61235f16565b9350610fe0846000815481101515610f3757fe5b90600052602060002090018054600181600116156101000203166002900480601f016020809104026020016040519081016040528092919081815260200182805460018160011615610100020316600290048015610fd65780601f10610fab57610100808354040283529160200191610fd6565b820191906000526020600020905b815481529060010190602001808311610fb957829003601f168201915b5050505050612482565b9250610ff4846001815481101515610f3757fe5b9150610fff8361248f565b156110145761100d836124a2565b508161101f565b508061101f816124a2565b6000828152600760205260408082205485835291205461104c91600160a060020a039081169116846120ac565b6000838152600760205260408082205484835291819020547f0974ab4622ebebd6fc59c871455d5554bfc6cb8da267f947006c5f5c4f747f6092600160a060020a03908116928792909116908690869051600160a060020a0395861681526020810194909452919093166040808401919091526060830193909352608082015260a001905180910390a1505050505050565b60005433600160a060020a039081169116146110f957600080fd5b6111b884848488600a8681548110151561110f57fe5b90600052602060002090018054600181600116156101000203166002900480601f0160208091040260200160405190810160405280929190818152602001828054600181600116156101000203166002900480156111ae5780601f10611183576101008083540402835291602001916111ae565b820191906000526020600020905b81548152906001019060200180831161119157829003601f168201915b50505050506124b3565b505050505050565b6000806003548034101515611247576111d9338861203e565b15156111e457600080fd5b6002546111f08561264d565b8115156111f957fe5b04915081151561120857600191505b6112438787878080601f01602080910402602001604051908101604052818152929190602084018383808284375089945061268e9350505050565b8192505b5050949350505050565b60005433600160a060020a0390811691161461126c57600080fd5b600155565b600860205260009081526040902054600160a060020a031681565b60005433600160a060020a039081169116146112a757600080fd5b600255565b600760205260009081526040902054600160a060020a031681565b600f5481565b6112d7338261203e565b15156112e257600080fd5b6112eb81612873565b15156112f657600080fd5b6112ff81612889565b7f3e808687755674bf6703cb65acce9b7da494797511c241a38e74134813273be23382604051600160a060020a03909216825260208201526040908101905180910390a150565b60005433600160a060020a0390811691161461136157600080fd5b600054600160a060020a039081169030163180156108fc0290604051600060405180830381858888f19350505050151561139a57600080fd5b565b600081815260076020526040902054600160a060020a0316801515610c2d57600080fd5b6113ca338261203e565b15156113d557600080fd5b6113de8161248f565b15156113e957600080fd5b6113f2816124a2565b7fb3fefaad4d5eb17c447489e1529238e4f44c82b4f99284ca82969e1bfbb8e8c53382604051600160a060020a03909216825260208201526040908101905180910390a150565b60005433600160a060020a0390811691161461145457600080fd5b610e98600e8383613e76565b600e8054600181600116156101000203166002900480601f0160208091040260200160405190810160405280929190818152602001828054600181600116156101000203166002900480156114f65780601f106114cb576101008083540402835291602001916114f6565b820191906000526020600020905b8154815290600101906020018083116114d957829003601f168201915b505050505081565b60035481565b600160a060020a031660009081526006602052604090205490565b600080548190819033600160a060020a0390811691161461153f57600080fd5b6115488461264d565b92506115538361264d565b9150611567846001600a80549050036128a0565b90506111b8600a848488600a8681548110151561110f57fe5b60096020528160005260406000208181548110151561159b57fe5b6000918252602090912001549150829050565b6115b6613e3b565b60008060006115c3613e3b565b60006115ce87611504565b94508415156115fe5760006040518059106115e65750595b90808252806020026020018201604052509550611685565b6000935061160a610dcb565b92508460405180591061161a5750595b90808252806020026020018201604052509150600190505b82811161168157600081815260076020526040902054600160a060020a0388811691161415611679578082858151811061166857fe5b602090810290910101526001909301925b600101611632565b8195505b5050505050919050565b600054600160a060020a031681565b6116a6613e3b565b6116ae613e3b565b60008060006116bb613e3b565b60206040518059106116ca5750595b818152601f19601f83011681016020016040529050945060009350600092505b602083101561175d576008830260020a870291507fff00000000000000000000000000000000000000000000000000000000000000821615611752578185858151811061173357fe5b906020010190600160f860020a031916908160001a9053506001909301925b6001909201916116ea565b8360405180591061176b5750595b818152601f19601f830116810160200160405290509050600092505b83831015610d175784838151811061179b57fe5b016020015160f860020a900460f860020a028184815181106117b957fe5b906020010190600160f860020a031916908160001a905350600190920191611787565b60005433600160a060020a039081169116146117f757600080fd5b600d55565b60408051908101604052600481527f4252574c00000000000000000000000000000000000000000000000000000000602082015281565b60166020526000908152604090205481565b60005433600160a060020a0390811691161461186057600080fd5b600355565b6015602052600090815260409020805460019091015482565b600160a060020a038216151561189357600080fd5b30600160a060020a031682600160a060020a0316141515156118b457600080fd5b6118be338261203e565b15156118c957600080fd5b6118d43383836120ac565b5050565b600d5481565b60025481565b6118ee338361203e565b15156118f957600080fd5b6119028261248f565b1561190c57600080fd5b6000811161191957600080fd5b60408051908101604090815283825260208083018490526000858152601590915220815181556020820151600190910155507f9eaf5a44f033adc048686ca80e281b74f25fb52e998dd7f8e6812721383ae88a3383836040518084600160a060020a0316600160a060020a03168152602001838152602001828152602001935050505060405180910390a15050565b600c54600160a060020a031681565b6119bf613e3b565b6009600083600160a060020a0316600160a060020a03168152602001908152602001600020805480602002602001604051908101604052809291908181526020018280548015611a2e57602002820191906000526020600020905b815481526020019060010190808311611a1a575b50505050509050919050565b60005433600160a060020a03908116911614611a5557600080fd5b600054600160a060020a0316ff5b60005433600160a060020a03908116911614611a7e57600080fd5b600f55565b611a8b613e3b565b611a93613e3b565b60045434819010611cb057611aa78461248f565b1515611ab257600080fd5b611abc338661203e565b1515611ac757600080fd5b611ad1338561203e565b15611adb57600080fd5b611b5d60408051908101604052600a81527f2f61747461636b65722f000000000000000000000000000000000000000000006020820152611b1b876128d2565b60408051908101604052600a81527f2f646566656e6465722f000000000000000000000000000000000000000000006020820152611b58886128d2565b6129c6565b9250611c6d6040805190810160405280600581526020017f6a736f6e28000000000000000000000000000000000000000000000000000000815250600e8054600181600116156101000203166002900480601f016020809104026020016040519081016040528092919081815260200182805460018160011615610100020316600290048015611c2e5780601f10611c0357610100808354040283529160200191611c2e565b820191906000526020600020905b815481529060010190602001808311611c1157829003601f168201915b50505050508560408051908101604052600f81527f292e6f7574636f6d65537472696e67000000000000000000000000000000000060208201526129c6565b91506111b860408051908101604052600381527f55524c00000000000000000000000000000000000000000000000000000000006020820152600f5484906129f2565b5050505050565b611cc18134612d78565b600081815260076020526040902054610e2a90600160a060020a031633836120ac565b60005433600160a060020a03908116911614611cff57600080fd5b600455565b600a805482908110611d1257fe5b90600052602060002090016000915090508054600181600116156101000203166002900480601f0160208091040260200160405190810160405280929190818152602001828054600181600116156101000203166002900480156114f65780601f106114cb576101008083540402835291602001916114f6565b600c8054600160a060020a031916600160a060020a0392909216919091179055565b611db8338261203e565b1515611dc357600080fd5b611dcc81612873565b15611dd657600080fd5b611ddf8161248f565b15611de957600080fd5b600081815260166020526040908190208290557ffd493e9e8a025ff7f65e924f394f7f1c3804e6114587e73b05e393385823ae5f903390839051600160a060020a03909216825260208201526040908101905180910390a150565b60045481565b600354348190106118d457611e5f338361203e565b1515611e6a57600080fd5b6118d482612e85565b60005433600160a060020a03908116911614611e8e57600080fd5b600160a060020a03811615610e2a5760008054600160a060020a038316600160a060020a031990911617905550565b60015481565b600080600080600080611ed587612e8f565b945060015485811515611ee457fe5b061515611f8957611ef48761264d565b9350611eff8461264d565b9250611f13876001600a80549050036128a0565b9150611f2c600a858533600a8781548110151561110f57fe5b90507f9bd510de0dcc8d26bfd35e5e1bad5c406154844b85cde0690dfa7881e481de76600133836040519215158352600160a060020a0390911660208301526040808301919091526060909101905180910390a160019550611685565b7f9bd510de0dcc8d26bfd35e5e1bad5c406154844b85cde0690dfa7881e481de7660003360006040519215158352600160a060020a0390911660208301526040808301919091526060909101905180910390a15060009695505050505050565b611ff1613e3b565b611ff9613e3b565b6000808460405180591061200a5750595b818152601f19601f8301168101602001604052905092505060208201905084612034828287612ebb565b5090949350505050565b600090815260076020526040902054600160a060020a0391821691161490565b6000918252600860205260409091208054600160a060020a031916600160a060020a03909216919091179055565b600090815260086020526040902054600160a060020a0391821691161490565b600160a060020a038216600081815260066020908152604080832080546001908101909155858452600783528184208054600160a060020a03191686179055938352600990915290208054909181016121058382613ef4565b506000918252602090912001819055600160a060020a0383161561216a5760008181526008602052604090208054600160a060020a03191690556121498382612f00565b600160a060020a038316600090815260066020526040902080546000190190555b7fddf252ad1be2c89b69c2b068fc378daa952ba7f163c4a11628f55a4df523b3ef838383604051600160a060020a039384168152919092166020820152604080820192909252606001905180910390a1505050565b601054600090600160a060020a031615806121ec57506010546121ea90600160a060020a0316612f94565b155b156121fd576121fb6000612f98565b505b601054600160a060020a03166338cc48316000604051602001526040518163ffffffff1660e060020a028152600401602060405180830381600087803b151561224557600080fd5b6102c65a03f1151561225657600080fd5b5050506040518051601154600160a060020a0390811691161490506122f857601054600160a060020a03166338cc48316000604051602001526040518163ffffffff1660e060020a028152600401602060405180830381600087803b15156122bd57600080fd5b6102c65a03f115156122ce57600080fd5b505050604051805160118054600160a060020a031916600160a060020a0392909216919091179055505b601154600160a060020a031663c281d19e6000604051602001526040518163ffffffff1660e060020a028152600401602060405180830381600087803b151561234057600080fd5b6102c65a03f1151561235157600080fd5b505050604051805191505090565b6000612369613e3b565b600080612374613e3b565b61237c613e3b565b600080899650600095505b60018751038610156124755761239e8a8a88612fa2565b94508460001914156123af57865194505b8585036040518059106123bf5750595b818152601f19601f830116810160200160405290509350839250600091508590505b84811015612439578681815181106123f557fe5b016020015160f860020a900460f860020a0283838060010194508151811061241957fe5b906020010190600160f860020a031916908160001a9053506001016123e1565b8460010195508780548060010182816124529190613f18565b600092835260209092200184805161246e929160200190613f3c565b5050612387565b5050505050505092915050565b6000610c2a826000613049565b6000908152601660205260408120541190565b600090815260166020526040812055565b60006124bd613faa565b600060a0604051908101604052808981526020018981526020018881526020018781526020018581525091506001600580548060010182816124ff9190613fdf565b600092835260209092208591600502018151815560208201518160010155604082015181600201556060820151816003015560808201518160040190805161254b929160200190613f3c565b50505003905063ffffffff8116811461256357600080fd5b7faf9d5de903d3c24be3b2973b79ee3eefd1b8aada3d46baf60ee9f0d086b75fb985828a8a8a896040518087600160a060020a0316600160a060020a0316815260200186815260200185815260200184815260200183815260200180602001828103825283818151815260200191508051906020019080838360005b838110156125f75780820151838201526020016125df565b50505050905090810190601f1680156126245780820380516001836020036101000a031916815260200191505b5097505050505050505060405180910390a1612642600086836120ac565b979650505050505050565b600080600a60014303408460405191825260208201526040908101905190819003902081151561267957fe5b06905060008111612688575060015b92915050565b6040517f6d61784865616c746800000000000000000000000000000000000000000000008152600901604051908190039020826040518082805190602001908083835b602083106126f05780518252601f1990920191602091820191016126d1565b6001836020036101000a038019825116818451161790925250505091909101925060409150505190819003902014156127335761272e8382336131b7565b610e98565b6040517f737472656e6774680000000000000000000000000000000000000000000000008152600801604051908190039020826040518082805190602001908083835b602083106127955780518252601f199092019160209182019101612776565b6001836020036101000a038019825116818451161790925250505091909101925060409150505190819003902014156127d35761272e83823361336f565b6040517f73706565640000000000000000000000000000000000000000000000000000008152600501604051908190039020826040518082805190602001908083835b602083106128355780518252601f199092019160209182019101612816565b6001836020036101000a03801982511681845116179092525050509190910192506040915050519081900390201415610e9857610e9883823361350d565b6000908152601560205260408120600101541190565b600090815260156020526040812081815560010155565b6000816001430340846040519182526020820152604090810190519081900390208115156128ca57fe5b069392505050565b6128da613e3b565b6000806128e5613e3b565b60008515156129295760408051908101604052600181527f3000000000000000000000000000000000000000000000000000000000000000602082015294506129bd565b8593505b831561294457600190920191600a8404935061292d565b826040518059106129525750595b818152601f19601f8301168101602001604052905091505060001982015b85156129b95760001981019060f860020a6030600a890601029083908151811061299657fe5b906020010190600160f860020a031916908160001a905350600a86049550612970565b8194505b50505050919050565b6129ce613e3b565b6129e9858585856020604051908101604052600081526136ab565b95945050505050565b6010546000908190600160a060020a03161580612a215750601054612a1f90600160a060020a0316612f94565b155b15612a3257612a306000612f98565b505b601054600160a060020a03166338cc48316000604051602001526040518163ffffffff1660e060020a028152600401602060405180830381600087803b1515612a7a57600080fd5b6102c65a03f11515612a8b57600080fd5b5050506040518051601154600160a060020a039081169116149050612b2d57601054600160a060020a03166338cc48316000604051602001526040518163ffffffff1660e060020a028152600401602060405180830381600087803b1515612af257600080fd5b6102c65a03f11515612b0357600080fd5b505050604051805160118054600160a060020a031916600160a060020a0392909216919091179055505b601154600160a060020a0316632ef3accc86856000604051602001526040518363ffffffff1660e060020a0281526004018080602001838152602001828103825284818151815260200191508051906020019080838360005b83811015612b9e578082015183820152602001612b86565b50505050905090810190601f168015612bcb5780820380516001836020036101000a031916815260200191505b509350505050602060405180830381600087803b1515612bea57600080fd5b6102c65a03f11515612bfb57600080fd5b5050506040518051915050670de0b6b3a76400003a840201811115612c235760009150612d70565b601154600160a060020a031663c51be90f82600088888883604051602001526040518663ffffffff1660e060020a028152600401808581526020018060200180602001848152602001838103835286818151815260200191508051906020019080838360005b83811015612ca1578082015183820152602001612c89565b50505050905090810190601f168015612cce5780820380516001836020036101000a031916815260200191505b50838103825285818151815260200191508051906020019080838360005b83811015612d04578082015183820152602001612cec565b50505050905090810190601f168015612d315780820380516001836020036101000a031916815260200191505b5096505050505050506020604051808303818588803b1515612d5257600080fd5b6125ee5a03f11515612d6357600080fd5b5050505060405180519250505b509392505050565b6000806000612d87338661203e565b15612d9157600080fd5b612d9a85612873565b1515612da557600080fd5b600085815260156020526040902060010154841015612dc357600080fd5b600085815260076020526040902054600160a060020a03169250612de685612889565b612def8461391b565b915050808303600160a060020a03831681156108fc0282604051600060405180830381858888f193505050501515612e2657600080fd5b7f4750c394c3222df02b322dd8f4ee23c0025975134406b18d35ab7c9c1bb41ac233858786604051600160a060020a03948516815260208101939093526040808401929092529092166060820152608001905180910390a15050505050565b610e2a8133613927565b600080606460014303408460405191825260208201526040908101905190819003902081151561267957fe5b60005b60208210612ee15782518452602084019350602083019250602082039150612ebe565b6001826020036101000a03905080198351168185511617909352505050565b60005b600160a060020a038316600090815260096020526040902054811015610e9857600160a060020a0383166000908152600960205260409020805483919083908110612f4a57fe5b9060005260206000209001541415612f8c57600160a060020a0383166000908152600960205260409020805482908110612f8057fe5b60009182526020822001555b600101612f03565b3b90565b6000610c2a613aa7565b6000612fac613e3b565b612fb4613e3b565b508490508360008151600114612fc657fe5b50835b82518110156130395781600081518110612fdf57fe5b016020015160f860020a900460f860020a02600160f860020a03191683828151811061300757fe5b016020015160f860020a900460f860020a02600160f860020a03191614156130315780935061303f565b600101612fc9565b60001993505b5050509392505050565b6000613053613e3b565b5082600080805b835181101561319a577f300000000000000000000000000000000000000000000000000000000000000084828151811061309057fe5b016020015160f860020a900460f860020a02600160f860020a0319161015801561310157507f39000000000000000000000000000000000000000000000000000000000000008482815181106130e257fe5b016020015160f860020a900460f860020a02600160f860020a03191611155b15613157578115613120578515156131185761319a565b600019909501945b600a83029250603084828151811061313457fe5b016020015160f860020a900460f860020a0260f860020a90040383019250613192565b83818151811061316357fe5b016020015160f860020a900460f860020a02600160f860020a031916602e60f860020a02141561319257600191505b60010161305a565b60008611156131ac5785600a0a830292505b509095945050505050565b6131bf613faa565b60058054859081106131cd57fe5b906000526020600020906005020160a0604051908101604052908160008201548152602001600182015481526020016002820154815260200160038201548152602001600482018054600181600116156101000203166002900480601f0160208091040260200160405190810160405280929190818152602001828054600181600116156101000203166002900480156132a85780601f1061327d576101008083540402835291602001916132a8565b820191906000526020600020905b81548152906001019060200180831161328b57829003601f168201915b50505050508152505090508060000151816020015114156132d0578281602001818151019052505b8281818151019052506132e38185613dcb565b7fca04611e80f005feb5aafd7553030c696e4de100604c325926807c6cbda6a7c3828585604051600160a060020a03909316835260208301919091526060820152608060408083018290526009918301919091527f6d61784865616c7468000000000000000000000000000000000000000000000060a083015260c0909101905180910390a150505050565b613377613faa565b600580548590811061338557fe5b906000526020600020906005020160a0604051908101604052908160008201548152602001600182015481526020016002820154815260200160038201548152602001600482018054600181600116156101000203166002900480601f0160208091040260200160405190810160405280929190818152602001828054600181600116156101000203166002900480156134605780601f1061343557610100808354040283529160200191613460565b820191906000526020600020905b81548152906001019060200180831161344357829003601f168201915b50505050508152505090508281606001818151019052506134818185613dcb565b7fca04611e80f005feb5aafd7553030c696e4de100604c325926807c6cbda6a7c3828585604051600160a060020a03909316835260208301919091526060820152608060408083018290526008918301919091527f737472656e67746800000000000000000000000000000000000000000000000060a083015260c0909101905180910390a150505050565b613515613faa565b600580548590811061352357fe5b906000526020600020906005020160a0604051908101604052908160008201548152602001600182015481526020016002820154815260200160038201548152602001600482018054600181600116156101000203166002900480601f0160208091040260200160405190810160405280929190818152602001828054600181600116156101000203166002900480156135fe5780601f106135d3576101008083540402835291602001916135fe565b820191906000526020600020905b8154815290600101906020018083116135e157829003601f168201915b505050505081525050905082816040018181510190525061361f8185613dcb565b7fca04611e80f005feb5aafd7553030c696e4de100604c325926807c6cbda6a7c3828585604051600160a060020a03909316835260208301919091526060820152608060408083018290526005918301919091527f737065656400000000000000000000000000000000000000000000000000000060a083015260c0909101905180910390a150505050565b6136b3613e3b565b6136bb613e3b565b6136c3613e3b565b6136cb613e3b565b6136d3613e3b565b6136db613e3b565b6136e3613e3b565b6136eb613e3b565b6000808e98508d97508c96508b95508a94508451865188518a518c51010101016040518059106137185750595b818152601f19601f83011681016020016040529050935083925060009150600090505b88518110156137945788818151811061375057fe5b016020015160f860020a900460f860020a0283838060010194508151811061377457fe5b906020010190600160f860020a031916908160001a90535060010161373b565b5060005b87518110156137f1578781815181106137ad57fe5b016020015160f860020a900460f860020a028383806001019450815181106137d157fe5b906020010190600160f860020a031916908160001a905350600101613798565b5060005b865181101561384e5786818151811061380a57fe5b016020015160f860020a900460f860020a0283838060010194508151811061382e57fe5b906020010190600160f860020a031916908160001a9053506001016137f5565b5060005b85518110156138ab5785818151811061386757fe5b016020015160f860020a900460f860020a0283838060010194508151811061388b57fe5b906020010190600160f860020a031916908160001a905350600101613852565b5060005b8451811015613908578481815181106138c457fe5b016020015160f860020a900460f860020a028383806001019450815181106138e857fe5b906020010190600160f860020a031916908160001a9053506001016138af565b50909d9c50505050505050505050505050565b600d5460649091040290565b61392f613faa565b600580548490811061393d57fe5b906000526020600020906005020160a0604051908101604052908160008201548152602001600182015481526020016002820154815260200160038201548152602001600482018054600181600116156101000203166002900480601f016020809104026020016040519081016040528092919081815260200182805460018160011615610100020316600290048015613a185780601f106139ed57610100808354040283529160200191613a18565b820191906000526020600020905b8154815290600101906020018083116139fb57829003601f168201915b50505050508152505090508060000151816020015110613a3757600080fd5b80516020820152613a488184613dcb565b7f99ac7da70b5c6f1d34e05f1b47107fb3b9a1c1542028d0ad8e86c959568629ed828483516040518084600160a060020a0316600160a060020a03168152602001838152602001828152602001935050505060405180910390a1505050565b600080613ac7731d3b2638a7cc9f2cb3d298a3da7a90b67e5506ed612f94565b1115613b375760108054600160a060020a031916731d3b2638a7cc9f2cb3d298a3da7a90b67e5506ed179055613b2f60408051908101604052600b81527f6574685f6d61696e6e65740000000000000000000000000000000000000000006020820152613e28565b506001610dcf565b6000613b5673c03a2615d5efaf5f49f60b7bb6583eaec212fdf1612f94565b1115613bbe5760108054600160a060020a03191673c03a2615d5efaf5f49f60b7bb6583eaec212fdf1179055613b2f60408051908101604052600c81527f6574685f726f707374656e3300000000000000000000000000000000000000006020820152613e28565b6000613bdd73b7a07bcf2ba2f2703b24c0691b5278999c59ac7e612f94565b1115613c455760108054600160a060020a03191673b7a07bcf2ba2f2703b24c0691b5278999c59ac7e179055613b2f60408051908101604052600981527f6574685f6b6f76616e00000000000000000000000000000000000000000000006020820152613e28565b6000613c6473146500cfd35b22e4a392fe0adc06de1a1368ed48612f94565b1115613ccc5760108054600160a060020a03191673146500cfd35b22e4a392fe0adc06de1a1368ed48179055613b2f60408051908101604052600b81527f6574685f72696e6b6562790000000000000000000000000000000000000000006020820152613e28565b6000613ceb736f485c8bf6fc43ea212e93bbf8ce046c7f1cb475612f94565b1115613d1f575060108054600160a060020a031916736f485c8bf6fc43ea212e93bbf8ce046c7f1cb4751790556001610dcf565b6000613d3e7320e12a1f859b3feae5fb2a0a32c18f5a65555bbf612f94565b1115613d72575060108054600160a060020a0319167320e12a1f859b3feae5fb2a0a32c18f5a65555bbf1790556001610dcf565b6000613d917351efaf4c8b3c9afbd5ab9f4bbc82784ab6ef8faa612f94565b1115613dc5575060108054600160a060020a0319167351efaf4c8b3c9afbd5ab9f4bbc82784ab6ef8faa1790556001610dcf565b50600090565b81600582815481101515613ddb57fe5b906000526020600020906005020160008201518155602082015181600101556040820151816002015560608201518160030155608082015181600401908051611cb0929160200190613f3c565b60128180516118d4929160200190613f3c565b60206040519081016040526000815290565b60806040519081016040526004815b60008152600019919091019060200181613e5c5790505090565b828054600181600116156101000203166002900490600052602060002090601f016020900481019282601f10613eb75782800160ff19823516178555613ee4565b82800160010185558215613ee4579182015b82811115613ee4578235825591602001919060010190613ec9565b50613ef092915061400b565b5090565b815481835581811511610e9857600083815260209020610e9891810190830161400b565b815481835581811511610e9857600083815260209020610e98918101908301614025565b828054600181600116156101000203166002900490600052602060002090601f016020900481019282601f10613f7d57805160ff1916838001178555613ee4565b82800160010185558215613ee4579182015b82811115613ee4578251825591602001919060010190613f8f565b60a06040519081016040528060008152602001600081526020016000815260200160008152602001613fda613e3b565b905290565b815481835581811511610e9857600502816005028360005260206000209182019101610e989190614048565b610dcf91905b80821115613ef05760008155600101614011565b610dcf91905b80821115613ef057600061403f8282614086565b5060010161402b565b610dcf91905b80821115613ef057600080825560018201819055600282018190556003820181905561407d6004830182614086565b5060050161404e565b50805460018160011615610100020316600290046000825580601f106140ac5750610e2a565b601f016020900490600052602060002090810190610e2a919061400b5600a165627a7a7230582003b2a62896a05106955df7040ca5c442b81794dd96c049037b5af9260d7c3c010029",
  "source": "pragma solidity ^0.4.18;\n\nimport \"../fighter/FighterOwnership.sol\";\nimport \"./MarketplaceConfig.sol\";\nimport \"../lib/usingOraclize.sol\";\nimport \"../lib/Strings.sol\";\n\ncontract Marketplace is FighterOwnership, MarketplaceConfig, usingOraclize {\n  mapping(uint256 => Sale) public fighterIdToSale; // Storing of figher Ids against their sale Struct\n  mapping(uint256 => uint256) public fighterIdToBrawl; // Map of fighter Ids to their max health\n\n  event PurchaseSuccess(address buyer, uint price, uint fighterId, address seller);\n  event FightComplete(address winner, uint winnerId, address loser, uint loserId, uint fighterInArena);\n\n  event MarketplaceRemoval(address owner, uint fighterId);\n  event ArenaRemoval(address owner, uint fighterId);\n\n  event MarketplaceAdd(address owner, uint fighterId, uint price);\n  event ArenaAdd(address owner, uint fighterId);\n\n  event Test(string _string);\n\n  using Strings for string;\n\n  struct Combatant {\n    uint256 fighterId;\n    Fighter fighter;\n    uint256 damageModifier;\n  }\n\n  struct Sale {\n    uint256 fighterId;\n    uint256 price;\n  }\n\n  function getPriceForFighter(uint _fighterId) constant external returns (uint256) {\n    return fighterIdToSale[_fighterId].price;\n  }\n\n  function removeFighterFromSale(uint _fighterId) external {\n    require(_owns(msg.sender, _fighterId));\n    // Just double check we can actually remove a fighter before we go any further\n    require(_fighterIsForSale(_fighterId));\n\n    _removeFighterFromSale(_fighterId);\n    MarketplaceRemoval(msg.sender, _fighterId);\n  }\n\n  function removeFighterFromArena(uint _fighterId) external {\n    require(_owns(msg.sender, _fighterId));\n    // Just double check we can actually remove a fighter before we go any further\n    require(_fighterIsForBrawl(_fighterId));\n\n    _removeFighterFromArena(_fighterId);\n    ArenaRemoval(msg.sender, _fighterId);\n  }\n\n  function makeFighterAvailableForSale(uint _fighterId, uint _price) external {\n    require(_owns(msg.sender, _fighterId));\n    // Fighters can't be both for sale and open for brawling\n    require(!_fighterIsForBrawl(_fighterId));\n    require(_price > 0);\n\n    fighterIdToSale[_fighterId] = Sale({ fighterId: _fighterId, price: _price });\n    MarketplaceAdd(msg.sender, _fighterId, _price);\n  }\n\n  function makeFighterAvailableForBrawl(uint _fighterId) external {\n    require(_owns(msg.sender, _fighterId));\n    // Fighters can't be both for sale and open for brawling\n    require(!_fighterIsForSale(_fighterId));\n    // We don't want fighters being added twice\n    require(!_fighterIsForBrawl(_fighterId));\n\n    fighterIdToBrawl[_fighterId] = _fighterId;\n    ArenaAdd(msg.sender, _fighterId);\n  }\n\n  function buyFighter(uint _fighterId) external payable {\n    _makePurchase(_fighterId, msg.value);\n    _transfer(fighterIdToOwner[_fighterId], msg.sender, _fighterId);\n  }\n\n  function __callback(bytes32 queryId, string result) {\n    require(msg.sender == oraclize_cbAddress());\n\n    string[] storage resultStringArray = result.split(\"-\");\n    uint _winnerId = parseInt(resultStringArray[0]);\n    uint _loserId = parseInt(resultStringArray[1]);\n    uint _fighterInArena;\n\n    if (_fighterIsForBrawl(_winnerId)) {\n      _removeFighterFromArena(_winnerId);\n      _fighterInArena = _winnerId;\n    } else {\n      _fighterInArena = _loserId;\n      _removeFighterFromArena(_loserId);\n    }\n\n    _transfer(fighterIdToOwner[_loserId], fighterIdToOwner[_winnerId], _loserId);\n    FightComplete(fighterIdToOwner[_winnerId], _winnerId, fighterIdToOwner[_loserId], _loserId, _fighterInArena);\n  }\n\n  function fight(uint _attackerId, uint _defenderId) external payable costs(arenaCost) {\n    // fighter actually in the arena is always the defender\n    require(_fighterIsForBrawl(_defenderId));\n    // Make sure the challenger is actually sending the transaction\n    require(_owns(msg.sender, _attackerId));\n    // Also make sure that the challenger is not attacking his own fighter\n    require(!_owns(msg.sender, _defenderId));\n\n    string memory urlQuery = strConcat(\"/attacker/\", uint2str(_attackerId), \"/defender/\", uint2str(_defenderId));\n    string memory fullUrl = strConcat(\"json(\", combatEndpoint, urlQuery, \").outcomeString\");\n\n    oraclize_query(\"URL\", fullUrl, oraclizeGasLimit);\n  }\n\n  function _makePurchase(uint _fighterId, uint _price) internal {\n    require(!_owns(msg.sender, _fighterId));\n    require(_fighterIsForSale(_fighterId));\n    require(_price >= fighterIdToSale[_fighterId].price);\n\n    address sellerAddress = fighterIdToOwner[_fighterId];\n    _removeFighterFromSale(_fighterId);\n\n    uint saleCut = _calculateCut(_price);\n    uint totalSale = _price - saleCut;\n    sellerAddress.transfer(totalSale);\n\n    PurchaseSuccess(msg.sender, _price, _fighterId, sellerAddress);\n  }\n\n  function _calculateCut(uint _totalPrice) internal returns (uint) {\n    return ((_totalPrice / 100) * marketplaceCut);\n  }\n\n  function _fighterIsForSale(uint _fighterId) internal returns (bool) {\n    return (fighterIdToSale[_fighterId].price > 0);\n  }\n\n  function _fighterIsForBrawl(uint _fighterId) internal returns (bool) {\n    return (fighterIdToBrawl[_fighterId] > 0);\n  }\n\n  function _removeFighterFromSale(uint _fighterId) internal {\n    delete fighterIdToSale[_fighterId];\n  }\n\n  function _removeFighterFromArena(uint _fighterId) internal {\n    delete fighterIdToBrawl[_fighterId];\n  }\n}\n",
  "sourcePath": "/Users/Aaron/Projects/cryptoclash/contracts/marketplace/Marketplace.sol",
  "compiler": {
    "name": "solc",
    "version": "0.4.19+commit.c4cbbb05.Emscripten.clang"
  },
  "schemaVersion": "1.0.1",
  "updatedAt": "2018-04-16T19:58:19.949Z"
}