{
  "contractName": "Marketplace",
  "abi": [
    {
      "constant": true,
      "inputs": [
        {
          "name": "_interfaceID",
          "type": "bytes4"
        }
      ],
      "name": "supportsInterface",
      "outputs": [
        {
          "name": "",
          "type": "bool"
        }
      ],
      "payable": false,
      "stateMutability": "view",
      "type": "function"
    },
    {
      "constant": true,
      "inputs": [
        {
          "name": "",
          "type": "address"
        }
      ],
      "name": "fighterCountForOwner",
      "outputs": [
        {
          "name": "",
          "type": "uint256"
        }
      ],
      "payable": false,
      "stateMutability": "view",
      "type": "function"
    },
    {
      "constant": true,
      "inputs": [
        {
          "name": "_tokenId",
          "type": "uint256"
        },
        {
          "name": "_preferredTransport",
          "type": "string"
        }
      ],
      "name": "tokenMetadata",
      "outputs": [
        {
          "name": "infoUrl",
          "type": "string"
        }
      ],
      "payable": false,
      "stateMutability": "view",
      "type": "function"
    },
    {
      "constant": true,
      "inputs": [],
      "name": "name",
      "outputs": [
        {
          "name": "",
          "type": "string"
        }
      ],
      "payable": false,
      "stateMutability": "view",
      "type": "function"
    },
    {
      "constant": false,
      "inputs": [
        {
          "name": "_to",
          "type": "address"
        },
        {
          "name": "_tokenId",
          "type": "uint256"
        }
      ],
      "name": "approve",
      "outputs": [],
      "payable": false,
      "stateMutability": "nonpayable",
      "type": "function"
    },
    {
      "constant": true,
      "inputs": [
        {
          "name": "str",
          "type": "string"
        },
        {
          "name": "delimiter",
          "type": "string"
        }
      ],
      "name": "splitStr",
      "outputs": [
        {
          "name": "",
          "type": "uint256[]"
        }
      ],
      "payable": false,
      "stateMutability": "view",
      "type": "function"
    },
    {
      "constant": true,
      "inputs": [],
      "name": "totalSupply",
      "outputs": [
        {
          "name": "",
          "type": "uint256"
        }
      ],
      "payable": false,
      "stateMutability": "view",
      "type": "function"
    },
    {
      "constant": false,
      "inputs": [
        {
          "name": "_recipient",
          "type": "address"
        }
      ],
      "name": "withdrawBalanceToAddress",
      "outputs": [],
      "payable": false,
      "stateMutability": "nonpayable",
      "type": "function"
    },
    {
      "constant": false,
      "inputs": [
        {
          "name": "_from",
          "type": "address"
        },
        {
          "name": "_to",
          "type": "address"
        },
        {
          "name": "_tokenId",
          "type": "uint256"
        }
      ],
      "name": "transferFrom",
      "outputs": [],
      "payable": false,
      "stateMutability": "nonpayable",
      "type": "function"
    },
    {
      "constant": false,
      "inputs": [
        {
          "name": "_recipient",
          "type": "address"
        },
        {
          "name": "_maxHealth",
          "type": "uint256"
        },
        {
          "name": "_speed",
          "type": "uint256"
        },
        {
          "name": "_strength",
          "type": "uint256"
        },
        {
          "name": "_typeId",
          "type": "uint256"
        }
      ],
      "name": "customOwnerCreation",
      "outputs": [],
      "payable": false,
      "stateMutability": "nonpayable",
      "type": "function"
    },
    {
      "constant": false,
      "inputs": [
        {
          "name": "_fighterId",
          "type": "uint256"
        },
        {
          "name": "_attribute",
          "type": "string"
        },
        {
          "name": "_seed",
          "type": "uint256"
        }
      ],
      "name": "trainFighter",
      "outputs": [
        {
          "name": "",
          "type": "uint256"
        }
      ],
      "payable": true,
      "stateMutability": "payable",
      "type": "function"
    },
    {
      "constant": false,
      "inputs": [
        {
          "name": "newProbability",
          "type": "uint256"
        }
      ],
      "name": "setFighterCreationChance",
      "outputs": [],
      "payable": false,
      "stateMutability": "nonpayable",
      "type": "function"
    },
    {
      "constant": true,
      "inputs": [
        {
          "name": "",
          "type": "uint256"
        }
      ],
      "name": "fighterIdToApproved",
      "outputs": [
        {
          "name": "",
          "type": "address"
        }
      ],
      "payable": false,
      "stateMutability": "view",
      "type": "function"
    },
    {
      "constant": false,
      "inputs": [
        {
          "name": "newFactor",
          "type": "uint256"
        }
      ],
      "name": "setTrainingFactor",
      "outputs": [],
      "payable": false,
      "stateMutability": "nonpayable",
      "type": "function"
    },
    {
      "constant": true,
      "inputs": [
        {
          "name": "",
          "type": "uint256"
        }
      ],
      "name": "fighterIdToOwner",
      "outputs": [
        {
          "name": "",
          "type": "address"
        }
      ],
      "payable": false,
      "stateMutability": "view",
      "type": "function"
    },
    {
      "constant": true,
      "inputs": [],
      "name": "oraclizeGasLimit",
      "outputs": [
        {
          "name": "",
          "type": "uint256"
        }
      ],
      "payable": false,
      "stateMutability": "view",
      "type": "function"
    },
    {
      "constant": false,
      "inputs": [],
      "name": "withdrawBalance",
      "outputs": [],
      "payable": false,
      "stateMutability": "nonpayable",
      "type": "function"
    },
    {
      "constant": true,
      "inputs": [
        {
          "name": "_tokenId",
          "type": "uint256"
        }
      ],
      "name": "ownerOf",
      "outputs": [
        {
          "name": "owner",
          "type": "address"
        }
      ],
      "payable": false,
      "stateMutability": "view",
      "type": "function"
    },
    {
      "constant": false,
      "inputs": [
        {
          "name": "newEndpoint",
          "type": "string"
        }
      ],
      "name": "setNewCombatEndpoint",
      "outputs": [],
      "payable": false,
      "stateMutability": "nonpayable",
      "type": "function"
    },
    {
      "constant": true,
      "inputs": [],
      "name": "combatEndpoint",
      "outputs": [
        {
          "name": "",
          "type": "string"
        }
      ],
      "payable": false,
      "stateMutability": "view",
      "type": "function"
    },
    {
      "constant": true,
      "inputs": [],
      "name": "trainingCost",
      "outputs": [
        {
          "name": "",
          "type": "uint256"
        }
      ],
      "payable": false,
      "stateMutability": "view",
      "type": "function"
    },
    {
      "constant": true,
      "inputs": [
        {
          "name": "_owner",
          "type": "address"
        }
      ],
      "name": "balanceOf",
      "outputs": [
        {
          "name": "count",
          "type": "uint256"
        }
      ],
      "payable": false,
      "stateMutability": "view",
      "type": "function"
    },
    {
      "constant": false,
      "inputs": [
        {
          "name": "_recipient",
          "type": "address"
        },
        {
          "name": "_seed",
          "type": "uint256"
        }
      ],
      "name": "ownerCreation",
      "outputs": [],
      "payable": false,
      "stateMutability": "nonpayable",
      "type": "function"
    },
    {
      "constant": true,
      "inputs": [
        {
          "name": "",
          "type": "address"
        },
        {
          "name": "",
          "type": "uint256"
        }
      ],
      "name": "ownedFighters",
      "outputs": [
        {
          "name": "",
          "type": "uint256"
        }
      ],
      "payable": false,
      "stateMutability": "view",
      "type": "function"
    },
    {
      "constant": true,
      "inputs": [
        {
          "name": "_owner",
          "type": "address"
        }
      ],
      "name": "tokensOfOwner",
      "outputs": [
        {
          "name": "ownerTokens",
          "type": "uint256[]"
        }
      ],
      "payable": false,
      "stateMutability": "view",
      "type": "function"
    },
    {
      "constant": true,
      "inputs": [],
      "name": "owner",
      "outputs": [
        {
          "name": "",
          "type": "address"
        }
      ],
      "payable": false,
      "stateMutability": "view",
      "type": "function"
    },
    {
      "constant": false,
      "inputs": [
        {
          "name": "x",
          "type": "bytes32"
        }
      ],
      "name": "bytes32ToString",
      "outputs": [
        {
          "name": "",
          "type": "string"
        }
      ],
      "payable": false,
      "stateMutability": "nonpayable",
      "type": "function"
    },
    {
      "constant": false,
      "inputs": [
        {
          "name": "_newCut",
          "type": "uint256"
        }
      ],
      "name": "setNewMarketplaceCut",
      "outputs": [],
      "payable": false,
      "stateMutability": "nonpayable",
      "type": "function"
    },
    {
      "constant": true,
      "inputs": [],
      "name": "symbol",
      "outputs": [
        {
          "name": "",
          "type": "string"
        }
      ],
      "payable": false,
      "stateMutability": "view",
      "type": "function"
    },
    {
      "constant": true,
      "inputs": [
        {
          "name": "",
          "type": "uint256"
        }
      ],
      "name": "fighterIdToBrawl",
      "outputs": [
        {
          "name": "",
          "type": "uint256"
        }
      ],
      "payable": false,
      "stateMutability": "view",
      "type": "function"
    },
    {
      "constant": false,
      "inputs": [
        {
          "name": "newCost",
          "type": "uint256"
        }
      ],
      "name": "setNewTrainingCost",
      "outputs": [],
      "payable": false,
      "stateMutability": "nonpayable",
      "type": "function"
    },
    {
      "constant": true,
      "inputs": [
        {
          "name": "",
          "type": "uint256"
        }
      ],
      "name": "fighterIdToSale",
      "outputs": [
        {
          "name": "fighterId",
          "type": "uint256"
        },
        {
          "name": "price",
          "type": "uint256"
        }
      ],
      "payable": false,
      "stateMutability": "view",
      "type": "function"
    },
    {
      "constant": false,
      "inputs": [
        {
          "name": "_to",
          "type": "address"
        },
        {
          "name": "_tokenId",
          "type": "uint256"
        }
      ],
      "name": "transfer",
      "outputs": [],
      "payable": false,
      "stateMutability": "nonpayable",
      "type": "function"
    },
    {
      "constant": true,
      "inputs": [],
      "name": "marketplaceCut",
      "outputs": [
        {
          "name": "",
          "type": "uint256"
        }
      ],
      "payable": false,
      "stateMutability": "view",
      "type": "function"
    },
    {
      "constant": true,
      "inputs": [],
      "name": "trainingFactor",
      "outputs": [
        {
          "name": "",
          "type": "uint256"
        }
      ],
      "payable": false,
      "stateMutability": "view",
      "type": "function"
    },
    {
      "constant": true,
      "inputs": [],
      "name": "erc721Metadata",
      "outputs": [
        {
          "name": "",
          "type": "address"
        }
      ],
      "payable": false,
      "stateMutability": "view",
      "type": "function"
    },
    {
      "constant": false,
      "inputs": [
        {
          "name": "_owner",
          "type": "address"
        }
      ],
      "name": "getFightersForAddress",
      "outputs": [
        {
          "name": "",
          "type": "uint256[]"
        }
      ],
      "payable": false,
      "stateMutability": "nonpayable",
      "type": "function"
    },
    {
      "constant": false,
      "inputs": [],
      "name": "killConract",
      "outputs": [],
      "payable": false,
      "stateMutability": "nonpayable",
      "type": "function"
    },
    {
      "constant": false,
      "inputs": [
        {
          "name": "newGas",
          "type": "uint256"
        }
      ],
      "name": "setNewOraclizeGasLimit",
      "outputs": [],
      "payable": false,
      "stateMutability": "nonpayable",
      "type": "function"
    },
    {
      "constant": false,
      "inputs": [
        {
          "name": "newCost",
          "type": "uint256"
        }
      ],
      "name": "setNewArenaCost",
      "outputs": [],
      "payable": false,
      "stateMutability": "nonpayable",
      "type": "function"
    },
    {
      "constant": true,
      "inputs": [
        {
          "name": "",
          "type": "uint256"
        }
      ],
      "name": "fighterTypes",
      "outputs": [
        {
          "name": "",
          "type": "string"
        }
      ],
      "payable": false,
      "stateMutability": "view",
      "type": "function"
    },
    {
      "constant": false,
      "inputs": [
        {
          "name": "_contractAddress",
          "type": "address"
        }
      ],
      "name": "setMetadataAddress",
      "outputs": [],
      "payable": false,
      "stateMutability": "nonpayable",
      "type": "function"
    },
    {
      "constant": true,
      "inputs": [],
      "name": "arenaCost",
      "outputs": [
        {
          "name": "",
          "type": "uint256"
        }
      ],
      "payable": false,
      "stateMutability": "view",
      "type": "function"
    },
    {
      "constant": false,
      "inputs": [
        {
          "name": "_fighterId",
          "type": "uint256"
        }
      ],
      "name": "healFighter",
      "outputs": [],
      "payable": true,
      "stateMutability": "payable",
      "type": "function"
    },
    {
      "constant": false,
      "inputs": [
        {
          "name": "newOwner",
          "type": "address"
        }
      ],
      "name": "transferOwnership",
      "outputs": [],
      "payable": false,
      "stateMutability": "nonpayable",
      "type": "function"
    },
    {
      "constant": true,
      "inputs": [],
      "name": "chanceOfFighterCreation",
      "outputs": [
        {
          "name": "",
          "type": "uint256"
        }
      ],
      "payable": false,
      "stateMutability": "view",
      "type": "function"
    },
    {
      "constant": false,
      "inputs": [
        {
          "name": "_seed",
          "type": "uint256"
        }
      ],
      "name": "searchForFighter",
      "outputs": [
        {
          "name": "fighterFound",
          "type": "bool"
        }
      ],
      "payable": false,
      "stateMutability": "nonpayable",
      "type": "function"
    },
    {
      "anonymous": false,
      "inputs": [
        {
          "indexed": false,
          "name": "buyer",
          "type": "address"
        },
        {
          "indexed": false,
          "name": "price",
          "type": "uint256"
        },
        {
          "indexed": false,
          "name": "fighterId",
          "type": "uint256"
        },
        {
          "indexed": false,
          "name": "seller",
          "type": "address"
        }
      ],
      "name": "PurchaseSuccess",
      "type": "event"
    },
    {
      "anonymous": false,
      "inputs": [
        {
          "indexed": false,
          "name": "winner",
          "type": "address"
        },
        {
          "indexed": false,
          "name": "winnerId",
          "type": "uint256"
        },
        {
          "indexed": false,
          "name": "loser",
          "type": "address"
        },
        {
          "indexed": false,
          "name": "loserId",
          "type": "uint256"
        },
        {
          "indexed": false,
          "name": "fighterInArena",
          "type": "uint256"
        }
      ],
      "name": "FightComplete",
      "type": "event"
    },
    {
      "anonymous": false,
      "inputs": [
        {
          "indexed": false,
          "name": "owner",
          "type": "address"
        },
        {
          "indexed": false,
          "name": "fighterId",
          "type": "uint256"
        }
      ],
      "name": "MarketplaceRemoval",
      "type": "event"
    },
    {
      "anonymous": false,
      "inputs": [
        {
          "indexed": false,
          "name": "owner",
          "type": "address"
        },
        {
          "indexed": false,
          "name": "fighterId",
          "type": "uint256"
        }
      ],
      "name": "ArenaRemoval",
      "type": "event"
    },
    {
      "anonymous": false,
      "inputs": [
        {
          "indexed": false,
          "name": "owner",
          "type": "address"
        },
        {
          "indexed": false,
          "name": "fighterId",
          "type": "uint256"
        },
        {
          "indexed": false,
          "name": "price",
          "type": "uint256"
        }
      ],
      "name": "MarketplaceAdd",
      "type": "event"
    },
    {
      "anonymous": false,
      "inputs": [
        {
          "indexed": false,
          "name": "owner",
          "type": "address"
        },
        {
          "indexed": false,
          "name": "fighterId",
          "type": "uint256"
        }
      ],
      "name": "ArenaAdd",
      "type": "event"
    },
    {
      "anonymous": false,
      "inputs": [
        {
          "indexed": false,
          "name": "_string",
          "type": "string"
        }
      ],
      "name": "Test",
      "type": "event"
    },
    {
      "anonymous": false,
      "inputs": [
        {
          "indexed": false,
          "name": "from",
          "type": "address"
        },
        {
          "indexed": false,
          "name": "to",
          "type": "address"
        },
        {
          "indexed": false,
          "name": "tokenId",
          "type": "uint256"
        }
      ],
      "name": "Transfer",
      "type": "event"
    },
    {
      "anonymous": false,
      "inputs": [
        {
          "indexed": false,
          "name": "owner",
          "type": "address"
        },
        {
          "indexed": false,
          "name": "approved",
          "type": "address"
        },
        {
          "indexed": false,
          "name": "tokenId",
          "type": "uint256"
        }
      ],
      "name": "Approval",
      "type": "event"
    },
    {
      "anonymous": false,
      "inputs": [
        {
          "indexed": false,
          "name": "_keccak1",
          "type": "bytes32"
        },
        {
          "indexed": false,
          "name": "_keccak2",
          "type": "bytes32"
        }
      ],
      "name": "Test",
      "type": "event"
    },
    {
      "anonymous": false,
      "inputs": [
        {
          "indexed": false,
          "name": "owner",
          "type": "address"
        },
        {
          "indexed": false,
          "name": "fighterId",
          "type": "uint256"
        },
        {
          "indexed": false,
          "name": "maxHealth",
          "type": "uint256"
        },
        {
          "indexed": false,
          "name": "speed",
          "type": "uint256"
        },
        {
          "indexed": false,
          "name": "strength",
          "type": "uint256"
        },
        {
          "indexed": false,
          "name": "fighterType",
          "type": "string"
        }
      ],
      "name": "Creation",
      "type": "event"
    },
    {
      "anonymous": false,
      "inputs": [
        {
          "indexed": false,
          "name": "owner",
          "type": "address"
        },
        {
          "indexed": false,
          "name": "fighterId",
          "type": "uint256"
        },
        {
          "indexed": false,
          "name": "attribute",
          "type": "string"
        },
        {
          "indexed": false,
          "name": "increaseValue",
          "type": "uint256"
        }
      ],
      "name": "AttributeIncrease",
      "type": "event"
    },
    {
      "anonymous": false,
      "inputs": [
        {
          "indexed": false,
          "name": "owner",
          "type": "address"
        },
        {
          "indexed": false,
          "name": "fighterId",
          "type": "uint256"
        },
        {
          "indexed": false,
          "name": "maxHealth",
          "type": "uint256"
        }
      ],
      "name": "Healed",
      "type": "event"
    },
    {
      "anonymous": false,
      "inputs": [
        {
          "indexed": false,
          "name": "fighterWasFound",
          "type": "bool"
        },
        {
          "indexed": false,
          "name": "owner",
          "type": "address"
        },
        {
          "indexed": false,
          "name": "fighterId",
          "type": "uint256"
        }
      ],
      "name": "FighterFound",
      "type": "event"
    },
    {
      "constant": true,
      "inputs": [
        {
          "name": "_fighterId",
          "type": "uint256"
        }
      ],
      "name": "getPriceForFighter",
      "outputs": [
        {
          "name": "",
          "type": "uint256"
        }
      ],
      "payable": false,
      "stateMutability": "view",
      "type": "function"
    },
    {
      "constant": false,
      "inputs": [
        {
          "name": "_fighterId",
          "type": "uint256"
        }
      ],
      "name": "removeFighterFromSale",
      "outputs": [],
      "payable": false,
      "stateMutability": "nonpayable",
      "type": "function"
    },
    {
      "constant": false,
      "inputs": [
        {
          "name": "_fighterId",
          "type": "uint256"
        }
      ],
      "name": "removeFighterFromArena",
      "outputs": [],
      "payable": false,
      "stateMutability": "nonpayable",
      "type": "function"
    },
    {
      "constant": false,
      "inputs": [
        {
          "name": "_fighterId",
          "type": "uint256"
        },
        {
          "name": "_price",
          "type": "uint256"
        }
      ],
      "name": "makeFighterAvailableForSale",
      "outputs": [],
      "payable": false,
      "stateMutability": "nonpayable",
      "type": "function"
    },
    {
      "constant": false,
      "inputs": [
        {
          "name": "_fighterId",
          "type": "uint256"
        }
      ],
      "name": "makeFighterAvailableForBrawl",
      "outputs": [],
      "payable": false,
      "stateMutability": "nonpayable",
      "type": "function"
    },
    {
      "constant": false,
      "inputs": [
        {
          "name": "_fighterId",
          "type": "uint256"
        }
      ],
      "name": "buyFighter",
      "outputs": [],
      "payable": true,
      "stateMutability": "payable",
      "type": "function"
    },
    {
      "constant": false,
      "inputs": [
        {
          "name": "queryId",
          "type": "bytes32"
        },
        {
          "name": "result",
          "type": "string"
        }
      ],
      "name": "__callback",
      "outputs": [],
      "payable": false,
      "stateMutability": "nonpayable",
      "type": "function"
    },
    {
      "constant": false,
      "inputs": [
        {
          "name": "myid",
          "type": "bytes32"
        },
        {
          "name": "result",
          "type": "string"
        },
        {
          "name": "proof",
          "type": "bytes"
        }
      ],
      "name": "__callback",
      "outputs": [],
      "payable": false,
      "stateMutability": "nonpayable",
      "type": "function"
    },
    {
      "constant": false,
      "inputs": [
        {
          "name": "_attackerId",
          "type": "uint256"
        },
        {
          "name": "_defenderId",
          "type": "uint256"
        }
      ],
      "name": "fight",
      "outputs": [],
      "payable": true,
      "stateMutability": "payable",
      "type": "function"
    }
  ],
  "bytecode": "0x6060604052600360015560036002556611c37937e08000600355662386f26fc100006004556005600d55608060405190810160405280604381526020017f68747470733a2f2f72696e6b656279627261776c6261636b656e642e6865726f81526020017f6b756170702e636f6d2f6170692f6172656e612f63616c63756c61746557696e81526020017f6e65720000000000000000000000000000000000000000000000000000000000815250600e908051620000c1929160200190620000ea565b50620b71b0600f5560008054600160a060020a03191633600160a060020a03161790556200018f565b828054600181600116156101000203166002900490600052602060002090601f016020900481019282601f106200012d57805160ff19168380011785556200015d565b828001600101855582156200015d579182015b828111156200015d57825182559160200191906001019062000140565b506200016b9291506200016f565b5090565b6200018c91905b808211156200016b576000815560010162000176565b90565b6142d6806200019f6000396000f3006060604052600436106102845763ffffffff60e060020a60003504166301ffc9a78114610289578063027f48f7146102d55780630560ff441461030657806306fdde031461039f578063095ea7b3146103b257806312b0b627146103d657806318160ddd146104bc5780631ba21011146104cf57806323b872dd146104ee578063241860aa1461051657806327dc297e1461052c5780632b1a8d461461058257806338bbfa50146105ad5780633f40d2881461064557806340e4e0481461065f57806344e59ee914610675578063495ac3a8146106a75780634b193933146106bd57806350b9c428146106d357806354c3bfa1146106e65780635fd8c710146106fc5780636352211e1461070f578063641e3aae14610725578063656aa88a1461073b5780636bbd3c9714610759578063701a19fd1461076c57806370a082311461077f5780638053e5d81461079e5780638357b8dd146107c05780638462151c146107e25780638da5cb5b146108015780639201de5514610814578063920b4a2d1461082a57806395d89b4114610840578063a2df64df14610853578063a5557ce014610869578063a707c73c1461087f578063a9059cbb146108ad578063ad2dccfe146108cf578063b64ce34a146108e2578063b6e57064146108f5578063bc4006f51461090e578063c20548ac14610921578063c48f66f214610940578063c7cffa0f14610953578063ca39e5ef14610969578063cbb5bbbf14610977578063d004cad414610982578063d9861dab14610998578063e17b25af146109ae578063e88f4f1f146109cd578063ea9b50c5146109e3578063efbeef80146109f6578063f2fde38b14610a01578063f36014d214610a20578063f6a6771614610a33575b600080fd5b341561029457600080fd5b6102c17fffffffff0000000000000000000000000000000000000000000000000000000060043516610a49565b604051901515815260200160405180910390f35b34156102e057600080fd5b6102f4600160a060020a0360043516610cd0565b60405190815260200160405180910390f35b341561031157600080fd5b610328600480359060248035908101910135610ce2565b60405160208082528190810183818151815260200191508051906020019080838360005b8381101561036457808201518382015260200161034c565b50505050905090810190601f1680156103915780820380516001836020036101000a031916815260200191505b509250505060405180910390f35b34156103aa57600080fd5b610328610dbf565b34156103bd57600080fd5b6103d4600160a060020a0360043516602435610df6565b005b34156103e157600080fd5b61046960046024813581810190830135806020601f8201819004810201604051908101604052818152929190602084018383808284378201915050505050509190803590602001908201803590602001908080601f016020809104026020016040519081016040528181529291906020840183838082843750949650610e6995505050505050565b60405160208082528190810183818151815260200191508051906020019060200280838360005b838110156104a8578082015183820152602001610490565b505050509050019250505060405180910390f35b34156104c757600080fd5b6102f4611198565b34156104da57600080fd5b6103d4600160a060020a036004351661119f565b34156104f957600080fd5b6103d4600160a060020a03600435811690602435166044356111fa565b341561052157600080fd5b6102f460043561126a565b341561053757600080fd5b6103d4600480359060446024803590810190830135806020601f8201819004810201604051908101604052818152929190602084018383808284375094965061127f95505050505050565b341561058d57600080fd5b6103d4600160a060020a036004351660243560443560643560843561140c565b34156105b857600080fd5b6103d4600480359060446024803590810190830135806020601f8201819004810201604051908101604052818152929190602084018383808284378201915050505050509190803590602001908201803590602001908080601f01602080910402602001604051908101604052818152929190602084018383808284375094965061126595505050505050565b6102f46004803590602480359081019101356044356114ee565b341561066a57600080fd5b6103d460043561157f565b341561068057600080fd5b61068b60043561159f565b604051600160a060020a03909116815260200160405180910390f35b34156106b257600080fd5b6103d46004356115ba565b34156106c857600080fd5b61068b6004356115da565b34156106de57600080fd5b6102f46115f5565b34156106f157600080fd5b6103d46004356115fb565b341561070757600080fd5b6103d4611674565b341561071a57600080fd5b61068b6004356116ca565b341561073057600080fd5b6103d46004356116ee565b341561074657600080fd5b6103d46004803560248101910135611767565b341561076457600080fd5b61032861178e565b341561077757600080fd5b6102f461182c565b341561078a57600080fd5b6102f4600160a060020a0360043516611832565b34156107a957600080fd5b6103d4600160a060020a036004351660243561184d565b34156107cb57600080fd5b6102f4600160a060020a03600435166024356118ae565b34156107ed57600080fd5b610469600160a060020a03600435166118dc565b341561080c57600080fd5b61068b6119bd565b341561081f57600080fd5b6103286004356119cc565b341561083557600080fd5b6103d4600435611b0a565b341561084b57600080fd5b610328611b2a565b341561085e57600080fd5b6102f4600435611b61565b341561087457600080fd5b6103d4600435611b73565b341561088a57600080fd5b610895600435611b93565b60405191825260208201526040908101905180910390f35b34156108b857600080fd5b6103d4600160a060020a0360043516602435611bac565b34156108da57600080fd5b6102f4611c06565b34156108ed57600080fd5b6102f4611c0c565b341561090057600080fd5b6103d4600435602435611c12565b341561091957600080fd5b61068b611cd6565b341561092c57600080fd5b610469600160a060020a0360043516611ce5565b341561094b57600080fd5b6103d4611d68565b341561095e57600080fd5b6103d4600435611d91565b6103d4600435602435611db1565b6103d4600435611fe5565b341561098d57600080fd5b6103d4600435612012565b34156109a357600080fd5b610328600435612032565b34156109b957600080fd5b6103d4600160a060020a03600435166120ba565b34156109d857600080fd5b6103d46004356120dc565b34156109ee57600080fd5b6102f4612172565b6103d4600435612178565b3415610a0c57600080fd5b6103d4600160a060020a03600435166121a1565b3415610a2b57600080fd5b6102f46121eb565b3415610a3e57600080fd5b6102c16004356121f1565b60006040517f737570706f727473496e7465726661636528627974657334290000000000000081526019016040518091039020600160e060020a03191682600160e060020a0319161480610cc857506040517f746f6b656e4d657461646174612875696e743235362c737472696e67290000008152601d0160405180910390206040517f746f6b656e734f664f776e657228616464726573732900000000000000000000815260160160405180910390206040517f7472616e7366657246726f6d28616464726573732c616464726573732c75696e81527f7432353629000000000000000000000000000000000000000000000000000000602082015260250160405180910390206040517f7472616e7366657228616464726573732c75696e743235362900000000000000815260190160405180910390206040517f617070726f766528616464726573732c75696e74323536290000000000000000815260180160405180910390206040517f6f776e65724f662875696e743235362900000000000000000000000000000000815260100160405180910390206040517f62616c616e63654f662861646472657373290000000000000000000000000000815260120160405180910390206040517f746f74616c537570706c792829000000000000000000000000000000000000008152600d0160405180910390206040517f73796d626f6c2829000000000000000000000000000000000000000000000000815260080160405180910390206040517f6e616d652829000000000000000000000000000000000000000000000000000081526006016040518091039020181818181818181818600160e060020a03191682600160e060020a031916145b90505b919050565b60066020526000908152604090205481565b610cea613f9f565b610cf2613fb1565b600c54600090600160a060020a03161515610d0c57600080fd5b600c54600160a060020a031663cb4799f2878787600060405160a0015260405160e060020a63ffffffff861602815260048101848152604060248301908152604483018490529091606401848480828437820191505094505050505060a060405180830381600087803b1515610d8157600080fd5b6102c65a03f11515610d9257600080fd5b50505060405180608001805160209091016040529092509050610db58282612317565b9695505050505050565b60408051908101604052600e81527f43727970746f427261776c657273000000000000000000000000000000000000602082015281565b610e00338261236c565b1515610e0b57600080fd5b610e15818361238c565b7f8c5be1e5ebec7d5bd14f71427d1e84f3dd0314c0f7b2291e5b200ac8c7c3b925338383604051600160a060020a039384168152919092166020820152604080820192909252606001905180910390a15050565b610e71613f9f565b6000806000610e7e613f9f565b610e86613f9f565b508690508560005b825181101561104c5781600081518110610ea457fe5b016020015160f860020a900460f860020a02600160f860020a031916838281518110610ecc57fe5b016020015160f860020a900460f860020a02600160f860020a031916141515610f78578580546001816001161561010002031660029004806001018281610f139190613fda565b9190815460011615610f345790600052602060002090602091828204019190065b858481518110610f4057fe5b016020015160f860020a900460f860020a0290919091601f036101000a81548160ff0219169060f860020a8404021790555050611044565b8354849060018101610f8a838261409d565b91600052602060002090016000611039898054600181600116156101000203166002900480601f01602080910402602001604051908101604052809291908181526020018280546001816001161561010002031660029004801561102f5780601f106110045761010080835404028352916020019161102f565b820191906000526020600020905b81548152906001019060200180831161101257829003601f168201915b50505050506123ba565b909190915055508495505b600101610e8e565b8160008151811061105957fe5b016020015160f860020a900460f860020a02600160f860020a0319168360018551038151811061108557fe5b016020015160f860020a900460f860020a02600160f860020a03191614151561113a5783548490600181016110ba838261409d565b91600052602060002090016000611134898054600181600116156101000203166002900480601f01602080910402602001604051908101604052809291908181526020018280546001816001161561010002031660029004801561102f5780601f106110045761010080835404028352916020019161102f565b90915550505b8380548060200260200160405190810160405280929190818152602001828054801561118557602002820191906000526020600020905b815481526020019060010190808311611171575b5050505050965050505050505092915050565b6005545b90565b60005433600160a060020a039081169116146111ba57600080fd5b80600160a060020a03166108fc30600160a060020a0316319081150290604051600060405180830381858888f1935050505015156111f757600080fd5b50565b600160a060020a038216151561120f57600080fd5b30600160a060020a031682600160a060020a03161415151561123057600080fd5b61123a33826123c7565b151561124557600080fd5b61124f838261236c565b151561125a57600080fd5b6112658383836123e7565b505050565b60009081526015602052604090206001015490565b611287613f9f565b60008060006112946124fa565b600160a060020a031633600160a060020a03161415156112b357600080fd5b6112f08560408051908101604052600181527f2d000000000000000000000000000000000000000000000000000000000000006020820152610e69565b9350836000815181106112ff57fe5b9060200190602002015192508360018151811061131857fe5b90602001906020020151915061132d8361269a565b156113425761133b836126ad565b508161134d565b508061134d816126ad565b6000828152600760205260408082205485835291205461137a91600160a060020a039081169116846123e7565b6000838152600760205260408082205484835291819020547f0974ab4622ebebd6fc59c871455d5554bfc6cb8da267f947006c5f5c4f747f6092600160a060020a03908116928792909116908690869051600160a060020a0395861681526020810194909452919093166040808401919091526060830193909352608082015260a001905180910390a1505050505050565b60005433600160a060020a0390811691161461142757600080fd5b6114e684848488600a8681548110151561143d57fe5b90600052602060002090018054600181600116156101000203166002900480601f0160208091040260200160405190810160405280929190818152602001828054600181600116156101000203166002900480156114dc5780601f106114b1576101008083540402835291602001916114dc565b820191906000526020600020905b8154815290600101906020018083116114bf57829003601f168201915b50505050506126be565b505050505050565b600080600354803410151561157557611507338861236c565b151561151257600080fd5b60025461151e85612858565b81151561152757fe5b04915081151561153657600191505b6115718787878080601f0160208091040260200160405190810160405281815292919060208401838380828437508994506128999350505050565b8192505b5050949350505050565b60005433600160a060020a0390811691161461159a57600080fd5b600155565b600860205260009081526040902054600160a060020a031681565b60005433600160a060020a039081169116146115d557600080fd5b600255565b600760205260009081526040902054600160a060020a031681565b600f5481565b611605338261236c565b151561161057600080fd5b61161981612a7e565b151561162457600080fd5b61162d81612a94565b7f3e808687755674bf6703cb65acce9b7da494797511c241a38e74134813273be23382604051600160a060020a03909216825260208201526040908101905180910390a150565b60005433600160a060020a0390811691161461168f57600080fd5b600054600160a060020a039081169030163180156108fc0290604051600060405180830381858888f1935050505015156116c857600080fd5b565b600081815260076020526040902054600160a060020a0316801515610ccb57600080fd5b6116f8338261236c565b151561170357600080fd5b61170c8161269a565b151561171757600080fd5b611720816126ad565b7fb3fefaad4d5eb17c447489e1529238e4f44c82b4f99284ca82969e1bfbb8e8c53382604051600160a060020a03909216825260208201526040908101905180910390a150565b60005433600160a060020a0390811691161461178257600080fd5b611265600e83836140c1565b600e8054600181600116156101000203166002900480601f0160208091040260200160405190810160405280929190818152602001828054600181600116156101000203166002900480156118245780601f106117f957610100808354040283529160200191611824565b820191906000526020600020905b81548152906001019060200180831161180757829003601f168201915b505050505081565b60035481565b600160a060020a031660009081526006602052604090205490565b600080548190819033600160a060020a0390811691161461186d57600080fd5b61187684612858565b925061188183612858565b9150611895846001600a8054905003612aab565b90506114e6600a848488600a8681548110151561143d57fe5b6009602052816000526040600020818154811015156118c957fe5b6000918252602090912001549150829050565b6118e4613f9f565b60008060006118f1613f9f565b60006118fc87611832565b945084151561192c5760006040518059106119145750595b908082528060200260200182016040525095506119b3565b60009350611938611198565b9250846040518059106119485750595b90808252806020026020018201604052509150600190505b8281116119af57600081815260076020526040902054600160a060020a03888116911614156119a7578082858151811061199657fe5b602090810290910101526001909301925b600101611960565b8195505b5050505050919050565b600054600160a060020a031681565b6119d4613f9f565b6119dc613f9f565b60008060006119e9613f9f565b60206040518059106119f85750595b818152601f19601f83011681016020016040529050945060009350600092505b6020831015611a8b576008830260020a870291507fff00000000000000000000000000000000000000000000000000000000000000821615611a805781858581518110611a6157fe5b906020010190600160f860020a031916908160001a9053506001909301925b600190920191611a18565b83604051805910611a995750595b818152601f19601f830116810160200160405290509050600092505b83831015610db557848381518110611ac957fe5b016020015160f860020a900460f860020a02818481518110611ae757fe5b906020010190600160f860020a031916908160001a905350600190920191611ab5565b60005433600160a060020a03908116911614611b2557600080fd5b600d55565b60408051908101604052600481527f4252574c00000000000000000000000000000000000000000000000000000000602082015281565b60166020526000908152604090205481565b60005433600160a060020a03908116911614611b8e57600080fd5b600355565b6015602052600090815260409020805460019091015482565b600160a060020a0382161515611bc157600080fd5b30600160a060020a031682600160a060020a031614151515611be257600080fd5b611bec338261236c565b1515611bf757600080fd5b611c023383836123e7565b5050565b600d5481565b60025481565b611c1c338361236c565b1515611c2757600080fd5b611c308261269a565b15611c3a57600080fd5b60008111611c4757600080fd5b60408051908101604090815283825260208083018490526000858152601590915220815181556020820151600190910155507f9eaf5a44f033adc048686ca80e281b74f25fb52e998dd7f8e6812721383ae88a3383836040518084600160a060020a0316600160a060020a03168152602001838152602001828152602001935050505060405180910390a15050565b600c54600160a060020a031681565b611ced613f9f565b6009600083600160a060020a0316600160a060020a03168152602001908152602001600020805480602002602001604051908101604052809291908181526020018280548015611d5c57602002820191906000526020600020905b815481526020019060010190808311611d48575b50505050509050919050565b60005433600160a060020a03908116911614611d8357600080fd5b600054600160a060020a0316ff5b60005433600160a060020a03908116911614611dac57600080fd5b600f55565b611db9613f9f565b611dc1613f9f565b60045434819010611fde57611dd58461269a565b1515611de057600080fd5b611dea338661236c565b1515611df557600080fd5b611dff338561236c565b15611e0957600080fd5b611e8b60408051908101604052600a81527f2f61747461636b65722f000000000000000000000000000000000000000000006020820152611e4987612add565b60408051908101604052600a81527f2f646566656e6465722f000000000000000000000000000000000000000000006020820152611e8688612add565b612bd1565b9250611f9b6040805190810160405280600581526020017f6a736f6e28000000000000000000000000000000000000000000000000000000815250600e8054600181600116156101000203166002900480601f016020809104026020016040519081016040528092919081815260200182805460018160011615610100020316600290048015611f5c5780601f10611f3157610100808354040283529160200191611f5c565b820191906000526020600020905b815481529060010190602001808311611f3f57829003601f168201915b50505050508560408051908101604052600f81527f292e6f7574636f6d65537472696e6700000000000000000000000000000000006020820152612bd1565b91506114e660408051908101604052600381527f55524c00000000000000000000000000000000000000000000000000000000006020820152600f548490612bfd565b5050505050565b611fef8134612f83565b6000818152600760205260409020546111f790600160a060020a031633836123e7565b60005433600160a060020a0390811691161461202d57600080fd5b600455565b600a80548290811061204057fe5b90600052602060002090016000915090508054600181600116156101000203166002900480601f0160208091040260200160405190810160405280929190818152602001828054600181600116156101000203166002900480156118245780601f106117f957610100808354040283529160200191611824565b600c8054600160a060020a031916600160a060020a0392909216919091179055565b6120e6338261236c565b15156120f157600080fd5b6120fa81612a7e565b1561210457600080fd5b61210d8161269a565b1561211757600080fd5b600081815260166020526040908190208290557ffd493e9e8a025ff7f65e924f394f7f1c3804e6114587e73b05e393385823ae5f903390839051600160a060020a03909216825260208201526040908101905180910390a150565b60045481565b60035434819010611c025761218d338361236c565b151561219857600080fd5b611c0282613090565b60005433600160a060020a039081169116146121bc57600080fd5b600160a060020a038116156111f75760008054600160a060020a038316600160a060020a031990911617905550565b60015481565b6000806000806000806122038761309a565b94506001548581151561221257fe5b0615156122b75761222287612858565b935061222d84612858565b9250612241876001600a8054905003612aab565b915061225a600a858533600a8781548110151561143d57fe5b90507f9bd510de0dcc8d26bfd35e5e1bad5c406154844b85cde0690dfa7881e481de76600133836040519215158352600160a060020a0390911660208301526040808301919091526060909101905180910390a1600195506119b3565b7f9bd510de0dcc8d26bfd35e5e1bad5c406154844b85cde0690dfa7881e481de7660003360006040519215158352600160a060020a0390911660208301526040808301919091526060909101905180910390a15060009695505050505050565b61231f613f9f565b612327613f9f565b600080846040518059106123385750595b818152601f19601f83011681016020016040529050925050602082019050846123628282876130c6565b5090949350505050565b600090815260076020526040902054600160a060020a0391821691161490565b6000918252600860205260409091208054600160a060020a031916600160a060020a03909216919091179055565b6000610cc882600061310b565b600090815260086020526040902054600160a060020a0391821691161490565b600160a060020a038216600081815260066020908152604080832080546001908101909155858452600783528184208054600160a060020a0319168617905593835260099091529020805490918101612440838261409d565b506000918252602090912001819055600160a060020a038316156124a55760008181526008602052604090208054600160a060020a03191690556124848382613279565b600160a060020a038316600090815260066020526040902080546000190190555b7fddf252ad1be2c89b69c2b068fc378daa952ba7f163c4a11628f55a4df523b3ef838383604051600160a060020a039384168152919092166020820152604080820192909252606001905180910390a1505050565b601054600090600160a060020a03161580612527575060105461252590600160a060020a031661330d565b155b15612538576125366000613311565b505b601054600160a060020a03166338cc48316000604051602001526040518163ffffffff1660e060020a028152600401602060405180830381600087803b151561258057600080fd5b6102c65a03f1151561259157600080fd5b5050506040518051601154600160a060020a03908116911614905061263357601054600160a060020a03166338cc48316000604051602001526040518163ffffffff1660e060020a028152600401602060405180830381600087803b15156125f857600080fd5b6102c65a03f1151561260957600080fd5b505050604051805160118054600160a060020a031916600160a060020a0392909216919091179055505b601154600160a060020a031663c281d19e6000604051602001526040518163ffffffff1660e060020a028152600401602060405180830381600087803b151561267b57600080fd5b6102c65a03f1151561268c57600080fd5b505050604051805191505090565b6000908152601660205260408120541190565b600090815260166020526040812055565b60006126c861413f565b600060a06040519081016040528089815260200189815260200188815260200187815260200185815250915060016005805480600101828161270a9190614174565b60009283526020909220859160050201815181556020820151816001015560408201518160020155606082015181600301556080820151816004019080516127569291602001906141a0565b50505003905063ffffffff8116811461276e57600080fd5b7faf9d5de903d3c24be3b2973b79ee3eefd1b8aada3d46baf60ee9f0d086b75fb985828a8a8a896040518087600160a060020a0316600160a060020a0316815260200186815260200185815260200184815260200183815260200180602001828103825283818151815260200191508051906020019080838360005b838110156128025780820151838201526020016127ea565b50505050905090810190601f16801561282f5780820380516001836020036101000a031916815260200191505b5097505050505050505060405180910390a161284d600086836123e7565b979650505050505050565b600080600a60014303408460405191825260208201526040908101905190819003902081151561288457fe5b06905060008111612893575060015b92915050565b6040517f6d61784865616c746800000000000000000000000000000000000000000000008152600901604051908190039020826040518082805190602001908083835b602083106128fb5780518252601f1990920191602091820191016128dc565b6001836020036101000a0380198251168184511617909252505050919091019250604091505051908190039020141561293e5761293983823361331b565b611265565b6040517f737472656e6774680000000000000000000000000000000000000000000000008152600801604051908190039020826040518082805190602001908083835b602083106129a05780518252601f199092019160209182019101612981565b6001836020036101000a038019825116818451161790925250505091909101925060409150505190819003902014156129de576129398382336134d3565b6040517f73706565640000000000000000000000000000000000000000000000000000008152600501604051908190039020826040518082805190602001908083835b60208310612a405780518252601f199092019160209182019101612a21565b6001836020036101000a0380198251168184511617909252505050919091019250604091505051908190039020141561126557611265838233613671565b6000908152601560205260408120600101541190565b600090815260156020526040812081815560010155565b600081600143034084604051918252602082015260409081019051908190039020811515612ad557fe5b069392505050565b612ae5613f9f565b600080612af0613f9f565b6000851515612b345760408051908101604052600181527f300000000000000000000000000000000000000000000000000000000000000060208201529450612bc8565b8593505b8315612b4f57600190920191600a84049350612b38565b82604051805910612b5d5750595b818152601f19601f8301168101602001604052905091505060001982015b8515612bc45760001981019060f860020a6030600a8906010290839081518110612ba157fe5b906020010190600160f860020a031916908160001a905350600a86049550612b7b565b8194505b50505050919050565b612bd9613f9f565b612bf48585858560206040519081016040526000815261380f565b95945050505050565b6010546000908190600160a060020a03161580612c2c5750601054612c2a90600160a060020a031661330d565b155b15612c3d57612c3b6000613311565b505b601054600160a060020a03166338cc48316000604051602001526040518163ffffffff1660e060020a028152600401602060405180830381600087803b1515612c8557600080fd5b6102c65a03f11515612c9657600080fd5b5050506040518051601154600160a060020a039081169116149050612d3857601054600160a060020a03166338cc48316000604051602001526040518163ffffffff1660e060020a028152600401602060405180830381600087803b1515612cfd57600080fd5b6102c65a03f11515612d0e57600080fd5b505050604051805160118054600160a060020a031916600160a060020a0392909216919091179055505b601154600160a060020a0316632ef3accc86856000604051602001526040518363ffffffff1660e060020a0281526004018080602001838152602001828103825284818151815260200191508051906020019080838360005b83811015612da9578082015183820152602001612d91565b50505050905090810190601f168015612dd65780820380516001836020036101000a031916815260200191505b509350505050602060405180830381600087803b1515612df557600080fd5b6102c65a03f11515612e0657600080fd5b5050506040518051915050670de0b6b3a76400003a840201811115612e2e5760009150612f7b565b601154600160a060020a031663c51be90f82600088888883604051602001526040518663ffffffff1660e060020a028152600401808581526020018060200180602001848152602001838103835286818151815260200191508051906020019080838360005b83811015612eac578082015183820152602001612e94565b50505050905090810190601f168015612ed95780820380516001836020036101000a031916815260200191505b50838103825285818151815260200191508051906020019080838360005b83811015612f0f578082015183820152602001612ef7565b50505050905090810190601f168015612f3c5780820380516001836020036101000a031916815260200191505b5096505050505050506020604051808303818588803b1515612f5d57600080fd5b6125ee5a03f11515612f6e57600080fd5b5050505060405180519250505b509392505050565b6000806000612f92338661236c565b15612f9c57600080fd5b612fa585612a7e565b1515612fb057600080fd5b600085815260156020526040902060010154841015612fce57600080fd5b600085815260076020526040902054600160a060020a03169250612ff185612a94565b612ffa84613a7f565b915050808303600160a060020a03831681156108fc0282604051600060405180830381858888f19350505050151561303157600080fd5b7f4750c394c3222df02b322dd8f4ee23c0025975134406b18d35ab7c9c1bb41ac233858786604051600160a060020a03948516815260208101939093526040808401929092529092166060820152608001905180910390a15050505050565b6111f78133613a8b565b600080606460014303408460405191825260208201526040908101905190819003902081151561288457fe5b60005b602082106130ec57825184526020840193506020830192506020820391506130c9565b6001826020036101000a03905080198351168185511617909352505050565b6000613115613f9f565b5082600080805b835181101561325c577f300000000000000000000000000000000000000000000000000000000000000084828151811061315257fe5b016020015160f860020a900460f860020a02600160f860020a031916101580156131c357507f39000000000000000000000000000000000000000000000000000000000000008482815181106131a457fe5b016020015160f860020a900460f860020a02600160f860020a03191611155b156132195781156131e2578515156131da5761325c565b600019909501945b600a8302925060308482815181106131f657fe5b016020015160f860020a900460f860020a0260f860020a90040383019250613254565b83818151811061322557fe5b016020015160f860020a900460f860020a02600160f860020a031916602e60f860020a02141561325457600191505b60010161311c565b600086111561326e5785600a0a830292505b509095945050505050565b60005b600160a060020a03831660009081526009602052604090205481101561126557600160a060020a03831660009081526009602052604090208054839190839081106132c357fe5b906000526020600020900154141561330557600160a060020a03831660009081526009602052604090208054829081106132f957fe5b60009182526020822001555b60010161327c565b3b90565b6000610cc8613c0b565b61332361413f565b600580548590811061333157fe5b906000526020600020906005020160a0604051908101604052908160008201548152602001600182015481526020016002820154815260200160038201548152602001600482018054600181600116156101000203166002900480601f01602080910402602001604051908101604052809291908181526020018280546001816001161561010002031660029004801561340c5780601f106133e15761010080835404028352916020019161340c565b820191906000526020600020905b8154815290600101906020018083116133ef57829003601f168201915b5050505050815250509050806000015181602001511415613434578281602001818151019052505b8281818151019052506134478185613f2f565b7fca04611e80f005feb5aafd7553030c696e4de100604c325926807c6cbda6a7c3828585604051600160a060020a03909316835260208301919091526060820152608060408083018290526009918301919091527f6d61784865616c7468000000000000000000000000000000000000000000000060a083015260c0909101905180910390a150505050565b6134db61413f565b60058054859081106134e957fe5b906000526020600020906005020160a0604051908101604052908160008201548152602001600182015481526020016002820154815260200160038201548152602001600482018054600181600116156101000203166002900480601f0160208091040260200160405190810160405280929190818152602001828054600181600116156101000203166002900480156135c45780601f10613599576101008083540402835291602001916135c4565b820191906000526020600020905b8154815290600101906020018083116135a757829003601f168201915b50505050508152505090508281606001818151019052506135e58185613f2f565b7fca04611e80f005feb5aafd7553030c696e4de100604c325926807c6cbda6a7c3828585604051600160a060020a03909316835260208301919091526060820152608060408083018290526008918301919091527f737472656e67746800000000000000000000000000000000000000000000000060a083015260c0909101905180910390a150505050565b61367961413f565b600580548590811061368757fe5b906000526020600020906005020160a0604051908101604052908160008201548152602001600182015481526020016002820154815260200160038201548152602001600482018054600181600116156101000203166002900480601f0160208091040260200160405190810160405280929190818152602001828054600181600116156101000203166002900480156137625780601f1061373757610100808354040283529160200191613762565b820191906000526020600020905b81548152906001019060200180831161374557829003601f168201915b50505050508152505090508281604001818151019052506137838185613f2f565b7fca04611e80f005feb5aafd7553030c696e4de100604c325926807c6cbda6a7c3828585604051600160a060020a03909316835260208301919091526060820152608060408083018290526005918301919091527f737065656400000000000000000000000000000000000000000000000000000060a083015260c0909101905180910390a150505050565b613817613f9f565b61381f613f9f565b613827613f9f565b61382f613f9f565b613837613f9f565b61383f613f9f565b613847613f9f565b61384f613f9f565b6000808e98508d97508c96508b95508a94508451865188518a518c510101010160405180591061387c5750595b818152601f19601f83011681016020016040529050935083925060009150600090505b88518110156138f8578881815181106138b457fe5b016020015160f860020a900460f860020a028383806001019450815181106138d857fe5b906020010190600160f860020a031916908160001a90535060010161389f565b5060005b87518110156139555787818151811061391157fe5b016020015160f860020a900460f860020a0283838060010194508151811061393557fe5b906020010190600160f860020a031916908160001a9053506001016138fc565b5060005b86518110156139b25786818151811061396e57fe5b016020015160f860020a900460f860020a0283838060010194508151811061399257fe5b906020010190600160f860020a031916908160001a905350600101613959565b5060005b8551811015613a0f578581815181106139cb57fe5b016020015160f860020a900460f860020a028383806001019450815181106139ef57fe5b906020010190600160f860020a031916908160001a9053506001016139b6565b5060005b8451811015613a6c57848181518110613a2857fe5b016020015160f860020a900460f860020a02838380600101945081518110613a4c57fe5b906020010190600160f860020a031916908160001a905350600101613a13565b50909d9c50505050505050505050505050565b600d5460649091040290565b613a9361413f565b6005805484908110613aa157fe5b906000526020600020906005020160a0604051908101604052908160008201548152602001600182015481526020016002820154815260200160038201548152602001600482018054600181600116156101000203166002900480601f016020809104026020016040519081016040528092919081815260200182805460018160011615610100020316600290048015613b7c5780601f10613b5157610100808354040283529160200191613b7c565b820191906000526020600020905b815481529060010190602001808311613b5f57829003601f168201915b50505050508152505090508060000151816020015110613b9b57600080fd5b80516020820152613bac8184613f2f565b7f99ac7da70b5c6f1d34e05f1b47107fb3b9a1c1542028d0ad8e86c959568629ed828483516040518084600160a060020a0316600160a060020a03168152602001838152602001828152602001935050505060405180910390a1505050565b600080613c2b731d3b2638a7cc9f2cb3d298a3da7a90b67e5506ed61330d565b1115613c9b5760108054600160a060020a031916731d3b2638a7cc9f2cb3d298a3da7a90b67e5506ed179055613c9360408051908101604052600b81527f6574685f6d61696e6e65740000000000000000000000000000000000000000006020820152613f8c565b50600161119c565b6000613cba73c03a2615d5efaf5f49f60b7bb6583eaec212fdf161330d565b1115613d225760108054600160a060020a03191673c03a2615d5efaf5f49f60b7bb6583eaec212fdf1179055613c9360408051908101604052600c81527f6574685f726f707374656e3300000000000000000000000000000000000000006020820152613f8c565b6000613d4173b7a07bcf2ba2f2703b24c0691b5278999c59ac7e61330d565b1115613da95760108054600160a060020a03191673b7a07bcf2ba2f2703b24c0691b5278999c59ac7e179055613c9360408051908101604052600981527f6574685f6b6f76616e00000000000000000000000000000000000000000000006020820152613f8c565b6000613dc873146500cfd35b22e4a392fe0adc06de1a1368ed4861330d565b1115613e305760108054600160a060020a03191673146500cfd35b22e4a392fe0adc06de1a1368ed48179055613c9360408051908101604052600b81527f6574685f72696e6b6562790000000000000000000000000000000000000000006020820152613f8c565b6000613e4f736f485c8bf6fc43ea212e93bbf8ce046c7f1cb47561330d565b1115613e83575060108054600160a060020a031916736f485c8bf6fc43ea212e93bbf8ce046c7f1cb475179055600161119c565b6000613ea27320e12a1f859b3feae5fb2a0a32c18f5a65555bbf61330d565b1115613ed6575060108054600160a060020a0319167320e12a1f859b3feae5fb2a0a32c18f5a65555bbf179055600161119c565b6000613ef57351efaf4c8b3c9afbd5ab9f4bbc82784ab6ef8faa61330d565b1115613f29575060108054600160a060020a0319167351efaf4c8b3c9afbd5ab9f4bbc82784ab6ef8faa179055600161119c565b50600090565b81600582815481101515613f3f57fe5b906000526020600020906005020160008201518155602082015181600101556040820151816002015560608201518160030155608082015181600401908051611fde9291602001906141a0565b6012818051611c029291602001906141a0565b60206040519081016040526000815290565b60806040519081016040526004815b60008152600019919091019060200181613fc05790505090565b81546001816001161561010002031660029004825481601f106140355782601f1061401a575b826008026101000360020a80910402828001178355611265565b60ff1916836000526020600020558180016001018355611265565b82601f10614065575082600052602060002080549082601f016020900481019061405f919061420e565b50614000565b5081800160010183558181151161126557601f016020900481601f01602090048360005260206000209182019101611265919061420e565b8154818355818115116112655760008381526020902061126591810190830161420e565b828054600181600116156101000203166002900490600052602060002090601f016020900481019282601f106141025782800160ff1982351617855561412f565b8280016001018555821561412f579182015b8281111561412f578235825591602001919060010190614114565b5061413b92915061420e565b5090565b60a0604051908101604052806000815260200160008152602001600081526020016000815260200161416f613f9f565b905290565b815481835581811511611265576005028160050283600052602060002091820191016112659190614228565b828054600181600116156101000203166002900490600052602060002090601f016020900481019282601f106141e157805160ff191683800117855561412f565b8280016001018555821561412f579182015b8281111561412f5782518255916020019190600101906141f3565b61119c91905b8082111561413b5760008155600101614214565b61119c91905b8082111561413b57600080825560018201819055600282018190556003820181905561425d6004830182614266565b5060050161422e565b50805460018160011615610100020316600290046000825580601f1061428c57506111f7565b601f0160209004906000526020600020908101906111f7919061420e5600a165627a7a72305820fcdb92184f600b3fd2b61aa15153ba7210a29e8693c3adc5e96e4a3ee9ebf1020029",
  "source": "pragma solidity ^0.4.18;\n\nimport \"../fighter/FighterOwnership.sol\";\nimport \"./MarketplaceConfig.sol\";\nimport \"../lib/usingOraclize.sol\";\n\ncontract Marketplace is FighterOwnership, MarketplaceConfig, usingOraclize {\n  mapping(uint256 => Sale) public fighterIdToSale; // Storing of figher Ids against their sale Struct\n  mapping(uint256 => uint256) public fighterIdToBrawl; // Map of fighter Ids to their max health\n\n  event PurchaseSuccess(address buyer, uint price, uint fighterId, address seller);\n  event FightComplete(address winner, uint winnerId, address loser, uint loserId, uint fighterInArena);\n\n  event MarketplaceRemoval(address owner, uint fighterId);\n  event ArenaRemoval(address owner, uint fighterId);\n\n  event MarketplaceAdd(address owner, uint fighterId, uint price);\n  event ArenaAdd(address owner, uint fighterId);\n\n  event Test(string _string);\n\n  struct Combatant {\n    uint256 fighterId;\n    Fighter fighter;\n    uint256 damageModifier;\n  }\n\n  struct Sale {\n    uint256 fighterId;\n    uint256 price;\n  }\n\n  function getPriceForFighter(uint _fighterId) constant external returns (uint256) {\n    return fighterIdToSale[_fighterId].price;\n  }\n\n  function removeFighterFromSale(uint _fighterId) external {\n    require(_owns(msg.sender, _fighterId));\n    // Just double check we can actually remove a fighter before we go any further\n    require(_fighterIsForSale(_fighterId));\n\n    _removeFighterFromSale(_fighterId);\n    MarketplaceRemoval(msg.sender, _fighterId);\n  }\n\n  function removeFighterFromArena(uint _fighterId) external {\n    require(_owns(msg.sender, _fighterId));\n    // Just double check we can actually remove a fighter before we go any further\n    require(_fighterIsForBrawl(_fighterId));\n\n    _removeFighterFromArena(_fighterId);\n    ArenaRemoval(msg.sender, _fighterId);\n  }\n\n  function makeFighterAvailableForSale(uint _fighterId, uint _price) external {\n    require(_owns(msg.sender, _fighterId));\n    // Fighters can't be both for sale and open for brawling\n    require(!_fighterIsForBrawl(_fighterId));\n    require(_price > 0);\n\n    fighterIdToSale[_fighterId] = Sale({ fighterId: _fighterId, price: _price });\n    MarketplaceAdd(msg.sender, _fighterId, _price);\n  }\n\n  function makeFighterAvailableForBrawl(uint _fighterId) external {\n    require(_owns(msg.sender, _fighterId));\n    // Fighters can't be both for sale and open for brawling\n    require(!_fighterIsForSale(_fighterId));\n    // We don't want fighters being added twice\n    require(!_fighterIsForBrawl(_fighterId));\n\n    fighterIdToBrawl[_fighterId] = _fighterId;\n    ArenaAdd(msg.sender, _fighterId);\n  }\n\n  function buyFighter(uint _fighterId) external payable {\n    _makePurchase(_fighterId, msg.value);\n    _transfer(fighterIdToOwner[_fighterId], msg.sender, _fighterId);\n  }\n\n  function __callback(bytes32 queryId, string result) {\n    require(msg.sender == oraclize_cbAddress());\n\n    uint[] memory resultNumbers = splitStr(result, \"-\");\n    uint _winnerId = resultNumbers[0];\n    uint _loserId = resultNumbers[1];\n    uint _fighterInArena;\n\n    if (_fighterIsForBrawl(_winnerId)) {\n      _removeFighterFromArena(_winnerId);\n      _fighterInArena = _winnerId;\n    } else {\n      _fighterInArena = _loserId;\n      _removeFighterFromArena(_loserId);\n    }\n\n    _transfer(fighterIdToOwner[_loserId], fighterIdToOwner[_winnerId], _loserId);\n    FightComplete(fighterIdToOwner[_winnerId], _winnerId, fighterIdToOwner[_loserId], _loserId, _fighterInArena);\n  }\n\n  function fight(uint _attackerId, uint _defenderId) external payable costs(arenaCost) {\n    // fighter actually in the arena is always the defender\n    require(_fighterIsForBrawl(_defenderId));\n    // Make sure the challenger is actually sending the transaction\n    require(_owns(msg.sender, _attackerId));\n    // Also make sure that the challenger is not attacking his own fighter\n    require(!_owns(msg.sender, _defenderId));\n\n    string memory urlQuery = strConcat(\"/attacker/\", uint2str(_attackerId), \"/defender/\", uint2str(_defenderId));\n    string memory fullUrl = strConcat(\"json(\", combatEndpoint, urlQuery, \").outcomeString\");\n\n    oraclize_query(\"URL\", fullUrl, oraclizeGasLimit);\n  }\n\n  function _makePurchase(uint _fighterId, uint _price) internal {\n    require(!_owns(msg.sender, _fighterId));\n    require(_fighterIsForSale(_fighterId));\n    require(_price >= fighterIdToSale[_fighterId].price);\n\n    address sellerAddress = fighterIdToOwner[_fighterId];\n    _removeFighterFromSale(_fighterId);\n\n    uint saleCut = _calculateCut(_price);\n    uint totalSale = _price - saleCut;\n    sellerAddress.transfer(totalSale);\n\n    PurchaseSuccess(msg.sender, _price, _fighterId, sellerAddress);\n  }\n\n  function _calculateCut(uint _totalPrice) internal returns (uint) {\n    return ((_totalPrice / 100) * marketplaceCut);\n  }\n\n  function _fighterIsForSale(uint _fighterId) internal returns (bool) {\n    return (fighterIdToSale[_fighterId].price > 0);\n  }\n\n  function _fighterIsForBrawl(uint _fighterId) internal returns (bool) {\n    return (fighterIdToBrawl[_fighterId] > 0);\n  }\n\n  function _removeFighterFromSale(uint _fighterId) internal {\n    delete fighterIdToSale[_fighterId];\n  }\n\n  function _removeFighterFromArena(uint _fighterId) internal {\n    delete fighterIdToBrawl[_fighterId];\n  }\n}\n",
  "sourcePath": "/Users/kendalla/projects/cryptoclash/contracts/marketplace/Marketplace.sol",
  "compiler": {
    "name": "solc",
    "version": "0.4.19+commit.c4cbbb05.Emscripten.clang"
  },
  "schemaVersion": "1.0.1",
  "updatedAt": "2018-04-13T13:34:19.986Z"
}