{
  "contractName": "MarketplaceConfig",
  "abi": [
    {
      "constant": true,
      "inputs": [],
      "name": "oraclizeGasLimit",
      "outputs": [
        {
          "name": "",
          "type": "uint256"
        }
      ],
      "payable": false,
      "stateMutability": "view",
      "type": "function"
    },
    {
      "constant": true,
      "inputs": [],
      "name": "combatEndpoint",
      "outputs": [
        {
          "name": "",
          "type": "string"
        }
      ],
      "payable": false,
      "stateMutability": "view",
      "type": "function"
    },
    {
      "constant": true,
      "inputs": [],
      "name": "owner",
      "outputs": [
        {
          "name": "",
          "type": "address"
        }
      ],
      "payable": false,
      "stateMutability": "view",
      "type": "function"
    },
    {
      "constant": true,
      "inputs": [],
      "name": "marketplaceCut",
      "outputs": [
        {
          "name": "",
          "type": "uint256"
        }
      ],
      "payable": false,
      "stateMutability": "view",
      "type": "function"
    },
    {
      "constant": false,
      "inputs": [
        {
          "name": "newOwner",
          "type": "address"
        }
      ],
      "name": "transferOwnership",
      "outputs": [],
      "payable": false,
      "stateMutability": "nonpayable",
      "type": "function"
    },
    {
      "constant": false,
      "inputs": [
        {
          "name": "_newCut",
          "type": "uint256"
        }
      ],
      "name": "setNewMarketplaceCut",
      "outputs": [],
      "payable": false,
      "stateMutability": "nonpayable",
      "type": "function"
    },
    {
      "constant": false,
      "inputs": [],
      "name": "withdrawBalance",
      "outputs": [],
      "payable": false,
      "stateMutability": "nonpayable",
      "type": "function"
    },
    {
      "constant": false,
      "inputs": [
        {
          "name": "_recipient",
          "type": "address"
        }
      ],
      "name": "withdrawBalanceToAddress",
      "outputs": [],
      "payable": false,
      "stateMutability": "nonpayable",
      "type": "function"
    },
    {
      "constant": false,
      "inputs": [],
      "name": "killConract",
      "outputs": [],
      "payable": false,
      "stateMutability": "nonpayable",
      "type": "function"
    },
    {
      "constant": false,
      "inputs": [
        {
          "name": "newEndpoint",
          "type": "string"
        }
      ],
      "name": "setNewCombatEndpoint",
      "outputs": [],
      "payable": false,
      "stateMutability": "nonpayable",
      "type": "function"
    },
    {
      "constant": false,
      "inputs": [
        {
          "name": "newGas",
          "type": "uint256"
        }
      ],
      "name": "setNewOraclizeGasLimit",
      "outputs": [],
      "payable": false,
      "stateMutability": "nonpayable",
      "type": "function"
    }
  ],
  "bytecode": "0x60606040526005600155608060405190810160405280604381526020017f68747470733a2f2f72696e6b656279627261776c6261636b656e642e6865726f81526020017f6b756170702e636f6d2f6170692f6172656e612f63616c63756c61746557696e81526020017f6e65720000000000000000000000000000000000000000000000000000000000815250600290805161009f9291602001906100c7565b50620b71b060035560008054600160a060020a03191633600160a060020a0316179055610162565b828054600181600116156101000203166002900490600052602060002090601f016020900481019282601f1061010857805160ff1916838001178555610135565b82800160010185558215610135579182015b8281111561013557825182559160200191906001019061011a565b50610141929150610145565b5090565b61015f91905b80821115610141576000815560010161014b565b90565b610571806101716000396000f3006060604052600436106100ae5763ffffffff7c01000000000000000000000000000000000000000000000000000000006000350416631ba2101181146100b357806350b9c428146100d45780635fd8c710146100f9578063656aa88a1461010c5780636bbd3c971461012a5780638da5cb5b146101b4578063920b4a2d146101e3578063ad2dccfe146101f9578063c48f66f21461020c578063c7cffa0f1461021f578063f2fde38b14610235575b600080fd5b34156100be57600080fd5b6100d2600160a060020a0360043516610254565b005b34156100df57600080fd5b6100e76102af565b60405190815260200160405180910390f35b341561010457600080fd5b6100d26102b5565b341561011757600080fd5b6100d2600480356024810191013561030b565b341561013557600080fd5b61013d610337565b60405160208082528190810183818151815260200191508051906020019080838360005b83811015610179578082015183820152602001610161565b50505050905090810190601f1680156101a65780820380516001836020036101000a031916815260200191505b509250505060405180910390f35b34156101bf57600080fd5b6101c76103d5565b604051600160a060020a03909116815260200160405180910390f35b34156101ee57600080fd5b6100d26004356103e4565b341561020457600080fd5b6100e7610404565b341561021757600080fd5b6100d261040a565b341561022a57600080fd5b6100d2600435610433565b341561024057600080fd5b6100d2600160a060020a0360043516610453565b60005433600160a060020a0390811691161461026f57600080fd5b80600160a060020a03166108fc30600160a060020a0316319081150290604051600060405180830381858888f1935050505015156102ac57600080fd5b50565b60035481565b60005433600160a060020a039081169116146102d057600080fd5b600054600160a060020a039081169030163180156108fc0290604051600060405180830381858888f19350505050151561030957600080fd5b565b60005433600160a060020a0390811691161461032657600080fd5b610332600283836104aa565b505050565b60028054600181600116156101000203166002900480601f0160208091040260200160405190810160405280929190818152602001828054600181600116156101000203166002900480156103cd5780601f106103a2576101008083540402835291602001916103cd565b820191906000526020600020905b8154815290600101906020018083116103b057829003601f168201915b505050505081565b600054600160a060020a031681565b60005433600160a060020a039081169116146103ff57600080fd5b600155565b60015481565b60005433600160a060020a0390811691161461042557600080fd5b600054600160a060020a0316ff5b60005433600160a060020a0390811691161461044e57600080fd5b600355565b60005433600160a060020a0390811691161461046e57600080fd5b600160a060020a038116156102ac5760008054600160a060020a03831673ffffffffffffffffffffffffffffffffffffffff1990911617905550565b828054600181600116156101000203166002900490600052602060002090601f016020900481019282601f106104eb5782800160ff19823516178555610518565b82800160010185558215610518579182015b828111156105185782358255916020019190600101906104fd565b50610524929150610528565b5090565b61054291905b80821115610524576000815560010161052e565b905600a165627a7a72305820b558b199ee631df4ba8379b9a3cff2692538b9f4efd0d629bd47abc1d5da14ca0029",
  "source": "pragma solidity ^0.4.18;\n\nimport \"../base/Ownable.sol\";\n\ncontract MarketplaceConfig is Ownable {\n  uint public marketplaceCut = 5;\n  string public combatEndpoint = \"https://rinkebybrawlbackend.herokuapp.com/api/arena/calculateWinner\";\n  uint public oraclizeGasLimit = 750000;\n\n  function setNewMarketplaceCut(uint _newCut) external onlyOwner {\n    marketplaceCut = _newCut;\n  }\n\n  function withdrawBalance() external onlyOwner {\n    owner.transfer(this.balance);\n  }\n\n  function withdrawBalanceToAddress(address _recipient) external onlyOwner {\n    _recipient.transfer(this.balance);\n  }\n\n  function killConract() external onlyOwner {\n    selfdestruct(owner);\n  }\n\n  function setNewCombatEndpoint(string newEndpoint) external onlyOwner {\n    combatEndpoint = newEndpoint;\n  }\n\n  function setNewOraclizeGasLimit(uint newGas) external onlyOwner {\n    oraclizeGasLimit = newGas;\n  }\n}\n",
  "sourcePath": "/Users/Aaron/Projects/cryptoclash/contracts/marketplace/MarketplaceConfig.sol",
  "compiler": {
    "name": "solc",
    "version": "0.4.19+commit.c4cbbb05.Emscripten.clang"
  },
  "schemaVersion": "1.0.1",
  "updatedAt": "2018-04-16T19:58:19.952Z"
}