{
  "contractName": "Marketplace",
  "abi": [
    {
      "constant": true,
      "inputs": [
        {
          "name": "_interfaceID",
          "type": "bytes4"
        }
      ],
      "name": "supportsInterface",
      "outputs": [
        {
          "name": "",
          "type": "bool"
        }
      ],
      "payable": false,
      "stateMutability": "view",
      "type": "function"
    },
    {
      "constant": true,
      "inputs": [
        {
          "name": "",
          "type": "address"
        }
      ],
      "name": "fighterCountForOwner",
      "outputs": [
        {
          "name": "",
          "type": "uint256"
        }
      ],
      "payable": false,
      "stateMutability": "view",
      "type": "function"
    },
    {
      "constant": true,
      "inputs": [
        {
          "name": "_tokenId",
          "type": "uint256"
        },
        {
          "name": "_preferredTransport",
          "type": "string"
        }
      ],
      "name": "tokenMetadata",
      "outputs": [
        {
          "name": "infoUrl",
          "type": "string"
        }
      ],
      "payable": false,
      "stateMutability": "view",
      "type": "function"
    },
    {
      "constant": true,
      "inputs": [],
      "name": "name",
      "outputs": [
        {
          "name": "",
          "type": "string"
        }
      ],
      "payable": false,
      "stateMutability": "view",
      "type": "function"
    },
    {
      "constant": false,
      "inputs": [
        {
          "name": "_to",
          "type": "address"
        },
        {
          "name": "_tokenId",
          "type": "uint256"
        }
      ],
      "name": "approve",
      "outputs": [],
      "payable": false,
      "stateMutability": "nonpayable",
      "type": "function"
    },
    {
      "constant": true,
      "inputs": [],
      "name": "totalSupply",
      "outputs": [
        {
          "name": "",
          "type": "uint256"
        }
      ],
      "payable": false,
      "stateMutability": "view",
      "type": "function"
    },
    {
      "constant": false,
      "inputs": [
        {
          "name": "_recipient",
          "type": "address"
        }
      ],
      "name": "withdrawBalanceToAddress",
      "outputs": [],
      "payable": false,
      "stateMutability": "nonpayable",
      "type": "function"
    },
    {
      "constant": false,
      "inputs": [
        {
          "name": "_from",
          "type": "address"
        },
        {
          "name": "_to",
          "type": "address"
        },
        {
          "name": "_tokenId",
          "type": "uint256"
        }
      ],
      "name": "transferFrom",
      "outputs": [],
      "payable": false,
      "stateMutability": "nonpayable",
      "type": "function"
    },
    {
      "constant": true,
      "inputs": [
        {
          "name": "_fighterId",
          "type": "uint256"
        }
      ],
      "name": "getPriceForFighter",
      "outputs": [
        {
          "name": "",
          "type": "uint256"
        }
      ],
      "payable": false,
      "stateMutability": "view",
      "type": "function"
    },
    {
      "constant": false,
      "inputs": [
        {
          "name": "_recipient",
          "type": "address"
        },
        {
          "name": "_maxHealth",
          "type": "uint256"
        },
        {
          "name": "_speed",
          "type": "uint256"
        },
        {
          "name": "_strength",
          "type": "uint256"
        }
      ],
      "name": "customOwnerCreation",
      "outputs": [],
      "payable": false,
      "stateMutability": "nonpayable",
      "type": "function"
    },
    {
      "constant": false,
      "inputs": [
        {
          "name": "_fighterId",
          "type": "uint256"
        },
        {
          "name": "_attribute",
          "type": "string"
        },
        {
          "name": "_seed",
          "type": "uint256"
        }
      ],
      "name": "trainFighter",
      "outputs": [],
      "payable": true,
      "stateMutability": "payable",
      "type": "function"
    },
    {
      "constant": false,
      "inputs": [
        {
          "name": "newProbability",
          "type": "uint256"
        }
      ],
      "name": "setFighterCreationChance",
      "outputs": [],
      "payable": false,
      "stateMutability": "nonpayable",
      "type": "function"
    },
    {
      "constant": true,
      "inputs": [
        {
          "name": "",
          "type": "uint256"
        }
      ],
      "name": "fighterIdToApproved",
      "outputs": [
        {
          "name": "",
          "type": "address"
        }
      ],
      "payable": false,
      "stateMutability": "view",
      "type": "function"
    },
    {
      "constant": false,
      "inputs": [
        {
          "name": "newFactor",
          "type": "uint256"
        }
      ],
      "name": "setTrainingFactor",
      "outputs": [],
      "payable": false,
      "stateMutability": "nonpayable",
      "type": "function"
    },
    {
      "constant": true,
      "inputs": [
        {
          "name": "",
          "type": "uint256"
        }
      ],
      "name": "fighterIdToOwner",
      "outputs": [
        {
          "name": "",
          "type": "address"
        }
      ],
      "payable": false,
      "stateMutability": "view",
      "type": "function"
    },
    {
      "constant": false,
      "inputs": [
        {
          "name": "_fighterId",
          "type": "uint256"
        }
      ],
      "name": "getInfoForFighter",
      "outputs": [
        {
          "components": [
            {
              "name": "maxHealth",
              "type": "uint256"
            },
            {
              "name": "health",
              "type": "uint256"
            },
            {
              "name": "speed",
              "type": "uint256"
            },
            {
              "name": "strength",
              "type": "uint256"
            }
          ],
          "name": "",
          "type": "tuple"
        }
      ],
      "payable": false,
      "stateMutability": "nonpayable",
      "type": "function"
    },
    {
      "constant": false,
      "inputs": [
        {
          "name": "_fighterId",
          "type": "uint256"
        }
      ],
      "name": "removeFighterFromSale",
      "outputs": [],
      "payable": false,
      "stateMutability": "nonpayable",
      "type": "function"
    },
    {
      "constant": false,
      "inputs": [],
      "name": "withdrawBalance",
      "outputs": [],
      "payable": false,
      "stateMutability": "nonpayable",
      "type": "function"
    },
    {
      "constant": true,
      "inputs": [
        {
          "name": "_tokenId",
          "type": "uint256"
        }
      ],
      "name": "ownerOf",
      "outputs": [
        {
          "name": "owner",
          "type": "address"
        }
      ],
      "payable": false,
      "stateMutability": "view",
      "type": "function"
    },
    {
      "constant": false,
      "inputs": [
        {
          "name": "_fighterId",
          "type": "uint256"
        }
      ],
      "name": "removeFighterFromArena",
      "outputs": [],
      "payable": false,
      "stateMutability": "nonpayable",
      "type": "function"
    },
    {
      "constant": true,
      "inputs": [],
      "name": "trainingCost",
      "outputs": [
        {
          "name": "",
          "type": "uint256"
        }
      ],
      "payable": false,
      "stateMutability": "view",
      "type": "function"
    },
    {
      "constant": true,
      "inputs": [
        {
          "name": "_owner",
          "type": "address"
        }
      ],
      "name": "balanceOf",
      "outputs": [
        {
          "name": "count",
          "type": "uint256"
        }
      ],
      "payable": false,
      "stateMutability": "view",
      "type": "function"
    },
    {
      "constant": false,
      "inputs": [
        {
          "name": "_recipient",
          "type": "address"
        },
        {
          "name": "_seed",
          "type": "uint256"
        }
      ],
      "name": "ownerCreation",
      "outputs": [],
      "payable": false,
      "stateMutability": "nonpayable",
      "type": "function"
    },
    {
      "constant": true,
      "inputs": [
        {
          "name": "_owner",
          "type": "address"
        }
      ],
      "name": "tokensOfOwner",
      "outputs": [
        {
          "name": "ownerTokens",
          "type": "uint256[]"
        }
      ],
      "payable": false,
      "stateMutability": "view",
      "type": "function"
    },
    {
      "constant": true,
      "inputs": [],
      "name": "owner",
      "outputs": [
        {
          "name": "",
          "type": "address"
        }
      ],
      "payable": false,
      "stateMutability": "view",
      "type": "function"
    },
    {
      "constant": true,
      "inputs": [
        {
          "name": "",
          "type": "uint256"
        }
      ],
      "name": "fightersInMarket",
      "outputs": [
        {
          "name": "",
          "type": "uint256"
        }
      ],
      "payable": false,
      "stateMutability": "view",
      "type": "function"
    },
    {
      "constant": false,
      "inputs": [
        {
          "name": "_newCut",
          "type": "uint256"
        }
      ],
      "name": "setNewMarketplaceCut",
      "outputs": [],
      "payable": false,
      "stateMutability": "nonpayable",
      "type": "function"
    },
    {
      "constant": true,
      "inputs": [],
      "name": "symbol",
      "outputs": [
        {
          "name": "",
          "type": "string"
        }
      ],
      "payable": false,
      "stateMutability": "view",
      "type": "function"
    },
    {
      "constant": false,
      "inputs": [
        {
          "name": "newCost",
          "type": "uint256"
        }
      ],
      "name": "setNewTrainingCost",
      "outputs": [],
      "payable": false,
      "stateMutability": "nonpayable",
      "type": "function"
    },
    {
      "constant": false,
      "inputs": [
        {
          "name": "_to",
          "type": "address"
        },
        {
          "name": "_tokenId",
          "type": "uint256"
        }
      ],
      "name": "transfer",
      "outputs": [],
      "payable": false,
      "stateMutability": "nonpayable",
      "type": "function"
    },
    {
      "constant": true,
      "inputs": [],
      "name": "marketplaceCut",
      "outputs": [
        {
          "name": "",
          "type": "uint256"
        }
      ],
      "payable": false,
      "stateMutability": "view",
      "type": "function"
    },
    {
      "constant": true,
      "inputs": [],
      "name": "trainingFactor",
      "outputs": [
        {
          "name": "",
          "type": "uint256"
        }
      ],
      "payable": false,
      "stateMutability": "view",
      "type": "function"
    },
    {
      "constant": false,
      "inputs": [
        {
          "name": "_fighterId",
          "type": "uint256"
        },
        {
          "name": "_price",
          "type": "uint256"
        }
      ],
      "name": "makeFighterAvailableForSale",
      "outputs": [],
      "payable": false,
      "stateMutability": "nonpayable",
      "type": "function"
    },
    {
      "constant": true,
      "inputs": [
        {
          "name": "",
          "type": "uint256"
        }
      ],
      "name": "fightersInArena",
      "outputs": [
        {
          "name": "",
          "type": "uint256"
        }
      ],
      "payable": false,
      "stateMutability": "view",
      "type": "function"
    },
    {
      "constant": true,
      "inputs": [],
      "name": "erc721Metadata",
      "outputs": [
        {
          "name": "",
          "type": "address"
        }
      ],
      "payable": false,
      "stateMutability": "view",
      "type": "function"
    },
    {
      "constant": true,
      "inputs": [],
      "name": "getFightersForSale",
      "outputs": [
        {
          "name": "",
          "type": "uint256[]"
        }
      ],
      "payable": false,
      "stateMutability": "view",
      "type": "function"
    },
    {
      "constant": false,
      "inputs": [],
      "name": "killConract",
      "outputs": [],
      "payable": false,
      "stateMutability": "nonpayable",
      "type": "function"
    },
    {
      "constant": false,
      "inputs": [
        {
          "name": "_fighterId",
          "type": "uint256"
        }
      ],
      "name": "buyFighter",
      "outputs": [],
      "payable": true,
      "stateMutability": "payable",
      "type": "function"
    },
    {
      "constant": false,
      "inputs": [
        {
          "name": "_contractAddress",
          "type": "address"
        }
      ],
      "name": "setMetadataAddress",
      "outputs": [],
      "payable": false,
      "stateMutability": "nonpayable",
      "type": "function"
    },
    {
      "constant": false,
      "inputs": [
        {
          "name": "_fighterId",
          "type": "uint256"
        }
      ],
      "name": "makeFighterAvailableForBrawl",
      "outputs": [],
      "payable": false,
      "stateMutability": "nonpayable",
      "type": "function"
    },
    {
      "constant": false,
      "inputs": [
        {
          "name": "_fighterId",
          "type": "uint256"
        }
      ],
      "name": "healFighter",
      "outputs": [],
      "payable": false,
      "stateMutability": "nonpayable",
      "type": "function"
    },
    {
      "constant": false,
      "inputs": [
        {
          "name": "newOwner",
          "type": "address"
        }
      ],
      "name": "transferOwnership",
      "outputs": [],
      "payable": false,
      "stateMutability": "nonpayable",
      "type": "function"
    },
    {
      "constant": true,
      "inputs": [],
      "name": "chanceOfFighterCreation",
      "outputs": [
        {
          "name": "",
          "type": "uint256"
        }
      ],
      "payable": false,
      "stateMutability": "view",
      "type": "function"
    },
    {
      "constant": true,
      "inputs": [],
      "name": "getFightersInArena",
      "outputs": [
        {
          "name": "",
          "type": "uint256[]"
        }
      ],
      "payable": false,
      "stateMutability": "view",
      "type": "function"
    },
    {
      "constant": false,
      "inputs": [
        {
          "name": "_attackerId",
          "type": "uint256"
        },
        {
          "name": "_defenderId",
          "type": "uint256"
        },
        {
          "name": "_seed",
          "type": "uint256"
        }
      ],
      "name": "fight",
      "outputs": [],
      "payable": false,
      "stateMutability": "nonpayable",
      "type": "function"
    },
    {
      "constant": false,
      "inputs": [
        {
          "name": "_seed",
          "type": "uint256"
        }
      ],
      "name": "searchForFighter",
      "outputs": [
        {
          "name": "fighterFound",
          "type": "bool"
        }
      ],
      "payable": false,
      "stateMutability": "nonpayable",
      "type": "function"
    },
    {
      "anonymous": false,
      "inputs": [
        {
          "indexed": false,
          "name": "_buyer",
          "type": "address"
        },
        {
          "indexed": false,
          "name": "_price",
          "type": "uint256"
        },
        {
          "indexed": false,
          "name": "_fighterId",
          "type": "uint256"
        }
      ],
      "name": "PurchaseSuccess",
      "type": "event"
    },
    {
      "anonymous": false,
      "inputs": [
        {
          "indexed": false,
          "name": "_winner",
          "type": "address"
        },
        {
          "indexed": false,
          "name": "_winnerId",
          "type": "uint256"
        }
      ],
      "name": "FightComplete",
      "type": "event"
    },
    {
      "anonymous": false,
      "inputs": [
        {
          "indexed": false,
          "name": "from",
          "type": "address"
        },
        {
          "indexed": false,
          "name": "to",
          "type": "address"
        },
        {
          "indexed": false,
          "name": "tokenId",
          "type": "uint256"
        }
      ],
      "name": "Transfer",
      "type": "event"
    },
    {
      "anonymous": false,
      "inputs": [
        {
          "indexed": false,
          "name": "owner",
          "type": "address"
        },
        {
          "indexed": false,
          "name": "approved",
          "type": "address"
        },
        {
          "indexed": false,
          "name": "tokenId",
          "type": "uint256"
        }
      ],
      "name": "Approval",
      "type": "event"
    },
    {
      "anonymous": false,
      "inputs": [
        {
          "indexed": false,
          "name": "owner",
          "type": "address"
        },
        {
          "indexed": false,
          "name": "fighterId",
          "type": "uint256"
        }
      ],
      "name": "Creation",
      "type": "event"
    },
    {
      "anonymous": false,
      "inputs": [
        {
          "indexed": false,
          "name": "owner",
          "type": "address"
        },
        {
          "indexed": false,
          "name": "fighterId",
          "type": "uint256"
        },
        {
          "indexed": false,
          "name": "attribute",
          "type": "string"
        },
        {
          "indexed": false,
          "name": "increaseValue",
          "type": "uint256"
        }
      ],
      "name": "AttributeIncrease",
      "type": "event"
    },
    {
      "anonymous": false,
      "inputs": [
        {
          "indexed": false,
          "name": "owner",
          "type": "address"
        },
        {
          "indexed": false,
          "name": "fighterId",
          "type": "uint256"
        }
      ],
      "name": "Healed",
      "type": "event"
    },
    {
      "anonymous": false,
      "inputs": [
        {
          "indexed": false,
          "name": "fighterWasFound",
          "type": "bool"
        }
      ],
      "name": "FighterFound",
      "type": "event"
    }
  ],
  "bytecode": "0x6060604052600360018190556002819055662386f26fc100009055600560095560008054600160a060020a033316600160a060020a031990911617905561251e8061004b6000396000f30060606040526004361061022f5763ffffffff7c010000000000000000000000000000000000000000000000000000000060003504166301ffc9a78114610234578063027f48f7146102805780630560ff44146102b157806306fdde031461034a578063095ea7b31461035d57806318160ddd146103815780631ba210111461039457806323b872dd146103b3578063241860aa146103db5780633b61d9fa146103f15780633f40d2881461041957806340e4e0481461043357806344e59ee914610449578063495ac3a81461047b5780634b193933146104915780634c67899b146104a757806354c3bfa1146104bd5780635fd8c710146104d35780636352211e146104e6578063641e3aae146104fc578063701a19fd1461051257806370a08231146105255780638053e5d8146105445780638462151c146105665780638da5cb5b146105d857806390cf201c146105eb578063920b4a2d1461060157806395d89b4114610617578063a5557ce01461062a578063a9059cbb14610640578063ad2dccfe14610662578063b64ce34a14610675578063b6e5706414610688578063b7dc761e146106a1578063bc4006f5146106b7578063c38ee211146106ca578063c48f66f2146106dd578063cbb5bbbf146106f0578063e17b25af146106fb578063e88f4f1f1461071a578063efbeef8014610730578063f2fde38b14610746578063f36014d214610765578063f65bd95314610778578063f669ddaf1461078b578063f6a67716146107a7575b600080fd5b341561023f57600080fd5b61026c7fffffffff00000000000000000000000000000000000000000000000000000000600435166107bd565b604051901515815260200160405180910390f35b341561028b57600080fd5b61029f600160a060020a0360043516610a44565b60405190815260200160405180910390f35b34156102bc57600080fd5b6102d3600480359060248035908101910135610a56565b60405160208082528190810183818151815260200191508051906020019080838360005b8381101561030f5780820151838201526020016102f7565b50505050905090810190601f16801561033c5780820380516001836020036101000a031916815260200191505b509250505060405180910390f35b341561035557600080fd5b6102d3610b4c565b341561036857600080fd5b61037f600160a060020a0360043516602435610b83565b005b341561038c57600080fd5b61029f610bf6565b341561039f57600080fd5b61037f600160a060020a0360043516610bfd565b34156103be57600080fd5b61037f600160a060020a0360043581169060243516604435610c58565b34156103e657600080fd5b61029f600435610cc8565b34156103fc57600080fd5b61037f600160a060020a0360043516602435604435606435610cec565b61037f600480359060248035908101910135604435610d1a565b341561043e57600080fd5b61037f600435610d98565b341561045457600080fd5b61045f600435610db8565b604051600160a060020a03909116815260200160405180910390f35b341561048657600080fd5b61037f600435610dd3565b341561049c57600080fd5b61045f600435610df3565b34156104b257600080fd5b61029f600435610e0e565b34156104c857600080fd5b61037f600435610e67565b34156104de57600080fd5b61037f610e99565b34156104f157600080fd5b61045f600435610eef565b341561050757600080fd5b61037f600435610f13565b341561051d57600080fd5b61029f610f45565b341561053057600080fd5b61029f600160a060020a0360043516610f4b565b341561054f57600080fd5b61037f600160a060020a0360043516602435610f66565b341561057157600080fd5b610585600160a060020a0360043516610fa7565b60405160208082528190810183818151815260200191508051906020019060200280838360005b838110156105c45780820151838201526020016105ac565b505050509050019250505060405180910390f35b34156105e357600080fd5b61045f611088565b34156105f657600080fd5b61029f600435611097565b341561060c57600080fd5b61037f6004356110b6565b341561062257600080fd5b6102d36110d6565b341561063557600080fd5b61037f60043561110d565b341561064b57600080fd5b61037f600160a060020a036004351660243561112d565b341561066d57600080fd5b61029f611187565b341561068057600080fd5b61029f61118d565b341561069357600080fd5b61037f600435602435611193565b34156106ac57600080fd5b61029f6004356111e8565b34156106c257600080fd5b61045f6111f6565b34156106d557600080fd5b610585611205565b34156106e857600080fd5b61037f611263565b61037f60043561128c565b341561070657600080fd5b61037f600160a060020a03600435166112b9565b341561072557600080fd5b61037f6004356112e8565b341561073b57600080fd5b61037f60043561134e565b341561075157600080fd5b61037f600160a060020a036004351661136c565b341561077057600080fd5b61029f6113c3565b341561078357600080fd5b6105856113c9565b341561079657600080fd5b61037f600435602435604435611425565b34156107b257600080fd5b61026c60043561151d565b60006040517f737570706f727473496e7465726661636528627974657334290000000000000081526019016040518091039020600160e060020a03191682600160e060020a0319161480610a3c57506040517f746f6b656e4d657461646174612875696e743235362c737472696e67290000008152601d0160405180910390206040517f746f6b656e734f664f776e657228616464726573732900000000000000000000815260160160405180910390206040517f7472616e7366657246726f6d28616464726573732c616464726573732c75696e81527f7432353629000000000000000000000000000000000000000000000000000000602082015260250160405180910390206040517f7472616e7366657228616464726573732c75696e743235362900000000000000815260190160405180910390206040517f617070726f766528616464726573732c75696e74323536290000000000000000815260180160405180910390206040517f6f776e65724f662875696e743235362900000000000000000000000000000000815260100160405180910390206040517f62616c616e63654f662861646472657373290000000000000000000000000000815260120160405180910390206040517f746f74616c537570706c792829000000000000000000000000000000000000008152600d0160405180910390206040517f73796d626f6c2829000000000000000000000000000000000000000000000000815260080160405180910390206040517f6e616d652829000000000000000000000000000000000000000000000000000081526006016040518091039020181818181818181818600160e060020a03191682600160e060020a031916145b90505b919050565b60056020526000908152604090205481565b610a5e612412565b610a66612424565b600854600090600160a060020a03161515610a8057600080fd5b600854600160a060020a031663cb4799f2878787600060405160a001526040517c010000000000000000000000000000000000000000000000000000000063ffffffff861602815260048101848152604060248301908152604483018490529091606401848480828437820191505094505050505060a060405180830381600087803b1515610b0e57600080fd5b6102c65a03f11515610b1f57600080fd5b50505060405180608001805160209091016040529092509050610b4282826115e8565b9695505050505050565b60408051908101604052600e81527f43727970746f427261776c657273000000000000000000000000000000000000602082015281565b610b8d338261163d565b1515610b9857600080fd5b610ba2818361165d565b7f8c5be1e5ebec7d5bd14f71427d1e84f3dd0314c0f7b2291e5b200ac8c7c3b925338383604051600160a060020a039384168152919092166020820152604080820192909252606001905180910390a15050565b6004545b90565b60005433600160a060020a03908116911614610c1857600080fd5b80600160a060020a03166108fc30600160a060020a0316319081150290604051600060405180830381858888f193505050501515610c5557600080fd5b50565b600160a060020a0382161515610c6d57600080fd5b30600160a060020a031682600160a060020a031614151515610c8e57600080fd5b610c983382611698565b1515610ca357600080fd5b610cad838261163d565b1515610cb857600080fd5b610cc38383836116b8565b505050565b6000600a82815481101515610cd957fe5b9060005260206000209001549050919050565b60005433600160a060020a03908116911614610d0757600080fd5b610d13838383876117a7565b5050505050565b60006003548034101515610d9057610d32338761163d565b1515610d3d57600080fd5b600254610d4984611886565b811515610d5257fe5b049150610d908686868080601f0160208091040260200160405190810160405281815292919060208401838380828437508994506118c69350505050565b505050505050565b60005433600160a060020a03908116911614610db357600080fd5b600155565b600760205260009081526040902054600160a060020a031681565b60005433600160a060020a03908116911614610dee57600080fd5b600255565b600660205260009081526040902054600160a060020a031681565b610e1661244d565b6004805483908110610e2457fe5b9060005260206000209060040201608060405190810160409081528254825260018301546020830152600283015490820152600390910154606082015292915050565b610e71338261163d565b1515610e7c57600080fd5b610e8581611aab565b1515610e9057600080fd5b610c5581611ad1565b60005433600160a060020a03908116911614610eb457600080fd5b600054600160a060020a039081169030163180156108fc0290604051600060405180830381858888f193505050501515610eed57600080fd5b565b600081815260066020526040902054600160a060020a0316801515610a3f57600080fd5b610f1d338261163d565b1515610f2857600080fd5b610f3181611aed565b1515610f3c57600080fd5b610c5581611aff565b60035481565b600160a060020a031660009081526005602052604090205490565b60008054819033600160a060020a03908116911614610f8457600080fd5b610f8d83611886565b9150610f9883611886565b9050610d13600a8383876117a7565b610faf612412565b6000806000610fbc612412565b6000610fc787610f4b565b9450841515610ff7576000604051805910610fdf5750595b9080825280602002602001820160405250955061107e565b60009350611003610bf6565b9250846040518059106110135750595b90808252806020026020018201604052509150600190505b82811161107a57600081815260066020526040902054600160a060020a0388811691161415611072578082858151811061106157fe5b602090810290910101526001909301925b60010161102b565b8195505b5050505050919050565b600054600160a060020a031681565b600a8054829081106110a557fe5b600091825260209091200154905081565b60005433600160a060020a039081169116146110d157600080fd5b600955565b60408051908101604052600481527f4252574c00000000000000000000000000000000000000000000000000000000602082015281565b60005433600160a060020a0390811691161461112857600080fd5b600355565b600160a060020a038216151561114257600080fd5b30600160a060020a031682600160a060020a03161415151561116357600080fd5b61116d338261163d565b151561117857600080fd5b6111833383836116b8565b5050565b60095481565b60025481565b61119d338361163d565b15156111a857600080fd5b6111b182611aed565b156111bb57600080fd5b600081116111c857600080fd5b80600a838154811015156111d857fe5b6000918252602090912001555050565b600b8054829081106110a557fe5b600854600160a060020a031681565b61120d612412565b600a80548060200260200160405190810160405280929190818152602001828054801561125957602002820191906000526020600020905b815481526020019060010190808311611245575b5050505050905090565b60005433600160a060020a0390811691161461127e57600080fd5b600054600160a060020a0316ff5b6112968134611b0d565b600081815260066020526040902054610c5590600160a060020a031633836116b8565b6008805473ffffffffffffffffffffffffffffffffffffffff1916600160a060020a0392909216919091179055565b6112f2338261163d565b15156112fd57600080fd5b61130681611aab565b1561131057600080fd5b600480548290811061131e57fe5b906000526020600020906004020160000154600b8281548110151561133f57fe5b60009182526020909120015550565b611358338261163d565b151561136357600080fd5b610c5581611c0f565b60005433600160a060020a0390811691161461138757600080fd5b600160a060020a03811615610c555760008054600160a060020a03831673ffffffffffffffffffffffffffffffffffffffff1990911617905550565b60015481565b6113d1612412565b600b8054806020026020016040519081016040528092919081815260200182805480156112595760200282019190600052602060002090815481526020019060010190808311611245575050505050905090565b61142d612476565b60008061143985611aed565b151561144457600080fd5b61144e338761163d565b151561145957600080fd5b611464868686611c19565b9250825191506020830151905061147a81611aed565b156114885761148881611aff565b600081815260066020526040808220548483529120546114b591600160a060020a039081169116836116b8565b60008281526006602052604090819020547f3d6738b58dc42b8b9e1018be879243c73ce97814f92f989514ded9bd5dcb4cfa91600160a060020a0390911690849051600160a060020a03909216825260208201526040908101905180910390a1505050505050565b60008060008061152c85611da9565b92506001548381151561153b57fe5b0615156115a55761154b85611886565b915061155685611886565b9050611565600a8383336117a7565b507f7ebb470024e5eee1d5ff9ccf7830ab34657fb753526f8a9e99c50452cc06ead56001604051901515815260200160405180910390a1600193506115e0565b7f7ebb470024e5eee1d5ff9ccf7830ab34657fb753526f8a9e99c50452cc06ead56000604051901515815260200160405180910390a1600093505b505050919050565b6115f0612412565b6115f8612412565b600080846040518059106116095750595b818152601f19601f8301168101602001604052905092505060208201905084611633828287611dd5565b5090949350505050565b600090815260066020526040902054600160a060020a0391821691161490565b600091825260076020526040909120805473ffffffffffffffffffffffffffffffffffffffff1916600160a060020a03909216919091179055565b600090815260076020526040902054600160a060020a0391821691161490565b600160a060020a0380831660008181526005602090815260408083208054600101905585835260069091529020805473ffffffffffffffffffffffffffffffffffffffff19169091179055831615611752576000818152600760209081526040808320805473ffffffffffffffffffffffffffffffffffffffff19169055600160a060020a03861683526005909152902080546000190190555b7fddf252ad1be2c89b69c2b068fc378daa952ba7f163c4a11628f55a4df523b3ef838383604051600160a060020a039384168152919092166020820152604080820192909252606001905180910390a1505050565b60006117b161244d565b60006080604051908101604052808881526020018881526020018781526020018681525091506001600480548060010182816117ed919061249c565b6000928352602090922085916004020181518155602082015181600101556040820151816002015560608201516003909101555003905063ffffffff8116811461183657600080fd5b7fc07d6fc5db170f8be7da51bea7bf502fb674192c618536ee210555994694b0b78482604051600160a060020a03909216825260208201526040908101905180910390a1610b42600085836116b8565b600080600a6001430340846040519182526020820152604090810190519081900390208115156118b257fe5b0690508015156118c0576001015b92915050565b6040517f6d61784865616c746800000000000000000000000000000000000000000000008152600901604051908190039020826040518082805190602001908083835b602083106119285780518252601f199092019160209182019101611909565b6001836020036101000a0380198251168184511617909252505050919091019250604091505051908190039020141561196b57611966838233611e1a565b610cc3565b6040517f737472656e6774680000000000000000000000000000000000000000000000008152600801604051908190039020826040518082805190602001908083835b602083106119cd5780518252601f1990920191602091820191016119ae565b6001836020036101000a03801982511681845116179092525050509190910192506040915050519081900390201415611a0b57611966838233611f0c565b6040517f73706565640000000000000000000000000000000000000000000000000000008152600501604051908190039020826040518082805190602001908083835b60208310611a6d5780518252601f199092019160209182019101611a4e565b6001836020036101000a03801982511681845116179092525050509190910192506040915050519081900390201415610cc357610cc3838233611ffa565b600080600a83815481101515611abd57fe5b906000526020600020900154119050919050565b600a805482908110611adf57fe5b600091825260208220015550565b600080600b83815481101515611abd57fe5b600b805482908110611adf57fe5b6000806000611b1b85611aab565b1515611b2657600080fd5b600a805486908110611b3457fe5b600091825260209091200154841015611b4c57600080fd5b600085815260066020526040902054600160a060020a03169250611b6f85611ad1565b611b78846120e7565b915050808303600160a060020a03831681156108fc0282604051600060405180830381858888f193505050501515611baf57600080fd5b7f9ae15b9678dec12e7a6cf4b0046777058c2fcaf18d7868cbc354defb79981f903385876040518084600160a060020a0316600160a060020a03168152602001838152602001828152602001935050505060405180910390a15050505050565b610c5581336120f3565b611c21612476565b611c29612412565b611c3161244d565b611c3961244d565b6004805488908110611c4757fe5b90600052602060002090600402016080604051908101604090815282548252600183015460208301526002830154908201526003909101546060820152600480549193509087908110611c9657fe5b906000526020600020906004020160806040519081016040908152825482526001830154602083015260028301548183015260039092015460608201529150820151816040015110611d3d57604080519081016040528681526020810182905283600081518110611d0357fe5b60209081029091010152604080519081016040528781526020810183905283600181518110611d2e57fe5b60209081029091010152611d94565b604080519081016040528781526020810183905283600081518110611d5e57fe5b60209081029091010152604080519081016040528681526020810182905283600181518110611d8957fe5b602090810290910101525b611d9e8386612198565b979650505050505050565b60008060646001430340846040519182526020820152604090810190519081900390208115156118b257fe5b60005b60208210611dfb5782518452602084019350602083019250602082039150611dd8565b6001826020036101000a03905080198351168185511617909352505050565b611e2261244d565b6004805485908110611e3057fe5b906000526020600020906004020160806040519081016040908152825482526001830154602083015260028301549082015260039091015460608201529050828181815101905250805160208201527fca04611e80f005feb5aafd7553030c696e4de100604c325926807c6cbda6a7c382856001604051600160a060020a0390931683526020830191909152606082015260806040808301829052600a918301919091527f4d6178204865616c74680000000000000000000000000000000000000000000060a083015260c0909101905180910390a150505050565b611f1461244d565b6004805485908110611f2257fe5b9060005260206000209060040201608060405190810160409081528254825260018301546020830152600283015490820152600390910154606082019081529091508390818151019052507fca04611e80f005feb5aafd7553030c696e4de100604c325926807c6cbda6a7c382856001604051600160a060020a03909316835260208301919091526060820152608060408083018290526008918301919091527f537472656e67746800000000000000000000000000000000000000000000000060a083015260c0909101905180910390a150505050565b61200261244d565b600480548590811061201057fe5b90600052602060002090600402016080604051908101604090815282548252600183015460208301526002830154908201908152600390920154606082015291508390818151019052507fca04611e80f005feb5aafd7553030c696e4de100604c325926807c6cbda6a7c382856001604051600160a060020a03909316835260208301919091526060820152608060408083018290526005918301919091527f537065656400000000000000000000000000000000000000000000000000000060a083015260c0909101905180910390a150505050565b60095460649091040290565b6120fb61244d565b600480548490811061210957fe5b906000526020600020906004020160806040519081016040908152825482526001830154602083015260028301549082015260039091015460608201529050805160208201527fb714a55d7bb8d35d8cf25c68ae8435a49a2faaffa841fcb1303d75dbf0a905688284604051600160a060020a03909216825260208201526040908101905180910390a1505050565b6121a0612476565b6121a8612476565b6000806000805b6000886000815181106121be57fe5b9060200190602002015160200151602001511180156121fb57506000886001815181106121e757fe5b906020019060200201516020015160200151115b156123c2578760008151811061220d57fe5b906020019060200201516020015160600151612228886123f5565b0293508760018151811061223857fe5b906020019060200201516020015160400151612253886123f5565b02925082841115612287578284038860018151811061226e57fe5b9060200190602002015160200151602001818151039052505b60008860018151811061229657fe5b906020019060200201516020015160200151116122e957876000815181106122ba57fe5b90602001906020020151518552876001815181106122d457fe5b906020019060200201515160208601526123c2565b876001815181106122f657fe5b906020019060200201516020015160600151612311886123f5565b0291508760008151811061232157fe5b90602001906020020151602001516040015161233c886123f5565b02905080821115612370578082038860008151811061235757fe5b9060200190602002015160200151602001818151039052505b60008860008151811061237f57fe5b906020019060200201516020015160200151116123bd57876001815181106123a357fe5b90602001906020020151518552876000815181106122d457fe5b6121af565b600060046020870151815481106123d557fe5b600091825260209091206001600490920201015550929695505050505050565b6000600a61240283611886565b81151561240b57fe5b0492915050565b60206040519081016040526000815290565b60806040519081016040526004815b600081526000199190910190602001816124335790505090565b608060405190810160405280600081526020016000815260200160008152602001600081525090565b604080519081016040526002815b60008152602001906001900390816124845790505090565b815481835581811511610cc357600083815260209020610cc391610bfa9160049182028101918502015b808211156124ee576000808255600182018190556002820181905560038201556004016124c6565b50905600a165627a7a72305820f5d369d1222e16ceeff231324807cabec8dbbbbbcf45bb7283dc946d653429fb0029",
  "source": "pragma solidity ^0.4.18;\n\nimport \"../fighter/FighterOwnership.sol\";\nimport \"./MarketplaceConfig.sol\";\n\ncontract Marketplace is FighterOwnership, MarketplaceConfig {\n  uint[] public fightersInMarket; // Storing of figher Ids against their sale Struct\n  uint[] public fightersInArena; // Storing of fighter Ids against their fighter Struct\n\n  event PurchaseSuccess(address _buyer, uint _price, uint _fighterId);\n  event FightComplete(address _winner, uint _winnerId);\n\n  struct Combatant {\n    uint256 fighterId;\n    Fighter fighter;\n  }\n\n  function getPriceForFighter(uint _fighterId) constant external returns (uint256) {\n    return fightersInMarket[_fighterId];\n  }\n\n  function getFightersForSale() constant external returns (uint[]) {\n    return fightersInMarket;\n  }\n\n  function getFightersInArena() constant external returns (uint[]) {\n    return fightersInArena;\n  }\n\n  function removeFighterFromSale(uint _fighterId) external {\n    require(_owns(msg.sender, _fighterId));\n    // Just double check we can actually remove a fighter before we go any further\n    require(_fighterIsForSale(_fighterId));\n\n    _removeFighterFromSale(_fighterId);\n  }\n\n  function removeFighterFromArena(uint _fighterId) external {\n    require(_owns(msg.sender, _fighterId));\n    // Just double check we can actually remove a fighter before we go any further\n    require(_fighterIsForBrawl(_fighterId));\n\n    _removeFighterFromArena(_fighterId);\n  }\n\n  function makeFighterAvailableForSale(uint _fighterId, uint _price) external {\n    require(_owns(msg.sender, _fighterId));\n    // Fighters can't be both for sale and open for brawling\n    require(!_fighterIsForBrawl(_fighterId));\n    require(_price > 0);\n\n    fightersInMarket[_fighterId] = _price;\n  }\n\n  function makeFighterAvailableForBrawl(uint _fighterId) external {\n    require(_owns(msg.sender, _fighterId));\n    // Fighters can't be both for sale and open for brawling\n    require(!_fighterIsForSale(_fighterId));\n\n    fightersInArena[_fighterId] = fighters[_fighterId].maxHealth;\n  }\n\n  function buyFighter(uint _fighterId) external payable {\n    _makePurchase(_fighterId, msg.value);\n    _transfer(fighterIdToOwner[_fighterId], msg.sender, _fighterId);\n  }\n\n  function fight(uint _attackerId, uint _defenderId, uint _seed) external {\n    // fighter actually in the arena is always the defender\n    require(_fighterIsForBrawl(_defenderId));\n    // Make sure the challenger is actually sending the transaction\n    require(_owns(msg.sender, _attackerId));\n\n    uint[2] memory winnerAndLoser = _determineWinner(_attackerId, _defenderId, _seed);\n    uint _winnerId = winnerAndLoser[0];\n    uint _loserId = winnerAndLoser[1];\n\n    if (_fighterIsForBrawl(_loserId)) {\n      _removeFighterFromArena(_loserId);\n    }\n\n    _transfer(fighterIdToOwner[_loserId], fighterIdToOwner[_winnerId], _loserId);\n    FightComplete(fighterIdToOwner[_winnerId], _winnerId);\n  }\n\n  function _determineWinner(uint _attackerId, uint _defenderId, uint _seed) internal returns (uint[2]) {\n    Combatant[] memory orderOfCombat;\n    Fighter memory _attacker = fighters[_attackerId];\n    Fighter memory _defender = fighters[_defenderId];\n\n    if(_defender.speed >= _attacker.speed) {\n      orderOfCombat[0] = Combatant({ fighterId: _defenderId, fighter: _defender });\n      orderOfCombat[1] = Combatant({ fighterId: _attackerId, fighter: _attacker });\n    } else {\n      orderOfCombat[0] = Combatant({ fighterId: _attackerId, fighter: _attacker });\n      orderOfCombat[1] = Combatant({ fighterId: _defenderId, fighter: _defender });\n    }\n\n    return _calculateCombatOutcome(orderOfCombat, _seed);\n  }\n\n  function _calculateCombatOutcome(Combatant[] _combatants, uint _seed) internal returns (uint[2]) {\n    uint[2] memory winnerAndLoser;\n\n    while ( _combatants[0].fighter.health > 0 &&  _combatants[1].fighter.health > 0) {\n      uint _fighter1StrengthCheck = (RandomNumber.randDecimal(_seed) *  _combatants[0].fighter.strength);\n      uint _fighter2SpeedCheck = (RandomNumber.randDecimal(_seed) *  _combatants[1].fighter.speed);\n\n      if (_fighter1StrengthCheck > _fighter2SpeedCheck) {\n         _combatants[1].fighter.health -= (_fighter1StrengthCheck - _fighter2SpeedCheck);\n      }\n\n      if (_combatants[1].fighter.health <= 0) {\n        winnerAndLoser[0] =  _combatants[0].fighterId;\n        winnerAndLoser[1] =  _combatants[1].fighterId;\n        break;\n      }\n\n      uint _fighter2StrengthCheck = (RandomNumber.randDecimal(_seed) *  _combatants[1].fighter.strength);\n      uint _fighter1SpeedCheck = (RandomNumber.randDecimal(_seed) *  _combatants[0].fighter.speed);\n\n      if (_fighter2StrengthCheck > _fighter1SpeedCheck) {\n         _combatants[0].fighter.health -= (_fighter2StrengthCheck - _fighter1SpeedCheck);\n      }\n\n      if (_combatants[0].fighter.health <= 0) {\n        winnerAndLoser[0] = _combatants[1].fighterId;\n        winnerAndLoser[1] = _combatants[0].fighterId;\n        break;\n      }\n    }\n\n    // Set the losers health to 0\n    fighters[winnerAndLoser[1]].health = 0;\n    return winnerAndLoser;\n  }\n\n  function _makePurchase(uint _fighterId, uint _price) internal {\n    require(_fighterIsForSale(_fighterId));\n    require(_price >= fightersInMarket[_fighterId]);\n\n    address sellerAddress = fighterIdToOwner[_fighterId];\n    _removeFighterFromSale(_fighterId);\n\n    uint saleCut = _calculateCut(_price);\n    uint totalSale = _price - saleCut;\n    sellerAddress.transfer(totalSale);\n\n    PurchaseSuccess(msg.sender, _price, _fighterId);\n  }\n\n  function _calculateCut(uint _totalPrice) internal returns (uint) {\n    return ((_totalPrice / 100) * marketplaceCut);\n  }\n\n  function _fighterIsForSale(uint _fighterId) internal returns (bool) {\n    return (fightersInMarket[_fighterId] > 0);\n  }\n\n  function _fighterIsForBrawl(uint _fighterId) internal returns (bool) {\n    return (fightersInArena[_fighterId] > 0);\n  }\n\n  function _removeFighterFromSale(uint _fighterId) internal {\n    delete fightersInMarket[_fighterId];\n  }\n\n  function _removeFighterFromArena(uint _fighterId) internal {\n    delete fightersInArena[_fighterId];\n  }\n}\n",
  "sourcePath": "/Users/Aaron/Projects/cryptoclash/contracts/marketplace/Marketplace.sol",
  "compiler": {
    "name": "solc",
    "version": "0.4.18+commit.9cf6e910.Emscripten.clang"
  },
  "schemaVersion": "1.0.1",
  "updatedAt": "2018-01-05T16:20:47.211Z"
}