{
  "contractName": "Marketplace",
  "abi": [
    {
      "constant": true,
      "inputs": [
        {
          "name": "_interfaceID",
          "type": "bytes4"
        }
      ],
      "name": "supportsInterface",
      "outputs": [
        {
          "name": "",
          "type": "bool"
        }
      ],
      "payable": false,
      "stateMutability": "view",
      "type": "function"
    },
    {
      "constant": true,
      "inputs": [
        {
          "name": "",
          "type": "address"
        }
      ],
      "name": "fighterCountForOwner",
      "outputs": [
        {
          "name": "",
          "type": "uint256"
        }
      ],
      "payable": false,
      "stateMutability": "view",
      "type": "function"
    },
    {
      "constant": true,
      "inputs": [
        {
          "name": "_tokenId",
          "type": "uint256"
        },
        {
          "name": "_preferredTransport",
          "type": "string"
        }
      ],
      "name": "tokenMetadata",
      "outputs": [
        {
          "name": "infoUrl",
          "type": "string"
        }
      ],
      "payable": false,
      "stateMutability": "view",
      "type": "function"
    },
    {
      "constant": true,
      "inputs": [],
      "name": "name",
      "outputs": [
        {
          "name": "",
          "type": "string"
        }
      ],
      "payable": false,
      "stateMutability": "view",
      "type": "function"
    },
    {
      "constant": false,
      "inputs": [
        {
          "name": "_to",
          "type": "address"
        },
        {
          "name": "_tokenId",
          "type": "uint256"
        }
      ],
      "name": "approve",
      "outputs": [],
      "payable": false,
      "stateMutability": "nonpayable",
      "type": "function"
    },
    {
      "constant": true,
      "inputs": [],
      "name": "totalSupply",
      "outputs": [
        {
          "name": "",
          "type": "uint256"
        }
      ],
      "payable": false,
      "stateMutability": "view",
      "type": "function"
    },
    {
      "constant": false,
      "inputs": [
        {
          "name": "_recipient",
          "type": "address"
        }
      ],
      "name": "withdrawBalanceToAddress",
      "outputs": [],
      "payable": false,
      "stateMutability": "nonpayable",
      "type": "function"
    },
    {
      "constant": false,
      "inputs": [
        {
          "name": "_from",
          "type": "address"
        },
        {
          "name": "_to",
          "type": "address"
        },
        {
          "name": "_tokenId",
          "type": "uint256"
        }
      ],
      "name": "transferFrom",
      "outputs": [],
      "payable": false,
      "stateMutability": "nonpayable",
      "type": "function"
    },
    {
      "constant": true,
      "inputs": [
        {
          "name": "_fighterId",
          "type": "uint256"
        }
      ],
      "name": "getPriceForFighter",
      "outputs": [
        {
          "name": "",
          "type": "uint256"
        }
      ],
      "payable": false,
      "stateMutability": "view",
      "type": "function"
    },
    {
      "constant": true,
      "inputs": [
        {
          "name": "",
          "type": "uint256"
        }
      ],
      "name": "fighterIdToMaxHealth",
      "outputs": [
        {
          "name": "",
          "type": "uint256"
        }
      ],
      "payable": false,
      "stateMutability": "view",
      "type": "function"
    },
    {
      "constant": false,
      "inputs": [
        {
          "name": "_recipient",
          "type": "address"
        },
        {
          "name": "_maxHealth",
          "type": "uint256"
        },
        {
          "name": "_speed",
          "type": "uint256"
        },
        {
          "name": "_strength",
          "type": "uint256"
        }
      ],
      "name": "customOwnerCreation",
      "outputs": [],
      "payable": false,
      "stateMutability": "nonpayable",
      "type": "function"
    },
    {
      "constant": false,
      "inputs": [
        {
          "name": "_fighterId",
          "type": "uint256"
        },
        {
          "name": "_attribute",
          "type": "string"
        },
        {
          "name": "_seed",
          "type": "uint256"
        }
      ],
      "name": "trainFighter",
      "outputs": [
        {
          "name": "",
          "type": "uint256"
        }
      ],
      "payable": true,
      "stateMutability": "payable",
      "type": "function"
    },
    {
      "constant": false,
      "inputs": [
        {
          "name": "newProbability",
          "type": "uint256"
        }
      ],
      "name": "setFighterCreationChance",
      "outputs": [],
      "payable": false,
      "stateMutability": "nonpayable",
      "type": "function"
    },
    {
      "constant": true,
      "inputs": [
        {
          "name": "",
          "type": "uint256"
        }
      ],
      "name": "fighterIdToApproved",
      "outputs": [
        {
          "name": "",
          "type": "address"
        }
      ],
      "payable": false,
      "stateMutability": "view",
      "type": "function"
    },
    {
      "constant": false,
      "inputs": [
        {
          "name": "newFactor",
          "type": "uint256"
        }
      ],
      "name": "setTrainingFactor",
      "outputs": [],
      "payable": false,
      "stateMutability": "nonpayable",
      "type": "function"
    },
    {
      "constant": true,
      "inputs": [
        {
          "name": "",
          "type": "uint256"
        }
      ],
      "name": "fighterIdToOwner",
      "outputs": [
        {
          "name": "",
          "type": "address"
        }
      ],
      "payable": false,
      "stateMutability": "view",
      "type": "function"
    },
    {
      "constant": true,
      "inputs": [
        {
          "name": "_fighterId",
          "type": "uint256"
        }
      ],
      "name": "getInfoForFighter",
      "outputs": [
        {
          "name": "maxHealth",
          "type": "uint256"
        },
        {
          "name": "health",
          "type": "uint256"
        },
        {
          "name": "speed",
          "type": "uint256"
        },
        {
          "name": "strength",
          "type": "uint256"
        },
        {
          "name": "isForSale",
          "type": "bool"
        },
        {
          "name": "isInArena",
          "type": "bool"
        }
      ],
      "payable": false,
      "stateMutability": "view",
      "type": "function"
    },
    {
      "constant": false,
      "inputs": [
        {
          "name": "_fighterId",
          "type": "uint256"
        }
      ],
      "name": "removeFighterFromSale",
      "outputs": [],
      "payable": false,
      "stateMutability": "nonpayable",
      "type": "function"
    },
    {
      "constant": false,
      "inputs": [],
      "name": "withdrawBalance",
      "outputs": [],
      "payable": false,
      "stateMutability": "nonpayable",
      "type": "function"
    },
    {
      "constant": true,
      "inputs": [
        {
          "name": "_tokenId",
          "type": "uint256"
        }
      ],
      "name": "ownerOf",
      "outputs": [
        {
          "name": "owner",
          "type": "address"
        }
      ],
      "payable": false,
      "stateMutability": "view",
      "type": "function"
    },
    {
      "constant": false,
      "inputs": [
        {
          "name": "_fighterId",
          "type": "uint256"
        }
      ],
      "name": "removeFighterFromArena",
      "outputs": [],
      "payable": false,
      "stateMutability": "nonpayable",
      "type": "function"
    },
    {
      "constant": true,
      "inputs": [],
      "name": "trainingCost",
      "outputs": [
        {
          "name": "",
          "type": "uint256"
        }
      ],
      "payable": false,
      "stateMutability": "view",
      "type": "function"
    },
    {
      "constant": true,
      "inputs": [
        {
          "name": "_owner",
          "type": "address"
        }
      ],
      "name": "balanceOf",
      "outputs": [
        {
          "name": "count",
          "type": "uint256"
        }
      ],
      "payable": false,
      "stateMutability": "view",
      "type": "function"
    },
    {
      "constant": false,
      "inputs": [
        {
          "name": "_recipient",
          "type": "address"
        },
        {
          "name": "_seed",
          "type": "uint256"
        }
      ],
      "name": "ownerCreation",
      "outputs": [],
      "payable": false,
      "stateMutability": "nonpayable",
      "type": "function"
    },
    {
      "constant": true,
      "inputs": [
        {
          "name": "",
          "type": "address"
        },
        {
          "name": "",
          "type": "uint256"
        }
      ],
      "name": "ownedFighters",
      "outputs": [
        {
          "name": "",
          "type": "uint256"
        }
      ],
      "payable": false,
      "stateMutability": "view",
      "type": "function"
    },
    {
      "constant": true,
      "inputs": [
        {
          "name": "_owner",
          "type": "address"
        }
      ],
      "name": "tokensOfOwner",
      "outputs": [
        {
          "name": "ownerTokens",
          "type": "uint256[]"
        }
      ],
      "payable": false,
      "stateMutability": "view",
      "type": "function"
    },
    {
      "constant": true,
      "inputs": [],
      "name": "owner",
      "outputs": [
        {
          "name": "",
          "type": "address"
        }
      ],
      "payable": false,
      "stateMutability": "view",
      "type": "function"
    },
    {
      "constant": true,
      "inputs": [
        {
          "name": "",
          "type": "uint256"
        }
      ],
      "name": "fightersInMarket",
      "outputs": [
        {
          "name": "",
          "type": "uint256"
        }
      ],
      "payable": false,
      "stateMutability": "view",
      "type": "function"
    },
    {
      "constant": false,
      "inputs": [
        {
          "name": "_newCut",
          "type": "uint256"
        }
      ],
      "name": "setNewMarketplaceCut",
      "outputs": [],
      "payable": false,
      "stateMutability": "nonpayable",
      "type": "function"
    },
    {
      "constant": true,
      "inputs": [],
      "name": "symbol",
      "outputs": [
        {
          "name": "",
          "type": "string"
        }
      ],
      "payable": false,
      "stateMutability": "view",
      "type": "function"
    },
    {
      "constant": false,
      "inputs": [
        {
          "name": "newCost",
          "type": "uint256"
        }
      ],
      "name": "setNewTrainingCost",
      "outputs": [],
      "payable": false,
      "stateMutability": "nonpayable",
      "type": "function"
    },
    {
      "constant": true,
      "inputs": [
        {
          "name": "",
          "type": "uint256"
        }
      ],
      "name": "fighterIdToSale",
      "outputs": [
        {
          "name": "fighterId",
          "type": "uint256"
        },
        {
          "name": "price",
          "type": "uint256"
        }
      ],
      "payable": false,
      "stateMutability": "view",
      "type": "function"
    },
    {
      "constant": false,
      "inputs": [
        {
          "name": "_to",
          "type": "address"
        },
        {
          "name": "_tokenId",
          "type": "uint256"
        }
      ],
      "name": "transfer",
      "outputs": [],
      "payable": false,
      "stateMutability": "nonpayable",
      "type": "function"
    },
    {
      "constant": true,
      "inputs": [],
      "name": "marketplaceCut",
      "outputs": [
        {
          "name": "",
          "type": "uint256"
        }
      ],
      "payable": false,
      "stateMutability": "view",
      "type": "function"
    },
    {
      "constant": true,
      "inputs": [],
      "name": "trainingFactor",
      "outputs": [
        {
          "name": "",
          "type": "uint256"
        }
      ],
      "payable": false,
      "stateMutability": "view",
      "type": "function"
    },
    {
      "constant": false,
      "inputs": [
        {
          "name": "_fighterId",
          "type": "uint256"
        },
        {
          "name": "_price",
          "type": "uint256"
        }
      ],
      "name": "makeFighterAvailableForSale",
      "outputs": [],
      "payable": false,
      "stateMutability": "nonpayable",
      "type": "function"
    },
    {
      "constant": true,
      "inputs": [
        {
          "name": "",
          "type": "uint256"
        }
      ],
      "name": "fightersInArena",
      "outputs": [
        {
          "name": "",
          "type": "uint256"
        }
      ],
      "payable": false,
      "stateMutability": "view",
      "type": "function"
    },
    {
      "constant": true,
      "inputs": [],
      "name": "erc721Metadata",
      "outputs": [
        {
          "name": "",
          "type": "address"
        }
      ],
      "payable": false,
      "stateMutability": "view",
      "type": "function"
    },
    {
      "constant": true,
      "inputs": [
        {
          "name": "_owner",
          "type": "address"
        }
      ],
      "name": "getFightersForAddress",
      "outputs": [
        {
          "name": "",
          "type": "uint256[]"
        }
      ],
      "payable": false,
      "stateMutability": "view",
      "type": "function"
    },
    {
      "constant": true,
      "inputs": [],
      "name": "getFightersForSale",
      "outputs": [
        {
          "name": "",
          "type": "uint256[]"
        }
      ],
      "payable": false,
      "stateMutability": "view",
      "type": "function"
    },
    {
      "constant": false,
      "inputs": [],
      "name": "killConract",
      "outputs": [],
      "payable": false,
      "stateMutability": "nonpayable",
      "type": "function"
    },
    {
      "constant": false,
      "inputs": [
        {
          "name": "_fighterId",
          "type": "uint256"
        }
      ],
      "name": "buyFighter",
      "outputs": [],
      "payable": true,
      "stateMutability": "payable",
      "type": "function"
    },
    {
      "constant": false,
      "inputs": [
        {
          "name": "_contractAddress",
          "type": "address"
        }
      ],
      "name": "setMetadataAddress",
      "outputs": [],
      "payable": false,
      "stateMutability": "nonpayable",
      "type": "function"
    },
    {
      "constant": false,
      "inputs": [
        {
          "name": "_fighterId",
          "type": "uint256"
        }
      ],
      "name": "makeFighterAvailableForBrawl",
      "outputs": [],
      "payable": false,
      "stateMutability": "nonpayable",
      "type": "function"
    },
    {
      "constant": false,
      "inputs": [
        {
          "name": "_fighterId",
          "type": "uint256"
        }
      ],
      "name": "healFighter",
      "outputs": [],
      "payable": false,
      "stateMutability": "nonpayable",
      "type": "function"
    },
    {
      "constant": false,
      "inputs": [
        {
          "name": "newOwner",
          "type": "address"
        }
      ],
      "name": "transferOwnership",
      "outputs": [],
      "payable": false,
      "stateMutability": "nonpayable",
      "type": "function"
    },
    {
      "constant": true,
      "inputs": [],
      "name": "chanceOfFighterCreation",
      "outputs": [
        {
          "name": "",
          "type": "uint256"
        }
      ],
      "payable": false,
      "stateMutability": "view",
      "type": "function"
    },
    {
      "constant": true,
      "inputs": [],
      "name": "getFightersInArena",
      "outputs": [
        {
          "name": "",
          "type": "uint256[]"
        }
      ],
      "payable": false,
      "stateMutability": "view",
      "type": "function"
    },
    {
      "constant": false,
      "inputs": [
        {
          "name": "_attackerId",
          "type": "uint256"
        },
        {
          "name": "_defenderId",
          "type": "uint256"
        },
        {
          "name": "_seed",
          "type": "uint256"
        }
      ],
      "name": "fight",
      "outputs": [],
      "payable": false,
      "stateMutability": "nonpayable",
      "type": "function"
    },
    {
      "constant": false,
      "inputs": [
        {
          "name": "_seed",
          "type": "uint256"
        }
      ],
      "name": "searchForFighter",
      "outputs": [
        {
          "name": "fighterFound",
          "type": "bool"
        }
      ],
      "payable": false,
      "stateMutability": "nonpayable",
      "type": "function"
    },
    {
      "anonymous": false,
      "inputs": [
        {
          "indexed": false,
          "name": "_buyer",
          "type": "address"
        },
        {
          "indexed": false,
          "name": "_price",
          "type": "uint256"
        },
        {
          "indexed": false,
          "name": "_fighterId",
          "type": "uint256"
        }
      ],
      "name": "PurchaseSuccess",
      "type": "event"
    },
    {
      "anonymous": false,
      "inputs": [
        {
          "indexed": false,
          "name": "_winner",
          "type": "address"
        },
        {
          "indexed": false,
          "name": "_winnerId",
          "type": "uint256"
        }
      ],
      "name": "FightComplete",
      "type": "event"
    },
    {
      "anonymous": false,
      "inputs": [
        {
          "indexed": false,
          "name": "from",
          "type": "address"
        },
        {
          "indexed": false,
          "name": "to",
          "type": "address"
        },
        {
          "indexed": false,
          "name": "tokenId",
          "type": "uint256"
        }
      ],
      "name": "Transfer",
      "type": "event"
    },
    {
      "anonymous": false,
      "inputs": [
        {
          "indexed": false,
          "name": "owner",
          "type": "address"
        },
        {
          "indexed": false,
          "name": "approved",
          "type": "address"
        },
        {
          "indexed": false,
          "name": "tokenId",
          "type": "uint256"
        }
      ],
      "name": "Approval",
      "type": "event"
    },
    {
      "anonymous": false,
      "inputs": [
        {
          "indexed": false,
          "name": "owner",
          "type": "address"
        },
        {
          "indexed": false,
          "name": "fighterId",
          "type": "uint256"
        }
      ],
      "name": "Creation",
      "type": "event"
    },
    {
      "anonymous": false,
      "inputs": [
        {
          "indexed": false,
          "name": "owner",
          "type": "address"
        },
        {
          "indexed": false,
          "name": "fighterId",
          "type": "uint256"
        },
        {
          "indexed": false,
          "name": "attribute",
          "type": "string"
        },
        {
          "indexed": false,
          "name": "increaseValue",
          "type": "uint256"
        }
      ],
      "name": "AttributeIncrease",
      "type": "event"
    },
    {
      "anonymous": false,
      "inputs": [
        {
          "indexed": false,
          "name": "owner",
          "type": "address"
        },
        {
          "indexed": false,
          "name": "fighterId",
          "type": "uint256"
        }
      ],
      "name": "Healed",
      "type": "event"
    },
    {
      "anonymous": false,
      "inputs": [
        {
          "indexed": false,
          "name": "fighterWasFound",
          "type": "bool"
        }
      ],
      "name": "FighterFound",
      "type": "event"
    }
  ],
  "bytecode": "0x60606040526003600181905560028190556611c37937e0800090556005600a5560008054600160a060020a033316600160a060020a03199091161790556129888061004b6000396000f30060606040526004361061025b5763ffffffff7c010000000000000000000000000000000000000000000000000000000060003504166301ffc9a78114610260578063027f48f7146102ac5780630560ff44146102dd57806306fdde0314610376578063095ea7b31461038957806318160ddd146103ad5780631ba21011146103c057806323b872dd146103df578063241860aa1461040757806328e3cec01461041d5780633b61d9fa146104335780633f40d2881461045b57806340e4e0481461047557806344e59ee91461048b578063495ac3a8146104bd5780634b193933146104d35780634c67899b146104e957806354c3bfa11461053a5780635fd8c710146105505780636352211e14610563578063641e3aae14610579578063701a19fd1461058f57806370a08231146105a25780638053e5d8146105c15780638357b8dd146105e35780638462151c146106055780638da5cb5b1461067757806390cf201c1461068a578063920b4a2d146106a057806395d89b41146106b6578063a5557ce0146106c9578063a707c73c146106df578063a9059cbb1461070d578063ad2dccfe1461072f578063b64ce34a14610742578063b6e5706414610755578063b7dc761e1461076e578063bc4006f514610784578063c20548ac14610797578063c38ee211146107b6578063c48f66f2146107c9578063cbb5bbbf146107dc578063e17b25af146107e7578063e88f4f1f14610806578063efbeef801461081c578063f2fde38b14610832578063f36014d214610851578063f65bd95314610864578063f669ddaf14610877578063f6a6771614610893575b600080fd5b341561026b57600080fd5b6102987fffffffff00000000000000000000000000000000000000000000000000000000600435166108a9565b604051901515815260200160405180910390f35b34156102b757600080fd5b6102cb600160a060020a0360043516610b30565b60405190815260200160405180910390f35b34156102e857600080fd5b6102ff600480359060248035908101910135610b42565b60405160208082528190810183818151815260200191508051906020019080838360005b8381101561033b578082015183820152602001610323565b50505050905090810190601f1680156103685780820380516001836020036101000a031916815260200191505b509250505060405180910390f35b341561038157600080fd5b6102ff610c38565b341561039457600080fd5b6103ab600160a060020a0360043516602435610c6f565b005b34156103b857600080fd5b6102cb610ce2565b34156103cb57600080fd5b6103ab600160a060020a0360043516610ce9565b34156103ea57600080fd5b6103ab600160a060020a0360043581169060243516604435610d44565b341561041257600080fd5b6102cb600435610db4565b341561042857600080fd5b6102cb600435610dc9565b341561043e57600080fd5b6103ab600160a060020a0360043516602435604435606435610ddb565b6102cb600480359060248035908101910135604435610e09565b341561048057600080fd5b6103ab600435610e8e565b341561049657600080fd5b6104a1600435610eae565b604051600160a060020a03909116815260200160405180910390f35b34156104c857600080fd5b6103ab600435610ec9565b34156104de57600080fd5b6104a1600435610ee9565b34156104f457600080fd5b6104ff600435610f04565b604051958652602086019490945260408086019390935260608501919091521515608084015290151560a083015260c0909101905180910390f35b341561054557600080fd5b6103ab600435610f9a565b341561055b57600080fd5b6103ab610fcc565b341561056e57600080fd5b6104a1600435611022565b341561058457600080fd5b6103ab600435611046565b341561059a57600080fd5b6102cb611078565b34156105ad57600080fd5b6102cb600160a060020a036004351661107e565b34156105cc57600080fd5b6103ab600160a060020a0360043516602435611099565b34156105ee57600080fd5b6102cb600160a060020a03600435166024356110da565b341561061057600080fd5b610624600160a060020a0360043516611108565b60405160208082528190810183818151815260200191508051906020019060200280838360005b8381101561066357808201518382015260200161064b565b505050509050019250505060405180910390f35b341561068257600080fd5b6104a16111e9565b341561069557600080fd5b6102cb6004356111f8565b34156106ab57600080fd5b6103ab600435611217565b34156106c157600080fd5b6102ff611237565b34156106d457600080fd5b6103ab60043561126e565b34156106ea57600080fd5b6106f560043561128e565b60405191825260208201526040908101905180910390f35b341561071857600080fd5b6103ab600160a060020a03600435166024356112a7565b341561073a57600080fd5b6102cb611301565b341561074d57600080fd5b6102cb611307565b341561076057600080fd5b6103ab60043560243561130d565b341561077957600080fd5b6102cb600435611399565b341561078f57600080fd5b6104a16113a7565b34156107a257600080fd5b610624600160a060020a03600435166113b6565b34156107c157600080fd5b610624611439565b34156107d457600080fd5b6103ab611497565b6103ab6004356114c0565b34156107f257600080fd5b6103ab600160a060020a03600435166114ed565b341561081157600080fd5b6103ab60043561151c565b341561082757600080fd5b6103ab600435611594565b341561083d57600080fd5b6103ab600160a060020a03600435166115b2565b341561085c57600080fd5b6102cb611609565b341561086f57600080fd5b61062461160f565b341561088257600080fd5b6103ab60043560243560443561166b565b341561089e57600080fd5b610298600435611763565b60006040517f737570706f727473496e7465726661636528627974657334290000000000000081526019016040518091039020600160e060020a03191682600160e060020a0319161480610b2857506040517f746f6b656e4d657461646174612875696e743235362c737472696e67290000008152601d0160405180910390206040517f746f6b656e734f664f776e657228616464726573732900000000000000000000815260160160405180910390206040517f7472616e7366657246726f6d28616464726573732c616464726573732c75696e81527f7432353629000000000000000000000000000000000000000000000000000000602082015260250160405180910390206040517f7472616e7366657228616464726573732c75696e743235362900000000000000815260190160405180910390206040517f617070726f766528616464726573732c75696e74323536290000000000000000815260180160405180910390206040517f6f776e65724f662875696e743235362900000000000000000000000000000000815260100160405180910390206040517f62616c616e63654f662861646472657373290000000000000000000000000000815260120160405180910390206040517f746f74616c537570706c792829000000000000000000000000000000000000008152600d0160405180910390206040517f73796d626f6c2829000000000000000000000000000000000000000000000000815260080160405180910390206040517f6e616d652829000000000000000000000000000000000000000000000000000081526006016040518091039020181818181818181818600160e060020a03191682600160e060020a031916145b90505b919050565b60056020526000908152604090205481565b610b4a612836565b610b52612848565b600954600090600160a060020a03161515610b6c57600080fd5b600954600160a060020a031663cb4799f2878787600060405160a001526040517c010000000000000000000000000000000000000000000000000000000063ffffffff861602815260048101848152604060248301908152604483018490529091606401848480828437820191505094505050505060a060405180830381600087803b1515610bfa57600080fd5b6102c65a03f11515610c0b57600080fd5b50505060405180608001805160209091016040529092509050610c2e828261182e565b9695505050505050565b60408051908101604052600e81527f43727970746f427261776c657273000000000000000000000000000000000000602082015281565b610c793382611883565b1515610c8457600080fd5b610c8e81836118a3565b7f8c5be1e5ebec7d5bd14f71427d1e84f3dd0314c0f7b2291e5b200ac8c7c3b925338383604051600160a060020a039384168152919092166020820152604080820192909252606001905180910390a15050565b6004545b90565b60005433600160a060020a03908116911614610d0457600080fd5b80600160a060020a03166108fc30600160a060020a0316319081150290604051600060405180830381858888f193505050501515610d4157600080fd5b50565b600160a060020a0382161515610d5957600080fd5b30600160a060020a031682600160a060020a031614151515610d7a57600080fd5b610d8433826118de565b1515610d8f57600080fd5b610d998382611883565b1515610da457600080fd5b610daf8383836118fe565b505050565b6000908152600b602052604090206001015490565b600d6020526000908152604090205481565b60005433600160a060020a03908116911614610df657600080fd5b610e0283838387611a2b565b5050505050565b6000806003548034101515610e8457610e223388611883565b1515610e2d57600080fd5b600254610e3985611b0a565b811515610e4257fe5b049150610e808787878080601f016020809104026020016040519081016040528181529291906020840183838082843750899450611b4a9350505050565b8192505b5050949350505050565b60005433600160a060020a03908116911614610ea957600080fd5b600155565b600760205260009081526040902054600160a060020a031681565b60005433600160a060020a03908116911614610ee457600080fd5b600255565b600660205260009081526040902054600160a060020a031681565b600080600080600080610f15612871565b6004805489908110610f2357fe5b9060005260206000209060040201608060405190810160409081528254825260018301546020830152600283015490820152600390910154606082015290508051816020015182604001518360600151610f7c8c611d2f565b610f858d611d45565b949d939c50919a509850965090945092505050565b610fa43382611883565b1515610faf57600080fd5b610fb881611d2f565b1515610fc357600080fd5b610d4181611d58565b60005433600160a060020a03908116911614610fe757600080fd5b600054600160a060020a039081169030163180156108fc0290604051600060405180830381858888f19350505050151561102057600080fd5b565b600081815260066020526040902054600160a060020a0316801515610b2b57600080fd5b6110503382611883565b151561105b57600080fd5b61106481611d45565b151561106f57600080fd5b610d4181611dc1565b60035481565b600160a060020a031660009081526005602052604090205490565b60008054819033600160a060020a039081169116146110b757600080fd5b6110c083611b0a565b91506110cb83611b0a565b9050610e02600a838387611a2b565b6008602052816000526040600020818154811015156110f557fe5b6000918252602090912001549150829050565b611110612836565b600080600061111d612836565b60006111288761107e565b94508415156111585760006040518059106111405750595b908082528060200260200182016040525095506111df565b60009350611164610ce2565b9250846040518059106111745750595b90808252806020026020018201604052509150600190505b8281116111db57600081815260066020526040902054600160a060020a03888116911614156111d357808285815181106111c257fe5b602090810290910101526001909301925b60010161118c565b8195505b5050505050919050565b600054600160a060020a031681565b600c80548290811061120657fe5b600091825260209091200154905081565b60005433600160a060020a0390811691161461123257600080fd5b600a55565b60408051908101604052600481527f4252574c00000000000000000000000000000000000000000000000000000000602082015281565b60005433600160a060020a0390811691161461128957600080fd5b600355565b600b602052600090815260409020805460019091015482565b600160a060020a03821615156112bc57600080fd5b30600160a060020a031682600160a060020a0316141515156112dd57600080fd5b6112e73382611883565b15156112f257600080fd5b6112fd3383836118fe565b5050565b600a5481565b60025481565b6113173383611883565b151561132257600080fd5b61132b82611d45565b1561133557600080fd5b6000811161134257600080fd5b600c805460018101611354838261289a565b50600091825260209091200182905560408051908101604090815283825260208083018490526000858152600b90915220815181556020820151600190910155505050565b600e80548290811061120657fe5b600954600160a060020a031681565b6113be612836565b6008600083600160a060020a0316600160a060020a0316815260200190815260200160002080548060200260200160405190810160405280929190818152602001828054801561142d57602002820191906000526020600020905b815481526020019060010190808311611419575b50505050509050919050565b611441612836565b600c80548060200260200160405190810160405280929190818152602001828054801561148d57602002820191906000526020600020905b815481526020019060010190808311611479575b5050505050905090565b60005433600160a060020a039081169116146114b257600080fd5b600054600160a060020a0316ff5b6114ca8134611e24565b600081815260066020526040902054610d4190600160a060020a031633836118fe565b6009805473ffffffffffffffffffffffffffffffffffffffff1916600160a060020a0392909216919091179055565b6115263382611883565b151561153157600080fd5b61153a81611d2f565b1561154457600080fd5b600e805460018101611556838261289a565b506000918252602090912001819055600480548290811061157357fe5b60009182526020808320600490920290910154928252600d90526040902055565b61159e3382611883565b15156115a957600080fd5b610d4181611f1e565b60005433600160a060020a039081169116146115cd57600080fd5b600160a060020a03811615610d415760008054600160a060020a03831673ffffffffffffffffffffffffffffffffffffffff1990911617905550565b60015481565b611617612836565b600e80548060200260200160405190810160405280929190818152602001828054801561148d5760200282019190600052602060002090815481526020019060010190808311611479575050505050905090565b6116736128be565b60008061167f85611d45565b151561168a57600080fd5b6116943387611883565b151561169f57600080fd5b6116aa868686611f28565b925082519150602083015190506116c081611d45565b156116ce576116ce81611dc1565b600081815260066020526040808220548483529120546116fb91600160a060020a039081169116836118fe565b60008281526006602052604090819020547f3d6738b58dc42b8b9e1018be879243c73ce97814f92f989514ded9bd5dcb4cfa91600160a060020a0390911690849051600160a060020a03909216825260208201526040908101905180910390a1505050505050565b600080600080611772856120b8565b92506001548381151561178157fe5b0615156117eb5761179185611b0a565b915061179c85611b0a565b90506117ab600a838333611a2b565b507f7ebb470024e5eee1d5ff9ccf7830ab34657fb753526f8a9e99c50452cc06ead56001604051901515815260200160405180910390a160019350611826565b7f7ebb470024e5eee1d5ff9ccf7830ab34657fb753526f8a9e99c50452cc06ead56000604051901515815260200160405180910390a1600093505b505050919050565b611836612836565b61183e612836565b6000808460405180591061184f5750595b818152601f19601f83011681016020016040529050925050602082019050846118798282876120e4565b5090949350505050565b600090815260066020526040902054600160a060020a0391821691161490565b600091825260076020526040909120805473ffffffffffffffffffffffffffffffffffffffff1916600160a060020a03909216919091179055565b600090815260076020526040902054600160a060020a0391821691161490565b600160a060020a03821660008181526005602090815260408083208054600190810190915585845260068352818420805473ffffffffffffffffffffffffffffffffffffffff19168617905593835260089091529020805490918101611964838261289a565b506000918252602090912001819055600160a060020a038316156119d6576000818152600760205260409020805473ffffffffffffffffffffffffffffffffffffffff191690556119b58382612129565b600160a060020a038316600090815260056020526040902080546000190190555b7fddf252ad1be2c89b69c2b068fc378daa952ba7f163c4a11628f55a4df523b3ef838383604051600160a060020a039384168152919092166020820152604080820192909252606001905180910390a1505050565b6000611a35612871565b6000608060405190810160405280888152602001888152602001878152602001868152509150600160048054806001018281611a7191906128e4565b6000928352602090922085916004020181518155602082015181600101556040820151816002015560608201516003909101555003905063ffffffff81168114611aba57600080fd5b7fc07d6fc5db170f8be7da51bea7bf502fb674192c618536ee210555994694b0b78482604051600160a060020a03909216825260208201526040908101905180910390a1610c2e600085836118fe565b600080600a600143034084604051918252602082015260409081019051908190039020811515611b3657fe5b069050801515611b44576001015b92915050565b6040517f6d61784865616c746800000000000000000000000000000000000000000000008152600901604051908190039020826040518082805190602001908083835b60208310611bac5780518252601f199092019160209182019101611b8d565b6001836020036101000a03801982511681845116179092525050509190910192506040915050519081900390201415611bef57611bea8382336121bd565b610daf565b6040517f737472656e6774680000000000000000000000000000000000000000000000008152600801604051908190039020826040518082805190602001908083835b60208310611c515780518252601f199092019160209182019101611c32565b6001836020036101000a03801982511681845116179092525050509190910192506040915050519081900390201415611c8f57611bea8382336122cb565b6040517f73706565640000000000000000000000000000000000000000000000000000008152600501604051908190039020826040518082805190602001908083835b60208310611cf15780518252601f199092019160209182019101611cd2565b6001836020036101000a03801982511681845116179092525050509190910192506040915050519081900390201415610daf57610daf8382336123c2565b6000908152600b60205260408120600101541190565b6000908152600d60205260408120541190565b60005b600c54811015611da95781600c82815481101515611d7557fe5b9060005260206000209001541415611da157600c805482908110611d9557fe5b60009182526020822001555b600101611d5b565b506000908152600b6020526040812081815560010155565b60005b600e54811015611e125781600e82815481101515611dde57fe5b9060005260206000209001541415611e0a57600e805482908110611dfe57fe5b60009182526020822001555b600101611dc4565b506000908152600d6020526040812055565b6000806000611e3285611d2f565b1515611e3d57600080fd5b6000858152600b6020526040902060010154841015611e5b57600080fd5b600085815260066020526040902054600160a060020a03169250611e7e85611d58565b611e87846124b8565b915050808303600160a060020a03831681156108fc0282604051600060405180830381858888f193505050501515611ebe57600080fd5b7f9ae15b9678dec12e7a6cf4b0046777058c2fcaf18d7868cbc354defb79981f903385876040518084600160a060020a0316600160a060020a03168152602001838152602001828152602001935050505060405180910390a15050505050565b610d4181336124c4565b611f306128be565b611f38612836565b611f40612871565b611f48612871565b6004805488908110611f5657fe5b90600052602060002090600402016080604051908101604090815282548252600183015460208301526002830154908201526003909101546060820152600480549193509087908110611fa557fe5b90600052602060002090600402016080604051908101604090815282548252600183015460208301526002830154818301526003909201546060820152915082015181604001511061204c5760408051908101604052868152602081018290528360008151811061201257fe5b6020908102909101015260408051908101604052878152602081018390528360018151811061203d57fe5b602090810290910101526120a3565b60408051908101604052878152602081018390528360008151811061206d57fe5b6020908102909101015260408051908101604052868152602081018290528360018151811061209857fe5b602090810290910101525b6120ad8386612573565b979650505050505050565b6000806064600143034084604051918252602082015260409081019051908190039020811515611b3657fe5b60005b6020821061210a57825184526020840193506020830192506020820391506120e7565b6001826020036101000a03905080198351168185511617909352505050565b60005b600160a060020a038316600090815260086020526040902054811015610daf57600160a060020a038316600090815260086020526040902080548391908390811061217357fe5b90600052602060002090015414156121b557600160a060020a03831660009081526008602052604090208054829081106121a957fe5b60009182526020822001555b60010161212c565b6121c5612871565b60048054859081106121d357fe5b90600052602060002090600402016080604051908101604090815282548252600183015460208301526002830154908201526003909101546060820152905080518160200151141561222c578281602001818151019052505b82818181510190525061223f81856127d0565b7fca04611e80f005feb5aafd7553030c696e4de100604c325926807c6cbda6a7c3828585604051600160a060020a03909316835260208301919091526060820152608060408083018290526009918301919091527f6d61784865616c7468000000000000000000000000000000000000000000000060a083015260c0909101905180910390a150505050565b6122d3612871565b60048054859081106122e157fe5b90600052602060002090600402016080604051908101604090815282548252600183015460208301526002830154908201526003909101546060820190815290915083908181510190525061233681856127d0565b7fca04611e80f005feb5aafd7553030c696e4de100604c325926807c6cbda6a7c3828585604051600160a060020a03909316835260208301919091526060820152608060408083018290526008918301919091527f737472656e67746800000000000000000000000000000000000000000000000060a083015260c0909101905180910390a150505050565b6123ca612871565b60048054859081106123d857fe5b906000526020600020906004020160806040519081016040908152825482526001830154602083015260028301549082019081526003909201546060820152915083908181510190525061242c81856127d0565b7fca04611e80f005feb5aafd7553030c696e4de100604c325926807c6cbda6a7c3828585604051600160a060020a03909316835260208301919091526060820152608060408083018290526005918301919091527f737065656400000000000000000000000000000000000000000000000000000060a083015260c0909101905180910390a150505050565b600a5460649091040290565b6124cc612871565b60048054849081106124da57fe5b9060005260206000209060040201608060405190810160409081528254825260018301546020830152600283015490820152600390910154606082015290508051602082015261252a81846127d0565b7fb714a55d7bb8d35d8cf25c68ae8435a49a2faaffa841fcb1303d75dbf0a905688284604051600160a060020a03909216825260208201526040908101905180910390a1505050565b61257b6128be565b6125836128be565b6000806000805b60008860008151811061259957fe5b9060200190602002015160200151602001511180156125d657506000886001815181106125c257fe5b906020019060200201516020015160200151115b1561279d57876000815181106125e857fe5b90602001906020020151602001516060015161260388612819565b0293508760018151811061261357fe5b90602001906020020151602001516040015161262e88612819565b02925082841115612662578284038860018151811061264957fe5b9060200190602002015160200151602001818151039052505b60008860018151811061267157fe5b906020019060200201516020015160200151116126c4578760008151811061269557fe5b90602001906020020151518552876001815181106126af57fe5b9060200190602002015151602086015261279d565b876001815181106126d157fe5b9060200190602002015160200151606001516126ec88612819565b029150876000815181106126fc57fe5b90602001906020020151602001516040015161271788612819565b0290508082111561274b578082038860008151811061273257fe5b9060200190602002015160200151602001818151039052505b60008860008151811061275a57fe5b90602001906020020151602001516020015111612798578760018151811061277e57fe5b90602001906020020151518552876000815181106126af57fe5b61258a565b600060046020870151815481106127b057fe5b600091825260209091206001600490920201015550929695505050505050565b816004828154811015156127e057fe5b90600052602060002090600402016000820151815560208201518160010155604082015181600201556060820151600390910155505050565b6000600a61282683611b0a565b81151561282f57fe5b0492915050565b60206040519081016040526000815290565b60806040519081016040526004815b600081526000199190910190602001816128575790505090565b608060405190810160405280600081526020016000815260200160008152602001600081525090565b815481835581811511610daf57600083815260209020610daf918101908301612910565b604080519081016040526002815b60008152602001906001900390816128cc5790505090565b815481835581811511610daf57600402816004028360005260206000209182019101610daf919061292e565b610ce691905b8082111561292a5760008155600101612916565b5090565b610ce691905b8082111561292a576000808255600182018190556002820181905560038201556004016129345600a165627a7a72305820ea076636c1100cd23676a8b1e3eacd4a209fcad6d2978b2b5087fc6b2124cf970029",
  "source": "pragma solidity ^0.4.18;\n\nimport \"../fighter/FighterOwnership.sol\";\nimport \"./MarketplaceConfig.sol\";\n\ncontract Marketplace is FighterOwnership, MarketplaceConfig {\n  mapping(uint256 => Sale) public fighterIdToSale; // Storing of figher Ids against their sale Struct\n  uint256[] public fightersInMarket; // List of all figher Ids in the market\n\n  mapping(uint256 => uint256) public fighterIdToMaxHealth; // Map of fighter Ids to their max health\n  uint256[] public fightersInArena; // List of all fighter ids in the arena\n\n  event PurchaseSuccess(address _buyer, uint _price, uint _fighterId);\n  event FightComplete(address _winner, uint _winnerId);\n\n  struct Combatant {\n    uint256 fighterId;\n    Fighter fighter;\n  }\n\n  struct Sale {\n    uint256 fighterId;\n    uint256 price;\n  }\n\n  function getPriceForFighter(uint _fighterId) constant external returns (uint256) {\n    return fighterIdToSale[_fighterId].price;\n  }\n\n  function getFightersForSale() constant external returns (uint[]) {\n    return fightersInMarket;\n  }\n\n  function getFightersInArena() constant external returns (uint[]) {\n    return fightersInArena;\n  }\n\n  function removeFighterFromSale(uint _fighterId) external {\n    require(_owns(msg.sender, _fighterId));\n    // Just double check we can actually remove a fighter before we go any further\n    require(_fighterIsForSale(_fighterId));\n\n    _removeFighterFromSale(_fighterId);\n  }\n\n  function removeFighterFromArena(uint _fighterId) external {\n    require(_owns(msg.sender, _fighterId));\n    // Just double check we can actually remove a fighter before we go any further\n    require(_fighterIsForBrawl(_fighterId));\n\n    _removeFighterFromArena(_fighterId);\n  }\n\n  function makeFighterAvailableForSale(uint _fighterId, uint _price) external {\n    require(_owns(msg.sender, _fighterId));\n    // Fighters can't be both for sale and open for brawling\n    require(!_fighterIsForBrawl(_fighterId));\n    require(_price > 0);\n\n    fightersInMarket.push(_fighterId);\n    fighterIdToSale[_fighterId] = Sale({ fighterId: _fighterId, price: _price });\n  }\n\n  function makeFighterAvailableForBrawl(uint _fighterId) external {\n    require(_owns(msg.sender, _fighterId));\n    // Fighters can't be both for sale and open for brawling\n    require(!_fighterIsForSale(_fighterId));\n\n    fightersInArena.push(_fighterId);\n    fighterIdToMaxHealth[_fighterId] = fighters[_fighterId].maxHealth;\n  }\n\n  function buyFighter(uint _fighterId) external payable {\n    _makePurchase(_fighterId, msg.value);\n    _transfer(fighterIdToOwner[_fighterId], msg.sender, _fighterId);\n  }\n\n  function getInfoForFighter(uint _fighterId) constant external returns (uint maxHealth, uint health, uint speed, uint strength, bool isForSale, bool isInArena) {\n    Fighter memory _fighter = fighters[_fighterId];\n    return (\n      _fighter.maxHealth,\n      _fighter.health, _fighter.speed,\n      _fighter.strength,\n      _fighterIsForSale(_fighterId),\n      _fighterIsForBrawl(_fighterId)\n    );\n  }\n\n  function fight(uint _attackerId, uint _defenderId, uint _seed) external {\n    // fighter actually in the arena is always the defender\n    require(_fighterIsForBrawl(_defenderId));\n    // Make sure the challenger is actually sending the transaction\n    require(_owns(msg.sender, _attackerId));\n\n    uint[2] memory winnerAndLoser = _determineWinner(_attackerId, _defenderId, _seed);\n    uint _winnerId = winnerAndLoser[0];\n    uint _loserId = winnerAndLoser[1];\n\n    if (_fighterIsForBrawl(_loserId)) {\n      _removeFighterFromArena(_loserId);\n    }\n\n    _transfer(fighterIdToOwner[_loserId], fighterIdToOwner[_winnerId], _loserId);\n    FightComplete(fighterIdToOwner[_winnerId], _winnerId);\n  }\n\n  function _determineWinner(uint _attackerId, uint _defenderId, uint _seed) internal returns (uint[2]) {\n    Combatant[] memory orderOfCombat;\n    Fighter memory _attacker = fighters[_attackerId];\n    Fighter memory _defender = fighters[_defenderId];\n\n    if(_defender.speed >= _attacker.speed) {\n      orderOfCombat[0] = Combatant({ fighterId: _defenderId, fighter: _defender });\n      orderOfCombat[1] = Combatant({ fighterId: _attackerId, fighter: _attacker });\n    } else {\n      orderOfCombat[0] = Combatant({ fighterId: _attackerId, fighter: _attacker });\n      orderOfCombat[1] = Combatant({ fighterId: _defenderId, fighter: _defender });\n    }\n\n    return _calculateCombatOutcome(orderOfCombat, _seed);\n  }\n\n  function _calculateCombatOutcome(Combatant[] _combatants, uint _seed) internal returns (uint[2]) {\n    uint[2] memory winnerAndLoser;\n\n    while ( _combatants[0].fighter.health > 0 &&  _combatants[1].fighter.health > 0) {\n      uint _fighter1StrengthCheck = (RandomNumber.randDecimal(_seed) *  _combatants[0].fighter.strength);\n      uint _fighter2SpeedCheck = (RandomNumber.randDecimal(_seed) *  _combatants[1].fighter.speed);\n\n      if (_fighter1StrengthCheck > _fighter2SpeedCheck) {\n         _combatants[1].fighter.health -= (_fighter1StrengthCheck - _fighter2SpeedCheck);\n      }\n\n      if (_combatants[1].fighter.health <= 0) {\n        winnerAndLoser[0] =  _combatants[0].fighterId;\n        winnerAndLoser[1] =  _combatants[1].fighterId;\n        break;\n      }\n\n      uint _fighter2StrengthCheck = (RandomNumber.randDecimal(_seed) *  _combatants[1].fighter.strength);\n      uint _fighter1SpeedCheck = (RandomNumber.randDecimal(_seed) *  _combatants[0].fighter.speed);\n\n      if (_fighter2StrengthCheck > _fighter1SpeedCheck) {\n         _combatants[0].fighter.health -= (_fighter2StrengthCheck - _fighter1SpeedCheck);\n      }\n\n      if (_combatants[0].fighter.health <= 0) {\n        winnerAndLoser[0] = _combatants[1].fighterId;\n        winnerAndLoser[1] = _combatants[0].fighterId;\n        break;\n      }\n    }\n\n    // Set the losers health to 0\n    fighters[winnerAndLoser[1]].health = 0;\n    return winnerAndLoser;\n  }\n\n  function _makePurchase(uint _fighterId, uint _price) internal {\n    require(_fighterIsForSale(_fighterId));\n    require(_price >= fighterIdToSale[_fighterId].price);\n\n    address sellerAddress = fighterIdToOwner[_fighterId];\n    _removeFighterFromSale(_fighterId);\n\n    uint saleCut = _calculateCut(_price);\n    uint totalSale = _price - saleCut;\n    sellerAddress.transfer(totalSale);\n\n    PurchaseSuccess(msg.sender, _price, _fighterId);\n  }\n\n  function _calculateCut(uint _totalPrice) internal returns (uint) {\n    return ((_totalPrice / 100) * marketplaceCut);\n  }\n\n  function _fighterIsForSale(uint _fighterId) internal returns (bool) {\n    return (fighterIdToSale[_fighterId].price > 0);\n  }\n\n  function _fighterIsForBrawl(uint _fighterId) internal returns (bool) {\n    return (fighterIdToMaxHealth[_fighterId] > 0);\n  }\n\n  function _removeFighterFromSale(uint _fighterId) internal {\n    uint index;\n    for(index = 0; index < fightersInMarket.length; index++) {\n      if (fightersInMarket[index] == _fighterId) {\n        delete fightersInMarket[index];\n      }\n    }\n    delete fighterIdToSale[_fighterId];\n  }\n\n  function _removeFighterFromArena(uint _fighterId) internal {\n    uint index;\n    for(index = 0; index < fightersInArena.length; index++) {\n      if (fightersInArena[index] == _fighterId) {\n        delete fightersInArena[index];\n      }\n    }\n    delete fighterIdToMaxHealth[_fighterId];\n  }\n}\n",
  "sourcePath": "/Users/Aaron/Projects/cryptoclash/contracts/marketplace/Marketplace.sol",
  "compiler": {
    "name": "solc",
    "version": "0.4.18+commit.9cf6e910.Emscripten.clang"
  },
  "schemaVersion": "1.0.1",
  "updatedAt": "2018-01-16T20:49:00.230Z"
}