{
  "contractName": "MarketplaceConfig",
  "abi": [
    {
      "constant": true,
      "inputs": [],
      "name": "combatEndpoint",
      "outputs": [
        {
          "name": "",
          "type": "string"
        }
      ],
      "payable": false,
      "stateMutability": "view",
      "type": "function"
    },
    {
      "constant": true,
      "inputs": [],
      "name": "owner",
      "outputs": [
        {
          "name": "",
          "type": "address"
        }
      ],
      "payable": false,
      "stateMutability": "view",
      "type": "function"
    },
    {
      "constant": true,
      "inputs": [],
      "name": "marketplaceCut",
      "outputs": [
        {
          "name": "",
          "type": "uint256"
        }
      ],
      "payable": false,
      "stateMutability": "view",
      "type": "function"
    },
    {
      "constant": false,
      "inputs": [
        {
          "name": "newOwner",
          "type": "address"
        }
      ],
      "name": "transferOwnership",
      "outputs": [],
      "payable": false,
      "stateMutability": "nonpayable",
      "type": "function"
    },
    {
      "constant": false,
      "inputs": [
        {
          "name": "_newCut",
          "type": "uint256"
        }
      ],
      "name": "setNewMarketplaceCut",
      "outputs": [],
      "payable": false,
      "stateMutability": "nonpayable",
      "type": "function"
    },
    {
      "constant": false,
      "inputs": [],
      "name": "withdrawBalance",
      "outputs": [],
      "payable": false,
      "stateMutability": "nonpayable",
      "type": "function"
    },
    {
      "constant": false,
      "inputs": [
        {
          "name": "_recipient",
          "type": "address"
        }
      ],
      "name": "withdrawBalanceToAddress",
      "outputs": [],
      "payable": false,
      "stateMutability": "nonpayable",
      "type": "function"
    },
    {
      "constant": false,
      "inputs": [],
      "name": "killConract",
      "outputs": [],
      "payable": false,
      "stateMutability": "nonpayable",
      "type": "function"
    },
    {
      "constant": false,
      "inputs": [
        {
          "name": "newEndpoint",
          "type": "string"
        }
      ],
      "name": "setNewCombatEndpoint",
      "outputs": [],
      "payable": false,
      "stateMutability": "nonpayable",
      "type": "function"
    }
  ],
  "bytecode": "0x60606040526005600155608060405190810160405280604381526020017f68747470733a2f2f72696e6b656279627261776c6261636b656e642e6865726f81526020017f6b756170702e636f6d2f6170692f6172656e612f63616c63756c61746557696e81526020017f6e65720000000000000000000000000000000000000000000000000000000000815250600290805161009f9291602001906100c0565b5060008054600160a060020a03191633600160a060020a031617905561015b565b828054600181600116156101000203166002900490600052602060002090601f016020900481019282601f1061010157805160ff191683800117855561012e565b8280016001018555821561012e579182015b8281111561012e578251825591602001919060010190610113565b5061013a92915061013e565b5090565b61015891905b8082111561013a5760008155600101610144565b90565b61050c8061016a6000396000f3006060604052600436106100985763ffffffff7c01000000000000000000000000000000000000000000000000000000006000350416631ba21011811461009d5780635fd8c710146100be578063656aa88a146100d15780636bbd3c97146100ef5780638da5cb5b14610179578063920b4a2d146101a8578063ad2dccfe146101be578063c48f66f2146101e3578063f2fde38b146101f6575b600080fd5b34156100a857600080fd5b6100bc600160a060020a0360043516610215565b005b34156100c957600080fd5b6100bc610270565b34156100dc57600080fd5b6100bc60048035602481019101356102c6565b34156100fa57600080fd5b6101026102f2565b60405160208082528190810183818151815260200191508051906020019080838360005b8381101561013e578082015183820152602001610126565b50505050905090810190601f16801561016b5780820380516001836020036101000a031916815260200191505b509250505060405180910390f35b341561018457600080fd5b61018c610390565b604051600160a060020a03909116815260200160405180910390f35b34156101b357600080fd5b6100bc60043561039f565b34156101c957600080fd5b6101d16103bf565b60405190815260200160405180910390f35b34156101ee57600080fd5b6100bc6103c5565b341561020157600080fd5b6100bc600160a060020a03600435166103ee565b60005433600160a060020a0390811691161461023057600080fd5b80600160a060020a03166108fc30600160a060020a0316319081150290604051600060405180830381858888f19350505050151561026d57600080fd5b50565b60005433600160a060020a0390811691161461028b57600080fd5b600054600160a060020a039081169030163180156108fc0290604051600060405180830381858888f1935050505015156102c457600080fd5b565b60005433600160a060020a039081169116146102e157600080fd5b6102ed60028383610445565b505050565b60028054600181600116156101000203166002900480601f0160208091040260200160405190810160405280929190818152602001828054600181600116156101000203166002900480156103885780601f1061035d57610100808354040283529160200191610388565b820191906000526020600020905b81548152906001019060200180831161036b57829003601f168201915b505050505081565b600054600160a060020a031681565b60005433600160a060020a039081169116146103ba57600080fd5b600155565b60015481565b60005433600160a060020a039081169116146103e057600080fd5b600054600160a060020a0316ff5b60005433600160a060020a0390811691161461040957600080fd5b600160a060020a0381161561026d5760008054600160a060020a03831673ffffffffffffffffffffffffffffffffffffffff1990911617905550565b828054600181600116156101000203166002900490600052602060002090601f016020900481019282601f106104865782800160ff198235161785556104b3565b828001600101855582156104b3579182015b828111156104b3578235825591602001919060010190610498565b506104bf9291506104c3565b5090565b6104dd91905b808211156104bf57600081556001016104c9565b905600a165627a7a723058203100600e72850e35b4e55c0bf24fdb0e8d3407aeeedfa29d3adac158cd6619f60029",
  "source": "pragma solidity ^0.4.18;\n\nimport \"../base/Ownable.sol\";\n\ncontract MarketplaceConfig is Ownable {\n  uint public marketplaceCut = 5;\n  string public combatEndpoint = \"https://rinkebybrawlbackend.herokuapp.com/api/arena/calculateWinner\";\n\n  function setNewMarketplaceCut(uint _newCut) external onlyOwner {\n    marketplaceCut = _newCut;\n  }\n\n  function withdrawBalance() external onlyOwner {\n    owner.transfer(this.balance);\n  }\n\n  function withdrawBalanceToAddress(address _recipient) external onlyOwner {\n    _recipient.transfer(this.balance);\n  }\n\n  function killConract() external onlyOwner {\n    selfdestruct(owner);\n  }\n\n  function setNewCombatEndpoint(string newEndpoint) external onlyOwner {\n    combatEndpoint = newEndpoint;\n  }\n}\n",
  "sourcePath": "/Users/Aaron/Projects/cryptoclash/contracts/marketplace/MarketplaceConfig.sol",
  "compiler": {
    "name": "solc",
    "version": "0.4.19+commit.c4cbbb05.Emscripten.clang"
  },
  "schemaVersion": "1.0.1",
  "updatedAt": "2018-02-24T11:17:37.994Z"
}